:1000000043C200005FC200005DC200000C94711387
:1000100059C2000057C2000055C2000053C2000080
:1000200051C200004FC200004DC200004BC2000090
:1000300049C200000C940A1345C2000043C20000EC
:1000400055C400003FC200003DC200003BC200009A
:100050000C9406200C94CE1F35C2000033C2000061
:1000600031C200002FC200002DC200002BC20000D0
:100070000C94224127C2000025C2000023C20000C8
:1000800021C200001FC200001DC20000082D122F57
:10009000222D222E492E692E732E162E6D9D1F4263
:1000A000D90862AC46434B0346F90A5AB61969B0FF
:1000B0003E41150D47FC0A4D340B52990754141B51
:1000C000564309570D08587A0E4F353D65010966AC
:1000D000D31E6CC80874F60475FE1548E642598EA6
:1000E0004978DE03451223638B3571072400000035
:1000F000202F2000203D2000072E050DD391FF0862
:100100000500000C0021656A2D3B1322F862073FB1
:10011000181D1CC700B0876BF8B611EA2A001F41F2
:10012000000D2E2D07D3913D0432000006002165FD
:100130006A55E43023B900070018146C0700908753
:100140006BF85611E92A001F410000030F1E2627F5
:10015000000000030F1E2536386700030F25674097
:10016000605000030F275188838100030F2750C878
:10017000C3C200270000000000000067000000006C
:10018000000000500000000000000081000000009E
:10019000000000C2000000000000504C4C310D0A6D
:1001A00000504C4C300D0A005620312E363420437E
:1001B000554E4F383638005620312E3634204355B0
:1001C0004E4F34333300202F2000203D20004C4F71
:1001D00056460D0A000B08105B11F81547191D1A39
:1001E0001C1BC71C001DB221B623EA0007022E0308
:1001F0000D04E905CA070C0B060D210E650F6A10E8
:10020000C81193120315341733181819161B4321FC
:10021000562500261129592C812D353EC3424F56B3
:10022000460D0A004C454E4552520D0A004C4F56A1
:10023000460D0A004C454E4552520D0A0000070279
:100240004604C605260B0610C81193120313221587
:1002500034173F182819161B432156250026110D67
:10026000210E650F6A070C160720F81E871F6B29E1
:10027000592C812D353EC3FF004E2F4100454F4282
:100280000D0A004E2F41004E2F41000053530054E1
:100290007D7DFFFF4B4B7E7E0020697320756E6B6A
:1002A0006E6F776E2920557365206F6E65206F66BF
:1002B000003F202800413435303535004134353099
:1002C000353500303000302E302E302E30003233B5
:1002D0003233003139322E3136382E302E31003261
:1002E00035352E3235352E3235352E300031393216
:1002F0002E3136382E302E3234340031000D2E2D72
:1003000007D3913D04320000060010B07155E4306F
:1003100023B900070018146C070090876BF856117A
:10032000E92A001F41002053495A453A0020444120
:1003300054413A00204352433A00204F563A00209D
:1003400050453A002046453A0020524543563A006F
:1003500053454E543A00483F207374617475732CB2
:100360002048736161626263632E2E2E2073656E76
:1003700064206D65737361676520616162626363A8
:100380002E2E2E00746F6F2073686F72742C206D88
:10039000696E696D756D20392062797465733A20D4
:1003A0006464646464646363737373737373737397
:1003B000004F4646004F464600544D4F44450053BB
:1003C0004D4F4445000454053D1700000602000B44
:1003D000080C000D210E6B0FD0105C1104120613D7
:1003E0002214F80A00154421B622101818192E1AE2
:1003F000BF1B431C091DB523EA242A2500261F29FB
:10040000592C812D352E0907040800090006FF3EEE
:10041000C2FF047605961700000602000B080C00C8
:100420000D210E650F6A106A114A1206132214F884
:100430000A00154721B622101818192E1A6D1B0430
:100440001C091DB223EA242A2500261F29592C81C4
:100450002D352E0907040800090006FF3EC2FF0DD6
:100460002E2D07D3913D04320000060010ABA55598
:100470000A3023B900070018146C070090876BF846
:100480005611E92A001F410011241FBECFEFD0E40E
:10049000DEBFCDBF12E0A0E0B1E0EAEBF0EA00E0A1
:1004A0000BBF02C007900D92A83BB107D9F722E21B
:1004B000A8EBB2E001C01D92AC36B207E1F703D061
:1004C0000C945B509DCD88E10FB6F894809360004A
:1004D000109260000FBE549A5C9A5D9A5E9A209AC0
:1004E000289A0E946636BCD660E083E390E00E94C2
:1004F0002B500E947C360E94AE3A0E94063A89EF49
:1005000087BD84E085BD82E084BD80936E0010923B
:1005100080008AE08093810090E080E80FB6F89434
:1005200080936100909361000FBE84B7877F84BF82
:100530002FE088E190E00FB6F894A89580936000D2
:100540000FBE2093600089E190E80E943A200E944B
:10055000B41A0E94540E86E990E290938B0980931E
:100560008A090E94201589E08093BB020E94A42280
:1005700028980E94114178940E945B200E947D106F
:100580005AD20E941A1F0E94A0160E94EA0B0E94D3
:10059000D6210E943E190E94F4410E94AD44ECCF46
:1005A0008EBD0DB407FEFDCF8EB50895A1E0B0E07D
:1005B000ECEDF2E00C94A14E482F8A3008F048E0B0
:1005C00088E0489F70011124F701E65BFE4F7F0130
:1005D0008BE290E0F70164918C010F5F1F4F49831C
:1005E00073D4FFEFEF1AFF0A49810333110511F0AD
:1005F000C801F0CF4550453010F461E101C067E11A
:1006000084E290E061D42196E6E00C94BD4ECF9355
:10061000DF9382E090E0FC01E15EFE4F6491EC012B
:10062000219652D4CB32D10511F0CE01F4CF87E31D
:1006300090E0FC01EF53FF4F6491EC01219644D40C
:10064000C036D10511F0CE01F4CF4D9918C060E14C
:100650008FE090E039D460EB80E190E035D461E741
:1006600081E190E031D460E184E490E02DD460EB4E
:1006700085E490E029D461E786E490E025D488E021
:1006800095DFDF91CF9108952C98806C89DF80E011
:1006900087DF2C9A0895A1E0B0E0E1E5F3E00C9447
:1006A000A44E41E0BE016F5F7F4F019685D3892B39
:1006B00021F18981893969F410E0812FE5DF78D350
:1006C000812F8770873009F4FFD21F5F1033A9F79D
:1006D00014C0DADF182F83E4A0D2898169D384EFB4
:1006E00090E0E5D2812F64D380EF90E0E0D240E249
:1006F00062E0812F90E0ECD2E7D22196E3E00C9407
:10070000C04EA1E0B0E0E7E8F3E00C94A54E2C98D1
:100710008064698345DF6981862F42DF2C9A2196A8
:10072000E2E00C94C14E2C983BDF2C9A0895EF9296
:10073000FF920F931F93CF93DF93EC011092670307
:10074000EA98249A2C9A8EE190E0F2D12C988EE1CE
:1007500090E0EED12C9A8DE290E0EAD180E3E3DFE5
:1007600084E690E0E5D12C9880E41ADF7E0189E2EE
:10077000E80EF11C8E010F5F1F4FCE01AAD310DFD0
:100780000E151F0511F0E801F5CF2C9A2C988EE775
:1007900007DF8BE290E0EC0121969BD301DFC333AE
:1007A000D10511F0CE01F7CF2C9A83E3BCDF81E0B5
:1007B000C4D1CDB7DEB7E6E00C94BD4EA1E0B0E009
:1007C000E4EEF3E00C94A54E22E0298341E0BE0163
:1007D0006F5F7F4F0196F0D28981E8DE82E090E082
:1007E000A6DF2196E2E00C94C14ECF93EA9886E30F
:1007F0009ADFCFEF85E397DFC1508077803229F011
:100800008AE090E095D1C111F5CFCF910895CF93B3
:10081000CFEF84E388DFC1508077803129F08AE010
:1008200090E086D1C111F5CFEA9ACF91089586E381
:100830007ADF10928C091092C1021092670308951A
:1008400082E090E074DF81E080938C091092C10215
:100850001092670308950F931F93CF93DF93082F90
:1008600010E0C62FD0E085E30FDF801731F0CE0116
:100870005FD11150C1F781E001C080E0DF91CF91DD
:100880001F910F91089585E2FFDE8F3311F080E014
:10089000089586E348DF8091B802811104C081EA9F
:1008A00091E005D202C08DE33EDF83E33CDF64E0EC
:1008B00081E0D1DF85E2E8DE8F3349F78091B8022D
:1008C000811103C08AE991E0F2D181E0089585E3C6
:1008D000DBDE8D3051F485E2D7DE8F3331F4D3DFA8
:1008E00084E321DF80778031D9F708951F920F923A
:1008F0000FB60F9211240BB60F928F939F93AF9365
:10090000BF93EF93FF9380918E0990918F09A091EF
:100910009009B09191090196A11DB11D80938E0996
:1009200090938F09A0939009B093910980918D09BC
:100930008F5F80938D0980917E1E8F5F80937E1ED6
:100940008D37A8F080910D0190910E01A0910F01BB
:10095000B09110010196A11DB11D80930D019093DE
:100960000E01A0930F01B093100110927E1EE3EBD5
:10097000FDE080819181181619061CF4019791837E
:10098000808336968DE0EB3CF80799F78091CD0D8A
:100990009091CE0D009729F001979093CE0D809302
:1009A000CD0D8091E00D8F3F19F081508093E00DC7
:1009B000FF91EF91BF91AF919F918F910F900BBEDF
:1009C0000F900FBE0F901F9018952FB7F89440917D
:1009D0008E0950918F096091900970919109FC01E5
:1009E00040835183628373832FBF0895A4E0B0E0F6
:1009F000ECEFF4E00C94A54ECE010196E6DF8C817D
:100A0000D7D18B81D5D18A81D3D18981D1D15CD104
:100A10002496E2E00C94C14EA4E0B0E0E2E1F5E0FF
:100A20000C94A54ECE010196D0DF89819A8124963F
:100A3000E2E00C94C14E1F93CF93DF9380918E0917
:100A400090918F09A0919009B09191092091BA02DB
:100A5000281709F469C080918E0990918F09A0919F
:100A60009009B09191098093BA02A895C3EBDDE09B
:100A700010E028813981232B19F4812F0E94431D16
:100A80001F5F26961430A9F78091CD0D9091CE0D61
:100A9000892B11F40E949F1D8091E00D811102C0ED
:100AA0000E94FD1D8091A40D882339F08150809310
:100AB000A40D811102C00E943E170E94F83A809155
:100AC0008D098D3788F110928D098091000181FF89
:100AD00004C085B191E0892785B9809192099091F0
:100AE0009309843823E0920728F4019690939309A0
:100AF000809392090E94073780910D01811102C0F5
:100B00000E940B368091B9028F5F8093B9028C33BB
:100B100059F41092B9028091B20D8F5F8093B20D9B
:100B20008C3310F01092B20DDF91CF911F91089588
:100B3000880F991F0197F1F7089520ED37E0815054
:100B400020F0F9013197F1F7FACF0895CF93DF93B1
:100B5000DC0116968C911697843509F05BC0CD01A7
:100B60000696CD91DC9111974DE0242F30E02C17A3
:100B70003D0740F0AE014F5051092417350709F0E9
:100B800049C008C0FC01E20FF31F50815B3391F3B1
:100B90004F5FEBCFFE013E97E80FF91F2081243510
:100BA000C9F517963C9117972181321333C01896D7
:100BB0003C911897228132132DC019963C911997B8
:100BC0002381321327C01A963C911A97248132133D
:100BD00021C06197C80FD91F858188838681898349
:100BE00081858A8382858B8383858C8384858D83AD
:100BF00085858E838D919C9111970A9711969C9370
:100C00008E9314968D919C9115970A9715969C93A7
:100C10008E931497DF91CF910895CF93C82F809131
:100C2000BB0282FF03C08C2F0E94FA238091BB027B
:100C300080FF13C02091F60D3091F70D2E3F83E019
:100C4000380738F02115344040F4CD3011F0CA3067
:100C500021F46C2F82EF9DE027D38091AF0D882384
:100C6000C9F08091BB0283FF15C0CA3099F0CD3026
:100C700011F46BE301C06C2F8CE999E015D3CD30F2
:100C800019F48CE999E062DF83E08093A40D82E09F
:100C90008093AA0DCF910895CF93DF93EC018991B2
:100CA000882311F0BADFFBCFDF91CF910895CF9366
:100CB000DF93EC01FE018491882319F0AEDF2196C9
:100CC000F9CFDF91CF9108958DE0A7DF8AE0A5CF1E
:100CD000A6E0B0E0EEE6F6E00C94A34E062F1E82EE
:100CE00015E02AE030E01150E1E0F0E0EC0FFD1FEC
:100CF000E10FF11DB9010E942D4E805D8083CB0173
:100D00000150009769F01111EECF0AC0112359F07C
:100D10001150E1E0F0E0EC0FFD1FE10FF11D408309
:100D2000015007FFF3CF81E090E08C0F9D1F810FF2
:100D3000911DB2DF2696E4E00C94BF4EA5E0B0E032
:100D4000E4EAF6E00C94A54E1D8224E0382F3F70B3
:100D50002150E22FF0E03A3010F4305D01C0395CF0
:100D6000A1E0B0E0AC0FBD1FEA0FFB1F308334E001
:100D7000969587953A95E1F76150009739F761505C
:100D800067FD0BC0222349F02150E1E0F0E0EC0FB9
:100D9000FD1FE20FF11D4083F2CF81E090E08C0F48
:100DA0009D1F820F911D78DF2596E2E00C94C14EC5
:100DB00040E362E090E0C2CFDC01FB0130E090E074
:100DC0008D918823A9F0813608F0805220ED280FFC
:100DD0002A3030F02FEB280F263030F429EC280F82
:100DE000292B332379F006C0803251F38A3341F343
:100DF000CF0105C0CF0101962083415041F4861BED
:100E0000970B0895922F9295907F31E0D9CFFC01F6
:100E1000D5CFFB0150E020E0DC013D91CD01332333
:100E2000D1F050ED530F5A3050F4522F550F252F5B
:100E3000220F220F250F2053230F51E0EDCF303228
:100E400011F03E3279F4442321F020834150319651
:100E5000E1CF50E0E1CFDF01552321F0442311F031
:100E600031962C93CF01861B970B089520E030E03C
:100E70005AE0FC014191CF01442379F0E0EDE40F09
:100E8000EA30B8F7F9015E9F90015F9F300D1124A1
:100E900020533109240F311DECCFFB013183208316
:100EA0000895982F92959F709A3010F4905D01C02C
:100EB000995CFB0190838F708A3010F4805D01C0D3
:100EC000895CFB01818308950E943D50F999FECF12
:100ED00008950C941E5008951F93CF93DF9314E050
:100EE000115068F0EC012196F4DF40E261E090E0FF
:100EF000EFDE112311F08EE290DECE01F1CFDF9113
:100F0000CF911F9108951F93CF93DF93162F115008
:100F10001F3F59F0EC012196DCDF4ADF112311F06D
:100F20008AE37BDE1150CE01F3CFDF91CF911F9189
:100F30000895A2E0B0E0EFE9F7E00C94A24EFC01C6
:100F40002181293691F582818D3621F466E082E691
:100F500090E030C0843619F488E690E019C08136FC
:100F600019F489E690E00EC08E3619F48DE690E013
:100F700009C0873619F481E790E004C08E3421F46B
:100F800085E790E0A9DF44C08F3629F48BE790E035
:100F9000A0DF0EDF3DC0803709F03AC089E790E05E
:100FA0000E94265040E260E032C02D3429F466E011
:100FB0008AEF9FE0A8DF2CC0203521F460E18AEDA4
:100FC0009FE0F8CF1A82198242E0BE016F5F7F4F27
:100FD0000196F2DE098110E0823021F4102F002703
:100FE0008A81082BC80175DFF82E82E516DE40E302
:100FF00064E0C801A3DE8AEC91E059DE8F2DD8DED3
:1010000086EC91E054DE40E262E08F2D90E060DEFD
:101010005BDE2296E5E00C94BE4EA8E0B0E0E3E192
:10102000F8E00C949F4E9C01FC0181818E010F5FC2
:101030001F4F893609F06BC082818D3649F446E036
:10104000B801C9010396B8DE82E690E026E04DC003
:10105000843639F4B801C901039608DF88E690E0C8
:101060003FC0813641F444E0B801C9010396D1DEA6
:1010700089E690E027C08E3641F444E0B801C9010A
:101080000396C7DE8DE690E01DC0873641F444E04C
:10109000B801C9010396BDDE81E790E013C0803737
:1010A00041F4B801C9010396E1DE89E790E022E04E
:1010B0001CC08E3449F444E0B801C9010396A9DE8E
:1010C00085E790E024E011C08F3661F441E0B8017B
:1010D000C901039671DE898180937F1E8BE790E0C2
:1010E00021E003C080E090E020E078013E2D301B3D
:1010F000321708F049C0F70161917F016C01FFEFE1
:10110000CF1ADF0A2887E0DEC6012885EFCF43E04B
:10111000B801C901019628873F834EDE28853F81AB
:10112000823090F1C980D12C823021F0DC2CCC248B
:101130004A81C42A7C01FF24FE01EE0DFF1D60815F
:10114000C60128873F83C0DEEE0CFF1C8FEFE81A34
:10115000F80A28853F81E20EF31EEFEFCE1ADE0A71
:10116000F7018081882381F041E0B801C70124DEC6
:10117000892B51F06981C601A7DEF2E0EF0EF11C68
:1011800032E0C30ED11CECCF2896E8E00C94BB4EA5
:1011900041E060E071E001960FDE8091000180FF88
:1011A00002C0289A01C028986091000184E390E071
:1011B0008BCEA1E0B0E0EFEDF8E00C94A54E1982E3
:1011C000009731F041E0BE016F5F7F4F0196F4DD83
:1011D00089818F3F09F4FFCF882321F061E083E309
:1011E00090E072DE10926E00F89428E088E190E0C2
:1011F0000FB6F894A895809360000FBE209360000E
:10120000FFCFCF93DF93EC0161E080E090E05CDE04
:101210006FE381E090E058DEFAD960E080E690E08C
:1012200053DE60E081E690E04FDE60E083E390E033
:101230004BDE62E084E390E047DE0E94152160E02F
:1012400080E690E041DE60E081E690E03DDE89816D
:10125000883719F080E090E0ACDFDF91CF910895FE
:1012600080E090E036DE813029F481E090E031DEEC
:101270008F3319F080E090E0C4DF84E390E029DE52
:101280008093000108954D9903C087EB91E002C05F
:1012900088EA91E00CDD18CDFC01158214821182E0
:1012A0001082138212820895FC014FB7F894848152
:1012B0009581811524E0920798F4019695838483A3
:1012C00020813181C901019691838083DF01A20FC2
:1012D000B31F16966C938115944011F411821082FD
:1012E0004FBF0895FC014FB7F89484819581009712
:1012F00019F44FBF80E0089501979583848382811C
:1013000093819C012F5F3F4F33832283DF01A80F1E
:10131000B91F16968C912115344011F41382128254
:101320004FBF0895FA013081882369F0E1E0F0E0D1
:10133000022E01C0EE0F0A94EAF7DB01A30FB11DE4
:101340009C919E2B9C93222319F08FEF820F0BC050
:1013500081E0830F8C3010F4FA018083FB01E80FE9
:10136000F11D108287E090E00895CF93C82F299A4D
:10137000882319F08091BE0202C08091C00220E152
:10138000829FC0011124D4DB2998CC2319F08091CD
:10139000BD0202C08091BF0220E1829FC0011124E2
:1013A000C7DBCF910895A3E0B0E0E9EDF9E00C943C
:1013B000954E5C01162F622E842F90E09B838A83CA
:1013C00020919209309193090296089F802D112453
:1013D000992787FD90952817390720F48EEC91E026
:1013E00066DC7DC0281B390B30939309209392094A
:1013F000289A80916703882341F0109267038BEA53
:1014000092E078D4FF24F39401C0F12C80918C09F0
:10141000811101C015DAE9D9812E912CCC24C39415
:10142000D12C712C512C852D992787FD90958815ED
:10143000990524F480E099DF5394F5CF112311F03E
:1014400081E093DF20E0422E552447FC5094EA814E
:10145000FB814E165F062CF097E0392E4A0C5B1C80
:101460001AC087E0282E312C4A0C5B1CC601022CC6
:1014700001C0880F0A94EAF7F20190818923298339
:1014800074DFF1E02F1A310829818FEF2816380612
:1014900069F72F5FD8CF832D992787FD9095681620
:1014A000790664F4C601032C01C0880F0A94EAF798
:1014B000F2019081892359DF3A94EDCF8E2D3DDBE7
:1014C000015009F0AFCF80919509882311F09FD981
:1014D00002C086E328D9F1100E945A172898239653
:1014E000E2E10C94B14EADE0B0E0E9E7FAE00C9433
:1014F000984E7C01162F842F022F6701C60ED11C37
:10150000462FB7010ED4D6018C931F5F1D8619821A
:101510005E2C670127E066246394712C8C2D85195D
:10152000811788F547E0A42EB12C4701880E911C45
:10153000F3010A2C01C0EE0F0A94EAF7D4018C9152
:10154000AE01435F5F4FBE016F5F7F4F8E23EADEC8
:10155000282FB1E0AB1AB10858F7D6018D916D0173
:10156000082E82958025082E8695869580258F5F8A
:1015700086958170AE01435F5F4FBE016F5F7F4F05
:10158000D1DE282FCBCF222311F0215004C08D852E
:101590008F5F8D8727E089E18093BF028093C0022F
:1015A00085E28093BD028093BE023AE0E32E4D8532
:1015B0006CE0CE010196F7DE2D96EFE00C94B44E70
:1015C000ADE0B0E0E6EEFAE00C94A44E162F242F26
:1015D0004BE0BE016F5F7F4F01962D87EDDB2D85C0
:1015E000412F682FCE0101967EDF2D96E3E00C940B
:1015F000C04E43E066E0E4CFEF920F93CF93DF93CA
:10160000CDB7DEB760970FB6F894DEBF0FBECDBF83
:1016100040E1BE016F5F7F4F0196CEDB69814A8159
:101620000B818C818093C0028D818093BF028E815B
:101630008093BE028F818093BD02E02EE2947FE012
:10164000E7220F70242F2F7042954F70CE0108961D
:10165000AADE60960FB6F894DEBF0FBECDBFDF9155
:10166000CF910F91EF900895A9E1B0E0EAE3FBE09C
:101670000C949D4E4BE0BE016F5F7F4F01969CDB4B
:10168000182F893009F05AC099E19093BF029093C6
:10169000C0029093BE0282E38093BD0269E0CE0156
:1016A000019649D3E1E0F0E0EC0FFD1FE10FF11DE1
:1016B0008083198E1D86CE0101967C016E019BE010
:1016C000C90ED11C27E0AA24A394B12CEC14FD046C
:1016D00029F100E010E0F501002E01C0EE0F0A94A0
:1016E000EAF7D7018C91AE01475E5F4FBE01635FA1
:1016F0007F4F8E2317DE282F0F5F1F4F08301105F5
:1017000051F7AE01475E5F4FBE01635F7F4F81E0DF
:1017100009DE282FBFEFEB1AFB0AD8CF222311F0E6
:10172000215004C0898D8F5F898F27E0EAE0EE2E7B
:1017300003E0498D6CE0CE010D9635DE6996EAE056
:101740000C94B94ECF93DF93EA98249A2C9A8EE1A9
:1017500090E0EED92C988EE190E0EAD92C9A8DE2B7
:1017600090E0E6D980E30E94930384E690E0E0D91C
:10177000CBEED1E0FE0131966491FE0184910E948E
:1017800081032296F2E0CD31DF07A1F78091C202FA
:10179000811106C083E30E94930384E0CED90FC079
:1017A000C5EDD1E0FE0131966491FE0184910E9465
:1017B00081032296F1E0CB3EDF07A1F7EBCF84E374
:1017C0000E94930385E30E9444038D30C1F7DF91AB
:1017D000CF910895A2E3B0E0E0EFFBE00C94A34EBC
:1017E0008091C102882309F49BC01A9B84C08FE3B7
:1017F0000E9444038F778983823368F08AE30E94D2
:10180000930386E30E9493038DE30E94930384E392
:101810000E94930385C02C988FEF0E94D00210E0A5
:101820008981181760F480E00E94D002E2E0F0E0C5
:10183000EC0FFD1FE10FF11D80831F5FF1CF80E0F2
:101840000E94D002082F80E00E94D0022C9A84E3EC
:101850000E94930385E30E9444038D30C1F72A81DF
:1018600096E792279A8392E08981E92FF0E0981712
:1018700068F441E050E04C0F5D1FE40FF51F30812C
:101880002452232720839F5F232FEECF81E090E017
:101890008C0F9D1FE80FF91F90818B8198279083F3
:1018A0008091950984FF10C081E6B7D910E0898145
:1018B000811708F1E1E0F0E0EC0FFD1FE10FF11DF1
:1018C0008081ABD91F5FF3CF81E4A7D910E0898174
:1018D000811750F0E1E0F0E0EC0FFD1FE10FF11D8A
:1018E000808166DA1F5FF3CF8091950985FF02C082
:1018F000802F5EDAE9D985E30E944403813029F024
:10190000813161F48AE30E94930386E30E9493038A
:101910008DE30E94930384E30E9493030E94670473
:10192000E296E4E00C94BF4EA2E3B0E0EAE9FCE00A
:101930000C949F4E41E38E010F5F1F4FB80101963B
:101940003BDA6C019C01332721503109898190E0F9
:101950002817390709F065C08091C102811103C0C1
:10196000F1DE83E0EAD8FB808A8196E789278A83C3
:1019700092E08981292F30E0F801E20FF31F9817D8
:1019800050F4DE01A20FB31F8C9184522081822774
:1019900080839F5FEECF80818F25808385E30E94C7
:1019A000930385E30E9444038331C1F7F4FE06C02C
:1019B00088E7C3D888E7C1D888E701C08AE0BDD8E6
:1019C0002C988FE70E94D00278018E2D801B8C15F9
:1019D00030F4F70181917F010E94D002F6CF2C9A5A
:1019E00085E30E9444038331D9F385E30E944403D5
:1019F000863149F48BE30E94930386E30E949303AC
:101A00008DE30E9493038091C102882349F084E30F
:101A10000E94930385E30E9444038D30C1F701C007
:101A20005AD1E296E8E00C94BB4EFC0121812237AA
:101A300031F0223559F481E08093C20202C0109245
:101A4000C20280DE81E08093C1020895233711F441
:101A500001966ACF1092C10208958F929F92AF9221
:101A6000BF92DF92EF92FF920F931F93CF93DF937A
:101A70001092DE021092F302FC012181220F220F4C
:101A8000220F3381231B57E0520F1092DF0210E028
:101A900070E038E0D32ED20EFF24F39447E007E045
:101AA000E12CC7E0D0E0A1E0B0E0FD1409F47FC074
:101AB000FC01EE0DF11D248130E0002E02C03595B1
:101AC00027950A94E2F721703327E22F002311F0C3
:101AD000015002C0E39407E06B3471F4433009F025
:101AE0004AC0111107C0E1115FC01092DE0270936D
:101AF000F30274C010E041C04F3F31F56634A9F4E1
:101B0000E72FF0E0E152FD4FE0810E2EE295E02557
:101B10000E2EE695E695E025EF5FE1FB882480F840
:101B2000912C8216930641F004C0653429F4E1112A
:101B300003C01093DE02DBCF7F5FE72FF0E0E152BE
:101B4000FD4F108247E031C0EE2361F1663471F43D
:101B5000E72FF0E0E152FD4FA0809D01042E01C06F
:101B6000220F0A94EAF7A22AA0821CC0653439F039
:101B70006B34C1F404C04F3FD1F2EE2399F0E72F4C
:101B8000F0E0E152FD4F9E01241B310947FD3395E2
:101B90005D0102C0AA0CBB1C2A95E2F795013081B9
:101BA000322B3083415001C011E0F3947ECF10936B
:101BB000DE027093F3025F1588F4653431F44F3F11
:101BC00021F47F5F7093F30204C08091DE028111E3
:101BD000F8CF81E09091F302911101C080E0DF9194
:101BE000CF911F910F91FF90EF90DF90BF90AF903A
:101BF0009F908F90089510926F00E091F6028CE113
:101C0000E89FF0011124E950FD4F10828091940962
:101C10008D7F809394090895FC012181243108F07F
:101C2000EACF3381662381F081E090E0032E01C08A
:101C3000880F0A94EAF7DF01A20FB11D14969C9158
:101C40001497982B14969C93332319F031503383B7
:101C5000089587E083832F5F2183E20FF11D1482B3
:101C60000895DC011196EC911197F0E050E02C9171
:101C7000CF01841B950B0B964797A0F430E070E0E2
:101C8000C901861B970B0B96479760F42E0F3F1FD9
:101C9000640F751F261B370B255F3F4F81E02731EF
:101CA000310508F080E00895219A29982298E9E604
:101CB000F0E080818061808382EC91E090939309D1
:101CC000809392091092130310922F0310924B03EA
:101CD00010928C0908958091830981110AC0809126
:101CE0009509882321F00E9420040C9407040C9489
:101CF00017040895FC01218121110DC080919509DF
:101D000057D840E265E080919209909193090E9432
:101D100068060C94640641E065E979E001964CD8C8
:101D2000DACF442339F04150FB01E40FF11D9081DB
:101D3000890FF7CF089520E0662339F06150FC0148
:101D4000E60FF11D30812327F7CF822F0895A09150
:101D5000DE0240E035E020E0662399F06150FC01AE
:101D6000E60FF11D5081752F72957F702727370F71
:101D7000AA2311F0442319F05F702527350F4F5F18
:101D8000EBCF320F40E1349FC0011124822B089524
:101D9000FC0132812381A081B181A30FB11D8C91FF
:101DA00090E0022E02C0959587950A94E2F7817023
:101DB00099274FEF420F4383211104C03F5F3283C5
:101DC00027E023830895A2E0B0E0E9EEFEE00C9462
:101DD0009D4E7C01A12CB12CD12CCC24C394062F78
:101DE00010E001501109A616F0F4C7014A83698377
:101DF000CFDF4A816981882391F0442349F098011B
:101E00002A193B098C2D01C0880F2A95EAF706C0D4
:101E10008C2D0A2C01C0880F0A94EAF7D82A8FEF7C
:101E2000A81AB80AE0CF8D2D2296EAE00C94B94E9C
:101E3000A4E0B0E0EEE1FFE00C949C4E1B8227E0B2
:101E40002C839C012C5F3F4F3A8329831092F3022D
:101E5000FC012181338187E090E0831B9109F8E048
:101E60002F9F800D911D1124853491050CF44EC0D7
:101E7000B12CA090F302F5E0FA1558F10A2D10E00C
:101E800040E068E0CE0101969EDF01521D4FF8014F
:101E90008083982E092C92949024092C96949694E1
:101EA0009024CE01019674DF939491FACC24C0F86B
:101EB000D12C90E0C816D90649F5CE01019668DF0D
:101EC000811124C0F8018081B826A394A092F30266
:101ED000D0CF40E068E0CE01019675DF082F182FC3
:101EE000012E12951025012E169516951025CE015E
:101EF00001964EDF1F5F11FBEE24E0F8F12C282F36
:101F000030E0E216F30611F481E0B01280E024968E
:101F1000EBE00C94B84EA5E0B0E0E1E9FFE00C94F2
:101F2000A04EFC011B8287E08C83CF0104969A832C
:101F300089838081853009F051C02181338187E018
:101F400090E0831B910938E0239F800D911D11249F
:101F50008039910509F042C01092F3020FE010EFB2
:101F600029E88091F302E82EF12CDD24D394D80ED9
:101F700041E068E08F3088F4CE0101962D8323DFA5
:101F8000080F111DF701E152FD4F2D8128272083F5
:101F900024E2280FD092F302E4CFCE01019613DFA2
:101FA000080F111DD092F302F701E152FD4F809509
:101FB000808341E068E0CE01019605DF90E0982F34
:101FC0008827081B190B41E068E0CE010196FBDE73
:101FD000282F30E081E00217130709F080E02596F2
:101FE000E7E00C94BC4EA4E0B0E0E9EFFFE00C9415
:101FF000A24E1B8227E02C839C012C5F3F4F3A832B
:102000002983FC0121812430A1F58381813089F568
:102010001092F3028091F302082F10E0FF24F39452
:10202000F80E41E0843098F4811106C067E0CE01DB
:102030000196C9DE806804C068E0CE010196C3DE67
:10204000F801E152FD4F8083F092F302E3CF67E0A5
:10205000CE010196B8DEF801E152FD4F880F808372
:10206000F092F3029091DF0292959F7081E09A3096
:1020700009F080E02496E5E00C94BE4ECF93DF9308
:10208000FC0181818330E9F483818730D1F4808140
:102090008830B9F41092F30220E0822F90E0DC0146
:1020A000A152BD4FEF01C80FD91F8C818C9381E0E5
:1020B000820F833010F4282FF0CF8093F30281E059
:1020C00001C080E0DF91CF910895FC019081809163
:1020D0009409993611F0933751F4982F93709130F9
:1020E00011F4826006C080FF07C08B7F03C080FDB3
:1020F00003C08460809394090895A1E0B0E0E3E810
:10210000F0E10C94A14E19828091C3028823B9F1A9
:102110008091950987FF17C084E30E94440380588B
:10212000803458F0803C58F490E08055910953E099
:10213000959587955A95E1F703C080E001C08FE03F
:102140008F590E940D068091950983FF16C082E782
:102150000E940D068091950984FF04C08091C402FD
:102160000E940D0686E60E940D068091950984FF67
:1021700004C08091C3020E940D061092C302809198
:10218000F402882309F442C2289A0091F5022CE156
:10219000029F8001112409501D4F8981811106C0C1
:1021A000C8016CDF882311F083E78983898181115D
:1021B00006C0C801B0DE882311F083E589838981D8
:1021C000811139C066E4C80148DC8823A1F1F09090
:1021D000F302FA94F092F3024F2D6FED72E086E075
:1021E000A0DDEF2DF0E0E152FD4FE0808E1105C043
:1021F00093E09F1510F486E41BC0282F30E02F5F7A
:102200003F4F6E2D70E02617370739F423E02F1566
:1022100020F496E4998380830EC04F2D6FED72E019
:102220008CE07FDD8E1106C083E08F1518F484E505
:10223000898301C019828981811116C065E4C801B2
:102240000CDC882389F08091F30281508093F302A3
:10225000893051F469E08FED92E06DDD9091E802F4
:10226000891302C085E489838981811106C0C80170
:10227000DFDD882311F088E489838981811106C01C
:10228000C801B1DE882311F084E789838981811137
:1022900033C0F801438D6091C402C8014A96E1DC65
:1022A000682FC801B9DC6BE4C801D7DB8823B1F023
:1022B000F090F302FA94F092F3026F2D8FED92E01A
:1022C00046DDEF2DF0E09091DE02E91BF109E152CD
:1022D000FD4F9081891302C08BE48983898181112C
:1022E0000BC0F801838191E0980F9383873021F42C
:1022F0001382818181508183898181112DC0F801F0
:102300008181843049F58381843031F54EE16CE37D
:10231000C8014896A6DC8823F9F04EE16091C4021A
:10232000C8014A969EDC682FC80176DC20E0822F27
:1023300090E0FC01E152FD4FD801A80FB91F14969F
:102340008C91808381E0820F853010F4282FEFCFAD
:102350008093F30282E589833981332309F4CAC06B
:102360002091950920FFC6C0809194098E7F8B7FB4
:102370008093940921FD64C05091DD02F090F30236
:102380005F113DC040E04517C0F4842F90E061E04C
:10239000640FFC01E753FD4FDC01A152BD4F70817A
:1023A0008C91781741F04093DD02809194098D7FE4
:1023B0008093940904C0462FE6CF4093DD02451375
:1023C0001EC040918E0950918F09609190097091C3
:1023D00091098091C5029091C602A091C702B09167
:1023E000C802481B590B6A0B7B0B4632510561052D
:1023F000710528F48091940981608093940940E0EC
:102400004F1560F4842F90E0FC01E753FD4FDC0191
:10241000A152BD4F8C9180834F5FF2CF4093DD027C
:1024200080918E0990918F09A0919009B0919109A6
:102430008093C5029093C602A093C702B093C802CE
:102440003435E9F426FD1BC08091F3028530B8F0E5
:102450008091E1028B3471F0893661F09DEA980F2A
:10246000923040F08D57823028F08091E2028077E0
:10247000803729F480919409816080939409B80190
:10248000CE01019622DE8091940982FF33C08981BA
:102490000E940D068091DE02882329F08091F302CC
:1024A00081508093F302F12CE091F302FE1648F480
:1024B000EF2DF0E0E152FD4F80810E94D806F394A9
:1024C000F3CF8091DE02882351F0F0E0E152FD4F1E
:1024D00080818F7040E361E090E00E949E068091D1
:1024E000950985FF05C084E30E9444030E94D80635
:1024F0000E9464068091950982FF6FC080E70E9468
:102500000D06F801808140E262E090E00E946806DA
:10251000F801808D40E265E0F0E18F9FC001112459
:102520000E946806F801818D40E265E0F0E18F9F2E
:10253000C00111240E946806F801828D40E265E026
:10254000F0E18F9FC00111240E946806F801838D7D
:1025500040E265E0F0E18F9FC00111240E9468060F
:10256000F801828140E263E090E00E946806F80191
:10257000818140E263E090E00E946806F8012381D7
:1025800040E262E087E090E0821B91090E946806C9
:1025900080E20E940D068091950985FF08C084E3C2
:1025A0000E9444030E94D80680E20E940D06F801B2
:1025B0008381873019F081818F5F8183F12CF8014D
:1025C0008181F81640F4F801EF0DF11D84810E941D
:1025D000D806F394F4CF0E946406F801108280912B
:1025E000F40281508093F4028091F5028F5F843071
:1025F00019F08093F50202C01092F50228988981A3
:10260000843521F48FED92E00E940C1E2196E6E0C5
:102610000C94BD4E1F920F920FB60F9211240BB661
:102620000F922F933F934F935F936F937F938F936B
:102630009F93AF93BF93EF93FF9310926F0080919E
:10264000950983FF03C08EE20E940D068091F60279
:102650009CE1899FF0011124E950FD4F9081933056
:1026600018F09181923010F4C6DA18C09091F402FB
:10267000933049F48091950982FFF6CF8DE192E085
:102680000E945706F1CF9F5F9093F4028F5F8430D2
:1026900019F08093F60202C01092F602FF91EF91BA
:1026A000BF91AF919F918F917F916F915F914F916A
:1026B0003F912F910F900BBE0F900FBE0F901F9068
:1026C00018959BED980F973150F496EF960F9D312A
:1026D00030F491E0681708F090E0892F089580E0C9
:1026E00008951F920F920FB60F9211240BB60F92FE
:1026F000FF920F931F932F933F934F935F936F938B
:102700007F938F939F93AF93BF93CF93DF93EF9379
:10271000FF938091F10D882321F082E08093F10DE9
:1027200063C18091A50D823021F483E08093A50DD3
:102730005BC1009184001091850064E016950795B7
:102740006A95E1F7C091F6029CE1C99FE00111246E
:10275000C950DD4F9881943031F40E3208F444C1F1
:102760000F3448F0B6C0953031F4073108F43CC15D
:10277000083208F0AEC01A990DC09450923038F467
:1027800061E0CE0149DA1092850010928400009336
:10279000C4022AC18091C402081B0093C302109294
:1027A0008500109284009881983071F42A8121115B
:1027B0000BC021E02A83888F8A8F098F0B3B10F48E
:1027C000000F01C006950B8F9450923020F460E00A
:1027D000CE0122DA09C182E086BBF880F11011C077
:1027E0009091C402953608F0FFC08091C3028536EF
:1027F00008F0FAC0988F898F81E08A8382E088830D
:10280000F3C01091C30282E0F81273C00091C402B9
:10281000412F602FCE01489624DA6A818823F9F08F
:10282000488D50E09A01220F331F240F351F200FCF
:10283000311D3595279535952795288F298D30E0C1
:10284000C901880F991F820F931F810F911D9595C4
:10285000879595958795898F6F5F6A83C5C064302A
:1028600008F445C020EA3FE03093890020938800B7
:102870008A818C3050F0888D298D30E0280F311DF1
:102880002536310524F084E027C08A3088F0888D11
:10289000298D30E0280F311D253231054CF485E0BB
:1028A000888328EE33E0309389002093880015C098
:1028B00080919B09882379F0612F802F02DF882384
:1028C00051F0688D898DFDDE882329F081E08093A9
:1028D000A50D91D989C083E088830A8F1B8F198247
:1028E00087E08B831C8282E080936F007DC018821A
:1028F00077CF98E0F91225C081E9810F8D3178F406
:1029000060E0CE0189D9288D30E0C901880F991F78
:10291000820F931F2091C402820F911D4EC0173E5B
:1029200008F462C061E0CE0177D92A8D30E0C90198
:10293000880F991F820F931F2091C402820F911D4F
:1029400015C00091C402412F602FCE014A9689D94B
:10295000882301F161E0CE015FD92A8D30E0C90101
:10296000880F991F820F931F800F911D9595879552
:10297000959587958A8F2B8D30E0C901880F991F17
:10298000820F931F810F911D95958795959587953A
:102990008B8F2AC0412F602FCE01489662D98823A1
:1029A00001F160E0CE0138D9288D30E0C901880FEF
:1029B000991F820F931F800F911D9595879595956F
:1029C0008795888F298D30E0C901880F991F820F64
:1029D000931F810F911D9595879595958795898F63
:1029E00003C087E0F81275CFFF91EF91DF91CF918F
:1029F000BF91AF919F918F917F916F915F914F9117
:102A00003F912F911F910F91FF900F900BBE0F9050
:102A10000FBE0F901F901895E091F6028CE1E89F91
:102A2000F0011124E950FD4F8081811107C081E040
:102A30009091E00D9F3F19F480E0089581E00895A2
:102A400080E690E00E94690780939B0981E690E010
:102A50000E9469078093AF0D882321F081E2809363
:102A6000950939C90895299A0C94980529980C94C8
:102A70009805A7E0B0E0EFE3F5E10C94A04E90914B
:102A8000A709943559F42091A80D3091A90D2F5F15
:102A90003F4F3093A90D2093A80D3EC0963459F4B2
:102AA0002091A60D3091A70D2F5F3F4F3093A70DBA
:102AB0002093A60D31C0953459F420919809309196
:102AC00099092F5F3F4F309399092093980924C0AB
:102AD0009B3459F42091AB0D3091AC0D2F5F3F4FDB
:102AE0003093AC0D2093AB0D17C0983459F420915E
:102AF000AD0D3091AE0D2F5F3F4F3093AE0D209353
:102B0000AD0D0AC020919609309197092F5F3F4F74
:102B1000309397092093960995E79983882399F034
:102B2000BE016E5F7F4F8091AF0D0E945107BE01C5
:102B30006C5F7F4F80919B090E94510785E58E83D2
:102B400086E0D82E02C0DD24D3940E9420040E9487
:102B5000F50316E080E891E086DF80E093E086DF11
:102B60001150C1F780E093E07EDF80E891E07EDFE6
:102B700080E891E078DF299887E390E00E9497034E
:102B800083E00E949D052C988FE70E94D0028091DF
:102B9000A0098D0D0E94D002CE0101967C018C010E
:102BA000F80181918F010E94D002802F8E198D151E
:102BB000B8F38091A0099091A109892B39F08CE993
:102BC00099E00E9472090E94D002F3CF2C9A0E94D1
:102BD000F5038CE999E00E944C0915E18AE30E9413
:102BE00044038F7731F0115021F081E00E949D0560
:102BF000F5CF71D82796E7E00C94BC4ECF93DF93C6
:102C0000EC018981811107C080919B090E94D8063F
:102C10008091AF0D13C08436A1F480918E099091FC
:102C20008F09A0919009B091910940E364E00E945E
:102C30009E068EE20E940D068091A40D0E94D80689
:102C40004DC0833709F04DC040E361E08091A80D8D
:102C50009091A90D0E949E068EE20E940D0640E30F
:102C600061E08091A60D9091A70D0E949E068EE2D4
:102C70000E940D0640E361E08091980990919909C6
:102C80000E949E068EE20E940D0640E361E0809164
:102C9000AB0D9091AC0D0E949E068EE20E940D0637
:102CA00040E361E08091AD0D9091AE0D0E949E06D3
:102CB0008EE20E940D0640E361E0809196099091BA
:102CC00097090E949E068EE20E940D0640E361E095
:102CD0008091A20D9091A30D0E949E060E94640611
:102CE0002CC08936D9F441E06BE979E0CE01029637
:102CF0000E94DC0660919B0980E690E00E946407D8
:102D000041E06FEA7DE0CE0104960E94DC0660910E
:102D1000AF0D81E690E00E9464070FC08CE999E056
:102D20000E944C0921966991662329F08CE999E06B
:102D30000E945409F8CF80E09CDEDF91CF91089586
:102D4000A1E0B0E0E6EAF6E10C949F4E8091A50D7B
:102D5000882309F48FC0C0908E09D0908F09E0902D
:102D60009009F0909109833009F06AC08FE30E94C6
:102D70004403182F8630C8F088EF91E10E944C0977
:102D80002C988FEF0E94D00280E00E94D002082F82
:102D9000115049F080E00E94D002682F88EF91E145
:102DA0000E945409F5CF2C9A01C000E00E946B0EDE
:102DB0001092A50D053709F05DC041E0BE016F5FBF
:102DC0007F4F8EEF91E10E94DC060197A1F599817A
:102DD00080919B0998132FC080910212853581F450
:102DE0008091FC119091FD11892B39F088EF91E1D0
:102DF0000E9472090E940D06F3CF0E9464063AC039
:102E00008091FC119091FD1104979093FD11809396
:102E1000FC1184E090E09093FB118093FA116AE03A
:102E200088EF91E10E945409E0918A09F0918B09A1
:102E300088E009951FC088EF91E10E944C091AC0F3
:102E4000823059F480919A099C2D981B983090F00B
:102E50000E946B0E1092A50D0DC0813059F487E3CE
:102E600090E00E9497030E94070482E08093A50DE2
:102E7000C0929A092196E8E00C94BB4ECDDD8823E0
:102E800061F083E08093AA0D8091A20D9091A30D33
:102E900001969093A30D8093A20D8091AA0D81506D
:102EA0008093AA0D882321F083E08093A40D0895D8
:102EB00081E0DFCDCF93DF93EA98249A2C9A8EE1BC
:102EC00090E00E9498052C988EE190E00E94980571
:102ED0002C9A8DE290E00E94980580E30E94930373
:102EE00084E690E00E949805CDE3D2E0FE01849153
:102EF000813440F083E30E94930384E00E949D05A7
:102F0000CFEF0DC0FE0131966491FE0184910E94C5
:102F100081032296F2E0C937DF0741F7EBCF84E364
:102F20000E9493038AE090E00E949805C150B9F78F
:102F300081E080936703DF91CF910895EF92FF9234
:102F40000F931F93CF93DF93EC018B01F880F394E1
:102F50006115710519F0E4E6F0E002C0E0E0F0E090
:102F600028E0F29EC00111246AE070E00E94414E08
:102F70009B012E0F3F1FC901AA2797FDA095BA2FCD
:102F8000E0919209F0919309AF0160E070E0481779
:102F900059076A077B0728F48DE292E00E945706E2
:102FA000D9C0E21BF30BF0939309E093920980914F
:102FB0006703811101C07EDF85E30E9444038D30E9
:102FC00071F08AE50E940D0685E40E940D0682E5F7
:102FD0000E940D0682E50E940D0681E34CC080919F
:102FE000680390916903A0916A03B0916B03892BE8
:102FF0008A2B8B2B51F50E94F50385E30E94440335
:10300000833109F443C08AE50E940D0685E40E94DD
:103010000D0682E50E940D0682E50E940D0682E300
:103020002AC080918E0990918F09A0919009B0914A
:1030300091094F5F5F4F6F4F7F4F84179507A6072A
:10304000B707C9F681E00E949D0580918E09909195
:103050008F09A0919009B091910940916803509116
:10306000690360916A0370916B0384179507A60743
:10307000B707B9F6E7CF0E940D0685E30E94440327
:103080000E94D8060E94640615DF64C0012B41F43B
:103090002C988FE70E94D002EC2E0C2F1D2F0BC016
:1030A0000AE010E084E60E949D0501501109011517
:1030B0001105C1F7EDCF802F8E198F1530F4F8016F
:1030C00081918F010E94D002F6CF2C9AC8EC85E343
:1030D0000E9444038D30E9F485E30E9444038D305F
:1030E00019F18AE50E940D0685E40E940D0682E52D
:1030F0000E940D0682E50E940D0683E30E940D06E4
:1031000085E30E9444030E94D8060E946406D2DE32
:103110000BC085E30E9444038331F1F681E00E94F5
:103120009D05C150A1F6D8CF80916703811102C0DF
:103130000E946B0E80918E0990918F09A091900949
:10314000B09191098093680390936903A0936A03F7
:10315000B0936B03CDB7DEB7E6E00C94BD4EACE0A8
:10316000B0E0E5EBF8E10C94A44EFC018BE0898320
:1031700081818A831B8282E08C8387818D83808515
:103180008E8381858F8384818887858189878681E5
:103190008A871B861C8684E10E949D0560E070E0A2
:1031A000CE010196CBDE8AE50E940D0610E0812F4C
:1031B00090E0298130E0281739075CF0E1E0F0E089
:1031C000EC0FFD1FE80FF91F80810E94D8061F5FDA
:1031D000EECF8091950985FF03C080E00E94D8065C
:1031E0000E9464062C96E3E00C94C04ECF93DF93CC
:1031F000EC0180916F03811108C0909170039111CF
:1032000004C0909171039923A9F09B81903319F028
:103210009F7E903479F49F8198130CC0988580919B
:103220007003981307C0998580917103981302C0A9
:10323000CE0195DF80916C03811108C090916D03E0
:10324000911104C090916E039923A9F098819B304D
:1032500091F49B81903479F49F8198130CC09885E8
:1032600080916D03981307C0998580916E03981320
:1032700002C0CE0174DFDF91CF910895AEE1B0E0DE
:10328000E4E4F9E10C94A34E80916703882309F4E8
:1032900069C01A9B59C08FE30E9444038F778E3117
:1032A00008F08DE189832C988FEF0E94D00210E006
:1032B0008981181760F480E00E94D002E2E0F0E01B
:1032C000EC0FFD1FE10FF11D80831F5FF1CF80E048
:1032D0000E94D002082F80E00E94D0022C9ACE01DA
:1032E000019684DF8091950984FF12C08AE70E94CD
:1032F0000D0610E089818117A8F1E1E0F0E0EC0F04
:10330000FD1FE10FF11D80810E940D061F5FF2CFAE
:103310008AE50E940D0610E08981811758F0E1E0EE
:10332000F0E0EC0FFD1FE10FF11D80810E94D80637
:103330001F5FF2CF8091950985FF03C0802F0E9407
:10334000D8060E9464060EC085E30E9444038131C2
:1033500049F48AE30E94930386E30E94930384E383
:103360000E9493036E96E4E00C94BF4EAEE1B0E091
:10337000ECEBF9E10C94A34E8C01FC0181818237C6
:1033800011F498DD36C0833711F0863601F54DE132
:10339000BE016F5F7F4FC80102960E94DC0699272D
:1033A0000197298130E08217930729F084E292E0A7
:1033B0000E9457061EC061E070E0F80181818337EA
:1033C00011F060E070E0CE010196B8DD12C08136E8
:1033D00021F443E06FE673E005C0873741F443E032
:1033E0006CE673E0C80102960E94DC0602C01092EF
:1033F00067036E96E4E00C94BF4E1092CB0D1092D2
:103400002D0483E0809377038FEF8093E00D089580
:10341000E8E7F3E02081211105C0892BB1F080E0BD
:1034200090E00895B4E0E632FB07B8F7009751F05A
:103430004181DC013C91431305C0428111963C91CE
:10344000431751F0E20FF11DE5CF34E0E632F30708
:1034500019F010F0E6E2F4E0CF01089594E0899FBE
:10346000F0011124EF51F24F80818F3F91F0809352
:1034700072038181809373038281809374038381BB
:103480008093750321E04CE064E082E793E00C94C4
:10349000730A089587E294E0BBDF009799F02091CA
:1034A0007703FC013081231768F4E20FF11D80815E
:1034B0008093290489E780932A04818180932B04D7
:1034C00081E0089580E00895EF92FF921F93CF93DB
:1034D000DF931F92CDB7DEB7182F8091950986FF35
:1034E00018C084E599830E940D06E12E9981F92E7A
:1034F00015E0F70181917F010E94D8061150C9F7AC
:103500008091950985FF03C08AEF0E94D8060E942A
:1035100064060F90DF91CF911F91FF90EF90089577
:1035200086E30E94930380912904833511F48BE98B
:1035300001C08BE40E949D0521E04CE065E087E23C
:1035400094E00E94730A0E94070487E294E0BCCFD3
:10355000E7DF80912904893631F081E080932604E9
:1035600089E28093E00D0895CF9385E390E00E9477
:1035700069078093B10D86E390E00E94690780930C
:10358000DF0DCFEFC093CF0DC093D10DC093D30DFE
:10359000C093D50DC093D70DC093D90DC093DB0D4B
:1035A000C093DD0D2ADF1092780381E08093B00D87
:1035B000C093E10D8FEF9FEF9093B40D8093B30D07
:1035C0001092B60D1092B50D1092B80D1092B70D65
:1035D000C093E50D9093BA0D8093B90D1092BC0D78
:1035E0001092BB0D1092BE0D1092BD0DC093E90D4F
:1035F0009093C00D8093BF0D1092C20D1092C10D1B
:103600001092C40D1092C30DC093ED0D9093C60D92
:103610008093C50D1092C80D1092C70D1092CA0D5F
:103620001092C90DCF910895ACE0B0E0EAE1FBE162
:103630000C949E4E6C018C010F5F1F4F45E0BE0144
:103640006F5F7F4FC8010E94DC06843008F0F3C032
:1036500099819130A9F4833061F46A8185E390E027
:103660000E9464076B8186E390E00E9464077CDF20
:1036700006C28091B10D0E94D8068091DF0D9AC0DC
:10368000923009F051C0813039F081E09A81913057
:1036900009F080E0F82E02C0FF24F39480917803B3
:1036A000811104C089E792E00E94570608E713E001
:1036B000F8018081882309F4BBC0F4E006321F07BB
:1036C00008F0B6C033E00837130719F080E20E9413
:1036D0000D06F80181810E94D806F80182810E94BE
:1036E000D806FF20E1F08AE30E940D0693E0F8017E
:1036F00080819817A0F4943038F090FF05C08CE2D8
:103700009C870E940D069C85EE24E394E90EF80147
:10371000E90FF11D80810E94D8069E2DE8CFF801A7
:103720008081080F111DC4CF933049F480E090E0F0
:103730006FDE885793409EEA981B892F3BC09031DB
:1037400071F50FEC1DE080EDE82E8DE0F82EC12C18
:10375000D12CF80180818F3FA1F0DD2019F080E2AB
:103760000E940D068C2D0E94D8068AE30E940D0649
:10377000F80180810E94D806F70180810E94D80656
:10378000D3940E5F1F4FC394F2E0EF0EF11C38E0AC
:10379000C312DFCFD1104CC087E892E047C091310F
:1037A00061F48091CD0D9091CE0D6DE770E00E9497
:1037B0002D4E862F0E94D8063BC09231C9F511EEDE
:1037C000E12E1DE0F12E04EE1DE0C12CD12CF701FD
:1037D00080818F3FF1F0DD2019F080E20E940D061C
:1037E0008C2D0E94D8068AE30E940D06F701808185
:1037F0000E94D806F801329780810E94D806F8010D
:10380000319780810E94D806F80180810E94D806F5
:10381000D394F4E0EF0EF11CC3940C5F1F4F34E01F
:10382000C312D5CFD11004C083E892E00E9457069E
:103830000E94640624C144E0BE01695F7F4FC80155
:103840000E94DC064F81493608F477C07A85588596
:1038500069857C3009F04BC020E030E080E090E0EA
:10386000F901EF51F24F708174131CC0A181A513AF
:1038700019C0A281A61316C02CE023839C01220F3D
:10388000331F280F391FF901EE0FFF1FED54F24FC0
:1038900011821082F901EE0FFF1FEB54F24F1182DB
:1038A0001082CFC07F3FD9F44083518362832CE0E4
:1038B00023839C01220F331F280F391FF901EE0FBC
:1038C000FF1FED54F24F11821082F901EE0FFF1F1E
:1038D000EB54F24F118210821092B00DB2C00196DB
:1038E0002C5F3F4F2031310509F0BACFC8C080E0CE
:1038F00090E020E030E0FC01EF51F24FA081A413F2
:1039000015C0A181A51312C0A281A6130FC0738395
:10391000F901EE0FFF1FE20FF31FEE0FFF1FEB5435
:10392000F24F81E090E091838083A9C02F5F3F4FE9
:10393000049680319105F9F6A2C0E9818091B10D1C
:10394000E817C0F190E0F0E09C01295F3F4F2E178F
:103950003F0784F13A812091DF0D32132BC03C8167
:103960003F3231F442E06CE0C6010E94E00A87C0B9
:103970002D813C32B1F42093CC0D81E090E0909306
:10398000CE0D8093CD0D8091920990919309E4E042
:103990002E9F800D911D112490939309809392097D
:1039A0006EC0E81BF90BEE0FF0E0E153F24F3083ED
:1039B000218365C080E090E02BDD7C01F80101905F
:1039C0000020E9F73197E01BF10BF695E795BB2452
:1039D000B394BE0EC7018B0D911D885793408F3A4B
:1039E00091050CF048C0F701B1928F0121E0822FC0
:1039F000880F81502B15D8F441E0B801F601E80F8B
:103A0000F11DCF012C870E94DC062C85233058F055
:103A100020FD09C0D80111978C91843621F4F8015A
:103A200080818093B20D2F5F0F5F1F4FE0CFF6E2D2
:103A3000EF16F4E0FF0618F5F701E20FF11D108212
:103A40001EC022E04CE064E0CE0107960E94730A9B
:103A50008FE08A8722E04CE064E0CE0107960E9466
:103A6000730A82E08A8722E04CE064E0CE01079688
:103A70000E94730A04C08DE792E00E9457062C96BC
:103A8000E9E00C94BA4E0F931F93CF93DF9390917C
:103A9000B00D91114FC093E0899F80011124F8016E
:103AA000EE0FFF1FED54F24F94E0899FD0011124D7
:103AB000AF51B24F12969C91977040E850E0491B6D
:103AC00051099AEF949F9001959F300D11243595DF
:103AD00027953595279531832083E801CC0FDD1F8D
:103AE000C954D24F288139812F5F3F4F39832883B2
:103AF000000F111F0B54124FF801408151814115E5
:103B0000510529F424303105A9F4A8DC11C0413055
:103B1000510539F4A3DC82E090E0F80191838083C1
:103B200009C04230510531F499DCF801118210824C
:103B300019821882DF91CF911F910F910895A6E00D
:103B4000B0E0E5EAFDE10C94A14E2091DF0D2A835F
:103B50001B828091CC0D882341F0833019F487E7D4
:103B600091E00FC08DE790E00CC0277030E02A5143
:103B70003F4F4DE7429FC001439F900D1124959503
:103B800087959093CE0D8093CD0D00ED1DE0F12C27
:103B90007CE2E72EF801319790819F3FC1F0809140
:103BA000B10D8F0D89838091CC0D882311F0EC82AB
:103BB00003C09C83F80180818D8321E04CE065E0A7
:103BC000CE0101960E94730ACE0101967DDCF3942A
:103BD0000E5F1F4FF8E0FF12DDCF8091CC0D8823E0
:103BE00041F0833019F41092CC0D03C082508093C1
:103BF000CC0D2696E6E00C94BD4E809126048823D9
:103C000051F08EDC89E28093E00D80912604815092
:103C1000809326040895F1CBFF920F931F93CF93C7
:103C2000DF93FC01F0800181C281D38114818FE593
:103C30008093E00D109226048091B10D811105C092
:103C40008091DF0D882309F4A9C0809127048F118A
:103C500004C080912804801729F0CFDBF09227045C
:103C6000009328048091CB0D8F3F09F497C0C09337
:103C70002904D0932A0410932B04CC23F1F0811152
:103C80001CC08091B10D181761F0143651F08DEA07
:103C90008C0F823010F0CD3739F48FEF8093CB0D3D
:103CA0007DC0C43509F47AC08D2F807F803609F03D
:103CB00075C0D067D0932A0457C0ECDB811105C0D2
:103CC0008091CB0D882309F469C080912D04811166
:103CD00007C0E091CB0DF0E0E557FD4FE49101C046
:103CE000E82FE33541F4C43531F49091CB0D9E5F5C
:103CF0009093CB0D04C0EC1711F07FDB4FC08823ED
:103D000069F0809177038E5F80937703C3DB811125
:103D10000EC08091CB0D8E5F8093CB0D8091CB0D2B
:103D2000E82FF0E0E457FD4F14911F3F59F48091C4
:103D3000290480932D048436B9F48091B20D8093C8
:103D40002B0412C01093290497E790932A049091B2
:103D5000B10D90932B048E5F8093CB0D10922D04A8
:103D60008E3021F01123D1F0F3DB18C087E294E00C
:103D70004FDBDC01009781F02C9130E086E294E08B
:103D8000821B930BA817B90730F4ED01C20FD31FA4
:103D900048814D93F7CF1C9230DBE4CFCDB7DEB72F
:103DA000E5E00C94BE4EFF920F931F93CF93DF93E9
:103DB0008C01EC0109900020E9F72197C81BD90B71
:103DC000FC018181823751F487E390E00E949703E0
:103DD0000E94070481E08093F10D27C0833719F515
:103DE000FC2E2C988FE70E94D0028C2F82500E94CC
:103DF000D002E801229612E01F1528F489910E9452
:103E0000D0021F5FF9CF2C9A0E94F5038AE30E942B
:103E100044038F7729F084E690E00E949805F6CF5E
:103E20000E94070402C01092F10DCDB7DEB7E5E0A5
:103E30000C94BE4EA0E0B4E0E0E2FFE10C949F4E93
:103E40008091F10D882309F452C0813011F58091E1
:103E50008E0990918F09A0919009B09191092091BC
:103E60002E04281709F443C085E30E9444038131DE
:103E700029F48AE30E9493030E94070480918E092B
:103E800090918F09A0919009B091910980932E048F
:103E90002EC08FE30E944403D82E2C988FEF0E94EF
:103EA000D0028E010F5F1F4F7801C02E8E2D801B18
:103EB0008D1538F480E00E94D002F70181937F01D4
:103EC000F5CF2C9A81E08093BB02802F8C198D1541
:103ED00030F4F80181918F010E940D06F6CF0E9407
:103EE00064068FEF8093BB0281E08093F10DDC5F6D
:103EF000E8E00C94BB4E2091682230916922211594
:103F0000310521F42091290130912A018091270166
:103F100090912801009741F48DB79EB740912B01F5
:103F200050912C01841B950B2817390718F4821B1C
:103F3000930B089580E090E0089582E40E940D06BE
:103F400040E265E080916822909169220E946806B3
:103F50000E94640683E50E940D0640E265E08091C0
:103F6000290190912A010E9468060E94640685E456
:103F70000E940D0640E265E08091270190912801A2
:103F80000E9468060E94640686E40E940D06B3DF64
:103F900040E265E00E9468060C9464061F920F924E
:103FA0000FB60F9211240BB60F922F933F934F939E
:103FB0005F936F937F938F939F93AF93BF93EF9391
:103FC000FF938091F60D9091F70D892B39F082EFD8
:103FD0009DE00E9472098093C60005C08091C100D7
:103FE0008F7D8093C100FF91EF91BF91AF919F9121
:103FF0008F917F916F915F914F913F912F910F9092
:104000000BBE0F900FBE0F901F9018951F920F922E
:104010000FB60F9211240BB60F922F933F934F932D
:104020005F936F937F938F939F93AF93BF93EF9320
:10403000FF9385B191E0892785B96091C600809191
:10404000C000887121F488EF91E10E945409FF912A
:10405000EF91BF91AF919F918F917F916F915F9100
:104060004F913F912F910F900BBE0F900FBE0F906D
:104070001F90189597FF04C022E02093C0009F77FF
:104080009093C5008093C40088E98093C10086E0C6
:104090008093C20008958091C10085FD0BC080917E
:1040A000F60D9091F70D892B29F08091C100806267
:1040B0008093C1000895E0918A09F0918B0981E015
:1040C0000995E9CF0F931F93CF93DF93EC0110E095
:1040D000212F30E0F901EE0FFF1FE20FF31FE4562E
:1040E000FF4F0491F901EE0FFF1FE20FF31FE3569C
:1040F000FF4F25913491002399F0209739F480E205
:104100000E940D06802F0E940D0608C08881801332
:1041100005C0CE01F901099581E003C01F5FD8CF2A
:1041200080E0DF91CF911F910F910895CF93C091BF
:10413000BB028093BB028091FC119091FD11892BF1
:1041400091F188EF91E10E947209E0912F048A3089
:1041500011F08D30F9F4EE2371F3F0E0E05DFB4FE8
:10416000108280E394E0AEDF811111C081EB92E018
:104170000E94570680E394E00E944C0689E992E091
:104180000E94570680E090E09DDF0E946406109236
:104190002F04D1CF91E09E0F90932F04F0E0E05DCB
:1041A000FB4F8083C8CFC093BB02CF9108951F936C
:1041B000CF93DF93EC0116E0115048F089910E94F3
:1041C000D8061123C9F38AE30E940D06F5CFDF91CB
:1041D000CF911F910895EF92FF920F931F93CF936A
:1041E000DF93EB01FC01E080F180FE24EF24FE244C
:1041F000028113811027012710276F2DCE010E9405
:1042000064076E2DCE0101960E946407612FCE01D6
:1042100002960E946407602FCE0103960E946407F5
:10422000CDB7DEB7E6E00C94BD4EA5E1B0E0EBE122
:10423000F1E20C94A34E89E68A8384E68B836BEFCC
:1042400072E0CE0104960E94F34FCE0101960E94C7
:104250000D0881E68B836DEE72E0CE0104960E941C
:10426000F34FCE0101960E940D088EE68B836FED11
:1042700072E0CE0104960E94F34FCE0101960E9497
:104280000D0887E68B8363ED72E0CE0104960E94F1
:10429000F34FCE0101960E940D0880E78B836EECF0
:1042A00072E0CE0104960E94F34FCE0101960E9467
:1042B0000D088EE48B8366EC72E0CE0104960E94BA
:1042C000F34FCE0101960E940D088FE68B8363ECBD
:1042D00072E0CE0104960E94F34FCE0101960E9437
:1042E0000D088AEF9FE00E946907843A71F58BEF11
:1042F0009FE00E946907803541F58CEF9FE00E94A6
:104300006907853511F58DE68B836CEB72E0CE0184
:1043100004960E94F34F8DEF9FE00E946907BE0153
:10432000665F7F4F0E9451078EEF9FE00E946907F2
:10433000BE01645F7F4F0E9451078FEF9FE00E9494
:104340006907BE01625F7F4F26C08DE68B8365EBF8
:1043500072E0CE0104960E94F34FE0E0F0E000E04E
:1043600010E081E2809357009491090F111D31965E
:10437000E032F105B9F7BE01665F7F4F80E00E9431
:104380005107BE01645F7F4F812F0E945107BE011C
:10439000625F7F4F802F0E945107188ACE010196DD
:1043A0000E940D086596E4E00C94BF4EAED582E005
:1043B00096E10E94AB31892B09F438C082E096E186
:1043C0000E9497318BE196E190931A16809319160B
:1043D00082E0FAD680910C1690910D16892B19F077
:1043E0000E949030C0D480E29EE190931616809394
:1043F000151685E0E9D680910C1690910D16892B43
:1044000019F00E949030AFD48FE49EE1909316167D
:104410008093151685E0D8D680910C1690910D16D4
:10442000892B19F00E9490309ED498D58EEF95E19B
:104430000E94AB31892B31F08EEF95E10E949731CC
:104440000C94C62F0895A0E0B0E0E9E2F2E20C94EB
:104450009F4E8C01EB01CB010E9469077E018FEF1B
:10446000E81AF80AC7010E946907D82ECE010E94F7
:104470006907C82EC7010E9469072C2D30E03D292D
:10448000F801318320837E01F2E0EF0EF11CC701B9
:104490000E9469072396CE010E946907D82EC701A2
:1044A0000E946907F82ECE010E9469072F2D30E087
:1044B0003D29F80133832283CDB7DEB7E8E00C94C1
:1044C000BB4EA4E0B0E0E7E6F2E20C94A54E69E64C
:1044D00070E0CE010196B7DF89819A8190933D18F3
:1044E00080933C188B819C8190933F1880933E1859
:1044F00061E770E0CE010196A6DF89819A819093F1
:104500003518809334188B819C8190933718809351
:1045100036186DE670E0CE01019695DF89819A81AB
:1045200090933918809338188B819C8190933B1815
:1045300080933A1886E794E013D446D10E942A3437
:104540002496E2E00C94C14E549A5C9888EC0E9448
:104550009D055C9A88EC0E949D05E8D382E690E078
:104560000E9469078093330883E690E00E94690700
:104570008093340884E690E00E94690780933508B0
:1045800085E690E00E9469078093360886E690E011
:104590000E9469078093370887E690E00E946907C8
:1045A0008093380883E398E0C3D3809133088093E5
:1045B0003A088091340880933B08809135088093B5
:1045C0003C088091360880933D088091370880939D
:1045D0003E088091380880933F0873D51092D30825
:1045E0001092D2086FE170E082E096E10E948B3178
:1045F00062EE74E08EEF95E10E948B3188E690E0E8
:104600000E946907882351F086EA94E0A9D383E3E6
:1046100098E00E94F63310923208089582E0809369
:1046200032084FCF1F93CF93DF93FC0181818936EE
:1046300011F48ADF2BC08336C1F4CCE3D8E114E057
:10464000115060F0899140E261E090E00E946806BC
:104650001123B1F38EE20E940D06F2CF80E20E9498
:104660000D068AE398E0A3DD0AC0843659F48091F0
:1046700031088F5F8370809331080E94D8060E94B2
:10468000640604C08E3611F40E940B36DF91CF9180
:104690001F910895CF93DF93EC01009711F411DF80
:1046A0003CC069E670E0469696DD8E899F899093BE
:1046B0003D1880933C18888D998D90933F18809376
:1046C0003E1861E770E0CE01829685DD8AA19BA14C
:1046D00090933518809334188CA19DA1909337182E
:1046E000809336186DE670E0CE014A9674DD8A8DAF
:1046F0009B8D90933918809338188C8D9D8D909355
:104700003B1880933A18EB81FC811582148286E76E
:1047100094E026D359D00E942A34DF91CF91089596
:10472000E0911916F0911A162481358180910616B0
:10473000909107162817390709F470C008958091E1
:104740003208823029F00E94C632809332080895E0
:10475000E0911516F0911616309759F080911416C5
:1047600081FF07C08481958181159B4711F40C94CA
:104770003B3608951F93CF93DF93C0911916D091C4
:104780001A168091F60D9091F70D892BC9F089A129
:104790008A3F49F482E018D50E949030E4D282E04A
:1047A0000E949D0503DE19A181E0810F89A382EF9C
:1047B0009DE00E947209FE01E10FF11D82A3E1CF8D
:1047C000DF91CF911F91089589E790E00E942650D4
:1047D000292F30E040E050E0582FC901842B952B61
:1047E0009093071680930616DED410920916109245
:1047F00008160895E0913C16EA3F40F491E09E0FC0
:1048000090933C16F0E0E95CF94E86830895E091C0
:104810001916F0911A1682E0848F0895EF92FF9294
:104820000F931F93CF93DF930091191610911A16CF
:104830008091141686FF1CC0F80111A281E0848FBC
:1048400080910816909109169C012F5F3F4F30937D
:10485000091620930816892B29F48091BB028460E5
:104860008093BB0266EA7EE0C8014D960E948B31C0
:10487000F801848D8230B9F481E0848F80E18093E7
:1048800014168091081690910916019790930916B5
:1048900080930816892B09F0C0C08091BB028B7FE2
:1048A0008093BB02BAC080911416982F907311F4B4
:1048B00087FF0AC0E0911916F0911A1611A2DF01C4
:1048C000A45EBE4F1C92148E81FF31C0E0900C1686
:1048D000F0900D16E114F10451F13091171620916A
:1048E00018168AEB93E29093890980938809C32F65
:1048F000D22F699188EF91E10E9454098091FC11B7
:104900009091FD118115944031F4E0918A09F09164
:104910008B0984E0099521E0E21AF108E114F10421
:1049200041F7E0918A09F0918B0984E00995809123
:104930001416982F947082FD06C0282F237019F446
:10494000887409F451C0C0911916D0911A16992390
:1049500011F17E0184EEE81A8EEFF80AF70140812A
:10496000442309F441C050E0BE01635E7E4F809154
:104970001716909118160E940750F701608170E099
:1049800080911716909118160E94212FCE014D96F6
:104990000E94A13129C049A1442331F17E01F2E2F4
:1049A000EF0EF11C50E0B701809117169091181688
:1049B0000E94075069A170E0809117169091181617
:1049C0000E94212FCE014D960E94A13149A150E0B5
:1049D000B701CE01835E9E4F0E940750FE01E45E48
:1049E000FE4F89A1808319A2F801848D8130A9F43A
:1049F000035E1F4FC8010E94AB31892B71F0C801C3
:104A00000E949731C091BB0284E08093BB028EEA82
:104A100092E00E944309C093BB02CDB7DEB7E6E047
:104A20000C94BD4E14988AE30E94763680E00E9472
:104A30007636149A0895CF93C82F14988AE70E9467
:104A400076368C2F0E947636149ACF910895CF93A4
:104A5000C82F40EA63E08FE1A1D06C2F637040E87B
:104A60008FE19CD0C0933908CF910895CF93DF9305
:104A7000C82FD82FDF712D2F30E02B31310584F472
:104A8000282F2076822F90E025E0959587952A950E
:104A9000E1F74091390850E08417950709F0D7DF16
:104AA00014988D2F0E94763680E00E947636C7FFDC
:104AB00003C080E00E947636149ADF91CF9108956A
:104AC00014988FEF0E9476368DE1D0DF80FFFCCF07
:104AD000149A0895CF93DF93D62FC82FCF714C2F00
:104AE00050E04B31510584F4282F2076822F90E03E
:104AF00035E0959587953A95E1F74091390850E072
:104B00008417950709F0A3DF14988C2F80640E9406
:104B100076368D2F0E947636149ADF91CF910895C4
:104B2000A1E0B0E0E6E9F5E20C94A54E682F80E044
:104B30009983D0DF9981692F81E0CCDF2196E2E073
:104B40000C94C14EA1E0B0E0E8EAF5E20C94A54E69
:104B5000682F82E09983BEDF9981692F83E0BADFF5
:104B60002196E2E00C94C14EA1E0B0E0EAEBF5E260
:104B70000C94A44E162F682F84ED7983ABDF612F40
:104B800086EDA8DF7981672F87EDA4DF8AEE6EDFDF
:104B900080FDFCCF2196E3E00C94C04EA1E0B0E094
:104BA000E4EDF5E20C94A34E062F182F1F71E12FB0
:104BB000F0E07B9794F4282F2076822F90E055E048
:104BC000959587955A95E1F7E0913908F0E08E17B1
:104BD0009F0719F049833BDF49811498812F842B6B
:104BE0000E947636802F0E947636149A2196E4E051
:104BF0000C94BF4ECF93682F84ED6CDF40E861E0EA
:104C000082EDCCDF8AEE32DF80FDFCCF40EA61E04E
:104C100082EDC4DF88ED2ADFC82F89ED27DF2C2F36
:104C200030E0A901582BCA01CF9108950C9A149A2B
:104C300047DF60E088E04EDF60E089E04BDF6FEF48
:104C40008AE048DF6FE08BE045DF60E084E042DF30
:104C500060E185E03FDF60E08CE03CDF60E08DE01C
:104C600039DF60E08EE036DF60E08FE033DF109206
:104C70000B1610920A1640EA60E881EC8FDF40E8DC
:104C80006DE080EC8BDF40E862E382EC87DF60E080
:104C900070E080E069DF80E0ADDF90FF06C040E8B3
:104CA00061E082EC7BDF62E105C040EA61E082EC1A
:104CB00075DF65E184EC0EDF62E186EC0BDF6CE012
:104CC00087EC08DF60EE8AEC05DF65E08BEC02DF45
:104CD00060913A0884EEFEDE60913B0885EEFADED4
:104CE00060913C0882EEF6DE60913D0883EEF2DED4
:104CF00060913E0880EEEEDE60913F0881EEEADED4
:104D000063E888E3E7DE62E17CE084E12DDF6BEDC0
:104D10008BE1E0DE62E170E082E126DF40E864E002
:104D20008FE13CDF40E860E88EE138CF7FCF089527
:104D3000CF93DF93EC01688184EECCDE698185EE50
:104D4000C9DE6A8182EEC6DE6B8183EEC3DE6C81D2
:104D500080EEC0DE6D8181EEBDDEDF91CF910895E2
:104D6000BC0184E101CFCF93DF93C4E68FE17EDE07
:104D700083FF03C0C150D0F702C0CC2391F160E0A3
:104D800084E0A8DE60E185E0A5DE60910C1686E097
:104D9000A1DE80910C1690910D16905F692F87E02F
:104DA00099DE80E090E1CEDE80E045DEC0E4D8E12F
:104DB00080910C1690910D169E01205438412817B1
:104DC000390718F4899137DEF3CF40E860E88FE1C6
:104DD000E5DE40EA60E88FE1E1DE40E868E08FE18F
:104DE000DDDEDF91CF910895A4E0B0E0EAEFF6E2D6
:104DF0000C94A14E89E33ADE882309F480C08091A7
:104E00000A1690910B168CDE0DDE182F0BDE212F6B
:104E100030E0382B30930B1620930A168E010F5F6B
:104E20001F4F7E0125E0E20EF11CFCDDF8018193AD
:104E30008F01EE15FF05C9F789819A818C01045015
:104E400011091A83098342978F3C954028F480E426
:104E5000E82E88E1F82E02C0E9DE51C0C701805477
:104E600098418017910728F4DDDDF70181937F01D8
:104E7000F5CF10930D1600930C1680914C1890915D
:104E80004D189827892798278115F8E09F0761F02A
:104E900086309840A1F40E94F02F80910C169091DA
:104EA0000D16892B61F00AC081E08ED180910C161D
:104EB00090910D16892B19F00E94903054DF60916B
:104EC0000A1670910B16CB0101978115904128F0BD
:104ED0006FEF8CE0FFDD6FE009C061508CE0FADD20
:104EE00080910A1690910B160197692F8DE0F2DDE3
:104EF00040E860E48EE152DE81E090E002C080E0B4
:104F000090E02496E6E00C94BD4ECF9389E3AEDDAD
:104F1000882311F18CE1AADDC82F40EA60E88BE11B
:104F20003DDEC3FF08C040EA68E08CE137DE40EABE
:104F30006AE08DE133DE58DFC0FF04C040EA61E083
:104F40008CE12CDEC1FF04C040EA62E08CE126DE89
:104F500040E860E88BE122DECF91089582EC86DDA7
:104F60008273823309F062CE80EC80DD8D30D9F718
:104F70000895FB0141505109460F571FE417F507EB
:104F800078F4208130E0322F22276181260F311DF5
:104F9000820F931F8217930708F401963296EECF83
:104FA000E417F50751F4208130E0322F2227820FD9
:104FB000931F8217930708F401960895FC0153810B
:104FC000560F50931316872F99274281480F40930D
:104FD0001216A181A0931116E081E0931016242FE0
:104FE00030E02817390748F481E08A0F80931116C2
:104FF000811103C0EF5FE0931016852F90E07727B3
:105000008617970788F44F5F4093121641110CC022
:10501000809111168F5F80931116811105C08091C8
:1050200010168F5F809310160895209119163091F5
:105030001A16BC01C9010896C1DFE0911916F0915A
:105040001A168091101680878091111681878091A1
:1050500012168287809113168387089544E150E0E9
:105060006EE478E180E090E084DF009721F09827FB
:105070008927982708958FEF9FEF0895CF93DF93A7
:10508000C0915018D0E0DC2FCC2780915118C80F68
:10509000D11D48E050E06AE578E1CE010E9769DF66
:1050A000AE014451510962E678E163DF009721F0D7
:1050B00098278927982702C08FEF9FEFDF91CF9124
:1050C000089510923318109232181092341680E01E
:1050D0009FE2989FF0011124E05EF14E1582148248
:1050E0008F5F8230B0F38093430808952091440885
:1050F00030914508A091241EB091251EE091531EC9
:10510000F091541E2F5F3F4F21154DE7340710F0EB
:1051100020E030E1522F432FA417B50799F3E4178D
:10512000F50781F3309345082093440840E05FE29F
:105130004230A0F4A1E0A40F549FF0011124E05EDE
:10514000F14E24813581232B39F440934308309765
:1051500041F480E090E008954A2FEACF409343085D
:10516000F8CF209144083091450832272327322771
:105170003583248377836683009729F41082118214
:10518000128213820CC0DC012D913C911197318366
:10519000208312968D919C9113979383828380E450
:1051A0008087CF0108952091321830913318232B36
:1051B00039F410924308909333188093321808956D
:1051C00081E08093430808950F931F93CF93DF935B
:1051D000C0911916D0911A16843009F49CC126E7A3
:1051E00038E1309318162093171630930F1620933A
:1051F0000E16833059F4898D8F70833009F012C6F2
:1052000088899989892B09F00DC677C0823009F009
:1052100079C0809149088F5F80934908811113C03C
:10522000809148088F5F8093480881110CC080915D
:1052300047088F5F80934708811105C08091460819
:105240008F5F8093460810920D1610920C161092E4
:105250001F1E10921E1E298D822F8D7F853041F4D6
:105260008A8D8F5F8A8F883709F0DCC5198EDAC581
:10527000222309F4D7C588899989892BD1F18A8D90
:105280009FEF980F9A8F8111CDC58B8D883031F0AB
:105290009FEF920F923040F4853031F4198E80E800
:1052A000809314163DDA67C4853038F493E0082EF5
:1052B00001C0990F0A94EAF701C090E39A8F8F5FBB
:1052C0008B8F822F8F70843009F4EDC358F48130B6
:1052D00009F4DDC2833009F0A5C584E0809314167B
:1052E0001FDA7DC4863009F4DEC3883009F09AC520
:1052F000DAC32F70233009F095C588E08093141627
:105300000FDA30C4853019F5E0911516F0911616B4
:1053100084819581892B09F485C510921A16109203
:1053200019168AE698E190931816809317169093B1
:105330000F1680930E1610921F1E10921E1E1092B2
:105340000D1610920C1688E080931416E3C080911D
:105350004E18853409F066C5C0915018D0E0DC2F96
:10536000CC2780915118C80FD11D80910C169091B7
:105370000D168C179D0708F455C5D0930D16C093D4
:105380000C16809154188F7309F04CC580915518F4
:10539000811148C500913C1810913D180115110567
:1053A00031F480913E1890913F18892BA1F08091A3
:1053B0005E1890915F188017910709F033C520910E
:1053C00060183091611880913E1890913F1828170D
:1053D000390709F027C542DE019609F023C58091FF
:1053E0005718863009F4EEC08131B1F1813009F0EF
:1053F00019C580916218883009F014C5109262189E
:105400008091641890916518873FCFEF9C0710F04A
:10541000099601C00896909365188093641880914E
:105420005A1890915B1890935F1880935E18809142
:105430005C1890915D189093611880936018109398
:105440005B1800935A1880913E1890913F189093E2
:105450005D1880935C18EAC46C97D0930D16C093C6
:105460000C16209164183091651840916218509183
:10547000631860915A1870915B18A0915C18B091F4
:105480005D18E0E2FEE18EE1EE37F80708F0C6C4F1
:1054900084819581009719F12817390701F58681D4
:1054A0009781009719F048175907C9F480819181B5
:1054B000009729F4C281D381CD2B49F412C08F3FCC
:1054C0001FEF910721F4C281D381219651F0681713
:1054D000790729F482819381A817B90711F0BF9643
:1054E000D2CFF0931616E093151610921A1610925A
:1054F000191682E0809314168AE698E190931816A4
:105500008093171690930F1680930E1610921F1EFD
:1055100010921E1E14D980911E1E90911F1E00977E
:1055200009F480C49C01245E3F4F30930D162093F4
:105530000C163093501820935118E0911516F091E5
:10554000161620852093561821E1209357180896A7
:105550009827892798279093671880936618109248
:1055600069181092681884819581909363188093CC
:105570006218868197819093651880936418809152
:105580003C1890913D1890935B1880935A18809125
:105590003E1890913F1890935D1880935C1880811D
:1055A000918190935F1880935E188281938190938C
:1055B00061188093601886E798E19093181680939D
:1055C00017160AC45BDD019609F02CC450913416FD
:1055D00040916F18552369F1209164183091651836
:1055E00080911F16909120162817390711F52091E8
:1055F0006218309163188091211690912216281715
:105600003907B9F420915A1830915B1880911B1614
:1056100090911C162817390761F420915C1830917D
:105620005D1880911D1690911E162817390709F4F0
:1056300045C1842F8F73823019F042FDF3C317C028
:105640008091641890916518909341088093400868
:1056500020913218309133188217930709F0EDC367
:10566000511176C010924308CBE1D6E17BC084E1B2
:1056700080936F1888E290E090930D1680930C163B
:1056800080E580936E188091691890916D189093C1
:1056900069183091681890916C189093681830933D
:1056A0006C182091671890916B189093671820934D
:1056B0006B18909166189093430840916A18409334
:1056C000661890936A188F5F80936D1881110FC0D0
:1056D00081E0830F80936C18811109C081E0820FF3
:1056E00080936B18811103C09F5F90936A1880911B
:1056F000621890916318909341088093400820911C
:105700006418309165183093631820936218909351
:1057100065188093641880915A1890915B18909343
:105720005F1880935E1880915C1890915D1890933B
:1057300061188093601810935B1800935A18809139
:105740003E1890913F1890935D1880935C182AC37F
:10575000573019F4CBE1D6E102C0C0E0D0E081E0DF
:1057600080934308209709F45DC3D0931A16C09321
:10577000191683E08A8F888F1E8A84E08F8B1B8E98
:1057800080916418909165189D838C838091621834
:10579000909163189F838E8380915A1890915B1823
:1057A0009983888380915C1890915D189B838A838C
:1057B00081E0898F809146088C87809147088D878A
:1057C000809148088E87809149088F8781E090E01A
:1057D000998B888B809169188B87809168188A874C
:1057E00080916718898780916618888781E090E0AA
:1057F0001CDC80916E18282F207F30E02135310588
:105800000CF445C082958F7090E00597880F991F22
:10581000880F991F3091420820E0E22FF0E0E8174E
:10582000F9078CF5E05CF74E36A9311105C02093DD
:105830004308109242082BC0313011F42F5FEDCF96
:105840003230E1F447A94430C9F42093430830933F
:10585000420880AD90E0982F882721AD822B90934D
:10586000410880934008873A15E0910710F086EAD6
:1058700095E09B8B8A8B9D8B8C8B09C047A9442319
:1058800011F0240FCACF209343083093420882E1DD
:1058900080936F1882E08093761884E08093771865
:1058A00085E08093781886EA809379188CE290E0FE
:1058B00090930D1680930C1680E621C28BE196E141
:1058C00090931A16809319161092141642FF04C072
:1058D0001092341680E2B1C180916E1882958F705B
:1058E000880F880F80934308C81BD1096497D09311
:1058F0000D16C0930C165F70523021F4842F8F73F5
:105900008231E9F0CD2B19F4842F8370C1F090918E
:105910006618809123169813E6C1909167188091BC
:1059200024169813E0C19091681880912516981359
:10593000DAC190916918809126169813D4C144FF5A
:1059400058C060912B1670912C166115710509F4E1
:1059500050C087E296E132DB30916A1880911016D0
:10596000381347C020916B1880911116281341C03D
:1059700090916C188091121698133BC080916D180D
:1059800040911316841335C03093271620932816A0
:105990009093291680932A168091361681111EC085
:1059A000909131168091331620913516821B292F44
:1059B000269526952695821B980F90933116209157
:1059C0003216322F36953695831B820F809332160E
:1059D000969596959695980F9093331681E08093BF
:1059E0001416809133168093351610922C1610924F
:1059F0002B1640913416842F8F7090E0FC01319764
:105A0000E830F10508F00EC2EA5BFF4F0C94764EC9
:105A10008091141680FF06C283E08093341680E4E0
:105A20008093141610922C1610922B1680910C163F
:105A300090910D16009709F48DC022E4209314165E
:105A4000F4DA88C080916F1880FF31C044FD2FC008
:105A500080912B1690912C16892B09F0E3C180912F
:105A60000C1690910D160196E0DA20911416822FF3
:105A700080618093141680910C1690910D16892BDD
:105A800019F02261209314160E94902381E090E087
:105A900090932C1680932B1688E0809334161092E6
:105AA0003616CBE1D6E181E180936F1821C185FFE5
:105AB0001CC08091741890E0982F88272091751849
:105AC000822B2091171630911816280F391F30930A
:105AD00018162093171620910C1630910D16281BBE
