:10000000C2C100000C94DE13DCC10000DAC10000A4
:10001000D8C10000D6C10000D4C10000D2C1000088
:10002000D0C10000CEC10000CCC10000CAC1000098
:10003000C8C100000C947713C4C10000C2C1000005
:10004000AAC30000BEC10000BCC10000BAC10000CC
:100050000C9465220C942F22B4C10000B2C10000A0
:10006000B0C10000AEC10000ACC10000AAC10000D8
:10007000A8C10000A6C10000A4C10000A2C10000E8
:10008000A0C100009EC100009CC100006DFE214285
:10009000F00662442543A00246F008691B1841841B
:1000A0000B5AD50D47F3084D2B094B990959461AA0
:1000B000525E0654791D565507579E0658690F65BE
:1000C00015076634216CDF06742F047569167833C2
:1000D00003000000202F2000203D2000072E050DEA
:1000E000D391FF080500000C0021656A2D3B132207
:1000F000F862073F181D1CC700B0876BF8B611EAFD
:100100002A001F41000D2E2D07D3913D043200001F
:10011000060021656A55E43023B900070018146C05
:10012000070090876BF85611E92A001F4100000371
:100130000F1E2627000000030F1E25363867000318
:100140000F256740605000030F275188838100030B
:100150000F2750C8C3C2002700000000000000673E
:1001600000000000000000500000000000000081BE
:1001700000000000000000C2000000000000504C21
:100180004C310D0A00504C4C300D0A005620312ED7
:1001900036332043534D38363800202F2000203D81
:1001A00020004C4F56460D0A000B08105B11F81545
:1001B00047191D1A1C1BC71C001DB221B623EA00DB
:1001C00007022E030D04E905CA070C0B060D210ECC
:1001D000650F6A10C81193120315341733181819D4
:1001E000161B4321562500261129592C812D353EF9
:1001F000C34C454E4552520D0A004C4F56460D0A0F
:10020000004C454E4552520D0A000007024604C6F6
:1002100005260B0610C81193120313221534173F3D
:10022000182819161B432156250026110D210E658D
:100230000F6A070C160720F81E871F6B29592C819F
:100240002D353EC3FF00424F56460D0A000D2E2DA0
:1002500007D3913D04320000060010B07155E43020
:1002600023B900070018146C070090876BF856112B
:10027000E92A001F41000D2E2D07D3913D043200C5
:1002800000060010ABA5550A3023B900070018146A
:100290006C070090876BF85611E92A001F41004E49
:1002A0002F4100454F420D0A004E2F41004E2F4175
:1002B0000000535300547D7DFFFF4B4B7E7E00209A
:1002C000697320756E6B6E6F776E2920557365208C
:1002D0006F6E65206F66003F2028004F4646005431
:1002E0004D4F444500534D4F4445000454053D17C0
:1002F00000000602000B080C000D210E6B0FD01041
:100300005C11041206132214F80A00154421B622C7
:10031000101818192E1ABF1B431C091DB523EA24F7
:100320002A2500261F29592C812D352E090704085E
:1003300000090006FF3EC2FF04760596170000067E
:1003400002000B080C000D210E650F6A106A114A9D
:100350001206132214F80A00154721B622101818A5
:10036000192E1A6D1B041C091DB223EA242A25002C
:10037000261F29592C812D352E0907040800090054
:1003800006FF3EC2FF0011241FBECFEFD0E4DEBF48
:10039000CDBF11E0A0E0B1E0EEEBF1E500E00BBF76
:1003A00002C007900D92A838B107D9F728E0A8E855
:1003B000B1E001C01D92A03FB207E1F703D00C9459
:1003C000DD281ECE88E10FB6F8948093600010926D
:1003D00060000FBE089A109A099A119A0E9434235D
:1003E00051D589EF87BD84E085BD82E084BD8093CF
:1003F0006E00109280008AE08093810090E080E897
:100400000FB6F89480936100909361000FBE84B79B
:10041000877F84BF2FE088E190E00FB6F894A8951D
:10042000809360000FBE2093600089E190E80E94F5
:1004300099220E94191D0E94430F83EF92E290932C
:100440008B0380938A0381E080938B010E948D153A
:1004500080918B01886080938B01119878940E9421
:10046000B8220E94231111D20E947A210E940B17F8
:100470000E94600A0E945F0D0E943224F0CF8EBD60
:100480000DB407FEFDCF8EB50895A1E0B0E0EBE41A
:10049000F2E00C947527482F8A3008F048E088E095
:1004A000489F70011124F701E25DFE4F7F018BE24E
:1004B00090E0F70164918C010F5F1F4F4983E0D3F7
:1004C000FFEFEF1AFF0A49810333110511F0C8014C
:1004D000F0CF4550453010F461E101C067E184E29E
:1004E00090E0CED32196E6E00C949127CF93DF9352
:1004F00082E090E0FC01ED5FFE4F6491EC012196FB
:10050000BFD3CB32D10511F0CE01F4CF87E390E019
:10051000FC01EB55FF4F6491EC012196B1D3C0363D
:10052000D10511F0CE01F4CF88E0AFDFDF91CF919C
:1005300008952C98806CA3DF80E0A1DF2C9A0895A9
:10054000A1E0B0E0E6EAF2E00C94782741E0BE01D9
:100550006F5F7F4F019639D3892B21F189818939CA
:1005600069F410E0812FE5DF2CD3812F877087306D
:1005700009F4B3D21F5F1033A9F714C0DADF182FC4
:1005800083E460D289811DD388ED90E099D2812FD8
:1005900018D384ED90E094D240E262E0812F90E0A5
:1005A000A0D29BD22196E3E00C949427A1E0B0E086
:1005B000ECEDF2E00C9479272C98806469835FDF7E
:1005C0006981862F5CDF2C9A2196E2E00C949527B6
:1005D0002C9855DF2C9A0895EF92FF920F931F935A
:1005E000CF93DF93EC0110929301E898249A2C9A10
:1005F0008EE190E0BDD12C988EE190E0B9D12C9A9B
:100600008DE290E0B5D180E3E3DF84E690E0B0D105
:100610002C9880E434DF7E0189E2E80EF11C8E0123
:100620000F5F1F4FCE0131D32ADF0E151F0511F0CA
:10063000E801F5CF2C9A2C988EE721DF8BE290E031
:10064000EC01219622D31BDFC333D10511F0CE017B
:10065000F7CF2C9A83E3BCDF81E08FD1CDB7DEB733
:10066000E6E00C949127A1E0B0E0E9E3F3E00C941C
:10067000792722E0298341E0BE016F5F7F4F019619
:10068000A4D2898102DF82E090E0A6DF2196E2E039
:100690000C949527CF93E89886E39ADFCFEF85E314
:1006A00097DFC1508077803229F08AE090E060D1F6
:1006B000C111F5CFCF910895CF93CFEF84E388DFB9
:1006C000C1508077803129F08AE090E051D1C1118A
:1006D000F5CFE89ACF91089586E37ADF10928C03E4
:1006E0001092910110929301089582E090E074DFDE
:1006F00081E080938C0310929101109293010895F0
:100700000F931F93CF93DF93082F10E0C62FD0E0F5
:1007100085E30FDF801731F0CE012AD11150C1F7E8
:1007200081E001C080E0DF91CF911F910F9108958A
:1007300085E2FFDE8F3311F080E0089586E348DF25
:1007400080918801811104C085E891E0B9D102C08F
:100750008DE33EDF83E33CDF64E081E0D1DF85E2CF
:10076000E8DE8F3349F780918801811103C08EE75D
:1007700091E0A6D181E0089585E3DBDE8D3051F470
:1007800085E2D7DE8F3331F4D3DF84E321DF807756
:100790008031D9F708951F920F920FB60F9211244E
:1007A0000BB60F928F939F93AF93BF93EF93FF93EB
:1007B00080918E0390918F03A0919003B09191034B
:1007C0000196A11DB11D80938E0390938F03A0937A
:1007D0009003B093910380918D038F5F80938D037D
:1007E000E0E3F4E080819181181619061CF401976A
:1007F00091838083369684E0E834F80799F78091F6
:100800004A0490914B04009729F0019790934B0470
:1008100080934A0480915D048F3F19F0815080934A
:100820005D04FF91EF91BF91AF919F918F910F90D8
:100830000BBE0F900FBE0F901F9018952FB7F89416
:1008400040918E0350918F036091900370919103BA
:10085000FC0140835183628373832FBF0895A4E01A
:10086000B0E0E5E3F4E00C947927CE010196E6DFF1
:100870008C81A7D18B81A5D18A81A3D18981A1D176
:100880002CD12496E2E00C9495271F93CF93DF930D
:1008900080918E0390918F03A0919003B09191036A
:1008A00020918A01281709F45FC080918E039091EE
:1008B0008F03A0919003B091910380938A01A89532
:1008C000C0E3D4E010E028813981232B19F4812F73
:1008D0000E94A71F1F5F26961430A9F780914A0433
:1008E00090914B04892B11F40E94032080915D04A8
:1008F000811102C00E945F2080912104882339F079
:10090000815080932104811102C00E949F17809121
:100910008D038D3748F110928D038091000181FF86
:1009200004C082B192E0892782B9809192039091AC
:100930009303843823E0920728F40196909393035D
:1009400080939203809189018F5F809389018C331A
:1009500059F41092890180912F048F5F80932F04A6
:100960008C3310F010922F04DF91CF911F910895D6
:10097000880F991F0197F1F7089520ED37E0815016
:1009800020F0F9013197F1F7FACF0895CF93DF9373
:10099000DC0113968C911397843509F050C0CD017A
:1009A0000396CC91FD0170964DE04C1750F050E04D
:1009B000D0E09E012F5031094217530709F03FC084
:1009C00005C021912B3399F34F5FEFCFFE013E9786
:1009D000E80FF91F2081243591F514963C91149766
:1009E000218132132CC015963C9115972281321328
:1009F00026C016963C9116972381321320C0179675
:100A00003C911797248132131AC06197C80FD91FE0
:100A1000858188838681898381858A8382858B838A
:100A200083858C8384858D8385858E838C918A5084
:100A30008C9312968C9112978A5012968C93DF9118
:100A4000CF910895CF93C82F80918B0180FF0EC066
:100A5000809171048E3730F087FD08C0CD3011F0E1
:100A6000CA3021F46C2F8FE694E028D280912C04B8
:100A70008823C9F080918B0183FF15C0CA3099F09B
:100A8000CD3011F46BE301C06C2F8CE993E016D2EA
:100A9000CD3019F48CE993E079DF83E08093210471
:100AA00082E080932704CF910895CF93DF93EC01E8
:100AB0008991882311F0C6DFFBCFDF91CF91089594
:100AC000CF93DF93EC01FE018491882319F0BADF04
:100AD0002196F9CFDF91CF9108958DE0B3DF8AE0C1
:100AE000B1CFA6E0B0E0E7E7F5E00C947727062F5A
:100AF0001E8215E02AE030E01150E1E0F0E0EC0F5A
:100B0000FD1FE10FF11DB9010E944227805D808326
:100B1000CB010150009769F01111EECF0AC01123EB
:100B200059F01150E1E0F0E0EC0FFD1FE10FF11D75
:100B30004083015007FFF3CF81E090E08C0F9D1FB1
:100B4000810F911DB2DF2696E4E00C949327A5E077
:100B5000B0E0EDEAF5E00C9479271D8224E0382F0F
:100B60003F702150E22FF0E03A3010F4305D01C0C8
:100B7000395CA1E0B0E0AC0FBD1FEA0FFB1F308372
:100B800034E0969587953A95E1F76150009739F7EB
:100B9000615067FD0BC0222349F02150E1E0F0E0F5
:100BA000EC0FFD1FE20FF11D4083F2CF81E090E0DA
:100BB0008C0F9D1F820F911D78DF2596E2E00C942B
:100BC000952740E362E090E0C2CFDC01FB0130E01A
:100BD00090E08D918823A9F0813608F0805220EDB5
:100BE000280F2A3030F02FEB280F263030F429EC74
:100BF000280F292B332379F006C0803251F38A3332
:100C000041F3CF0105C0CF0101962083415041F44B
:100C1000861B970B0895922F9295907F31E0D9CF44
:100C2000FC01D5CF20E030E05AE0FC014191CF013A
:100C3000442379F0E0EDE40FEA30B8F7F9015E9F64
:100C400090015F9F300D112420533109240F311D75
:100C5000ECCFFB01318320830895982F92959F70EC
:100C60009A3010F4905D01C0995CFB0190838F7005
:100C70008A3010F4805D01C0895CFB018183089596
:100C80000E94CF28F999FECF08950C94C7280895A3
:100C90001F93CF93DF93162F11501F3F59F0EC0194
:100CA0002196F3DF8EDF112311F08AE3CBDE1150A2
:100CB000CE01F3CFDF91CF911F910895A2E0B0E074
:100CC000E4E6F6E00C947627FC0121812D3421F432
:100CD00066E08AEF9FE005C0203529F460E18AEDE7
:100CE0009FE0D6DF26C01A82198242E0BE016F5F04
:100CF0007F4F01966ADF098110E0823021F4102FC6
:100D000000278A81082BC801C0DFF82E82E59ADE11
:100D100040E364E0C8011BDF8EE991E0D1DE8F2D56
:100D200050DF8AE991E0CCDE40E262E08F2D90E076
:100D3000D8DED3DE2296E5E00C949227A6E0B0E060
:100D4000E4EAF6E00C9473276C0143E0BE016F5FA8
:100D50007F4F01963ADF823070F1E980F12C8230CA
:100D600021F0FE2CEE242A81E22A8C011127FE01BB
:100D7000E00FF11F6081C70183DF000F111F0F5FBC
:100D80001F4F0C0D1D1D8FEFE81AF80AF801808126
:100D9000882389F041E0BE016F5F7F4FC80115DFF6
:100DA000892B49F06981C7016BDF0E5F1F4FE2E0BD
:100DB000EE0EF11CEBCF2696E8E00C948F2741E075
:100DC00060E071E0019601DF8091000180FF02C0C8
:100DD000119A01C011986091000184E390E050CF16
:100DE000A1E0B0E0E6EFF6E00C94792719820097D5
:100DF00031F041E0BE016F5F7F4F0196E6DE8981F1
:100E0000882321F061E083E390E03ADF10926E00E6
:100E1000F89428E088E190E00FB6F894A8958093C4
:100E200060000FBE20936000FFCFCF93DF93EC01F3
:100E300061E080E090E024DF6FE381E090E020DF7C
:100E400055DB60E080E690E01BDF60E081E690E04B
:100E500017DF60E083E390E013DF62E084E390E07B
:100E60000FDF60E080E690E00BDF60E081E690E07D
:100E700007DF8981883719F080E090E0B1DFDF91EA
:100E8000CF91089580E090E000DF813029F481E087
:100E900090E0FBDE8F3319F080E090E0C6DF84E362
:100EA00090E0F3DE8093000108958CE891E008DE85
:100EB00014CEFC011282108211820895FC018FB7BA
:100EC000F894928197FD0EC09F5F9283208191E0FC
:100ED000920F9083DF01A20FB11D13966C9390388F
:100EE00009F410828FBF0895FC019FB7F8948281A6
:100EF000882371F081508283818121E0280F218332
:100F0000DF01A80FB11D13968C91203809F41182CE
:100F10009FBF0895FA013081882369F0E1E0F0E095
:100F2000022E01C0EE0F0A94EAF7DB01A30FB11DF8
:100F30009C919E2B9C93222319F08FEF820F0BC064
:100F400081E0830F8C3010F4FA018083FB01E80FFD
:100F5000F11D108287E090E00895CF93C82F299A61
:100F6000882319F080918E0102C08091900120E1C8
:100F7000829FC0011124FCDC2998CC2319F08091B8
:100F80008D0102C080918F0120E1829FC001112458
:100F9000EFDCCF910895A3E0B0E0E1EDF7E00C9431
:100FA00069275C01162F622E842F90E09B838A8331
:100FB00020919203309193030296089F802D112473
:100FC000992787FD90952817390720F482EA91E048
:100FD00077DD7CC0281B390B309393032093920359
:100FE000119A80919301882341F01092930185E832
:100FF00091E06FD7FF24F39401C0F12C80918C0312
:10100000811101C072DB46DB812E912CCC24C3946C
:10101000D12C712C512C852D992787FD9095881501
:10102000990524F480E099DF5394F5CF112311F052
:1010300081E093DF20E0422E552447FC5094EA8162
:10104000FB814E165F062CF097E0392E4A0C5B1C94
:101050001AC087E0282E312C4A0C5B1CC601022CDA
:1010600001C0880F0A94EAF7F2019081892329834D
:1010700074DFF1E02F1A310829818FEF2816380626
:1010800069F72F5FD8CF832D992787FD9095681634
:10109000790664F4C601032C01C0880F0A94EAF7AC
:1010A000F2019081892359DF3A94EDCF8E2D65DCD2
:1010B000015009F0AFCF80919503882311F0FCDA3D
:1010C00002C086E385DAF11037D311982396E2E166
:1010D0000C948527ADE0B0E0E0E7F8E00C946C27D5
:1010E0007C01162F842F022F6701C60ED11C462FBC
:1010F000B70108D7D6018C931F5F1D8619825E2C1D
:10110000670127E066246394712C8C2D8519811763
:1011100088F547E0A42EB12C4701880E911CF301FD
:101120000A2C01C0EE0F0A94EAF7D4018C91AE01AB
:10113000435F5F4FBE016F5F7F4F8E23EBDE282F33
:10114000B1E0AB1AB10858F7D6018D916D01082EA8
:1011500082958025082E8695869580258F5F8695B9
:101160008170AE01435F5F4FBE016F5F7F4FD2DE84
:10117000282FCBCF222311F0215004C08D858F5F03
:101180008D8727E089E180938F018093900185E22C
:1011900080938D0180938E013AE0E32E4D856CE0C3
:1011A000CE010196F8DE2D96EFE00C948827ADE095
:1011B000B0E0EDEDF8E00C947827162F242F4BE0EB
:1011C000BE016F5F7F4F01962D87FFDC2D85412F7C
:1011D000682FCE0101967EDF2D96E3E00C949427D4
:1011E00043E066E0E4CFEF920F93CF93DF93CDB768
:1011F000DEB760970FB6F894DEBF0FBECDBF40E1FB
:10120000BE016F5F7F4F0196E0DC69814A810B81EF
:101210008C81809390018D8180938F018E8180934A
:101220008E018F8180938D01E02EE2947FE0E72292
:101230000F70242F2F7042954F70CE010896ABDEB1
:1012400060960FB6F894DEBF0FBECDBFDF91CF9191
:101250000F91EF900895A9E1B0E0E1E3F9E00C947B
:1012600071274BE0BE016F5F7F4F0196AEDC182FF8
:10127000893009F05AC099E190938F0190939001C1
:1012800090938E0182E380938D0169E0CE010196F7
:1012900043D6E1E0F0E0EC0FFD1FE10FF11D80838C
:1012A000198E1D86CE0101967C016E019BE0C90E50
:1012B000D11C27E0AA24A394B12CEC14FD0429F13D
:1012C00000E010E0F501002E01C0EE0F0A94EAF7ED
:1012D000D7018C91AE01475E5F4FBE01635F7F4FC8
:1012E0008E2318DE282F0F5F1F4F0830110551F78E
:1012F000AE01475E5F4FBE01635F7F4F81E00ADE54
:10130000282FBFEFEB1AFB0AD8CF222311F0215070
:1013100004C0898D8F5F898F27E0EAE0EE2E03E01D
:10132000498D6CE0CE010D9636DE6996EAE00C94AC
:101330008D27A9E1B0E0EFE9F9E00C9470274BE0CC
:101340009E012F5F3F4F7901B90101963EDC182FB6
:1013500085E38093900196E190938F0190938E01A5
:1013600080938D01612FC701E3D5F701E10FF11DD6
:10137000808399249394910E198E1D86870127E00E
:10138000AA24A394B12C802F8E19891508F04AC085
:10139000C12CD12CF5010C2C01C0EE0F0A94EAF7F8
:1013A000D8018C91AE01475E5F4FBE01635F7F4FF6
:1013B0008E23B0DD282FBFEFCB1ADB0A34E0C31633
:1013C000D10441F7AE01475E5F4FBE01635F7F4FBF
:1013D00081E0A0DD282FB4E0CB2ED12CF5010C2C20
:1013E00001C0EE0F0A94EAF7D8018C91AE01475E76
:1013F0005F4FBE01635F7F4F8E238CDD282FBFEFD1
:10140000CB1ADB0A38E0C316D10441F7AE01475EC0
:101410005F4FBE01635F7F4F81E07CDD282F0F5F50
:101420001F4FB1CFAAE0EA2E03E0498D6AE0CE015A
:101430000D96B1DD6996EBE00C948C27CF93DF938A
:10144000E898249A2C9A8EE190E092DA2C988EE11A
:1014500090E08EDA2C9A8DE290E08ADA80E3B8D8B8
:1014600084E690E085DACFEBD1E0FE01319664911D
:10147000FE0184919BD82296F1E0C13FDF07A9F7D6
:1014800080919201811105C083E3A2D884E075DACE
:101490000EC0C9EAD1E0FE0131966491FE0184914B
:1014A00085D82296F1E0CF3BDF07A9F7EDCF84E3A3
:1014B0008FD885E33ED88D30D1F7DF91CF91089555
:1014C000A2E3B0E0E6E6FAE00C9477278091910180
:1014D000882309F494C04A9B7EC08FE32AD88F7773
:1014E0008983823348F08AE373D886E371D88DE329
:1014F0006FD884E36DD883C02C988FEF0E943F0291
:1015000010E08981181760F480E00E943F02E2E059
:10151000F0E0EC0FFD1FE10FF11D80831F5FF1CFA5
:1015200080E00E943F02082F80E00E943F022C9A38
:1015300084E34ED885E30E9499028D30C9F72A8151
:1015400096E792279A8392E08981E92FF0E0981735
:1015500068F441E050E04C0F5D1FE40FF51F30814F
:101560002452232720839F5F232FEECF81E090E03A
:101570008C0F9D1FE80FF91F90818B819827908316
:101580008091950384FF10C081E65CDA10E08981C8
:10159000811708F1E1E0F0E0EC0FFD1FE10FF11D14
:1015A000808150DA1F5FF3CF81E44CDA10E089814B
:1015B000811750F0E1E0F0E0EC0FFD1FE10FF11DAD
:1015C0008081FFDA1F5FF3CF8091950385FF02C012
:1015D000802FF7DA82DA85E30E949902813029F0C0
:1015E000813161F48AE30E94E80286E30E94E80206
:1015F0008DE30E94E80284E30E94E802BDD8E296EF
:10160000E4E00C949327A2E3B0E0E9E0FBE00C9463
:10161000732741E38E010F5F1F4FB8010196D5DAA2
:101620006C019C01332721503109898190E02817F2
:10163000390709F065C080919101811103C0FEDE78
:1016400083E09BD9FB808A8196E789278A8392E091
:101650008981292F30E0F801E20FF31F981750F429
:10166000DE01A20FB31F8C918452208182278083D8
:101670009F5FEECF80818F25808385E30E94E80203
:1016800085E30E9499028331C1F7F4FE06C088E722
:1016900074D988E772D988E701C08AE06ED92C989E
:1016A0008FE70E943F0278018E2D801B8C1530F44D
:1016B000F70181917F010E943F02F6CF2C9A85E3CA
:1016C0000E9499028331D9F385E30E949902863101
:1016D00049F48BE30E94E80286E30E94E8028DE36E
:1016E0000E94E80280919101882349F084E30E94DE
:1016F000E80285E30E9499028D30C1F701C0DAD378
:10170000E296E8E00C948F27FC012181223731F02A
:10171000223559F481E08093920102C01092920127
:101720008DDE81E0809391010895233711F40196B5
:101730006ACF109291010895CF93DF93E898249A8D
:101740002C9A8EE190E014D92C988EE190E010D97B
:101750002C9A8DE290E00CD980E30E94E80284E6A6
:1017600090E006D9CAE0D2E0FE018491813438F0DD
:1017700083E30E94E80284E000D9CFEF0DC0FE01B0
:1017800031966491FE0184910E94D6022296F2E085
:10179000C634DF0749F7ECCF84E30E94E8028AE011
:1017A00090E0E6D8C150C1F781E080939301DF91CA
:1017B000CF910895EF92FF920F931F93CF93DF93F2
:1017C000EC018B01F880F3946115710519F0E4E6E2
:1017D000F0E002C0E0E0F0E028E0F29EC001112459
:1017E0006AE070E00E9456279B012E0F3F1FC9013F
:1017F000AA2797FDA095BA2FE0919203F091930349
:10180000AF0160E070E0481759076A077B0720F4D2
:101810008AEF91E055D9C3C0E21BF30BF093930319
:10182000E093920380919301811101C085DF85E3EC
:101830000E9499028D3051F08AE504D985E402D9DD
:1018400082E500D982E5FED881E347C0809194010A
:1018500090919501A0919601B0919701892B8A2BC7
:101860008B2B29F50E944A0385E30E94990283315C
:1018700009F43BC08AE5E6D885E4E4D882E5E2D8FD
:1018800082E5E0D882E329C080918E0390918F0396
:10189000A0919003B09191034F5F5F4F6F4F7F4FC7
:1018A00084179507A607B707E9F681E066D8809107
:1018B0008E0390918F03A0919003B091910340917A
:1018C0009401509195016091960170919701841750
:1018D0009507A607B707C1F6E8CFB4D885E30E94FD
:1018E00099026FD9FAD828DF5AC0012B41F42C98FD
:1018F0008FE70E943F02EC2E0C2F1D2F0AC00AE03A
:1019000010E084E63AD80150110901151105C9F714
:10191000EECF802F8E198F1530F4F80181918F0151
:101920000E943F02F6CF2C9AC8EC85E30E949902F0
:101930008D30B1F485E30E9499028D30D9F08AE5AB
:1019400081D885E47FD882E57DD882E57BD883E3A2
:1019500079D885E30E94990234D9BFD8EDDE0AC058
:1019600085E30E949902833129F781E006D8C150AE
:10197000E1F6E0CF80919301811101C09BD280916B
:101980008E0390918F03A0919003B0919103809367
:10199000940190939501A0939601B0939701CDB7D0
:1019A000DEB7E6E00C949127ACE0B0E0EAEDFCE0B5
:1019B0000C947827FC018BE0898381818A831B82C8
:1019C00082E08C8387818D8380858E8381858F8360
:1019D000848188878581898786818A871B861C8682
:1019E00084E10E94BD0460E070E0CE010196E2DE79
:1019F0008AE528D810E0812F90E0298130E028176F
:101A0000390754F0E1E0F0E0EC0FFD1FE80FF91F9B
:101A10008081D7D81F5FEFCF8091950385FF02C0EB
:101A200080E0CFD85AD82C96E3E00C949427CF933B
:101A3000DF93EC0180919B01811108C090919C0182
:101A4000911104C090919D019923A9F09B8190333D
:101A500019F09F7E903479F49F8198130CC098857B
:101A600080919C01981307C0998580919D019813DE
:101A700002C0CE0199DF80919801811108C0909138
:101A80009901911104C090919A019923A9F098812C
:101A90009B3091F49B81903479F49F8198130CC012
:101AA000988580919901981307C0998580919A0132
:101AB000981302C0CE0178DFDF91CF910895AEE197
:101AC000B0E0E5E6FDE00C94772780919301882350
:101AD00009F467C04A9B57C08FE30E9499028F7731
:101AE0008E3108F08DE189832C988FEF0E943F02A0
:101AF00010E08981181760F480E00E943F02E2E064
:101B0000F0E0EC0FFD1FE10FF11D80831F5FF1CFAF
:101B100080E00E943F02082F80E00E943F022C9A42
:101B2000CE01019684DF8091950384FF12C08AE77D
:101B30000E94220510E08981811798F1E1E0F0E030
:101B4000EC0FFD1FE10FF11D80810E9422051F5F38
:101B5000F2CF8AE50E94220510E08981811750F0BA
:101B6000E1E0F0E0EC0FFD1FE10FF11D808129D8CD
:101B70001F5FF3CF8091950385FF02C0802F21D88E
:101B80000E946D050EC085E30E949902813149F4DF
:101B90008AE30E94E80286E30E94E80284E30E944E
:101BA000E8026E96E4E00C949327AEE1B0E0EBED32
:101BB000FDE00C9477278C01FC018181823711F4C0
:101BC000BBDD36C0833711F0863601F54DE1BE012D
:101BD0006F5F7F4FC80102960E94E5059927019724
:101BE000298130E08217930729F081EF91E00E946C
:101BF00060051EC061E070E0F8018181833711F05B
:101C000060E070E0CE010196D5DD12C0813621F48E
:101C100043E06BE971E005C0873741F443E068E9D0
:101C200071E0C80102960E94E50502C0109293017E
:101C30006E96E4E00C9493278F929F92AF92BF929E
:101C4000DF92EF92FF920F931F93CF93DF93109247
:101C5000B9011092CE01FC012181220F220F220F27
:101C60003381231B57E0520F1092BA0110E070E04D
:101C700038E0D32ED20EFF24F39447E007E0E12CA6
:101C8000C7E0D0E0A1E0B0E0FD1409F47FC0FC01A2
:101C9000EE0DF11D248130E0002E02C03595279510
:101CA0000A94E2F721703327E22F002311F001504C
:101CB00002C0E39407E06B3471F4433009F04AC08A
:101CC000111107C0E1115FC01092B9017093CE01EC
:101CD00074C010E041C04F3F31F56634A9F4E72FDE
:101CE000F0E0E654FE4FE0810E2EE295E0250E2E48
:101CF000E695E695E025EF5FE1FB882480F8912CDE
:101D00008216930641F004C0653429F4E11103C042
:101D10001093B901DBCF7F5FE72FF0E0E654FE4F71
:101D2000108247E031C0EE2361F1663471F4E72F91
:101D3000F0E0E654FE4FA0809D01042E01C0220F6A
:101D40000A94EAF7A22AA0821CC0653439F06B34E9
:101D5000C1F404C04F3FD1F2EE2399F0E72FF0E039
:101D6000E654FE4F9E01241B310947FD33955D016A
:101D700002C0AA0CBB1C2A95E2F795013081322BD8
:101D80003083415001C011E0F3947ECF1093B9012C
:101D90007093CE015F1588F4653431F44F3F21F420
:101DA0007F5F7093CE0104C08091B9018111F8CF9B
:101DB00081E09091CE01911101C080E0DF91CF913F
:101DC0001F910F91FF90EF90DF90BF90AF909F9089
:101DD0008F90089510926F00E091D1018CE1E89FFF
:101DE000F0011124EE52FE4F1082809194038D7FFA
:101DF000809394030895FC012181243108F0EACFF7
:101E00003381662381F081E090E0032E01C0880FCA
:101E10000A94EAF7DF01A20FB11D14969C91149762
:101E2000982B14969C93332319F0315033830895E3
:101E300087E083832F5F2183E20FF11D14820895D1
:101E4000DC011196EC911197F0E050E02C91CF015C
:101E5000841B950B0B964797A0F430E070E0C90106
:101E6000861B970B0B96479760F42E0F3F1F640F4E
:101E7000751F261B370B255F3F4F81E0273131054A
:101E800008F080E00895219A29985298E9E6F0E058
:101E900080818160808382EC91E0909393038093B2
:101EA00092031092EE0110920A02109226021092F2
:101EB0008C0308958091870381110AC08091950356
:101EC000882321F00E9475030C945C030C946C032E
:101ED0000895FC01218121110EC0809195030E947B
:101EE000E10540E265E080919203909193030E94A6
:101EF00071050C946D0541E065E973E001960E945F
:101F0000E505D8CF442339F04150FB01E40FF11D22
:101F10009081890FF7CF089520E0662339F0615052
:101F2000FC01E60FF11D30812327F7CF822F0895A2
:101F3000A091B90140E035E020E0662399F06150BE
:101F4000FC01E60FF11D5081752F72957F702727D8
:101F5000370FAA2311F0442319F05F702527350F9E
:101F60004F5FEBCF320F40E1349FC0011124822B31
:101F70000895FC0132812381A081B181A30FB11D9D
:101F80008C9190E0022E02C0959587950A94E2F715
:101F9000817099274FEF420F4383211104C03F5FA7
:101FA000328327E023830895A2E0B0E0EAEDFFE06A
:101FB0000C9471277C01A12CB12CD12CCC24C3947E
:101FC000062F10E001501109A616F0F4C7014A834C
:101FD0006983CFDF4A816981882391F0442349F0E6
:101FE00098012A193B098C2D01C0880F2A95EAF720
:101FF00006C08C2D0A2C01C0880F0A94EAF7D82A53
:102000008FEFA81AB80AE0CF8D2D2296EAE00C9443
:102010008D27A4E0B0E0EFE0F0E10C9470271B8284
:1020200027E02C839C012C5F3F4F3A832983109239
:10203000CE01FC012181338187E090E0831B91096F
:10204000F8E02F9F800D911D1124853491050CF42B
:102050004EC0B12CA090CE01F5E0FA1558F10A2D32
:1020600010E040E068E0CE0101969EDF06541E4F6E
:10207000F8018083982E092C92949024092C969430
:1020800096949024CE01019674DF939491FACC2417
:10209000C0F8D12C90E0C816D90649F5CE010196BA
:1020A00068DF811124C0F8018081B826A394A09232
:1020B000CE01D0CF40E068E0CE01019675DF082F59
:1020C000182F012E12951025012E16951695102504
:1020D000CE0101964EDF1F5F11FBEE24E0F8F12CDC
:1020E000282F30E0E216F30611F481E0B01280E010
:1020F0002496EBE00C948C27A5E0B0E0E2E8F0E158
:102100000C947427FC011B8287E08C83CF0104961A
:102110009A8389838081853009F051C02181338180
:1021200087E090E0831B910938E0239F800D911D8B
:1021300011248039910509F042C01092CE010FE0C0
:1021400010EF29E88091CE01E82EF12CDD24D39404
:10215000D80E41E068E08F3088F4CE0101962D83DF
:1021600023DF080F111DF701E654FE4F2D812827AC
:10217000208324E2280FD092CE01E4CFCE01019635
:1021800013DF080F111DD092CE01F701E654FE4F68
:102190008095808341E068E0CE01019605DF90E004
:1021A000982F8827081B190B41E068E0CE010196A3
:1021B000FBDE282F30E081E00217130709F080E0F2
:1021C0002596E7E00C949027CF93DF93FC01818163
:1021D0008330E9F483818730D1F480818830B9F489
:1021E0001092CE0120E0822F90E0DC01A654BE4F79
:1021F000EF01C80FD91F8C818C9381E0820F83304F
:1022000010F4282FF0CF8093CE0181E001C080E050
:10221000DF91CF910895FC019081809194039936CC
:1022200011F0933751F4982F9370913011F482602C
:1022300006C080FF07C08B7F03C080FD03C08460A1
:10224000809394030895A1E0B0E0E9E2F1E10C94F9
:102250007527198280919E018823B9F18091950399
:1022600087FF17C084E30E9499028058803458F099
:10227000803C58F490E08055910953E095958795FE
:102280005A95E1F703C080E001C08FE08F590E94AA
:1022900022058091950383FF16C082E70E942205E4
:1022A0008091950384FF04C080919F010E942205C4
:1022B00086E60E9422058091950384FF04C08091E8
:1022C0009E010E94220510929E018091CF018823D9
:1022D00009F409C2119A0091D0012CE1029F8001FA
:1022E00011240E521E4F8981811106C0C8016CDF76
:1022F000882311F083E789838981811106C0C80191
:10230000FBDE882311F083E589838981811139C03F
:1023100066E4C80191DC8823A1F1F090CE01FA9423
:10232000F092CE014F2D6AEB71E086E0EBDDEF2DF0
:10233000F0E0E654FE4FE0808E1105C093E09F155B
:1023400010F486E41BC0282F30E02F5F3F4F6E2D26
:1023500070E02617370739F423E02F1520F496E4B0
:10236000998380830EC04F2D6AEB71E08CE0CADD4B
:102370008E1106C083E08F1518F484E5898301C0AF
:1023800019828981811116C065E4C80155DC882352
:1023900089F08091CE0181508093CE01893051F433
:1023A00069E08AEB91E0B8DD9091C301891302C026
:1023B00085E489838981811106C0C8012ADE8823CA
:1023C00011F088E489838981811133C0F801438D3C
:1023D00060919F01C8014A9633DD682FC8010BDD6B
:1023E0006BE4C80129DC8823B1F0F090CE01FA94A7
:1023F000F092CE016F2D8AEB91E09ADDEF2DF0E0A7
:102400009091B901E91BF109E654FE4F90818913BF
:1024100002C08BE48983898181110BC0F80183811B
:1024200091E0980F9383873021F41382818181504A
:1024300081833981332309F4CAC02091950320FF99
:10244000C6C0809194038E7F8B7F8093940321FD7F
:1024500064C05091B801F090CE015F113DC040E0E2
:102460004517C0F4842F90E061E0640FFC01EC5547
:10247000FE4FDC01A654BE4F70818C91781741F05D
:102480004093B801809194038D7F8093940304C09E
:10249000462FE6CF4093B80145131EC040918E03EE
:1024A00050918F0360919003709191038091A001EE
:1024B0009091A101A091A201B091A301481B590BD9
:1024C0006A0B7B0B463251056105710528F480913A
:1024D000940381608093940340E04F1560F4842F4F
:1024E00090E0FC01EC55FE4FDC01A654BE4F8C91F0
:1024F00080834F5FF2CF4093B80180918E0390911B
:102500008F03A0919003B09191038093A0019093C9
:10251000A101A093A201B093A3013435E9F426FDF3
:102520001BC08091CE018530B8F08091BC018B3406
:1025300071F0893661F09DEA980F923040F08D5726
:10254000823028F08091BD018077803729F4809116
:102550009403816080939403B801CE0101965BDE01
:102560008091940382FF33C089810E94220580916B
:10257000B901882329F08091CE0181508093CE014A
:10258000F12CE091CE01FE1648F4EF2DF0E0E65478
:10259000FE4F80810E94E105F394F3CF8091B90151
:1025A000882351F0F0E0E654FE4F80818F7040E3C5
:1025B00061E090E00E94A7058091950385FF05C02A
:1025C00084E30E9499020E94E1050E946D058091BA
:1025D000950382FF6FC080E70E942205F801808189
:1025E00040E262E090E00E947105F801808D40E2D7
:1025F00065E0F0E18F9FC00111240E947105F80190
:10260000818D40E265E0F0E18F9FC00111240E94BE
:102610007105F801828D40E265E0F0E18F9FC00115
:1026200011240E947105F801838D40E265E0F0E11C
:102630008F9FC00111240E947105F801828140E240
:1026400063E090E00E947105F801818140E263E05F
:1026500090E00E947105F801238140E262E087E08A
:1026600090E0821B91090E94710580E20E94220580
:102670008091950385FF08C084E30E9499020E941F
:10268000E10580E20E942205F8018381873019F07C
:1026900081818F5F8183F12CF8018181F81640F4EC
:1026A000F801EF0DF11D84810E94E105F394F4CF50
:1026B0000E946D05F80110828091CF0181508093B6
:1026C000CF018091D0018F5F843019F08093D001C9
:1026D00002C01092D00111988981843521F48AEBCF
:1026E00091E00E946E202196E6E00C9491271F92C3
:1026F0000F920FB60F9211240BB60F922F933F93A8
:102700004F935F936F937F938F939F93AF93BF93F9
:10271000EF93FF9310926F008091950383FF03C0A6
:102720008EE20E9422058091D1019CE1899FF001F7
:102730001124EE52FE4F9081933018F09181923027
:1027400010F448DB18C09091CF01933049F4809188
:10275000950382FFF6CF86E492E00E946005F1CFF8
:102760009F5F9093CF018F5F843019F08093D101E8
:1027700002C01092D101FF91EF91BF91AF919F9153
:102780008F917F916F915F914F913F912F910F901A
:102790000BBE0F900FBE0F901F9018959BED980FDA
:1027A000973150F496EF960F9D3130F491E0681711
:1027B00008F090E0892F089580E008951F920F920D
:1027C0000FB60F9211240BB60F92FF920F931F9327
:1027D0002F933F934F935F936F937F938F939F9329
:1027E000AF93BF93CF93DF93EF93FF9380916E04EA
:1027F000882321F082E080936E0463C180912204DB
:10280000823021F483E0809322045BC10091840034
:102810001091850064E0169507956A95E1F7C091DF
:10282000D1019CE1C99FE0011124CE52DE4F988175
:10283000943031F40E3208F444C10F3448F0B6C07D
:10284000953031F4073108F43CC1083208F0AEC0CD
:102850004A990DC09450923038F461E0CE01CBDA41
:10286000109285001092840000939F012AC18091EC
:102870009F01081B00939E01109285001092840016
:102880009881983071F42A8121110BC021E02A83AC
:10289000888F8A8F098F0B3B10F4000F01C00695BB
:1028A0000B8F9450923020F460E0CE01A4DA09C17D
:1028B00082E086BBF880F11011C090919F0195369F
:1028C00008F0FFC080919E01853608F0FAC0988F0D
:1028D000898F81E08A8382E08883F3C010919E0112
:1028E00082E0F81273C000919F01412F602FCE014A
:1028F0004896A6DA6A818823F9F0488D50E09A015B
:10290000220F331F240F351F200F311D35952795BA
:1029100035952795288F298D30E0C901880F991F9B
:10292000820F931F810F911D95958795959587959A
:10293000898F6F5F6A83C5C0643008F445C020EAA0
:102940003FE030938900209388008A818C3050F0DA
:10295000888D298D30E0280F311D2536310524F072
:1029600084E027C08A3088F0888D298D30E0280FD8
:10297000311D253231054CF485E0888328EE33E0A3
:10298000309389002093880015C080919B03882391
:1029900079F0612F802F02DF882351F0688D898DB7
:1029A000FDDE882329F081E08093220413DA89C0B8
:1029B00083E088830A8F1B8F198287E08B831C82B8
:1029C00082E080936F007DC0188277CF98E0F91283
:1029D00025C081E9810F8D3178F460E0CE010BDAFA
:1029E000288D30E0C901880F991F820F931F209115
:1029F0009F01820F911D4EC0173E08F462C061E036
:102A0000CE01F9D92A8D30E0C901880F991F820FB4
:102A1000931F20919F01820F911D15C000919F016E
:102A2000412F602FCE014A960BDA882301F161E035
:102A3000CE01E1D92A8D30E0C901880F991F820F9C
:102A4000931F800F911D95958795959587958A8FF2
:102A50002B8D30E0C901880F991F820F931F810FC2
:102A6000911D95958795959587958B8F2AC0412FB8
:102A7000602FCE014896E4D9882301F160E0CE01B1
:102A8000BAD9288D30E0C901880F991F820F931F92
:102A9000800F911D9595879595958795888F298DA0
:102AA00030E0C901880F991F820F931F810F911D7C
:102AB0009595879595958795898F03C087E0F8123E
:102AC00075CFFF91EF91DF91CF91BF91AF919F9122
:102AD0008F917F916F915F914F913F912F911F91B6
:102AE0000F91FF900F900BBE0F900FBE0F901F9095
:102AF0001895E091D1018CE1E89FF0011124EE528C
:102B0000FE4F8081811107C081E090915D049F3F5D
:102B100019F480E0089581E0089580E690E00E9435
:102B2000450680939B0381E690E00E9445068093D2
:102B30002C04882321F081E280939503BBC908957A
:102B4000299A0C94B80429980C94B804A7E0B0E032
:102B5000ECEAF5E10C9474279091A403943559F4B0
:102B600020912504309126042F5F3F4F3093260497
:102B7000209325043EC0963459F4209123043091CB
:102B800024042F5F3F4F309324042093230431C04B
:102B9000953459F420919803309199032F5F3F4F5A
:102BA000309399032093980324C09B3459F42091C7
:102BB0002804309129042F5F3F4F3093290420933C
:102BC000280417C0983459F420912A0430912B041A
:102BD0002F5F3F4F30932B0420932A040AC020918B
:102BE0009603309197032F5F3F4F309397032093C5
:102BF000960395E79983882399F0BE016E5F7F4F16
:102C000080912C040E942D06BE016C5F7F4F809145
:102C10009B030E942D0685E58E8386E0D82E02C098
:102C2000DD24D3940E9475030E944A0316E080E8D5
:102C300091E086DF80E093E086DF1150C1F780E00D
:102C400093E07EDF80E891E07EDF80E891E078DF4E
:102C5000299887E390E00E94EC0283E00E94BD0483
:102C60002C988FE70E943F0280919E038D0D0E9459
:102C70003F02CE0101967C018C01F80181918F0108
:102C80000E943F02802F8E198D15B8F380919E030C
:102C9000882339F08CE993E00E9474070E943F0278
:102CA000F5CF2C9A0E944A038CE993E00E945907C1
:102CB00015E18AE30E9499028F7731F0115021F0DB
:102CC00081E00E94BD04F5CFF5D82796E7E00C948B
:102CD0009027CF93DF93EC018981811107C0809108
:102CE0009B030E94E10580912C0413C08436A1F45B
:102CF00080918E0390918F03A0919003B0919103E6
:102D000040E364E00E94A7058EE20E9422058091C4
:102D100021040E94E1054DC0833709F04DC040E316
:102D200061E080912504909126040E94A7058EE21F
:102D30000E94220540E361E08091230490912404E5
:102D40000E94A7058EE20E94220540E361E0809187
:102D50009803909199030E94A7058EE20E94220594
:102D600040E361E080912804909129040E94A70526
:102D70008EE20E94220540E361E080912A04909156
:102D80002B040E94A7058EE20E94220540E361E029
:102D900080919603909197030E94A7058EE20E946E
:102DA000220540E361E080911F04909120040E947D
:102DB000A7050E946D052CC08936D9F441E06BE966
:102DC00073E0CE0102960E94E50560919B0380E6C8
:102DD00090E00E94400641E06CE274E0CE0104966F
:102DE0000E94E50560912C0481E690E00E94400677
:102DF0000FC08CE993E00E945907219669916623E0
:102E000029F08CE993E00E945E07F8CF80E09EDE17
:102E1000DF91CF910895A1E0B0E0E1E1F7E10C94FA
:102E2000732780912204882309F485C0C0908E0303
:102E3000D0908F03E0909003F0909103833009F0DD
:102E400060C08FE30E949902182F8630C8F082EF8D
:102E500094E00E9459072C988FEF0E943F0280E077
:102E60000E943F02082F115049F080E00E943F026B
:102E7000682F82EF94E00E945E07F5CF2C9A01C084
:102E800000E018D810922204053709F054C041E040
:102E9000BE016F5F7F4F85EF94E00E94E5050197CB
:102EA00059F5998180919B03981326C08091F9046C
:102EB000853571F48091F404882339F082EF94E031
:102EC0000E9474070E942205F5CF0E946D0533C051
:102ED0008091F40484508093F40484E08093F3049C
:102EE0006AE082EF94E00E945E07E0918A03F0912D
:102EF0008B0388E009951FC082EF94E00E94590778
:102F00001AC0823059F480919A039C2D981B9830F6
:102F100090F00E945A0F109222040DC0813059F493
:102F200087E390E00E94EC020E945C0382E08093C1
:102F30002204C0929A032196E8E00C948F27D9DDF1
:102F4000882361F083E08093270480911F0490918F
:102F5000200401969093200480931F0480912704FD
:102F6000815080932704882321F083E080932104FB
:102F7000089581E0EBCDCF93DF93E898249A2C9AC3
:102F80008EE190E00E94B8042C988EE190E00E94BF
:102F9000B8042C9A8DE290E00E94B80480E30E946D
:102FA000E80284E690E00E94B8042C9880E40E9435
:102FB0003F02CDE4D2E0FE0184910E943F022196BF
:102FC000F2E0CA35DF07B9F7809101010E943F02A4
:102FD000809102010E943F02809103010E943F0202
:102FE000C0E0D0E0FE01E35AFD4F84910E943F0211
:102FF0002196C931D105B1F72C9A2C988EE70E9401
:103000003F028BE290E0EC0121960E9445060E946F
:103010003F02C333D10511F0CE01F5CF2C9A83E3E3
:103020000E94E80281E00E94BD0481E080938C034D
:10303000DF91CF9108956F927F928F929F92AF927E
:10304000CF92EF92FF920F931F93CF93DF93EC01F8
:103050008981843769F468E071E0CE0102960E94AC
:10306000120640E260E0809108019091090112C0CF
:10307000833709F092C18A81823789F464E071E074
:10308000CE0103960E94120640E260E080910401A6
:10309000909105010E9471050E946D05EAC1119A87
:1030A00080914402811116C080919101882329F0FA
:1030B00081E08093430210929101809193018823D3
:1030C00029F081E0809342021092930154DF83E063
:1030D0000E94BD0486E30E94E8028AE30E94E8029F
:1030E0008BE30E94E8020E944A03FE010190002047
:1030F000E9F70E2F0C1B0250C12CFAE09F2E7E0127
:1031000032E0E30EF11CA5E0AA2EB8E28B2E8091EE
:103110000401909105012C2D332727FD30952817A8
:10312000390708F0FBC00132A1F4299A8091080107
:10313000909109010E94B80429988091060190910C
:103140000701FC019E9EC0019F9E900D11240E94CC
:10315000B804370111E010170CF0B7C0F3018191EA
:103160003F01299A803309F046C0013201F5809170
:103170000601909107010E94B804299880910601E8
:10318000909107010E94B804299A809106019091BC
:1031900007010E94B80429988091060190910701C7
:1031A0009C01A29EC001A39E900D11248AC0809113
:1031B0000801909109010E94B804299880910801A2
:1031C000909109019C01220F331F820F931F0E94CF
:1031D000B804299A80910801909109010E94B804CD
:1031E000299880910801909109019C01220F331FB9
:1031F000820F931F66C0813329F5013291F48091CB
:103200000601909107010E94B80429988091060157
:1032100090910701FC01AE9EC001AF9E900D11245C
:103220001EC080910801909109019C01220F331F5B
:10323000820F931F0E94B8042998809108019091F1
:1032400009012CC00132D1F480910601909107014F
:103250000E94B804299880910601909107010E946C
:10326000B804299A80910601909107010E94B80440
:103270002998809106019091070123C0809108014F
:10328000909109010E94B8042998809108019091B9
:1032900009019C01220F331F820F931F0E94B80463
:1032A000299A80910801909109019C01220F331FF6
:1032B000820F931F0E94B804299880910801909171
:1032C00009010E94B8041F5F46CF299A0132A1F478
:1032D00080910601909107010E94B804299880917D
:1032E0000601909107019C01829EC001839E900D72
:1032F00011240E94B80410C0809108019091090126
:103300000E94B80429981FE1809108019091090159
:103310000E94B8041150C1F7C394F9CE80914402C1
:10332000882341F08091950381110FC086E30E94AC
:10333000E80219C080914302882351F010924302A1
:103340000E941E0A81E0809391010E945C030BC0E1
:1033500080914202882329F0109242020E949C0B25
:1033600002C00E945A0F119889E60E94220583E745
:103370000E94220511E010170CF08ECEFE01E10F25
:10338000F11D17FDFA958181803319F0813309F021
:1033900086E40E9422051F5FEECF8237B9F4809148
:1033A0009101882329F081E08093430210929101DA
:1033B00080919301882329F081E08093420210924A
:1033C0009301D9DD81E08093440253C0863651F5E4
:1033D0008A81803351F480E18093010180EB8093F6
:1033E000020181E78093030107C043E061E071E0DF
:1033F000CE0102960E94E50589E60E94220586E636
:103400000E9422058AE30E942205809101010E9408
:10341000E105809102010E94E105809103010E9473
:10342000E1053ACE883729F580914302882341F09F
:10343000109243020E941E0A81E08093910111C004
:1034400080914202882329F0109242020E949C0B34
:103450000EC082E090E00E94EC02809195038823E8
:1034600019F00E945C0303C086E30E94E8021092F8
:103470004402DF91CF911F910F91FF90EF90CF9079
:10348000AF909F908F907F906F900895A2E0B0E0F2
:10349000ECE4FAE10C946C277C01FC018181833718
:1034A00009F09DC1198287E090E00E94A0278C015D
:1034B00041E0BE016F5F7F4FC70102960E94E505A4
:1034C0008981F801808341E0BE016F5F7F4FC701B2
:1034D00004960E94E5052981207FF801218341E0BF
:1034E000BE016F5F7F4FC70106962A830E94E505E4
:1034F0008981F801828341E0BE016F5F7F4FC70180
:1035000008960E94E5058981F801838341E0BE01A8
:103510006F5F7F4FC7010A960E94E5058981F80118
:10352000868341E0BE016F5F7F4FC7010C960E940A
:10353000E5058981F801858341E0BE016F5F7F4F1A
:10354000C7010E960E94E5058981F801848380E019
:1035500090E02A814191342F32953F7034278327A0
:103560009F5F9730B9F78F70822BF801818387E0D6
:1035700090E00E94A0275C0187E0F801D50101904E
:103580000D928A95E1F7D8011196C8010696F801C7
:103590003D91219123272083E817F907C9F7119A54
:1035A00080914702811160C080919101882329F0A8
:1035B00081E08093460210929101809193018823CB
:1035C00029F081E08093450210929301E898249AB3
:1035D0002C9A8EE190E00E94B8042C988EE190E045
:1035E0000E94B8042C9A8DE290E00E94B80480E317
:1035F0000E94E80284E690E00E94B8042C9880E4DF
:103600000E943F0266E7E62E62E0F62EF701849103
:103610000E943F02FFEFEF1AFF0A2FE9E21622E0B5
:10362000F206A1F72C9A2C988EE70E943F028BE2BB
:1036300090E07C01EFEFEE1AFE0A0E9445060E9420
:103640003F02F3E3EF16F10411F0C701F2CF2C9A19
:1036500083E30E94E80281E00E94BD0481E0809340
:103660008C0383E00E94BD0486E30E94E8028AE3A3
:103670000E94E8028BE30E94E8020E944A03299A12
:1036800087EC94E20E94B804299889E50E94BD0461
:1036900085E392E00E94B804712C80910E0190E0C5
:1036A000272D332727FD3095281739070CF057C0F1
:1036B000711002C022E001C027E0F12C299A86EFA8
:1036C00099E02A830E94B804299886EF99E00E9425
:1036D000B804F3942A81F2168CF3299A8CEF92E1C4
:1036E0000E94B804299880910A0190910B010E94D0
:1036F000B8046801612CF60181906F0148E0542EF6
:1037000050E8E52EF12C912CC70188219921892BB5
:1037100049F4299A80910A0190910B010E94B80402
:10372000299808C0299880910A0190910B010E9464
:10373000B804299A80910A0190910B010E94B80463
:10374000F694E7945A9401F76394F7E06F12D3CF9D
:10375000299880E090E00E94B80473949ECF8091F5
:103760004702882341F08091950381110FC086E3C1
:103770000E94E80219C080914602882351F01092FD
:1037800046020E941E0A81E0809391010E945C0320
:103790000BC080914502882329F0109245020E94B7
:1037A0009C0B02C00E945A0F119889E50E942205C5
:1037B00083E70E9422057501D12CF70181917F01D9
:1037C0000E94E105D394F7E0DF12F7CF0E946D0568
:1037D000C5010E943828C8010E9438286FC082376E
:1037E000A9F46EE071E0C70102960E94120689E515
:1037F0000E94220582E70E9422058AE30E94220598
:1038000080910E0140E260E090E02CC0843779F5B1
:10381000F7018281803339F488ED94E090930D01B3
:1038200080930C0106C06CE071E0C70102960E9413
:10383000120680910C0190910D01969587959093B9
:103840000B0180930A0189E50E94220584E70E940A
:1038500022058AE30E94220540E266E080910C0185
:1038600090910D010E9471050E946D0527C0883757
:1038700029F580914602882341F0109246020E9469
:103880001E0A81E08093910111C080914502882336
:1038900029F0109245020E949C0B0EC082E090E03D
:1038A0000E94EC0280919503882319F00E945C032A
:1038B00003C086E30E94E802109247022296EFE0DE
:1038C0000C948827109248041092030383E080939D
:1038D0004D028FEF80935D040895EEE4F2E02081C5
:1038E000211105C0892BB1F080E090E00895B2E08D
:1038F000EC3FFB07B8F7009751F04181DC013C91A8
:10390000431305C0428111963C91431751F0E20FD9
:10391000F11DE5CF32E0EC3FF30719F010F0ECEFCA
:10392000F2E0CF01089594E0899FF0011124E25A5A
:10393000FB4F80818F3F91F080934802818180937B
:103940004902828180934A02838180934B0221E065
:103950004CE064E088E492E00C946A0808958DEFEE
:1039600092E0BBDF009799F020914D02FC0130817D
:10397000231768F4E20FF11D80818093FF0289E72D
:103980008093000381818093010381E0089580E0AA
:103990000895EF92FF921F93CF93DF931F92CDB7BD
:1039A000DEB7182F8091950386FF18C084E59983B0
:1039B0000E942205E12E9981F92E15E0F7018191EF
:1039C0007F010E94E1051150C9F78091950385FFA1
:1039D00003C08AEF0E94E1050E946D050F90DF9100
:1039E000CF911F91FF90EF90089586E30E94E80227
:1039F0008091FF02833511F48BE901C08BE40E94B2
:103A0000BD0421E04CE065E08DEF92E00E946A0881
:103A10000E945C038DEF92E0BCCFE7DF8091FF0254
:103A2000893631F081E08093FC0289E280935D0465
:103A30000895CF9385E390E00E94450680932E047D
:103A400086E390E00E94450680935C04CFEFC0932C
:103A50004C04C0934E04C0935004C0935204C093CE
:103A60005404C0935604C0935804C0935A042ADFE8
:103A700010924E0281E080932D04C0935E048FEF7C
:103A80009FEF90933104809330041092330410928E
:103A900032041092350410923404C093620490935F
:103AA000370480933604109239041092380410922F
:103AB0003B0410923A04C093660490933D048093B3
:103AC0003C0410923F0410923E0410924104109264
:103AD0004004C0936A04909343048093420410927C
:103AE0004504109244041092470410924604CF916A
:103AF0000895ACE0B0E0EFE7FDE10C9472276C01B3
:103B00008C010F5F1F4F45E0BE016F5F7F4FC80103
:103B10000E94E505843008F0F3C099819130A9F442
:103B2000833061F46A8185E390E00E9440066B81F6
:103B300086E390E00E9440067CDF06C280912E045E
:103B40000E94E10580915C049AC0923009F051C056
:103B5000813039F081E09A81913009F080E0F82ECF
:103B600002C0FF24F39480914E02811104C08FE9BA
:103B700092E00E9460050EE412E0F8018081882343
:103B800009F4BBC0F2E00C3F1F0708F0B6C032E0FA
:103B90000E34130719F080E20E942205F80181819A
:103BA0000E94E105F80182810E94E105FF20E1F019
:103BB0008AE30E94220593E0F80180819817A0F41F
:103BC000943038F090FF05C08CE29C870E9422055B
:103BD0009C85EE24E394E90EF801E90FF11D808144
:103BE0000E94E1059E2DE8CFF8018081080F111D8C
:103BF000C4CF933049F480E090E06FDE8E54924061
:103C00009EEA981B892F3BC0903171F50CE414E0BB
:103C10008DE4E82E84E0F82EC12CD12CF8018081AF
:103C20008F3FA1F0DD2019F080E20E9422058C2D4B
:103C30000E94E1058AE30E942205F80180810E942A
:103C4000E105F70180810E94E105D3940E5F1F4FCB
:103C5000C394F2E0EF0EF11C38E0C312DFCFD110B5
:103C60004CC08DEA92E047C0913161F480914A04E2
:103C700090914B046DE770E00E944227862F0E94CE
:103C8000E1053BC09231C9F51EE5E12E14E0F12EAD
:103C900001E614E0C12CD12CF70180818F3FF1F0B7
:103CA000DD2019F080E20E9422058C2D0E94E105A2
:103CB0008AE30E942205F70180810E94E105F80154
:103CC000329780810E94E105F801319780810E943E
:103CD000E105F80180810E94E105D394F4E0EF0E44
:103CE000F11CC3940C5F1F4F34E0C312D5CFD11029
:103CF00004C089EA92E00E9460050E946D0524C11B
:103D000044E0BE01695F7F4FC8010E94E5054F8115
:103D1000493608F477C07A85588569857C3009F082
:103D20004BC020E030E080E090E0F901E25AFB4F28
:103D3000708174131CC0A181A51319C0A281A613A0
:103D400016C02CE023839C01220F331F280F391F3C
:103D5000F901EE0FFF1FE05DFB4F11821082F901A8
:103D6000EE0FFF1FEE5CFB4F11821082CFC07F3F32
:103D7000D9F44083518362832CE023839C01220F7A
:103D8000331F280F391FF901EE0FFF1FE05DFB4FB6
:103D900011821082F901EE0FFF1FEE5CFB4F1182C2
:103DA000108210922D04B2C001962C5F3F4F20313B
:103DB000310509F0BACFC8C080E090E020E030E0E3
:103DC000FC01E25AFB4FA081A41315C0A181A513E9
:103DD00012C0A281A6130FC07383F901EE0FFF1F5B
:103DE000E20FF31FEE0FFF1FEE5CFB4F81E090E050
:103DF00091838083A9C02F5F3F4F04968031910546
:103E0000F9F6A2C0E98180912E04E817C0F190E094
:103E1000F0E09C01295F3F4F2E173F0784F13A8164
:103E200020915C0432132BC03C813F3231F442E0DC
:103E30006CE0C6010E94D70887C02D813C32B1F4E6
:103E40002093490481E090E090934B0480934A04CE
:103E50008091920390919303E4E02E9F800D911D39
:103E6000112490939303809392036EC0E81BF90B87
:103E7000EE0FF0E0E45BFB4F3083218365C080E010
:103E800090E02BDD7C01F80101900020E9F73197EB
:103E9000E01BF10BF695E795BB24B394BE0EC7016A
:103EA0008B0D911D8E5492408F3A91050CF048C0B5
:103EB000F701B1928F0121E0822F880F81502B15DD
:103EC000D8F441E0B801F601E80FF11DCF012C87CD
:103ED0000E94E5052C85233058F020FD09C0D8014B
:103EE00011978C91843621F4F801808180932F04FE
:103EF0002F5F0F5F1F4FE0CFFCEFEF16F2E0FF06E2
:103F000018F5F701E20FF11D10821EC022E04CE00F
:103F100064E0CE0107960E946A088FE08A8722E05B
:103F20004CE064E0CE0107960E946A0882E08A872E
:103F300022E04CE064E0CE0107960E946A0804C0CB
:103F400083EA92E00E9460052C96E9E0E7C70F93B0
:103F50001F93CF93DF9390912D0491114FC093E065
:103F6000899F80011124F801EE0FFF1FE05DFB4FD8
:103F700094E0899FD0011124A25ABB4F12969C91C4
:103F8000977040E850E0491B51099AEF949F9001C7
:103F9000959F300D112435952795359527953183BB
:103FA0002083E801CC0FDD1FCC5CDB4F28813981F9
:103FB0002F5F3F4F39832883000F111F0E5C1B4F6B
:103FC000F801408151814115510529F42430310512
:103FD000A9F4A9DC11C04130510539F4A4DC82E018
:103FE00090E0F8019183808309C04230510531F49B
:103FF0009ADCF8011182108219821882DF91CF9128
:104000001F910F910895A6E0B0E0E8E0F0E26DC7DF
:1040100020915C042A831B8280914904882341F00B
:10402000833019F487E791E00FC08DE790E00CC072
:10403000277030E02A513F4F4DE7429FC001439F18
:10404000900D11249595879590934B0480934A0485
:104050000DE414E0F12C7CE2E72EF8013197908119
:104060009F3FC1F080912E048F0D89838091490478
:10407000882311F0EC8203C09C83F80180818D833A
:1040800021E04CE065E0CE0101960E946A08CE0175
:1040900001967FDCF3940E5F1F4FF8E0FF12DDCF37
:1040A00080914904882341F0833019F41092490427
:1040B00003C08250809349042696E6E032C780917F
:1040C000FC02882351F091DC89E280935D048091A9
:1040D000FC0281508093FC020895F4CBFF920F9371
:1040E0001F93CF93DF93FC01F0800181C281D381C4
:1040F00014818FE580935D041092FC0280912E0460
:10410000811105C080915C04882309F4A9C08091C5
:10411000FD028F1104C08091FE02801729F0D2DBCE
:10412000F092FD020093FE02809148048F3F09F453
:1041300097C0C093FF02D093000310930103CC23D8
:10414000F1F081111CC080912E04181761F0143613
:1041500051F08DEA8C0F823010F0CD3739F48FEFAB
:10416000809348047DC0C43509F47AC08D2F807FC8
:10417000803609F075C0D067D093000357C0EFDBDD
:10418000811105C080914804882309F469C0809199
:104190000303811107C0E0914804F0E0EF54FD4FA4
:1041A000E49101C0E82FE33541F4C43531F4909136
:1041B00048049E5F9093480404C0EC1711F082DB22
:1041C0004FC0882369F080914D028E5F80934D022D
:1041D000C6DB81110EC0809148048E5F8093480435
:1041E00080914804E82FF0E0EE54FD4F14911F3FFA
:1041F00059F48091FF02809303038436B9F48091CF
:104200002F048093010312C01093FF0297E790934D
:10421000000390912E04909301038E5F80934804D5
:10422000109203038E3021F01123D1F0F6DB18C079
:104230008DEF92E052DBDC01009781F02C9130E0B1
:104240008CEF92E0821B930BA817B90730F4ED01B5
:10425000C20FD31F48814D93F7CF1C9233DBE4CFBD
:10426000CDB7DEB7E5E05EC6FF920F931F93CF9305
:10427000DF938C01EC0109900020E9F72197C81B1E
:10428000D90BFC018181823751F487E390E00E94D1
:10429000EC020E945C0381E080936E0427C08337A8
:1042A00019F5FC2E2C988FE70E943F028C2F82502C
:1042B0000E943F02E801229612E01F1528F489911E
:1042C0000E943F021F5FF9CF2C9A0E944A038AE3A3
:1042D0000E9499028F7729F084E690E00E94B8044A
:1042E000F6CF0E945C0302C010926E04CDB7DEB719
:1042F000E5E018C6A0E8B0E0EFE7F1E2F4C5809190
:104300006E04882309F454C0813011F580918E0326
:1043100090918F03A0919003B09191032091040399
:10432000281709F445C085E30E949902813129F4D8
:104330008AE30E94E8020E945C0380918E039091C0
:104340008F03A0919003B09191038093040330C038
:104350008FE30E949902D82E87FD27C02C988FEFFB
:104360000E943F028E010F5F1F4F7801C02E8E2DDD
:10437000801B8D1538F480E00E943F02F701819385
:104380007F01F5CF2C9A81E080938B01802F8C19CF
:104390008D1530F4F80181918F010E942205F6CF2E
:1043A0000E946D058FEF80938B0181E080936E04F6
:1043B000C058DF4FE8E0B3C52091EC083091ED081C
:1043C0002115310521F420911101309112018091C4
:1043D0000F0190911001009741F48DB79EB7409165
:1043E000130150911401841B950B2817390718F4F9
:1043F000821B930B089580E090E0089582E40E9470
:10440000220540E265E08091EC089091ED080E9461
:1044100071050E946D0583E50E94220540E265E07A
:1044200080911101909112010E9471050E946D0509
:1044300085E40E94220540E265E080910F019091A1
:1044400010010E9471050E946D0586E40E942205FC
:10445000B3DF40E265E00E9471050C946D051F9288
:104460000F920FB60F9211240BB60F922F933F931A
:104470004F935F936F937F938F939F93AF93BF936C
:10448000EF93FF9380917104882339F08FE694E0D5
:104490000E9474078093C60005C08091C1008F7D83
:1044A0008093C100FF91EF91BF91AF919F918F9148
:1044B0007F916F915F914F913F912F910F900BBE24
:1044C0000F900FBE0F901F9018951F920F920FB66E
:1044D0000F9211240BB60F922F933F934F935F933C
:1044E0006F937F938F939F93AF93BF93EF93FF93BC
:1044F00082B192E0892782B96091C6008091C000A4
:10450000887121F482EF94E00E945E07FF91EF91A1
:10451000BF91AF919F918F917F916F915F914F91DB
:104520003F912F910F900BBE0F900FBE0F901F90D9
:10453000189597FF04C022E02093C0009F779093C6
:10454000C5008093C40088E98093C10086E0809311
:10455000C20008958091C10085FD09C08091710459
:10456000882329F08091C10080628093C100089562
:10457000E0918A03F0918B0381E00995EBCF0F93D3
:104580001F93CF93DF93EC0110E0212F30E0F9016E
:10459000EE0FFF1FE20FF31FE457FF4F0491F901E5
:1045A000EE0FFF1FE20FF31FE357FF4F25913491EA
:1045B000002399F0209739F480E20E942205802F91
:1045C0000E94220508C08881801305C0CE01F90130
:1045D000099581E003C01F5FD8CF80E0DF91CF91C4
:1045E0001F910F910895CF93C0918B0180938B0100
:1045F0008091F4048823A1F182EF94E00E94740773
:10460000E09105038A3011F08D30F9F4EE2381F347
:10461000F0E0EA5FFC4F108286E093E0B0DF8111AA
:1046200011C087ED92E00E94600586E093E00E9451
:1046300055058FEB92E00E94600580E090E09FDFDF
:104640000E946D0510920503D3CFE7FDD1CF91E015
:104650009E0F90930503F0E0EA5FFC4F8083C8CF84
:10466000C0938B01CF910895E4E6F0E080818B7FC9
:1046700080832F9A84B1806B84B9269880E58CBDA5
:104680008DB581608DBD08958F929F92BF92CF921C
:10469000DF92EF92FF920F931F93CF93DF931F92BE
:1046A000CDB7DEB7D82EC62E7A0189012C988FEFB0
:1046B00099830E943F02BD2C8D2C9981992E882DC3
:1046C0008B198C1538F480E00E943F02F40181932D
:1046D0004F01F5CFE114F10469F080E00E943F0240
:1046E000F70180830115110529F080E00E943F0247
:1046F000F80180832C9A0F90DF91CF911F910F9139
:10470000FF90EF90DF90CF90BF909F908F90089593
:10471000CF93882331F01092A30686E30E94E8022B
:1047200007C085E30E9499028D30A9F780E039C067
:1047300085E30E949902C82F8130D1F78BE30E9454
:10474000E8028AE30E94E8021092980610929A0604
:104750001092990610929C0610929B0624EA36E06D
:1047600030939E0620939D0610929F06C093A0064C
:104770001092A106809187038093A20660E083E0F7
:104780000E94D60262E088E00E94D60284E30E9482
:10479000E80285E30E9499028D30D9F781E0809389
:1047A000A306CF9108951F93CF93DF93182F2198DD
:1047B000529810928703E898249A2C9A8EE190E000
:1047C0000E94B8042C988EE190E00E94B8042C9AC4
:1047D0008DE290E00E94B80480E30E94E80284E643
:1047E00090E00E94B804113031F0123009F036C068
:1047F000CBEED2E02EC0C8E3D3E0FE018491813439
:1048000080F01093870383E30E94E8028CE0E8E9DC
:10481000F6E0DF011D928A95E9F784E00E94BD046D
:104820001DC0FE0131966491FE0184910E94D60262
:104830002296F4E0C030DF0701F7E3CF31966491B0
:10484000FE0184910E94D6022296F3E0C33BDF076B
:10485000C1F2FE018491813488F3D3CFDF91CF91EF
:104860001F910895A4E0B0E0E7E3F4E241C3809132
:104870008703882309F405C18091A306813049F09C
:1048800030F0823061F0833009F473C0A3C081E05E
:10489000F7C04A9B9FC082E08093A3069BC0199BF0
:1048A00099C020E030E040E050E063E080919D0658
:1048B00090919E06E9DE2091A20680919D0690913E
:1048C0009E06213071F4BE016F5F7F4F04D18111CC
:1048D000D3C08981809398069DD1AC0160E081E0CE
:1048E0000EC040E0BE016F5F7F4F3AD18111C4C05E
:1048F0008981809398068ED1AC0160E080E0A0D1E0
:1049000090939A06809399066091990670919A0601
:10491000693482E0780708F0AFC086E06F3F710528
:1049200009F050F40E94D60260E088E00E94D602AE
:1049300081E080939F0602C00E94D60280919D066E
:1049400090919E06039690939E0680939D0680917B
:10495000990690919A06039790939C0680939B06E4
:104960001092A00683E08093A30667E00E94D6021F
:1049700031C0199B2FC080919B0690919C068F3F60
:10498000910509F058F480919F06811107C060E0FD
:1049900088E00E94D60281E080939F0620E030E00C
:1049A00040E050E06FE180919D0690919E066CDEA4
:1049B00080919B0690919C064F9790939C068093C4
:1049C0009B0680919D0690919E064F9690939E0621
:1049D00080939D064A9953C08091A306823008F4C3
:1049E0004EC01C821B829E012D5F3F4FAE014C5F6B
:1049F0005F4F60919B0680919D0690919E0644DEDC
:104A000081E08093A1068091A206813051F48091CB
:104A1000980600D1AC0165E775E084EA96E024D100
:104A200009C080919806F6D0AC0165E775E084EA8C
:104A300096E08DD1892B01F582E60E94220510E0D7
:104A400080917505E7D0212F30E02817390740F411
:104A5000F901EB58FA4F80810E94E1051F5FF0CF0A
:104A60008091950385FF06C08B810E94E1058C81B2
:104A70000E94E1050E946D051092A30602C080E02D
:104A800047DE2496E3E050C2FC012181223771F415
:104A90008281882369F0833711F481E003C0843771
:104AA00019F482E080DE04C080E0FCCF233791F06F
:104AB00080918703813029F0823031F48FED92E0CC
:104AC00005C085EE92E002C08BED92E00E94600589
:104AD0000C946D050895CF93DF93EC01A881E981D3
:104AE000CA2FC295CF70D0E0CB5EDE4F4881AF7049
:104AF000B0E0AB5EBE4F2C91AE2FA295AF70B0E090
:104B0000AB5EBE4F8C91EF70F0E0EB5EFE4F90819C
:104B100051E02F3F09F050E031E04F3F09F030E025
:104B2000532B31E08F3F09F030E0352BA9F49F3F44
:104B300099F0D0E44D9FA0011124E0E12E9F900157
:104B40001124242B292BF4E08F9FC0011124282B42
:104B5000EB01288380E001C081E0DF91CF910895CF
:104B6000DC0111969C911197411118C012968C91FD
:104B70001297E82FEF73F0E0EB5CFE4F5081E92FC6
:104B8000EF7024E0E29FF0011124829586958695CE
:104B90008370E82BEB5CFE4F808102C080E050E028
:104BA0002C91E22FE37030E1E39FF0011124929504
:104BB0009F70E92BEB5CFE4F908126952695E22FA6
:104BC000F0E0EB5CFE4F2081E1E09F3F09F0E0E088
:104BD00031E02F3F09F030E0E32B31E05F3F09F097
:104BE00030E03E2B99F48F3F89F0E0E12E9F900159
:104BF0001124292BFB01208341110AC0F0E18F9F72
:104C0000C0011124852BFB01818302C081E008953E
:104C100080E00895482F50E08A3150F09A012A51DF
:104C2000310984E0359527958A95E1F72D5F01C01C
:104C300022E0CA010196820F911D820F911D0895F5
:104C4000882331F0CA0161110196880F991F0895D8
:104C5000CA01880F991F840F951F9695879561113A
:104C600001C040FD01960895A0E0B0E0E9E3F6E25E
:104C700032C14C01EB016A01A12CB12C00E010E023
:104C8000612C712CE12CF12CA2E14A2E512CC11483
:104C9000D10409F450C0BE01C4011DDF81114EC012
:104CA00082E0C816D10499F08AE0E816F10458F0C1
:104CB000C7010A97B201E6D031E020E0892B09F064
:104CC00030E0032F122FA114B10499F005C0A114F4
:104CD000B10491F001E010E0609470947724888131
:104CE00090E06816790669F5A12CB12C612C712C25
:104CF00017C00115110581F0930120953095232FE0
:104D00003327888190E028173907D9F4AA24A3947F
:104D1000B12C00E010E004C06881C3019DD03C01CB
:104D200081E0C81AD1088FEFE81AF80A82E0880EED
:104D3000911C2196ACCF80E090E005C081E090E02E
:104D400002C082E090E0CDB7DEB7E0E1E0C0A0E0D5
:104D5000B0E0ECEAF6E2C1C07C01EB013A0100E010
:104D600010E0C12CD12C92E1892E912C6114710498
:104D700009F46CC081E068167104D1F441E0BE0111
:104D8000C701EEDE882319F081E090E061C0560192
:104D90008FEFA81AB80AC8018095909599272881A5
:104DA00030E08217930709F44DC082E090E050C0D4
:104DB00040E0BE01C701D4DE8111E6CF82E0681A6F
:104DC0007108560182E0A80EB11C6114710451F003
:104DD0008BE0A816B104C8F0C6010A97B40152D0FE
:104DE000892B99F40095109598013327898190E0DB
:104DF00028173907D1F6012F1127888190E008176D
:104E0000190799F600E010E018C0688181E0681683
:104E1000710471F4C80120D08C019C01209530955B
:104E2000232F3327898190E02817390731F0BDCF30
:104E3000C80112D0698110D08C0183E0E80EF11C0A
:104E4000229602C0612C712C650190CF80E090E029
:104E5000CDB7DEB7EEE05DC078E0AC014427507816
:104E6000452F5527262F207830E0880F991F4217AD
:104E7000530721F025E682272DE39227660F715014
:104E800061F70895AA1BBB1B51E107C0AA1FBB1FF6
:104E9000A617B70710F0A61BB70B881F991F5A95C6
:104EA000A9F780959095BC01CD01089597FB072E39
:104EB00016F4009406D077FD08D0E4DF07FC05D097
:104EC0003EF4909581959F4F0895709561957F4F21
:104ED00008952F923F924F925F926F927F928F929E
:104EE0009F92AF92BF92CF92DF92EF92FF920F9379
:104EF0001F93CF93DF93CDB7DEB7CA1BDB0B0FB683
:104F0000F894DEBF0FBECDBF09942A88398848883F
:104F10005F846E847D848C849B84AA84B984C884D5
:104F2000DF80EE80FD800C811B81AA81B981CE0FCC
:104F3000D11D0FB6F894DEBF0FBECDBFED010895B1
:104F4000CF93DF938230910510F482E090E0E091FE
:104F5000EE08F091EF0820E030E0A0E0B0E03097FC
:104F600039F14081518148175907B8F0481759075E
:104F700071F482819381109729F013969C938E93FC
:104F800012972CC09093EF088093EE0827C021154C
:104F9000310531F04217530718F0A901DB0101C0B8
:104FA000EF019A01BD01DF010280F381E02DD7CF2F
:104FB00021153105F9F0281B390B2430310580F417
:104FC0008A819B816115710521F0FB0193838283A6
:104FD00004C09093EF088093EE08FE01329644C01F
:104FE000FE01E20FF31F819391932250310939831F
:104FF00028833AC02091EC083091ED08232B41F42E
:1050000020911101309112013093ED082093EC08AA
:1050100020910F01309110012115310541F42DB778
:105020003EB74091130150911401241B350BE091C0
:10503000EC08F091ED08E217F307A0F42E1B3F0BEC
:105040002817390778F0AC014E5F5F4F24173507FA
:1050500048F04E0F5F1F5093ED084093EC0881938A
:10506000919302C0E0E0F0E0CF01DF91CF9108958D
:10507000CF93DF93009709F487C0FC013297138226
:105080001282C091EE08D091EF08209781F4208120
:105090003181280F391F8091EC089091ED0882171B
:1050A000930779F5F093ED08E093EC086DC0DE010D
:1050B00020E030E0AE17BF0750F412964D915C919E
:1050C00013979D014115510509F1DA01F3CFB3831F
:1050D000A28340815181840F951F8A179B0771F429
:1050E0008D919C911197840F951F029691838083D7
:1050F00012968D919C91139793838283211531058C
:1051000029F4F093EF08E093EE083EC0D90113961E
:10511000FC93EE9312974D915D91A40FB51FEA1782
:10512000FB0779F480819181840F951F0296D90144
:1051300011969C938E938281938113969C938E9368
:105140001297E0E0F0E08A819B81009719F0FE0160
:10515000EC01F9CFCE01029628813981820F931F8D
:105160002091EC083091ED082817390769F4309741
:1051700029F41092EF081092EE0802C013821282F6
:10518000D093ED08C093EC08DF91CF910895F99981
:10519000FECF92BD81BDF89A992780B50895262F3C
:1051A000F999FECF1FBA92BD81BD20BD0FB6F8940C
:0E51B000FA9AF99A0FBE01960895F894FFCF6F
:1051BE000210B07106000401A4016C02D8040600AE
:1051CE0000F0082000FFFFFFFFFF0302FFFF0100BA
:1051DE00FFFFFFFFFFAAA9A6A59A9996956A696691
:1051EE00655A595655FFFFFFFFFFFFFFFFFFFFFFF9
:1051FE0003FF0102FFFFFFFF07FFFF00FFFF050692
:10520E00FF04FFFFFFFFFFFF0BFF090AFFFF0FFF6A
:10521E00FF08FFFFFFFF0D0EFF0CFFFFFFFFFFFF5D
:10522E00FFFFFFFFFF160D0E0B1C191A132C252660
:08523E00233431322932310022
:00000001FF
