:10000000C9C10000E5C10000E3C100000C94F71372
:10001000DFC10000DDC10000DBC10000D9C100006C
:10002000D7C10000D5C10000D3C10000D1C100007C
:10003000CFC100000C949013CBC10000C9C10000D7
:10004000D4C30000C5C10000C3C10000C1C100008D
:100050000C9480220C944A22BBC10000B9C100005C
:10006000B7C10000B5C10000B3C10000B1C10000BC
:100070000C946823ADC10000ABC10000A9C1000011
:10008000A7C10000A5C10000A3C100006D19224254
:100090001A0762E02543CA02461F09693518412044
:1000A0000B5A6C0D4722094D5A0959601A5288069D
:1000B00054931D567F0757C80658FE0E653F0766C6
:1000C0004F212AB2236C0907745904758216785D92
:1000D00003000000202F2000203D2000072E050DEA
:1000E000D391FF080500000C0021656A2D3B132207
:1000F000F862073F181D1CC700B0876BF8B611EAFD
:100100002A001F41000D2E2D07D3913D043200001F
:10011000060021656A55E43023B900070018146C05
:10012000070090876BF85611E92A001F4100000371
:100130000F1E2627000000030F1E25363867000318
:100140000F256740605000030F275188838100030B
:100150000F2750C8C3C2002700000000000000673E
:1001600000000000000000500000000000000081BE
:1001700000000000000000C2000000000000504C21
:100180004C310D0A00504C4C300D0A005620312ED7
:1001900036332043534D383638005620312E36330F
:1001A0002043534D34333300202F2000203D2000C6
:1001B0004C4F56460D0A000B08105B11F8154719F5
:1001C0001D1A1C1BC71C001DB221B623EA00070222
:1001D0002E030D04E905CA070C0B060D210E650F51
:1001E0006A10C81193120315341733181819161B07
:1001F0004321562500261129592C812D353EC34C0B
:10020000454E4552520D0A004C4F56460D0A004CC1
:10021000454E4552520D0A000007024604C6052607
:100220000B0610C81193120313221534173F182818
:1002300019161B432156250026110D210E650F6A44
:10024000070C160720F81E871F6B29592C812D35A6
:100250003EC3FF00424F56460D0A000D2E2D07D318
:10026000913D04320000060010B07155E43023B90E
:1002700000070018146C070090876BF85611E92AE4
:10028000001F41000D2E2D07D3913D0432000006C2
:100290000010ABA5550A3023B900070018146C07ED
:1002A0000090876BF85611E92A001F41004E2F413C
:1002B00000454F420D0A004E2F41004E2F410000D5
:1002C000535300547D7DFFFF4B4B7E7E00206973AE
:1002D00020756E6B6E6F776E2920557365206F6E7B
:1002E00065206F66003F2028004F464600544D4F62
:1002F000444500534D4F4445000454053D1700004C
:100300000602000B080C000D210E6B0FD0105C11C3
:10031000041206132214F80A00154421B6221018FC
:1003200018192E1ABF1B431C091DB523EA242A25C0
:1003300000261F29592C812D352E09070408000994
:100340000006FF3EC2FF0476059617000006020075
:100350000B080C000D210E650F6A106A114A120677
:10036000132214F80A00154721B622101818192E66
:100370001A6D1B041C091DB223EA242A2500261F1E
:1003800029592C812D352E0907040800090006FF84
:100390003EC2FF0011241FBECFEFD0E4DEBFCDBFB1
:1003A00011E0A0E0B1E0E6EFF2E500E00BBF02C033
:1003B00007900D92A838B107D9F729E0A8E8B1E075
:1003C00001C01D92A23FB207E1F703D00C94792936
:1003D00017CE88E10FB6F894809360001092600009
:1003E0000FBE3E9A469A179A169A0E94D02374D549
:1003F00089EF87BD84E085BD82E084BD80936E0077
:10040000109280008AE08093810090E080E80FB62F
:10041000F89480936100909361000FBE84B7877F4A
:1004200084BF2FE088E190E00FB6F894A895809300
:1004300060000FBE2093600089E190E80E94B42222
:100440000E94512387B18C7F87B988B18C7F88B98E
:100450000E94331D0E94D80E8EE093E290938D048B
:1004600080938C0481E080938B010E94A61580917B
:100470008B01886080938B01469878940E94D322E8
:100480000E9403112CD20E9495210E942417C2D7EA
:100490000E94FA0C0E949E230E94CE24EFCF8EBDB4
:1004A0000DB407FEFDCF8EB50895A1E0B0E0EBE5F9
:1004B000F2E00C941128482F8A3008F048E088E0D8
:1004C000489F70011124F701E25DFE4F7F018BE22E
:1004D00090E0F70164918C010F5F1F4F4983FAD3BD
:1004E000FFEFEF1AFF0A49810333110511F0C8012C
:1004F000F0CF4550453010F461E101C067E184E27E
:1005000090E0E8D32196E6E00C942D28CF93DF937A
:1005100082E090E0FC01ED5FFE4F6491EC012196DA
:10052000D9D3CB32D10511F0CE01F4CF87E390E0DF
:10053000FC01EB55FF4F6491EC012196CBD3C03603
:10054000D10511F0CE01F4CF079918C060E18FE01A
:1005500090E0C0D360EB80E190E0BCD361E781E143
:1005600090E0B8D360E184E490E0B4D360EB85E43C
:1005700090E0B0D361E786E490E0ACD388E095DF0B
:10058000DF91CF9108952C98806C89DF80E087DF20
:100590002C9A0895A1E0B0E0E0EDF2E00C9414286C
:1005A00041E0BE016F5F7F4F019639D3892B21F166
:1005B0008981893969F410E0812FE5DF2CD3812FFF
:1005C0008770873009F4B3D21F5F1033A9F714C0C6
:1005D000DADF182F83E460D289811DD388ED90E0A3
:1005E00099D2812F18D384ED90E094D240E262E05A
:1005F000812F90E0A0D29BD22196E3E00C9430288A
:10060000A1E0B0E0E6E0F3E00C9415282C988064BB
:10061000698345DF6981862F42DF2C9A2196E2E0CB
:100620000C9431282C983BDF2C9A0895EF92FF927E
:100630000F931F93CF93DF93EC0110929301EA98ED
:10064000249A2C9A8EE190E0BDD12C988EE190E016
:10065000B9D12C9A8DE290E0B5D180E3E3DF84E656
:1006600090E0B0D12C9880E41ADF7E0189E2E80E98
:10067000F11C8E010F5F1F4FCE0131D310DF0E151D
:100680001F0511F0E801F5CF2C9A2C988EE707DFB3
:100690008BE290E0EC01219622D301DFC333D10538
:1006A00011F0CE01F7CF2C9A83E3BCDF81E08FD12C
:1006B000CDB7DEB7E6E00C942D28A1E0B0E0E3E68C
:1006C000F3E00C94152822E0298341E0BE016F5F1E
:1006D0007F4F0196A4D28981E8DE82E090E0A6DF18
:1006E0002196E2E00C943128CF93EA9886E39ADFD2
:1006F000CFEF85E397DFC1508077803229F08AE021
:1007000090E060D1C111F5CFCF910895CF93CFEF95
:1007100084E388DFC1508077803129F08AE090E05F
:1007200051D1C111F5CFEA9ACF91089586E37ADFCE
:1007300010928E041092910110929301089582E01C
:1007400090E074DF81E080938E041092910110920A
:10075000930108950F931F93CF93DF93082F10E019
:10076000C62FD0E085E30FDF801731F0CE012AD10C
:100770001150C1F781E001C080E0DF91CF911F915E
:100780000F91089585E2FFDE8F3311F080E0089528
:1007900086E348DF80918801811104C085E891E0FB
:1007A000B9D102C08DE33EDF83E33CDF64E081E04A
:1007B000D1DF85E2E8DE8F3349F78091880181112E
:1007C00003C08EE791E0A6D181E0089585E3DBDEEA
:1007D0008D3051F485E2D7DE8F3331F4D3DF84E3FB
:1007E00021DF80778031D9F708951F920F920FB6DD
:1007F0000F9211240BB60F928F939F93AF93BF93D9
:10080000EF93FF938091900490919104A0919204B2
:10081000B09193040196A11DB11D80939004909313
:100820009104A0939204B093930480918F048F5FFE
:1008300080938F04E2E3F5E0808191811816190618
:100840001CF4019791838083369685E0EA34F8079B
:1008500099F780914C0590914D05009729F00197EB
:1008600090934D0580934C0580915F058F3F19F063
:10087000815080935F05FF91EF91BF91AF919F9160
:100880008F910F900BBE0F900FBE0F901F90189579
:100890002FB7F89440919004509191046091920484
:1008A00070919304FC0140835183628373832FBF53
:1008B0000895A4E0B0E0EFE5F4E00C941528CE0133
:1008C0000196E6DF8C81A7D18B81A5D18A81A3D146
:1008D0008981A1D12CD12496E2E00C9431281F9378
:1008E000CF93DF938091900490919104A091920412
:1008F000B091930420918A01281709F45FC0809178
:10090000900490919104A0919204B09193048093EB
:100910008A01A895C2E3D5E010E028813981232B14
:1009200019F4812F0E94C21F1F5F26961430A9F769
:1009300080914C0590914D05892B11F40E941E2049
:1009400080915F05811102C00E947A208091230569
:10095000882339F0815080932305811102C00E94C1
:10096000B91780918F048D3748F110928F048091D0
:10097000000181FF04C088B190E4892788B9809183
:10098000940490919504843823E0920728F401960A
:100990009093950480939404809189018F5F809354
:1009A00089018C3359F410928901809131058F5F50
:1009B000809331058C3310F010923105DF91CF9187
:1009C0001F910895880F991F0197F1F7089520ED61
:1009D00037E0815020F0F9013197F1F7FACF08950F
:1009E000CF93DF93DC0113968C911397843509F034
:1009F00050C0CD010396CC91FD0170964DE04C178F
:100A000050F050E0D0E09E012F50310942175307BB
:100A100009F03FC005C021912B3399F34F5FEFCF11
:100A2000FE013E97E80FF91F2081243591F51496B9
:100A30003C911497218132132CC015963C91159747
:100A40002281321326C016963C91169723813213C9
:100A500020C017963C911797248132131AC06197D2
:100A6000C80FD91F858188838681898381858A8380
:100A700082858B8383858C8384858D8385858E8316
:100A80008C918A508C9312968C9112978A50129660
:100A90008C93DF91CF910895CF93C82F80918B01D4
:100AA00080FF0EC0809173058E3730F087FD08C03F
:100AB000CD3011F0CA3021F46C2F81E795E02DD2B2
:100AC00080912E058823C9F080918B0183FF15C08A
:100AD000CA3099F0CD3011F46BE301C06C2F8EE970
:100AE00094E01BD2CD3019F48EE994E079DF83E0F5
:100AF0008093230582E080932905CF910895CF93B9
:100B0000DF93EC018991882311F0C6DFFBCFDF91E1
:100B1000CF910895CF93DF93EC01FE018491882358
:100B200019F0BADF2196F9CFDF91CF9108958DE0CA
:100B3000B3DF8AE0B1CFA6E0B0E0E1EAF5E00C94E3
:100B40001328062F1E8215E02AE030E01150E1E064
:100B5000F0E0EC0FFD1FE10FF11DB9010E94DE274F
:100B6000805D8083CB010150009769F01111EECFB9
:100B70000AC0112359F01150E1E0F0E0EC0FFD1F25
:100B8000E10FF11D4083015007FFF3CF81E090E0BA
:100B90008C0F9D1F810F911DB2DF2696E4E00C940F
:100BA0002F28A5E0B0E0E7EDF5E00C9415281D82B4
:100BB00024E0382F3F702150E22FF0E03A3010F45B
:100BC000305D01C0395CA1E0B0E0AC0FBD1FEA0FA1
:100BD000FB1F308334E0969587953A95E1F7615095
:100BE000009739F7615067FD0BC0222349F021506F
:100BF000E1E0F0E0EC0FFD1FE20FF11D4083F2CFCA
:100C000081E090E08C0F9D1F820F911D78DF25966B
:100C1000E2E00C94312840E362E090E0C2CFDC01D6
:100C2000FB0130E090E08D918823A9F0813608F037
:100C3000805220ED280F2A3030F02FEB280F26307D
:100C400030F429EC280F292B332379F006C08032A9
:100C500051F38A3341F3CF0105C0CF0101962083C0
:100C6000415041F4861B970B0895922F9295907FE7
:100C700031E0D9CFFC01D5CF20E030E05AE0FC01D3
:100C80004191CF01442379F0E0EDE40FEA30B8F769
:100C9000F9015E9F90015F9F300D112420533109AF
:100CA000240F311DECCFFB01318320830895982F51
:100CB00092959F709A3010F4905D01C0995CFB0191
:100CC00090838F708A3010F4805D01C0895CFB01D5
:100CD000818308950E946B29F999FECF08950C94A1
:100CE000632908951F93CF93DF93162F11501F3F51
:100CF00059F0EC012196F3DF8EDF112311F08AE326
:100D0000CBDE1150CE01F3CFDF91CF911F9108952B
:100D1000A2E0B0E0EEE8F6E00C941228FC0121819C
:100D20002D3421F466E08AEF9FE005C0203529F4D8
:100D300060E18AED9FE0D6DF26C01A82198242E088
:100D4000BE016F5F7F4F01966ADF098110E082303C
:100D500021F4102F00278A81082BC801C0DFF82E4C
:100D600082E59ADE40E364E0C8011BDF8CEA91E093
:100D7000D1DE8F2D50DF88EA91E0CCDE40E262E0E8
:100D80008F2D90E0D8DED3DE2296E5E00C942E285D
:100D9000A6E0B0E0EEECF6E00C940F286C0143E026
:100DA000BE016F5F7F4F01963ADF823070F1E980BC
:100DB000F12C823021F0FE2CEE242A81E22A8C01D3
:100DC0001127FE01E00FF11F6081C70183DF000FD3
:100DD000111F0F5F1F4F0C0D1D1D8FEFE81AF80A32
:100DE000F8018081882389F041E0BE016F5F7F4F69
:100DF000C80115DF892B49F06981C7016BDF0E5FE0
:100E00001F4FE2E0EE0EF11CEBCF2696E8E00C94CB
:100E10002B2841E060E071E0019601DF8091000144
:100E200080FF02C0469A01C046986091000184E3A9
:100E300090E050CFA1E0B0E0E0E2F7E00C9415289C
:100E40001982009731F041E0BE016F5F7F4F01963C
:100E5000E6DE8981882321F061E083E390E03ADFD8
:100E600010926E00F89428E088E190E00FB6F894B4
:100E7000A895809360000FBE20936000FFCFCF93B2
:100E8000DF93EC0161E080E090E024DF6FE381E03C
:100E900090E020DF3BDB60E080E690E01BDF60E07D
:100EA00081E690E017DF60E083E390E013DF62E02B
:100EB00084E390E00FDF60E080E690E00BDF60E02D
:100EC00081E690E007DF8981883719F080E090E0C3
:100ED000B1DFDF91CF91089580E090E000DF8130B5
:100EE00029F481E090E0FBDE8F3319F080E090E0A0
:100EF000C6DF84E390E0F3DE809300010895079954
:100F000003C08AE991E002C08CE891E003DE0FCED5
:100F1000FC011282108211820895FC018FB7F894AF
:100F2000928197FD0EC09F5F9283208191E0920F86
:100F30009083DF01A20FB11D13966C93903809F4D2
:100F400010828FBF0895FC019FB7F8948281882397
:100F500071F081508283818121E0280F2183DF019C
:100F6000A80FB11D13968C91203809F411829FBFF0
:100F70000895FA013081882369F0E1E0F0E0022E63
:100F800001C0EE0F0A94EAF7DB01A30FB11D9C919B
:100F90009E2B9C93222319F08FEF820F0BC081E0D0
:100FA000830F8C3010F4FA018083FB01E80FF11DF0
:100FB000108287E090E00895CF93C82F299A882364
:100FC00019F080918E0102C08091900120E1829FF2
:100FD000C0011124F7DC2998CC2319F080918D01F0
:100FE00002C080918F0120E1829FC0011124EADCC0
:100FF000CF910895A3E0B0E0E0E0F8E00C9405287C
:101000005C01162F622E842F90E09B838A832091AF
:101010009404309195040296089F802D11249927FD
:1010200087FD90952817390720F480EB91E072DD59
:101030007CC0281B390B3093950420939404469A66
:1010400080919301882341F01092930185E891E00B
:10105000D5D6FF24F39401C0F12C80918E04811128
:1010600001C06DDB41DB812E912CCC24C394D12CAB
:10107000712C512C852D992787FD90958815990500
:1010800024F480E099DF5394F5CF112311F081E02F
:1010900093DF20E0422E552447FC5094EA81FB81E7
:1010A0004E165F062CF097E0392E4A0C5B1C1AC0D6
:1010B00087E0282E312C4A0C5B1CC601022C01C093
:1010C000880F0A94EAF7F20190818923298374DF5B
:1010D000F1E02F1A310829818FEF2816380669F7B9
:1010E0002F5FD8CF832D992787FD909568167906B5
:1010F00064F4C601032C01C0880F0A94EAF7F201D8
:101100009081892359DF3A94EDCF8E2D60DC015018
:1011100009F0AFCF80919704882311F0F7DA02C06D
:1011200086E380DAF110A4D246982396E2E10C948B
:101130002128ADE0B0E0EFE9F8E00C9408287C014C
:10114000162F842F022F6701C60ED11C462FB70120
:101150006ED6D6018C931F5F1D8619825E2C6701A7
:1011600027E066246394712C8C2D8519811788F5EE
:1011700047E0A42EB12C4701880E911CF3010A2CE4
:1011800001C0EE0F0A94EAF7D4018C91AE01435FDF
:101190005F4FBE016F5F7F4F8E23EBDE282FB1E0E4
:1011A000AB1AB10858F7D6018D916D01082E8295C2
:1011B0008025082E8695869580258F5F869581707F
:1011C000AE01435F5F4FBE016F5F7F4FD2DE282FBE
:1011D000CBCF222311F0215004C08D858F5F8D87E6
:1011E00027E089E180938F018093900185E28093CD
:1011F0008D0180938E013AE0E32E4D856CE0CE01A7
:101200000196F8DE2D96EFE00C942428ADE0B0E0D6
:10121000ECE0F9E00C941428162F242F4BE0BE01CB
:101220006F5F7F4F01962D87FADC2D85412F682F48
:10123000CE0101967EDF2D96E3E00C94302843E04A
:1012400066E0E4CFEF920F93CF93DF93CDB7DEB795
:1012500060970FB6F894DEBF0FBECDBF40E1BE0170
:101260006F5F7F4F0196DBDC69814A810B818C8146
:10127000809390018D8180938F018E8180938E0168
:101280008F8180938D01E02EE2947FE0E7220F7042
:10129000242F2F7042954F70CE010896ABDE6096DA
:1012A0000FB6F894DEBF0FBECDBFDF91CF910F9187
:1012B000EF900895A9E1B0E0E0E6F9E00C940D2884
:1012C0004BE0BE016F5F7F4F0196A9DC182F89307C
:1012D00009F05AC099E190938F01909390019093F7
:1012E0008E0182E380938D0169E0CE010196A9D53C
:1012F000E1E0F0E0EC0FFD1FE10FF11D8083198E9E
:101300001D86CE0101967C016E019BE0C90ED11CA9
:1013100027E0AA24A394B12CEC14FD0429F100E0E9
:1013200010E0F501002E01C0EE0F0A94EAF7D70194
:101330008C91AE01475E5F4FBE01635F7F4F8E238E
:1013400018DE282F0F5F1F4F0830110551F7AE012F
:10135000475E5F4FBE01635F7F4F81E00ADE282F4B
:10136000BFEFEB1AFB0AD8CF222311F0215004C0A3
:10137000898D8F5F898F27E0EAE0EE2E03E0498DAB
:101380006CE0CE010D9636DE6996EAE00C942928D1
:10139000CF93DF93EA98249A2C9A8EE190E012DBA7
:1013A0002C988EE190E00EDB2C9A8DE290E00ADB27
:1013B00080E338D984E690E005DBCDECD1E0FE0196
:1013C00031966491FE0184911BD92296F1E0CF3FC2
:1013D000DF07A9F780919201811105C083E322D92B
:1013E00084E0F5DA0EC0C7EBD1E0FE0131966491DE
:1013F000FE01849105D92296F1E0CD3CDF07A9F7E3
:10140000EDCF84E30FD985E3BED88D30D1F7DF91DE
:10141000CF910895A2E3B0E0E0E1FAE00C94132844
:1014200080919101882309F48AC01A9B79C08FE3C7
:10143000AAD88F778983823348F08AE3F3D886E38A
:10144000F1D88DE3EFD884E3EDD879C02C988FEFF5
:1014500026D810E08981181758F480E020D8E2E0FF
:10146000F0E0EC0FFD1FE10FF11D80831F5FF2CF55
:1014700080E015D8082F80E012D82C9A84E3D2D8C7
:1014800085E381D88D30D1F72A8196E792279A8318
:1014900092E08981E92FF0E0981768F441E050E08C
:1014A0004C0F5D1FE40FF51F30812452232720834A
:1014B0009F5F232FEECF81E090E08C0F9D1FE80F00
:1014C000F91F90818B81982790838091970484FFE6
:1014D00010C081E6E1DA10E08981811708F1E1E0CE
:1014E000F0E0EC0FFD1FE10FF11D8081D5DA1F5FE9
:1014F000F3CF81E4D1DA10E08981811750F0E1E087
:10150000F0E0EC0FFD1FE10FF11D808184DB1F5F18
:10151000F3CF8091970485FF02C0802F7CDB07DB2F
:1015200085E331D8813021F0813141F48AE37AD8E2
:1015300086E378D88DE376D884E374D847D9E296E9
:10154000E4E00C942F28A2E3B0E0E9EAFAE00C947E
:101550000F2841E38E010F5F1F4FB80101965FDB3B
:101560006C019C01332721503109898190E02817B3
:10157000390709F061C080919101811103C008DF32
:1015800083E025DAFB808A8196E789278A8392E0C7
:101590008981292F30E0F801E20FF31F981750F4EA
:1015A000DE01A20FB31F8C91845220818227808399
:1015B0009F5FEECF80818F25808385E333D885E3DD
:1015C0000E94C3028331C9F7F4FE06C088E7FFD941
:1015D00088E7FDD988E701C08AE0F9D92C988FE720
:1015E0000E944F0278018E2D801B8C1530F4F7017C
:1015F00081917F010E944F02F6CF2C9A85E30E94D1
:10160000C3028331D9F385E30E94C302863131F4EA
:101610008BE308D886E306D88DE304D88091910146
:10162000882349F084E30E94120385E30E94C302E9
:101630008D30C1F701C0D3D3E296E8E00C942B289B
:10164000FC012181223731F0223559F481E0809369
:10165000920102C0109292019BDE81E08093910181
:101660000895233711F401966ECF109291010895D9
:10167000CF93DF93EA98249A2C9A8EE190E0A2D936
:101680002C988EE190E09ED92C9A8DE290E09AD928
:1016900080E30E94120384E690E094D9C8E1D2E08E
:1016A000FE018491813438F083E30E94120384E0C8
:1016B0008ED9CFEF0DC0FE0131966491FE01849169
:1016C0000E9400032296F2E0C435DF0749F7ECCF11
:1016D00084E30E9412038AE090E074D9C150C1F7FC
:1016E00081E080939301DF91CF910895EF92FF9273
:1016F0000F931F93CF93DF93EC018B01F880F3944A
:101700006115710519F0E4E6F0E002C0E0E0F0E0F8
:1017100028E0F29EC00111246AE070E00E94F227E6
:101720009B012E0F3F1FC901AA2797FDA095BA2F35
:10173000E0919404F0919504AF0160E070E04817E7
:1017400059076A077B0720F488E092E0E3D9C3C019
:10175000E21BF30BF0939504E093940480919301C2
:10176000811101C085DF85E30E94C3028D3051F0F5
:101770008AE592D985E490D982E58ED982E58CD923
:1017800081E347C08091940190919501A0919601C9
:10179000B0919701892B8A2B8B2B29F50E9474031A
:1017A00085E30E94C302833109F43BC08AE574D902
:1017B00085E472D982E570D982E56ED982E329C0C9
:1017C0008091900490919104A0919204B09193041F
:1017D0004F5F5F4F6F4F7F4F84179507A607B7077F
:1017E000E9F681E0F4D88091900490919104A09161
:1017F0009204B091930440919401509195016091AD
:1018000096017091970184179507A607B707C1F64F
:10181000E8CF42D985E30E94C302FDD988D928DFE9
:101820005AC0012B41F42C988FE70E944F02EC2EF6
:101830000C2F1D2F0AC00AE010E084E6C8D8015022
:10184000110901151105C9F7EECF802F8E198F15DB
:1018500030F4F80181918F010E944F02F6CF2C9A4B
:10186000C8EC85E30E94C3028D30B1F485E30E9489
:10187000C3028D30D9F08AE50FD985E40DD982E510
:101880000BD982E509D983E307D985E30E94C30216
:10189000C2D94DD9EDDE0AC085E30E94C30283316F
:1018A00029F781E094D8C150E1F6E0CF809193010F
:1018B000811101C094D28091900490919104A091E3
:1018C0009204B09193048093940190939501A09316
:1018D0009601B0939701CDB7DEB7E6E00C942D28C2
:1018E000ACE0B0E0E6E7FCE00C941428FC018BE0EF
:1018F000898381818A831B8282E08C8387818D83A7
:1019000080858E8381858F8384818887858189877F
:1019100086818A871B861C8684E159D860E070E046
:10192000CE010196E3DE8AE5B7D810E0812F90E082
:10193000298130E02817390754F0E1E0F0E0EC0F9E
:10194000FD1FE80FF91F808166D91F5FEFCF8091DF
:10195000970485FF02C080E05ED9E9D82C96E3E0C9
:101960000C943028CF93DF93EC0180919B0181117F
:1019700008C090919C01911104C090919D01992300
:10198000A9F09B81903319F09F7E903479F49F8168
:1019900098130CC0988580919C01981307C0998575
:1019A00080919D01981302C0CE019ADF8091980129
:1019B000811108C090919901911104C090919A01F0
:1019C0009923A9F098819B3091F49B81903479F40C
:1019D0009F8198130CC0988580919901981307C036
:1019E000998580919A01981302C0CE0179DFDF9129
:1019F000CF910895AEE1B0E0E0E0FDE00C94132853
:101A000080919301882309F463C01A9B53C08FE32C
:101A10000E94C3028F778E3108F08DE189832C9864
:101A20008FEF0E944F0210E08981181760F480E068
:101A30000E944F02E2E0F0E0EC0FFD1FE10FF11D0C
:101A400080831F5FF1CF80E00E944F02082F80E06B
:101A50000E944F022C9ACE01019684DF8091970458
:101A600084FF10C08AE718D810E08981811780F1BF
:101A7000E1E0F0E0EC0FFD1FE10FF11D80810CD8DB
:101A80001F5FF3CF8AE508D810E08981811750F0F5
:101A9000E1E0F0E0EC0FFD1FE10FF11D8081BBD80C
:101AA0001F5FF3CF8091970485FF02C0802FB3D8CA
:101AB0003ED80EC085E30E94C302813149F48AE317
:101AC0000E94120386E30E94120384E30E94120321
:101AD0006E96E4E00C942F28AEE1B0E0E2E7FDE082
:101AE0000C9413288C01FC018181823711F4C0DD34
:101AF00034C0833711F08636F9F44DE1BE016F5FD3
:101B00007F4FC80102968BD899270197298130E031
:101B10008217930729F08FEF91E00E948A051DC07C
:101B200061E070E0F8018181833711F060E070E0DE
:101B3000CE010196DBDD11C0813621F443E06BE973
:101B400071E005C0873739F443E068E971E0C80106
:101B5000029665D802C0109293016E96E4E00C9450
:101B60002F288F929F92AF92BF92DF92EF92FF92B7
:101B70000F931F93CF93DF931092B9011092CE0170
:101B8000FC012181220F220F220F3381231B57E0FA
:101B9000520F1092BA0110E070E038E0D32ED20E4E
:101BA000FF24F39447E007E0E12CC7E0D0E0A1E098
:101BB000B0E0FD1409F47FC0FC01EE0DF11D24819D
:101BC00030E0002E02C0359527950A94E2F7217087
:101BD0003327E22F002311F0015002C0E39407E005
:101BE0006B3471F4433009F04AC0111107C0E111A0
:101BF0005FC01092B9017093CE0174C010E041C073
:101C00004F3F31F56634A9F4E72FF0E0E654FE4F7C
:101C1000E0810E2EE295E0250E2EE695E695E02574
:101C2000EF5FE1FB882480F8912C8216930641F047
:101C300004C0653429F4E11103C01093B901DBCF6E
:101C40007F5FE72FF0E0E654FE4F108247E031C09F
:101C5000EE2361F1663471F4E72FF0E0E654FE4FB5
:101C6000A0809D01042E01C0220F0A94EAF7A22A47
:101C7000A0821CC0653439F06B34C1F404C04F3FFE
:101C8000D1F2EE2399F0E72FF0E0E654FE4F9E01EB
:101C9000241B310947FD33955D0102C0AA0CBB1C12
:101CA0002A95E2F795013081322B3083415001C0F3
:101CB00011E0F3947ECF1093B9017093CE015F15BC
:101CC00088F4653431F44F3F21F47F5F7093CE0187
:101CD00004C08091B9018111F8CF81E09091CE01CB
:101CE000911101C080E0DF91CF911F910F91FF9082
:101CF000EF90DF90BF90AF909F908F9008951092DB
:101D00006F00E091D1018CE1E89FF0011124EE52C7
:101D1000FE4F1082809196048D7F809396040895E3
:101D2000FC012181243108F0EACF3381662381F060
:101D300081E090E0032E01C0880F0A94EAF7DF01EA
:101D4000A20FB11D14969C911497982B14969C93F6
:101D5000332319F031503383089587E083832F5F55
:101D60002183E20FF11D14820895DC011196EC919C
:101D70001197F0E050E02C91CF01841B950B0B964E
:101D80004797A0F430E070E0C901861B970B0B96D3
:101D9000479760F42E0F3F1F640F751F261B370BEC
:101DA000255F3F4F81E02731310508F080E008953D
:101DB000219A29982298E9E6F0E080818061808369
:101DC00082EC91E090939504809394041092EE013C
:101DD00010920A021092260210928E0408958091A9
:101DE000890481110AC080919704882321F00E9400
:101DF0009F030C9486030C9496030895FC012181A3
:101E000021110EC0809197040E940B0640E265E00C
:101E100080919404909195040E949B050C949705E1
:101E200041E067E974E001960E940F06D8CF442391
:101E300039F04150FB01E40FF11D9081890FF7CF7C
:101E4000089520E0662339F06150FC01E60FF11D92
:101E500030812327F7CF822F0895A091B90140E068
:101E600035E020E0662399F06150FC01E60FF11D9A
:101E70005081752F72957F702727370FAA2311F095
:101E8000442319F05F702527350F4F5FEBCF320FDA
:101E900040E1349FC0011124822B0895FC0132815E
:101EA0002381A081B181A30FB11D8C9190E0022EFE
:101EB00002C0959587950A94E2F7817099274FEFB4
:101EC000420F4383211104C03F5F328327E0238305
:101ED0000895A2E0B0E0EFE6FFE00C940D287C014D
:101EE000A12CB12CD12CCC24C394062F10E001508E
:101EF0001109A616F0F4C7014A836983CFDF4A812E
:101F00006981882391F0442349F098012A193B09FB
:101F10008C2D01C0880F2A95EAF706C08C2D0A2C5B
:101F200001C0880F0A94EAF7D82A8FEFA81AB80AD6
:101F3000E0CF8D2D2296EAE00C942928A4E0B0E0B1
:101F4000E4EAFFE00C940C281B8227E02C839C0120
:101F50002C5F3F4F3A8329831092CE01FC012181EF
:101F6000338187E090E0831B9109F8E02F9F800D7B
:101F7000911D1124853491050CF44EC0B12CA09014
:101F8000CE01F5E0FA1558F10A2D10E040E068E0C6
:101F9000CE0101969EDF06541E4FF8018083982ED5
:101FA000092C92949024092C969496949024CE0116
:101FB000019674DF939491FACC24C0F8D12C90E070
:101FC000C816D90649F5CE01019668DF811124C0F3
:101FD000F8018081B826A394A092CE01D0CF40E032
:101FE00068E0CE01019675DF082F182F012E12959B
:101FF0001025012E169516951025CE0101964EDF5F
:102000001F5F11FBEE24E0F8F12C282F30E0E216E0
:10201000F30611F481E0B01280E02496EBE00C941A
:102020002828A5E0B0E0E7E1F0E10C941028FC01DD
:102030001B8287E08C83CF0104969A8389838081F9
:10204000853009F051C02181338187E090E0831B06
:10205000910938E0239F800D911D1124803991054D
:1020600009F042C01092CE010FE010EF29E88091F4
:10207000CE01E82EF12CDD24D394D80E41E068E0A7
:102080008F3088F4CE0101962D8323DF080F111DB8
:10209000F701E654FE4F2D812827208324E2280FE4
:1020A000D092CE01E4CFCE01019613DF080F111DAF
:1020B000D092CE01F701E654FE4F8095808341E037
:1020C00068E0CE01019605DF90E0982F8827081B75
:1020D000190B41E068E0CE010196FBDE282F30E0CD
:1020E00081E00217130709F080E02596E7E00C94E1
:1020F0002C28A4E0B0E0EFE7F0E10C9412281B825A
:1021000027E02C839C012C5F3F4F3A832983FC01FD
:1021100021812430A1F58381813089F51092CE018F
:102120008091CE01082F10E0FF24F394F80E41E0D7
:10213000843098F4811106C067E0CE010196C9DEB3
:10214000806804C068E0CE010196C3DEF801E65461
:10215000FE4F8083F092CE01E3CF67E0CE0101967F
:10216000B8DEF801E654FE4F880F8083F092CE016E
:102170009091BA0192959F7081E09A3009F080E0C9
:102180002496E5E00C942E28CF93DF93FC01818107
:102190008330E9F483818730D1F480818830B9F4C9
:1021A0001092CE0120E0822F90E0DC01A654BE4FB9
:1021B000EF01C80FD91F8C818C9381E0820F83308F
:1021C00010F4282FF0CF8093CE0181E001C080E091
:1021D000DF91CF910895FC0190818091960499360A
:1021E00011F0933751F4982F9370913011F482606D
:1021F00006C080FF07C08B7F03C080FD03C08460E2
:10220000809396040895A1E0B0E0E9E0F1E10C9438
:102210001128198280919E018823B9F18091970439
:1022200087FF17C084E30E94C3028058803458F0AF
:10223000803C58F490E08055910953E0959587953E
:102240005A95E1F703C080E001C08FE08F590E94EA
:102250004C058091970483FF16C082E70E944C05CD
:102260008091970484FF04C080919F010E944C05D7
:1022700086E60E944C058091970484FF04C08091FB
:102280009E010E944C0510929E018091CF018823EF
:1022900009F442C2469A0091D0012CE1029F8001CC
:1022A00011240E521E4F8981811106C0C8016CDFB6
:1022B000882311F083E789838981811106C0C801D1
:1022C000B0DE882311F083E589838981811139C0CB
:1022D00066E4C80146DC8823A1F1F090CE01FA94AF
:1022E000F092CE014F2D6AEB71E086E0A0DDEF2D7C
:1022F000F0E0E654FE4FE0808E1105C093E09F159C
:1023000010F486E41BC0282F30E02F5F3F4F6E2D66
:1023100070E02617370739F423E02F1520F496E4F0
:10232000998380830EC04F2D6AEB71E08CE07FDDD6
:102330008E1106C083E08F1518F484E5898301C0EF
:1023400019828981811116C065E4C8010ADC8823DD
:1023500089F08091CE0181508093CE01893051F473
:1023600069E08AEB91E06DDD9091C301891302C0B1
:1023700085E489838981811106C0C801DFDD882356
:1023800011F088E489838981811106C0C801B1DE1A
:10239000882311F084E789838981811133C0F80192
:1023A000438D60919F01C8014A96DFDC682FC80108
:1023B000B7DC6BE4C801D5DB8823B1F0F090CE0127
:1023C000FA94F092CE016F2D8AEB91E046DDEF2D6D
:1023D000F0E09091B901E91BF109E654FE4F9081BC
:1023E000891302C08BE48983898181110BC0F801B4
:1023F000838191E0980F9383873021F41382818148
:1024000081508183898181112DC0F80181818430BF
:1024100049F58381843031F54EE16CE3C80148967B
:10242000A4DC8823F9F04EE160919F01C8014A962F
:102430009CDC682FC80174DC20E0822F90E0FC0156
:10244000E654FE4FD801A80FB91F14968C918083D3
:1024500081E0820F853010F4282FEFCF8093CE01DA
:1024600082E589833981332309F4CAC02091970416
:1024700020FFC6C0809196048E7F8B7F8093960448
:1024800021FD64C05091B801F090CE015F113DC0B4
:1024900040E04517C0F4842F90E061E0640FFC0138
:1024A000EC55FE4FDC01A654BE4F70818C9178171D
:1024B00041F04093B801809196048D7F80939604FB
:1024C00004C0462FE6CF4093B80145131EC040918B
:1024D00090045091910460919204709193048091C2
:1024E000A0019091A101A091A201B091A301481B6C
:1024F000590B6A0B7B0B463251056105710528F4B7
:102500008091960481608093960440E04F1560F4BA
:10251000842F90E0FC01EC55FE4FDC01A654BE4F29
:102520008C9180834F5FF2CF4093B80180919004EB
:1025300090919104A0919204B09193048093A00192
:102540009093A101A093A201B093A3013435E9F4C3
:1025500026FD1BC08091CE018530B8F08091BC0172
:102560008B3471F0893661F09DEA980F923040F01B
:102570008D57823028F08091BD018077803729F413
:1025800080919604816080939604B801CE010196F3
:1025900022DE8091960482FF33C089810E944C051F
:1025A0008091B901882329F08091CE0181508093D8
:1025B000CE01F12CE091CE01FE1648F4EF2DF0E0B3
:1025C000E654FE4F80810E940B06F394F3CF809176
:1025D000B901882351F0F0E0E654FE4F80818F70FE
:1025E00040E361E090E00E94D1058091970485FF6F
:1025F00005C084E30E94C3020E940B060E94970557
:102600008091970482FF6FC080E70E944C05F8011B
:10261000808140E262E090E00E949B05F801808D9D
:1026200040E265E0F0E18F9FC00111240E949B050C
:10263000F801818D40E265E0F0E18F9FC001112437
:102640000E949B05F801828D40E265E0F0E18F9FDA
:10265000C00111240E949B05F801838D40E265E0D2
:10266000F0E18F9FC00111240E949B05F801828137
:1026700040E263E090E00E949B05F801818140E226
:1026800063E090E00E949B05F801238140E262E054
:1026900087E090E0821B91090E949B0580E20E94E6
:1026A0004C058091970485FF08C084E30E94C30213
:1026B0000E940B0680E20E944C05F801838187305E
:1026C00019F081818F5F8183F12CF8018181F816E7
:1026D00040F4F801EF0DF11D84810E940B06F39484
:1026E000F4CF0E949705F80110828091CF018150AC
:1026F0008093CF018091D0018F5F843019F0809357
:10270000D00102C01092D00146988981843521F40D
:102710008AEB91E00E9489202196E6E00C942D2816
:102720001F920F920FB60F9211240BB60F922F9398
:102730003F934F935F936F937F938F939F93AF9349
:10274000BF93EF93FF9310926F008091970483FFE4
:1027500003C08EE20E944C058091D1019CE1899FCB
:10276000F0011124EE52FE4F9081933018F09181C8
:10277000923010F4C4DA18C09091CF01933049F42C
:102780008091970482FFF6CF84E592E00E948A054B
:10279000F1CF9F5F9093CF018F5F843019F08093CA
:1027A000D10102C01092D101FF91EF91BF91AF9181
:1027B0009F918F917F916F915F914F913F912F9159
:1027C0000F900BBE0F900FBE0F901F9018959BEDB2
:1027D000980F973150F496EF960F9D3130F491E0B9
:1027E000681708F090E0892F089580E008951F92FF
:1027F0000F920FB60F9211240BB60F92FF920F9308
:102800001F932F933F934F935F936F937F938F9378
:102810009F93AF93BF93CF93DF93EF93FF938091F9
:102820007005882321F082E08093700563C1809158
:102830002405823021F483E0809324055BC100915C
:1028400084001091850064E0169507956A95E1F77C
:10285000C091D1019CE1C99FE0011124CE52DE4F0D
:102860009881943031F40E3208F444C10F3448F0AA
:10287000B6C0953031F4073108F43CC1083208F095
:10288000AEC01A990DC09450923038F461E0CE0178
:1028900047DA109285001092840000939F012AC1AC
:1028A00080919F01081B00939E0110928500109259
:1028B00084009881983071F42A8121110BC021E0A5
:1028C0002A83888F8A8F098F0B3B10F4000F01C079
:1028D00006950B8F9450923020F460E0CE0120DA00
:1028E00009C182E086BBF880F11011C090919F0170
:1028F000953608F0FFC080919E01853608F0FAC039
:10290000988F898F81E08A8382E08883F3C0109159
:102910009E0182E0F81273C000919F01412F602F49
:10292000CE01489622DA6A818823F9F0488D50E07A
:102930009A01220F331F240F351F200F311D3595AB
:10294000279535952795288F298D30E0C901880F67
:10295000991F820F931F810F911D959587959595CE
:102960008795898F6F5F6A83C5C0643008F445C05E
:1029700020EA3FE030938900209388008A818C30E0
:1029800050F0888D298D30E0280F311D2536310516
:1029900024F084E027C08A3088F0888D298D30E0CB
:1029A000280F311D253231054CF485E0888328EE4F
:1029B00033E0309389002093880015C080919D04F6
:1029C000882379F0612F802F02DF882351F0688DF2
:1029D000898DFDDE882329F081E0809324058FD93D
:1029E00089C083E088830A8F1B8F198287E08B83DD
:1029F0001C8282E080936F007DC0188277CF98E0C0
:102A0000F91225C081E9810F8D3178F460E0CE01A3
:102A100087D9288D30E0C901880F991F820F931F35
:102A200020919F01820F911D4EC0173E08F462C095
:102A300061E0CE0175D92A8D30E0C901880F991F58
:102A4000820F931F20919F01820F911D15C000914D
:102A50009F01412F602FCE014A9687D9882301F12B
:102A600061E0CE015DD92A8D30E0C901880F991F40
:102A7000820F931F800F911D95958795959587954A
:102A80008A8F2B8D30E0C901880F991F820F931F09
:102A9000810F911D95958795959587958B8F2AC068
:102AA000412F602FCE01489660D9882301F160E064
:102AB000CE0136D9288D30E0C901880F991F820FC9
:102AC000931F800F911D9595879595958795888F74
:102AD000298D30E0C901880F991F820F931F810F44
:102AE000911D9595879595958795898F03C087E06A
:102AF000F81275CFFF91EF91DF91CF91BF91AF9118
:102B00009F918F917F916F915F914F913F912F9105
:102B10001F910F91FF900F900BBE0F900FBE0F9063
:102B20001F901895E091D1018CE1E89FF0011124EC
:102B3000EE52FE4F8081811107C081E090915F05C8
:102B40009F3F19F480E0089581E0089580E690E0C9
:102B50000E946F0680939D0481E690E00E946F06BC
:102B600080932E05882321F081E28093970437C952
:102B70000895299A0C94E20429980C94E204A7E0A1
:102B8000B0E0E5ECF5E10C9410289091A6049435A2
:102B900059F420912705309128052F5F3F4F30933E
:102BA0002805209327053EC0963459F42091250529
:102BB000309126052F5F3F4F309326052093250542
:102BC00031C0953459F420919A0430919B042F5FC1
:102BD0003F4F30939B0420939A0424C09B3459F4B4
:102BE00020912A0530912B052F5F3F4F30932B0505
:102BF00020932A0517C0983459F420912C05309160
:102C00002D052F5F3F4F30932D0520932C050AC0D3
:102C100020919804309199042F5F3F4F309399048D
:102C20002093980495E79983882399F0BE016E5FFD
:102C30007F4F80912E050E945706BE016C5F7F4F2B
:102C400080919D040E94570685E58E8386E0D82EEC
:102C500002C0DD24D3940E949F030E94740316E0F7
:102C600080E891E086DF80E093E086DF1150C1F7D5
:102C700080E093E07EDF80E891E07EDF80E891E015
:102C800078DF299887E390E00E94160383E00E9492
:102C9000E7042C988FE70E944F028091A0048D0DCD
:102CA0000E944F02CE0101967C018C01F8018191B6
:102CB0008F010E944F02802F8E198D15B8F38091DD
:102CC000A004882339F08EE994E00E94A3070E94B3
:102CD0004F02F5CF2C9A0E9474038EE994E00E9473
:102CE000880715E18AE30E94C3028F7731F0115003
:102CF00021F081E00E94E704F5CF71D82796E7E044
:102D00000C942C28CF93DF93EC018981811107C0AB
:102D100080919D040E940B0680912E0513C084367D
:102D2000A1F48091900490919104A0919204B091AB
:102D3000930440E364E00E94D1058EE20E944C05BA
:102D4000809123050E940B064DC0833709F04DC0CA
:102D500040E361E080912705909128050E94D1050C
:102D60008EE20E944C0540E361E080912505909140
:102D700026050E94D1058EE20E944C0540E361E0E9
:102D800080919A0490919B040E94D1058EE20E944A
:102D90004C0540E361E080912A0590912B050E944B
:102DA000D1058EE20E944C0540E361E080912C0544
:102DB00090912D050E94D1058EE20E944C0540E3C2
:102DC00061E080919804909199040E94D1058EE26F
:102DD0000E944C0540E361E080912105909122051D
:102DE0000E94D1050E9497052CC08936D9F441E094
:102DF0006DE974E0CE0102960E940F0660919D0479
:102E000080E690E00E946A0641E06EE275E0CE0145
:102E100004960E940F0660912E0581E690E00E94C4
:102E20006A060FC08EE994E00E9488072196699196
:102E3000662329F08EE994E00E948D07F8CF80E0A8
:102E40009EDEDF91CF910895A1E0B0E0EAE2F7E1E4
:102E50000C940F2880912405882309F486C0C09023
:102E60009004D0909104E0909204F0909304833009
:102E700009F061C08FE30E94C302182F8630C8F0AA
:102E800084EF95E00E9488072C988FEF0E944F02F4
:102E900080E00E944F02082F115049F080E00E940C
:102EA0004F02682F84EF95E00E948D07F5CF2C9A92
:102EB00001C000E00E94EF0E10922405053709F0D2
:102EC00054C041E0BE016F5F7F4F87EF95E00E94E5
:102ED0000F06019759F5998180919D04981326C09A
:102EE0008091FB05853571F48091F605882339F0D2
:102EF00084EF95E00E94A3070E944C05F5CF0E9445
:102F0000970533C08091F60584508093F60584E0E0
:102F10008093F5056AE084EF95E00E948D07E091CB
:102F20008C04F0918D0488E009951FC084EF95E032
:102F30000E9488071AC0823059F480919C049C2D0D
:102F4000981B983090F00E94EF0E109224050DC04F
:102F5000813059F487E390E00E9416030E948603B3
:102F600082E080932405C0929C042196E8E00C94B2
:102F70002B28D8DD882361F083E080932905809198
:102F800021059091220501969093220580932105B9
:102F900080912905815080932905882321F083E0C1
:102FA00080932305089581E0EACDCF93DF93EA98DB
:102FB000249A2C9A8EE190E00E94E2042C988EE1F3
:102FC00090E00E94E2042C9A8DE290E00E94E204DC
:102FD00080E30E94120384E690E00E94E2042C98B1
:102FE00080E40E944F02CBE5D2E0FE0184910E9472
:102FF0004F022196F2E0C836DF07B9F78091010150
:103000000E944F02809102010E944F0280910301B1
:103010000E944F02C0E0D0E0FE01E559FD4F8491CF
:103020000E944F022196C931D105B1F72C9A2C98F4
:103030008EE70E944F028BE290E0EC0121960E9405
:103040006F060E944F02C333D10511F0CE01F5CFB8
:103050002C9A83E30E94120381E00E94E70481E03E
:1030600080938E04DF91CF9108956F927F928F921B
:103070009F92AF92CF92EF92FF920F931F93CF93B5
:10308000DF93EC018981843769F468E071E0CE0157
:1030900002960E943C0640E260E080910801909117
:1030A000090112C0833709F092C18A81823789F4FD
:1030B00064E071E0CE0103960E943C0640E260E0CD
:1030C00080910401909105010E949B050E94970543
:1030D000EAC1469A80914402811116C08091910103
:1030E000882329F081E0809343021092910180911E
:1030F0009301882329F081E080934202109293018A
:1031000054DF83E00E94E70486E30E9412038AE30F
:103110000E9412038BE30E9412030E947403FE01BB
:1031200001900020E9F70E2F0C1B0250C12CFAE091
:103130009F2E7E0132E0E30EF11CA5E0AA2EB8E23C
:103140008B2E80910401909105012C2D332727FDB2
:1031500030952817390708F0FBC00132A1F4299AED
:1031600080910801909109010E94E20429988091C0
:10317000060190910701FC019E9EC0019F9E900D4B
:1031800011240E94E204370111E010170CF0B7C0BF
:10319000F30181913F01299A803309F046C0013241
:1031A00001F580910601909107010E94E20429989F
:1031B00080910601909107010E94E204299A809172
:1031C0000601909107010E94E2042998809106016E
:1031D000909107019C01A29EC001A39E900D112415
:1031E0008AC080910801909109010E94E204299807
:1031F00080910801909109019C01220F331F820FD9
:10320000931F0E94E204299A80910801909109017C
:103210000E94E204299880910801909109019C0183
:10322000220F331F820F931F66C0813329F50132AD
:1032300091F480910601909107010E94E20429987F
:103240008091060190910701FC01AE9EC001AF9EE6
:10325000900D11241EC080910801909109019C01DC
:10326000220F331F820F931F0E94E204299880913E
:103270000801909109012CC00132D1F4809106011E
:10328000909107010E94E204299880910601909193
:1032900007010E94E204299A80910601909107019A
:1032A0000E94E2042998809106019091070123C0B1
:1032B00080910801909109010E94E204299880916F
:1032C0000801909109019C01220F331F820F931F67
:1032D0000E94E204299A80910801909109019C01C1
:1032E000220F331F820F931F0E94E20429988091BE
:1032F0000801909109010E94E2041F5F46CF299ABC
:103300000132A1F480910601909107010E94E2042C
:10331000299880910601909107019C01829EC0012D
:10332000839E900D11240E94E20410C08091080138
:10333000909109010E94E20429981FE180910801FF
:10334000909109010E94E2041150C1F7C394F9CE93
:1033500080914402882341F08091970481110FC02D
:1033600086E30E94120319C080914302882351F022
:10337000109243020E94C80981E0809391010E944B
:1033800086030BC080914202882329F010924202EA
:103390000E94380B02C00E94EF0E469889E60E94F8
:1033A0004C0583E70E944C0511E010170CF08ECEFF
:1033B000FE01E10FF11D17FDFA958181803319F0AF
:1033C000813309F086E40E944C051F5FEECF8237FF
:1033D000B9F480919101882329F081E08093430220
:1033E0001092910180919301882329F081E08093CC
:1033F000420210929301D9DD81E08093440253C0D0
:10340000863651F58A81803351F480E18093010141
:1034100080EB8093020181E78093030107C043E0C2
:1034200061E071E0CE0102960E940F0689E60E94DB
:103430004C0586E60E944C058AE30E944C0580916B
:1034400001010E940B06809102010E940B068091EF
:1034500003010E940B063ACE883729F5809143027A
:10346000882341F0109243020E94C80981E08093B2
:10347000910111C080914202882329F010924202EA
:103480000E94380B0EC082E090E00E9416038091EB
:103490009704882319F00E94860303C086E30E94E4
:1034A000120310924402DF91CF911F910F91FF9070
:1034B000EF90CF90AF909F908F907F906F900895F6
:1034C000A2E0B0E0E6E6FAE10C9408287C01FC01F9
:1034D0008181833709F09DC1198287E090E00E94C5
:1034E0003C288C0141E0BE016F5F7F4FC70102960F
:1034F0000E940F068981F801808341E0BE016F5F61
:103500007F4FC70104960E940F062981207FF80192
:10351000218341E0BE016F5F7F4FC70106962A837A
:103520000E940F068981F801828341E0BE016F5F2E
:103530007F4FC70108960E940F068981F801838397
:1035400041E0BE016F5F7F4FC7010A960E940F06E0
:103550008981F801868341E0BE016F5F7F4FC7011B
:103560000C960E940F068981F801858341E0BE0117
:103570006F5F7F4FC7010E960E940F068981F80189
:10358000848380E090E02A814191342F32953F700E
:10359000342783279F5F9730B9F78F70822BF8010C
:1035A000818387E090E00E943C285C0187E0F8017D
:1035B000D50101900D928A95E1F7D8011196C801C5
:1035C0000696F8013D91219123272083E817F907FA
:1035D000C9F7469A80914702811160C0809191019C
:1035E000882329F081E08093460210929101809116
:1035F0009301882329F081E0809345021092930182
:10360000EA98249A2C9A8EE190E00E94E2042C9889
:103610008EE190E00E94E2042C9A8DE290E00E94FC
:10362000E20480E30E94120384E690E00E94E20438
:103630002C9880E40E944F0264E8E62E62E0F62EA9
:10364000F70184910E944F02FFEFEF1AFF0A2DEA63
:10365000E21622E0F206A1F72C9A2C988EE70E943F
:103660004F028BE290E07C01EFEFEE1AFE0A0E941F
:103670006F060E944F02F3E3EF16F10411F0C70149
:10368000F2CF2C9A83E30E94120381E00E94E704A8
:1036900081E080938E0483E00E94E70486E30E9429
:1036A00012038AE30E9412038BE30E9412030E941A
:1036B0007403299A87EC94E20E94E204299889E530
:1036C0000E94E70485E392E00E94E204712C80915D
:1036D0000E0190E0272D332727FD30952817390755
:1036E0000CF057C0711002C022E001C027E0F12C9D
:1036F000299A86EF99E02A830E94E204299886EFAE
:1037000099E00E94E204F3942A81F2168CF3299A3C
:103710008CEF92E10E94E204299880910A01909135
:103720000B010E94E2046801612CF60181906F0197
:1037300048E0542E50E8E52EF12C912CC701882149
:103740009921892B49F4299A80910A0190910B01C2
:103750000E94E204299808C0299880910A0190915A
:103760000B010E94E204299A80910A0190910B01B9
:103770000E94E204F694E7945A9401F76394F7E008
:103780006F12D3CF299880E090E00E94E2047394F6
:103790009ECF80914702882341F080919704811148
:1037A0000FC086E30E94120319C08091460288234D
:1037B00051F0109246020E94C80981E08093910165
:1037C0000E9486030BC080914502882329F0109245
:1037D00045020E94380B02C00E94EF0E469889E510
:1037E0000E944C0583E70E944C057501D12CF7011E
:1037F00081917F010E940B06D394F7E0DF12F7CF8F
:103800000E949705C5010E94D428C8010E94D428AF
:103810006FC08237A9F46EE071E0C70102960E9482
:103820003C0689E50E944C0582E70E944C058AE32C
:103830000E944C0580910E0140E260E090E02CC0B7
:10384000843779F5F7018281803339F488ED94E08B
:1038500090930D0180930C0106C06CE071E0C701EC
:1038600002960E943C0680910C0190910D01969564
:10387000879590930B0180930A0189E50E944C057E
:1038800084E70E944C058AE30E944C0540E266E012
:1038900080910C0190910D010E949B050E9497055B
:1038A00027C0883729F580914602882341F010927D
:1038B00046020E94C80981E08093910111C0809165
:1038C0004502882329F0109245020E94380B0EC051
:1038D00082E090E00E94160380919704882319F0FB
:1038E0000E94860303C086E30E94120310924702DF
:1038F0002296EFE00C94242810924A0510920303BC
:1039000083E080934D028FEF80935F050895EEE48E
:10391000F2E02081211105C0892BB1F080E090E018
:103920000895B2E0EC3FFB07B8F7009751F04181F2
:10393000DC013C91431305C0428111963C91431731
:1039400051F0E20FF11DE5CF32E0EC3FF30719F043
:1039500010F0ECEFF2E0CF01089594E0899FF001C0
:103960001124E05AFA4F80818F3F91F080934802F2
:10397000818180934902828180934A02838180936E
:103980004B0221E04CE064E088E492E00C9499085A
:1039900008958DEF92E0BBDF009799F020914D02E2
:1039A000FC013081231768F4E20FF11D80818093C0
:1039B000FF0289E78093000381818093010381E006
:1039C000089580E00895EF92FF921F93CF93DF93C5
:1039D0001F92CDB7DEB7182F8091970486FF18C0CD
:1039E00084E599830E944C05E12E9981F92E15E01A
:1039F000F70181917F010E940B061150C9F7809158
:103A0000970485FF03C08AEF0E940B060E9497056A
:103A10000F90DF91CF911F91FF90EF90089586E373
:103A20000E9412038091FF02833511F48BE901C0DB
:103A30008BE40E94E70421E04CE065E08DEF92E02A
:103A40000E9499080E9486038DEF92E0BCCFE7DFC9
:103A50008091FF02893631F081E08093FC0289E297
:103A600080935F050895CF9385E390E00E946F06F1
:103A70008093300586E390E00E946F0680935E0598
:103A8000CFEFC0934E05C0935005C0935205C0932D
:103A90005405C0935605C0935805C0935A05C0936A
:103AA0005C052ADF10924E0281E080932F05C093BF
:103AB00060058FEF9FEF909333058093320510924E
:103AC0003505109234051092370510923605C093D3
:103AD0006405909339058093380510923B05109248
:103AE0003A0510923D0510923C05C09368059093ED
:103AF0003F0580933E0510924105109240051092BB
:103B0000430510924205C0936C0590934505809340
:103B100044051092470510924605109249051092EF
:103B20004805CF910895ACE0B0E0E9E9FDE10C94DF
:103B30000E286C018C010F5F1F4F45E0BE016F5FC7
:103B40007F4FC8010E940F06843008F0F3C09981AE
:103B50009130A9F4833061F46A8185E390E00E949A
:103B60006A066B8186E390E00E946A067CDF06C2EB
:103B7000809130050E940B0680915E059AC09230BC
:103B800009F051C0813039F081E09A81913009F01B
:103B900080E0F82E02C0FF24F39480914E02811140
:103BA00004C08DEA92E00E948A050EE412E0F8015A
:103BB0008081882309F4BBC0F2E00C3F1F0708F0A6
:103BC000B6C032E00E34130719F080E20E944C05B3
:103BD000F80181810E940B06F80182810E940B0688
:103BE000FF20E1F08AE30E944C0593E0F801808118
:103BF0009817A0F4943038F090FF05C08CE29C87B1
:103C00000E944C059C85EE24E394E90EF801E90F2F
:103C1000F11D80810E940B069E2DE8CFF801808166
:103C2000080F111DC4CF933049F480E090E06FDE9F
:103C30008E5492409EEA981B892F3BC0903171F5BB
:103C40000EE415E08FE4E82E85E0F82EC12CD12C8F
:103C5000F80180818F3FA1F0DD2019F080E20E9401
:103C60004C058C2D0E940B068AE30E944C05F8013E
:103C700080810E940B06F70180810E940B06D3947D
:103C80000E5F1F4FC394F2E0EF0EF11C38E0C31239
:103C9000DFCFD1104CC08BEB92E047C0913161F483
:103CA00080914C0590914D056DE770E00E94DE27F4
:103CB000862F0E940B063BC09231C9F510E6E12E1B
:103CC00015E0F12E03E615E0C12CD12CF70180811F
:103CD0008F3FF1F0DD2019F080E20E944C058C2D21
:103CE0000E940B068AE30E944C05F70180810E9426
:103CF0000B06F801329780810E940B06F80131977C
:103D000080810E940B06F80180810E940B06D394EB
:103D1000F4E0EF0EF11CC3940C5F1F4F34E0C312AC
:103D2000D5CFD11004C087EB92E00E948A050E9493
:103D3000970524C144E0BE01695F7F4FC8010E941E
:103D40000F064F81493608F477C07A855885698512
:103D50007C3009F04BC020E030E080E090E0F901D9
:103D6000E05AFA4F708174131CC0A181A51319C0C9
:103D7000A281A61316C02CE023839C01220F331FBF
:103D8000280F391FF901EE0FFF1FEE5CFA4F118269
:103D90001082F901EE0FFF1FEC5CFA4F11821082C6
:103DA000CFC07F3FD9F44083518362832CE02383CB
:103DB0009C01220F331F280F391FF901EE0FFF1F3F
:103DC000EE5CFA4F11821082F901EE0FFF1FEC5CDE
:103DD000FA4F1182108210922F05B2C001962C5F0B
:103DE0003F4F2031310509F0BACFC8C080E090E0E4
:103DF00020E030E0FC01E05AFA4FA081A41315C086
:103E0000A181A51312C0A281A6130FC07383F9016B
:103E1000EE0FFF1FE20FF31FEE0FFF1FEC5CFA4FD8
:103E200081E090E091838083A9C02F5F3F4F04968B
:103E300080319105F9F6A2C0E98180913005E8173B
:103E4000C0F190E0F0E09C01295F3F4F2E173F0743
:103E500084F13A8120915E0532132BC03C813F32C0
:103E600031F442E06CE0C6010E94060987C02D8152
:103E70003C32B1F420934B0581E090E090934D05E6
:103E800080934C058091940490919504E4E02E9FDA
:103E9000800D911D112490939504809394046EC01D
:103EA000E81BF90BEE0FF0E0E25BFA4F3083218361
:103EB00065C080E090E02BDD7C01F80101900020DE
:103EC000E9F73197E01BF10BF695E795BB24B39426
:103ED000BE0EC7018B0D911D8E5492408F3A9105F5
:103EE0000CF048C0F701B1928F0121E0822F880FBA
:103EF00081502B15D8F441E0B801F601E80FF11D0F
:103F0000CF012C870E940F062C85233058F020FD0E
:103F100009C0D80111978C91843621F4F801808171
:103F2000809331052F5F0F5F1F4FE0CFFCEFEF163F
:103F3000F2E0FF0618F5F701E20FF11D10821EC036
:103F400022E04CE064E0CE0107960E9499088FE0E1
:103F50008A8722E04CE064E0CE0107960E9499082F
:103F600082E08A8722E04CE064E0CE0107960E945E
:103F7000990804C081EB92E00E948A052C96E9E042
:103F80000C942A280F931F93CF93DF9390912F05C2
:103F900091114FC093E0899F80011124F801EE0F29
:103FA000FF1FEE5CFA4F94E0899FD0011124A05AC4
:103FB000BA4F12969C91977040E850E0491B510906
:103FC0009AEF949F9001959F300D11243595279578
:103FD0003595279531832083E801CC0FDD1FCA5C1E
:103FE000DA4F288139812F5F3F4F39832883000FB3
:103FF000111F0C5C1A4FF801408151814115510588
:1040000029F424303105A9F4A8DC11C04130510550
:1040100039F4A3DC82E090E0F8019183808309C049
:104020004230510531F499DCF80111821082198275
:104030001882DF91CF911F910F910895A6E0B0E013
:10404000E3E2F0E2EEC720915E052A831B828091B5
:104050004B05882341F0833019F487E791E00FC0C6
:104060008DE790E00CC0277030E02A513F4F4DE7BC
:10407000429FC001439F900D112495958795909381
:104080004D0580934C050FE415E0F12C7CE2E72E02
:10409000F801319790819F3FC1F0809130058F0DDD
:1040A000898380914B05882311F0EC8203C09C83A7
:1040B000F80180818D8321E04CE065E0CE0101961E
:1040C0000E949908CE0101967EDCF3940E5F1F4F8B
:1040D000F8E0FF12DDCF80914B05882341F083305B
:1040E00019F410924B0503C0825080934B0526961D
:1040F000E6E0B3C78091FC02882351F090DC89E2AE
:1041000080935F058091FC0281508093FC020895AA
:10411000F3CBFF920F931F93CF93DF93FC01F080BB
:104120000181C281D38114818FE580935F05109254
:10413000FC0280913005811105C080915E058823C5
:1041400009F4A9C08091FD028F1104C08091FE0284
:10415000801729F0D1DBF092FD020093FE028091DE
:104160004A058F3F09F497C0C093FF02D093000324
:1041700010930103CC23F1F081111CC08091300514
:10418000181761F0143651F08DEA8C0F823010F060
:10419000CD3739F48FEF80934A057DC0C43509F4DB
:1041A0007AC08D2F807F803609F075C0D067D0939C
:1041B000000357C0EEDB811105C080914A058823BA
:1041C00009F469C080910303811107C0E0914A0599
:1041D000F0E0E154FD4FE49101C0E82FE33541F4F4
:1041E000C43531F490914A059E5F90934A0504C00E
:1041F000EC1711F081DB4FC0882369F080914D02EC
:104200008E5F80934D02C5DB81110EC080914A05FF
:104210008E5F80934A0580914A05E82FF0E0E054D4
:10422000FD4F14911F3F59F48091FF0280930303C7
:104230008436B9F4809131058093010312C0109344
:10424000FF0297E79093000390913005909301034C
:104250008E5F80934A05109203038E3021F0112364
:10426000D1F0F5DB18C08DEF92E051DBDC01009757
:1042700081F02C9130E08CEF92E0821B930BA81719
:10428000B90730F4ED01C20FD31F48814D93F7CF2A
:104290001C9232DBE4CFCDB7DEB7E5E0DFC6FF929C
:1042A0000F931F93CF93DF938C01EC0109900020B3
:1042B000E9F72197C81BD90BFC018181823751F4A2
:1042C00087E390E00E9416030E94860381E08093BA
:1042D000700527C0833719F5FC2E2C988FE70E94B4
:1042E0004F028C2F82500E944F02E801229612E06A
:1042F0001F1528F489910E944F021F5FF9CF2C9A55
:104300000E9474038AE30E94C3028F7729F084E637
:1043100090E00E94E204F6CF0E94860302C0109251
:104320007005CDB7DEB7E5E099C6A0E8B0E0EAE9F0
:10433000F1E275C680917005882309F454C081307C
:1043400011F58091900490919104A0919204B09104
:10435000930420910403281709F445C085E30E94C3
:10436000C302813129F48AE30E9412030E9486036A
:104370008091900490919104A0919204B091930443
:104380008093040330C08FE30E94C302D82E87FDC0
:1043900027C02C988FEF0E944F028E010F5F1F4F96
:1043A0007801C02E8E2D801B8D1538F480E00E9480
:1043B0004F02F70181937F01F5CF2C9A81E0809322
:1043C0008B01802F8C198D1530F4F80181918F01AC
:1043D0000E944C05F6CF0E9497058FEF80938B01CA
:1043E00081E080937005C058DF4FE8E034C620912B
:1043F000EE093091EF092115310521F420911101C9
:104400003091120180910F0190911001009741F4B9
:104410008DB79EB74091130150911401841B950BE9
:104420002817390718F4821B930B089580E090E059
:10443000089582E40E944C0540E265E08091EE0917
:104440009091EF090E949B050E94970583E50E94C9
:104450004C0540E265E080911101909112010E94AB
:104460009B050E94970585E40E944C0540E265E0AB
:1044700080910F01909110010E949B050E94970569
:1044800086E40E944C05B3DF40E265E00E949B0594
:104490000C9497051F920F920FB60F9211240BB632
:1044A0000F922F933F934F935F936F937F938F93CD
:1044B0009F93AF93BF93EF93FF93809173058823EE
:1044C00039F081E795E00E94A3078093C60005C0FC
:1044D0008091C1008F7D8093C100FF91EF91BF91CA
:1044E000AF919F918F917F916F915F914F913F918C
:1044F0002F910F900BBE0F900FBE0F901F9018952D
:104500001F920F920FB60F9211240BB60F922F939A
:104510003F934F935F936F937F938F939F93AF934B
:10452000BF93EF93FF9388B190E4892788B9609196
:10453000C6008091C000887121F484EF95E00E944C
:104540008D07FF91EF91BF91AF919F918F917F91D7
:104550006F915F914F913F912F910F900BBE0F90F4
:104560000FBE0F901F90189597FF04C022E0209374
:10457000C0009F779093C5008093C40088E9809322
:10458000C10086E08093C20008958091C10085FD3E
:1045900009C080917305882329F08091C100806251
:1045A0008093C1000895E0918C04F0918D0481E026
:1045B0000995EBCF0F931F93CF93DF93EC0110E09E
:1045C000212F30E0F901EE0FFF1FE20FF31FE45738
:1045D000FF4F0491F901EE0FFF1FE20FF31FE357A6
:1045E000FF4F25913491002399F0209739F480E210
:1045F0000E944C05802F0E944C0508C088818013C2
:1046000005C0CE01F901099581E003C01F5FD8CF35
:1046100080E0DF91CF911F910F910895CF93C091CA
:104620008B0180938B018091F6058823B1F184EF93
:1046300095E00E94A3078F3FB1F3E09105038A3014
:1046400011F08D30F9F4EE2371F3F0E0EA5FFC4FE6
:10465000108286E093E0AEDF811111C085EE92E01A
:104660000E948A0586E093E00E947F058DEC92E02F
:104670000E948A0580E090E09DDF0E9497051092DD
:104680000503D1CFE7FDCFCF91E09E0F90930503B7
:10469000F0E0EA5FFC4F8083C6CFC0938B01CF91DF
:1046A0000895539A1092CD008CE08093CC00109224
:1046B000C80088E98093C90086E08093CA00E09131
:1046C0008803F0E0E757FC4F1082109287030895AB
:1046D0001F920F920FB60F9211240BB60F928F9369
:1046E0009F93EF93FF939091C8008091CE009871B3
:1046F000D1F490918703911116C08D30A1F0E09113
:1047000088038A3041F4F0E0E757FC4F108281E0E3
:104710008093870308C091E09E0F90938803F0E098
:10472000E757FC4F8083FF91EF919F918F910F90FE
:104730000BBE0F900FBE0F901F90189580918703AE
:10474000882379F08AE20E944C0589E893E00E9470
:104750007F050E949705109288031092890310929A
:104760008703089521E0FC01E20FF11D308133231E
:1047700041F04091C80045FFFCCF2F5F3093CE0041
:10478000F2CF8091C80085FFFCCF8DE08093CE00F2
:104790008091C80085FFFCCF8AE08093CE00089509
:1047A000E4E6F0E080818B7F80832F9A84B1806B78
:1047B00084B9269880E58CBD8DB581608DBD089546
:1047C0008F929F92BF92CF92DF92EF92FF920F93C0
:1047D0001F93CF93DF931F92CDB7DEB7D82EC62E8F
:1047E0007A0189012C988FEF99830E944F02BD2C8A
:1047F0008D2C9981992E882D8B198C1538F480E099
:104800000E944F02F40181934F01F5CFE114F104AE
:1048100069F080E00E944F02F701808301151105C5
:1048200029F080E00E944F02F80180832C9A0F90BB
:10483000DF91CF911F910F91FF90EF90DF90CF907C
:10484000BF909F908F900895CF93882331F010925E
:10485000A50786E30E94120307C085E30E94C302F6
:104860008D30A9F780E039C085E30E94C302C82FCC
:104870008130D1F78BE30E9412038AE30E94120376
:1048800010929A0710929C0710929B0710929E0715
:1048900010929D0726EA37E03093A00720939F07E8
:1048A0001092A107C093A2071092A30780918904D8
:1048B0008093A40760E083E00E94000362E088E048
:1048C0000E94000384E30E94120385E30E94C30256
:1048D0008D30D9F781E08093A507CF9108951F937C
:1048E000CF93DF93182F2198229810928904EA9889
:1048F000249A2C9A8EE190E00E94E2042C988EE19A
:1049000090E00E94E2042C9A8DE290E00E94E20482
:1049100080E30E94120384E690E00E94E2041130DA
:1049200031F0123009F036C0C9EFD2E02EC0C6E433
:10493000D3E0FE018491813480F01093890483E3F5
:104940000E9412038CE0EAE9F7E0DF011D928A95EC
:10495000E9F784E00E94E7041DC0FE0131966491EE
:10496000FE0184910E9400032296F4E0CE30DF071E
:1049700001F7E3CF31966491FE0184910E94000318
:104980002296F3E0C13CDF07C1F2FE01849181343D
:1049900088F3D3CFDF91CF911F910895A4E0B0E0C9
:1049A000E3EDF4E241C380918904882309F405C151
:1049B0008091A507813049F030F0823061F083307A
:1049C00009F473C0A3C081E0F7C01A9B9FC082E0C6
:1049D0008093A5079BC0199B99C020E030E040E080
:1049E00050E063E080919F079091A007E9DE20915D
:1049F000A40780919F079091A007213071F4BE0118
:104A00006F5F7F4F04D18111D3C0898180939A0752
:104A10009DD1AC0160E081E00EC040E0BE016F5F5F
:104A20007F4F3AD18111C4C0898180939A078ED17A
:104A3000AC0160E080E0A0D190939C0780939B073D
:104A400060919B0770919C07693482E0780708F0B9
:104A5000AFC086E06F3F710509F050F40E9400037B
:104A600060E088E00E94000381E08093A10702C01B
:104A70000E94000380919F079091A0070396909356
:104A8000A00780939F0780919B0790919C070397B5
:104A900090939E0780939D071092A20783E08093D6
:104AA000A50767E00E94000331C0199B2FC08091C9
:104AB0009D0790919E078F3F910509F058F48091D2
:104AC000A107811107C060E088E00E94000381E037
:104AD0008093A10720E030E040E050E06FE180915A
:104AE0009F079091A0076CDE80919D0790919E0793
:104AF0004F9790939E0780939D0780919F07909179
:104B0000A0074F969093A00780939F071A9953C0D0
:104B10008091A507823008F44EC01C821B829E0142
:104B20002D5F3F4FAE014C5F5F4F60919D078091BD
:104B30009F079091A00744DE81E08093A3078091B6
:104B4000A407813051F480919A0700D1AC0167E746
:104B500076E086EA97E024D109C080919A07F6D0E2
:104B6000AC0167E776E086EA97E08DD1892B01F505
:104B700082E60E944C0510E080917706E7D0212F55
:104B800030E02817390740F4F901E958F94F8081DE
:104B90000E940B061F5FF0CF8091970485FF06C02F
:104BA0008B810E940B068C810E940B060E94970548
:104BB0001092A50702C080E047DE2496E3E050C2D1
:104BC000FC012181223771F48281882369F08337C7
:104BD00011F481E003C0843719F482E080DE04C060
:104BE00080E0FCCF233791F080918904813029F057
:104BF000823031F48DEE92E005C083EF92E002C086
:104C000089EE92E00E948A050C9497050895CF934F
:104C1000DF93EC01A881E981CA2FC295CF70D0E063
:104C2000CB5EDE4F4881AF70B0E0AB5EBE4F2C91E3
:104C3000AE2FA295AF70B0E0AB5EBE4F8C91EF701F
:104C4000F0E0EB5EFE4F908151E02F3F09F050E025
:104C500031E04F3F09F030E0532B31E08F3F09F056
:104C600030E0352BA9F49F3F99F0D0E44D9FA0018F
:104C70001124E0E12E9F90011124242B292BF4E034
:104C80008F9FC0011124282BEB01288380E001C0F5
:104C900081E0DF91CF910895DC0111969C911197ED
:104CA000411118C012968C911297E82FEF73F0E023
:104CB000EB5CFE4F5081E92FEF7024E0E29FF001A2
:104CC00011248295869586958370E82BEB5CFE4FC8
:104CD000808102C080E050E02C91E22FE37030E14F
:104CE000E39FF001112492959F70E92BEB5CFE4F3E
:104CF000908126952695E22FF0E0EB5CFE4F208117
:104D0000E1E09F3F09F0E0E031E02F3F09F030E0C3
:104D1000E32B31E05F3F09F030E03E2B99F48F3F09
:104D200089F0E0E12E9F90011124292BFB012083C3
:104D300041110AC0F0E18F9FC0011124852BFB01B6
:104D4000818302C081E0089580E00895482F50E0FB
:104D50008A3150F09A012A51310984E0359527951E
:104D60008A95E1F72D5F01C022E0CA010196820F0A
:104D7000911D820F911D0895882331F0CA016111A0
:104D80000196880F991F0895CA01880F991F840FF3
:104D9000951F96958795611101C040FD0196089574
:104DA000A0E0B0E0E5EDF6E232C14C01EB016A01B2
:104DB000A12CB12C00E010E0612C712CE12CF12C25
:104DC000A2E14A2E512CC114D10409F450C0BE01F5
:104DD000C4011DDF81114EC082E0C816D10499F0D4
:104DE0008AE0E816F10458F0C7010A97B201E6D04C
:104DF00031E020E0892B09F030E0032F122FA114BD
:104E0000B10499F005C0A114B10491F001E010E0E3
:104E1000609470947724888190E06816790669F52B
:104E2000A12CB12C612C712C17C00115110581F03A
:104E3000930120953095232F3327888190E0281700
:104E40003907D9F4AA24A394B12C00E010E004C0DF
:104E50006881C3019DD03C0181E0C81AD1088FEF61
:104E6000E81AF80A82E0880E911C2196ACCF80E007
:104E700090E005C081E090E002C082E090E0CDB714
:104E8000DEB7E0E1E0C0A0E0B0E0E8E4F7E2C1C0F6
:104E90007C01EB013A0100E010E0C12CD12C92E141
:104EA000892E912C6114710409F46CC081E068169C
:104EB0007104D1F441E0BE01C701EEDE882319F090
:104EC00081E090E061C056018FEFA81AB80AC801CE
:104ED000809590959927288130E08217930709F4EF
:104EE0004DC082E090E050C040E0BE01C701D4DE7A
:104EF0008111E6CF82E0681A7108560182E0A80E9F
:104F0000B11C6114710451F08BE0A816B104C8F013
:104F1000C6010A97B40152D0892B99F400951095D7
:104F200098013327898190E028173907D1F6012F9E
:104F30001127888190E00817190799F600E010E022
:104F400018C0688181E06816710471F4C80120D02E
:104F50008C019C0120953095232F3327898190E087
:104F60002817390731F0BDCFC80112D0698110D0A0
:104F70008C0183E0E80EF11C229602C0612C712C9A
:104F8000650190CF80E090E0CDB7DEB7EEE05DC088
:104F900078E0AC0144275078452F5527262F2078FC
:104FA00030E0880F991F4217530721F025E682272A
:104FB0002DE39227660F715061F70895AA1BBB1B62
:104FC00051E107C0AA1FBB1FA617B70710F0A61B09
:104FD000B70B881F991F5A95A9F780959095BC012A
:104FE000CD01089597FB072E16F4009406D077FDA7
:104FF00008D0E4DF07FC05D03EF4909581959F4FE3
:105000000895709561957F4F08952F923F924F922A
:105010005F926F927F928F929F92AF92BF92CF9248
:10502000DF92EF92FF920F931F93CF93DF93CDB751
:10503000DEB7CA1BDB0B0FB6F894DEBF0FBECDBFC9
:1050400009942A88398848885F846E847D848C849A
:105050009B84AA84B984C884DF80EE80FD800C81A3
:105060001B81AA81B981CE0FD11D0FB6F894DEBF86
:105070000FBECDBFED010895CF93DF938230910530
:1050800010F482E090E0E091F009F091F10920E065
:1050900030E0A0E0B0E0309739F14081518148170D
:1050A0005907B8F04817590771F482819381109716
:1050B00029F013969C938E9312972CC09093F1092C
:1050C0008093F00927C02115310531F042175307AD
:1050D00018F0A901DB0101C0EF019A01BD01DF0158
:1050E0000280F381E02DD7CF21153105F9F0281B7F
:1050F000390B2430310580F48A819B81611571055B
:1051000021F0FB019383828304C09093F109809383
:10511000F009FE01329644C0FE01E20FF31F8193B5
:10512000919322503109398328833AC02091EE09A6
:105130003091EF09232B41F420911101309112019C
:105140003093EF092093EE0920910F013091100167
:105150002115310541F42DB73EB74091130150910F
:105160001401241B350BE091EE09F091EF09E217D1
:10517000F307A0F42E1B3F0B2817390778F0AC017A
:105180004E5F5F4F2417350748F04E0F5F1F509357
:10519000EF094093EE098193919302C0E0E0F0E0C3
:1051A000CF01DF91CF910895CF93DF93009709F45A
:1051B00087C0FC01329713821282C091F009D0910E
:1051C000F109209781F420813181280F391F8091C6
:1051D000EE099091EF098217930779F5F093EF09A3
:1051E000E093EE096DC0DE0120E030E0AE17BF07AE
:1051F00050F412964D915C9113979D014115510504
:1052000009F1DA01F3CFB383A28340815181840F86
:10521000951F8A179B0771F48D919C911197840FAC
:10522000951F02969183808312968D919C9113977E
:10523000938382832115310529F4F093F109E093DA
:10524000F0093EC0D9011396FC93EE9312974D914D
:105250005D91A40FB51FEA17FB0779F48081918156
:10526000840F951F0296D90111969C938E9382818B
:10527000938113969C938E931297E0E0F0E08A81DD
:105280009B81009719F0FE01EC01F9CFCE01029647
:1052900028813981820F931F2091EE093091EF0907
:1052A0002817390769F4309729F41092F109109200
:1052B000F00902C013821282D093EF09C093EE0965
:1052C000DF91CF910895F999FECF92BD81BDF89AF3
:1052D000992780B50895262FF999FECF1FBA92BD60
:1052E00081BD20BD0FB6F894FA9AF99A0FBE0196C7
:0652F0000895F894FFCFC1
:1052F6000210B07106000401A4016C02D804060075
:1053060000F2092000FFFFFFFFFF0302FFFF01007D
:10531600FFFFFFFFFFAAA9A6A59A9996956A696657
:10532600655A595655FFFFFFFFFFFFFFFFFFFFFFBF
:1053360003FF0102FFFFFFFF07FFFF00FFFF050658
:10534600FF04FFFFFFFFFFFF0BFF090AFFFF0FFF31
:10535600FF08FFFFFFFF0D0EFF0CFFFFFFFFFFFF24
:10536600FFFFFFFFFF160D0E0B1C191A132C252627
:085376002334313229323100E9
:00000001FF
