:10000000C9C10000E5C10000E3C100000C946B13FE
:10001000DFC10000DDC10000DBC10000D9C100006C
:10002000D7C10000D5C10000D3C10000D1C100007C
:10003000CFC100000C940413CBC10000C9C1000063
:10004000D4C30000C5C10000C3C10000C1C100008D
:100050000C94B4210C947E21BBC10000B9C10000F6
:10006000B7C10000B5C10000B3C10000B1C10000BC
:100070000C949C22ADC10000ABC10000A9C10000DE
:10008000A7C10000A5C10000A3C100006D4D214221
:100090001A0762142543CA02461F096969174120DD
:1000A0000B5A6C0D4722094D5A095994195288066A
:1000B00054C71C567F0757C80658F90E653F076698
:1000C00083202AE6226C090774590475B815785DF7
:1000D00003000000202F2000203D2000072E050DEA
:1000E000D391FF080500000C0021656A2D3B132207
:1000F000F862073F181D1CC700B0876BF8B611EAFD
:100100002A001F41000D2E2D07D3913D043200001F
:10011000060021656A55E43023B900070018146C05
:10012000070090876BF85611E92A001F4100000371
:100130000F1E2627000000030F1E25363867000318
:100140000F256740605000030F275188838100030B
:100150000F2750C8C3C2002700000000000000673E
:1001600000000000000000500000000000000081BE
:1001700000000000000000C2000000000000504C21
:100180004C310D0A00504C4C300D0A005620312ED7
:1001900036332043534D383638005620312E36330F
:1001A0002043534D34333300202F2000203D2000C6
:1001B0004C4F56460D0A000B08105B11F8154719F5
:1001C0001D1A1C1BC71C001DB221B623EA00070222
:1001D0002E030D04E905CA070C0B060D210E650F51
:1001E0006A10C81193120315341733181819161B07
:1001F0004321562500261129592C812D353EC34C0B
:10020000454E4552520D0A004C4F56460D0A004CC1
:10021000454E4552520D0A000007024604C6052607
:100220000B0610C81193120313221534173F182818
:1002300019161B432156250026110D210E650F6A44
:10024000070C160720F81E871F6B29592C812D35A6
:100250003EC3FF00424F56460D0A000D2E2D07D318
:10026000913D04320000060010B07155E43023B90E
:1002700000070018146C070090876BF85611E92AE4
:10028000001F41000D2E2D07D3913D0432000006C2
:100290000010ABA5550A3023B900070018146C07ED
:1002A0000090876BF85611E92A001F41004E2F413C
:1002B00000454F420D0A004E2F41004E2F410000D5
:1002C000535300547D7DFFFF4B4B7E7E00206973AE
:1002D00020756E6B6E6F776E2920557365206F6E7B
:1002E00065206F66003F2028004F464600544D4F62
:1002F000444500534D4F4445000454053D1700004C
:100300000602000B080C000D210E6B0FD0105C11C3
:10031000041206132214F80A00154421B6221018FC
:1003200018192E1ABF1B431C091DB523EA242A25C0
:1003300000261F29592C812D352E09070408000994
:100340000006FF3EC2FF0476059617000006020075
:100350000B080C000D210E650F6A106A114A120677
:10036000132214F80A00154721B622101818192E66
:100370001A6D1B041C091DB223EA242A2500261F1E
:1003800029592C812D352E0907040800090006FF84
:100390003EC2FF0011241FBECFEFD0E4DEBFCDBFB1
:1003A00011E0A0E0B1E0EEE5F1E500E00BBF02C036
:1003B00007900D92A838B107D9F729E0A8E8B1E075
:1003C00001C01D92A13FB207E1F703D00C94AD2804
:1003D00017CE88E10FB6F894809360001092600009
:1003E0000FBE3E9A469A179A169A0E94042374D515
:1003F00089EF87BD84E085BD82E084BD80936E0077
:10040000109280008AE08093810090E080E80FB62F
:10041000F89480936100909361000FBE84B7877F4A
:1004200084BF2FE088E190E00FB6F894A895809300
:1004300060000FBE2093600089E190E80E94E821EF
:100440000E94852287B18C7F87B988B18C7F88B95B
:100450000E94671C0E94D30E82E492E290938D0466
:1004600080938C0481E080938B010E94DC14809146
:100470008B01886080938B01469878940E940722B4
:100480000E94BF102CD20E94C9200E945A16C2D7C7
:100490000E94FA0C0E94D2220E940224EFCF8EBD4D
:1004A0000DB407FEFDCF8EB50895A1E0B0E0EBE5F9
:1004B000F2E00C944527482F8A3008F048E088E0A5
:1004C000489F70011124F701E25DFE4F7F018BE22E
:1004D00090E0F70164918C010F5F1F4F4983FAD3BD
:1004E000FFEFEF1AFF0A49810333110511F0C8012C
:1004F000F0CF4550453010F461E101C067E184E27E
:1005000090E0E8D32196E6E00C946127CF93DF9347
:1005100082E090E0FC01ED5FFE4F6491EC012196DA
:10052000D9D3CB32D10511F0CE01F4CF87E390E0DF
:10053000FC01EB55FF4F6491EC012196CBD3C03603
:10054000D10511F0CE01F4CF079918C060E18FE01A
:1005500090E0C0D360EB80E190E0BCD361E781E143
:1005600090E0B8D360E184E490E0B4D360EB85E43C
:1005700090E0B0D361E786E490E0ACD388E095DF0B
:10058000DF91CF9108952C98806C89DF80E087DF20
:100590002C9A0895A1E0B0E0E0EDF2E00C94482739
:1005A00041E0BE016F5F7F4F019639D3892B21F166
:1005B0008981893969F410E0812FE5DF2CD3812FFF
:1005C0008770873009F4B3D21F5F1033A9F714C0C6
:1005D000DADF182F83E460D289811DD388ED90E0A3
:1005E00099D2812F18D384ED90E094D240E262E05A
:1005F000812F90E0A0D29BD22196E3E00C94642757
:10060000A1E0B0E0E6E0F3E00C9449272C98806488
:10061000698345DF6981862F42DF2C9A2196E2E0CB
:100620000C9465272C983BDF2C9A0895EF92FF924B
:100630000F931F93CF93DF93EC0110929301EA98ED
:10064000249A2C9A8EE190E0BDD12C988EE190E016
:10065000B9D12C9A8DE290E0B5D180E3E3DF84E656
:1006600090E0B0D12C9880E41ADF7E0189E2E80E98
:10067000F11C8E010F5F1F4FCE0131D310DF0E151D
:100680001F0511F0E801F5CF2C9A2C988EE707DFB3
:100690008BE290E0EC01219622D301DFC333D10538
:1006A00011F0CE01F7CF2C9A83E3BCDF81E08FD12C
:1006B000CDB7DEB7E6E00C946127A1E0B0E0E3E659
:1006C000F3E00C94492722E0298341E0BE016F5FEB
:1006D0007F4F0196A4D28981E8DE82E090E0A6DF18
:1006E0002196E2E00C946527CF93EA9886E39ADF9F
:1006F000CFEF85E397DFC1508077803229F08AE021
:1007000090E060D1C111F5CFCF910895CF93CFEF95
:1007100084E388DFC1508077803129F08AE090E05F
:1007200051D1C111F5CFEA9ACF91089586E37ADFCE
:1007300010928E041092910110929301089582E01C
:1007400090E074DF81E080938E041092910110920A
:10075000930108950F931F93CF93DF93082F10E019
:10076000C62FD0E085E30FDF801731F0CE012AD10C
:100770001150C1F781E001C080E0DF91CF911F915E
:100780000F91089585E2FFDE8F3311F080E0089528
:1007900086E348DF80918801811104C085E891E0FB
:1007A000B9D102C08DE33EDF83E33CDF64E081E04A
:1007B000D1DF85E2E8DE8F3349F78091880181112E
:1007C00003C08EE791E0A6D181E0089585E3DBDEEA
:1007D0008D3051F485E2D7DE8F3331F4D3DF84E3FB
:1007E00021DF80778031D9F708951F920F920FB6DD
:1007F0000F9211240BB60F928F939F93AF93BF93D9
:10080000EF93FF938091900490919104A0919204B2
:10081000B09193040196A11DB11D80939004909313
:100820009104A0939204B093930480918F048F5FFE
:1008300080938F04E1E3F5E0808191811816190619
:100840001CF4019791838083369685E0E934F8079C
:1008500099F780914B0590914C05009729F00197ED
:1008600090934C0580934B0580915E058F3F19F066
:10087000815080935E05FF91EF91BF91AF919F9161
:100880008F910F900BBE0F900FBE0F901F90189579
:100890002FB7F89440919004509191046091920484
:1008A00070919304FC0140835183628373832FBF53
:1008B0000895A4E0B0E0EFE5F4E00C944927CE0100
:1008C0000196E6DF8C81A7D18B81A5D18A81A3D146
:1008D0008981A1D12CD12496E2E00C9465271F9345
:1008E000CF93DF938091900490919104A091920412
:1008F000B091930420918A01281709F45FC0809178
:10090000900490919104A0919204B09193048093EB
:100910008A01A895C1E3D5E010E028813981232B15
:1009200019F4812F0E94F61E1F5F26961430A9F736
:1009300080914B0590914C05892B11F40E94521F18
:1009400080915E05811102C00E94AE1F8091220538
:10095000882339F0815080932205811102C00E94C2
:10096000ED1680918F048D3748F110928F0480919D
:10097000000181FF04C088B190E4892788B9809183
:10098000940490919504843823E0920728F401960A
:100990009093950480939404809189018F5F809354
:1009A00089018C3359F410928901809130058F5F51
:1009B000809330058C3310F010923005DF91CF9189
:1009C0001F910895880F991F0197F1F7089520ED61
:1009D00037E0815020F0F9013197F1F7FACF08950F
:1009E000CF93DF93DC0113968C911397843509F034
:1009F00050C0CD010396CC91FD0170964DE04C178F
:100A000050F050E0D0E09E012F50310942175307BB
:100A100009F03FC005C021912B3399F34F5FEFCF11
:100A2000FE013E97E80FF91F2081243591F51496B9
:100A30003C911497218132132CC015963C91159747
:100A40002281321326C016963C91169723813213C9
:100A500020C017963C911797248132131AC06197D2
:100A6000C80FD91F858188838681898381858A8380
:100A700082858B8383858C8384858D8385858E8316
:100A80008C918A508C9312968C9112978A50129660
:100A90008C93DF91CF910895CF93C82F80918B01D4
:100AA00080FF0EC0809172058E3730F087FD08C040
:100AB000CD3011F0CA3021F46C2F80E795E02DD2B3
:100AC00080912D058823C9F080918B0183FF15C08B
:100AD000CA3099F0CD3011F46BE301C06C2F8DE971
:100AE00094E01BD2CD3019F48DE994E079DF83E0F6
:100AF0008093220582E080932805CF910895CF93BB
:100B0000DF93EC018991882311F0C6DFFBCFDF91E1
:100B1000CF910895CF93DF93EC01FE018491882358
:100B200019F0BADF2196F9CFDF91CF9108958DE0CA
:100B3000B3DF8AE0B1CFA6E0B0E0E1EAF5E00C94E3
:100B40004727062F1E8215E02AE030E01150E1E031
:100B5000F0E0EC0FFD1FE10FF11DB9010E9412271B
:100B6000805D8083CB010150009769F01111EECFB9
:100B70000AC0112359F01150E1E0F0E0EC0FFD1F25
:100B8000E10FF11D4083015007FFF3CF81E090E0BA
:100B90008C0F9D1F810F911DB2DF2696E4E00C940F
:100BA0006327A5E0B0E0E7EDF5E00C9449271D824E
:100BB00024E0382F3F702150E22FF0E03A3010F45B
:100BC000305D01C0395CA1E0B0E0AC0FBD1FEA0FA1
:100BD000FB1F308334E0969587953A95E1F7615095
:100BE000009739F7615067FD0BC0222349F021506F
:100BF000E1E0F0E0EC0FFD1FE20FF11D4083F2CFCA
:100C000081E090E08C0F9D1F820F911D78DF25966B
:100C1000E2E00C94652740E362E090E0C2CFDC01A3
:100C2000FB0130E090E08D918823A9F0813608F037
:100C3000805220ED280F2A3030F02FEB280F26307D
:100C400030F429EC280F292B332379F006C08032A9
:100C500051F38A3341F3CF0105C0CF0101962083C0
:100C6000415041F4861B970B0895922F9295907FE7
:100C700031E0D9CFFC01D5CF20E030E05AE0FC01D3
:100C80004191CF01442379F0E0EDE40FEA30B8F769
:100C9000F9015E9F90015F9F300D112420533109AF
:100CA000240F311DECCFFB01318320830895982F51
:100CB00092959F709A3010F4905D01C0995CFB0191
:100CC00090838F708A3010F4805D01C0895CFB01D5
:100CD000818308950E949F28F999FECF08950C946E
:100CE000972808951F93CF93DF93162F11501F3F1E
:100CF00059F0EC012196F3DF8EDF112311F08AE326
:100D0000CBDE1150CE01F3CFDF91CF911F9108952B
:100D1000A2E0B0E0EEE8F6E00C944627FC01218169
:100D20002D3421F466E08AEF9FE005C0203529F4D8
:100D300060E18AED9FE0D6DF26C01A82198242E088
:100D4000BE016F5F7F4F01966ADF098110E082303C
:100D500021F4102F00278A81082BC801C0DFF82E4C
:100D600082E59ADE40E364E0C8011BDF8CEA91E093
:100D7000D1DE8F2D50DF88EA91E0CCDE40E262E0E8
:100D80008F2D90E0D8DED3DE2296E5E00C9462272A
:100D9000A6E0B0E0EEECF6E00C9443276C0143E0F3
:100DA000BE016F5F7F4F01963ADF823070F1E980BC
:100DB000F12C823021F0FE2CEE242A81E22A8C01D3
:100DC0001127FE01E00FF11F6081C70183DF000FD3
:100DD000111F0F5F1F4F0C0D1D1D8FEFE81AF80A32
:100DE000F8018081882389F041E0BE016F5F7F4F69
:100DF000C80115DF892B49F06981C7016BDF0E5FE0
:100E00001F4FE2E0EE0EF11CEBCF2696E8E00C94CB
:100E10005F2741E060E071E0019601DF8091000111
:100E200080FF02C0469A01C046986091000184E3A9
:100E300090E050CFA1E0B0E0E0E2F7E00C94492769
:100E40001982009731F041E0BE016F5F7F4F01963C
:100E5000E6DE8981882321F061E083E390E03ADFD8
:100E600010926E00F89428E088E190E00FB6F894B4
:100E7000A895809360000FBE20936000FFCFCF93B2
:100E8000DF93EC0161E080E090E024DF6FE381E03C
:100E900090E020DF3BDB60E080E690E01BDF60E07D
:100EA00081E690E017DF60E083E390E013DF62E02B
:100EB00084E390E00FDF60E080E690E00BDF60E02D
:100EC00081E690E007DF8981883719F080E090E0C3
:100ED000B1DFDF91CF91089580E090E000DF8130B5
:100EE00029F481E090E0FBDE8F3319F080E090E0A0
:100EF000C6DF84E390E0F3DE809300010895079954
:100F000003C08AE991E002C08CE891E003DE0FCED5
:100F1000FC011282108211820895FC018FB7F894AF
:100F2000928197FD0EC09F5F9283208191E0920F86
:100F30009083DF01A20FB11D13966C93903809F4D2
:100F400010828FBF0895FC019FB7F8948281882397
:100F500071F081508283818121E0280F2183DF019C
:100F6000A80FB11D13968C91203809F411829FBFF0
:100F70000895FA013081882369F0E1E0F0E0022E63
:100F800001C0EE0F0A94EAF7DB01A30FB11D9C919B
:100F90009E2B9C93222319F08FEF820F0BC081E0D0
:100FA000830F8C3010F4FA018083FB01E80FF11DF0
:100FB000108287E090E00895CF93C82F299A882364
:100FC00019F080918E0102C08091900120E1829FF2
:100FD000C0011124F7DC2998CC2319F080918D01F0
:100FE00002C080918F0120E1829FC0011124EADCC0
:100FF000CF910895A3E0B0E0E0E0F8E00C94392749
:101000005C01162F622E842F90E09B838A832091AF
:101010009404309195040296089F802D11249927FD
:1010200087FD90952817390720F480EB91E072DD59
:101030007CC0281B390B3093950420939404469A66
:1010400080919301882341F01092930185E891E00B
:10105000D0D6FF24F39401C0F12C80918E0481112D
:1010600001C06DDB41DB812E912CCC24C394D12CAB
:10107000712C512C852D992787FD90958815990500
:1010800024F480E099DF5394F5CF112311F081E02F
:1010900093DF20E0422E552447FC5094EA81FB81E7
:1010A0004E165F062CF097E0392E4A0C5B1C1AC0D6
:1010B00087E0282E312C4A0C5B1CC601022C01C093
:1010C000880F0A94EAF7F20190818923298374DF5B
:1010D000F1E02F1A310829818FEF2816380669F7B9
:1010E0002F5FD8CF832D992787FD909568167906B5
:1010F00064F4C601032C01C0880F0A94EAF7F201D8
:101100009081892359DF3A94EDCF8E2D60DC015018
:1011100009F0AFCF80919604882311F0F7DA02C06E
:1011200086E380DAF110A4D246982396E2E10C948B
:101130005527ADE0B0E0EFE9F8E00C943C277C01E6
:10114000162F842F022F6701C60ED11C462FB70120
:1011500069D6D6018C931F5F1D8619825E2C6701AC
:1011600027E066246394712C8C2D8519811788F5EE
:1011700047E0A42EB12C4701880E911CF3010A2CE4
:1011800001C0EE0F0A94EAF7D4018C91AE01435FDF
:101190005F4FBE016F5F7F4F8E23EBDE282FB1E0E4
:1011A000AB1AB10858F7D6018D916D01082E8295C2
:1011B0008025082E8695869580258F5F869581707F
:1011C000AE01435F5F4FBE016F5F7F4FD2DE282FBE
:1011D000CBCF222311F0215004C08D858F5F8D87E6
:1011E00027E089E180938F018093900185E28093CD
:1011F0008D0180938E013AE0E32E4D856CE0CE01A7
:101200000196F8DE2D96EFE00C945827ADE0B0E0A3
:10121000ECE0F9E00C944827162F242F4BE0BE0198
:101220006F5F7F4F01962D87FADC2D85412F682F48
:10123000CE0101967EDF2D96E3E00C94642743E017
:1012400066E0E4CFEF920F93CF93DF93CDB7DEB795
:1012500060970FB6F894DEBF0FBECDBF40E1BE0170
:101260006F5F7F4F0196DBDC69814A810B818C8146
:10127000809390018D8180938F018E8180938E0168
:101280008F8180938D01E02EE2947FE0E7220F7042
:10129000242F2F7042954F70CE010896ABDE6096DA
:1012A0000FB6F894DEBF0FBECDBFDF91CF910F9187
:1012B000EF900895A9E1B0E0E0E6F9E00C94412751
:1012C0004BE0BE016F5F7F4F0196A9DC182F89307C
:1012D00009F05AC099E190938F01909390019093F7
:1012E0008E0182E380938D0169E0CE010196A4D541
:1012F000E1E0F0E0EC0FFD1FE10FF11D8083198E9E
:101300001D86CE0101967C016E019BE0C90ED11CA9
:1013100027E0AA24A394B12CEC14FD0429F100E0E9
:1013200010E0F501002E01C0EE0F0A94EAF7D70194
:101330008C91AE01475E5F4FBE01635F7F4F8E238E
:1013400018DE282F0F5F1F4F0830110551F7AE012F
:10135000475E5F4FBE01635F7F4F81E00ADE282F4B
:10136000BFEFEB1AFB0AD8CF222311F0215004C0A3
:10137000898D8F5F898F27E0EAE0EE2E03E0498DAB
:101380006CE0CE010D9636DE6996EAE00C945D279E
:10139000CF93DF93EA98249A2C9A8EE190E012DBA7
:1013A0002C988EE190E00EDB2C9A8DE290E00ADB27
:1013B00080E338D984E690E005DBCDECD1E0FE0196
:1013C00031966491FE0184911BD92296F1E0CF3FC2
:1013D000DF07A9F780919201811105C083E322D92B
:1013E00084E0F5DA0EC0C7EBD1E0FE0131966491DE
:1013F000FE01849105D92296F1E0CD3CDF07A9F7E3
:10140000EDCF84E30FD985E3BED88D30D1F7DF91DE
:10141000CF910895A2E3B0E0E0E1FAE00C94472711
:1014200080919101882309F48AC01A9B79C08FE3C7
:10143000AAD88F778983823348F08AE3F3D886E38A
:10144000F1D88DE3EFD884E3EDD879C02C988FEFF5
:1014500026D810E08981181758F480E020D8E2E0FF
:10146000F0E0EC0FFD1FE10FF11D80831F5FF2CF55
:1014700080E015D8082F80E012D82C9A84E3D2D8C7
:1014800085E381D88D30D1F72A8196E792279A8318
:1014900092E08981E92FF0E0981768F441E050E08C
:1014A0004C0F5D1FE40FF51F30812452232720834A
:1014B0009F5F232FEECF81E090E08C0F9D1FE80F00
:1014C000F91F90818B81982790838091960484FFE7
:1014D00010C081E6E1DA10E08981811708F1E1E0CE
:1014E000F0E0EC0FFD1FE10FF11D8081D5DA1F5FE9
:1014F000F3CF81E4D1DA10E08981811750F0E1E087
:10150000F0E0EC0FFD1FE10FF11D808184DB1F5F18
:10151000F3CF8091960485FF02C0802F7CDB07DB30
:1015200085E331D8813021F0813141F48AE37AD8E2
:1015300086E378D88DE376D884E374D847D9E296E9
:10154000E4E00C946327A2E3B0E0E9EAFAE00C944B
:10155000432741E38E010F5F1F4FB80101965FDB08
:101560006C019C01332721503109898190E02817B3
:10157000390709F061C080919101811103C008DF32
:1015800083E025DAFB808A8196E789278A8392E0C7
:101590008981292F30E0F801E20FF31F981750F4EA
:1015A000DE01A20FB31F8C91845220818227808399
:1015B0009F5FEECF80818F25808385E333D885E3DD
:1015C0000E94C3028331C9F7F4FE06C088E7FFD941
:1015D00088E7FDD988E701C08AE0F9D92C988FE720
:1015E0000E944F0278018E2D801B8C1530F4F7017C
:1015F00081917F010E944F02F6CF2C9A85E30E94D1
:10160000C3028331D9F385E30E94C302863131F4EA
:101610008BE308D886E306D88DE304D88091910146
:10162000882349F084E30E94120385E30E94C302E9
:101630008D30C1F701C0CED3E296E8E00C945F276D
:10164000FC012181223731F0223559F481E0809369
:10165000920102C0109292019BDE81E08093910181
:101660000895233711F401966ECF109291010895D9
:10167000CF93DF93EA98249A2C9A8EE190E0A2D936
:101680002C988EE190E09ED92C9A8DE290E09AD928
:1016900080E30E94120384E690E094D9C8E1D2E08E
:1016A000FE018491813438F083E30E94120384E0C8
:1016B0008ED9CFEF0DC0FE0131966491FE01849169
:1016C0000E9400032296F2E0C435DF0749F7ECCF11
:1016D00084E30E9412038AE090E074D9C150C1F7FC
:1016E00081E080939301DF91CF910895EF92FF9273
:1016F0000F931F93CF93DF93EC018B01F880F3944A
:101700006115710519F0E4E6F0E002C0E0E0F0E0F8
:1017100028E0F29EC00111246AE070E00E942627B2
:101720009B012E0F3F1FC901AA2797FDA095BA2F35
:10173000E0919404F0919504AF0160E070E04817E7
:1017400059076A077B0720F488E092E0E3D9C3C019
:10175000E21BF30BF0939504E093940480919301C2
:10176000811101C085DF85E30E94C3028D3051F0F5
:101770008AE592D985E490D982E58ED982E58CD923
:1017800081E347C08091940190919501A0919601C9
:10179000B0919701892B8A2B8B2B29F50E9474031A
:1017A00085E30E94C302833109F43BC08AE574D902
:1017B00085E472D982E570D982E56ED982E329C0C9
:1017C0008091900490919104A0919204B09193041F
:1017D0004F5F5F4F6F4F7F4F84179507A607B7077F
:1017E000E9F681E0F4D88091900490919104A09161
:1017F0009204B091930440919401509195016091AD
:1018000096017091970184179507A607B707C1F64F
:10181000E8CF42D985E30E94C302FDD988D928DFE9
:101820005AC0012B41F42C988FE70E944F02EC2EF6
:101830000C2F1D2F0AC00AE010E084E6C8D8015022
:10184000110901151105C9F7EECF802F8E198F15DB
:1018500030F4F80181918F010E944F02F6CF2C9A4B
:10186000C8EC85E30E94C3028D30B1F485E30E9489
:10187000C3028D30D9F08AE50FD985E40DD982E510
:101880000BD982E509D983E307D985E30E94C30216
:10189000C2D94DD9EDDE0AC085E30E94C30283316F
:1018A00029F781E094D8C150E1F6E0CF809193010F
:1018B000811101C08FD28091900490919104A091E8
:1018C0009204B09193048093940190939501A09316
:1018D0009601B0939701CDB7DEB7E6E00C9461278F
:1018E000ACE0B0E0E6E7FCE00C944827FC018BE0BC
:1018F000898381818A831B8282E08C8387818D83A7
:1019000080858E8381858F8384818887858189877F
:1019100086818A871B861C8684E159D860E070E046
:10192000CE010196E3DE8AE5B7D810E0812F90E082
:10193000298130E02817390754F0E1E0F0E0EC0F9E
:10194000FD1FE80FF91F808166D91F5FEFCF8091DF
:10195000960485FF02C080E05ED9E9D82C96E3E0CA
:101960000C946427CF93DF93EC0180919B0181114C
:1019700008C090919C01911104C090919D01992300
:10198000A9F09B81903319F09F7E903479F49F8168
:1019900098130CC0988580919C01981307C0998575
:1019A00080919D01981302C0CE019ADF8091980129
:1019B000811108C090919901911104C090919A01F0
:1019C0009923A9F098819B3091F49B81903479F40C
:1019D0009F8198130CC0988580919901981307C036
:1019E000998580919A01981302C0CE0179DFDF9129
:1019F000CF910895AEE1B0E0E0E0FDE00C94472720
:101A000080919301882309F463C01A9B53C08FE32C
:101A10000E94C3028F778E3108F08DE189832C9864
:101A20008FEF0E944F0210E08981181760F480E068
:101A30000E944F02E2E0F0E0EC0FFD1FE10FF11D0C
:101A400080831F5FF1CF80E00E944F02082F80E06B
:101A50000E944F022C9ACE01019684DF8091960459
:101A600084FF10C08AE718D810E08981811780F1BF
:101A7000E1E0F0E0EC0FFD1FE10FF11D80810CD8DB
:101A80001F5FF3CF8AE508D810E08981811750F0F5
:101A9000E1E0F0E0EC0FFD1FE10FF11D8081BBD80C
:101AA0001F5FF3CF8091960485FF02C0802FB3D8CB
:101AB0003ED80EC085E30E94C302813149F48AE317
:101AC0000E94120386E30E94120384E30E94120321
:101AD0006E96E4E00C946327AEE1B0E0E2E7FDE04F
:101AE0000C9447278C01FC018181823711F4C0DD01
:101AF00034C0833711F08636F9F44DE1BE016F5FD3
:101B00007F4FC80102968BD899270197298130E031
:101B10008217930729F08FEF91E00E948A051DC07C
:101B200061E070E0F8018181833711F060E070E0DE
:101B3000CE010196DBDD11C0813621F443E06BE973
:101B400071E005C0873739F443E068E971E0C80106
:101B5000029665D802C0109293016E96E4E00C9450
:101B600063278F929F92AF92BF92DF92EF92FF9284
:101B70000F931F93CF93DF931092B9011092CE0170
:101B8000FC012181220F220F220F3381231B57E0FA
:101B9000520F1092BA0110E070E038E0D32ED20E4E
:101BA000FF24F39447E007E0E12CC7E0D0E0A1E098
:101BB000B0E0FD1409F47FC0FC01EE0DF11D24819D
:101BC00030E0002E02C0359527950A94E2F7217087
:101BD0003327E22F002311F0015002C0E39407E005
:101BE0006B3471F4433009F04AC0111107C0E111A0
:101BF0005FC01092B9017093CE0174C010E041C073
:101C00004F3F31F56634A9F4E72FF0E0E654FE4F7C
:101C1000E0810E2EE295E0250E2EE695E695E02574
:101C2000EF5FE1FB882480F8912C8216930641F047
:101C300004C0653429F4E11103C01093B901DBCF6E
:101C40007F5FE72FF0E0E654FE4F108247E031C09F
:101C5000EE2361F1663471F4E72FF0E0E654FE4FB5
:101C6000A0809D01042E01C0220F0A94EAF7A22A47
:101C7000A0821CC0653439F06B34C1F404C04F3FFE
:101C8000D1F2EE2399F0E72FF0E0E654FE4F9E01EB
:101C9000241B310947FD33955D0102C0AA0CBB1C12
:101CA0002A95E2F795013081322B3083415001C0F3
:101CB00011E0F3947ECF1093B9017093CE015F15BC
:101CC00088F4653431F44F3F21F47F5F7093CE0187
:101CD00004C08091B9018111F8CF81E09091CE01CB
:101CE000911101C080E0DF91CF911F910F91FF9082
:101CF000EF90DF90BF90AF909F908F9008951092DB
:101D00006F00E091D1018CE1E89FF0011124EE52C7
:101D1000FE4F10820895FC012181243108F0EFCF9D
:101D20003381662381F081E090E0032E01C0880FAB
:101D30000A94EAF7DF01A20FB11D14969C91149743
:101D4000982B14969C93332319F0315033830895C4
:101D500087E083832F5F2183E20FF11D14820895B2
:101D6000DC011196EC911197F0E050E02C91CF013D
:101D7000841B950B0B964797A0F430E070E0C901E7
:101D8000861B970B0B96479760F42E0F3F1F640F2F
:101D9000751F261B370B255F3F4F81E0273131052B
:101DA00008F080E00895219A29982298E9E6F0E069
:101DB00080818061808382EC91E090939504809390
:101DC00094041092EE0110920A02109226021092D0
:101DD0008E0408958091890481110AC0809196042F
:101DE000882321F00E949F030C9486030C94960391
:101DF0000895FC01218121110EC0809196040E945A
:101E00000B0640E265E080919404909195040E9455
:101E10009B050C94970541E066E974E001960E94E9
:101E20000F06D8CF442339F04150FB01E40FF11DD8
:101E30009081890FF7CF089520E0662339F0615033
:101E4000FC01E60FF11D30812327F7CF822F089583
:101E5000A091B90140E035E020E0662399F061509F
:101E6000FC01E60FF11D5081752F72957F702727B9
:101E7000370FAA2311F0442319F05F702527350F7F
:101E80004F5FEBCF320F40E1349FC0011124822B12
:101E90000895FC0132812381A081B181A30FB11D7E
:101EA0008C9190E0022E02C0959587950A94E2F7F6
:101EB000817099274FEF420F4383211104C03F5F88
:101EC000328327E023830895A2E0B0E0EAE6FFE052
:101ED0000C9441277C01A12CB12CD12CCC24C3948F
:101EE000062F10E001501109A616F0F4C7014A832D
:101EF0006983CFDF4A816981882391F0442349F0C7
:101F000098012A193B098C2D01C0880F2A95EAF700
:101F100006C08C2D0A2C01C0880F0A94EAF7D82A33
:101F20008FEFA81AB80AE0CF8D2D2296EAE00C9424
:101F30005D27A4E0B0E0EFE9FFE00C9440271B82AE
:101F400027E02C839C012C5F3F4F3A83298310921A
:101F5000CE01FC012181338187E090E0831B910950
:101F6000F8E02F9F800D911D1124853491050CF40C
:101F70004EC0B12CA090CE01F5E0FA1558F10A2D13
:101F800010E040E068E0CE0101969EDF06541E4F4F
:101F9000F8018083982E092C92949024092C969411
:101FA00096949024CE01019674DF939491FACC24F8
:101FB000C0F8D12C90E0C816D90649F5CE0101969B
:101FC00068DF811124C0F8018081B826A394A09213
:101FD000CE01D0CF40E068E0CE01019675DF082F3A
:101FE000182F012E12951025012E169516951025E5
:101FF000CE0101964EDF1F5F11FBEE24E0F8F12CBD
:10200000282F30E0E216F30611F481E0B01280E0F0
:102010002496EBE00C945C27A5E0B0E0E2E1F0E16F
:102020000C944427FC011B8287E08C83CF0104962B
:102030009A8389831092CE018081853009F04FC048
:102040002181338187E090E0831B910938E0239F51
:10205000800D911D11248039910509F040C00FE0D9
:1020600010EF29E88091CE01E82EF12CDD24D394E5
:10207000D80E41E068E08F3088F4CE0101962D83C0
:1020800023DF080F111DF701E654FE4F2D8128278D
:10209000208324E2280FD092CE01E4CFCE01019616
:1020A00013DF080F111DD092CE01F701E654FE4F49
:1020B0008095808341E068E0CE01019605DF90E0E5
:1020C000982F8827081B190B41E068E0CE01019684
:1020D000FBDE282F30E081E00217130709F080E0D3
:1020E0002596E7E00C946027A4E0B0E0EAE7F0E191
:1020F0000C9446271B8227E02C839C012C5F3F4FCA
:102100003A832983FC0121812430A1F58381813028
:1021100089F51092CE018091CE01082F10E0FF24A6
:10212000F394F80E41E0843098F4811106C067E022
:10213000CE010196C9DE806804C068E0CE01019638
:10214000C3DEF801E654FE4F8083F092CE01E3CF68
:1021500067E0CE010196B8DEF801E654FE4F880F25
:102160008083F092CE019091BA0192959F7081E0A8
:102170009A3009F080E02496E5E00C946227A0E014
:10218000B0E0E5ECF0E10C94432780919E018823B8
:10219000B9F18091960487FF17C084E30E94C302BF
:1021A0008058803458F0803C58F490E08055910974
:1021B00053E0959587955A95E1F703C080E001C0FB
:1021C0008FE08F590E944C058091960483FF16C0C2
:1021D00082E70E944C058091960484FF04C08091A0
:1021E0009F010E944C0586E60E944C058091960452
:1021F00084FF04C080919E010E944C0510929E01B4
:102200008091CF01882309F4FAC1469AC091D00188
:102210002CE1C29FE0011124CE52DE4FCE01FCDE44
:10222000811147C066E4CE019CDC882339F110910E
:10223000CE0111501093CE01412F6AEB71E086E080
:10224000F1DDE12FF0E0E654FE4F0081801302C083
:10225000143088F5282F30E02F5F3F4F602F70E05B
:102260002617370721F4143010F0808324C0412F43
:102270006AEB71E08CE0D6DD801731F065E4CE01C9
:1022800070DC811105C019C01430C0F304E5FFC033
:102290008091CE0181508093CE01893071F469E044
:1022A0008AEB91E0C9DD9091C301891306C005E472
:1022B000EEC003E5ECC006E4EAC0CE013ADE8823B6
:1022C00011F008E4E4C0CE010FDF882311F004E729
:1022D000DEC0E0909F018E01065E1F4F4B8D6E2D7C
:1022E000C8013EDD682FCE0116DD6BE4CE0139DC7E
:1022F0008823A1F0F090CE01FA94F092CE016F2DD8
:102300008AEB91E0A5DDEF2DF0E09091B901E91B9A
:10231000F109E654FE4F9081891741F08B81873097
:1023200039F41B8289818150898304C00BE4AFC0DA
:102330008F5F8B838981843039F58B81843021F5DF
:102340004EE16CE3CE0148960BDD8823E9F04EE1C7
:102350006E2DC80105DD682FCE01DDDC20E0822F67
:1023600090E0FC01E654FE4FDE01A80FB91F149661
:102370008C91808381E0820F853010F4282FEFCF7D
:102380008093CE0102E583C000E08091960482FF35
:1023900065C080E70E944C05888140E262E090E0E1
:1023A0000E949B05888D40E265E0F0E18F9FC001AF
:1023B00011240E949B05898D40E265E020E1829F07
:1023C000C00111240E949B058A8D40E265E0E0E196
:1023D0008E9FC00111240E949B058B8D40E265E019
:1023E000F0E18F9FC00111240E949B058A8140E289
:1023F00063E090E00E949B05898140E263E090E009
:102400000E949B052B8140E262E087E090E0821B06
:1024100091090E949B0580E20E944C0580919604E0
:1024200085FF08C084E30E94C3020E940B0680E27D
:102430000E944C058B81873019F089818F5F8983D9
:1024400010E08981181740F4FE01E10FF11D84812D
:102450000E940B061F5FF5CF0E949705188280919E
:10246000CF0181508093CF018091D0018F5F843064
:1024700019F08093D00102C01092D0014698043523
:1024800009F0BDC08AEB91E00E94BD1FB8C0A091C9
:102490009604A0FF7ACFA1FD5CC03091B801B09145
:1024A000CE013B1332C020E0231770F4822F90E05E
:1024B00041E0420FFC01EC55FE4F86549E4F508187
:1024C000FC018081581729F02093B80123131DC007
:1024D00002C0242FE9CF4091900450919104609163
:1024E000920470919304C090A001D090A101E0905B
:1024F000A201F090A3014C195D096E097F0931E03A
:10250000463251056105710508F030E020E02B17D7
:1025100068F4822F90E0AC014C555E4F86549E4F7C
:10252000FC018081FA0180832F5FF1CF2093B801F5
:1025300040919004509191046091920470919304A1
:102540004093A0015093A1016093A2017093A30155
:1025500001C030E00435E9F4A6FD1BC08091CE0136
:102560008530B8F08091BC018B3409F40ECF8936E8
:1025700009F40BCF9DEA980F923008F406CF8D57DF
:10258000823008F402CF8091BD018077803709F452
:10259000FCCE3111FACE802F0E944C058091B901FA
:1025A000882329F08091CE0181508093CE0110E0E4
:1025B000E091CE011E1748F4E12FF0E0E654FE4F03
:1025C00080810E940B061F5FF3CF8091B9018823A1
:1025D00051F0F0E0E654FE4F80818F7040E361E0FF
:1025E00090E00E94D1058091960485FF05C084E3A8
:1025F0000E94C3020E940B060E949705C6CECDB76B
:10260000DEB7E8E00C945F271F920F920FB60F928F
:1026100011240BB60F922F933F934F935F936F93B9
:102620007F938F939F93AF93BF93EF93FF931092FA
:102630006F008091960483FF03C08EE20E944C05D8
:102640008091D1019CE1899FF0011124EE52FE4F4F
:102650009081933018F09181923010F450DB18C0C3
:102660009091CF01933049F48091960482FFF6CF88
:1026700084E592E00E948A05F1CF9F5F9093CF019D
:102680008F5F843019F08093D10102C01092D10184
:10269000FF91EF91BF91AF919F918F917F916F913A
:1026A0005F914F913F912F910F900BBE0F900FBEF6
:1026B0000F901F9018959BED980F973150F496EF5F
:1026C000960F9D3130F491E0681708F090E0892F63
:1026D000089580E008951F920F920FB60F92112473
:1026E0000BB60F92FF920F931F932F933F934F932D
:1026F0005F936F937F938F939F93AF93BF93CF938A
:10270000DF93EF93FF9380916F05882321F082E0A0
:1027100080936F0525C180912305823021F483E0E9
:10272000809323051DC10091840010918500A4E0D1
:1027300016950795AA95E1F7C091D1019CE1C99F33
:10274000E0011124CE52DE4F9881943031F40E32E4
:1027500008F406C10F3448F0A4C0953031F40731B5
:1027600008F4FEC0083208F09CC01A990DC09450BD
:10277000923038F461E0CE01CEDA109285001092EA
:10278000840000939F01ECC080919F01081B00937F
:102790009E011092850010928400888184508230BE
:1027A00020F460E0CE01B7DADBC082E086BBF880BF
:1027B00000919F01F1100FC0053608F0D1C0809143
:1027C0009E01853608F0CCC0088F898F81E08A830E
:1027D00082E08883C5C010919E0182E0412F602F66
:1027E000F8126FC0CE014896BBDA4A818823F9F00F
:1027F000888D90E09C01220F331F280F391F200F76
:10280000311D3595279535952795288F298D30E0F1
:10281000C901880F991F820F931F810F911D9595F4
:10282000879595958795898F4F5F4A8399C04430E6
:1028300008F445C080EA9FE0909389008093880067
:102840008A818C3050F0888D298D30E0280F311D21
:102850002536310524F084E027C08A3088F0888D41
:10286000298D30E0280F311D253231054CF485E0EB
:10287000888388EE93E0909389008093880015C048
:1028800080919C04882379F0612F802F14DF8823A6
:1028900051F0688D898D0FDF882329F081E08093C6
:1028A00023052DDA5DC083E088830A8F1B8F198290
:1028B00087E08B831C8282E080936F0051C0188276
:1028C0007BCFCE014A964CDA882301F161E0CE013C
:1028D00022DA4A8D50E09A01220F331F240F351F50
:1028E000200F311D35952795359527952A8F2B8DEE
:1028F00030E0C901880F991F820F931F810F911D2E
:1029000095958795959587958B8F2AC0412F602F38
:10291000CE01489625DA882301F160E0CE01FBD98B
:10292000488D50E09A01220F331F240F351F200FCE
:10293000311D3595279535952795288F298D30E0C0
:10294000C901880F991F820F931F810F911D9595C3
:10295000879595958795898F03C097E0F912A1CF48
:10296000FF91EF91DF91CF91BF91AF919F918F91A7
:102970007F916F915F914F913F912F911F910F9197
:10298000FF900F900BBE0F900FBE0F901F901895E9
:10299000E091D1018CE1E89FF0011124EE52FE4F4D
:1029A0008081811107C081E090915E059F3F19F4FD
:1029B00080E0089581E0089580E690E00E946F062F
:1029C00080939C0481E690E00E946F0680932D0521
:1029D000882321F081E280939604FCC90895299A06
:1029E0000C94E20429980C94E204A7E0B0E0EBEF29
:1029F000F4E10C9444279091A504943559F4209166
:102A00002605309127052F5F3F4F309327052093F0
:102A100026053EC0963459F42091240530912505B1
:102A20002F5F3F4F309325052093240531C0953407
:102A300059F42091990430919A042F5F3F4F3093BD
:102A40009A042093990424C09B3459F420912905B9
:102A500030912A052F5F3F4F30932A052093290597
:102A600017C0983459F420912B0530912C052F5F15
:102A70003F4F30932C0520932B050AC020919704DB
:102A8000309198042F5F3F4F309398042093970420
:102A900095E79983882399F0BE016E5F7F4F8091FF
:102AA0002D050E945706BE016C5F7F4F80919C04EC
:102AB0000E94570685E58E8386E0D82E02C0DD246D
:102AC000D3940E949F030E94740316E080E891E073
:102AD00086DF80E093E086DF1150C1F780E093E06D
:102AE0007EDF80E891E07EDF80E891E078DF299862
:102AF00087E390E00E94160383E00E94E7042C988D
:102B00008FE70E944F0280919F048D0D0E944F021B
:102B1000CE0101967C018C01F80181918F010E9408
:102B20004F02802F8E198D15B8F380919F04882352
:102B300039F08DE994E00E94A3070E944F02F5CF7F
:102B40002C9A0E9474038DE994E00E94880715E195
:102B50008AE30E94C3028F7731F0115021F081E0A7
:102B60000E94E704F5CF36D92796E7E00C9460275A
:102B7000CF93DF93EC018981811107C080919C0480
:102B80000E940B0680912D0513C08436A1F480911C
:102B9000900490919104A0919204B091930440E329
:102BA00064E00E94D1058EE20E944C0580912205CE
:102BB0000E940B064DC0833709F04DC040E361E031
:102BC00080912605909127050E94D1058EE20E94F2
:102BD0004C0540E361E080912405909125050E9419
:102BE000D1058EE20E944C0540E361E0809199049A
:102BF00090919A040E94D1058EE20E944C0540E318
:102C000061E08091290590912A050E94D1058EE20C
:102C10000E944C0540E361E080912B0590912C05CA
:102C20000E94D1058EE20E944C0540E361E0809154
:102C30009704909198040E94D1058EE20E944C0561
:102C400040E361E080912005909121050E94D1052B
:102C50000E9497052CC08936D9F441E06CE974E0F4
:102C6000CE0102960E940F0660919C0480E690E0DF
:102C70000E946A0641E06DE275E0CE0104960E9472
:102C80000F0660912D0581E690E00E946A060FC054
:102C90008DE994E00E94880721966991662329F0C6
:102CA0008DE994E00E948D07F8CF80E09EDEDF91F1
:102CB000CF910895A1E0B0E0E0E6F6E10C9443275F
:102CC00080912305882309F484C0C0909004D0909B
:102CD0009104E0909204F0909304833009F060C076
:102CE0008FE30E94C302182F8630C8F083EF95E06F
:102CF0000E9488072C988FEF0E944F0280E00E946C
:102D00004F02082F115049F080E00E944F02682FB7
:102D100083EF95E00E948D07F5CF2C9A01C000E06B
:102D200059D810922305053709F053C041E0BE0180
:102D30006F5F7F4F86EF95E00E940F06019759F570
:102D4000998180919C04981326C08091FA0585355D
:102D500071F48091F505882339F083EF95E00E94A6
:102D6000A3070E944C05F5CF0E94970532C08091C1
:102D7000F50584508093F50584E08093F4056AE0BE
:102D800083EF95E00E948D07E0918C04F0918D0413
:102D900088E009951EC083EF95E00E94880719C05E
:102DA000823051F480919B049C2D981B983088F0C0
:102DB00011D8109223050DC0813059F487E390E0BB
:102DC0000E9416030E94860382E080932305C0922E
:102DD0009B042196E8E00C945F27DADD882361F0FC
:102DE00083E080932805809120059091210501962C
:102DF0009093210580932005809128058150809330
:102E00002805882321F083E080932205089581E03E
:102E1000ECCDCF93DF93EA98249A2C9A8EE190E040
:102E20000E94E2042C988EE190E00E94E2042C9A29
:102E30008DE290E00E94E20480E30E94120384E6A7
:102E400090E00E94E2042C9880E40E944F02CBE5BF
:102E5000D2E0FE0184910E944F022196F2E0C83632
:102E6000DF07B9F7809101010E944F0280910201B2
:102E70000E944F02809103010E944F02C0E0D0E007
:102E8000FE01E559FD4F84910E944F022196C93100
:102E9000D105B1F72C9A2C988EE70E944F028BE255
:102EA00090E0EC0121960E946F060E944F02C3330E
:102EB000D10511F0CE01F5CF2C9A83E30E941203C5
:102EC00081E00E94E70481E080938E04DF91CF913E
:102ED00008956F927F928F929F92AF92CF92EF92CE
:102EE000FF920F931F93CF93DF93EC018981843777
:102EF00069F468E071E0CE0102960E943C0640E26F
:102F000060E0809108019091090112C0833709F0B7
:102F100092C18A81823789F464E071E0CE01039620
:102F20000E943C0640E260E080910401909105011E
:102F30000E949B050E949705EAC1469A809144022F
:102F4000811116C080919101882329F081E080933E
:102F500043021092910180919301882329F081E02E
:102F6000809342021092930154DF83E00E94E704B1
:102F700086E30E9412038AE30E9412038BE30E94FD
:102F800012030E947403FE0101900020E9F70E2F46
:102F90000C1B0250C12CFAE09F2E7E0132E0E30EA2
:102FA000F11CA5E0AA2EB8E28B2E8091040190912D
:102FB00005012C2D332727FD30952817390708F0F8
:102FC000FBC00132A1F4299A809108019091090176
:102FD0000E94E20429988091060190910701FC016A
:102FE0009E9EC0019F9E900D11240E94E204370115
:102FF00011E010170CF0B7C0F30181913F01299A3D
:10300000803309F046C0013201F5809106019091AC
:1030100007010E94E204299880910601909107011E
:103020000E94E204299A80910601909107010E9472
:10303000E204299880910601909107019C01A29ECB
:10304000C001A39E900D11248AC080910801909127
:1030500009010E94E20429988091080190910901D8
:103060009C01220F331F820F931F0E94E204299AB2
:1030700080910801909109010E94E20429988091B1
:103080000801909109019C01220F331F820F931FA9
:1030900066C0813329F5013291F480910601909147
:1030A00007010E94E204299880910601909107018E
:1030B000FC01AE9EC001AF9E900D11241EC08091F8
:1030C0000801909109019C01220F331F820F931F69
:1030D0000E94E204299880910801909109012CC076
:1030E0000132D1F480910601909107010E94E2041F
:1030F000299880910601909107010E94E204299A83
:1031000080910601909107010E94E2042998809124
:1031100006019091070123C0809108019091090157
:103120000E94E204299880910801909109019C0174
:10313000220F331F820F931F0E94E204299A80916D
:103140000801909109019C01220F331F820F931FE8
:103150000E94E204299880910801909109010E943F
:10316000E2041F5F46CF299A0132A1F48091060143
:10317000909107010E94E2042998809106019091A4
:1031800007019C01829EC001839E900D11240E9424
:10319000E20410C080910801909109010E94E204AC
:1031A00029981FE180910801909109010E94E20491
:1031B0001150C1F7C394F9CE80914402882341F0A5
:1031C0008091960481110FC086E30E94120319C0FA
:1031D00080914302882351F0109243020E94C80953
:1031E00081E0809391010E9486030BC0809142028E
:1031F000882329F0109242020E94380B02C00E94DC
:10320000EA0E469889E60E944C0583E70E944C0529
:1032100011E010170CF08ECEFE01E10FF11D17FD2D
:10322000FA958181803319F0813309F086E40E9498
:103230004C051F5FEECF8237B9F48091910188234E
:1032400029F081E0809343021092910180919301D3
:10325000882329F081E08093420210929301D9DD06
:1032600081E08093440253C0863651F58A818033D1
:1032700051F480E18093010180EB8093020181E7AA
:103280008093030107C043E061E071E0CE01029644
:103290000E940F0689E60E944C0586E60E944C05B6
:1032A0008AE30E944C05809101010E940B068091E7
:1032B00002010E940B06809103010E940B063ACE88
:1032C000883729F580914302882341F01092430208
:1032D0000E94C80981E08093910111C0809142024F
:1032E000882329F0109242020E94380B0EC082E01F
:1032F00090E00E94160380919604882319F00E94A2
:10330000860303C086E30E94120310924402DF91F9
:10331000CF911F910F91FF90EF90CF90AF909F9022
:103320008F907F906F900895A2E0B0E0EAE9F9E114
:103330000C943C277C01FC018181833709F09DC1FD
:10334000198287E090E00E9470278C0141E0BE0165
:103350006F5F7F4FC70102960E940F068981F801B7
:10336000808341E0BE016F5F7F4FC70104960E94DA
:103370000F062981207FF801218341E0BE016F5FA4
:103380007F4FC70106962A830E940F068981F801A4
:10339000828341E0BE016F5F7F4FC70108960E94A4
:1033A0000F068981F801838341E0BE016F5F7F4F83
:1033B000C7010A960E940F068981F801868341E0C1
:1033C000BE016F5F7F4FC7010C960E940F06898177
:1033D000F801858341E0BE016F5F7F4FC7010E9604
:1033E0000E940F068981F801848380E090E02A81A1
:1033F0004191342F32953F70342783279F5F973058
:10340000B9F78F70822BF801818387E090E00E94EA
:1034100070275C0187E0F801D50101900D928A9533
:10342000E1F7D8011196C8010696F8013D91219166
:1034300023272083E817F907C9F7469A80914702A6
:10344000811160C080919101882329F081E08093EF
:1034500046021092910180919301882329F081E026
:103460008093450210929301EA98249A2C9A8EE157
:1034700090E00E94E2042C988EE190E00E94E20429
:103480002C9A8DE290E00E94E20480E30E941203F5
:1034900084E690E00E94E2042C9880E40E944F02AF
:1034A00064E8E62E62E0F62EF70184910E944F0256
:1034B000FFEFEF1AFF0A2DEAE21622E0F206A1F76B
:1034C0002C9A2C988EE70E944F028BE290E07C01B0
:1034D000EFEFEE1AFE0A0E946F060E944F02F3E31E
:1034E000EF16F10411F0C701F2CF2C9A83E30E948A
:1034F000120381E00E94E70481E080938E0483E060
:103500000E94E70486E30E9412038AE30E941203EA
:103510008BE30E9412030E947403299A87EC94E2C1
:103520000E94E204299889E50E94E70485E392E07D
:103530000E94E204712C80910E0190E0272D332728
:1035400027FD3095281739070CF057C0711002C0BD
:1035500022E001C027E0F12C299A86EF99E02A8326
:103560000E94E204299886EF99E00E94E204F39415
:103570002A81F2168CF3299A8CEF92E10E94E204E0
:10358000299880910A0190910B010E94E204680140
:10359000612CF60181906F0148E0542E50E8E52E31
:1035A000F12C912CC70188219921892B49F4299A62
:1035B00080910A0190910B010E94E204299808C0B1
:1035C000299880910A0190910B010E94E204299AA6
:1035D00080910A0190910B010E94E204F694E79415
:1035E0005A9401F76394F7E06F12D3CF299880E0E3
:1035F00090E00E94E20473949ECF8091470288235A
:1036000041F08091960481110FC086E30E9412035D
:1036100019C080914602882351F0109246020E9400
:10362000C80981E0809391010E9486030BC08091BC
:103630004502882329F0109245020E94380B02C0EF
:103640000E94EA0E469889E50E944C0583E70E9495
:103650004C057501D12CF70181917F010E940B0669
:10366000D394F7E0DF12F7CF0E949705C5010E94BF
:103670000828C8010E9408286FC08237A9F46EE0AC
:1036800071E0C70102960E943C0689E50E944C0544
:1036900082E70E944C058AE30E944C0580910E014E
:1036A00040E260E090E02CC0843779F5F701828138
:1036B000803339F488ED94E090930D0180930C01F0
:1036C00006C06CE071E0C70102960E943C06809142
:1036D0000C0190910D019695879590930B01809325
:1036E0000A0189E50E944C0584E70E944C058AE3A3
:1036F0000E944C0540E266E080910C0190910D0122
:103700000E949B050E94970527C0883729F5809164
:103710004602882341F0109246020E94C80981E0C7
:103720008093910111C080914502882329F0109265
:1037300045020E94380B0EC082E090E00E94160302
:1037400080919604882319F00E94860303C086E3C3
:103750000E941203109247022296EFE00C94582721
:10376000109249051092030383E080934D028FEF7E
:1037700080935E050895EEE4F2E02081211105C0FA
:10378000892BB1F080E090E00895B2E0EC3FFB07B8
:10379000B8F7009751F04181DC013C91431305C01B
:1037A000428111963C91431751F0E20FF11DE5CF94
:1037B00032E0EC3FF30719F010F0ECEFF2E0CF014C
:1037C000089594E0899FF0011124E15AFA4F808115
:1037D0008F3F91F0809348028181809349028281DA
:1037E00080934A02838180934B0221E04CE064E0A5
:1037F00088E492E00C94990808958DEF92E0BBDF85
:10380000009799F020914D02FC013081231768F454
:10381000E20FF11D80818093FF0289E7809300030E
:1038200081818093010381E0089580E00895EF9203
:10383000FF921F93CF93DF931F92CDB7DEB7182F60
:103840008091960486FF18C084E599830E944C05F8
:10385000E12E9981F92E15E0F70181917F010E94F7
:103860000B061150C9F78091960485FF03C08AEFBB
:103870000E940B060E9497050F90DF91CF911F9138
:10388000FF90EF90089586E30E9412038091FF025B
:10389000833511F48BE901C08BE40E94E70421E039
:1038A0004CE065E08DEF92E00E9499080E9486034B
:1038B0008DEF92E0BCCFE7DF8091FF02893631F0D7
:1038C00081E08093FC0289E280935E050895CF93A6
:1038D00085E390E00E946F0680932F0586E390E0D9
:1038E0000E946F0680935D05CFEFC0934D05C09396
:1038F0004F05C0935105C0935305C0935505C09320
:103900005705C0935905C0935B052ADF10924E02FC
:1039100081E080932E05C0935F058FEF9FEF90931A
:1039200032058093310510923405109233051092C0
:10393000360510923505C093630590933805809342
:10394000370510923A051092390510923C051092F5
:103950003B05C093670590933E0580933D0510920B
:10396000400510923F051092420510924105C09308
:103970006B05909344058093430510924605109281
:1039800045051092480510924705CF910895ACE087
:10399000B0E0EDECFCE10C9442276C018C010F5F70
:1039A0001F4F45E0BE016F5F7F4FC8010E940F06A9
:1039B000843008F0F3C099819130A9F4833061F428
:1039C0006A8185E390E00E946A066B8186E390E05D
:1039D0000E946A067CDF06C280912F050E940B06BA
:1039E00080915D059AC0923009F051C0813039F064
:1039F00081E09A81913009F080E0F82E02C0FF2426
:103A0000F39480914E02811104C08DEA92E00E94ED
:103A10008A050EE412E0F8018081882309F4BBC016
:103A2000F2E00C3F1F0708F0B6C032E00E34130777
:103A300019F080E20E944C05F80181810E940B067A
:103A4000F80182810E940B06FF20E1F08AE30E94C8
:103A50004C0593E0F80180819817A0F4943038F079
:103A600090FF05C08CE29C870E944C059C85EE244B
:103A7000E394E90EF801E90FF11D80810E940B0625
:103A80009E2DE8CFF8018081080F111DC4CF93301F
:103A900049F480E090E06FDE8E5492409EEA981BDD
:103AA000892F3BC0903171F50DE415E08EE4E82ECE
:103AB00085E0F82EC12CD12CF80180818F3FA1F038
:103AC000DD2019F080E20E944C058C2D0E940B062F
:103AD0008AE30E944C05F80180810E940B06F701E1
:103AE00080810E940B06D3940E5F1F4FC394F2E0B7
:103AF000EF0EF11C38E0C312DFCFD1104CC08BEBBE
:103B000092E047C0913161F480914B0590914C0552
:103B10006DE770E00E941227862F0E940B063BC0C3
:103B20009231C9F51FE5E12E15E0F12E02E615E010
:103B3000C12CD12CF70180818F3FF1F0DD2019F0ED
:103B400080E20E944C058C2D0E940B068AE30E94A5
:103B50004C05F70180810E940B06F80132978081A5
:103B60000E940B06F801319780810E940B06F80134
:103B700080810E940B06D394F4E0EF0EF11CC394F5
:103B80000C5F1F4F34E0C312D5CFD11004C087EBB8
:103B900092E00E948A050E94970524C144E0BE017C
:103BA000695F7F4FC8010E940F064F81493608F4B4
:103BB00077C07A85588569857C3009F04BC020E054
:103BC00030E080E090E0F901E15AFA4F708174131F
:103BD0001CC0A181A51319C0A281A61316C02CE098
:103BE00023839C01220F331F280F391FF901EE0F89
:103BF000FF1FEF5CFA4F11821082F901EE0FFF1FD9
:103C0000ED5CFA4F11821082CFC07F3FD9F4408320
:103C1000518362832CE023839C01220F331F280FE2
:103C2000391FF901EE0FFF1FEF5CFA4F118210826E
:103C3000F901EE0FFF1FED5CFA4F11821082109216
:103C40002E05B2C001962C5F3F4F2031310509F09F
:103C5000BACFC8C080E090E020E030E0FC01E15A3B
:103C6000FA4FA081A41315C0A181A51312C0A2818F
:103C7000A6130FC07383F901EE0FFF1FE20FF31FAE
:103C8000EE0FFF1FED5CFA4F81E090E0918380839F
:103C9000A9C02F5F3F4F049680319105F9F6A2C06D
:103CA000E98180912F05E817C0F190E0F0E09C01D8
:103CB000295F3F4F2E173F0784F13A8120915D0520
:103CC00032132BC03C813F3231F442E06CE0C6013C
:103CD0000E94060987C02D813C32B1F420934A0529
:103CE00081E090E090934C0580934B058091940483
:103CF00090919504E4E02E9F800D911D11249093E6
:103D00009504809394046EC0E81BF90BEE0FF0E06D
:103D1000E35BFA4F3083218365C080E090E02BDDC8
:103D20007C01F80101900020E9F73197E01BF10BCD
:103D3000F695E795BB24B394BE0EC7018B0D911D7C
:103D40008E5492408F3A91050CF048C0F701B19221
:103D50008F0121E0822F880F81502B15D8F441E08C
:103D6000B801F601E80FF11DCF012C870E940F0664
:103D70002C85233058F020FD09C0D80111978C9173
:103D8000843621F4F8018081809330052F5F0F5F26
:103D90001F4FE0CFFCEFEF16F2E0FF0618F5F7013A
:103DA000E20FF11D10821EC022E04CE064E0CE0163
:103DB00007960E9499088FE08A8722E04CE064E031
:103DC000CE0107960E94990882E08A8722E04CE0A3
:103DD00064E0CE0107960E94990804C081EB92E04E
:103DE0000E948A052C96E9E00C945E270F931F939E
:103DF000CF93DF9390912E0591114FC093E0899F4F
:103E000080011124F801EE0FFF1FEF5CFA4F94E0E0
:103E1000899FD0011124A15ABA4F12969C91977094
:103E200040E850E0491B51099AEF949F9001959FFB
:103E3000300D1124359527953595279531832083AD
:103E4000E801CC0FDD1FCB5CDA4F288139812F5F71
:103E50003F4F39832883000F111F0D5C1A4FF80163
:103E6000408151814115510529F424303105A9F4CF
:103E7000A8DC11C04130510539F4A3DC82E090E0A8
:103E8000F8019183808309C04230510531F499DCF7
:103E9000F8011182108219821882DF91CF911F914F
:103EA0000F910895A6E0B0E0E7E5FFE1EEC72091AD
:103EB0005D052A831B8280914A05882341F0833067
:103EC00019F487E791E00FC08DE790E00CC02770F0
:103ED00030E02A513F4F4DE7429FC001439F900D74
:103EE00011249595879590934C0580934B050EE48E
:103EF00015E0F12C7CE2E72EF801319790819F3F8D
:103F0000C1F080912F058F0D898380914A05882308
:103F100011F0EC8203C09C83F80180818D8321E045
:103F20004CE065E0CE0101960E949908CE01019611
:103F30007EDCF3940E5F1F4FF8E0FF12DDCF80911F
:103F40004A05882341F0833019F410924A0503C0D2
:103F5000825080934A052696E6E0B3C78091FC0222
:103F6000882351F090DC89E280935E058091FC0209
:103F700081508093FC020895F3CBFF920F931F931F
:103F8000CF93DF93FC01F0800181C281D381148142
:103F90008FE580935E051092FC0280912F058111C0
:103FA00005C080915D05882309F4A9C08091FD02B8
:103FB0008F1104C08091FE02801729F0D1DBF092AE
:103FC000FD020093FE02809149058F3F09F497C0DE
:103FD000C093FF02D093000310930103CC23F1F0B0
:103FE00081111CC080912F05181761F0143651F013
:103FF0008DEA8C0F823010F0CD3739F48FEF80933B
:1040000049057DC0C43509F47AC08D2F807F803684
:1040100009F075C0D067D093000357C0EEDB811163
:1040200005C080914905882309F469C08091030384
:10403000811107C0E0914905F0E0E154FD4FE491A2
:1040400001C0E82FE33541F4C43531F490914905BE
:104050009E5F9093490504C0EC1711F081DB4FC0BF
:10406000882369F080914D028E5F80934D02C5DBFD
:1040700081110EC0809149058E5F80934905809122
:104080004905E82FF0E0E054FD4F14911F3F59F42B
:104090008091FF02809303038436B9F48091300548
:1040A0008093010312C01093FF0297E790930003DF
:1040B00090912F05909301038E5F80934905109294
:1040C00003038E3021F01123D1F0F5DB18C08DEF02
:1040D00092E051DBDC01009781F02C9130E08CEF15
:1040E00092E0821B930BA817B90730F4ED01C20FC1
:1040F000D31F48814D93F7CF1C9232DBE4CFCDB76D
:10410000DEB7E5E0DFC6FF920F931F93CF93DF93F7
:104110008C01EC0109900020E9F72197C81BD90B0D
:10412000FC018181823751F487E390E00E941603FD
:104130000E94860381E080936F0527C0833719F5BD
:10414000FC2E2C988FE70E944F028C2F82500E94E9
:104150004F02E801229612E01F1528F489910E946F
:104160004F021F5FF9CF2C9A0E9474038AE30E94CA
:10417000C3028F7729F084E690E00E94E204F6CF34
:104180000E94860302C010926F05CDB7DEB7E5E04E
:1041900099C6A0E8B0E0EEECF0E275C680916F053C
:1041A000882309F454C0813011F5809190049091D6
:1041B0009104A0919204B0919304209104032817D4
:1041C00009F445C085E30E94C302813129F48AE3E2
:1041D0000E9412030E9486038091900490919104A2
:1041E000A0919204B09193048093040330C08FE3B4
:1041F0000E94C302D82E87FD27C02C988FEF0E9403
:104200004F028E010F5F1F4F7801C02E8E2D801B35
:104210008D1538F480E00E944F02F70181937F01F1
:10422000F5CF2C9A81E080938B01802F8C198D150E
:1042300030F4F80181918F010E944C05F6CF0E9465
:1042400097058FEF80938B0181E080936F05C058B5
:10425000DF4FE8E034C62091ED093091EE092115D9
:10426000310521F4209111013091120180910F014B
:1042700090911001009741F48DB79EB740911301C2
:1042800050911401841B950B2817390718F4821BD1
:10429000930B089580E090E0089582E40E944C051D
:1042A00040E265E08091ED099091EE090E949B0546
:1042B0000E94970583E50E944C0540E265E08091ED
:1042C0001101909112010E949B050E94970585E4BF
:1042D0000E944C0540E265E080910F019091100131
:1042E0000E949B050E94970586E40E944C05B3DF5F
:1042F00040E265E00E949B050C9497051F920F9287
:104300000FB60F9211240BB60F922F933F934F933A
:104310005F936F937F938F939F93AF93BF93EF932D
:10432000FF9380917205882339F080E795E00E9421
:10433000A3078093C60005C08091C1008F7D809344
:10434000C100FF91EF91BF91AF919F918F917F91AC
:104350006F915F914F913F912F910F900BBE0F90F6
:104360000FBE0F901F9018951F920F920FB60F92CD
:1043700011240BB60F922F933F934F935F936F933C
:104380007F938F939F93AF93BF93EF93FF9388B1E6
:1043900090E4892788B96091C6008091C000887137
:1043A00021F483EF95E00E948D07FF91EF91BF917B
:1043B000AF919F918F917F916F915F914F913F91BD
:1043C0002F910F900BBE0F900FBE0F901F9018955E
:1043D00097FF04C022E02093C0009F779093C50010
:1043E0008093C40088E98093C10086E08093C20076
:1043F00008958091C10085FD09C0809172058823D0
:1044000029F08091C10080628093C1000895E091FD
:104410008C04F0918D0481E00995EBCF0F931F93ED
:10442000CF93DF93EC0110E0212F30E0F901EE0F84
:10443000FF1FE20FF31FE457FF4F0491F901EE0F46
:10444000FF1FE20FF31FE357FF4F25913491002325
:1044500099F0209739F480E20E944C05802F0E9449
:104460004C0508C08881801305C0CE01F90109956B
:1044700081E003C01F5FD8CF80E0DF91CF911F9113
:104480000F910895CF93C0918B0180938B01809100
:10449000F5058823B1F183EF95E00E94A3078F3FD4
:1044A000B1F3E09105038A3011F08D30F9F4EE2379
:1044B00071F3F0E0EA5FFC4F108286E093E0AEDF3C
:1044C000811111C085EE92E00E948A0586E093E09A
:1044D0000E947F058DEC92E00E948A0580E090E0CA
:1044E0009DDF0E94970510920503D1CFE7FDCFCF46
:1044F00091E09E0F90930503F0E0EA5FFC4F80830C
:10450000C6CFC0938B01CF910895539A1092CD00DE
:104510008CE08093CC001092C80088E98093C90099
:1045200086E08093CA00E0918803F0E0E757FC4FF3
:1045300010821092870308951F920F920FB60F9268
:1045400011240BB60F928F939F93EF93FF9390914B
:10455000C8008091CE009871D1F490918703911199
:1045600016C08D30A1F0E09188038A3041F4F0E06C
:10457000E757FC4F108281E08093870308C091E0E9
:104580009E0F90938803F0E0E757FC4F8083FF91E4
:10459000EF919F918F910F900BBE0F900FBE0F90D8
:1045A0001F90189580918703882379F08AE20E94F2
:1045B0004C0589E893E00E947F050E9497051092C0
:1045C00088031092890310928703089521E0FC016B
:1045D000E20FF11D3081332341F04091C80045FFC7
:1045E000FCCF2F5F3093CE00F2CF8091C80085FFC3
:1045F000FCCF8DE08093CE008091C80085FFFCCF7A
:104600008AE08093CE000895E4E6F0E080818B7F1D
:1046100080832F9A84B1806B84B9269880E58CBD05
:104620008DB581608DBD08958F929F92BF92CF927C
:10463000DF92EF92FF920F931F93CF93DF931F921E
:10464000CDB7DEB7D82EC62E7A0189012C988FEF10
:1046500099830E944F02BD2C8D2C9981992E882D13
:104660008B198C1538F480E00E944F02F40181937D
:104670004F01F5CFE114F10469F080E00E944F0290
:10468000F70180830115110529F080E00E944F0297
:10469000F80180832C9A0F90DF91CF911F910F9199
:1046A000FF90EF90DF90CF90BF909F908F900895F4
:1046B000CF93882331F01092A40786E30E9412035F
:1046C00007C085E30E94C3028D30A9F780E039C09E
:1046D00085E30E94C302C82F8130D1F78BE30E948B
:1046E00012038AE30E9412031092990710929B070B
:1046F00010929A0710929D0710929C0725EA37E0C6
:1047000030939F0720939E071092A007C093A107A4
:104710001092A207809189048093A30760E083E050
:104720000E94000362E088E00E94000384E30E948C
:10473000120385E30E94C3028D30D9F781E0809394
:10474000A407CF9108951F93CF93DF93182F21983B
:10475000229810928904EA98249A2C9A8EE190E08B
:104760000E94E2042C988EE190E00E94E2042C9AD0
:104770008DE290E00E94E20480E30E94120384E64E
:1047800090E00E94E204113031F0123009F036C09E
:10479000C9EFD2E02EC0C6E4D3E0FE01849181349B
:1047A00080F01093890483E30E9412038CE0E9E90E
:1047B000F7E0DF011D928A95E9F784E00E94E704A3
:1047C0001DC0FE0131966491FE0184910E94000398
:1047D0002296F4E0CE30DF0701F7E3CF3196649103
:1047E000FE0184910E9400032296F3E0C13CDF07A2
:1047F000C1F2FE018491813488F3D3CFDF91CF9150
:104800001F910895A4E0B0E0E7E0F4E241C3809195
:104810008904882309F405C18091A407813049F0F7
:1048200030F0823061F0833009F473C0A3C081E0BE
:10483000F7C01A9B9FC082E08093A4079BC0199B7E
:1048400099C020E030E040E050E063E080919E07B6
:1048500090919F07E9DE2091A30780919E07909198
:104860009F07213071F4BE016F5F7F4F04D181112A
:10487000D3C08981809399079DD1AC0160E081E02C
:104880000EC040E0BE016F5F7F4F3AD18111C4C0BE
:104890008981809399078ED1AC0160E080E0A0D13E
:1048A00090939B0780939A0760919A0770919B075A
:1048B000693482E0780708F0AFC086E06F3F710589
:1048C00009F050F40E94000360E088E00E940003B9
:1048D00081E08093A00702C00E94000380919E07A0
:1048E00090919F07039690939F0780939E078091D6
:1048F0009A0790919B07039790939D0780939C073D
:104900001092A10783E08093A40767E00E94000350
:1049100031C0199B2FC080919C0790919D078F3FBC
:10492000910509F058F48091A007811107C060E05B
:1049300088E00E94000381E08093A00720E030E03F
:1049400040E050E06FE180919E0790919F076CDE00
:1049500080919C0790919D074F9790939D0780931E
:104960009C0780919E0790919F074F9690939F0779
:1049700080939E071A9953C08091A407823008F44F
:104980004EC01C821B829E012D5F3F4FAE014C5FCB
:104990005F4F60919C0780919E0790919F0744DE36
:1049A00081E08093A2078091A307813051F4809128
:1049B000990700D1AC0166E776E085EA97E024D15B
:1049C00009C080919907F6D0AC0166E776E085EAE8
:1049D00097E08DD1892B01F582E60E944C0510E00D
:1049E00080917606E7D0212F30E02817390740F470
:1049F000F901EA58F94F80810E940B061F5FF0CF42
:104A00008091960485FF06C08B810E940B068C81E5
:104A10000E940B060E9497051092A40702C080E036
:104A200047DE2496E3E050C2FC012181223771F475
:104A30008281882369F0833711F481E003C08437D1
:104A400019F482E080DE04C080E0FCCF233791F0CF
:104A500080918904813029F0823031F48DEE92E02A
:104A600005C083EF92E002C089EE92E00E948A05C1
:104A70000C9497050895CF93DF93EC01A881E98109
:104A8000CA2FC295CF70D0E0CB5EDE4F4881AF70A9
:104A9000B0E0AB5EBE4F2C91AE2FA295AF70B0E0F0
:104AA000AB5EBE4F8C91EF70F0E0EB5EFE4F9081FD
:104AB00051E02F3F09F050E031E04F3F09F030E086
:104AC000532B31E08F3F09F030E0352BA9F49F3FA5
:104AD00099F0D0E44D9FA0011124E0E12E9F9001B8
:104AE0001124242B292BF4E08F9FC0011124282BA3
:104AF000EB01288380E001C081E0DF91CF91089530
:104B0000DC0111969C911197411118C012968C915D
:104B10001297E82FEF73F0E0EB5CFE4F5081E92F26
:104B2000EF7024E0E29FF00111248295869586952E
:104B30008370E82BEB5CFE4F808102C080E050E088
:104B40002C91E22FE37030E1E39FF0011124929564
:104B50009F70E92BEB5CFE4F908126952695E22F06
:104B6000F0E0EB5CFE4F2081E1E09F3F09F0E0E0E8
:104B700031E02F3F09F030E0E32B31E05F3F09F0F7
:104B800030E03E2B99F48F3F89F0E0E12E9F9001B9
:104B90001124292BFB01208341110AC0F0E18F9FD2
:104BA000C0011124852BFB01818302C081E008959F
:104BB00080E00895482F50E08A3150F09A012A5140
:104BC000310984E0359527958A95E1F72D5F01C07D
:104BD00022E0CA010196820F911D820F911D089556
:104BE000882331F0CA0161110196880F991F089539
:104BF000CA01880F991F840F951F9695879561119B
:104C000001C040FD01960895A0E0B0E0E9E0F6E2C1
:104C100032C14C01EB016A01A12CB12C00E010E083
:104C2000612C712CE12CF12CA2E14A2E512CC114E3
:104C3000D10409F450C0BE01C4011DDF81114EC072
:104C400082E0C816D10499F08AE0E816F10458F021
:104C5000C7010A97B201E6D031E020E0892B09F0C4
:104C600030E0032F122FA114B10499F005C0A11454
:104C7000B10491F001E010E0609470947724888191
:104C800090E06816790669F5A12CB12C612C712C85
:104C900017C00115110581F0930120953095232F40
:104CA0003327888190E028173907D9F4AA24A394E0
:104CB000B12C00E010E004C06881C3019DD03C012C
:104CC00081E0C81AD1088FEFE81AF80A82E0880E4E
:104CD000911C2196ACCF80E090E005C081E090E08F
:104CE00002C082E090E0CDB7DEB7E0E1E0C0A0E036
:104CF000B0E0ECE7F6E2C1C07C01EB013A0100E074
:104D000010E0C12CD12C92E1892E912C61147104F8
:104D100009F46CC081E068167104D1F441E0BE0171
:104D2000C701EEDE882319F081E090E061C05601F2
:104D30008FEFA81AB80AC801809590959927288105
:104D400030E08217930709F44DC082E090E050C034
:104D500040E0BE01C701D4DE8111E6CF82E0681ACF
:104D60007108560182E0A80EB11C6114710451F063
:104D70008BE0A816B104C8F0C6010A97B40152D05E
:104D8000892B99F40095109598013327898190E03B
:104D900028173907D1F6012F1127888190E00817CD
:104DA000190799F600E010E018C0688181E06816E4
:104DB000710471F4C80120D08C019C0120953095BC
:104DC000232F3327898190E02817390731F0BDCF91
:104DD000C80112D0698110D08C0183E0E80EF11C6B
:104DE000229602C0612C712C650190CF80E090E08A
:104DF000CDB7DEB7EEE05DC078E0AC014427507877
:104E0000452F5527262F207830E0880F991F42170D
:104E1000530721F025E682272DE39227660F715074
:104E200061F70895AA1BBB1B51E107C0AA1FBB1F56
:104E3000A617B70710F0A61BB70B881F991F5A9526
:104E4000A9F780959095BC01CD01089597FB072E99
:104E500016F4009406D077FD08D0E4DF07FC05D0F7
:104E60003EF4909581959F4F0895709561957F4F81
:104E700008952F923F924F925F926F927F928F92FE
:104E80009F92AF92BF92CF92DF92EF92FF920F93D9
:104E90001F93CF93DF93CDB7DEB7CA1BDB0B0FB6E3
:104EA000F894DEBF0FBECDBF09942A8839884888A0
:104EB0005F846E847D848C849B84AA84B984C88436
:104EC000DF80EE80FD800C811B81AA81B981CE0F2D
:104ED000D11D0FB6F894DEBF0FBECDBFED01089512
:104EE000CF93DF938230910510F482E090E0E0915F
:104EF000EF09F091F00920E030E0A0E0B0E0309759
:104F000039F14081518148175907B8F048175907BE
:104F100071F482819381109729F013969C938E935C
:104F200012972CC09093F0098093EF0927C02115A8
:104F3000310531F04217530718F0A901DB0101C018
:104F4000EF019A01BD01DF010280F381E02DD7CF8F
:104F500021153105F9F0281B390B2430310580F477
:104F60008A819B816115710521F0FB019383828306
:104F700004C09093F0098093EF09FE01329644C07B
:104F8000FE01E20FF31F819391932250310939837F
:104F900028833AC02091ED093091EE09232B41F48A
:104FA00020911101309112013093EE092093ED0907
:104FB00020910F01309110012115310541F42DB7D9
:104FC0003EB74091130150911401241B350BE09121
:104FD000ED09F091EE09E217F307A0F42E1B3F0B49
:104FE0002817390778F0AC014E5F5F4F241735075B
:104FF00048F04E0F5F1F5093EE094093ED098193E7
:10500000919302C0E0E0F0E0CF01DF91CF910895ED
:10501000CF93DF93009709F487C0FC013297138286
:105020001282C091EF09D091F009209781F420817C
:105030003181280F391F8091ED099091EE09821777
:10504000930779F5F093EE09E093ED096DC0DE0169
:1050500020E030E0AE17BF0750F412964D915C91FE
:1050600013979D014115510509F1DA01F3CFB3837F
:10507000A28340815181840F951F8A179B0771F489
:105080008D919C911197840F951F02969183808337
:1050900012968D919C9113979383828321153105EC
:1050A00029F4F093F009E093EF093EC0D90113967B
:1050B000FC93EE9312974D915D91A40FB51FEA17E3
:1050C000FB0779F480819181840F951F0296D901A5
:1050D00011969C938E938281938113969C938E93C9
:1050E0001297E0E0F0E08A819B81009719F0FE01C1
:1050F000EC01F9CFCE01029628813981820F931FEE
:105100002091ED093091EE092817390769F430979D
:1051100029F41092F0091092EF0902C01382128252
:10512000D093EE09C093ED09DF91CF910895F999DD
:10513000FECF92BD81BDF89A992780B50895262F9C
:10514000F999FECF1FBA92BD81BD20BD0FB6F8946C
:0E515000FA9AF99A0FBE01960895F894FFCFCF
:10515E000210B07106000401A4016C02D80406000E
:10516E0000F1092000FFFFFFFFFF0302FFFF010018
:10517E00FFFFFFFFFFAAA9A6A59A9996956A6966F1
:10518E00655A595655FFFFFFFFFFFFFFFFFFFFFF59
:10519E0003FF0102FFFFFFFF07FFFF00FFFF0506F2
:1051AE00FF04FFFFFFFFFFFF0BFF090AFFFF0FFFCB
:1051BE00FF08FFFFFFFF0D0EFF0CFFFFFFFFFFFFBE
:1051CE00FFFFFFFFFF160D0E0B1C191A132C2526C1
:0851DE00233431322932310083
:00000001FF
