:1000000034C100000C946A134EC100004CC10000C2
:100010004AC1000048C1000046C1000044C10000C0
:1000200042C1000040C100003EC100003CC10000D0
:100030003AC100000C94031336C1000034C1000023
:1000400018C3000030C100002EC100002CC1000008
:100050000C94511D0C94191D26C1000024C10000F0
:1000600022C1000020C100001EC100001CC1000010
:100070001AC1000018C1000016C1000014C1000020
:1000800012C1000010C100000EC100006DE81C424A
:100090005306430E0246680841E80A5A310D476B81
:1000A000084DA3084B110952C10554681856B806EB
:1000B00057010658BA0E65780666211C6C42067414
:1000C0009D0375F71578A102000000202F20002065
:1000D0003D2000072E050DD391FF080500000C0000
:1000E00021656A2D3B1322F862073F181D1CC700CB
:1000F000B0876BF8B611EA2A001F41000D2E2D07BC
:10010000D3913D04320000060021656A55E4302396
:10011000B900070018146C070090876BF85611E9B6
:100120002A001F410000030F1E2627000000030FB6
:100130001E2536386700030F256740605000030F07
:10014000275188838100030F2750C8C3C2002700AE
:1001500000000000000067000000000000005000E8
:100160000000000000008100000000000000C2004C
:100170000000000000504C4C310D0A00504C4C3037
:100180000D0A005620312E36332043534D38363871
:1001900000202F2000203D20004C4F56460D0A0025
:1001A0000007022E030D04E905CA070C0B060D21FA
:1001B0000E650F6A10C811931203153417331818FF
:1001C00019161B4321562500261129592C812D353E
:1001D0003EC34C454E4552520D0A004C4F56460DFB
:1001E0000A004C454E4552520D0A000007024604D3
:1001F000C605260B0610C8119312031322153417D7
:100200003F182819161B432156250026110D210ED3
:10021000650F6A070C160720F81E871F6B29592CDB
:10022000812D353EC3FF00424F56460D0A004E2F2A
:100230004100454F420D0A004E2F41004E2F410014
:1002400000535300547D7DFFFF4B4B7E7E002069A1
:100250007320756E6B6E6F776E2920557365206FF6
:100260006E65206F66003F20280011241FBECFEF6F
:10027000D0E4DEBFCDBF11E0A0E0B1E0E0E5FDE3FA
:1002800000E00BBF02C007900D92AA30B107D9F76A
:1002900022E1AAE0B1E001C01D92AB3FB207E1F755
:1002A00003D00C94A61EACCE88E10FB6F8948093D0
:1002B0006000109260000FBE90E080E80FB6F894E6
:1002C00080936100909361000FBE3A9A429A0E9417
:1002D000221E3BD589EF87BD84E085BD82E084BDC9
:1002E00080936E00109280008AE08093810084B732
:1002F000877F84BF2FE088E190E00FB6F894A8953F
:10030000809360000FBE2093600089E190E80E9416
:10031000851D0E9408180E94990E81EE9DE1909320
:1003200085068093840681E080930D010E94191553
:1003300080910D01886080930D01429878940E940D
:10034000A61D0E94A7100FD20E94671C0E9499163A
:100350000E94C5090E94BB0CF2CF8EBD0DB407FEF2
:10036000FDCF8EB50895A1E0B0E0E9EBF1E00C948B
:10037000651E482F8A3008F048E088E0489F7001E9
:100380001124F701EB5DFE4F7F018BE290E0F70156
:1003900064918C010F5F1F4F4983D5D3FFEFEF1A94
:1003A000FF0A49810333110511F0C801F0CF455010
:1003B000453010F461E101C067E184E290E0C3D30D
:1003C0002196E6E00C94811ECF93DF9382E090E0CB
:1003D000FC01E650FF4F6491EC012196B4D3CB327F
:1003E000D10511F0CE01F4CF87E390E0FC01E45693
:1003F000FF4F6491EC012196A6D3C036D10511F0D0
:10040000CE01F4CF88E0AFDFDF91CF9108952C9833
:10041000806CA3DF80E0A1DF2C9A0895A1E0B0E01A
:10042000E4E1F2E00C94681E41E0BE016F5F7F4F93
:10043000019649D3892B21F18981893969F410E02A
:10044000812FE5DF3CD3812F8770873009F4C3D239
:100450001F5F1033A9F714C0DADF182F83E46BD2C3
:1004600089812DD38FEC90E0A9D2812F28D38BECFA
:1004700090E0A4D240E262E0812F90E0B0D2ABD213
:100480002196E3E00C94841EA1E0B0E0EAE4F2E0FF
:100490000C94691E2C98806469835FDF6981862FC4
:1004A0005CDF2C9A2196E2E00C94851E2C9855DF97
:1004B0002C9A0895EF92FF920F931F93CF93DF939F
:1004C000EC0110921401E898249A2C9A8EE190E0A5
:1004D000BDD12C988EE190E0B9D12C9A8DE290E0BC
:1004E000B5D180E3E3DF84E690E0B0D12C9880E4DE
:1004F00034DF7E0189E2E80EF11C8E010F5F1F4F91
:10050000CE0126D32ADF0E151F0511F0E801F5CF25
:100510002C9A2C988EE721DF8BE290E0EC0121965B
:1005200017D31BDFC333D10511F0CE01F7CF2C9ABF
:1005300083E3BCDF81E08FD1CDB7DEB7E6E00C947A
:10054000811EA1E0B0E0E7EAF2E00C94691E22E02F
:10055000298341E0BE016F5F7F4F0196B4D289814C
:1005600002DF82E090E0A6DF2196E2E00C94851E97
:10057000CF93E89886E39ADFCFEF85E397DFC1500A
:100580008077803229F08AE090E060D1C111F5CF08
:10059000CF910895CF93CFEF84E388DFC150807768
:1005A000803129F08AE090E051D1C111F5CFE89A6D
:1005B000CF91089586E37ADF109286061092130198
:1005C00010921401089582E090E074DF81E080933E
:1005D0008606109213011092140108950F931F9331
:1005E000CF93DF93082F10E0C62FD0E085E30FDF15
:1005F000801731F0CE012AD11150C1F781E001C03E
:1006000080E0DF91CF911F910F91089585E2FFDE89
:100610008F3311F080E0089586E348DF80910A016E
:10062000811104C08CE791E0C9D102C08DE33EDFA7
:1006300083E33CDF64E081E0D1DF85E2E8DE8F33F5
:1006400049F780910A01811103C085E791E0B6D195
:1006500081E0089585E3DBDE8D3051F485E2D7DE5D
:100660008F3331F4D3DF84E321DF80778031D9F712
:1006700008951F920F920FB60F9211240BB60F928E
:100680008F939F93AF93BF93EF93FF9380918806CF
:1006900090918906A0918A06B0918B060196A11DC2
:1006A000B11D8093880690938906A0938A06B09323
:1006B0008B06809187068F5F80938706ECEAFAE0CD
:1006C00080819181181619061CF40197918380830B
:1006D00036968AE0E43CF80799F78091C60A909133
:1006E000C70A009729F001979093C70A8093C60A1A
:1006F0008091D90A8F3F19F081508093D90AFF91D8
:10070000EF91BF91AF919F918F910F900BBE0F9082
:100710000FBE0F901F9018952FB7F8944091880640
:100720005091890660918A0670918B06FC01408386
:100730005183628373832FBF0895A4E0B0E0E3EA9E
:10074000F3E00C94691ECE010196E6DF8C81B7D1EF
:100750008B81B5D18A81B3D18981B1D13CD1249625
:10076000E2E00C94851E1F93CF93DF93809188065F
:1007700090918906A0918A06B0918B0620910C0178
:10078000281709F45FC08091880690918906A0918E
:100790008A06B0918B0680930C01A895CCEADAE02A
:1007A00010E028813981232B19F4812F0E94941A9B
:1007B0001F5F26961430A9F78091C60A9091C70A48
:1007C000892B11F40E94F01A8091D90A811102C07C
:1007D0000E944C1B80919D0A882339F081508093A0
:1007E0009D0A811102C00E943517809187068D37BE
:1007F00048F1109287068091000181FF04C088B102
:1008000094E0892788B980918C0690918D06843870
:1008100023E0920728F4019690938D0680938C062E
:1008200080910B018F5F80930B018C3359F41092F0
:100830000B018091AB0A8F5F8093AB0A8C3310F071
:100840001092AB0ADF91CF911F910895880F991FE5
:100850000197F1F7089520ED37E0815020F0F9017C
:100860003197F1F7FACF0895CF93DF93DC01169615
:100870008C911697843509F05BC0CD010696CD9119
:10088000DC9111974DE0242F30E02C173D0740F00C
:10089000AE014F5051092417350709F049C008C06F
:1008A000FC01E20FF31F50815B3391F34F5FEBCFFD
:1008B000FE013E97E80FF91F20812435C9F51796F0
:1008C0003C9117972181321333C018963C911897A9
:1008D000228132132DC019963C911997238132132E
:1008E00027C01A963C911A972481321321C0619730
:1008F000C80FD91F858188838681898381858A83F2
:1009000082858B8383858C8384858D8385858E8387
:100910008D919C9111970A9711969C938E931496A2
:100920008D919C9115970A9715969C938E93149789
:10093000DF91CF910895CF93C82F80910D0180FF53
:1009400013C02091EF0A3091F00A2E3F83E0380760
:1009500038F02115344040F4CD3011F0CA3021F484
:100960006C2F8BEE9AE010D28091A80A8823C9F0F0
:1009700080910D0183FF15C0CA3099F0CD3011F47C
:100980006BE301C06C2F85E996E0FED1CD3019F400
:1009900085E996E069DF83E080939D0A82E0809399
:1009A000A30ACF910895CF93DF93EC018991882317
:1009B00011F0C1DFFBCFDF91CF910895CF93DF938B
:1009C000EC01FE018491882319F0B5DF2196F9CF5F
:1009D000DF91CF9108958DE0AEDF8AE0ACCFA6E045
:1009E000B0E0E5EFF4E00C94671E062F1E8215E0E0
:1009F0002AE030E01150E1E0F0E0EC0FFD1FE10FE4
:100A0000F11DB9010E94321E805D8083CB0101502F
:100A1000009769F01111EECF0AC0112359F011505F
:100A2000E1E0F0E0EC0FFD1FE10FF11D408301500C
:100A300007FFF3CF81E090E08C0F9D1F810F911D88
:100A4000B2DF2696E4E00C94831EA5E0B0E0EBE272
:100A5000F5E00C94691E1D8224E0382F3F70215070
:100A6000E22FF0E03A3010F4305D01C0395CA1E0D3
:100A7000B0E0AC0FBD1FEA0FFB1F308334E096954A
:100A800087953A95E1F76150009739F7615067FD16
:100A90000BC0222349F02150E1E0F0E0EC0FFD1FF4
:100AA000E20FF11D4083F2CF81E090E08C0F9D1F9B
:100AB000820F911D78DF2596E2E00C94851E40E3BD
:100AC00062E090E0C2CFDC01FB0130E090E08D916C
:100AD0008823A9F0813608F0805220ED280F2A30B3
:100AE00030F02FEB280F263030F429EC280F292B7B
:100AF000332379F006C0803251F38A3341F3CF01BA
:100B000005C0CF0101962083415041F4861B970B0D
:100B10000895922F9295907F31E0D9CFFC01D5CFE7
:100B2000982F92959F709A3010F4905D01C0995C57
:100B3000FB0190838F708A3010F4805D01C0895C66
:100B4000FB01818308950E94981EF999FECF0895B4
:100B50000C94901E08951F93CF93DF93162F11507E
:100B60001F3F59F0EC012196F3DFA9DF112311F0AB
:100B70008AE3E1DE1150CE01F3CFDF91CF911F91D7
:100B80000895A2E0B0E0E7ECF5E00C94661EFC01ED
:100B900021812D3421F466E08AEF9FE005C02035E5
:100BA00029F460E18AED9FE0D6DF26C01A8219821F
:100BB00042E0BE016F5F7F4F019685DF098110E043
:100BC000823021F4102F00278A81082BC801C0DF52
:100BD000F82E82E5B0DE40E364E0C80136DF85E947
:100BE00091E0ECDE8F2D6BDF81E991E0E7DE40E202
:100BF00062E08F2D90E0F3DEEEDE2296E5E00C94CD
:100C0000821EA6E0B0E0E7E0F6E00C94631E6C0103
:100C100043E0BE016F5F7F4F019655DF823070F178
:100C2000E980F12C823021F0FE2CEE242A81E22A88
:100C30008C011127FE01E00FF11F6081C70183DFE6
:100C4000000F111F0F5F1F4F0C0D1D1D8FEFE81AB6
:100C5000F80AF8018081882389F041E0BE016F5FC6
:100C60007F4FC80130DF892B49F06981C7016BDFF5
:100C70000E5F1F4FE2E0EE0EF11CEBCF2696E8E090
:100C80000C947F1E41E060E071E001961CDF8091D2
:100C9000000180FF02C0429A01C0429860910001A9
:100CA00084E390E050CFA1E0B0E0E9E5F6E00C94F9
:100CB000691E1982009731F041E0BE016F5F7F4FDE
:100CC000019601DF8981882321F061E083E390E0D0
:100CD0003ADF10926E00F89428E088E190E00FB6B9
:100CE000F894A895809360000FBE20936000FFCF1A
:100CF000CF93DF93EC0161E080E090E024DF6FE3CD
:100D000081E090E020DF60DB60E080E690E01BDFC8
:100D100060E081E690E017DF60E083E390E013DFBE
:100D200062E084E390E00FDF60E080E690E00BDFBC
:100D300060E081E690E007DF8981883719F080E084
:100D400090E0B1DFDF91CF91089580E090E000DF87
:100D5000813029F481E090E0FBDE8F3319F080E0F0
:100D600090E0C6DF84E390E0F3DE80930001089515
:100D700083E891E023DE2FCEFC01158214821182DC
:100D80001082138212820895FC014FB7F894848177
:100D90009581811524E0920798F4019695838483C8
:100DA00020813181C901019691838083DF01A20FE7
:100DB000B31F16966C938115944011F41182108222
:100DC0004FBF0895FC014FB7F89484819581009737
:100DD00019F44FBF80E00895019795838483828141
:100DE00093819C012F5F3F4F33832283DF01A80F44
:100DF000B91F16968C912115344011F4138212827A
:100E00004FBF0895FA013081882369F0E1E0F0E0F6
:100E1000022E01C0EE0F0A94EAF7DB01A30FB11D09
:100E20009C919E2B9C93222319F08FEF820F0BC075
:100E300081E0830F8C3010F4FA018083FB01E80F0E
:100E4000F11D108287E090E00895CF93C82F299A72
:100E5000882319F08091100102C08091120120E1D5
:100E6000829FC0011124F2DC2998CC2319F08091D3
:100E70000F0102C08091110120E1829FC001112465
:100E8000E5DCCF910895A3E0B0E0E9E4F7E00C944D
:100E9000591E5C01162F622E842F90E09B838A835B
:100EA00020918C0630918D060296089F802D11248A
:100EB000992787FD90952817390720F489E991E053
:100EC0007DDD7CC0281B390B30938D0620938C066A
:100ED000429A80911401882341F01092140187E016
:100EE00091E048D7FF24F39401C0F12C809186064D
:100EF000811101C068DB3CDB812E912CCC24C39492
:100F0000D12C712C512C852D992787FD9095881512
:100F1000990524F480E099DF5394F5CF112311F063
:100F200081E093DF20E0422E552447FC5094EA8173
:100F3000FB814E165F062CF097E0392E4A0C5B1CA5
:100F40001AC087E0282E312C4A0C5B1CC601022CEB
:100F500001C0880F0A94EAF7F2019081892329835E
:100F600074DFF1E02F1A310829818FEF2816380637
:100F700069F72F5FD8CF832D992787FD9095681645
:100F8000790664F4C601032C01C0880F0A94EAF7BD
:100F9000F2019081892359DF3A94EDCF8E2D5BDCED
:100FA000015009F0AFCF80918E06882311F0F2DA5C
:100FB00002C086E37BDAF1101BD342982396E2E16C
:100FC0000C94751EADE0B0E0E8EEF7E00C945C1E0A
:100FD0007C01162F842F022F6701C60ED11C462FCD
:100FE000B701E1D6D6018C931F5F1D8619825E2C56
:100FF000670127E066246394712C8C2D8519811775
:1010000088F547E0A42EB12C4701880E911CF3010E
:101010000A2C01C0EE0F0A94EAF7D4018C91AE01BC
:10102000435F5F4FBE016F5F7F4F8E23EBDE282F44
:10103000B1E0AB1AB10858F7D6018D916D01082EB9
:1010400082958025082E8695869580258F5F8695CA
:101050008170AE01435F5F4FBE016F5F7F4FD2DE95
:10106000282FCBCF222311F0215004C08D858F5F14
:101070008D8727E089E1809311018093120185E239
:1010800080930F01809310013AE0E32E4D856CE0D0
:10109000CE010196F8DE2D96EFE00C94781EADE0BF
:1010A000B0E0E5E5F8E00C94681E162F242F4BE025
:1010B000BE016F5F7F4F01962D8705DD2D85412F86
:1010C000682FCE0101967EDF2D96E3E00C94841EFE
:1010D00043E066E0E4CFEF920F93CF93DF93CDB779
:1010E000DEB760970FB6F894DEBF0FBECDBF40E10C
:1010F000BE016F5F7F4F0196E6DC69814A810B81FB
:101100008C81809312018D81809311018E81809357
:1011100010018F8180930F01E02EE2947FE0E7229F
:101120000F70242F2F7042954F70CE010896ABDEC2
:1011300060960FB6F894DEBF0FBECDBFDF91CF91A2
:101140000F91EF900895A9E1B0E0E9EAF8E00C947E
:10115000611E4BE0BE016F5F7F4F0196B4DC182F1C
:10116000893009F05AC099E19093110190931201CE
:101170009093100182E380930F0169E0CE01019604
:101180001CD6E1E0F0E0EC0FFD1FE10FF11D8083C4
:10119000198E1D86CE0101967C016E019BE0C90E61
:1011A000D11C27E0AA24A394B12CEC14FD0429F14E
:1011B00000E010E0F501002E01C0EE0F0A94EAF7FE
:1011C000D7018C91AE01475E5F4FBE01635F7F4FD9
:1011D0008E2318DE282F0F5F1F4F0830110551F79F
:1011E000AE01475E5F4FBE01635F7F4F81E00ADE65
:1011F000282FBFEFEB1AFB0AD8CF222311F0215082
:1012000004C0898D8F5F898F27E0EAE0EE2E03E02E
:10121000498D6CE0CE010D9636DE6996EAE00C94BD
:101220007D1EA9E1B0E0E7E1F9E00C94601E4BE01F
:101230009E012F5F3F4F7901B901019644DC182FC1
:1012400085E38093120196E1909311019093100130
:1012500080930F01612FC701BCD5F701E10FF11D8C
:10126000808399249394910E198E1D86870127E01F
:10127000AA24A394B12C802F8E19891508F04AC096
:10128000C12CD12CF5010C2C01C0EE0F0A94EAF709
:10129000D8018C91AE01475E5F4FBE01635F7F4F07
:1012A0008E23B0DD282FBFEFCB1ADB0A34E0C31644
:1012B000D10441F7AE01475E5F4FBE01635F7F4FD0
:1012C00081E0A0DD282FB4E0CB2ED12CF5010C2C31
:1012D00001C0EE0F0A94EAF7D8018C91AE01475E87
:1012E0005F4FBE01635F7F4F8E238CDD282FBFEFE2
:1012F000CB1ADB0A38E0C316D10441F7AE01475ED2
:101300005F4FBE01635F7F4F81E07CDD282F0F5F61
:101310001F4FB1CFAAE0EA2E03E0498D6AE0CE016B
:101320000D96B1DD6996EBE00C947C1ECF93DF93B4
:10133000E898249A2C9A8EE190E088DA2C988EE135
:1013400090E084DA2C9A8DE290E080DA80E3AED8E7
:1013500084E690E07BDAC0EAD1E0FE013196649148
:10136000FE01849191D82296F1E0C23DDF07A9F7F2
:1013700083E39CD884E06FDA84E398D885E347D888
:101380008D30D1F7DF91CF910895AEE1B0E0EBEC75
:10139000F9E00C94671E80911301882309F493C02F
:1013A0004A9B7DC08FE333D88F7789838E3148F095
:1013B0008AE37CD886E37AD88DE378D884E376D83C
:1013C00082C02C988FEF0E94AD0110E08981181720
:1013D00060F480E00E94AD01E2E0F0E0EC0FFD1F60
:1013E000E10FF11D80831F5FF1CF80E00E94AD010E
:1013F000082F80E00E94AD012C9A84E357D885E342
:1014000006D88D30D1F72A8196E792279A8392E009
:101410008981E92FF0E0981768F441E050E04C0F23
:101420005D1FE40FF51F30812452232720839F5F27
:10143000232FEECF81E090E08C0F9D1FE80FF91F66
:1014400090818B819827908380918E0684FF10C0B5
:1014500081E671DA10E08981811708F1E1E0F0E0BE
:10146000EC0FFD1FE10FF11D808165DA1F5FF3CFE7
:1014700081E461DA10E08981811750F0E1E0F0E069
:10148000EC0FFD1FE10FF11D808119DB1F5FF3CF12
:1014900080918E0685FF02C0802F11DB9CDA85E3E8
:1014A0000E940702813029F0813161F48AE30E94B1
:1014B000560286E30E9456028DE30E94560284E3A0
:1014C0000E945602C7D86E96E4E00C94831EAEE1EB
:1014D000B0E0EDE6FAE00C94631E4DE18E010F5F83
:1014E0001F4FB8010196EFDA6C019C0133272150A0
:1014F0003109898190E02817390709F065C080918A
:101500001301811103C012DF83E0A5D9FB808A811A
:1015100096E789278A8392E08981292F30E0F801B4
:10152000E20FF31F981750F4DE01A20FB31F8C9146
:1015300084522081822780839F5FEECF80818F2518
:10154000808385E30E94560285E30E94070283316F
:10155000C1F7F4FE06C088E77ED988E77CD988E722
:1015600001C08AE078D92C988FE70E94AD017801FC
:101570008E2D801B8C1530F4F70181917F010E9424
:10158000AD01F6CF2C9A85E30E9407028331D9F38F
:1015900085E30E940702863149F48BE30E945602DC
:1015A00086E30E9456028DE30E9456028091130149
:1015B000882349F084E30E94560285E30E940702D3
:1015C0008D30C1F701C0CCD36E96E8E00C947F1E3D
:1015D000FC012181223729F4A9DE81E080931301E7
:1015E0000895233711F4019672CF109213010895D4
:1015F000CF93DF93E898249A2C9A8EE190E026D935
:101600002C988EE190E022D92C9A8DE290E01ED9A0
:1016100080E30E94560284E690E018D9CBEED1E038
:10162000FE018491813438F083E30E94560284E005
:1016300012D9CFEF0DC0FE0131966491FE01849165
:101640000E9444022296F2E0C732DF0749F7ECCF4E
:1016500084E30E9456028AE090E0F8D8C150C1F7B6
:1016600081E080931401DF91CF910895EF92FF9272
:101670000F931F93CF93DF93EC018B01F880F394CA
:101680006115710519F0E4E6F0E002C0E0E0F0E079
:1016900028E0F29EC00111246AE070E00E94461E1C
:1016A0009B012E0F3F1FC901AA2797FDA095BA2FB6
:1016B000E0918C06F0918D06AF0160E070E0481774
:1016C00059076A077B0720F48BED91E077D9C3C0F7
:1016D000E21BF30BF0938D06E0938C0680911401CE
:1016E000811101C085DF85E30E9407028D3051F032
:1016F0008AE521D985E41FD982E51DD982E51BD968
:1017000081E347C08091150190911601A0911701C6
:10171000B0911801892B8A2B8B2B29F50E94B802D6
:1017200085E30E940702833109F43BC08AE503D9AF
:1017300085E401D982E5FFD882E5FDD882E329C09E
:101740008091880690918906A0918A06B0918B06B7
:101750004F5F5F4F6F4F7F4F84179507A607B707FF
:10176000E9F681E078D88091880690918906A09169
:101770008A06B0918B064091150150911601609137
:1017800017017091180184179507A607B707C1F6CE
:10179000E8CFD1D885E30E94070291D91CD928DF70
:1017A0005AC0012B41F42C988FE70E94AD01EC2E1A
:1017B0000C2F1D2F0AC00AE010E084E64CD801501F
:1017C000110901151105C9F7EECF802F8E198F155C
:1017D00030F4F80181918F010E94AD01F6CF2C9A6F
:1017E000C8EC85E30E9407028D30B1F485E30E94C6
:1017F00007028D30D9F08AE59ED885E49CD882E531
:101800009AD882E598D883E396D885E30E940702A8
:1018100056D9E1D8EDDE0AC085E30E940702833184
:1018200029F781E018D8C150E1F6E0CF809114018A
:10183000811101C095D28091880690918906A0916E
:101840008A06B0918B068093150190931601A093A0
:101850001701B0931801CDB7DEB7E6E00C94811EF6
:10186000ACE0B0E0E6E3FCE00C94681EFC018BE029
:10187000898381818A831B8282E08C8387818D8327
:1018800080858E8381858F83848188878581898700
:1018900086818A871B861C8684E10E942B0460E077
:1018A00070E0CE010196E2DE8AE545D810E0812F96
:1018B00090E0298130E02817390754F0E1E0F0E0AA
:1018C000EC0FFD1FE80FF91F8081F9D81F5FEFCFE4
:1018D00080918E0685FF02C080E0F1D87CD82C96DE
:1018E000E3E00C94841ECF93DF93EC0180911C0104
:1018F000811108C090911D01911104C090911E01A9
:101900009923A9F09B81903319F09F7E903479F44C
:101910009F8198130CC0988580911D01981307C072
:10192000998580911E01981302C0CE0199DF8091A4
:101930001901811108C090911A01911104C0909170
:101940001B019923A9F098819B3091F49B819034DD
:1019500079F49F8198130CC0988580911A0198138F
:1019600007C0998580911B01981302C0CE0178DFD2
:10197000DF91CF910895AEE1B0E0E1ECFCE00C9492
:10198000671E80911401882309F467C04A9B57C0E1
:101990008FE30E9407028F778E3108F08DE18983F3
:1019A0002C988FEF0E94AD0110E08981181760F428
:1019B00080E00E94AD01E2E0F0E0EC0FFD1FE10FDE
:1019C000F11D80831F5FF1CF80E00E94AD01082FE1
:1019D00080E00E94AD012C9ACE01019684DF8091B7
:1019E0008E0684FF12C08AE70E949B0410E0898162
:1019F000811798F1E1E0F0E0EC0FFD1FE10FF11D20
:101A000080810E949B041F5FF2CF8AE50E949B04A5
:101A100010E08981811750F0E1E0F0E0EC0FFD1F4C
:101A2000E10FF11D80814BD81F5FF3CF80918E06AF
:101A300085FF02C0802F43D80E94EB040EC085E3CF
:101A40000E940702813149F48AE30E94560286E32C
:101A50000E94560284E30E9456026E96E4E00C94C3
:101A6000831EAEE1B0E0E7E3FDE00C94671E8C015D
:101A7000FC018181823711F4BBDD35C0833711F061
:101A80008636F9F44DE1BE016F5F7F4FC8010296C3
:101A90001AD899270197298130E08217930729F0F6
:101AA00082ED91E00E94DE041EC061E070E0F8016A
:101AB0008181833711F060E070E0CE010196D6DDC0
:101AC00012C0813621F443E06CE171E005C0873734
:101AD00041F443E069E171E0C80102960E946305A8
:101AE00002C0109214016E96E4E00C94831E8F9253
:101AF0009F92AF92BF92DF92EF92FF920F931F934C
:101B0000CF93DF9310923A0110924F01FC01218193
:101B1000220F220F220F3381231B57E0520F109206
:101B20003B0110E070E038E0D32ED20EFF24F39496
:101B300047E007E0E12CC7E0D0E0A1E0B0E0FD1411
:101B400009F47FC0FC01EE0DF11D248130E0002E70
:101B500002C0359527950A94E2F721703327E22FCA
:101B6000002311F0015002C0E39407E06B3471F4DC
:101B7000433009F04AC0111107C0E1115FC0109253
:101B80003A0170934F0174C010E041C04F3F31F5EE
:101B90006634A9F4E72FF0E0E55CFE4FE0810E2EFD
:101BA000E295E0250E2EE695E695E025EF5FE1FB58
:101BB000882480F8912C8216930641F004C0653485
:101BC00029F4E11103C010933A01DBCF7F5FE72FC7
:101BD000F0E0E55CFE4F108247E031C0EE2361F19A
:101BE000663471F4E72FF0E0E55CFE4FA0809D01C4
:101BF000042E01C0220F0A94EAF7A22AA0821CC078
:101C0000653439F06B34C1F404C04F3FD1F2EE2398
:101C100099F0E72FF0E0E55CFE4F9E01241B3109AF
:101C200047FD33955D0102C0AA0CBB1C2A95E2F763
:101C300095013081322B3083415001C011E0F39483
:101C40007ECF10933A0170934F015F1588F465348D
:101C500031F44F3F21F47F5F70934F0104C08091B6
:101C60003A018111F8CF81E090914F01911101C0AB
:101C700080E0DF91CF911F910F91FF90EF90DF9067
:101C8000BF90AF909F908F90089510926F00E09159
:101C900052018CE1E89FF0011124ED5AFE4F1082B1
:101CA0000895FC012181243108F0EFCF33816623B0
:101CB00081F081E090E0032E01C0880F0A94EAF7DA
:101CC000DF01A20FB11D14969C911497982B1496C6
:101CD0009C93332319F031503383089587E0838335
:101CE0002F5F2183E20FF11D14820895DC0111960C
:101CF000EC911197F0E050E02C91CF01841B950BF3
:101D00000B964797A0F430E070E0C901861B970B53
:101D10000B96479760F42E0F3F1F640F751F261B0D
:101D2000370B255F3F4F81E02731310508F080E018
:101D30000895219A29985298E9E6F0E0808181601F
:101D4000808382EC91E090938D0680938C061092B4
:101D50006F0110928B011092A701109286060895D0
:101D600080918E06882321F00E94E3020C94CA021F
:101D70000C94DA02FC01218121110EC080918E06A3
:101D80000E945F0540E265E080918C0690918D068F
:101D90000E94EF040C94EB0441E06EE876E00196BB
:101DA0000E946305DDCF442339F04150FB01E40F6D
:101DB000F11D9081890FF7CF089520E0662339F057
:101DC0006150FC01E60FF11D30812327F7CF822FF0
:101DD0000895A0913A0140E035E020E0662399F0B3
:101DE0006150FC01E60FF11D5081752F72957F70D7
:101DF0002727370FAA2311F0442319F05F702527F6
:101E0000350F4F5FEBCF320F40E1349FC0011124FB
:101E1000822B0895FC0132812381A081B181A30F1F
:101E2000B11D8C9190E0022E02C0959587950A9481
:101E3000E2F7817099274FEF420F4383211104C0CD
:101E40003F5F328327E023830895A2E0B0E0EBE216
:101E5000FFE00C94611E7C01A12CB12CD12CCC2470
:101E6000C394062F10E001501109A616F0F4C70123
:101E70004A836983CFDF4A816981882391F04423B3
:101E800049F098012A193B098C2D01C0880F2A9529
:101E9000EAF706C08C2D0A2C01C0880F0A94EAF7D5
:101EA000D82A8FEFA81AB80AE0CF8D2D2296EAE043
:101EB0000C947D1EA4E0B0E0E0E6FFE00C94601E10
:101EC0001B8227E02C839C012C5F3F4F3A832983A0
:101ED00010924F01FC012181338187E090E0831B48
:101EE0009109F8E02F9F800D911D112485349105F3
:101EF0000CF44EC0B12CA0904F01F5E0FA1558F14A
:101F00000A2D10E040E068E0CE0101969EDF055CFE
:101F10001E4FF8018083982E092C92949024092C4E
:101F2000969496949024CE01019674DF939491FA3E
:101F3000CC24C0F8D12C90E0C816D90649F5CE01C2
:101F4000019668DF811124C0F8018081B826A3942E
:101F5000A0924F01D0CF40E068E0CE01019675DF3E
:101F6000082F182F012E12951025012E1695169563
:101F70001025CE0101964EDF1F5F11FBEE24E0F825
:101F8000F12C282F30E0E216F30611F481E0B012B4
:101F900080E02496EBE00C947C1EA5E0B0E0E3ED3D
:101FA000FFE00C94641EFC011B8287E08C83CF0150
:101FB00004969A83898310924F018081853009F0BD
:101FC0004FC02181338187E090E0831B910938E085
:101FD000239F800D911D11248039910509F040C087
:101FE0000FE010EF29E880914F01E82EF12CDD245D
:101FF000D394D80E41E068E08F3088F4CE0101968A
:102000002D8323DF080F111DF701E55CFE4F2D81A5
:102010002827208324E2280FD0924F01E4CFCE015D
:10202000019613DF080F111DD0924F01F701E55CF7
:10203000FE4F8095808341E068E0CE01019605DF88
:1020400090E0982F8827081B190B41E068E0CE012B
:102050000196FBDE282F30E081E00217130709F01C
:1020600080E02596E7E00C94801EA4E0B0E0EBE36E
:10207000F0E10C94661E1B8227E02C839C012C5FF0
:102080003F4F3A832983FC0121812430A1F58381CC
:10209000813089F510924F0180914F01082F10E097
:1020A000FF24F394F80E41E0843098F4811106C0C7
:1020B00067E0CE010196C9DE806804C068E0CE0109
:1020C0000196C3DEF801E55CFE4F8083F0924F017C
:1020D000E3CF67E0CE010196B8DEF801E55CFE4F84
:1020E000880F8083F0924F0190913B0192959F70F1
:1020F00081E09A3009F080E02496E5E00C94821E9D
:10210000CF93DF93FC0181818330E9F483818730B1
:10211000D1F480818830B9F410924F0120E0822FF1
:1021200090E0DC01A55CBE4FEF01C80FD91F8C8188
:102130008C9381E0820F833010F4282FF0CF8093AE
:102140004F0181E001C080E0DF91CF910895A0E0D0
:10215000B0E0EDEAF0E10C94641E80911F01882349
:10216000B9F180918E0687FF17C084E30E940702B1
:102170008058803458F0803C58F490E080559109A4
:1021800023E0959587952A95E1F703C080E001C08B
:102190008FE08F590E949B0480918E0683FF16C0AA
:1021A00082E70E949B0480918E0684FF04C0809188
:1021B00020010E949B0486E60E949B0480918E066B
:1021C00084FF04C080911F010E949B0410921F0194
:1021D00080915001882309F411C2429AC0915101A3
:1021E0002CE1C29FE0011124CD5ADE4FCE0188DFE1
:1021F000811102C0F12C02C093E7F92ECE01CDDE91
:10220000811133C0F11060C166E4CE0170DC882317
:1022100091F110914F01115010934F01412F6BE339
:1022200071E086E0C0DDE12FF0E0E55CFE4F00816B
:10223000801302C01430E0F4282F30E02F5F3F4FAE
:10224000602F70E02617370721F4143010F08083D8
:102250000FC0412F6BE371E08CE0A5DD80130BC054
:10226000143048F0F4E5FF2E2FC1B3E5FB2E2CC14E
:10227000A6E4FA2E29C165E4CE0139DC882339F0C1
:1022800080914F01815080934F01893029F0CE0118
:1022900011DE811113C00BC069E08BE391E08DDD8D
:1022A000909144018913F3CFE5E4FE2E0DC1CE01D8
:1022B000DCDE882331F064E7F62E06C178E4F72EE1
:1022C00003C1D09020018E01065E1F4F4B8D6D2DF6
:1022D000C8010CDD682FCE01E4DC6BE4CE0107DC25
:1022E0008823A9F0E0904F01EA94E0924F016E2D0F
:1022F0008BE391E06EDDEE2DF0E090913A01E91B69
:10230000F109E55CFE4F9081891709F4DBC08B81F0
:10231000873029F41B8289818150898302C08F5FB5
:102320008B838981843009F04BC08B81843009F024
:1023300047C04EE16CE3CE014896D8DC882309F40F
:102340003FC04EE16D2DC801D1DC682FCE01A9DC64
:1023500020E0822F90E0FC01E55CFE4FDE01A80F3B
:10236000B91F14968C91808381E0820F853010F420
:10237000282FEFCF80934F0182E5F82EA5C0209340
:102380003901409188065091890660918A067091C2
:102390008B06409321015093220160932301709397
:1023A0002401F4E5FF12F4C0A6FDF2C080914F01B4
:1023B000853008F4EDC080913D018B3409F0D6C022
:1023C00080918E0682FF65C080E70E949B04888111
:1023D00040E262E090E00E94EF04888D40E265E018
:1023E00020E1829FC00111240E94EF04898D40E208
:1023F00065E0E0E18E9FC00111240E94EF048A8D08
:1024000040E265E0F0E18F9FC00111240E94EF04DB
:102410008B8D40E265E020E1829FC00111240E9483
:10242000EF048A8140E263E090E00E94EF0489813A
:1024300040E263E090E00E94EF042B8140E262E022
:1024400087E090E0821B91090E94EF0480E20E94E5
:102450009B0480918E0685FF08C084E30E940702DA
:102460000E945F0580E20E949B048B81873019F0F7
:1024700089818F5F898310E08981181740F4FE01FC
:10248000E10FF11D84810E945F051F5FF5CF0E945F
:10249000EB0418828091500181508093500180910B
:1024A00051018F5F843019F08093510102C0109266
:1024B0005101429884E5F812A1C08BE391E00E949B
:1024C0005B1B9CC05BE4F52EA0918E06A0FF78CF2D
:1024D000A1FD4AC030913901B0914F013B1332C088
:1024E00020E0231770F4822F90E041E0420FFC01BE
:1024F000EB5DFE4F855C9E4F5081FC01808158173B
:1025000029F02093390123131DC002C0242FE9CFE5
:10251000409188065091890660918A0670918B06D9
:102520000091210110912201209123013091240179
:10253000401B510B620B730B31E0463251056105B4
:10254000710508F030E020E02B1708F018CF822F3B
:1025500090E0AC014B5D5E4F855C9E4FFC0180813D
:10256000FA0180832F5FF0CF30E01BCF893609F46A
:1025700027CF9DEA980F923008F422CF8D578230F2
:1025800008F41ECF80913E018077803709F418CF80
:10259000311116CF8F2D0E949B0480913A01882320
:1025A00029F080914F01815080934F0110E0E0911C
:1025B0004F011E1748F4E12FF0E0E55CFE4F8081EB
:1025C0000E945F051F5FF3CF80913A01882351F08D
:1025D000F0E0E55CFE4F80818F7040E361E090E0C9
:1025E0000E94250580918E0685FF05C084E30E9428
:1025F00007020E945F050E94EB04E2CECDB7DEB772
:10260000E7E00C94801E1F920F920FB60F921124D8
:102610000BB60F922F933F934F935F936F937F93DC
:102620008F939F93AF93BF93EF93FF9310926F009D
:1026300080918E0683FF03C08EE20E949B048091EE
:1026400052019CE1899FF0011124ED5AFE4F9081C7
:10265000933018F09181923010F417DB18C09091EC
:102660005001933049F480918E0682FFF6CF87E2C5
:1026700092E00E94DE04F1CF9F5F909350018F5F44
:10268000843019F08093520102C010925201FF91E0
:10269000EF91BF91AF919F918F917F916F915F91DA
:1026A0004F913F912F910F900BBE0F900FBE0F9047
:1026B0001F9018959BED980F973150F496EF960F59
:1026C0009D3130F491E0681708F090E0892F08956B
:1026D00080E008951F920F920FB60F9211240BB64F
:1026E0000F92FF920F931F932F933F934F935F93FC
:1026F0006F937F938F939F93AF93BF93CF93DF930A
:10270000EF93FF938091EA0A882321F082E080937F
:10271000EA0A63C180919E0A823021F483E08093AB
:102720009E0A5BC10091840010918500B4E016956B
:102730000795BA95E1F7C09152019CE1C99FE0016C
:102740001124CD5ADE4F9881943031F40E3208F4C2
:1027500044C10F3448F0B6C0953031F4073108F465
:102760003CC1083208F0AEC04A990DC09450923076
:1027700038F461E0CE0195DA109285001092840061
:10278000009320012AC180912001081B00931F01A2
:1027900010928500109284009881983071F42A81FB
:1027A00021110BC021E02A83888F8A8F098F0B3B70
:1027B00010F4000F01C006950B8F9450923020F456
:1027C00060E0CE016EDA09C182E086BBF880F110CC
:1027D00011C090912001953608F0FFC080911F0133
:1027E000853608F0FAC0988F898F81E08A8382E06D
:1027F0008883F3C010911F0182E0F81273C000912A
:102800002001412F602FCE01489670DA6A8188231B
:10281000F9F0488D50E09A01220F331F240F351F25
:10282000200F311D3595279535952795288F298DB2
:1028300030E0C901880F991F820F931F810F911DEE
:102840009595879595958795898F6F5F6A83C5C0A4
:10285000643008F445C020EA3FE0309389002093BB
:1028600088008A818C3050F0888D298D30E0280FC7
:10287000311D2536310524F084E027C08A3088F0E8
:10288000888D298D30E0280F311D253231054CF41B
:1028900085E0888328EE33E0309389002093880018
:1028A00015C080919406882379F0612F802F02DF74
:1028B000882351F0688D898DFDDE882329F081E021
:1028C00080939E0AE2D989C083E088830A8F1B8F98
:1028D000198287E08B831C8282E080936F007DC029
:1028E000188277CF98E0F91225C081E9810F8D31E8
:1028F00078F460E0CE01D5D9288D30E0C901880F89
:10290000991F820F931F20912001820F911D4EC0AD
:10291000173E08F462C061E0CE01C3D92A8D30E0D1
:10292000C901880F991F820F931F20912001820FE8
:10293000911D15C000912001412F602FCE014A96B4
:10294000D5D9882301F161E0CE01ABD92A8D30E0E1
:10295000C901880F991F820F931F800F911D9595B4
:102960008795959587958A8F2B8D30E0C901880FC3
:10297000991F820F931F810F911D959587959595AE
:1029800087958B8F2AC0412F602FCE014896AED9F4
:10299000882301F160E0CE0184D9288D30E0C9019F
:1029A000880F991F820F931F800F911D9595879512
:1029B00095958795888F298D30E0C901880F991FDB
:1029C000820F931F810F911D9595879595958795FA
:1029D000898F03C087E0F81275CFFF91EF91DF91E7
:1029E000CF91BF91AF919F918F917F916F915F91A7
:1029F0004F913F912F911F910F91FF900F900BBE20
:102A00000F900FBE0F901F901895E09152018CE12E
:102A1000E89FF0011124ED5AFE4F8081811107C01B
:102A200081E09091D90A9F3F19F480E0089581E0F8
:102A3000089580E690E00E94A8058093940681E6C0
:102A400090E00E94A8058093A80A882321F081E2E3
:102A500080938E0685C90895299A0C942604299896
:102A60000C942604A7E0B0E0E8E3F5E10C94641EC2
:102A70009091A006943559F42091A10A3091A20AB0
:102A80002F5F3F4F3093A20A2093A10A3EC0963495
:102A900059F420919F0A3091A00A2F5F3F4F309345
:102AA000A00A20939F0A31C0953459F420919106D1
:102AB000309192062F5F3F4F3093920620939106FC
:102AC00024C09B3459F42091A40A3091A50A2F5FA9
:102AD0003F4F3093A50A2093A40A17C0983459F4A5
:102AE0002091A60A3091A70A2F5F3F4F3093A70A83
:102AF0002093A60A0AC020918F06309190062F5F7E
:102B00003F4F3093900620938F0695E79983882353
:102B100099F0BE016E5F7F4F8091A80A0E949005D8
:102B2000BE016C5F7F4F809194060E94900585E501
:102B30008E8386E0D82E02C0DD24D3940E94E30267
:102B40000E94B80216E080E891E086DF80E093E022
:102B500086DF1150C1F780E093E07EDF80E891E0EE
:102B60007EDF80E891E078DF299887E390E00E949B
:102B70005A0283E00E942B042C988FE70E94AD013B
:102B8000809199068D0D0E94AD01CE0101967C01C8
:102B90008C01F80181918F010E94AD01802F8E1967
:102BA0008D15B8F38091990690919A06892B39F08A
:102BB00085E996E00E94E2060E94AD01F3CF2C9ACF
:102BC0000E94B80285E996E00E94BC0615E18AE3FE
:102BD0000E9407028F7731F0115021F081E00E94AE
:102BE0002B04F5CFBDD82796E7E00C94801ECF9339
:102BF000DF93EC018981811107C0809194060E94C6
:102C00005F058091A80A13C08436A1F480918806DC
:102C100090918906A0918A06B0918B0640E364E00A
:102C20000E9425058EE20E949B0480919D0A0E94CD
:102C30005F054DC0833709F04DC040E361E08091EE
:102C4000A10A9091A20A0E9425058EE20E949B048F
:102C500040E361E080919F0A9091A00A0E942505BF
:102C60008EE20E949B0440E361E080919106909186
:102C700092060E9425058EE20E949B0440E361E0DB
:102C80008091A40A9091A50A0E9425058EE20E94D7
:102C90009B0440E361E08091A60A9091A70A0E94FC
:102CA00025058EE20E949B0440E361E080918F063F
:102CB000909190060E9425058EE20E949B0440E3BD
:102CC00061E080919B0A90919C0A0E9425050E94D8
:102CD000EB042CC08936D9F441E064E976E0CE01FA
:102CE00002960E9463056091940680E690E00E943F
:102CF000A30541E068EA7AE0CE0104960E946305EC
:102D00006091A80A81E690E00E94A3050FC085E9C2
:102D100096E00E94BC0621966991662329F085E918
:102D200096E00E94C406F8CF80E09CDEDF91CF9150
:102D30000895A1E0B0E0EEE9F6E1C5C780919E0AF2
:102D4000882309F48FC0C0908806D0908906E0904F
:102D50008A06F0908B06833009F06AC08FE30E94E8
:102D60000702182F8630C8F081EF9EE00E94BC0653
:102D70002C988FEF0E94AD0180E00E94AD01082FDA
:102D8000115049F080E00E94AD01682F81EF9EE074
:102D90000E94C406F5CF2C9A01C000E00E94B00E3C
:102DA00010929E0A053709F05DC041E0BE016F5FD9
:102DB0007F4F87EF9EE00E9463050197A1F59981FF
:102DC0008091940698132FC08091FB0E853581F475
:102DD0008091F50E9091F60E892B39F081EF9EE0EF
:102DE0000E94E2060E949B04F3CF0E94EB043AC0CB
:102DF0008091F50E9091F60E04979093F60E8093C5
:102E0000F50E84E090E09093F40E8093F30E6AE068
:102E100081EF9EE00E94C406E0918406F091850651
:102E200088E009951FC081EF9EE00E94BC061AC091
:102E3000823059F4809193069C2D981B983090F025
:102E40000E94B00E10929E0A0DC0813059F487E3A3
:102E500090E00E945A020E94CA0282E080939E0A79
:102E6000C09293062196E8E04AC7CFDD882361F03F
:102E700083E08093A30A80919B0A90919C0A01961B
:102E800090939C0A80939B0A8091A30A815080931F
:102E9000A30A882321F083E080939D0A089581E0AE
:102EA000E1CD1092C40A10927E0283E08093C801A3
:102EB0008FEF8093D90A0895E9ECF1E02081211188
:102EC00005C0892BB1F080E090E00895B2E0E737CB
:102ED000FB07B8F7009751F04181DC013C914313A7
:102EE00005C0428111963C91431751F0E20FF11D4C
:102EF000E5CF32E0E737F30719F010F0E7E7F2E04B
:102F0000CF01089594E0899FF0011124E652F54F16
:102F100080818F3F91F08093C30181818093C401B0
:102F200082818093C50183818093C60121E04CE0BA
:102F300064E083EC91E00C94E207089588E792E066
:102F4000BBDF009799F02091C801FC013081231765
:102F500068F4E20FF11D808180937A0289E7809303
:102F60007B02818180937C0281E0089580E0089556
:102F7000EF92FF921F93CF93DF931F92CDB7DEB7EF
:102F8000182F80918E0686FF18C084E599830E94D1
:102F90009B04E12E9981F92E15E0F70181917F01C3
:102FA0000E945F051150C9F780918E0685FF03C00E
:102FB0008AEF0E945F050E94EB040F90DF91CF9192
:102FC0001F91FF90EF90089586E30E945602809132
:102FD0007A02833511F48BE901C08BE40E942B0443
:102FE00021E04CE065E088E792E00E94E2070E9461
:102FF000CA0288E792E0BCCFE7DF80917A02893687
:1030000031F081E08093770289E28093D90A0895B4
:10301000CF9385E390E00E94A8058093AA0A86E3F7
:1030200090E00E94A8058093D80ACFEFC093C80A09
:10303000C093CA0AC093CC0AC093CE0AC093D00AE8
:10304000C093D20AC093D40AC093D60A2ADF109242
:10305000C90181E08093A90AC093DA0A8FEF9FEF3C
:103060009093AD0A8093AC0A1092AF0A1092AE0A08
:103070001092B10A1092B00AC093DE0A9093B30A7C
:103080008093B20A1092B50A1092B40A1092B70A4D
:103090001092B60AC093E20A9093B90A8093B80AD4
:1030A0001092BB0A1092BA0A1092BD0A1092BC0A82
:1030B000C093E60A9093BF0A8093BE0A1092C10A99
:1030C0001092C00A1092C30A1092C20ACF910895BA
:1030D000ACE0B0E0EDE6F8E1F5C56C018C010F5F06
:1030E0001F4F45E0BE016F5F7F4FC8010E9463051F
:1030F000843008F0F2C099819130A9F4833061F4F2
:103100006A8185E390E00E94A3056B8186E390E0ED
:103110000E94A3057DDF05C28091AA0A0E945F0577
:103120008091D80A99C0923009F051C0813039F0AD
:1031300081E09A81913009F080E0F82E02C0FF24EE
:10314000F3948091C901811104C08EE292E00E9443
:10315000DE0409EC11E0F8018081882309F4BAC08B
:10316000F2E007371F0708F0B5C031E0093C13074C
:1031700019F080E20E949B04F80181810E945F05A2
:10318000F80182810E945F05FF20E1F08AE30E943E
:103190009B0493E0F80180819817A0F4943038F0F4
:1031A00090FF05C08CE29C870E949B049C85EE24C6
:1031B000E394E90EF801E90FF11D80810E945F059B
:1031C0009E2DE8CFF8018081080F111DC4CF9330E8
:1031D00049F480E090E070DE895C91409EEA981BA3
:1031E000892F3AC0903171F508EC1AE089ECE82E8D
:1031F0008AE0F82EC12CD12CF80180818F3FA1F0FC
:10320000DD2019F080E20E949B048C2D0E945F0556
:103210008AE30E949B04F80180810E945F05F70108
:1032200080810E945F05D3940E5F1F4FC394F2E02C
:10323000EF0EF11C38E0C312DFCFD1104BC08CE38E
:1032400092E046C0913159F48091C60A9091C70A24
:103250006DE770E007D5862F0E945F053BC0923175
:10326000C9F51AEDE12E1AE0F12E0DED1AE0C12C90
:10327000D12CF70180818F3FF1F0DD2019F080E241
:103280000E949B048C2D0E945F058AE30E949B0490
:10329000F70180810E945F05F801329780810E94CA
:1032A0005F05F801319780810E945F05F8018081F8
:1032B0000E945F05D394F4E0EF0EF11CC3940C5F01
:1032C0001F4F34E0C312D5CFD11004C088E392E081
:1032D0000E94DE040E94EB0424C144E0BE01695F49
:1032E0007F4FC8010E9463054F81493608F477C0BB
:1032F0007A85588569857C3009F04BC020E030E044
:1033000080E090E0F901E652F54F708174131CC023
:10331000A181A51319C0A281A61316C02CE0238396
:103320009C01220F331F280F391FF901EE0FFF1FD9
:10333000E455F54F11821082F901EE0FFF1FE2559F
:10334000F54F11821082CFC07F3FD9F44083518363
:1033500062832CE023839C01220F331F280F391F27
:10336000F901EE0FFF1FE455F54F11821082F901AC
:10337000EE0FFF1FE255F54F118210821092A90A3D
:10338000B2C001962C5F3F4F2031310509F0BACF12
:10339000C8C080E090E020E030E0FC01E652F54F4C
:1033A000A081A41315C0A181A51312C0A281A613E8
:1033B0000FC07383F901EE0FFF1FE20FF31FEE0F33
:1033C000FF1FE255F54F81E090E091838083A9C013
:1033D0002F5F3F4F049680319105F9F6A2C0E98135
:1033E0008091AA0AE817C0F190E0F0E09C01295F03
:1033F0003F4F2E173F0784F13A812091D80A3213AC
:103400002BC03C813F3231F442E06CE0C6010E94A7
:103410004F0887C02D813C32B1F42093C50A81E06A
:1034200090E09093C70A8093C60A80918C06909191
:103430008D06E4E02E9F800D911D112490938D0642
:1034400080938C066EC0E81BF90BEE0FF0E0E8539A
:10345000F54F3083218365C080E090E02DDD7C0155
:10346000F80101900020E9F73197E01BF10BF69588
:10347000E795BB24B394BE0EC7018B0D911D895CEB
:1034800091408F3A91050CF048C0F701B1928F013D
:1034900021E0822F880F81502B15D8F441E0B8012C
:1034A000F601E80FF11DCF012C870E9463052C85E2
:1034B000233058F020FD09C0D80111978C91843633
:1034C00021F4F80180818093AB0A2F5F0F5F1F4FBB
:1034D000E0CFF7E7EF16F2E0FF0618F5F701E20F8D
:1034E000F11D10821EC022E04CE064E0CE01079680
:1034F0000E94E2078FE08A8722E04CE064E0CE0180
:1035000007960E94E20782E08A8722E04CE064E0AE
:10351000CE0107960E94E20704C082E392E00E9477
:10352000DE042C96E9E0EAC30F931F93CF93DF9359
:103530009091A90A91114FC093E0899F80011124B5
:10354000F801EE0FFF1FE455F54F94E0899FD0017D
:103550001124A652B54F12969C91977040E850E006
:10356000491B51099AEF949F9001959F300D1124AA
:10357000359527953595279531832083E801CC0F24
:10358000DD1FC055D54F288139812F5F3F4F3983CB
:103590002883000F111F0255154FF80140815181FA
:1035A0004115510529F424303105A9F4ABDC11C0D3
:1035B0004130510539F4A6DC82E090E0F8019183B6
:1035C000808309C04230510531F49CDCF80111823E
:1035D000108219821882DF91CF911F910F91089567
:1035E000A6E0B0E0E5EFFAE170C32091D80A2A83A3
:1035F0001B828091C50A882341F0833019F487E744
:1036000091E00FC08DE790E00CC0277030E02A51A8
:103610003F4F4DE7429FC001439F900D1124959568
:1036200087959093C70A8093C60A09EC1AE0F12C9B
:103630007CE2E72EF801319790819F3FC1F08091A5
:10364000AA0A8F0D89838091C50A882311F0EC8224
:1036500003C09C83F80180818D8321E04CE065E00C
:10366000CE0101960E94E207CE01019681DCF3941F
:103670000E5F1F4FF8E0FF12DDCF8091C50A88234F
:1036800041F0833019F41092C50A03C08250809330
:10369000C50A2696E6E035C380917702882351F06B
:1036A00093DC89E28093D90A8091770281508093DC
:1036B00077020895F6CBFF920F931F93CF93DF937A
:1036C000FC01F0800181C281D38114818FE5809358
:1036D000D90A109277028091AA0A811105C08091BF
:1036E000D80A882309F4A9C0809178028F1104C0F8
:1036F00080917902801729F0D4DBF0927802009350
:1037000079028091C40A8F3F09F497C0C0937A026E
:10371000D0937B0210937C02CC23F1F081111CC06A
:103720008091AA0A181761F0143651F08DEA8C0FB7
:10373000823010F0CD3739F48FEF8093C40A7DC00A
:10374000C43509F47AC08D2F807F803609F075C0AA
:10375000D067D0937B0257C0F1DB811105C0809107
:10376000C40A882309F469C080917E02811107C0D0
:10377000E091C40AF0E0E05CFD4FE49101C0E82F65
:10378000E33541F4C43531F49091C40A9E5F9093BF
:10379000C40A04C0EC1711F084DB4FC0882369F021
:1037A0008091C8018E5F8093C801C8DB81110EC073
:1037B0008091C40A8E5F8093C40A8091C40AE82F66
:1037C000F0E0EF5BFD4F14911F3F59F480917A02B6
:1037D00080937E028436B9F48091AB0A80937C0298
:1037E00012C010937A0297E790937B029091AA0AF5
:1037F00090937C028E5F8093C40A10927E028E307A
:1038000021F01123D1F0F8DB18C088E792E054DBF7
:10381000DC01009781F02C9130E087E792E0821B79
:10382000930BA817B90730F4ED01C20FD31F4881DD
:103830004D93F7CF1C9235DBE4CFCDB7DEB7E5E093
:1038400061C2FF920F931F93CF93DF938C01EC0122
:1038500009900020E9F72197C81BD90BFC01818151
:10386000823751F487E390E00E945A020E94CA0214
:1038700081E08093EA0A27C0833719F5FC2E2C9843
:103880008FE70E94AD018C2F82500E94AD01E801AC
:10389000229612E01F1528F489910E94AD011F5F46
:1038A000F9CF2C9A0E94B8028AE30E9407028F7710
:1038B00029F084E690E00E942604F6CF0E94CA0216
:1038C00002C01092EA0ACDB7DEB7E5E01BC2A0E065
:1038D000B4E0ECE6FCE1F7C18091EA0A882309F440
:1038E00052C0813011F58091880690918906A0918F
:1038F0008A06B0918B0620917F02281709F443C0F5
:1039000085E30E940702813129F48AE30E9456026E
:103910000E94CA028091880690918906A0918A0629
:10392000B0918B0680937F022EC08FE30E94070226
:10393000D82E2C988FEF0E94AD018E010F5F1F4F84
:103940007801C02E8E2D801B8D1538F480E00E94EA
:10395000AD01F70181937F01F5CF2C9A81E080932F
:103960000D01802F8C198D1530F4F80181918F0194
:103970000E949B04F6CF0E94EB048FEF80930D0111
:1039800081E08093EA0ADC5FE8E0B9C12091F71298
:103990003091F8122115310521F420910301309165
:1039A00004018091010190910201009741F48DB7CB
:1039B0009EB74091050150910601841B950B281775
:1039C000390718F4821B930B089580E090E0089566
:1039D00082E40E949B0440E265E08091F71290919E
:1039E000F8120E94EF040E94EB0483E50E949B04FE
:1039F00040E265E080910301909104010E94EF0490
:103A00000E94EB0485E40E949B0440E265E0809103
:103A10000101909102010E94EF040E94EB0486E4F0
:103A20000E949B04B3DF40E265E00E94EF040C9427
:103A3000EB041F920F920FB60F9211240BB60F9248
:103A40002F933F934F935F936F937F938F939F93A6
:103A5000AF93BF93EF93FF938091EF0A9091F00A99
:103A6000892B39F08BEE9AE00E94E2068093C60023
:103A700005C08091C1008F7D8093C100FF91EF91BF
:103A8000BF91AF919F918F917F916F915F914F9176
:103A90003F912F910F900BBE0F900FBE0F901F9074
:103AA00018951F920F920FB60F9211240BB60F921A
:103AB0002F933F934F935F936F937F938F939F9336
:103AC000AF93BF93EF93FF9388B194E0892788B9B0
:103AD0006091C6008091C000887121F481EF9EE062
:103AE0000E94C406FF91EF91BF91AF919F918F917A
:103AF0007F916F915F914F913F912F910F900BBEEE
:103B00000F900FBE0F901F90189597FF04C022E0F2
:103B10002093C0009F779093C5008093C40088E9EC
:103B20008093C10086E08093C20008958091C10017
:103B300085FD0BC08091EF0A9091F00A892B29F046
:103B40008091C10080628093C1000895E091840655
:103B5000F091850681E00995E9CF0F931F93CF93EC
:103B6000DF93EC0110E0212F30E0F901EE0FFF1F91
:103B7000E20FF31FE457FF4F0491F901EE0FFF1F0F
:103B8000E20FF31FE357FF4F25913491002399F083
:103B9000209739F480E20E949B04802F0E949B04AE
:103BA00008C08881801305C0CE01F901099581E024
:103BB00003C01F5FD8CF80E0DF91CF911F910F919D
:103BC0000895CF93C0910D0180930D018091F50E62
:103BD0009091F60E892B91F181EF9EE00E94E20612
:103BE000E09180028A3011F08D30F9F4EE2371F308
:103BF000F0E0EF57FD4F108281E892E0AEDF8111D7
:103C000011C086E692E00E94DE0481E892E00E9404
:103C1000D3048EE492E00E94DE0480E090E09DDF19
:103C20000E94EB0410928002D1CF91E09E0F9093FE
:103C30008002F0E0EF57FD4F8083C8CFC0930D01A5
:103C4000CF910895E4E6F0E080818B7F80832F9A06
:103C500084B1806B84B9269880E58CBD8DB5816078
:103C60008DBD0895AA1BBB1B51E107C0AA1FBB1F36
:103C7000A617B70710F0A61BB70B881F991F5A95F8
:103C8000A9F780959095BC01CD01089597FB072E6B
:103C900016F4009406D077FD08D0E4DF07FC05D0C9
:103CA0003EF4909581959F4F0895709561957F4F53
:103CB00008952F923F924F925F926F927F928F92D0
:103CC0009F92AF92BF92CF92DF92EF92FF920F93AB
:103CD0001F93CF93DF93CDB7DEB7CA1BDB0B0FB6B5
:103CE000F894DEBF0FBECDBF09942A883988488872
:103CF0005F846E847D848C849B84AA84B984C88408
:103D0000DF80EE80FD800C811B81AA81B981CE0FFE
:103D1000D11D0FB6F894DEBF0FBECDBFED010895E3
:103D2000F999FECF92BD81BDF89A992780B5089583
:103D3000262FF999FECF1FBA92BD81BD20BD0FB6C7
:103D4000F894FA9AF99A0FBE01960895F894FFCF65
:0A3D5000020000FB122000323100D7
:00000001FF
