:1000000067C100000C94E7117FC100007DC10000B2
:100010007BC1000079C1000077C1000075C10000FC
:1000200073C1000071C100006FC100006DC100000C
:100030006BC100000C94841167C1000065C1000011
:1000400048C3000061C100005FC100005DC1000045
:100050000C94D11B0C949D1B57C1000055C100008E
:1000600053C1000051C100004FC100004DC100004C
:100070004BC1000049C1000047C100003A28442A92
:10008000542854297B299B29A52948296D6C1B429A
:10009000C80743440246C90969C93941E40B47CC42
:1000A000094D040A59D03B52880654E316562F08CE
:1000B00057FC06583F0D4F4F3865ED0766A21A6C86
:1000C000B70774E50375701478D50245C71E71BC77
:1000D0001F000000202F2000203D2000072E050DCE
:1000E000D391FF080500000C0021656A2D3B132207
:1000F000F862073F181D1CC700B0876BF8B611EAFD
:100100002A001F41000D2E2D07D3913D043200001F
:10011000060021656A55E43023B900070018146C05
:10012000070090876BF85611E92A001F4100000371
:100130000F1E2627000000030F1E25363867000318
:100140000F256740605000030F275188838100030B
:100150000F2750C8C3C2002700000000000000673E
:1001600000000000000000500000000000000081BE
:1001700000000000000000C2000000000000504C21
:100180004C310D0A00504C4C300D0A005620312ED7
:1001900036332043554E4F38363800202F2000206C
:1001A0003D20004C4F56460D0A000B08105B11F81D
:1001B0001547191D1A1C1BC71C001DB221B623EAC6
:1001C0000007022E030D04E905CA070C0B060D21DA
:1001D0000E650F6A10C811931203153417331818DF
:1001E00019161B4321562500261129592C812D351E
:1001F0003EC3424F56460D0A004E2F4100454F4226
:100200000D0A004E2F41004E2F4100005353005461
:100210007D7DFFFF4B4B7E7E0020697320756E6BEA
:100220006E6F776E2920557365206F6E65206F663F
:10023000003F202800413435303535004134353019
:10024000353500303000302E302E302E3000323335
:100250003233003139322E3136382E302E310032E1
:1002600035352E3235352E3235352E300031393296
:100270002E3136382E302E3234340031000D2E2DF2
:1002800007D3913D04320000060010B07155E430F0
:1002900023B900070018146C070090876BF85611FB
:1002A000E92A001F41000D2E2D07D3913D04320095
:1002B00000060010ABA5550A3023B900070018143A
:1002C0006C070090876BF85611E92A001F41000067
:1002D00011241FBECFEFD0E1DEBFCDBF12E0A0E002
:1002E000B1E0E4EEF4E802C005900D92AC33B10742
:1002F000D9F720E1ACE3B2E001C01D92AD30B20706
:10030000E1F703D00C9470427BCE88E10FB6F894ED
:1003100080936000109260000FBE549A5C9A209AFD
:10032000289A0E948E3188D60E94A4310E94D0352E
:100330000E94283589EF87BD84E085BD82E084BDB9
:1003400080936E00109280008AE08093810090E09C
:1003500080E80FB6F89480936100909361000FBE1F
:1003600084B7877F84BF2FE088E190E00FB6F894D0
:10037000A895809360000FBE2093600089E190E80B
:100380000E94011C0E9483160E941E0D8DE59CE1B7
:1003900090935606809355060E94921389E08093AD
:1003A0003F020E94591E289878940E94221C0E94A5
:1003B000280F30D20E94E91A0E9412150E94B90A31
:1003C0000E949D1DF2CF8EBD0DB407FEFDCF8EB5F0
:1003D0000895A1E0B0E0EFEEF1E00C94C840482FA2
:1003E0008A3008F048E088E0489F70011124F70146
:1003F000E25DFE4F7F018BE290E0F70164918C019A
:100400000F5F1F4F49834FD4FFEFEF1AFF0A498157
:100410000333110511F0C801F0CF4550453010F4F9
:1004200061E101C067E184E290E03DD42196E6E01D
:100430000C94E440CF93DF9382E090E0FC01ED5F09
:10044000FE4F6491EC0121962ED4CB32D10511F0F0
:10045000CE01F4CF87E390E0FC01EB55FF4F6491B0
:10046000EC01219620D4C036D10511F0CE01F4CF95
:1004700088E0AFDFDF91CF9108952C98806CA3DFE7
:1004800080E0A1DF2C9A0895A1E0B0E0EAE4F2E078
:100490000C94CB4041E0BE016F5F7F4F01967BD350
:1004A000892B21F18981893969F410E0812FE5DFF9
:1004B0006ED3812F8770873009F4F5D21F5F103318
:1004C000A9F714C0DADF182F83E496D289815FD3AD
:1004D00088ED90E0DBD2812F5AD384ED90E0D6D224
:1004E00040E262E0812F90E0E2D2DDD22196E3E0AB
:1004F0000C94E740A1E0B0E0E0E8F2E00C94CC40DE
:100500002C98806469835FDF6981862F5CDF2C9A79
:100510002196E2E00C94E8402C9855DF2C9A08953F
:10052000EF92FF920F931F93CF93DF93EC01E89824
:10053000249A2C9A8EE190E0EAD12C988EE190E0FA
:10054000E6D12C9A8DE290E0E2D180E3E5DF84E60B
:1005500090E0DDD12C9880E436DF7E0189E2E80E60
:10056000F11C8E010F5F1F4FCE01A2D32CDF0E15A1
:100570001F0511F0E801F5CF2C9A2C988EE723DFA8
:100580008BE290E0EC01219693D31DDFC333D105BC
:1005900011F0CE01F7CF2C9A83E3BEDF81E0BCD10E
:1005A000CDB7DEB7E6E00C94E440A1E0B0E0EBEDBF
:1005B000F2E00C94CC4022E0298341E0BE016F5F61
:1005C0007F4F0196E8D2898104DF82E090E0A8DFC6
:1005D0002196E2E00C94E840CF93E89886E39CDF14
:1005E000CFEF85E399DFC1508077803229F08AE030
:1005F00090E08DD1C111F5CFCF910895CF93CFEF7A
:1006000084E38ADFC1508077803129F08AE090E06E
:100610007ED1C111F5CFE89ACF91089586E37CDFB2
:100620001092570610924502089582E090E078DF1C
:1006300081E0809357061092450208950F931F930F
:10064000CF93DF93082F10E0C62FD0E085E315DFAE
:10065000801731F0CE015BD11150C1F781E001C0AC
:1006600080E0DF91CF911F910F91089585E205DF22
:100670008F3311F080E0089586E34EDF80913C02D5
:10068000811104C085E891E001D202C08DE344DF0E
:1006900083E342DF64E081E0D1DF85E2EEDE8F3389
:1006A00049F780913C02811103C08EE791E0EED1C1
:1006B00081E0089585E3E1DE8D3051F485E2DDDEF1
:1006C0008F3331F4D3DF84E327DF80778031D9F7AC
:1006D00008951F920F920FB60F9211248F939F933C
:1006E000AF93BF93EF93FF938091590690915A0671
:1006F000A0915B06B0915C060196A11DB11D80938F
:10070000590690935A06A0935B06B0935C068091BD
:1007100058068F5F8093580680919C0F8F5F80935F
:100720009C0F8D37A8F080910D0190910E01A09142
:100730000F01B09110010196A11DB11D80930D0113
:1007400090930E01A0930F01B093100110929C0F93
:10075000EDE7F8E080819181181619061CF40197E5
:1007600091838083369688E0E539F80799F7809180
:10077000970890919808009729F00197909398080E
:10078000809397088091AA088F3F19F08150809339
:10079000AA08FF91EF91BF91AF919F918F910F9018
:1007A0000FBE0F901F9018952FB7F89440915906DF
:1007B00050915A0660915B0670915C06FC01408383
:1007C0005183628373832FBF0895A4E0B0E0EBEE02
:1007D000F3E00C94CC40CE010196E6DF8C81D7D1BA
:1007E0008B81D5D18A81D3D18981D1D15CD1249615
:1007F000E2E00C94E840A4E0B0E0E1E0F4E00C9426
:10080000CC40CE010196D0DF89819A812496E2E026
:100810000C94E8401F93CF93DF93809159069091F9
:100820005A06A0915B06B0915C0620913E02281703
:1008300009F469C08091590690915A06A0915B060F
:10084000B0915C0680933E02A895CDE7D8E010E019
:1008500028813981232B19F4812F0E9412191F5FDF
:1008600026961430A9F78091970890919808892BC3
:1008700011F40E946E198091AA08811102C00E9491
:10088000CC1980916E08882339F0815080936E08CE
:10089000811102C00E94B0150E941A36809158063C
:1008A0008D3788F1109258068091000181FF04C0B5
:1008B00085B191E0892785B980915D0690915E06AA
:1008C000843823E0920728F4019690935E06809383
:1008D0005D060E942F3280910D01811102C00E949D
:1008E000333180913D028F5F80933D028C3359F408
:1008F00010923D0280917C088F5F80937C088C333E
:1009000010F010927C08DF91CF911F910895880F0D
:10091000991F0197F1F7089520ED37E0815020F0FD
:10092000F9013197F1F7FACF0895CF93DF93DC0106
:1009300016968C911697843509F05BC0CD0106960A
:10094000CD91DC9111974DE0242F30E02C173D071D
:1009500040F0AE014F5051092417350709F049C046
:1009600008C0FC01E20FF31F50815B3391F34F5F2E
:10097000EBCFFE013E97E80FF91F20812435C9F522
:1009800017963C9117972181321333C018963C91EA
:100990001897228132132DC019963C911997238103
:1009A000321327C01A963C911A972481321321C022
:1009B0006197C80FD91F8581888386818983818546
:1009C0008A8382858B8383858C8384858D838585CB
:1009D0008E838D919C9111970A9711969C938E937B
:1009E00014968D919C9115970A9715969C938E93CA
:1009F0001497DF91CF910895CF93C82F80913F0234
:100A000082FF03C08C2F0E94AF1F80913F0280FFA6
:100A100013C02091C0083091C1082E3F81E03807F3
:100A200038F02115324040F4CD3011F0CA3021F4B5
:100A30006C2F8CEB98E01FD3809179088823C9F044
:100A400080913F0283FF15C0CA3099F0CD3011F478
:100A50006BE301C06C2F86E696E00DD3CD3019F420
:100A600086E696E062DF83E080936E0882E0809302
:100A70007408CF910895CF93DF93EC018991882377
:100A800011F0BADFFBCFDF91CF910895CF93DF93C1
:100A9000EC01FE018491882319F0AEDF2196F9CF95
:100AA000DF91CF9108958DE0A7DF8AE0A5CFA6E082
:100AB000B0E0EDE5F5E00C94CA40062F1E8215E08B
:100AC0002AE030E01150E1E0F0E0EC0FFD1FE10F13
:100AD000F11DB9010E945440805D8083CB0101501B
:100AE000009769F01111EECF0AC0112359F011508F
:100AF000E1E0F0E0EC0FFD1FE10FF11D408301503C
:100B000007FFF3CF81E090E08C0F9D1F810F911DB7
:100B1000B2DF2696E4E00C94E640A5E0B0E0E3E91D
:100B2000F5E00C94CC401D8224E0382F3F7021501A
:100B3000E22FF0E03A3010F4305D01C0395CA1E002
:100B4000B0E0AC0FBD1FEA0FFB1F308334E0969579
:100B500087953A95E1F76150009739F7615067FD45
:100B60000BC0222349F02150E1E0F0E0EC0FFD1F23
:100B7000E20FF11D4083F2CF81E090E08C0F9D1FCA
:100B8000820F911D78DF2596E2E00C94E84040E367
:100B900062E090E0C2CFDC01FB0130E090E08D919B
:100BA0008823A9F0813608F0805220ED280F2A30E2
:100BB00030F02FEB280F263030F429EC280F292BAA
:100BC000332379F006C0803251F38A3341F3CF01E9
:100BD00005C0CF0101962083415041F4861B970B3D
:100BE0000895922F9295907F31E0D9CFFC01D5CF17
:100BF000FB0150E020E0DC013D91CD013323D1F039
:100C000050ED530F5A3050F4522F550F252F220F0D
:100C1000220F250F2053230F51E0EDCF303211F07A
:100C20003E3279F4442321F0208341503196E1CFC4
:100C300050E0E1CFDF01552321F0442311F031963C
:100C40002C93CF01861B970B089520E030E05AE0EB
:100C5000FC014191CF01442379F0E0EDE40FEA304B
:100C6000B8F7F9015E9F90015F9F300D112420536A
:100C70003109240F311DECCFFB013183208308950E
:100C8000982F92959F709A3010F4905D01C0995CF6
:100C9000FB0190838F708A3010F4805D01C0895C05
:100CA000FB01818308950E945242F999FECF089575
:100CB0000C94454208951F93CF93DF9314E0115095
:100CC00068F0EC012196F4DF40E261E090E0EFDEB5
:100CD000112311F08EE290DECE01F1CFDF91CF91A2
:100CE0001F9108951F93CF93DF93162F11501F3F2D
:100CF00059F0EC012196DCDF4ADF112311F08AE381
:100D00007BDE1150CE01F3CFDF91CF911F9108957B
:100D1000A2E0B0E0EEE8F6E00C94C940FC012181CD
:100D2000293691F582818D3621F466E082E690E0E5
:100D300030C0843619F488E690E019C0813619F481
:100D400089E690E00EC08E3619F48DE690E009C079
:100D5000873619F481E790E004C08E3421F485E7EA
:100D600090E0A9DF44C08F3629F48BE790E0A0DF44
:100D70000EDF3DC0803709F03AC089E790E00E945D
:100D80004D4240E260E032C02D3429F466E08AEF43
:100D900097E0A8DF2CC0203521F460E18AED97E0D0
:100DA000F8CF1A82198242E0BE016F5F7F4F019631
:100DB000F2DE098110E0823021F4102F00278A81B1
:100DC000082BC80175DFF82E82E516DE40E364E0EB
:100DD000C801A3DE8FE991E059DE8F2DD8DE8BE9C3
:100DE00091E054DE40E262E08F2D90E060DE5BDE59
:100DF0002296E5E00C94E540A8E0B0E0E2E0F7E000
:100E00000C94C6409C01FC0181818E010F5F1F4F35
:100E1000893609F06BC082818D3649F446E0B8010D
:100E2000C9010396B8DE82E690E026E04DC0843624
:100E300039F4B801C901039608DF88E690E03FC0A5
:100E4000813641F444E0B801C9010396D1DE89E658
:100E500090E027C08E3641F444E0B801C901039602
:100E6000C7DE8DE690E01DC0873641F444E0B8014E
:100E7000C9010396BDDE81E790E013C0803741F4DD
:100E8000B801C9010396E1DE89E790E022E01CC0C9
:100E90008E3449F444E0B801C9010396A9DE85E720
:100EA00090E024E011C08F3661F441E0B801C9013F
:100EB000039671DE898180939D0F8BE790E021E09E
:100EC00003C080E090E020E078013E2D301B321717
:100ED00008F049C0F70161917F016C01FFEFCF1A63
:100EE000DF0A2887E0DEC6012885EFCF43E0B8019E
:100EF000C901019628873F834EDE28853F818230D5
:100F000090F1C980D12C823021F0DC2CCC244A8194
:100F1000C42A7C01FF24FE01EE0DFF1D6081C60185
:100F200028873F83C0DEEE0CFF1C8FEFE81AF80A1B
:100F300028853F81E20EF31EEFEFCE1ADE0AF7019D
:100F40008081882381F041E0B801C70124DE892B2C
:100F500051F06981C601A7DEF2E0EF0EF11C32E02C
:100F6000C30ED11CECCF2896E8E00C94E24041E09F
:100F700060E071E001960FDE8091000180FF02C009
:100F8000289A01C028986091000184E390E08BCEFC
:100F9000A1E0B0E0EEECF7E00C94CC4019820097B1
:100FA00031F041E0BE016F5F7F4F0196F4DD898132
:100FB000882321F061E083E390E075DE10926E00FB
:100FC000F89428E088E190E00FB6F894A895809313
:100FD00060000FBE20936000FFCFCF93DF93EC0142
:100FE00061E080E090E05FDE6FE381E090E05BDE57
:100FF00021DA60E080E690E056DE60E081E690E095
:1010000052DE60E083E390E04EDE62E084E390E055
:101010004ADE0E94DC1C60E080E690E044DE60E096
:1010200081E690E040DE8981883719F080E090E029
:10103000AFDFDF91CF91089580E090E039DE81301D
:1010400029F481E090E034DE8F3319F080E090E005
:10105000C4DF84E390E02CDE8093000108958CE8E7
:1010600091E014DD20CDFC011582148211821082E2
:10107000138212820895FC014FB7F8948481958100
:10108000811522E0920798F401969583848320814C
:101090003181C901019691838083DF01A20FB31FC3
:1010A00016966C938115924011F4118210824FBFF5
:1010B0000895FC014FB7F89484819581009719F445
:1010C0004FBF80E008950197958384838281938147
:1010D0009C012F5F3F4F33832283DF01A80FB91F8D
:1010E00016968C912115324011F4138212824FBF53
:1010F0000895FA013081882369F0E1E0F0E0022EE2
:1011000001C0EE0F0A94EAF7DB01A30FB11D9C9119
:101110009E2B9C93222319F08FEF820F0BC081E04E
:10112000830F8C3010F4FA018083FB01E80FF11D6E
:10113000108287E090E00895CF93C82F299A8823E2
:1011400019F08091420202C08091440220E1829F06
:10115000C0011124DCDB2998CC2319F080914102D5
:1011600002C08091430220E1829FC0011124CFDBA5
:10117000CF910895A0E0B0E0E0ECF8E00C94BC4022
:101180005C01162F622EC42FD0E040915D06509175
:101190005E06CE010296089F802D1124992787FDB7
:1011A00090954817590720F483EA91E06FDC66C0F8
:1011B000481B590B50935E0640935D06289A809118
:1011C0005706811101C031DA07DA812E912CCC2427
:1011D000C394D12C712CF12C8F2D992787FD9095DC
:1011E0008815990524F480E0A7DFF394F5CF112347
:1011F00011F081E0A1DFF12C4F2C552447FC5094D5
:101200004C165D062CF097E0392E4A0C5B1C15C07D
:1012100087E0282E312C4A0C5B1CC601022C01C031
:10122000880F0A94EAF7F2019081892385DFF1E0C3
:101230002F1A310890F7F394DFCF832D992787FD7C
:1012400090956816790664F4C601032C01C0880FD6
:101250000A94EAF7F201908189236EDF3A94EDCF88
:101260008E2D5ADB015009F0B6CF80915F0688239E
:1012700011F0C4D902C086E34FD92898CDB7DEB7A4
:10128000E2E10C94D840ADE0B0E0E9E4F9E00C9480
:10129000BF407C01162F842F022F6701C60ED11C80
:1012A000462FB70101D4D6018C931F5F1D8619828A
:1012B0005E2C670127E066246394712C8C2D8519C0
:1012C000811788F547E0A42EB12C4701880E911CA8
:1012D000F3010A2C01C0EE0F0A94EAF7D4018C91B5
:1012E000AE01435F5F4FBE016F5F7F4F8E2301DF13
:1012F000282FB1E0AB1AB10858F7D6018D916D01D6
:10130000082E82958025082E8695869580258F5FEC
:1013100086958170AE01435F5F4FBE016F5F7F4F67
:10132000E8DE282FCBCF222311F0215004C08D8579
:101330008F5F8D8727E089E1809343028093440289
:1013400085E280934102809342023AE0E32E4D858C
:101350006CE0CE0101960EDF2D96EFE00C94DB40A1
:10136000ADE0B0E0E6EBF9E00C94CB40162F242F73
:101370004BE0BE016F5F7F4F01962D870CDC2D8502
:10138000412F682FCE0101967EDF2D96E3E00C946D
:10139000E74043E066E0E4CFEF920F93CF93DF9313
:1013A000CDB7DEB760970FB6F894DEBF0FBECDBFE6
:1013B00040E1BE016F5F7F4F0196EDDB69814A819D
:1013C0000B818C81809344028D81809343028E81B6
:1013D000809342028F8180934102E02EE2947FE06D
:1013E000E7220F70242F2F7042954F70CE01089680
:1013F000C1DE60960FB6F894DEBF0FBECDBFDF91A1
:10140000CF910F91EF900895A9E1B0E0EAE0FAE002
:101410000C94C4404BE0BE016F5F7F4F0196BBDB75
:10142000182F893009F05AC099E1909343029093A4
:1014300044029093420282E38093410269E0CE012C
:1014400001963CD3E1E0F0E0EC0FFD1FE10FF11D50
:101450008083198E1D86CE0101967C016E019BE072
:10146000C90ED11C27E0AA24A394B12CEC14FD04CE
:1014700029F100E010E0F501002E01C0EE0F0A9402
:10148000EAF7D7018C91AE01475E5F4FBE01635F03
:101490007F4F8E232EDE282F0F5F1F4F0830110540
:1014A00051F7AE01475E5F4FBE01635F7F4F81E042
:1014B00020DE282FBFEFEB1AFB0AD8CF222311F032
:1014C000215004C0898D8F5F898F27E0EAE0EE2EDE
:1014D00003E0498D6CE0CE010D964CDE6996EAE0A2
:1014E0000C94E040CF93DF93E898249A2C9A8EE1F5
:1014F00090E00DDA2C988EE190E009DA2C9A8DE2DA
:1015000090E005DA80E308D884E690E000DAC0ECE9
:10151000D1E0FE0131966491FE0184910E947A022D
:101520002296F1E0C23FDF07A1F7809146028111C8
:1015300006C083E30E948C0284E0EED90FC0CAEAA1
:10154000D1E0FE0131966491FE0184910E947A02FD
:101550002296F1E0C03CDF07A1F7EBCF84E30E94C5
:101560008C0285E30E943D028D30C1F7DF91CF915F
:101570000895A2E3B0E0EFEBFAE00C94CA4080914A
:101580004502882309F49BC04A9B84C08FE30E94D4
:101590003D028F778983823368F08AE30E948C0250
:1015A00086E30E948C028DE30E948C0284E30E94F9
:1015B0008C0285C02C988FEF0E94E30110E0898196
:1015C000181760F480E00E94E301E2E0F0E0EC0F25
:1015D000FD1FE10FF11D80831F5FF1CF80E00E94AE
:1015E000E301082F80E00E94E3012C9A84E30E942B
:1015F0008C0285E30E943D028D30C1F72A8196E777
:1016000092279A8392E08981E92FF0E0981768F495
:1016100041E050E04C0F5D1FE40FF51F3081245274
:10162000232720839F5F232FEECF81E090E08C0F54
:101630009D1FE80FF91F90818B81982790838091DF
:101640005F0684FF10C081E6D7D910E08981811739
:1016500008F1E1E0F0E0EC0FFD1FE10FF11D8081EA
:10166000CBD91F5FF3CF81E4C7D910E089818117FF
:1016700050F0E1E0F0E0EC0FFD1FE10FF11D808183
:1016800086DA1F5FF3CF80915F0685FF02C0802F4F
:101690007EDA09DA85E30E943D02813029F081314A
:1016A00061F48AE30E948C0286E30E948C028DE33F
:1016B0000E948C0284E30E948C020E945A03E296EC
:1016C000E4E00C94E640A2E3B0E0E9E6FBE00C9431
:1016D000C64041E38E010F5F1F4FB80101965BDAF0
:1016E0006C019C01332721503109898190E0281732
:1016F000390709F065C080914502811103C0F2DE0F
:1017000083E00AD9FB808A8196E789278A8392E061
:101710008981292F30E0F801E20FF31F981750F468
:10172000DE01A20FB31F8C91845220818227808317
:101730009F5FEECF80818F25808385E30E948C029E
:1017400085E30E943D028331C1F7F4FE06C088E7BD
:10175000E3D888E7E1D888E701C08AE0DDD82C9893
:101760008FE70E94E30178018E2D801B8C1530F4E9
:10177000F70181917F010E94E301F6CF2C9A85E366
:101780000E943D028331D9F385E30E943D028631F8
:1017900049F48BE30E948C0286E30E948C028DE365
:1017A0000E948C0280914502882349F084E30E94C4
:1017B0008C0285E30E943D028D30C1F701C055D1F6
:1017C000E296E8E00C94E240FC012181223731F0FE
:1017D000223559F481E08093460202C010924602FD
:1017E00081DE81E0809345020895233711F401964C
:1017F0006ACF1092450208958F929F92AF92BF9246
:10180000DF92EF92FF920F931F93CF93DF9310928B
:10181000620210927702FC012181220F220F220F17
:101820003381231B57E0520F1092630210E070E0E7
:1018300038E0D32ED20EFF24F39447E007E0E12CEA
:10184000C7E0D0E0A1E0B0E0FD1409F47FC0FC01E6
:10185000EE0DF11D248130E0002E02C03595279554
:101860000A94E2F721703327E22F002311F0015090
:1018700002C0E39407E06B3471F4433009F04AC0CE
:10188000111107C0E1115FC01092620270937702DC
:1018900074C010E041C04F3F31F56634A9F4E72F22
:1018A000F0E0ED59FD4FE0810E2EE295E0250E2E81
:1018B000E695E695E025EF5FE1FB882480F8912C22
:1018C0008216930641F004C0653429F4E11103C087
:1018D00010936202DBCF7F5FE72FF0E0ED59FD4F01
:1018E000108247E031C0EE2361F1663471F4E72FD6
:1018F000F0E0ED59FD4FA0809D01042E01C0220FA4
:101900000A94EAF7A22AA0821CC0653439F06B342D
:10191000C1F404C04F3FD1F2EE2399F0E72FF0E07D
:10192000ED59FD4F9E01241B310947FD33955D01A3
:1019300002C0AA0CBB1C2A95E2F795013081322B1C
:101940003083415001C011E0F3947ECF10936202C6
:10195000709377025F1588F4653431F44F3F21F4BA
:101960007F5F7093770204C0809162028111F8CF8B
:1019700081E090917702911101C080E0DF91CF91D9
:101980001F910F91FF90EF90DF90BF90AF909F90CD
:101990008F90089510926F00E0917A028CE1E89F99
:1019A000F0011124E558FD4F10820895FC012181BA
:1019B000243108F0EFCF3381662381F081E090E09D
:1019C000032E01C0880F0A94EAF7DF01A20FB11DB0
:1019D00014969C911497982B14969C93332319F08A
:1019E00031503383089587E083832F5F2183E20F93
:1019F000F11D14820895DC011196EC911197F0E02D
:101A000050E02C91CF01841B950B0B964797A0F4C7
:101A100030E070E0C901861B970B0B96479760F486
:101A20002E0F3F1F640F751F261B370B255F3F4F7F
:101A300081E02731310508F080E00895219A299846
:101A40005298E9E6F0E080818160808382EC91E049
:101A500090935E0680935D06109297021092B302F7
:101A60001092CF0210925706089580915F06882346
:101A700021F00E9415030C94FE020C940E03FC014D
:101A8000218121110BC080915F0681D840E265E081
:101A900080915D0690915E060AD805C841E06FE529
:101AA00076E0019678D8E1CF442339F04150FB012C
:101AB000E40FF11D9081890FF7CF089520E0662390
:101AC00039F06150FC01E60FF11D30812327F7CF7B
:101AD000822F0895A091620240E035E020E0662365
:101AE00099F06150FC01E60FF11D5081752F729540
:101AF0007F702727370FAA2311F0442319F05F7056
:101B00002527350F4F5FEBCF320F40E1349FC001E7
:101B10001124822B0895FC0132812381A081B1819F
:101B2000A30FB11D8C9190E0022E02C09595879570
:101B30000A94E2F7817099274FEF420F43832111F6
:101B400004C03F5F328327E023830895A2E0B0E022
:101B5000ECEAFDE00C94C4407C01A12CB12CD12C0A
:101B6000CC24C394062F10E001501109A616F0F4FE
:101B7000C7014A836983CFDF4A816981882391F055
:101B8000442349F098012A193B098C2D01C0880F84
:101B90002A95EAF706C08C2D0A2C01C0880F0A94FA
:101BA000EAF7D82A8FEFA81AB80AE0CF8D2D22962F
:101BB000EAE00C94E040A4E0B0E0E1EEFDE00C943B
:101BC000C3401B8227E02C839C012C5F3F4F3A834C
:101BD000298310927702FC012181338187E090E014
:101BE000831B9109F8E02F9F800D911D11248534EE
:101BF00091050CF44EC0B12CA0907702F5E0FA15D7
:101C000058F10A2D10E040E068E0CE0101969EDF19
:101C10000D591D4FF8018083982E092C9294902421
:101C2000092C969496949024CE01019674DF939497
:101C300091FACC24C0F8D12C90E0C816D90649F509
:101C4000CE01019668DF811124C0F8018081B82699
:101C5000A394A0927702D0CF40E068E0CE01019635
:101C600075DF082F182F012E12951025012E1695BD
:101C700016951025CE0101964EDF1F5F11FBEE2455
:101C8000E0F8F12C282F30E0E216F30611F481E0A1
:101C9000B01280E02496EBE00C94DF40A5E0B0E0C9
:101CA000E4E5FEE00C94C740FC011B8287E08C83D6
:101CB000CF0104969A8389831092770280818530C0
:101CC00009F04FC02181338187E090E0831B9109A7
:101CD00038E0239F800D911D11248039910509F072
:101CE00040C00FE010EF29E880917702E82EF12C38
:101CF000DD24D394D80E41E068E08F3088F4CE0123
:101D000001962D8323DF080F111DF701ED59FD4FBB
:101D10002D812827208324E2280FD0927702E4CF58
:101D2000CE01019613DF080F111DD0927702F70143
:101D3000ED59FD4F8095808341E068E0CE0101962A
:101D400005DF90E0982F8827081B190B41E068E019
:101D5000CE010196FBDE282F30E081E00217130749
:101D600009F080E02596E7E00C94E340A4E0B0E0C1
:101D7000ECEBFEE00C94C9401B8227E02C839C0115
:101D80002C5F3F4F3A832983FC0121812430A1F548
:101D90008381813089F51092770280917702082F34
:101DA00010E0FF24F394F80E41E0843098F48111A0
:101DB00006C067E0CE010196C9DE806804C068E015
:101DC000CE010196C3DEF801ED59FD4F8083F092FC
:101DD0007702E3CF67E0CE010196B8DEF801ED5956
:101DE000FD4F880F8083F092770290916302929565
:101DF0009F7081E09A3009F080E02496E5E00C9431
:101E0000E540CF93DF93FC0181818330E9F4838146
:101E10008730D1F480818830B9F41092770220E0C5
:101E2000822F90E0DC01AD59BD4FEF01C80FD91FE3
:101E30008C818C9381E0820F833010F4282FF0CFB7
:101E40008093770281E001C080E0DF91CF91089517
:101E5000A0E0B0E0EEE2FFE00C94C74080914702C2
:101E60008823B9F180915F0687FF17C084E30E9441
:101E70003D028058803458F0803C58F490E0805502
:101E8000910923E0959587952A95E1F703C080E0B5
:101E900001C08FE08F590E94FC0480915F0683FF90
:101EA00016C082E70E94FC0480915F0684FF04C094
:101EB000809148020E94FC0486E60E94FC04809106
:101EC0005F0684FF04C0809147020E94FC041092C8
:101ED000470280917802882309F411C2289AC091A0
:101EE00079022CE1C29FE0011124C558DD4FCE01DB
:101EF00088DF811102C0F12C02C093E7F92ECE01D8
:101F0000CDDE811133C0F11060C166E4CE0174DC16
:101F1000882391F110917702115010937702412F8D
:101F200063E672E086E0C0DDE12FF0E0ED59FD4FA1
:101F30000081801302C01430E0F4282F30E02F5FBE
:101F40003F4F602F70E02617370721F4143010F050
:101F500080830FC0412F63E672E08CE0A5DD801323
:101F60000BC0143048F0F4E5FF2E2FC1B3E5FB2E73
:101F70002CC1A6E4FA2E29C165E4CE013DDC8823FC
:101F800039F080917702815080937702893029F06F
:101F9000CE0111DE811113C00BC069E083E692E02F
:101FA0008DDD90916C028913F3CFE5E4FE2E0DC117
:101FB000CE01DCDE882331F064E7F62E06C178E43A
:101FC000F72E03C1D09048028E01065E1F4F4B8D45
:101FD0006D2DC80110DD682FCE01E8DC6BE4CE0169
:101FE0000BDC8823A9F0E0907702EA94E092770274
:101FF0006E2D83E692E06EDDEE2DF0E090916202B0
:10200000E91BF109ED59FD4F9081891709F4DBC0F7
:102010008B81873029F41B8289818150898302C09A
:102020008F5F8B838981843009F04BC08B81843032
:1020300009F047C04EE16CE3CE014896DCDC882312
:1020400009F43FC04EE16D2DC801D5DC682FCE01EB
:10205000ADDC20E0822F90E0FC01ED59FD4FDE0168
:10206000A80FB91F14968C91808381E0820F853070
:1020700010F4282FEFCF8093770282E5F82EA5C0C9
:10208000209361024091590650915A0660915B0677
:1020900070915C064093490250934A0260934B0250
:1020A00070934C02F4E5FF12F4C0A6FDF2C08091DB
:1020B0007702853008F4EDC0809165028B3409F019
:1020C000D6C080915F0682FF65C080E70E94FC0455
:1020D000888140E262E090E00E945705888D40E2EE
:1020E00065E020E1829FC00111240E945705898D7F
:1020F00040E265E0E0E18E9FC00111240E94570597
:102100008A8D40E265E0F0E18F9FC00111240E94BA
:1021100057058B8D40E265E020E1829FC0011124CC
:102120000E9457058A8140E263E090E00E945705D3
:10213000898140E263E090E00E9457052B8140E2F4
:1021400062E087E090E0821B91090E94570580E2DF
:102150000E94FC0480915F0685FF08C084E30E9412
:102160003D020E94C70580E20E94FC048B818730FB
:1021700019F089818F5F898310E08981181740F4F5
:10218000FE01E10FF11D84810E94C7051F5FF5CF9D
:102190000E945305188280917802815080937802C2
:1021A000809179028F5F843019F08093790202C0A8
:1021B00010927902289884E5F812A1C083E692E093
:1021C0000E94DB199CC05BE4F52EA0915F06A0FF86
:1021D00078CFA1FD4AC030916102B09177023B13E4
:1021E00032C020E0231770F4822F90E041E0420FCC
:1021F000FC01E35BFD4F8D599D4F5081FC018081B7
:10220000581729F02093610223131DC002C0242F08
:10221000E9CF4091590650915A0660915B06709142
:102220005C060091490210914A0220914B023091C4
:102230004C02401B510B620B730B31E046325105CF
:102240006105710508F030E020E02B1708F018CF89
:10225000822F90E0AC01435B5D4F8D599D4FFC0197
:102260008081FA0180832F5FF0CF30E01BCF893669
:1022700009F427CF9DEA980F923008F422CF8D57AA
:10228000823008F41ECF809166028077803709F48F
:1022900018CF311116CF8F2D0E94FC04809162025D
:1022A000882329F08091770281508093770210E093
:1022B000E09177021E1748F4E12FF0E0ED59FD4F51
:1022C00080810E94C7051F5FF3CF8091620288233F
:1022D00051F0F0E0ED59FD4F80818F7040E361E0F7
:1022E00090E00E948D0580915F0685FF05C084E324
:1022F0000E943D020E94C7050E945305E2CECDB761
:10230000DEB7E7E00C94E3401F920F920FB60F92F6
:1023100011242F933F934F935F936F937F938F93EA
:102320009F93AF93BF93EF93FF9310926F008091B1
:102330005F0683FF03C08EE20E94FC0480917A0254
:102340009CE1899FF0011124E558FD4F9081933065
:1023500018F09181923010F41DDB18C09091780232
:10236000933049F480915F0682FFF6CF82EF91E0CF
:102370000E944605F1CF9F5F909378028F5F843073
:1023800019F080937A0202C010927A02FF91EF91C5
:10239000BF91AF919F918F917F916F915F914F917D
:1023A0003F912F910F900FBE0F901F9018959BEDAE
:1023B000980F973150F496EF960F9D3130F491E0DD
:1023C000681708F090E0892F089580E008951F9223
:1023D0000F920FB60F921124FF920F931F932F931A
:1023E0003F934F935F936F937F938F939F93AF939D
:1023F000BF93CF93DF93EF93FF938091BB08882324
:1024000021F082E08093BB0863C180916F08823025
:1024100021F483E080936F085BC1009184001091E8
:102420008500B4E016950795BA95E1F7C0917A0258
:102430009CE1C99FE0011124C558DD4F988194307B
:1024400031F40E3208F444C10F3448F0B6C0953070
:1024500031F4073108F43CC1083208F0AEC04A99A3
:102460000DC09450923038F461E0CE019FDA1092A2
:10247000850010928400009348022AC1809148028E
:10248000081B0093470210928500109284009881E7
:10249000983071F42A8121110BC021E02A83888FA2
:1024A0008A8F098F0B3B10F4000F01C006950B8F2C
:1024B0009450923020F460E0CE0178DA09C182E0D5
:1024C00086BBF880F11011C090914802953608F053
:1024D000FFC080914702853608F0FAC0988F898F37
:1024E00081E08A8382E08883F3C01091470282E012
:1024F000F81273C000914802412F602FCE01489618
:102500007ADA6A818823F9F0488D50E09A01220F27
:10251000331F240F351F200F311D35952795359515
:102520002795288F298D30E0C901880F991F820FC8
:10253000931F810F911D9595879595958795898F07
:102540006F5F6A83C5C0643008F445C020EA3FE08D
:1025500030938900209388008A818C3050F0888DD8
:10256000298D30E0280F311D2536310524F084E017
:1025700027C08A3088F0888D298D30E0280F311DE2
:10258000253231054CF485E0888328EE33E0309322
:1025900089002093880015C080916506882379F012
:1025A000612F802F04DF882351F0688D898DFFDE35
:1025B000882329F081E080936F08ECD989C083E0FB
:1025C00088830A8F1B8F198287E08B831C8282E0AD
:1025D00080936F007DC0188277CF98E0F91225C0F4
:1025E00081E9810F8D3178F460E0CE01DFD9288D4B
:1025F00030E0C901880F991F820F931F2091480274
:10260000820F911D4EC0173E08F462C061E0CE01FA
:10261000CDD92A8D30E0C901880F991F820F931FF1
:1026200020914802820F911D15C000914802412F50
:10263000602FCE014A96DFD9882301F161E0CE01F7
:10264000B5D92A8D30E0C901880F991F820F931FD9
:10265000800F911D95958795959587958A8F2B8DE0
:1026600030E0C901880F991F820F931F810F911DC0
:1026700095958795959587958B8F2AC0412F602FCB
:10268000CE014896B8D9882301F160E0CE018ED9F9
:10269000288D30E0C901880F991F820F931F800F8A
:1026A000911D9595879595958795888F298D30E013
:1026B000C901880F991F820F931F810F911D959556
:1026C000879595958795898F03C087E0F81275CF18
:1026D000FF91EF91DF91CF91BF91AF919F918F913A
:1026E0007F916F915F914F913F912F911F910F912A
:1026F000FF900F900FBE0F901F901895E0917A02F7
:102700008CE1E89FF0011124E558FD4F8081811193
:1027100007C081E09091AA089F3F19F480E00895D6
:1027200081E0089580E690E00E9458068093650657
:1027300081E690E00E94580680937908882321F072
:1027400081E280935F0691C90895299A0C948704C9
:1027500029980C948704A7E0B0E0E1EBF3E10C9436
:10276000C74090917106943559F4209172083091C8
:1027700073082F5F3F4F30937308209372083EC059
:10278000963459F420917008309171082F5F3F4FB3
:10279000309371082093700831C0953459F420911A
:1027A0006206309163062F5F3F4F3093630620939C
:1027B000620624C09B3459F4209175083091760844
:1027C0002F5F3F4F309376082093750817C09834D9
:1027D00059F420917708309178082F5F3F4F30935C
:1027E0007808209377080AC020916006309161062E
:1027F0002F5F3F4F309361062093600695E79983E2
:10280000882399F0BE016E5F7F4F809179080E9406
:102810004006BE016C5F7F4F809165060E944006B6
:1028200085E58E8386E0D82E02C0DD24D3940E94F5
:1028300015030E94EC0216E080E891E086DF80E05C
:1028400093E086DF1150C1F780E093E07EDF80E8FF
:1028500091E07EDF80E891E078DF299887E390E0DF
:102860000E94900283E00E948C042C988FE70E94C3
:10287000E30180916A068D0D0E94E301CE0101966D
:102880007C018C01F80181918F010E94E301802F6E
:102890008E198D15B8F380916A0690916B06892B7D
:1028A00039F086E696E00E9459080E94E301F3CFD2
:1028B0002C9A0E94EC0286E696E00E94330815E10D
:1028C0008AE30E943D028F7731F0115021F081E0C0
:1028D0000E948C04F5CFC9D82796E7E00C94E3401A
:1028E000CF93DF93EC018981811107C08091650648
:1028F0000E94C7058091790813C08436A1F48091A5
:10290000590690915A06A0915B06B0915C0640E38F
:1029100064E00E948D058EE20E94FC0480916E08A6
:102920000E94C7054DC0833709F04DC040E361E008
:1029300080917208909173080E948D058EE20E942A
:10294000FC0440E361E080917008909171080E945E
:102950008D058EE20E94FC0440E361E080916206F6
:10296000909163060E948D058EE20E94FC0440E374
:1029700061E080917508909176080E948D058EE245
:102980000E94FC0440E361E0809177089091780810
:102990000E948D058EE20E94FC0440E361E080917C
:1029A0006006909161060E948D058EE20E94FC04F3
:1029B00040E361E080916C0890916D080E948D0564
:1029C0000E9453052CC08936D9F441E065E676E0D3
:1029D000CE0102960E94CB056091650680E690E0EC
:1029E0000E94530641E069E778E0CE0104960E9418
:1029F000CB056091790881E690E00E9453060FC0F4
:102A000086E696E00E94330821966991662329F0B4
:102A100086E696E00E943B08F8CF80E09CDEDF91DE
:102A2000CF910895A1E0B0E0E8E1F5E10C94C64053
:102A300080916F08882309F48FC0C0905906D09008
:102A40005A06E0905B06F0905C06833009F06AC09D
:102A50008FE30E943D02182F8630C8F082EC9AE086
:102A60000E9433082C988FEF0E94E30180E00E94BF
:102A7000E301082F115049F080E00E94E301682F24
:102A800082EC9AE00E943B08F5CF2C9A01C000E04E
:102A90000E94350D10926F08053709F05DC041E0C6
:102AA000BE016F5F7F4F88EC9AE00E94CB050197D3
:102AB000A1F599818091650698132FC08091CC0A69
:102AC000853581F48091C60A9091C70A892B39F027
:102AD00082EC9AE00E9459080E94FC04F3CF0E9405
:102AE00053053AC08091C60A9091C70A0497909303
:102AF000C70A8093C60A84E090E09093C50A809349
:102B0000C40A6AE082EC9AE00E943B08E091550614
:102B1000F091560688E009951FC082EC9AE00E9469
:102B200033081AC0823059F4809164069C2D981B9A
:102B3000983090F00E94350D10926F080DC08130D2
:102B400059F487E390E00E9490020E94FE0282E026
:102B500080936F08C09264062196E8E00C94E240EE
:102B6000CDDD882361F083E08093740880916C0848
:102B700090916D08019690936D0880936C088091F8
:102B80007408815080937408882321F083E0809337
:102B90006E08089581E0DFCD109295081092A6038B
:102BA00083E08093F0028FEF8093AA080895E1EF0D
:102BB000F2E02081211105C0892BB1F080E090E086
:102BC0000895B3E0EF39FB07B8F7009751F0418162
:102BD000DC013C91431305C0428111963C9143179F
:102BE00051F0E20FF11DE5CF33E0EF39F30719F0B3
:102BF00010F0EFE9F3E0CF01089594E0899FF00130
:102C00001124E555F74F80818F3F91F08093EB02BF
:102C100081818093EC0282818093ED028381809395
:102C2000EE0221E04CE064E08BEE92E00C9443096C
:102C3000089580EA93E0BBDF009799F02091F002BD
:102C4000FC013081231768F4E20FF11D808180932D
:102C5000A20389E78093A30381818093A40381E089
:102C6000089580E00895EF92FF921F93CF93DF9332
:102C70001F92CDB7DEB7182F80915F0686FF18C070
:102C800084E599830E94FC04E12E9981F92E15E0D8
:102C9000F70181917F010E94C7051150C9F780910A
:102CA0005F0685FF03C08AEF0E94C7050E94530597
:102CB0000F90DF91CF911F91FF90EF90089586E3E1
:102CC0000E948C028091A203833511F48BE901C02C
:102CD0008BE40E948C0421E04CE065E080EA93E004
:102CE0000E9443090E94FE0280EA93E0BCCFE7DF26
:102CF0008091A203893631F081E080939F0389E2BD
:102D00008093AA080895CF9385E390E00E94580627
:102D100080937B0886E390E00E9458068093A90880
:102D2000CFEFC0939908C0939B08C0939D08C093B0
:102D30009F08C093A108C093A308C093A508C0939F
:102D4000A7082ADF1092F10281E080937A08C093ED
:102D5000AB088FEF9FEF90937E0880937D081092D1
:102D6000800810927F081092820810928108C09308
:102D7000AF0890938408809383081092860810927D
:102D800085081092880810928708C093B308909322
:102D90008A088093890810928C0810928B081092F0
:102DA0008E0810928D08C093B70890939008809376
:102DB0008F08109292081092910810929408109225
:102DC0009308CF910895ACE0B0E0E9EEF6E10C9401
:102DD000C5406C018C010F5F1F4F45E0BE016F5F66
:102DE0007F4FC8010E94CB05843008F0F3C0998161
:102DF0009130A9F4833061F46A8185E390E00E9408
:102E000053066B8186E390E00E9453067CDF06C286
:102E100080917B080E94C7058091A9089AC09230D2
:102E200009F051C0813039F081E09A81913009F088
:102E300080E0F82E02C0FF24F3948091F10281110A
:102E400004C089EF91E00E94460501EF12E0F8010D
:102E50008081882309F4BBC0F3E00F391F0708F015
:102E6000B6C032E0013F130719F080E20E94FC0473
:102E7000F80181810E94C705F80182810E94C7057F
:102E8000FF20E1F08AE30E94FC0493E0F8018081D6
:102E90009817A0F4943038F090FF05C08CE29C871E
:102EA0000E94FC049C85EE24E394E90EF801E90FEE
:102EB000F11D80810E94C7059E2DE8CFF801808119
:102EC000080F111DC4CF933049F480E090E06FDE0D
:102ED000815F92409EEA981B892F3BC0903171F52B
:102EE00009E918E08AE9E82E88E0F82EC12CD12CF7
:102EF000F80180818F3FA1F0DD2019F080E20E946F
:102F0000FC048C2D0E94C7058AE30E94FC04F80192
:102F100080810E94C705F70180810E94C705D39474
:102F20000E5F1F4FC394F2E0EF0EF11C38E0C312A6
:102F3000DFCFD1104CC087E092E047C0913161F4FF
:102F400080919708909198086DE770E00E94544036
:102F5000862F0E94C7053BC09231C9F51BEAE12EBE
:102F600018E0F12E0EEA18E0C12CD12CF701808177
:102F70008F3FF1F0DD2019F080E20E94FC048C2DDF
:102F80000E94C7058AE30E94FC04F70180810E9429
:102F9000C705F801329780810E94C705F801319773
:102FA00080810E94C705F80180810E94C705D394E3
:102FB000F4E0EF0EF11CC3940C5F1F4F34E0C3121A
:102FC000D5CFD11004C083E092E00E9446050E9454
:102FD000530524C144E0BE01695F7F4FC8010E94D0
:102FE000CB054F81493608F477C07A8558856985C5
:102FF0007C3009F04BC020E030E080E090E0F90147
:10300000E555F74F708174131CC0A181A51319C039
:10301000A281A61316C02CE023839C01220F331F2C
:10302000280F391FF901EE0FFF1FE358F74F1182E8
:103030001082F901EE0FFF1FE158F74F1182108245
:10304000CFC07F3FD9F44083518362832CE0238338
:103050009C01220F331F280F391FF901EE0FFF1FAC
:10306000E358F74F11821082F901EE0FFF1FE1586C
:10307000F74F1182108210927A08B2C001962C5F2D
:103080003F4F2031310509F0BACFC8C080E090E051
:1030900020E030E0FC01E555F74FA081A41315C0F6
:1030A000A181A51312C0A281A6130FC07383F901D9
:1030B000EE0FFF1FE20FF31FEE0FFF1FE158F74F58
:1030C00081E090E091838083A9C02F5F3F4F0496F9
:1030D00080319105F9F6A2C0E98180917B08E8175B
:1030E000C0F190E0F0E09C01295F3F4F2E173F07B1
:1030F00084F13A812091A90832132BC03C813F32E0
:1031000031F442E06CE0C6010E94B00987C02D8115
:103110003C32B1F42093960881E090E090939808B7
:103120008093970880915D0690915E06E4E02E9F63
:10313000800D911D112490935E0680935D066EC0F4
:10314000E81BF90BEE0FF0E0E756F74F30832183D1
:1031500065C080E090E02BDD7C01F801019000204B
:10316000E9F73197E01BF10BF695E795BB24B39493
:10317000BE0EC7018B0D911D815F92408F3A910564
:103180000CF048C0F701B1928F0121E0822F880F27
:1031900081502B15D8F441E0B801F601E80FF11D7C
:1031A000CF012C870E94CB052C85233058F020FDC1
:1031B00009C0D80111978C91843621F4F8018081DF
:1031C00080937C082F5F0F5F1F4FE0CFFFE9EF1662
:1031D000F3E0FF0618F5F701E20FF11D10821EC0A3
:1031E00022E04CE064E0CE0107960E9443098FE0A4
:1031F0008A8722E04CE064E0CE0107960E944309F2
:1032000082E08A8722E04CE064E0CE0107960E94CB
:10321000430904C08DEF91E00E9446052C96E9E039
:103220000C94E1400F931F93CF93DF9390917A0812
:1032300091114FC093E0899F80011124F801EE0F96
:10324000FF1FE358F74F94E0899FD0011124A55543
:10325000B74F12969C91977040E850E0491B510976
:103260009AEF949F9001959F300D112435952795E5
:103270003595279531832083E801CC0FDD1FCF578B
:10328000D74F288139812F5F3F4F39832883000F23
:10329000111F0158174FF801408151814115510507
:1032A00029F424303105A9F4A8DC11C041305105BE
:1032B00039F4A3DC82E090E0F8019183808309C0B7
:1032C0004230510531F499DCF801118210821982E3
:1032D0001882DF91CF911F910F910895A6E0B0E081
:1032E000E4E7F9E10C94C8402091A9082A831B82E5
:1032F00080919608882341F0833019F487E791E0A4
:103300000FC08DE790E00CC0277030E02A513F4F8E
:103310004DE7429FC001439F900D112495958795DD
:1033200090939808809397080AE918E0F12C7CE2C2
:10333000E72EF801319790819F3FC1F080917B0883
:103340008F0D898380919608882311F0EC8203C049
:103350009C83F80180818D8321E04CE065E0CE0103
:1033600001960E944309CE0101967DDCF3940E5F25
:103370001F4FF8E0FF12DDCF80919608882341F0BF
:10338000833019F41092960803C0825080939608F7
:103390002696E6E00C94E44080919F03882351F048
:1033A0008EDC89E28093AA0880919F0381508093EC
:1033B0009F030895F1CBFF920F931F93CF93DF9359
:1033C000FC01F0800181C281D38114818FE580935B
:1033D000AA0810929F0380917B08811105C08091FB
:1033E000A908882309F4A9C08091A0038F1104C003
:1033F0008091A103801729F0CFDBF092A003009306
:10340000A103809195088F3F09F497C0C093A20350
:10341000D093A3031093A403CC23F1F081111CC01B
:1034200080917B08181761F0143651F08DEA8C0FEB
:10343000823010F0CD3739F48FEF809395087DC03E
:10344000C43509F47AC08D2F807F803609F075C0AD
:10345000D067D093A30357C0ECDB811105C08091E6
:103460009508882309F469C08091A603811107C0DB
:10347000E0919508F0E0E55FFD4FE49101C0E82F91
:10348000E33541F4C43531F4909195089E5F9093F3
:10349000950804C0EC1711F07FDB4FC0882369F05A
:1034A0008091F0028E5F8093F002C3DB81110EC029
:1034B000809195088E5F8093950880919508E82FFC
:1034C000F0E0E45FFD4F14911F3F59F48091A20397
:1034D0008093A6038436B9F480917C088093A4037A
:1034E00012C01093A20397E79093A30390917B08D7
:1034F0009093A4038E5F809395081092A6038E305C
:1035000021F01123D1F0F3DB18C080EA93E04FDB08
:10351000DC01009781F02C9130E08FE993E0821B71
:10352000930BA817B90730F4ED01C20FD31F4881E0
:103530004D93F7CF1C9230DBE4CFCDB7DEB7E5E09B
:103540000C94E540FF920F931F93CF93DF938C0170
:10355000EC0109900020E9F72197C81BD90BFC0169
:103560008181823751F487E390E00E9490020E94AB
:10357000FE0281E08093BB0827C0833719F5FC2E3B
:103580002C988FE70E94E3018C2F82500E94E30168
:10359000E801229612E01F1528F489910E94E301A8
:1035A0001F5FF9CF2C9A0E94EC028AE30E943D0231
:1035B0008F7729F084E690E00E948704F6CF0E947E
:1035C000FE0202C01092BB08CDB7DEB7E5E00C9456
:1035D000E540A0E0B2E0EFEEFAE10C94C640809145
:1035E000BB08882309F452C0813011F58091590637
:1035F00090915A06A0915B06B0915C062091A703BA
:10360000281709F443C085E30E943D02813129F463
:103610008AE30E948C020E94FE02809159069091DA
:103620005A06A0915B06B0915C068093A7032EC05A
:103630008FE30E943D02D82E2C988FEF0E94E30169
:103640008E010F5F1F4F7801C02E8E2D801B8D15B0
:1036500038F480E00E94E301F70181937F01F5CF08
:103660002C9A81E080933F02802F8C198D1530F4C5
:10367000F80181918F010E94FC04F6CF0E9453054E
:103680008FEF80933F0281E08093BB08DE5FE8E02C
:103690000C94E2402091091030910A102115310557
:1036A00021F4209121013091220180911F019091FC
:1036B0002001009741F48DB79EB7409123015091AE
:1036C0002401841B950B2817390718F4821B930BD0
:1036D000089580E090E0089582E40E94FC0440E2B6
:1036E00065E08091091090910A100E9457050E9490
:1036F000530583E50E94FC0440E265E080912101CE
:10370000909122010E9457050E94530585E40E9472
:10371000FC0440E265E080911F01909120010E942D
:1037200057050E94530586E40E94FC04B3DF40E283
:1037300065E00E9457050C9453051F920F920FB637
:103740000F9211242F933F934F935F936F937F9327
:103750008F939F93AF93BF93EF93FF938091C00894
:103760009091C108892B39F08CEB98E00E945908A0
:103770008093C60005C08091C1008F7D8093C100F9
:10378000FF91EF91BF91AF919F918F917F916F9139
:103790005F914F913F912F910F900FBE0F901F900F
:1037A00018951F920F920FB60F9211242F933F93EB
:1037B0004F935F936F937F938F939F93AF93BF9339
:1037C000EF93FF9385B191E0892785B96091C60099
:1037D0008091C000887121F482EC9AE00E943B083D
:1037E000FF91EF91BF91AF919F918F917F916F91D9
:1037F0005F914F913F912F910F900FBE0F901F90AF
:10380000189597FF04C022E02093C0009F77909303
:10381000C5008093C40088E98093C10086E080934E
:10382000C20008958091C10085FD0BC08091C00841
:103830009091C108892B29F08091C100806280930A
:10384000C1000895E0915506F091560681E0099572
:10385000E9CF0F931F93CF93DF93EC0110E0212F5B
:1038600030E0F901EE0FFF1FE20FF31FE457FF4FA7
:103870000491F901EE0FFF1FE20FF31FE357FF4F13
:1038800025913491002399F0209739F480E20E9429
:10389000FC04802F0E94FC0408C08881801305C0AE
:1038A000CE01F901099581E003C01F5FD8CF80E008
:1038B000DF91CF911F910F910895CF93C0913F0257
:1038C00080933F028091C60A9091C70A892B91F19B
:1038D00082EC9AE00E945908E091A8038A3011F026
:1038E0008D30F9F4EE2371F3F0E0E755FC4F1082D0
:1038F00089EA93E0AEDF811111C081E392E00E947A
:10390000460589EA93E00E943B0589E192E00E9426
:10391000460580E090E09DDF0E9453051092A803C9
:10392000D1CF91E09E0F9093A803F0E0E755FC4FB4
:103930008083C8CFC0933F02CF9108951F93CF9348
:10394000DF93EC0116E0115048F089910E94C70501
:103950001123C9F38AE30E94FC04F5CFDF91CF91D4
:103960001F910895EF92FF920F931F93CF93DF93D0
:10397000EB01FC01E080F180FE24EF24FE240281B3
:1039800013811027012710276F2DCE010E945306A7
:103990006E2DCE0101960E945306612FCE01029634
:1039A0000E945306602FCE0103960E945306CDB7A6
:1039B000DEB7E6E00C94E440A5E1B0E0E2EEFCE125
:1039C0000C94CA4089E68A8384E68B836BE772E0B5
:1039D000CE0104960E941A42CE0101960E94FC0676
:1039E00081E68B836DE672E0CE0104960E941A4256
:1039F000CE0101960E94FC068EE68B836FE572E095
:103A0000CE0104960E941A42CE0101960E94FC0645
:103A100087E68B8363E572E0CE0104960E941A422A
:103A2000CE0101960E94FC0680E78B836EE472E073
:103A3000CE0104960E941A42CE0101960E94FC0615
:103A40008EE48B8366E472E0CE0104960E941A42F3
:103A5000CE0101960E94FC068FE68B8363E472E040
:103A6000CE0104960E941A42CE0101960E94FC06E5
:103A70008AEF97E00E945806843A71F58BEF97E041
:103A80000E945806803541F58CEF97E00E94580659
:103A9000853511F58DE68B836CE372E0CE010496DB
:103AA0000E941A428DEF97E00E945806BE01665FA1
:103AB0007F4F0E9440068EEF97E00E945806BE019D
:103AC000645F7F4F0E9440068FEF97E00E94580688
:103AD000BE01625F7F4F26C08DE68B8365E372E097
:103AE000CE0104960E941A42E0E0F0E000E010E00F
:103AF00081E2809357009491090F111D3196E032B5
:103B0000F105B9F7BE01665F7F4F80E00E94400675
:103B1000BE01645F7F4F812F0E944006BE01625F3D
:103B20007F4F802F0E944006188ACE0101960E9486
:103B3000FC066596E4E00C94E64034D58CEC9CE001
:103B40000E94D32C892B39F18CEC9CE00E94C92C6B
:103B500085EE9CE09093E40C8093E30C82E066D6C3
:103B60008091D60C9091D70C892B19F00E94C22B12
:103B700047D48DE69FE09093E00C8093DF0C85E0C6
:103B800055D68091D60C9091D70C892B19F00E94B4
:103B9000C22B36D430D588EC9CE00E94D32C892BE4
:103BA00031F088EC9CE00E94C92C0C94F82A08950E
:103BB000A0E0B0E0EEEDFDE10C94C6408C01EB011D
:103BC000CB010E9458067E018FEFE81AF80AC70160
:103BD0000E945806D82ECE010E945806C82EC70152
:103BE0000E9458062C2D30E03D29F80131832083B6
:103BF0007E01F2E0EF0EF11CC7010E9458062396E9
:103C0000CE010E945806D82EC7010E945806F82EF1
:103C1000CE010E9458062F2D30E03D29F801338354
:103C20002283CDB7DEB7E8E00C94E240A4E0B0E038
:103C3000ECE1FEE10C94CC4069E670E0CE01019627
:103C4000B7DF89819A819093080E8093070E8B814C
:103C50009C8190930A0E8093090E61E770E0CE017B
:103C60000196A6DF89819A819093000E8093FF0DC3
:103C70008B819C819093020E8093010E6DE670E023
:103C8000CE01019695DF89819A819093040E8093ED
:103C9000030E8B819C819093060E8093050E86E720
:103CA00094E0ABD346D10E94522F2496E2E00C94CC
:103CB000E840549A5C9888EC0E948C045C9A88ECEA
:103CC0000E948C0480D382E690E00E945806809384
:103CD000AC0583E690E00E9458068093AD0584E62B
:103CE00090E00E9458068093AE0585E690E00E9421
:103CF00058068093AF0586E690E00E9458068093B0
:103D0000B00587E690E00E9458068093B1058CEAE2
:103D100095E05BD38091AC058093B3058091AD05B0
:103D20008093B4058091AE058093B5058091AF0571
:103D30008093B6058091B0058093B7058091B10559
:103D40008093B8050BD510924C0610924B066FE18C
:103D500070E08CEC9CE00E94BD2C62EE74E088EC7C
:103D60009CE00E94BD2C88E690E00E9458068823C3
:103D700051F086EA94E041D38CEA95E00E941E2F30
:103D80001092AB05089582E08093AB054FCF1F934F
:103D9000CF93DF93FC018181893611F48ADF2BC038
:103DA0008336C1F4C7E0DEE014E0115060F0899181
:103DB00040E261E090E00E9457051123B1F38EE2EA
:103DC0000E94FC04F2CF80E20E94FC0483EB95E0A9
:103DD000B5DD0AC0843659F48091AA058F5F8370DF
:103DE0008093AA050E94C7050E94530504C08E3621
:103DF00011F40E943331DF91CF911F910895CF9339
:103E0000DF93EC01009711F411DF3CC069E670E02C
:103E10004696A8DD8E899F899093080E8093070EA1
:103E2000888D998D90930A0E8093090E61E770E05A
:103E3000CE01829697DD8AA19BA19093000E80937C
:103E4000FF0D8CA19DA19093020E8093010E6DE653
:103E500070E0CE014A9686DD8A8D9B8D9093040E8C
:103E60008093030E8C8D9D8D9093060E8093050E8E
:103E7000EB81FC811582148286E794E0BED259D092
:103E80000E94522FDF91CF910895E091E30CF091C1
:103E9000E40C248135818091D00C9091D10C2817AD
:103EA000390709F470C008958091AB05823029F07C
:103EB0000E94EE2D8093AB050895E091DF0CF09108
:103EC000E00C309759F08091DE0C81FF07C08481AF
:103ED000958181159B4711F40C94633108951F93CC
:103EE000CF93DF93C091E30CD091E40C8091C00894
:103EF0009091C108892BC9F08D8D8A3F49F482E0E9
:103F000095D40E94C22B7CD282E00E948C0415DEE4
:103F10001D8D81E0810F8D8F8CEB98E00E945908F8
:103F2000FE01E10FF11D868FE1CFDF91CF911F914F
:103F3000089589E790E00E944D42292F30E040E04B
:103F400050E0582FC901842B952B9093D10C80936E
:103F5000D00C5BD41092D30C1092D20C0895E09147
:103F6000020DEA3F40F491E09E0F9093020DF0E0C5
:103F7000EF5FF24F82830895E091E30CF091E40C3F
:103F800082E0848F08950F931F93CF93DF93E09186
:103F9000E30CF091E40C4091DE0C46FF15C0158E49
:103FA00081E0848F8091D20C9091D30C9C012F5F83
:103FB0003F4F3093D30C2093D20C892B29F480915E
:103FC0003F02846080933F02848D8230B9F481E0A7
:103FD000848F80E18093DE0C8091D20C9091D30C81
:103FE00001979093D30C8093D20C892B09F062C077
:103FF00080913F028B7F80933F025CC0842F80734F
:1040000011F447FF02C0158E148E41FF30C000919D
:10401000D60C1091D70C0115110549F13091E10C26
:104020002091E20C8FE69FE1909354068093530613
:10403000C32FD22F699182EC9AE00E943B088091B5
:10404000C60A9091C70A8115924031F4E091550655
:10405000F091560684E009950150110901151105EA
:1040600049F7E0915506F091560684E00995809154
:10407000DE0C82FD05C0982F937011F48874D1F086
:10408000C091E30CD091E40C4D8D442399F050E0A5
:10409000BE01625E7F4F8091E10C9091E20C0E9424
:1040A0002E426D8D70E08091E10C9091E20C0E94A7
:1040B000532A1D8EDF91CF911F910F91089514986F
:1040C0008AE30E949E3180E00E949E31149A0895F6
:1040D000CF93C82F14988AE70E949E318C2F0E949C
:1040E0009E31149ACF910895CF93C82F40EA63E090
:1040F0008FE1A1D06C2F637040E88FE19CD0C0931A
:10410000B205CF910895CF93DF93C82FD82FDF71D9
:104110002D2F30E02B31310584F4282F2076822F8B
:1041200090E025E0959587952A95E1F74091B205B5
:1041300050E08417950709F0D7DF14988D2F0E945F
:104140009E3180E00E949E31C7FF03C080E00E9444
:104150009E31149ADF91CF91089514988FEF0E94A9
:104160009E318DE1D0DF80FFFCCF149A0895CF936C
:10417000DF93D62FC82FCF714C2F50E04B31510514
:1041800084F4282F2076822F90E035E0959587954E
:104190003A95E1F74091B20550E08417950709F090
:1041A000A3DF14988C2F80640E949E318D2F0E9473
:1041B0009E31149ADF91CF910895A1E0B0E0E3EE33
:1041C000F0E20C94CC40682F80E09983D0DF998195
:1041D000692F81E0CCDF2196E2E00C94E840A1E079
:1041E000B0E0E5EFF0E20C94CC40682F82E09983D8
:1041F000BEDF9981692F83E0BADF2196E2E00C945B
:10420000E840A1E0B0E0E7E0F1E20C94CB40162FEB
:10421000682F84ED7983ABDF612F86EDA8DF79818C
:10422000672F87EDA4DF8AEE6EDF80FDFCCF21963D
:10423000E3E00C94E740A1E0B0E0E1E2F1E20C94AD
:10424000CA40062F182F1F71E12FF0E07B9794F4DE
:10425000282F2076822F90E055E0959587955A95E6
:10426000E1F7E091B205F0E08E179F0719F049835E
:104270003BDF49811498812F842B0E949E31802F2F
:104280000E949E31149A2196E4E00C94E640CF936C
:10429000682F84ED6CDF40E861E082EDCCDF8AEED0
:1042A00032DF80FDFCCF40EA61E082EDC4DF88EDC3
:1042B0002ADFC82F89ED27DF2C2F30E0A901582BEA
:1042C000CA01CF9108950C9A149A47DF60E088E004
:1042D0004EDF60E089E04BDF6FEF8AE048DF6FE0A0
:1042E0008BE045DF60E084E042DF60E185E03FDFB6
:1042F00060E08CE03CDF60E08DE039DF60E08EE084
:1043000036DF60E08FE033DF1092D50C1092D40CD2
:1043100040EA60E881EC8FDF40E86DE080EC8BDF05
:1043200040E862E382EC87DF60E070E080E069DF14
:1043300080E0ADDF90FF06C040E861E082EC7BDF0B
:1043400062E105C040EA61E082EC75DF65E184EC82
:104350000EDF62E186EC0BDF6CE087EC08DF60EEDD
:104360008AEC05DF65E08BEC02DF6091B30584EE3B
:10437000FEDE6091B40585EEFADE6091B50582EE51
:10438000F6DE6091B60583EEF2DE6091B70580EE51
:10439000EEDE6091B80581EEEADE63E888E3E7DEF1
:1043A00062E17CE084E12DDF6BED8BE1E0DE62E138
:1043B00070E082E126DF40E864E08FE13CDF40E826
:1043C00060E88EE138CF7FCF0895CF93DF93EC0183
:1043D000688184EECCDE698185EEC9DE6A8182EE79
:1043E000C6DE6B8183EEC3DE6C8180EEC0DE6D8144
:1043F00081EEBDDEDF91CF910895BC0184E101CF54
:10440000CF93DF93C4E68FE17EDE83FF03C0C1500C
:10441000D0F702C0CC2391F160E084E0A8DE60E137
:1044200085E0A5DE6091D60C86E0A1DE8091D60CF9
:104430009091D70C905F692F87E099DE80E090E142
:10444000CEDE80E045DECBE0DEE08091D60C9091C0
:10445000D70C9E012B503E402817390718F489913C
:1044600037DEF3CF40E860E88FE1E5DE40EA60E860
:104470008FE1E1DE40E868E08FE1DDDEDF91CF91A2
:104480000895A4E0B0E0E7E4F2E20C94C84089E3C8
:104490003ADE882309F480C08091D40C9091D50C29
:1044A0008CDE0DDE182F0BDE212F30E0382B309301
:1044B000D50C2093D40C8E010F5F1F4F7E0125E099
:1044C000E20EF11CFCDDF80181938F01EE15FF0572
:1044D000C9F789819A818C01045011091A830983D3
:1044E00042978135914028F48BE0E82E8EE0F82E3B
:1044F00002C0E9DE51C0C7018B509E408017910772
:1045000028F4DDDDF70181937F01F5CF1093D70CFF
:104510000093D60C8091170E9091180E982789273A
:1045200098278115F8E09F0761F086309840A1F444
:104530000E94222B8091D60C9091D70C892B61F090
:104540000AC081E073D18091D60C9091D70C892B51
:1045500019F00E94C22B54DF6091D40C7091D50CDD
:10456000CB0101978115904128F06FEF8CE0FFDDC2
:104570006FE009C061508CE0FADD8091D40C90911D
:10458000D50C0197692F8DE0F2DD40E860E48EE103
:1045900052DE81E090E002C080E090E02496E6E008
:1045A0000C94E440CF9389E3AEDD882311F18CE1D4
:1045B000AADDC82F40EA60E88BE13DDEC3FF08C0FA
:1045C00040EA68E08CE137DE40EA6AE08DE133DE04
:1045D00058DFC0FF04C040EA61E08CE12CDEC1FF7F
:1045E00004C040EA62E08CE126DE40E860E88BE14E
:1045F00022DECF91089582EC86DD8273823309F04A
:1046000062CE80EC80DD8D30D9F70895FB014150FA
:104610005109460F571FE417F50778F4208130E061
:10462000322F22276181260F311D820F931F82179F
:10463000930708F401963296EECFE417F50751F48C
:10464000208130E0322F2227820F931F8217930799
:1046500008F401960895FC015381560F5093DD0C28
:10466000872F99274281480F4093DC0CA181A093AA
:10467000DB0CE081E093DA0C242F30E028173907B7
:1046800048F481E08A0F8093DB0C811103C0EF5F57
:10469000E093DA0C852F90E077278617970788F448
:1046A0004F5F4093DC0C41110CC08091DB0C8F5F9D
:1046B0008093DB0C811105C08091DA0C8F5F8093B1
:1046C000DA0C08952091E30C3091E40CBC01C9018F
:1046D0000896C1DFE091E30CF091E40C8091DA0CD4
:1046E00080878091DB0C81878091DC0C82878091B0
:1046F000DD0C8387089544E150E069E17EE080E0CD
:1047000090E084DF009721F0982789279827089563
:104710008FEF9FEF0895CF93DF93C0911B0ED0E0F2
:10472000DC2FCC2780911C0EC80FD11D48E050E033
:1047300065E27EE0CE010E9769DFAE01445151097A
:104740006DE27EE063DF009721F0982789279827A4
:1047500002C08FEF9FEFDF91CF9108951092FE0D71
:104760001092FD0D1092FE0C81E08093BC0510921A
:10477000720F1092710F0895E091710FF091720F06
:104780002091BD053091BE052F5F3F4F21154DE7AC
:10479000340710F020E030E1522F432FE417F507E3
:1047A00099F33093BE052093BD05EF2B41F5109290
:1047B000BC055093720F4093710F7093740F609308
:1047C000730F009749F410926D0F10926E0F1092B4
:1047D0006F0F1092700F0DC0FC012081318130935A
:1047E0006E0F20936D0F828193819093700F809351
:1047F0006F0F80E48093750F8DE69FE0089581E050
:104800008093BC0580E090E008952091FD0D3091EB
:10481000FE0D232B39F41092BC059093FE0D80936E
:10482000FD0D089581E08093BC0508950F931F93BB
:10483000CF93DF93C091E30CD091E40C843009F462
:104840009CC121E43EE03093E20C2093E10C3093D4
:10485000D90C2093D80C833059F4898D8F70833014
:1048600009F012C688899989892B09F00DC677C08D
:10487000823009F079C08091C2058F5F8093C205B4
:10488000811113C08091C1058F5F8093C105811193
:104890000CC08091C0058F5F8093C005811105C059
:1048A0008091BF058F5F8093BF051092D70C109247
:1048B000D60C10926C0F10926B0F298D822F8D7F6A
:1048C000853041F48A8D8F5F8A8F883709F0DCC587
:1048D000198EDAC5222309F4D7C588899989892BCD
:1048E000D1F18A8D9FEF980F9A8F8111CDC58B8D55
:1048F000883031F09FEF920F923040F4853031F4E0
:10490000198E80E88093DE0CC0DA67C4853038F4F5
:1049100093E0082E01C0990F0A94EAF701C090E3D2
:104920009A8F8F5F8B8F822F8F70843009F4EDC345
:1049300058F4813009F4DDC2833009F0A5C584E064
:104940008093DE0CA2DA7DC4863009F4DEC38830A1
:1049500009F09AC5DAC32F70233009F095C588E0B5
:104960008093DE0C92DA30C4853019F5E091DF0CCB
:10497000F091E00C84819581892B09F485C5109212
:10498000E40C1092E30C85E39EE09093E20C80939C
:10499000E10C9093D90C8093D80C10926C0F10926C
:1049A0006B0F1092D70C1092D60C88E08093DE0C1F
:1049B000E3C08091190E853409F066C5C0911B0EC5
:1049C000D0E0DC2FCC2780911C0EC80FD11D809128
:1049D000D60C9091D70C8C179D0708F455C5D09331
:1049E000D70CC093D60C80911F0E8F7309F04CC565
:1049F0008091200E811148C50091070E1091080E7C
:104A00000115110531F48091090E90910A0E892B40
:104A1000A1F08091290E90912A0E8017910709F03C
:104A200033C520912B0E30912C0E8091090E909160
:104A30000A0E2817390709F027C55DDE019609F02F
:104A400023C58091220E863009F4EEC08131B1F188
:104A5000813009F019C580912D0E883009F014C5F8
:104A600010922D0E80912F0E9091300E873FCFEF38
:104A70009C0710F0099601C008969093300E809321
:104A80002F0E8091250E9091260E90932A0E8093E2
:104A9000290E8091270E9091280E90932C0E8093D2
:104AA0002B0E1093260E0093250E8091090E9091E7
:104AB0000A0E9093280E8093270EEAC46C97D09329
:104AC000D70CC093D60C20912F0E3091300E409110
:104AD0002D0E50912E0E6091250E7091260EA091F4
:104AE000270EB091280EEDE6FFE08FE0EC39F807D5
:104AF00008F0C6C484819581009719F128173907F9
:104B000001F586819781009719F048175907C9F474
:104B100080819181009729F4C281D381CD2B49F402
:104B200012C08F3F1FEF910721F4C281D3812196DC
:104B300051F06817790729F482819381A817B90782
:104B400011F0BF96D2CFF093E00CE093DF0C1092FF
:104B5000E40C1092E30C82E08093DE0C85E39EE08F
:104B60009093E20C8093E10C9093D90C8093D80C35
:104B700010926C0F10926B0F97D980916B0F9091E0
:104B80006C0F009709F480C49C01245E3F4F309362
:104B9000D70C2093D60C30931B0E20931C0EE09163
:104BA000DF0CF091E00C20852093210E21E1209371
:104BB000220E08969827892798279093320E809383
:104BC000310E1092340E1092330E848195819093A1
:104BD0002E0E80932D0E868197819093300E8093B8
:104BE0002F0E8091070E9091080E9093260E8093C1
:104BF000250E8091090E90910A0E9093280E8093B5
:104C0000270E8081918190932A0E8093290E8281B4
:104C1000938190932C0E80932B0E81E49EE09093D1
:104C2000E20C8093E10C0AC476DD019609F02CC4F5
:104C30005091FE0C40913A0E552369F120912F0EB0
:104C40003091300E8091E90C9091EA0C28173907C9
:104C500011F520912D0E30912E0E8091EB0C90913C
:104C6000EC0C28173907B9F42091250E3091260E47
:104C70008091E50C9091E60C2817390761F420919A
:104C8000270E3091280E8091E70C9091E80C2817A0
:104C9000390709F445C1842F8F73823019F042FD22
:104CA000F3C317C080912F0E9091300E9093BA05E8
:104CB0008093B9052091FD0D3091FE0D8217930769
:104CC00009F0EDC3511176C01092BC05C5EEDCE0D1
:104CD0007BC084E180933A0E88E290E09093D70CF9
:104CE0008093D60C80E58093390E8091340E90919C
:104CF000380E9093340E3091330E9091370E90937E
:104D0000330E3093370E2091320E9091360E9093E1
:104D1000320E2093360E9091310E9093BC05409147
:104D2000350E4093310E9093350E8F5F8093380E81
:104D300081110FC081E0830F8093370E811109C06C
:104D400081E0820F8093360E811103C09F5F9093A4
:104D5000350E80912D0E90912E0E9093BA05809372
:104D6000B90520912F0E3091300E30932E0E2093E6
:104D70002D0E9093300E80932F0E8091250E9091E2
:104D8000260E90932A0E8093290E8091270E9091E3
:104D9000280E90932C0E80932B0E1093260E0093CA
:104DA000250E8091090E90910A0E9093280E809303
:104DB000270E2AC3573019F4C5EEDCE002C0C0E06C
:104DC000D0E081E08093BC05209709F45DC3D093C7
:104DD000E40CC093E30C83E08A8F888F1E8A84E002
:104DE0008F8B1B8E80912F0E9091300E9D838C8324
:104DF00080912D0E90912E0E9F838E838091250E93
:104E00009091260E998388838091270E9091280E89
:104E10009B838A8381E0898F8091BF058C878091F5
:104E2000C0058D878091C1058E878091C2058F87CF
:104E300081E090E0998B888B8091340E8B878091F4
:104E4000330E8A878091320E89878091310E888750
:104E500081E090E037DC8091390E282F207F30E010
:104E6000213531050CF445C082958F7090E005978F
:104E7000880F991F880F991F3091BB0520E0E22F02
:104E8000F0E0E817F9078CF5E55FF14F36A931112D
:104E900005C02093BC051092BB052BC0313011F426
:104EA0002F5FEDCF3230E1F447A94430C9F42093AD
:104EB000BC053093BB0580AD90E0982F882721ADCD
:104EC000822B9093BA058093B905893211E091073E
:104ED00010F088E291E09B8B8A8B9D8B8C8B09C0B4
:104EE00047A9442311F0240FCACF2093BC05309367
:104EF000BB0582E180933A0E82E08093410E84E00C
:104F00008093420E81E08093430E88E28093440EAA
:104F10008CE290E09093D70C8093D60C80E621C26F
:104F200085EE9CE09093E40C8093E30C1092DE0CF1
:104F300042FF04C01092FE0C80E2B1C18091390E94
:104F400082958F70880F880F8093BC05C81BD1098C
:104F50006497D093D70CC093D60C5F70523021F475
:104F6000842F8F738231E9F0CD2B19F4842F837055
:104F7000C1F09091310E8091ED0C9813E6C19091A3
:104F8000320E8091EE0C9813E0C19091330E809117
:104F9000EF0C9813DAC19091340E8091F00C9813B5
:104FA000D4C144FF58C06091F50C7091F60C6115A6
:104FB000710509F450C081EF9CE04DDB3091350E56
:104FC0008091DA0C381347C02091360E8091DB0CAB
:104FD000281341C09091370E8091DC0C98133BC090
:104FE0008091380E4091DD0C841335C03093F10C64
:104FF0002093F20C9093F30C8093F40C8091000DAD
:1050000081111EC09091FB0C8091FD0C2091FF0C32
:10501000821B292F269526952695821B980F909303
:10502000FB0C2091FC0C322F36953695831B820F9A
:105030008093FC0C969596959695980F9093FD0C01
:1050400081E08093DE0C8091FD0C8093FF0C109228
:10505000F60C1092F50C4091FE0C842F8F7090E0AE
:10506000FC013197E830F10508F00EC2E25CFF4F19
:105070000C949D408091DE0C80FF06C283E08093FB
:10508000FE0C80E48093DE0C1092F60C1092F50C6E
:105090008091D60C9091D70C009709F48DC022E432
:1050A0002093DE0C0FDB88C080913A0E80FF31C068
:1050B00044FD2FC08091F50C9091F60C892B09F0DE
:1050C000E3C18091D60C9091D70C0196FBDA209128
:1050D000DE0C822F80618093DE0C8091D60C909143
:1050E000D70C892B19F022612093DE0C0E94451FFA
:1050F00081E090E09093F60C8093F50C88E080932B
:10510000FE0C1092000DC5EEDCE081E180933A0EBA
:1051100021C185FF1CC080913F0E90E0982F882709
:105120002091400E822B2091E10C3091E20C280F4F
:10513000391F3093E20C2093E10C2091D60C309172
:10514000D70C281B390B3093D70C2093D60C8091A9
:10515000D60C9091D70C009741F044FD06C02091E9
:10516000DE0C22602093DE0CADDA80913B0E90E0E5
:10517000982F882720913C0E820F911D9093BA059D
:105180008093B9052091F90C3091FA0C2817390752
:1051900010F0892B21F43093BA052093B905809142
:1051A000B9059091BA059093F80C8093F70C809113
:1051B000DE0C837009F468C110926C0F10926B0FB3
:1051C0000E94451FC5EEDCE08091DE0C85FF07C024
:1051D00010926C0F10926B0F198E84E197CF84FFA1
:1051E0000CC010926C0F10926B0F81E090E0998BC5
:1051F000888B84E0898F1B8E88CF20916B0F309134
:105200006C0F21153105E1F080FF02C0198A188A60
:1052100088899989009781F48A899B8982179307E5
:1052200020F490936C0F80936B0F80916B0F909193
:105230006C0F998B888B04C090936C0F80936B0FCD
:105240001B8E8091D80C9091D90C9093E20C809396
:10525000E10C80916B0F90916C0F892B59F088892C
:105260009989009739F088969093D70C8093D60C43
:1052700088E10BC08091DE0C81FF06C188E290E0DE
:105280009093D70C8093D60C80E180933A0E68C03F
:105290008091DE0C80FFF8C01092FE0C80E18093BC
:1052A000DE0C0E94451FF0C08091D60C9091D70C67
:1052B000009709F007DA90913A0E8091DE0C90FF8A
:1052C00010C080FF0AC087E08093FE0C1092FF0C94
:1052D0001092F60C1092F50C1EC086E08093FE0C26
:1052E0001AC080FF21C085E08093FE0C1092F60C5E
:1052F0001092F50CC9C08091D60C9091D70C0097F4
:1053000009F0E0D980913A0E80FF0EC087E08093CB
:10531000FE0C1092FF0C81E090E0D4D980E18093E4
:10532000DE0C0E94451F11C08091D60C9091D70CC5
:10533000892B59F4A9C08091DE0C80FFA5C087E0BD
:105340008093FE0C1092FF0C9FC080E180933A0E78
:10535000C5EEDCE088E290E09093D70C8093D60C09
:1053600080E58093390E88858093350E89858093FA
:10537000360E8A858093370E8B858093380E8C8508
:105380008093310E8D858093320E8E858093330EFF
:105390008F858093340E86E08093220E8C819D81D0
:1053A00090932E0E80932D0E8E819F819093300EC0
:1053B00080932F0E8091070E9091080E9093260EE9
:1053C0008093250E8091090E90910A0E9093280EDD
:1053D0008093270E8881998190932A0E8093290EBD
:1053E0008A819B8190932C0E80932B0E898D84FF54
:1053F00005C010923C0E10923B0E06C081E08093D7
:105400003B0E88E280933C0E80E48093210E8091D5
:10541000D60C9091D70C90931B0E80931C0E10927B
:10542000400E10923F0E10923E0E10923D0E73D918
:105430008095909590933E0E80933D0E85E48093E9
:10544000190E10921A0E1092200E10921F0E8091BB
:10545000C3059091C40501969093C4058093C3053C
:1054600090931D0E80931E0E1092240E1092230E08
:1054700042D9809590959093240E8093230E08C076
:10548000F093E00CE093DF0C1092D70C1092D60C46
:105490001092DE0CDF91CF911F910F91089581E062
:1054A0008093BC05FCCB9C01AB011616170674F467
:1054B00070936C0F60936B0F8091D80C9091D90C06
:1054C0002817390719F0B9010C942E420895CF938B
:1054D000DF931092C8054091270E5091280E6091DD
:1054E000290E70912A0EE0E0C0E0D0E0FBE0E83049
:1054F000F0F4FE9FE0011124C353DA4F2881398173
:105500002115310591F08A819B81009771F0421736
:10551000530759F46817790741F4E093C805DE0191
:10552000149686E0E1E2FEE059C0EF5FE0CF109212
:10553000C80520E03BE0283090F4329FE0011124C0
:10554000C353DA4F88819981892B39F48A819B81F1
:10555000892B19F42093C8052FC02F5FECCF20931F
:10556000C805283049F5A091C6058A2F90E070E063
:10557000C0E060E0BBE0683098F4B69FF001112411
:10558000E353FA4FE285AC014E1B5109272F30E05F
:10559000241735071CF4C62F7A2F7E1B6F5FEBCFC5
:1055A0007093C505C093C705C093C8058BE0C89F1D
:1055B000E0011124C353DA4F8091270E9091280EF9
:1055C000A091290EB0912A0EFE0181939193A1938F
:1055D000B1939F0186E0E1E2FEE0D90101900D92D6
:1055E0008A95E1F78091C6058A87DF91CF9108956A
:1055F0002091C6052F5F2093C6051092C8057BE059
:1056000030E06091C8056830E0F4769FF001112425
:10561000E353FA4F8281938140815181842B952BF2
:10562000892B59F08285A901481B5109483751053A
:1056300024F010821182128213826F5F6093C8057A
:10564000E0CF08958091D60C9091D70C1092D70C92
:105650001092D60C8A9708F4089580911F0E9091AD
:10566000200E811521E0920729F08115924009F45E
:1056700071C008952091310E3091320E8091070E45
:105680009091080E2817390709F07BC02091330E3E
:105690003091340E8091090E90910A0E2817390727
:1056A00009F06FC014DF80E092E09093200E8093A9
:1056B0001F0E86E0E1E2FEE0ABE2BEE001900D925B
:1056C0008A95E1F786E0E3EBF5E0A1E2BEE0019028
:1056D0000D928A95E1F786E0E3EBF5E0A1E1BEE00B
:1056E00001900D928A95E1F786E0EBE2FEE0ABE0F7
:1056F000BEE001900D928A95E1F78091270E90917E
:10570000280E9093320E8093310E8091290E909145
:105710002A0E9093340E8093330E8091070E909151
:10572000080E9093280E8093270E8091090E909179
:105730000A0E90932A0E8093290E88E096E09093AB
:10574000180E8093170E8AE290E09093D70C809306
:10575000D60C08952091310E3091320E8091070EB3
:105760009091080E2817390761F42091330E30917B
:10577000340E8091090E90910A0E2817390709F40A
:10578000A6CE08952091290E30912A0E2F3F4FEF7B
:10579000340751F480912B0E90912C0E019621F438
:1057A00086E0E5E2F1E0CAC08091070E9091080E14
:1057B000822793274091030E5091040E8423952352
:1057C000892B91F440912B0E50912C0E8091090E53
:1057D00090910A0E842795276091050E7091060E10
:1057E00086239723892B89F08091FF0D9091000EDD
:1057F0009093CA058093C9058091010E9091020E85
:105800009093CC058093CB0508C03093CA052093B4
:10581000C9055093CC054093CB051092C8058091E3
:10582000C9059091CA052091CB053091CC0560E067
:10583000E0E0F0E07BE0683090F4769FF001112426
:10584000E353FA4F408151818417950731F4428127
:1058500053812417350709F46DC06F5FECCF609357
:10586000C805683009F068C046E050E06FEF70E0AE
:105870008BE09EE00E94374226E0EBE2FEE0DF0193
:10588000422F1D924A95E9F7E3EBF5E0A1E1BEE076
:10589000822F01900D928A95E1F7E3EBF5E0A1E20A
:1058A000BEE0822F01900D928A95E1F78091C905A3
:1058B0009091CA059093320E8093310E8091CB0562
:1058C0009091CC059093340E8093330E8091070E07
:1058D0009091080E9093280E8093270E8091090EC8
:1058E00090910A0E90932A0E8093290E80E091E009
:1058F0009093200E80931F0E90931A0E8093190E92
:1059000088E090E090931C0E80931B0E20931D0E58
:1059100084E080931E0E88E096E09093180E8093AA
:10592000170E81E49EE09093E20C8093E10C8AE2F2
:1059300090E01EC06093C805349686E0ABE0BEE000
:1059400001900D928A95E1F786E0E3EBF5E0A1E1A5
:10595000BEE001900D928A95E1F788E090E0909387
:10596000180E8093170E8091D60C9091D70C0E963E
:105970009093D70C8093D60C0895CF93DF93EC01CE
:105980007B836A830E94FB0399838883DF91CF9195
:105990000895FC018081918122813381820F931FC0
:1059A000918380830895CF93DF93EC010E94FB03E2
:1059B00028813981AC01421B530B81E090E02A81A0
:1059C0003B814217530710F480E090E0DF91CF91C4
:1059D0000895CF93DF93EC0181E08883898386E08B
:1059E0008A831B8240912F015091300160913101D7
:1059F000709132014C835D836E837F831986188694
:105A000080E890E09B878A874091070E5091080EAE
:105A10006091090E70910A0E4C875D876E877F87B3
:105A2000188A198A1A8A1B8A1C8A1D8A1E8A1F8A4A
:105A3000188E198E1A8E1B8EDE015C96E091300650
:105A4000F091310686E001900D928A95E1F7FE0112
:105A5000B2968AE0DF011D928A95E9F7CE018C9615
:105A600020E4FC0111922A95E9F7FE01E459FF4F69
:105A700020E8DF011D922A95E9F763E372E00E94B6
:105A80003E42C451DF4F40912B0150912C01609157
:105A90002D0170912E01488359836A837B83DF91A6
:105AA000CF910895CF93DF93C091E10CD091E20C98
:105AB0008881823009F08EC044E050E06FE271E0EE
:105AC000CE0104960E942142892B09F083C0609187
:105AD00030067091310646E050E0CE014C960E94AF
