:1000000031C100000C94430D49C1000047C10000FC
:1000100045C1000043C1000041C100003FC10000D4
:100020003DC100003BC1000039C1000037C10000E4
:1000300035C100000C94E00C31C100002FC100005C
:10004000AFC200002BC1000029C1000027C1000081
:100050000C944A140C94181421C100001FC1000014
:100060001DC100001BC1000019C1000017C1000024
:1000700015C1000013C1000011C100006DE713425B
:10008000BE05430C0246AA0749451644861547ADEE
:10009000074DE507522C05546A11562306576C0587
:1000A00058930965E305661C136CAD05742D037543
:1000B0006E0F788B02000000202F2000203D2000D2
:1000C000072E050DD391FF080500000C0021656A7D
:1000D0002D3B1322F862073F181D1CC700B0876B29
:1000E000F8B611EA2A001F41000D2E2D07D3913DCD
:1000F00004320000060021656A55E43023B9000788
:100100000018146C070090876BF85611E92A001F3D
:10011000410000030F1E2627000000030F1E253696
:10012000386700030F256740605000030F27518890
:10013000838100030F2750C8C3C2002700000000BE
:1001400000000067000000000000005000000000F8
:100150000000008100000000000000C2000000005C
:1001600000005620312E36332043534D38363800A8
:10017000202F2000203D20004C4F56460D0A004203
:100180004F56460D0A004E2F4100454F420D0A00C2
:1001900000535300547D7DFFFF4B4B7E7E00206952
:1001A0007320756E6B6E6F776E2920557365206FA7
:1001B0006E65206F66003F202800626F6F74696E65
:1001C00067207570202E2E2E20002020206275734F
:1001D000776172652E646500202A00312E36330067
:1001E00020560043534D383638002A2000080306B5
:1001F00018200306090E0005050F0F010000050277
:100200000B0D1B020B020B00101C28300101000417
:100210000714183A071407140C18000C18010100F1
:1002200003050C0F1E050C040A00101525250101FD
:100230000002040D0F26040D040D00000000000153
:10024000010002040D0F26040D040D0010102020E3
:10025000010100011016070B070B070B0F14000F0D
:100260001400010011241FBECFEFD0E1DEBFCDBFCF
:1002700011E0A0E0B1E0E2EDF5E302C005900D92DF
:10028000AC30B107D9F723E0ACE0B1E001C01D927A
:10029000AD3AB207E1F703D00C94E71AB1CE88E18A
:1002A0000FB6F89480936000109260000FBE90E04B
:1002B00080E80FB6F89480936100909361000FBEC0
:1002C000089A109A099A119A0E94F215A9D40E94CC
:1002D000051681E087BD84E085BD82E084BD809302
:1002E0006E00109280008AE08093810084B7877F3F
:1002F00084BF2FE088E190E00FB6F894A895809332
:1003000060000FBE2093600089E190E80E947A149B
:100310000E9454150E945A11E8D784ED94E19093FD
:10032000BB028093BA0281E0809310010E94920E7A
:1003300080911001886180931001119878940E9437
:1003400099140E94AA0A9FD10E9462130E94101061
:100350000E940916F4CF8EBD0DB407FEFDCF8EB5F9
:100360000895A1E0B0E0E7EBF1E00C949D1A482F6E
:100370008A3008F048E088E0489F70011124F701B6
:10038000EE5EFE4F7F018BE290E0F70164918C01FD
:100390000F5F1F4F498342D3FFEFEF1AFF0A4981D6
:1003A0000333110511F0C801F0CF4550453010F46A
:1003B00061E101C067E184E290E030D32196E6E09C
:1003C0000C94B91ACF93DF9382E090E0FC01E951DD
:1003D000FF4F6491EC01219621D3CB32D10511F06E
:1003E000CE01F4CF87E390E0FC01E757FF4F649123
:1003F000EC01219613D3C036D10511F0CE01F4CF14
:1004000088E0AFDFDF91CF9108952C98806CA3DF57
:1004100080E0A1DF2C9A0895A1E0B0E0E2E1F2E0F3
:100420000C94A01A41E0BE016F5F7F4F0196B6D2D7
:10043000892B21F18981893969F410E0812FE5DF69
:10044000A9D2812F8770873009F430D21F5F103313
:10045000A9F714C0DADF182F83E4D6D189819AD2A4
:100460008CEB90E016D2812F95D288EB90E011D2E0
:1004700040E262E0812F90E01DD218D22196E3E0A5
:100480000C94BC1A2C9867DF2C9A0895EF92FF9277
:100490000F931F93CF93DF93EC01E898249A2C9A43
:1004A0008EE190E047D12C988EE190E043D12C9AD8
:1004B0008DE290E03FD180E3E5DF84E690E03AD141
:1004C0002C9880E448DF7E0189E2E80EF11C8E0161
:1004D0000F5F1F4FCE01A7D23EDF0E151F0511F093
:1004E000E801F5CF2C9A2C988EE735DF8BE290E06F
:1004F000EC01219698D22FDFC333D10511F0CE0144
:10050000F7CF2C9A83E3BEDF81E019D1CDB7DEB7F8
:10051000E6E00C94B91AA1E0B0E0E1E9F2E00C9455
:10052000A11A22E0298341E0BE016F5F7F4F01964F
:1005300035D2898116DF82E090E0A8DF2196E2E0E3
:100540000C94BD1ACF93E89886E39CDFCFEF85E348
:1005500099DFC1508077803229F08AE090E0EAD0BC
:10056000C111F5CFCF910895CF93CFEF84E38ADF08
:10057000C1508077803129F08AE090E0DBD0C11152
:10058000F5CFE89ACF91089586E37CDF1092BC0204
:10059000089582E090E07ADF81E08093BC020895C4
:1005A0001F920F920FB60F9211242F933F934F93E8
:1005B0005F936F937F938F939F93AF93BF93EF93CB
:1005C000FF930E94401680910D018F5F80930D0173
:1005D0008D3708F110920D018091BE029091BF02FB
:1005E000A091C002B091C1020196A11DB11D8093DE
:1005F000BE029093BF02A093C002B093C10280914B
:10060000BD028F5F8093BD02809121038F3F19F05F
:10061000815080932103FF91EF91BF91AF919F9102
:100620008F917F916F915F914F913F912F910F909B
:100630000FBE0F901F9018952FB7F8944091BE02EF
:100640005091BF026091C0027091C102FC014083D1
:100650005183628373832FBF0895A4E0B0E0E3E386
:10066000F3E00C94A11ACE010196E6DF8C8192D1C1
:100670008B8190D18A818ED189818CD117D124969A
:10068000E2E00C94BD1A8091BE029091BF02A0914D
:10069000C002B091C10220910F01281709F449C08E
:1006A0008091BE029091BF02A091C002B091C102A0
:1006B00080930F01A89580912103811102C00E94AF
:1006C000471280911103882339F0815080931103E0
:1006D000811102C00E94A3108091BD028D3748F1A4
:1006E0001092BD028091000181FF04C082B192E0AE
:1006F000892782B98091C2029091C302843823E095
:10070000920728F401969093C3028093C2028091CD
:100710000E018F5F80930E018C3359F410920E01FD
:1007200080911E038F5F80931E038C3310F0109214
:100730001E030895880F991F0197F1F7089520ED82
:1007400037E0815020F0F9013197F1F7FACF0895A1
:10075000CF93DF93DC0113968C911397843509F0C6
:1007600050C0CD010396CC91FD0170964DE04C1721
:1007700050F050E0D0E09E012F503109421753074E
:1007800009F03FC005C021912B3399F34F5FEFCFA4
:10079000FE013E97E80FF91F2081243591F514964C
:1007A0003C911497218132132CC015963C911597DA
:1007B0002281321326C016963C911697238132135C
:1007C00020C017963C911797248132131AC0619765
:1007D000C80FD91F858188838681898381858A8313
:1007E00082858B8383858C8384858D8385858E83A9
:1007F0008C918A508C9312968C9112978A501296F3
:100800008C93DF91CF910895CF93C82F80911001E1
:1008100084FF03C08C2F0E94C9158091100180FFB6
:100820000EC0809125038E3330F0803440F4CD30FB
:1008300011F0CA3021F46C2F83E293E00DD2809145
:100840001C038823C9F08091100183FF15C0CA30B2
:1008500099F0CD3011F46BE301C06C2F8CEC92E079
:10086000FBD1CD3019F48CEC92E072DF83E0809301
:10087000110382E080931703CF910895CF93DF9304
:10088000EC018991882311F0BFDFFBCFDF91CF917D
:100890000895CF93DF93EC01FE018491882319F032
:1008A000B3DF2196F9CFDF91CF9108958DE0ACDFD2
:1008B0008AE0AACFA6E0B0E0E0E6F4E00C949F1A4C
:1008C000062F1E8215E02AE030E01150E1E0F0E052
:1008D000EC0FFD1FE10FF11DB9010E947D1A805D33
:1008E0008083CB010150009769F01111EECF0AC04F
:1008F000112359F01150E1E0F0E0EC0FFD1FE10F82
:10090000F11D4083015007FFF3CF81E090E08C0F91
:100910009D1F810F911DB2DF2696E4E00C94BB1A57
:10092000A5E0B0E0E6E9F4E00C94A11A1D8224E011
:10093000382F3F702150E22FF0E03A3010F4305D54
:1009400001C0395CA1E0B0E0AC0FBD1FEA0FFB1F96
:10095000308334E0969587953A95E1F7615000979A
:1009600039F7615067FD0BC0222349F02150E1E0C7
:10097000F0E0EC0FFD1FE20FF11D4083F2CF81E0AC
:1009800090E08C0F9D1F820F911D78DF2596E2E08D
:100990000C94BD1A40E362E090E0C2CFDC01FB01A1
:1009A00030E090E08D918823A9F0813608F08052E4
:1009B00020ED280F2A3030F02FEB280F263030F4AE
:1009C00029EC280F292B332379F006C0803251F30C
:1009D0008A3341F3CF0105C0CF01019620834150F6
:1009E00041F4861B970B0895922F9295907F31E0EA
:1009F000D9CFFC01D5CF982F92959F709A3010F4E3
:100A0000905D01C0995CFB0190838F708A3010F477
:100A1000805D01C0895CFB01818308950E94D91A21
:100A2000F999FECF08950C94D11A08951F93CF938E
:100A3000DF93162F11501F3F59F0EC012196F3DF81
:100A4000A9DF112311F08AE3DFDE1150CE01F3CFCD
:100A5000DF91CF911F910895A2E0B0E0E2E3F5E0CD
:100A60000C949E1AFC0121812D3421F466E08AEF5A
:100A700097E005C0203529F460E18AED97E0D6DFE4
:100A800026C01A82198242E0BE016F5F7F4F019635
:100A900085DF098110E0823021F4102F00278A8140
:100AA000082BC801C0DFF82E82E5AEDE40E364E02B
:100AB000C80136DF84E791E0ECDE8F2D6BDF80E745
:100AC00091E0E7DE40E262E08F2D90E0F3DEEEDEC3
:100AD0002296E5E00C94BA1AA6E0B0E0E2E7F5E071
:100AE0000C949B1A6C0143E0BE016F5F7F4F01962F
:100AF00055DF823070F1E980F12C823021F0FE2C3C
:100B0000EE242A81E22A8C011127FE01E00FF11F59
:100B10006081C70183DF000F111F0F5F1F4F0C0D96
:100B20001D1D8FEFE81AF80AF8018081882389F0EB
:100B300041E0BE016F5F7F4FC80130DF892B49F074
:100B40006981C7016BDF0E5F1F4FE2E0EE0EF11C03
:100B5000EBCF2696E8E00C94B71A41E060E071E034
:100B600001961CDF8091000180FF02C0119A01C034
:100B700011986091000184E390E050CFA1E0B0E0D3
:100B8000E4ECF5E00C94A11A1982009731F041E0F1
:100B9000BE016F5F7F4F019601DF8981882321F0BD
:100BA00061E083E390E03ADF10926E00F89428E071
:100BB00088E190E00FB6F894A895809360000FBE8E
:100BC00020936000FFCFCF93DF93EC0161E080E0E2
:100BD00090E024DF6FE381E090E020DFF3DB60E072
:100BE00080E690E01BDF60E081E690E017DF60E0E8
:100BF00083E390E013DF62E084E390E00FDF60E0E6
:100C000080E690E00BDF60E081E690E007DF89811D
:100C1000883719F080E090E0B1DFDF91CF9108953F
:100C200080E090E000DF813029F481E090E0FBDE9D
:100C30008F3319F080E090E0C6DF84E390E0F3DECC
:100C400080930001089582E691E023DE2FCEFC011F
:100C50001282108211820895FC018FB7F89492815C
:100C6000903470F49F5F9283208191E0920F908383
:100C7000DF01A20FB11D13966C93903409F410821A
:100C80008FBF0895FC019FB7F8948281882371F08B
:100C900081508283818121E0280F2183DF01A80F09
:100CA000B11D13968C91203409F411829FBF0895D1
:100CB000FA013081882369F0E1E0F0E0022E01C002
:100CC000EE0F0A94EAF7DB01A30FB11D9C919E2B56
:100CD0009C93222319F08FEF820F0BC081E0830FCA
:100CE0008C3010F4FA018083FB01E80FF11D1082B3
:100CF00087E090E00895CF93C82F299A882319F0B0
:100D00008091130102C08091150120E1829FC001F2
:100D1000112410DD2998CC2319F08091120102C012
:100D20008091140120E1829FC001112403DDCF9145
:100D30000895A0E0B0E0EFE9F6E00C94911A5C01B0
:100D4000162F622EC42FD0E04091C2025091C302F0
:100D5000CE010296089F802D1124992787FD90953A
:100D60004817590720F488E791E093DD68C0481BD5
:100D7000590B5093C3024093C202119AF894809188
:100D8000BC02811101C005DCDDDB812E912CCC245D
:100D9000C394D12C712CF12C8F2D992787FD909520
:100DA0008815990524F480E0A6DFF394F5CF11238C
:100DB00011F081E0A0DFF12C4F2C552447FC50941A
:100DC0004C165D062CF097E0392E4A0C5B1C15C0C2
:100DD00087E0282E312C4A0C5B1CC601022C01C076
:100DE000880F0A94EAF7F2019081892384DFF1E009
:100DF0002F1A310890F7F394DFCF832D992787FDC1
:100E000090956816790664F4C601032C01C0880F1A
:100E10000A94EAF7F201908189236DDF3A94EDCFCD
:100E20008E2D8DDC015009F0B6CF8091C50288234C
:100E300011F09ADB02C086E325DB78941198CDB7D8
:100E4000DEB7E2E10C94AD1AADE0B0E0EAE2F7E023
:100E50000C94941A7C01162F842F022F6701C60E62
:100E6000D11C462FB70174D2D6018C931F5F1D860B
:100E700019825E2C670127E066246394712C8C2D07
:100E80008519811788F547E0A42EB12C4701880EFB
:100E9000911CF3010A2C01C0EE0F0A94EAF7D40169
:100EA0008C91AE01435F5F4FBE016F5F7F4F8E231A
:100EB000FFDE282FB1E0AB1AB10858F7D6018D91AB
:100EC0006D01082E82958025082E869586958025B1
:100ED0008F5F86958170AE01435F5F4FBE016F5F8C
:100EE0007F4FE6DE282FCBCF222311F0215004C004
:100EF0008D858F5F8D8727E089E180931401809332
:100F0000150185E280931201809313013AE0E32EEC
:100F10004D856CE0CE0101960CDF2D96EFE00C9430
:100F2000B01AADE0B0E0E7E9F7E00C94A01A162F94
:100F3000242F4BE0BE016F5F7F4F01962D872EDD82
:100F40002D85412F682FCE0101967EDF2D96E3E09F
:100F50000C94BC1A43E066E0E4CFEF920F93CF937A
:100F6000DF93CDB7DEB760970FB6F894DEBF0FBE44
:100F7000CDBF40E1BE016F5F7F4F01960FDD6981FC
:100F80004A810B818C81809315018D81809314019E
:100F90008E81809313018F8180931201E02EE29461
:100FA0007FE0E7220F70242F2F7042954F70CE0103
:100FB0000896BFDE60960FB6F894DEBF0FBECDBFB9
:100FC000DF91CF910F91EF900895A9E1B0E0EBEEA2
:100FD000F7E00C94991A4BE0BE016F5F7F4F0196CA
:100FE000DDDC182F893009F05AC099E19093140183
:100FF000909315019093130182E38093120169E0AD
:10100000CE010196AFD1E1E0F0E0EC0FFD1FE10F62
:10101000F11D8083198E1D86CE0101967C016E0123
:101020009BE0C90ED11C27E0AA24A394B12CEC1498
:10103000FD0429F100E010E0F501002E01C0EE0FE3
:101040000A94EAF7D7018C91AE01475E5F4FBE016B
:10105000635F7F4F8E232CDE282F0F5F1F4F0830DA
:10106000110551F7AE01475E5F4FBE01635F7F4FD1
:1010700081E01EDE282FBFEFEB1AFB0AD8CF222318
:1010800011F0215004C0898D8F5F898F27E0EAE03D
:10109000EE2E03E0498D6CE0CE010D964ADE699696
:1010A000EAE00C94B51A8F929F92AF92BF92DF92B2
:1010B000EF92FF920F931F93CF93DF93109229012A
:1010C00010923601FC012181220F220F220F338161
:1010D000231B57E0520F10922A0110E070E038E015
:1010E000D32ED20EFF24F39447E007E0E12CC7E0B3
:1010F000D0E0A1E0B0E0FD1409F47FC0FC01EE0DEA
:10110000F11D248130E0002E02C0359527950A9408
:10111000E2F721703327E22F002311F0015002C0C3
:10112000E39407E06B3471F4433009F04AC01111C5
:1011300007C0E1115FC0109229017093360174C09D
:1011400010E041C04F3F31F56634A9F4E72FF0E0DD
:10115000E65DFE4FE0810E2EE295E0250E2EE6952F
:10116000E695E025EF5FE1FB882480F8912C82165C
:10117000930641F004C0653429F4E11103C01093D3
:101180002901DBCF7F5FE72FF0E0E65DFE4F1082A5
:1011900047E031C0EE2361F1663471F4E72FF0E0EF
:1011A000E65DFE4FA0809D01042E01C0220F0A942F
:1011B000EAF7A22AA0821CC0653439F06B34C1F46E
:1011C00004C04F3FD1F2EE2399F0E72FF0E0E65D47
:1011D000FE4F9E01241B310947FD33955D0102C07E
:1011E000AA0CBB1C2A95E2F795013081322B308383
:1011F000415001C011E0F3947ECF10932901709308
:1012000036015F1588F4653431F44F3F21F47F5F78
:101210007093360104C0809129018111F8CF81E0DB
:1012200090913601911101C080E0DF91CF911F9123
:101230000F91FF90EF90DF90BF90AF909F908F90B5
:10124000089510926F00E091390184E1E89FF00168
:101250001124E65CFE4F10820895FC0121812C30A0
:1012600008F0EFCF3381662381F081E090E0032E18
:1012700001C0880F0A94EAF7DF01A20FB11D14968E
:101280009C911497982B14969C93332319F031500A
:101290003383089587E083832F5F2183E20FF11D5D
:1012A00014820895DC011196EC911197F0E050E062
:1012B0002C91CF01841B950B0B964797A0F430E03F
:1012C00070E0C901861B970B0B96479760F42E0FB1
:1012D0003F1F640F751F261B370B255F3F4F81E0B3
:1012E0002731310508F080E00895219A2998529815
:1012F000E9E6F0E080818160808382EC91E0909368
:10130000C3028093C20210924E01109262011092A9
:1013100076011092BC0208958091C502882311F0D5
:1013200038D922C931C9FC01218121110BC080911A
:10133000C50230DB40E265E08091C2029091C302B9
:10134000B9DAB4CA41E065EC72E0019627DBE4CF7C
:10135000442339F04150FB01E40FF11D9081890FC6
:10136000F7CF089520E0662339F06150FC01E60FC5
:10137000F11D30812327F7CF822F0895A0912901F5
:1013800040E035E020E0662399F06150FC01E60F73
:10139000F11D5081752F72957F702727370FAA2373
:1013A00011F0442319F05F702527350F4F5FEBCF05
:1013B000320F40E1349FC0011124822B0895FC01BB
:1013C00032812381A081B181A30FB11D8C9190E066
:1013D000022E02C0959587950A94E2F781709927AD
:1013E0004FEF420F4383211104C03F5F328327E058
:1013F00023830895A2E0B0E0E0E0FAE00C94991AAB
:101400007C01A12CB12CD12CCC24C394062F10E04C
:1014100001501109A616F0F4C7014A836983CFDF92
:101420004A816981882391F0442349F098012A195F
:101430003B098C2D01C0880F2A95EAF706C08C2D38
:101440000A2C01C0880F0A94EAF7D82A8FEFA81A4D
:10145000B80AE0CF8D2D2296EAE00C94B51AA4E0EC
:10146000B0E0E5E3FAE00C94981A1B8227E02C83A5
:101470009C012C5F3F4F3A83298310923601FC0177
:101480002181338187E090E0831B9109F8E02F9F51
:10149000800D911D1124853491050CF44EC0B12CA2
:1014A000A0903601F5E0FA1558F10A2D10E040E061
:1014B00068E0CE0101969EDF065D1E4FF801808335
:1014C000982E092C92949024092C9694969490240A
:1014D000CE01019674DF939491FACC24C0F8D12CFC
:1014E00090E0C816D90649F5CE01019668DF811152
:1014F00024C0F8018081B826A394A0923601D0CFF1
:1015000040E068E0CE01019675DF082F182F012E0C
:1015100012951025012E169516951025CE010196CF
:101520004EDF1F5F11FBEE24E0F8F12C282F30E096
:10153000E216F30611F481E0B01280E02496EBE0AD
:101540000C94B41A8091C40280FD03C0846080931F
:10155000C4020895A1E0B0E0E0EBFAE00C949D1A1B
:10156000198280911601882391F18091C50287FF2D
:1015700016C084E30E9405028058803458F0803CF5
:1015800058F490E08055910943E0959587954A95E8
:10159000E1F703C080E001C08FE08F5935D9809119
:1015A000C50283FF12C082E72FD98091C50284FF54
:1015B00003C08091170128D986E626D98091C502FB
:1015C00084FF03C0809116011FD9109216018091EB
:1015D0003701882309F4F0C1119A0091380124E100
:1015E000029F80011124065C1E4F8981811139C040
:1015F00066E4C80158DD8823A1F1F0903601FA9421
:10160000F09236014F2D6AE271E086E0A1DEEF2D07
:10161000F0E0E65DFE4FE0808E1105C093E09F157F
:1016200010F486E41BC0282F30E02F5F3F4F6E2D53
:1016300070E02617370739F423E02F1520F496E4DD
:10164000998380830EC04F2D6AE271E08CE080DECA
:101650008E1106C083E08F1518F484E5898301C0DC
:1016600019828981811116C065E4C8011CDD8823B7
:1016700089F080913601815080933601893051F490
:1016800069E08AE291E06EDE90913301891302C035
:1016900085E489838981811106C0C801E0DE882341
:1016A00011F088E489838981811133C0F80143896D
:1016B00060911701C8014296F5DD682FC801CDDDA4
:1016C0006BE4C801F0DC8823B1F0F0903601FA94A5
:1016D000F09236016F2D8AE291E050DEEF2DF0E0BE
:1016E00090912901E91BF109E65DFE4F9081891374
:1016F00002C08BE48983898181110BC0F801838149
:1017000091E0980F9383873021F413828181815077
:1017100081833981332309F4C6C02091C50220FF9B
:10172000C2C08091C4028E7F8B7F8093C40221FD52
:1017300064C050912801F09036015F113DC040E037
:101740004517C0F4842F90E061E0640FFC01E45E73
:10175000FE4FDC01A65DBE4F70818C91781741F081
:10176000409328018091C4028D7F8093C40204C0FD
:10177000462FE6CF4093280145131EC04091BE027C
:101780005091BF026091C0027091C1028091180116
:1017900090911901A0911A01B0911B01481B590B9E
:1017A0006A0B7B0B463251056105710528F4809167
:1017B000C40281608093C40240E04F1560F4842F1E
:1017C00090E0FC01E45EFE4FDC01A65DBE4F8C9113
:1017D00080834F5FF2CF409328018091BE029091A9
:1017E000BF02A091C002B091C102809318019093F2
:1017F0001901A0931A01B0931B013435E9F426FDB9
:101800001BC0809136018530B8F080912C018B345B
:1018100071F0893661F09DEA980F923040F08D5753
:10182000823028F080912D018077803729F48091D3
:10183000C40281608093C402B801CE01019682DEA9
:101840008091C40282FF2FC089810E94040480918C
:101850002901882329F08091360181508093360137
:10186000F12CE0913601FE1640F4EF2DF0E0E65D3C
:10187000FE4F80818FD8F394F4CF80912901882383
:1018800049F0F0E0E65DFE4F80818F7040E361E05B
:1018900090E046D88091C50285FF04C084E30E9491
:1018A000050278D803D88091C50282FF6DC080E719
:1018B0000E940404F801808140E262E090E00E940E
:1018C0005A04F801808940E265E0F0E18F9FC00191
:1018D00011240E945A04F801818940E265E0F0E198
:1018E0008F9FC00111240E945A04F801828940E2AE
:1018F00065E0F0E18F9FC00111240E945A04F801B5
:10190000838940E265E0F0E18F9FC00111240E94CD
:101910005A04F801828140E263E090E00E945A0498
:10192000F801818140E263E090E00E945A04F801EE
:10193000238140E262E087E090E0821B91090E94EF
:101940005A0480E20E9404048091C50285FF07C00A
:1019500084E30E9405021ED880E20E940404F8017C
:101960008381873019F081818F5F8183F12CF801A9
:101970008181F81638F4F801EF0DF11D84810AD841
:10198000F394F5CF0E945604F8011082809137013C
:10199000815080933701809138018F5F843019F036
:1019A0008093380102C010923801119889818435E2
:1019B00019F48AE291E07AD52196E6E00C94B91AFE
:1019C0001F920F920FB60F9211242F933F934F93B4
:1019D0005F936F937F938F939F93AF93BF93EF9397
:1019E000FF9310926F008091C50283FF03C08EE2C7
:1019F0000E9404048091390194E1899FF00111242F
:101A0000E65CFE4F9081933018F09181923010F493
:101A100018DC18C090913701933049F48091C502C9
:101A200082FFF6CF8FE791E00E944904F1CF9F5FDC
:101A3000909337018F5F843019F08093390102C091
:101A400010923901FF91EF91BF91AF919F918F91CA
:101A50007F916F915F914F913F912F910F900FBEAA
:101A60000F901F9018959BED980F973150F496EFBB
:101A7000960F9D3130F491E0681708F090E0892FBF
:101A8000089580E008951F920F920FB60F921124CF
:101A9000FF920F931F932F933F934F935F936F93F7
:101AA0007F938F939F93AF93BF93CF93DF93EF93E6
:101AB000FF9380912203882321F082E08093220308
:101AC00007C180911203823021F483E080931203D6
:101AD000FFC00091840010918500B4E01695079531
:101AE000BA95E1F7C091390184E1C89FE001112462
:101AF000C65CDE4F8881843031F40E3208F4E8C0D1
:101B00000F3408F086C04A990CC0843039F461E083
:101B1000CE01A3DB10928500109284000093170180
:101B2000D7C080911701081B009316011092850001
:101B3000109284008881843021F460E0CE018DDB36
:101B4000C7C082E086BBF88000911701F1100FC07A
:101B5000053608F0BDC080911601853608F0B8C082
:101B6000088B898B81E08A8382E08883B1C01091E1
:101B7000160182E0412F602FF8125BC0CE01409623
:101B800091DB6A818823F9F0488950E09A01220F9D
:101B9000331F240F351F200F311D3595279535959F
:101BA0002795288B298930E0C901880F991F820F5A
:101BB000931F810F911D9595879595958795898B95
:101BC0006F5F6A8385C0643090F180EA9FE09093F4
:101BD0008900809388008A818C3050F08889298917
:101BE00030E0280F311D2536310514F084E014C093
:101BF0008091CB02882379F0612F802F34DF8823F6
:101C000051F0688989892FDF882329F081E080934A
:101C1000120317DB5DC083E088830A8B1B8B19825C
:101C200087E08B831C8282E080936F0051C0188212
:101C30008FCFCE01429636DB882301F161E0CE01E1
:101C40000CDB4A8950E09A01220F331F240F351F05
:101C5000200F311D35952795359527952A8B2B8992
:101C600030E0C901880F991F820F931F810F911DCA
:101C700095958795959587958B8B2AC0412F602FD9
:101C8000CE0140960FDB882301F160E0CE01E5DA5A
:101C9000488950E09A01220F331F240F351F200F6F
:101CA000311D3595279535952795288B298930E065
:101CB000C901880F991F820F931F810F911D959560
:101CC000879595958795898B03C087E0F812A1CFFA
:101CD000FF91EF91DF91CF91BF91AF919F918F9144
:101CE0007F916F915F914F913F912F911F910F9134
:101CF000FF900F900FBE0F901F901895E091390143
:101D000084E1E89FF0011124E65CFE4F808181119F
:101D100007C081E0909121039F3F19F480E008956E
:101D200081E0089580E690E00E9413058093CB0245
:101D300081E690E00E94130580931C03882321F024
:101D400081E28093C502E8CA0895299A0C949A0307
:101D500029980C949A03A7E0B0E0E1EBFEE00C9424
:101D60009C1A9091D402943559F420911503309126
:101D700016032F5F3F4F30931603209315033EC089
:101D8000963459F420911303309114032F5F3F4F81
:101D9000309314032093130331C0953459F42091E8
:101DA000C8023091C9022F5F3F4F3093C902209380
:101DB000C80224C09B3459F42091180330911903B0
:101DC0002F5F3F4F309319032093180317C09834A7
:101DD00059F420911A0330911B032F5F3F4F30932A
:101DE0001B0320931A030AC02091C6023091C70238
:101DF0002F5F3F4F3093C7022093C60295E7998328
:101E0000882399F0BE016E5F7F4F80911C030E9472
:101E1000FB04BE016C5F7F4F8091CB020E94FB04EC
:101E200085E58E8386E0D82E02C0DD24D3940E94FF
:101E3000C9020E94A20216E080E891E086DF80E0FD
:101E400093E086DF1150C1F780E093E07EDF80E809
:101E500091E07EDF80E891E078DF299887E390E0E9
:101E60000E94460283E00E949F032C988FE70E9405
:101E7000AB018091CE028D0D0E94AB01CE01019687
:101E80007C018C01F80181918F010E94AB01802FB0
:101E90008E198D15B8F38091CE02882339F08CEC21
:101EA00092E00E9442060E94AB01F5CF2C9A0E945C
:101EB000A2028CEC92E00E94270615E18AE30E94C0
:101EC00005028F7731F0115021F081E00E949F03CD
:101ED000F5CF22DA2796E7E00C94B81ACF93DF9378
:101EE000EC018981811107C08091CB020E94CA0454
:101EF00080911C0313C08436A1F48091BE0290919E
:101F0000BF02A091C002B091C10240E364E00E9410
:101F100090048EE20E940404809111030E94CA047E
:101F20004DC0833709F04DC040E361E08091150357
:101F3000909116030E9490048EE20E94040440E3F4
:101F400061E080911303909114030E9490048EE24B
:101F50000E94040440E361E08091C8029091C902AC
:101F60000E9490048EE20E94040440E361E08091AC
:101F70001803909119030E9490048EE20E940404B9
:101F800040E361E080911A0390911B030E9490044A
:101F90008EE20E94040440E361E08091C6029091C9
:101FA000C7020E9490048EE20E94040440E361E0B4
:101FB00080910F03909110030E9490040E94560498
:101FC0002CC08936D9F441E06BEC72E0CE01029668
:101FD0000E94CE046091CB0280E690E00E940E0544
:101FE00041E06CE173E0CE0104960E94CE04609162
:101FF0001C0381E690E00E940E050FC08CEC92E07D
:102000000E94270621966991662329F08CEC92E0C4
:102010000E942C06F8CF80E09EDEDF91CF910895DC
:10202000A1E0B0E0E6E1F0E10C949B1A809112038C
:10203000882309F484C0C090BE02D090BF02E09013
:10204000C002F090C102833009F060C08FE30E94AB
:102050000502182F8630C8F086E693E00E94270616
:102060002C988FEF0E94AB0180E00E94AB01082FFB
:10207000115049F080E00E94AB01682F86E693E0A2
:102080000E942C06F5CF2C9A01C000E045D9109291
:102090001203053709F053C041E0BE016F5F7F4F67
:1020A00089E693E00E94CE04019759F599818091C9
:1020B000CB02981326C080916D03853571F4809111
:1020C0006803882339F086E693E00E9442060E9466
:1020D0000404F5CF0E94560432C0809168038450F6
:1020E0008093680384E0809367036AE086E693E068
:1020F0000E942C06E091BA02F091BB0288E009959B
:102100001EC086E693E00E94270619C0823051F473
:102110008091CA029C2D981B983088F0FDD81092AF
:1021200012030DC0813059F487E390E00E9446020B
:102130000E94B40282E080931203C092CA022196E8
:10214000E8E00C94B71ADADD882361F083E080932D
:10215000170380910F039091100301969093100341
:1021600080930F0380911703815080931703882376
:1021700021F083E080931103089581E0ECCD10926B
:102180001F031092400283E080938A018FEF8093B7
:1021900021030895EBE8F1E02081211105C0892B8E
:1021A000B1F080E090E00895B2E0E933FB07B8F7C2
:1021B000009751F04181DC013C91431305C04281FD
:1021C00011963C91431751F0E20FF11DE5CF32E03B
:1021D000E933F30719F010F0E9E3F2E0CF010895D5
:1021E0008AE392E0D7DF009799F020918A01FC0101
:1021F0003081231768F4E20FF11D808180933C0247
:1022000089E780933D02818180933E0281E00895B9
:1022100080E00895EF92FF921F93CF93DF931F9278
:10222000CDB7DEB7182F8091C50286FF18C084E5B0
:1022300099830E940404E12E9981F92E15E0F7019B
:1022400081917F010E94CA041150C9F78091C50293
:1022500085FF03C08AEF0E94CA040E9456040F90B3
:10226000DF91CF911F91FF90EF90089586E30E9438
:10227000420280913C02833511F48BE901C08BE46A
:102280000E949F0321E04CE065E08AE392E00E9417
:1022900024070E94B4028AE392E0BCCFE7DF80917A
:1022A0003C02893631F081E08093390289E28093E3
:1022B0002103089585E390E00E94130580931D0398
:1022C00086E390E00E9413058093200358DF10926C
:1022D0008B010895A7E0B0E0E0E7F1E10C949A1AD1
:1022E0006C018C010F5F1F4F45E0BE016F5F7F4F98
:1022F000C8010E94CE04843008F07BC099819130DF
:10230000A9F4833061F46A8185E390E00E940E05B0
:102310006B8186E390E00E940E05CCDFB4C0809113
:102320001D030E94CA04809120035EC0923009F010
:1023300051C0813039F081E09A81913009F080E01C
:10234000F82E02C0FF24F39480918B01811104C008
:1023500086E891E00E9449040BE811E0F8018081D1
:10236000882309F443C0F2E009331F0708F03EC098
:1023700081E00B38180719F080E20E940404F8018C
:1023800081810E94CA04F80182810E94CA04FF2050
:10239000E1F08AE30E94040493E0F8018081981739
:1023A000A0F4943038F090FF05C08CE29F830E9427
:1023B00004049F81EE24E394E90EF801E90FF11D76
:1023C00080810E94CA049E2DE8CFF8018081080F09
:1023D000111DC4CF933051F480E090E0DBDE8B58C8
:1023E00091409EEA981B892F0E94CA040E945604BD
:1023F0004AC080E090E0CEDE7C01F8010190002030
:10240000E9F73197E01BF10BF695E795BB24B39400
:10241000BE0E97012B0D311D2B5831402F3A31053F
:1024200074F5F701B1928F0121E0822F880F81505E
:102430002B15D8F441E0B801F601E80FF11DCF01EA
:102440002F830E94CE042F81233058F020FD09C035
:10245000D80111978C91843621F4F8018081809302
:102460001E032F5F0F5F1F4FE0CFF9E3EF16F2E07F
:10247000FF0648F4F701E20FF11D108204C08AE85C
:1024800091E00E9449042796E9E00C94B61A8091E5
:102490003902882351F0EADE89E28093210380919A
:1024A0003902815080933902089569CEFF920F93CB
:1024B0001F93CF93DF93FC01F0800181C281D38110
:1024C00014818FE5809321031092390280911D03BE
:1024D000811105C080912003882309F4A9C080914F
:1024E0003A028F1104C080913B02801729F047DE29
:1024F000F0923A0200933B0280911F038F3F09F450
:1025000097C0C0933C02D0933D0210933E02CC236F
:10251000F1F081111CC080911D03181761F0143671
:1025200051F08DEA8C0F823010F0CD3739F48FEFF7
:1025300080931F037DC0C43509F47AC08D2F807F3E
:10254000803609F075C0D067D0933D0257C048DE91
:10255000811105C080911F03882309F469C080910F
:102560004002811107C0E0911F03F0E0E057FE4FE9
:10257000E49101C0E82FE33541F4C43531F4909182
:102580001F039E5F90931F0304C0EC1711F0F7DD4B
:102590004FC0882369F080918A018E5F80938A0101
:1025A0001FDE81110EC080911F038E5F80931F0379
:1025B00080911F03E82FF0E0EF56FE4F14911F3F6C
:1025C00059F480913C02809340028436B9F48091A2
:1025D0001E0380933E0212C010933C0297E7909333
:1025E0003D0290911D0390933E028E5F80931F03E6
:1025F000109240028E3021F01123D1F04FDE18C02E
:102600008AE392E0C7DDDC01009781F02C9130E095
:1026100089E392E0821B930BA817B90730F4ED0110
:10262000C20FD31F48814D93F7CF1C92A8DDE4CF92
:10263000CDB7DEB7E5E09EC7FF920F931F93CF9310
:10264000DF938C01EC0109900020E9F72197C81B6A
:10265000D90BFC018181823751F487E390E00E941D
:1026600046020E94B40281E08093220327C0833790
:1026700019F5FC2E2C988FE70E94AB018C2F82500D
:102680000E94AB01E801229612E01F1528F48991FF
:102690000E94AB011F5FF9CF2C9A0E94A2028AE32D
:1026A0000E9405028F7729F084E690E00E949A0349
:1026B000F6CF0E94B40202C010922203CDB7DEB75B
:1026C000E5E058C7A0E4B0E0E7E6F3E134C7809165
:1026D0002203882309F455C0813011F58091BE0290
:1026E0009091BF02A091C002B091C102209141021D
:1026F000281709F446C085E30E940502813129F4B8
:102700008AE30E9442020E94B4028091BE0290912C
:10271000BF02A091C002B091C1028093410231C0BA
:102720008FE30E940502D82E8FE38D1538F12C9887
:102730008FEF0E94AB018E010F5F1F4F7801C02EFB
:102740008E2D801B8D1538F480E00E94AB01F701BF
:1027500081937F01F5CF2C9A81E080931001802F27
:102760008C198D1530F4F80181918F010E940404B9
:10277000F6CF0E9456048FEF8093100181E0809382
:102780002203C05CDF4FE8E0F2C62091A90330913C
:10279000AA032115310521F4209108013091090186
:1027A0008091060190910701009741F48DB79EB783
:1027B00040910A0150910B01841B950B2817390792
:1027C00018F4821B930B089580E090E0089582E452
:1027D0000E94040440E265E08091A9039091AA035D
:1027E0000E945A040E94560483E50E94040440E2B9
:1027F00065E080910801909109010E945A040E94AD
:10280000560485E40E94040440E265E080910601DC
:10281000909107010E945A040E94560486E40E9487
:102820000404B3DF40E265E00E945A040C945604AD
:102830001F920F920FB60F9211242F933F934F9335
:102840005F936F937F938F939F93AF93BF93EF9318
:10285000FF9380912503882339F083E293E00E945F
:1028600042068093C60005C08091C1008F7D809391
:10287000C100FF91EF91BF91AF919F918F917F9197
:102880006F915F914F913F912F910F900FBE0F90DD
:102890001F9018951F920F920FB60F9211242F932D
:1028A0003F934F935F936F937F938F939F93AF93D8
:1028B000BF93EF93FF9382B192E0892782B9609131
:1028C000C6008091C000887121F486E693E00E94E2
:1028D0002C06FF91EF91BF91AF919F918F917F91C6
:1028E0006F915F914F913F912F910F900FBE0F907D
:1028F0001F90189597FF04C022E02093C0009F7797
:102900009093C5008093C40088E98093C10086E05D
:102910008093C20008958091C10085FD09C0809117
:102920002503882329F08091C10080628093C10033
:102930000895E091BA02F091BB0281E00995EBCFD6
:102940000F931F93CF93DF93EC0110E0212F30E022
:10295000F901EE0FFF1FE20FF31FE458FF4F049140
:10296000F901EE0FFF1FE20FF31FE358FF4F259110
:102970003491002399F0209739F480E20E940404F6
:10298000802F0E94040408C08881801305C0CE01F6
:10299000F901099581E003C01F5FD8CF80E0DF9186
:1029A000CF911F910F910895CF93C0911001809303
:1029B0001001809168038823A1F186E693E00E94CC
:1029C0004206E09142028A3011F08D30F9F4EE2394
:1029D00081F3F0E0ED5BFD4F108283E492E0B0DF25
:1029E000811111C086EB91E00E94490483E492E0DA
:1029F0000E943E048EE991E00E94490480E090E04C
:102A00009FDF0E94560410924202D3CFE03488F632
:102A100091E09E0F90934202F0E0ED5BFD4F8083CA
:102A2000C8CFC0931001CF9108951498E8D0149A9C
:102A300082E00C949F03149AE2D0149882E390E011
:102A40000C949A03CF93DF931598EC018991882316
:102A500011F0F1DFFBCF159ADF91CF910895CF935D
:102A6000DF93EC011598FE018491882319F0E3DFD0
:102A70002196F9CF159ADF91CF9108951598D5DF5A
:102A8000159A089581E0FACF8058F8CFCF93C82FD8
:102A9000159889E3CADF8C2F8F708067C6DF88E3C3
:102AA000C4DF159ACF9108950C9A149A0D9A15982F
:102AB00089E3BBDF85E1B9DF85E5B7DF8EE6B5DF0A
:102AC00081E7B3DF88E3B1DF8FE0AFDF86E0ADDF22
:102AD000159AD8DF8AEE91E0C2DF83EE91E0BFDF86
:102AE00080EE91E0BCDF8BED91E0B9DF88ED91E005
:102AF000B6DF80E9C3DF8AEC91E0B1DF80EABEDFB8
:102B00008AEB91E0ACDF109284020895A1E0B0E07E
:102B1000EBE8F5E114C58C01FC018181823661F19D
:102B200068F4833499F542E0BE016F5F7F4FC801BE
:102B300002960E94CE048981A1DF28C0833619F055
:102B4000843719F023C09EDF21C042E0BE016F5FD1
:102B50007F4FC80102960E94CE048981803308F01D
:102B60008FE2898391DF8981F801E81BF10914AABA
:102B7000C801049667DF0AC042E0BE016F5F7F4F65
:102B8000C80102960E94CE04898180DF2196E4E08C
:102B9000F2C4CF93C82F8A3081F4159880918402B3
:102BA00091E0980F90938402803118F480E243DF23
:102BB000F5CF159A1092840213C08D3089F0809160
:102BC0008402803168F4811102C080EA57DF1598D1
:102BD0008C2F31DF809184028F5F80938402159A5D
:102BE000CF910895E4E6F0E080818B7F80832F9A77
:102BF00084B1806B84B9269881E58CBD08958EBD23
:102C00000DB407FEFDCF8EB508950ED1109285024A
:102C10000895A6E0B0E0EEE0F6E193C4809185026D
:102C2000882359F1CE01019602D1882331F1809198
:102C30008502823019F48E8180FD1FC0119A89E4CB
:102C40000E940404898140E362E090E00E949004C5
:102C500040E364E08A819B810E94900440E364E049
:102C60008C819D810E9490048E8140E362E090E01F
:102C70000E9490040E94560411982696E2E07DC4BA
:102C800080918502811159C10895FC01218122376B
:102C9000A9F42281222349F02381222331F042E04A
:102CA00065E872E002960E94CE048091850240E3BE
:102CB00062E090E00E9490040C94560408956091A4
:102CC000B7027091AF029091A602671730F1209180
:102CD000B002621710F5E091B502482F50E0209144
:102CE0009B0230919C02EE2379F0E62FE71B0E2E1B
:102CF00002C0440F551F0A94E2F7422B532B509306
:102D00009C0240939B0267C0220F331F242B352B5C
:102D100030939C0220939B025EC07091B1026717B2
:102D200030F12091B202621710F5E091B502482F00
:102D300050E02091990230919A02EE2379F0E62F2B
:102D4000E71B0E2E02C0440F551F0A94E2F7422BD8
:102D5000532B50939A02409399023DC0220F331F88
:102D6000242B352B30939A022093990234C0933050
:102D7000C1F49FEE960F943008F052C090E02FEE11
:102D8000260F02C0880F991F2A95E2F7209197021B
:102D900030919802282B392B309398022093970278
:102DA0003FC09530C1F49CEE960F9430B0F4482F9C
:102DB00050E098EF960F02C0440F551F9A95E2F726
:102DC0002091990230919A02242B352B30939A024C
:102DD0002093990202C0953019F5603308F5E62F6B
:102DE000E695E695E695262F2770F0E0EF56FD4F25
:102DF000882359F081E090E0022E01C0880F0A94E8
:102E0000EAF79081982B90830BC081E090E0022E2E
:102E100001C0880F0A94EAF7809590818923808306
:102E20006F5F6093B702089512980A980895FC01A5
:102E30008091A502882309F460C08091A4028230A9
:102E400051F1833009F05BC08091A0029091A10202
:102E50002091A0023091A102892F992720953095C9
:102E600033278217930709F044C08091A002909104
:102E7000A10299279093A1028093A0022091A00221
:102E80003091A10280919E0290919F02982F8827F5
:102E9000822B932B29C08091A0029091A1022091B6
:102EA000A0023091A102892F9927209530953327D0
:102EB00082179307A1F08091A2029091A3028E3E07
:102EC0009748B9F48BE08093A4028091A00290917E
:102ED000A102892F99279093A3028093A202809147
:102EE000A0029091A10299279093A1028093A00241
:102EF00006C080E01092A502089580E008958091B8
:102F0000A40280838091A2029091A3029283818384
:102F10008091A0029091A1029483838380919D026D
:102F200085831092A1021092A0021092A302109227
:102F3000A20210929D0281E0DDCF80B19091A502A6
:102F400091116AC2847090919002911132C0909157
:102F50008F02811104C09F5F90938F025DC29923FD
:102F6000C9F081E08093900280938E0210928D02CE
:102F700010929A021092990210929C0210929B0257
:102F80008FEF8093B70281E090E090938C02809362
:102F90008B0242C28091890290918A028F3F2FEF6B
:102FA000920709F439C2019690938A0280938902AC
:102FB00033C290918E02992309F49DC0882371F049
:102FC00080918B0290918C02019690938C02809359
:102FD0008B028330914008F40FC1F4C040918F02FE
:102FE0008FED840F8A3040F480918B0290918C0297
:102FF0000797059708F447C08DEA840F843768F473
:1030000080918B0290918C029C01295231092B33C3
:103010003105E0F144974F97E0F182EC840F813164
:1030200038F480918B0290918C02CE974197A0F159
:1030300085ED840F883138F480918B0290918C0259
:103040008B97489760F181ED840F8D3038F4809133
:103050008B0290918C024797089720F1435044309F
:1030600068F480918B0290918C029C012851310967
:1030700029303105D0F009970697B8F010929002E8
:1030800060E070E014C063E572E011C062E472E0D9
:103090000EC061E372E00BC060E272E008C06FE056
:1030A00072E005C06EEF71E002C06DEE71E08091DC
:1030B0009002882329F041E150E086EA92E068D24C
:1030C0001092B7028091A602883059F480918B0249
:1030D00090918C024897099710F481E001C080E03C
:1030E000EEDD81E080938F0210928C0210928B02B1
:1030F00010928E0281C090918D02992309F46BC0C9
:10310000882309F48CC14091B7025091B302451352
:1031100013C08091B402813079F480918F02909134
:10312000AB02891708F44EC09091AC02981708F4CE
:1031300049C01092B40260C080918B0290918C02C1
:10314000019690938C0280938B022091A6022130ED
:1031500031F58C30910508F44FC04B3000F181E01F
:10316000840F8093B302842F90E00B97382F22278F
:1031700080919B0290919C02822B932B90939C02B6
:1031800080939B028091B102840F8F5F8093B20283
:103190008AE090E090938C0280938B0240C1833050
:1031A000914050F1242F30E0852F90E001972817AF
:1031B000390741F48091B402811104C04F5F4093FC
:1031C000B7021AC01092900210928F0210928C02D5
:1031D00010928B0211C0811106C080918F028F5F07
:1031E00080938F0209C081E080938D0281E090E09E
:1031F00090938C0280938B0280919002882309F433
:103200000BC16091B7028091B302681305C1809130
:10321000B402811101C12091040130910501409156
:10322000990250919A022417350769F48091890216
:1032300090918A02823E944030F4809188028F5FA0
:103240008093880202C010928802E091A602E130C9
:1032500051F4809188028150823090F410928A0259
:10326000109289029FC0E53029F480918802813054
:1032700039F4F4CFEA3021F48091880280FDEECF5A
:1032800081E08093A502E83029F5CA0180959095E8
:10329000937060918602709187028617970799F460
:1032A00090939A0280939902E093A40240919B022A
:1032B00050919C025093A3024093A2029093A102CA
:1032C0008093A0026FC01092A50250938702409392
:1032D000860268C0E230F9F4611144C0809189022D
:1032E00090918A0283359740D8F5809102019091A0
:1032F000030190939C0280939B0230939A02209347
:10330000990280919D02816080939D0210928A02B1
:103310001092890227C0E53029F5909191028091A1
:10332000920260919302492F42954F709F704927F6
:10333000982F9F70492782958F70482750E0862FDD
:103340008F7090E04817590711F01092A5028091F4
:10335000940286279091950289279091960289136D
:103360001092A502E093A40280919B0290919C028E
:103370009093A3028093A202E23021F49093030180
:10338000809302018091990290919A029093A102F8
:103390008093A002809197029091980290939F024F
:1033A00080939E028091A502882351F18091990219
:1033B00090919A0240919B0250919C0228173907E4
:1033C00099F420910201309103012417350761F42B
:1033D0002091890230918A022832394028F42091C4
:1033E0009D02216020939D025093030140930201AE
:1033F000909305018093040110928A021092890231
:103400001092900210929A021092990210928F02DA
:1034100010928C0210928B028091A50208958091E7
:10342000A60240918F02833049F55091B702503186
:1034300029F54550483050F580918B0290918C02CF
:103440009C012E5331092131310550F410928D0227
:10345000109298021092970281E18093B7024BC0BC
:103460002AE02093A6025093B10220E22093B202F8
:103470002093B3020F974097D0F523C08091A70205
:10348000481758F48091AB024817E8F41092900264
:1034900010928C0210928B022EC08091A802841789
:1034A00088F380918B0290918C022091A90230E0E8
:1034B0008217930738F32091AA0230E028173907C2
:1034C00008F381E015C08091AC028417F8F2809176
:1034D0008B0290918C022091AD0230E0821793070D
:1034E000A8F22091AE0230E02817390778F280E088
:1034F000E6DB10928D0281E073CEAA1BBB1B51E16B
:1035000007C0AA1FBB1FA617B70710F0A61BB70B53
:10351000881F991F5A95A9F780959095BC01CD01F8
:1035200008952F923F924F925F926F927F928F9267
:103530009F92AF92BF92CF92DF92EF92FF920F9342
:103540001F93CF93DF93CDB7DEB7CA1BDB0B0FB64C
:10355000F894DEBF0FBECDBF09942A883988488809
:103560005F846E847D848C849B84AA84B984C8849F
:10357000DF80EE80FD800C811B81AA81B981CE0F96
:10358000D11D0FB6F894DEBF0FBECDBFED0108957B
:10359000FB01DC0102C005900D9241505040D8F76C
:1035A0000895F999FECF92BD81BDF89A992780B50B
:1035B0000895262FF999FECF1FBA92BD81BD20BD77
:1035C0000FB6F894FA9AF99A0FBE01960895F894F6
:0235D000FFCF2B
:0C35D2000201FFFFFFFF0000AD0320001E
:00000001FF
