:10000000A0C10000C4C10000C2C100000C944E1386
:10001000BEC10000BCC10000BAC10000B8C10000F0
:10002000B6C10000B4C100000C94F136B0C10000AC
:10003000AEC10000ACC10000AAC10000A8C1000010
:10004000A6C100000C94E712A2C10000A0C10000EC
:100050009EC1000080C400009AC1000098C1000049
:1000600096C1000094C1000092C1000090C1000040
:100070008EC100008CC100008AC1000088C1000050
:1000800086C1000084C1000082C1000080C1000060
:100090007EC100007CC10000342A3A2C4E2A4E2B2F
:1000A000752B952B9F2B422BC433F6330B35F63330
:1000B0000B353E3466340B35B334DB344DE1096D1A
:1000C000BC09422B0943C10245D620460D0C4D48C0
:1000D0000C47100C52D00754D817574A08569609A7
:1000E00058180E63BE3265540966C51B6C1A097137
:1000F000D021742B05751C1D78530341AB160000ED
:10010000002A03430055004E0000001603620075EC
:1001100000730077006100720065002E00640065C6
:100120000000000403090409024300020100807D6D
:100130000904000001020201000524000110052449
:1001400001030104240206052406000107058203B9
:100150000800FF09040100020A000000070504026C
:100160004000000705830240000012011001020058
:100170000008EB034B2000000102DC01202F2000CF
:10018000203D2000072E050DD391FF080500000C2F
:100190000021656A2D3B1322F862073F181D1CC71A
:1001A00000B0876BF8B611EA2A001F41000D2E2D12
:1001B00007D3913D04320000060021656A55E43002
:1001C00023B900070018146C070090876BF85611CC
:1001D000E92A001F410000030F1E2627000000032C
:1001E0000F1E2536386700030F2567406050000357
:1001F0000F275188838100030F2750C8C3C20027EF
:100200000000000000000067000000000000005037
:10021000000000000000008100000000000000C29B
:10022000000000000000504C4C310D0A00504C4CB6
:10023000300D0A005620312E36342043554E002012
:100240002F2000203D2000416C6C6F6320666169A7
:100250006C6564004F4B0050726F626C6D6573206B
:1002600061742000206279746573206F66205241AA
:100270004D202D200074657374696E6720004C4F0B
:1002800056460D0A00424F56460D0A000007022E40
:10029000030D04E905CA070C0B060D210E650F6A54
:1002A00010C81193120315341733181819161B436D
:1002B00021562500261129592C812D353EC34E2F5C
:1002C0004100454F420D0A004E2F41004E2F410084
:1002D00000535300547D7DFFFF4B4B7E7E00206911
:1002E0007320756E6B6E6F776E2920557365206F66
:1002F0006E65206F66003F2028004134353035356B
:100300000041343530353500303000302E302E305D
:100310002E300032333233003139322E3136382E1E
:10032000302E31003235352E3235352E3235352EE0
:1003300030003139322E3136382E302E32343400FE
:1003400031008FEF82B988B980E8809374001092F1
:10035000750011241FBECFEFD0E2DEBFCDBF11E08C
:10036000A0E0B1E0E0E3F3E700E00BBF02C00790DC
:100370000D92AE33B107D9F72DE0AEE3B1E001C085
:100380001D92AC32B207E1F70BD00C94963938CEFF
:10039000F89481E085BF82E085BFE0E0F0EF09944A
:1003A0002FE088E190E00FB6F894A8958093600064
:1003B0000FBE2093600090E080E80FB6F894809321
:1003C0006100909361000FBEBCDF04B603FE0AC05B
:1003D00083E390E0B6D5882329F060E083E390E0E2
:1003E000ABD5D6DF8091B5038111FFCF89EF87BDF3
:1003F00084E085BD82E084BD80936E001092800011
:100400008AE08093810084B7877F84BF519A0E94DD
:10041000861E79D70E94C1360E9478170E94F70D78
:100420000E94682085E49EE19093AB038093AA0329
:1004300081E08093420159980E94A637C7D10E945B
:10044000531034D30E94111C0E945D1D0E943F1561
:100450000E94A31FF1CF292F33272230310559F0F5
:100460002330310569F021303105E9F482E190E073
:100470002AE631E01CC083E490E027E231E017C0B7
:1004800099278130910549F028F0029761F4E1E065
:10049000F1E005C0E3E2F1E002C0EBE0F1E08491BD
:1004A00090E09F0104C080E090E020E030E0FA019D
:1004B0003183208308958EBD0DB407FEFDCF8EB528
:1004C0000895EF92FF920F931F93CF93DF931F92A4
:1004D000CDB7DEB7482F8A3008F048E088E0489F63
:1004E00070011124F701EA52FE4F7F018BE290E088
:1004F000F70164918C010F5F1F4F49831DD5FFEFFA
:10050000EF1AFF0A49810333110511F0C801F0CF3A
:100510004550453010F461E101C067E184E290E0AC
:100520000F90DF91CF911F910F91FF90EF9004C535
:10053000CF93DF9382E090E0FC01E555FE4F64919C
:10054000EC012196F9D4CB32D10511F0CE01F4CFD4
:1005500087E390E0FC01E35BFE4F6491EC012196A0
:10056000EBD4C036D10511F0CE01F4CF88E0DF9195
:10057000CF91A7CF5F98806C9EDF80E09CDF5F9A71
:1005800008951F93CF93DF931F92CDB7DEB741E05D
:10059000BE016F5F7F4F019647D4892B21F189817E
:1005A000893969F410E0812FE5DF3AD4812F877013
:1005B000873009F4B2D31F5F1033A9F714C0DADF14
:1005C000182F83E456D389812BD480E891E098D307
:1005D000812F26D48CE791E093D340E262E0812F13
:1005E00090E09FD39AD30F90DF91CF911F91089500
:1005F000CF93DF931F92CDB7DEB75F988064698396
:100600005ADF6981862F57DF5F9A0F90DF91CF9174
:1006100008955F9850DF5F9A0895EF92FF920F93CD
:100620001F93CF93DF93EC01EA98579A5F9A8EE17C
:1006300090E0B5D25F988EE190E0B1D25F9A8DE202
:1006400090E0ADD280E3E5DF84E690E0A8D25F9849
:1006500080E431DF7E0189E2E80EF11C8E010F5F3C
:100660001F4FCE016ED427DF0E151F0511F0E801D4
:10067000F5CF5F9A5F988EE71EDF8BE290E0EC018A
:1006800021965FD418DFC333D10511F0CE01F7CF27
:100690005F9A83E3BEDF81E0DF91CF911F910F91DD
:1006A000FF90EF9081C2CF93DF931F92CDB7DEB75B
:1006B00022E0298341E0BE016F5F7F4F0196B4D3F2
:1006C0008981FFDE82E090E0A8DF0F90DF91CF917B
:1006D0000895CF93EA9886E39CDFCFEF85E399DF17
:1006E000C1508077803229F08AE090E058D2C11161
:1006F000F5CFCF910895CF93CFEF84E38ADFC15038
:100700008077803129F08AE090E049D2C111F5CF9D
:10071000EA9ACF91089586E37CDF1092AC031092A1
:10072000EC01089582E090E078DF81E08093AC03F3
:100730001092EC0108950F931F93CF93DF93082F2E
:1007400010E0C62FD0E085E315DF801731F0CE0131
:1007500026D21150C1F781E001C080E0DF91CF9136
:100760001F910F91089585E205DF8F3311F080E02E
:10077000089586E34EDF80913E01811104C08DE231
:1007800092E0BED202C08DE344DF83E342DF64E047
:1007900081E0D1DF85E2EEDE8F3349F780913E01C3
:1007A000811103C086E292E0ABD281E0089585E337
:1007B000E1DE8D3051F485E2DDDE8F3331F4D3DFBD
:1007C00084E327DF80778031D9F7089580911F0D6A
:1007D000843009F069C08093E90080913F01811164
:1007E0002AC08091E80085FF26C08091F200909198
:1007F000F300892B31F06091F10084E894E038D661
:10080000F4CF8091E800982F9B7F9093E8008F773A
:100810008093E80081E080933F0186EE93E090931F
:10082000A9038093A803E091AA03F091AB0381E0B0
:10083000099510923F0183E08093E9008091430481
:10084000882391F18091E80085FF2EC0F894809173
:100850004304882369F08091F2009091F300803482
:10086000910530F481E494E019D68093F100EFCF44
:1008700078948091F2009091F3002091E800322F5B
:100880003E7F3093E8002F772093E8008034910575
:1008900059F40E9467358091E800982F9E7F9093CD
:1008A000E8008F778093E800089542E061EC82E0F1
:1008B0000E94173542E361E883E00E94173542E366
:1008C00060E884E00E941735109200011092010147
:1008D000109202011092030108958091200D9091D1
:1008E000210D913229F0923261F1903299F512C0C6
:1008F000813A81F58091E800877F8093E80067E086
:1009000070E080E091E00E9490358091E800982F9F
:100910009B7F11C08132F1F48091E800877F809342
:10092000E80067E070E080E091E00E943A36809154
:10093000E800982F9E7F9093E8008F778093E800DF
:100940000895813239F48091E800877F8093E80030
:100950000C94413508951F920F920FB60F921124F7
:100960000BB60F928F939F93AF93BF93EF93FF9329
:100970008091AE039091AF03A091B003B091B10309
:100980000196A11DB11D8093AE039093AF03A09378
:10099000B003B093B1038091AD038F5F8093AD033B
:1009A0008091190D8F5F8093190D8D37A8F080917C
:1009B0001F0190912001A0912101B0912201019687
:1009C000A11DB11D80931F0190932001A0932101CF
:1009D000B09322011092190DE9EBF3E0808191812F
:1009E000181619061CF4019791838083369683E0CC
:1009F000E13DF80799F78091D3039091D4030097D4
:100A000029F001979093D4038093D3038091E60358
:100A10008F3F19F081508093E603FF91EF91BF91D2
:100A2000AF919F918F910F900BBE0F900FBE0F90C3
:100A30001F9018952FB7F8944091AE035091AF03D3
:100A40006091B0037091B103FC01408351836283D4
:100A500073832FBF0895CF93DF9300D000D0CDB71D
:100A6000DEB7CE010196E6DF8C81DAD18B81D8D159
:100A70008A81D6D18981D4D150D10F900F900F9017
:100A80000F90DF91CF910895CF93DF9300D000D0E6
:100A9000CDB7DEB7CE010196CDDF89819A810F9067
:100AA0000F900F900F90DF91CF9108951F93CF93E8
:100AB000DF938091AE039091AF03A091B003B0910A
:100AC000B10320914101281709F465C08091AE035C
:100AD0009091AF03A091B003B091B1038093410115
:100AE000A895C9EBD3E010E028813981232B19F4B4
:100AF000812F0E941E1A1F5F26961430A9F780913D
:100B0000D3039091D403892B11F40E947A1A809117
:100B1000E603811102C00E94E61A80913D048823F9
:100B200039F0815080933D04811102C00E94FD1D67
:100B30008091AD038D3778F11092AD03809107015C
:100B400081FF04C08BB192E089278BB98091B203F9
:100B50009091B303843823E0920728F40196909390
:100B6000B3038093B20380911F01811102C00E94E0
:100B70004833809140018F5F809340018C3359F45A
:100B8000109240018091B8038F5F8093B8038C333B
:100B900010F01092B803DF91CF911F910895880F44
:100BA000991F0197F1F7089520ED37E0815020F06B
:100BB000F9013197F1F7FACF0895CF93DF93DC0174
:100BC00013968C911397843509F050C0CD0103968C
:100BD000CC91FD0170964DE04C1750F050E0D0E004
:100BE0009E012F5031094217530709F03FC005C03D
:100BF00021912B3399F34F5FEFCFFE013E97E80F22
:100C0000F91F2081243591F514963C911497218188
:100C100032132CC015963C9115972281321326C0B1
:100C200016963C9116972381321320C017963C915B
:100C30001797248132131AC06197C80FD91F858175
:100C400088838681898381858A8382858B83838556
:100C50008C8384858D8385858E838C918A508C933B
:100C600012968C9112978A5012968C93DF91CF91A5
:100C70000895CF93C82F8091420182FF03C08C2F2B
:100C80000E94C32180911F0D843081F48091420124
:100C900080FF0CC080914304803408F097DD6C2FF6
:100CA00081E494E0E5D3CA3009F490DD80914004FA
:100CB0008823C9F08091420183FF15C0CA3099F0A2
:100CC000CD3011F46BE301C06C2F8AEF93E0D0D3E9
:100CD000CD3019F48AEF93E070DF83E080933D0418
:100CE00082E080933F04CF910895CF93DF93EC018E
:100CF0008991882311F0BDDFFBCFDF91CF9108955B
:100D0000CF93DF93EC01FE018491882319F0B1DFCA
:100D10002196F9CFDF91CF9108958DE0AADF8AE087
:100D2000A8CF0F931F93CF93DF9300D000D000D0B4
:100D3000CDB7DEB7062F1E8215E02AE030E0115055
:100D4000E1E0F0E0EC0FFD1FE10FF11DB9010E94A1
:100D5000C437805D8083CB010150009769F0111189
:100D6000EECF0AC0112359F01150E1E0F0E0EC0F92
:100D7000FD1FE10FF11D4083015007FFF3CF81E01C
:100D800090E08C0F9D1F810F911DAFDF26960FB64F
:100D9000F894DEBF0FBECDBFDF91CF911F910F91B1
:100DA0000895CF93DF9300D000D01F92CDB7DEB768
:100DB0001D8224E0382F3F702150E22FF0E03A30BE
:100DC00010F4305D01C0395CA1E0B0E0AC0FBD1F94
:100DD000EA0FFB1F308334E0969587953A95E1F74B
:100DE0006150009739F7615067FD0BC0222349F02D
:100DF0002150E1E0F0E0EC0FFD1FE20FF11D408318
:100E0000F2CF81E090E08C0F9D1F820F911D6DDF6E
:100E10000F900F900F900F900F90DF91CF9108954A
:100E200040E362E090E0BDCFDC01FB0130E090E008
:100E30008D918823A9F0813608F0805220ED280F8B
:100E40002A3030F02FEB280F263030F429EC280F11
:100E5000292B332379F006C0803251F38A3341F3D2
:100E6000CF0105C0CF0101962083415041F4861B7C
:100E7000970B0895922F9295907F31E0D9CFFC0186
:100E8000D5CFFB0150E020E0DC013D91CD013323C3
:100E9000D1F050ED530F5A3050F4522F550F252FEB
:100EA000220F220F250F2053230F51E0EDCF3032B8
:100EB00011F03E3279F4442321F0208341503196E1
:100EC000E1CF50E0E1CFDF01552321F0442311F0C1
:100ED00031962C93CF01861B970B089520E030E0CC
:100EE0005AE0FC014191CF01442379F0E0EDE40F99
:100EF000EA30B8F7F9015E9F90015F9F300D112431
:100F000020533109240F311DECCFFB0131832083A5
:100F10000895982F92959F709A3010F4905D01C0BB
:100F2000995CFB0190838F708A3010F4805D01C062
:100F3000895CFB01818308950E947839F999FECF7D
:100F400008950C946B391F93CF93DF9314E01150E5
:100F500068F0EC012196F5DF40E261E090E0E1DE2F
:100F6000112311F08EE285DECE01F1CFDF91CF911A
:100F70001F9108951F93CF93DF93162F11501F3F9A
:100F800059F0EC012196DDDF4BDF112311F08AE3EC
:100F900070DE1150CE01F3CFDF91CF911F910895F4
:100FA000FF920F931F93CF93DF9300D0CDB7DEB79F
:100FB000FC012181293691F582818D3621F466E08C
:100FC00082E690E030C0843619F488E690E019C0DB
:100FD000813619F489E690E00EC08E3619F48DE65C
:100FE00090E009C0873619F481E790E004C08E34A0
:100FF00021F485E790E0A7DF44C08F3629F48BE722
:1010000090E09FDF0DDF3DC0803709F03AC089E7EF
:1010100090E00E94733940E260E032C02D3429F440
:1010200066E08AEF9FE0A6DF2CC0203521F460E166
:101030008AED9FE0F8CF1A82198242E0BE016F5F0D
:101040007F4F0196F1DE098110E0823021F4102FEC
:1010500000278A81082BC80174DFF82E82E509DE9B
:1010600040E364E0C8019DDE83E492E049DE8F2D19
:10107000D7DE8FE392E044DE40E262E08F2D90E025
:1010800050DE4BDE0F900F90DF91CF911F910F91AB
:10109000FF900895CF92DF92EF92FF920F931F93EC
:1010A000CF93DF93CDB7DEB728970FB6F894DEBFA6
:1010B0000FBECDBF9C01FC0181818E010F5F1F4FD0
:1010C000893609F06BC082818D3649F446E0B8015B
:1010D000C9010396A9DE82E690E026E04DC0843681
:1010E00039F4B801C9010396F9DE88E690E03FC003
:1010F000813641F444E0B801C9010396C2DE89E6B5
:1011000090E027C08E3641F444E0B801C90103964F
:10111000B8DE8DE690E01DC0873641F444E0B801AA
:10112000C9010396AEDE81E790E013C0803741F439
:10113000B801C9010396D2DE89E790E022E01CC025
:101140008E3449F444E0B801C90103969ADE85E77C
:1011500090E024E011C08F3661F441E0B801C9018C
:10116000039662DE898180931A0D8BE790E021E07F
:1011700003C080E090E020E078013E2D301B321764
:1011800008F049C0F70161917F016C01FFEFCF1AB0
:10119000DF0A2887D1DEC6012885EFCF43E0B801FA
:1011A000C901019628873F833FDE28853F81823031
:1011B00090F1C980D12C823021F0DC2CCC244A81E2
:1011C000C42A7C01FF24FE01EE0DFF1D6081C601D3
:1011D00028873F83B1DEEE0CFF1C8FEFE81AF80A78
:1011E00028853F81E20EF31EEFEFCE1ADE0AF701EB
:1011F0008081882381F041E0B801C70115DE892B89
:1012000051F06981C60198DEF2E0EF0EF11C32E088
:10121000C30ED11CECCF28960FB6F894DEBF0FBEDC
:10122000CDBFDF91CF911F910F91FF90EF90DF9095
:10123000CF90089541E067E071E00196F5DD80917F
:10124000070180FF02C0599A01C0599860910701B7
:1012500084E390E071CECF93DF931F92CDB7DEB7DA
:101260001982009731F041E0BE016F5F7F4F019618
:10127000DBDD89818F3F09F4FFCF882321F061E016
:1012800083E390E059DE0E94D13610926E00F8940C
:1012900028E088E190E00FB6F894A895809360006C
:1012A0000FBE20936000FFCFCF93DF93EC0161E08E
:1012B00080E090E041DE6FE381E090E03DDE38D9F0
:1012C00060E080E690E038DE60E081E690E034DEC9
:1012D00060E083E390E030DE62E084E390E02CDEC7
:1012E0000E94D51E60E080E690E026DE60E081E6A8
:1012F00090E022DE8981883719F080E090E0ABDF52
:10130000DF91CF91089580E090E01BDE813029F4D9
:1013100081E090E016DE8F3319F080E090E0C4DFCA
:1013200084E390E00EDE80930701089584E392E069
:10133000E7DCF3CC2091280D3091290D21153105E2
:1013400021F4209125013091260180912301909173
:101350002401009741F48DB79EB740912701509129
:101360002801841B950B2817390718F4821B930B4F
:10137000089580E090E0089582E47BDC40E265E03F
:101380008091280D9091290DCCDCC7DC83E571DCC0
:1013900040E265E08091250190912601C2DCBDDC30
:1013A00085E467DC40E265E08091230190912401AF
:1013B000B8DCB3DC86E45DDCBDDF40E265E0B1DCD7
:1013C000ACCC0F931F93CF93DF9385E792E098DC2B
:1013D00040E265E08DEF9FE7A4DC84E692E090DCDC
:1013E0008DEF9FE70E941938EC010097A1F14DEFB6
:1013F0005FE767E770E00E945D39FE0180E090E002
:10140000819301968D3F2FE79207D1F7FE0100E00F
:1014100010E0219130E0C80199272817390779F0A9
:1014200087E592E06DDC40E265E0C8017ADC75DCBE
:10143000CE01DF91CF911F910F910C94B1380F5FC6
:101440001F4F0D3F8FE7180721F7CE010E94B138DB
:1014500084E592E002C087E492E052DCDF91CF9114
:101460001F910F915ACCFC011282108211820895B3
:10147000FC018FB7F8949281903470F49F5F92834F
:10148000208191E0920F9083DF01A20FB11D13968E
:101490006C93903409F410828FBF0895FC019FB7BC
:1014A000F8948281882371F081508283818121E0C8
:1014B000280F2183DF01A80FB11D13968C912034D2
:1014C00009F411829FBF0895FA013081882369F0E1
:1014D000E1E0F0E0022E01C0EE0F0A94EAF7DB0132
:1014E000A30FB11D9C919E2B9C93222319F08FEF8B
:1014F000820F0BC081E0830F8C3010F4FA018083DF
:10150000FB01E80FF11D108287E090E00895CF9372
:10151000C82F8A9A882319F08091450102C08091D2
:10152000470120E1829FC001112439DB8A98CC2336
:1015300019F08091440102C08091460120E1829F10
:10154000C0011124CF912BCB2F923F924F925F92EB
:101550006F927F928F929F92AF92BF92CF92DF92C3
:10156000EF92FF920F931F93CF93DF935C01162F9F
:10157000622EC42FD0E04091B2035091B303CE014C
:101580000296089F802D1124992787FD9095481772
:101590005907A8F48EE792E0DF91CF911F910F9148
:1015A000FF90EF90DF90CF90BF90AF909F908F9083
:1015B0007F906F905F904F903F902F90A1CB481BF2
:1015C000590B5093B3034093B203599A8091AC03E3
:1015D000811101C0A7D87DD8812E912CCC24C39431
:1015E000D12C712CF12C8F2D992787FD9095881582
:1015F000990524F480E08BDFF394F5CF112311F0EB
:1016000081E085DFF12C4F2C552447FC50944C167B
:101610005D062CF097E0392E4A0C5B1C15C087E064
:10162000282E312C4A0C5B1CC601022C01C0880FED
:101630000A94EAF7F2019081892369DFF1E02F1A19
:10164000310890F7F394DFCF832D992787FD90958C
:101650006816790664F4C601032C01C0880F0A9449
:10166000EAF7F2019081892352DF3A94EDCF8E2D73
:101670009BDA015009F0B6CF8091B503882311F0B1
:101680003AD803C086E30E9409035998DF91CF91AD
:101690001F910F91FF90EF90DF90CF90BF90AF9090
:1016A0009F908F907F906F905F904F903F902F9082
:1016B00008955F926F927F928F929F92AF92BF92A6
:1016C000CF92DF92EF92FF920F931F93CF93DF930E
:1016D000CDB7DEB72D970FB6F894DEBF0FBECDBFE6
:1016E0007C01162F842F022F6701C60ED11C462FB6
:1016F000B701B3D2D6018C931F5F1D8619825E2C71
:10170000670127E066246394712C8C2D851981175D
:1017100088F547E0A42EB12C4701880E911CF301F7
:101720000A2C01C0EE0F0A94EAF7D4018C91AE01A5
:10173000435F5F4FBE016F5F7F4F8E23C5DE282F53
:10174000B1E0AB1AB10858F7D6018D916D01082EA2
:1017500082958025082E8695869580258F5F8695B3
:101760008170AE01435F5F4FBE016F5F7F4FACDEA4
:10177000282FCBCF222311F0215004C08D858F5FFD
:101780008D8727E089E1809346018093470185E2B8
:1017900080934401809345013AE0E32E4D856CE04F
:1017A000CE010196D1DE2D960FB6F894DEBF0FBEA6
:1017B000CDBFDF91CF911F910F91FF90EF90DF9000
:1017C000CF90BF90AF909F908F907F906F905F90E1
:1017D00008951F93CF93DF93CDB7DEB72D970FB644
:1017E000F894DEBF0FBECDBF162F242F4BE0BE01F5
:1017F0006F5F7F4F01962D8717DB2D85412F682F57
:10180000CE01019656DF2D960FB6F894DEBF0FBEBF
:10181000CDBFDF91CF911F91089543E066E0D9CF0E
:10182000EF920F93CF93DF93CDB7DEB760970FB6EC
:10183000F894DEBF0FBECDBF40E1BE016F5F7F4FAA
:101840000196F2DA69814A810B818C81809347018C
:101850008D81809346018E81809345018F81809395
:101860004401E02EE2947FE0E7220F70242F2F70D6
:1018700042954F70CE01089667DE60960FB6F894D9
:10188000DEBF0FBECDBFDF91CF910F91EF900895D6
:10189000AF92BF92CF92DF92EF92FF920F931F937E
:1018A000CF93DF93CDB7DEB769970FB6F894DEBF5D
:1018B0000FBECDBF4BE0BE016F5F7F4F0196B4DA24
:1018C000182F893009F05AC099E1909346019093FE
:1018D00047019093450182E38093440169E0CE0182
:1018E0000196C5D1E1E0F0E0EC0FFD1FE10FF11D25
:1018F0008083198E1D86CE0101967C016E019BE0CE
:10190000C90ED11C27E0AA24A394B12CEC14FD0429
:1019100029F100E010E0F501002E01C0EE0F0A945D
:10192000EAF7D7018C91AE01475E5F4FBE01635F5E
:101930007F4F8E23C9DD282F0F5F1F4F0830110501
:1019400051F7AE01475E5F4FBE01635F7F4F81E09D
:10195000BBDD282FBFEFEB1AFB0AD8CF222311F0F3
:10196000215004C0898D8F5F898F27E0EAE0EE2E39
:1019700003E0498D6CE0CE010D96E6DD69960FB669
:10198000F894DEBF0FBECDBFDF91CF911F910F91B5
:10199000FF90EF90DF90CF90BF90AF9008958F921F
:1019A0009F92AF92BF92DF92EF92FF920F931F939D
:1019B000CF93DF931092630110927801FC01218193
:1019C000220F220F220F3381231B57E0520F109258
:1019D000640110E070E038E0D32ED20EFF24F394BF
:1019E00047E007E0E12CC7E0D0E0A1E0B0E0FD1463
:1019F00009F47FC0FC01EE0DF11D248130E0002EC2
:101A000002C0359527950A94E2F721703327E22F1B
:101A1000002311F0015002C0E39407E06B3471F42D
:101A2000433009F04AC0111107C0E1115FC01092A4
:101A300063017093780174C010E041C04F3F31F5ED
:101A40006634A9F4E72FF0E0EC59FE4FE0810E2E4A
:101A5000E295E0250E2EE695E695E025EF5FE1FBA9
:101A6000882480F8912C8216930641F004C06534D6
:101A700029F4E11103C010936301DBCF7F5FE72FEF
:101A8000F0E0EC59FE4F108247E031C0EE2361F1E7
:101A9000663471F4E72FF0E0EC59FE4FA0809D0111
:101AA000042E01C0220F0A94EAF7A22AA0821CC0C9
:101AB000653439F06B34C1F404C04F3FD1F2EE23EA
:101AC00099F0E72FF0E0EC59FE4F9E01241B3109FD
:101AD00047FD33955D0102C0AA0CBB1C2A95E2F7B5
:101AE00095013081322B3083415001C011E0F394D5
:101AF0007ECF10936301709378015F1588F465348D
:101B000031F44F3F21F47F5F7093780104C08091DE
:101B100063018111F8CF81E090917801911101C0AA
:101B200080E0DF91CF911F910F91FF90EF90DF90B8
:101B3000BF90AF909F908F90089510926F00E091AA
:101B40007B018CE1E89FF0011124E458FE4F1082E4
:101B50008091B4038D7F8093B4030895FC012181AB
:101B6000243108F0EACF662389F081E090E0038019
:101B700002C0880F991F0A94E2F7DF01A20FB11D7E
:101B800014969C911497982B14969C938381882388
:101B900019F081508383089587E083832F5F218329
:101BA000E20FF11D14820895DC011196EC9111975A
:101BB000F0E050E02C91CF01841B950B0B964797DA
:101BC000A0F430E070E0C901861B970B0B96479795
:101BD00060F42E0F3F1F640F751F261B370B255F08
:101BE0003F4F81E02731310508F080E00895829A67
:101BF0008A985298E9E6F0E080818061808382ECE7
:101C000091E09093B3038093B203109298011092E5
:101C1000B4011092D0011092AC0308958091B503E5
:101C2000882321F00E9492030C947B030C948B0375
:101C3000FC01218121110BC08091B503F1D840E254
:101C400065E08091B2039091B3036BD866C841E020
:101C500065EB73E00196E8D8E1CF442339F04150B9
:101C6000FB01E40FF11D9081890FF7CF089520E06B
:101C7000662339F06150FC01E60FF11D3081232706
:101C8000F7CF822F0895A091630140E035E020E076
:101C9000662399F06150FC01E60FF11D5081752F0C
:101CA00072957F702727370FAA2311F0442319F06C
:101CB0005F702527350F4F5FEBCF320F40E1349F28
:101CC000C0011124822B0895FC0132812381A0815F
:101CD000B181A30FB11D8C9190E0022E02C09595A9
:101CE00087950A94E2F7817099274FEF420F43835B
:101CF000211104C03F5F328327E023830895AF9210
:101D0000BF92CF92DF92EF92FF920F931F93CF93E8
:101D1000DF9300D0CDB7DEB77C01A12CB12CD12C44
:101D2000CC24C394062F10E001501109A616F0F43C
:101D3000C7014A836983C8DF4A816981882391F09A
:101D4000442349F098012A193B098C2D01C0880FC2
:101D50002A95EAF706C08C2D0A2C01C0880F0A9438
:101D6000EAF7D82A8FEFA81AB80AE0CF8D2D0F9086
:101D70000F90DF91CF911F910F91FF90EF90DF9027
:101D8000CF90BF90AF9008959F92AF92BF92CF92A5
:101D9000DF92EF92FF920F931F93CF93DF9300D0C8
:101DA00000D0CDB7DEB71B8227E02C839C012C5FCF
:101DB0003F4F3A83298310927801FC0121813381BE
:101DC00087E090E0831B9109F8E02F9F800D911D23
:101DD0001124853491050CF44EC0B12CA0907801EB
:101DE000F5E0FA1558F10A2D10E040E068E0CE0168
:101DF000019685DF0C591E4FF8018083982E092C1F
:101E000092949024092C969496949024CE01019655
:101E10005BDF939491FACC24C0F8D12C90E0C816E3
:101E2000D90649F5CE0101964FDF811124C0F80192
:101E30008081B826A394A0927801D0CF40E068E0DA
:101E4000CE0101965CDF082F182F012E1295102568
:101E5000012E169516951025CE01019635DF1F5FD0
:101E600011FBEE24E0F8F12C282F30E0E216F30607
:101E700011F481E0B01280E00F900F900F900F905E
:101E8000DF91CF911F910F91FF90EF90DF90CF9056
:101E9000BF90AF909F900895DF92EF92FF920F93C3
:101EA0001F93CF93DF9300D000D01F92CDB7DEB742
:101EB000FC011B8287E08C83CF0104969A8389837F
:101EC0008081853009F051C02181338187E090E025
:101ED000831B910938E0239F800D911D11248039C7
:101EE000910509F042C0109278010FE010EF29E847
:101EF00080917801E82EF12CDD24D394D80E41E0B6
:101F000068E08F3088F4CE0101962D83F8DE080F4B
:101F1000111DF701EC59FE4F2D812827208324E263
:101F2000280FD0927801E4CFCE010196E8DE080FA9
:101F3000111DD0927801F701EC59FE4F80958083F6
:101F400041E068E0CE010196DADE90E0982F882724
:101F5000081B190B41E068E0CE010196D0DE282F66
:101F600030E081E00217130709F080E00F900F9036
:101F70000F900F900F90DF91CF911F910F91FF90D5
:101F8000EF90DF900895FF920F931F93CF93DF930D
:101F900000D000D0CDB7DEB71B8227E02C839C0198
:101FA0002C5F3F4F3A832983FC0121812430A1F526
:101FB0008381813089F51092780180917801082F12
:101FC00010E0FF24F394F80E41E0843098F481117E
:101FD00006C067E0CE01019692DE806804C068E02A
:101FE000CE0101968CDEF801EC59FE4F8083F09211
:101FF0007801E3CF67E0CE01019681DEF801EC596C
:10200000FE4F880F8083F092780190916401929541
:102010009F7081E09A3009F080E00F900F900F9050
:102020000F90DF91CF911F910F91FF900895FC01C8
:1020300081818330F1F483818730D9F480818830C5
:10204000C1F41092780180E021E0280F9181891776
:1020500060F490E0DF01A80FB91F14963C91DC01F9
:10206000AC59BE4F3C93822FEFCF8093780181E033
:10207000089580E00895FC0190818091B403993621
:1020800011F0933751F4982F9370913011F48260CE
:1020900006C080FF07C08B7F03C080FD03C0846043
:1020A0008093B4030895EF92FF920F931F93CF9301
:1020B000DF931F92CDB7DEB7198280914801882344
:1020C000B9F18091B50387FF17C084E30E94BA027B
:1020D0008058803458F0803C58F490E08055910945
:1020E00053E0959587955A95E1F703C080E001C0CC
:1020F0008FE08F590E9439068091B50383FF16C087
:1021000082E70E9439068091B50384FF04C0809164
:1021100049010E94390686E60E9439068091B5037E
:1021200084FF04C0809148010E9439061092480142
:1021300080917901882309F442C2599A00917A0169
:102140002CE1029F8001112404581E4F89818111C6
:1021500006C0C8016CDF882311F083E78983898179
:10216000811106C0C80198DE882311F083E58983B8
:102170008981811139C066E4C80111DC8823A1F18D
:10218000F0907801FA94F09278014F2D64E671E0B6
:1021900086E063DDEF2DF0E0EC59FE4FE0808E111C
:1021A00005C093E09F1510F486E41BC0282F30E093
:1021B0002F5F3F4F6E2D70E02617370739F423E06D
:1021C0002F1520F496E4998380830EC04F2D64E68A
:1021D00071E08CE042DD8E1106C083E08F1518F4AB
:1021E00084E5898301C019828981811116C065E463
:1021F000C801D5DB882389F08091780181508093D4
:102200007801893051F469E084E691E030DD909105
:102210006D01891302C085E489838981811106C01B
:10222000C801B2DD882311F088E489838981811196
:1022300006C0C801A8DE882311F084E7898389815C
:10224000811133C0F801438D60914901C8014A965C
:10225000ABDC682FC80182DC6BE4C801A0DB8823FB
:10226000B1F0F0907801FA94F09278016F2D84E645
:1022700091E009DDEF2DF0E090916301E91BF10998
:10228000EC59FE4F9081891302C08BE489838981C8
:1022900081110BC0F801838191E0980F93838730FF
:1022A00021F41382818181508183898181112DC024
:1022B000F8018181843049F58381843031F54EE124
:1022C0006CE3C801489670DC8823F9F04EE1609118
:1022D0004901C8014A9668DC682FC8013FDC20E04C
:1022E000822F90E0FC01EC59FE4FD801A80FB91FD6
:1022F00014968C91808381E0820F853010F4282F12
:10230000EFCF8093780182E589833981332309F403
:10231000CAC02091B50320FFC6C08091B4038E7F50
:102320008B7F8093B40321FD64C050916201F090D3
:1023300078015F113DC040E04517C0F4842F90E064
:1023400061E0640FFC01E25BFE4FDC01AC59BE4F63
:1023500070818C91781741F0409362018091B403B1
:102360008D7F8093B40304C0462FE6CF4093620173
:1023700045131EC04091AE035091AF036091B0036E
:102380007091B10380914A0190914B01A0914C0151
:10239000B0914D01481B590B6A0B7B0B463251051E
:1023A0006105710528F48091B40381608093B403C2
:1023B00040E04F1560F4842F90E0FC01E25BFE4F9B
:1023C000DC01AC59BE4F8C9180834F5FF2CF4093BC
:1023D00062018091AE039091AF03A091B003B091E0
:1023E000B10380934A0190934B01A0934C01B093A9
:1023F0004D013435E9F426FD1BC08091780185300C
:10240000B8F0809166018B3471F0893661F09DEAF5
:10241000980F923040F08D57823028F080916701FC
:102420008077803729F48091B40381608093B4036E
:10243000B801CE0101961FDE8091B40382FF33C044
:1024400089810E94390680916301882329F0809157
:102450007801815080937801F12CE0917801FE168B
:1024600048F4EF2DF0E0EC59FE4F80810E941007F8
:10247000F394F3CF80916301882351F0F0E0EC599D
:10248000FE4F80818F7040E361E090E00E94D106B2
:102490008091B50385FF05C084E30E94BA020E94C3
:1024A00010070E948D068091B50382FF6FC080E700
:1024B0000E943906F801808140E262E090E00E94CB
:1024C0009106F801808D40E265E0F0E18F9FC00148
:1024D00011240E949106F801818D40E265E0F0E14F
:1024E0008F9FC00111240E949106F801828D40E265
:1024F00065E0F0E18F9FC00111240E949106F80170
:10250000838D40E265E0F0E18F9FC00111240E94BD
:102510009106F801828140E263E090E00E9491061A
:10252000F801818140E263E090E00E949106F801A9
:10253000238140E262E087E090E0821B91090E94E3
:10254000910680E20E9439068091B50385FF08C09C
:1025500084E30E94BA020E94100780E20E943906BA
:10256000F8018381873019F081818F5F8183F12C9D
:10257000F8018181F81640F4F801EF0DF11D848116
:102580000E941007F394F4CF0E948D06F801108288
:102590008091790181508093790180917A018F5FD8
:1025A000843019F080937A0102C010927A01599810
:1025B0008981843521F484E691E00E94F51A0F9018
:1025C000DF91CF911F910F91FF90EF9008951F928F
:1025D0000F920FB60F9211240BB60F922F933F93C9
:1025E0004F935F936F937F938F939F93AF93BF931B
:1025F000EF93FF9310926F008091B50383FF03C0A8
:102600008EE20E94390680917B019CE1899FF00156
:102610001124E458FE4F9081933018F0918192304C
:1026200010F48BDA18C090917901933049F48091BD
:10263000B50382FFF6CF85E892E00E948006F1CFD5
:102640009F5F909379018F5F843019F080937B01B5
:1026500002C010927B01FF91EF91BF91AF919F91CA
:102660008F917F916F915F914F913F912F910F903B
:102670000BBE0F900FBE0F901F9018959BED980FFB
:10268000973150F496EF960F9D3130F491E0681732
:1026900008F090E0892F089580E008951F920F922E
:1026A0000FB60F9211240BB60F92FF920F931F9348
:1026B0002F933F934F935F936F937F938F939F934A
:1026C000AF93BF93CF93DF93EF93FF938091F70383
:1026D000882321F082E08093F7036CC180913E044F
:1026E000823021F483E080933E0464C10091840031
:1026F0001091850074E0169507957A95E1F7C091E1
:102700007B019CE1C99FE0011124C458DE4F9881F0
:10271000943031F40E3208F44DC10F3448F0BBC090
:10272000953031F4073108F445C1083208F0B3C0E0
:102730004A990DC09450923038F461E0CE010EDA1F
:1027400010928500109284000093490133C180915A
:102750004901081B009348011092850010928400E3
:102760009881983091F48A8181110FC081E08A8329
:1027700080914901888F8A8F80914801898F8B3B96
:1027800010F4880F01C086958B8F9450923020F4FE
:1027900060E0CE01E3D90EC182E086BBF880F11083
:1027A00011C090914901953608F004C1809148010B
:1027B000853608F0FFC0988F898F81E08A8382E098
:1027C0008883F8C01091480182E0F81278C0009127
:1027D0004901412F602FCE014896E6D94A818823CE
:1027E000F9F0288D30E0C901880F991F820F931FDF
:1027F000800F911D9595879595958795888F298D43
:1028000030E0C901880F991F820F931F810F911D1E
:102810009595879595958795898F4F5F4A83CAC00F
:10282000443008F44AC080EA9FE090938900809386
:1028300088008A818C3050F0288D898D90E0820F3D
:10284000911D8536910524F084E028C08A3080F0FF
:10285000288D898D90E0820F911D85974CF485E03D
:10286000888388EE93E0909389008093880017C056
:102870008091F903882389F0609148018091490192
:10288000FDDE882351F0688D898DF8DE882329F0DC
:1028900081E080933E0451D98DC083E0888380918C
:1028A00049018A8F809148018B8F198287E08B8341
:1028B0001C8282E080936F007DC0188272CF98E006
:1028C000F91225C081E9810F8D3178F460E0CE01E5
:1028D00045D9288D30E0C901880F991F820F931FB9
:1028E00020914901820F911D4EC0173E08F462C02D
:1028F00061E0CE0133D92A8D30E0C901880F991FDC
:10290000820F931F20914901820F911D15C00091E4
:102910004901412F602FCE014A9646D9882301F103
:1029200061E0CE011BD92A8D30E0C901880F991FC3
:10293000820F931F800F911D95958795959587958B
:102940008A8F2B8D30E0C901880F991F820F931F4A
:10295000810F911D95958795959587958B8F2AC0A9
:10296000412F602FCE0148961FD9882301F160E0E6
:10297000CE01F4D8288D30E0C901880F991F820F4D
:10298000931F800F911D9595879595958795888FB5
:10299000298D30E0C901880F991F820F931F810F85
:1029A000911D9595879595958795898F03C087E0AB
:1029B000F81271CFFF91EF91DF91CF91BF91AF915D
:1029C0009F918F917F916F915F914F913F912F9147
:1029D0001F910F91FF900F900BBE0F900FBE0F90A5
:1029E0001F901895E0917B018CE1E89FF001112484
:1029F000E458FE4F8081811107C081E09091E60389
:102A00009F3F19F480E0089581E00895CF93DF930C
:102A1000EA98579A5F9A8EE190E00E94CF055F98FE
:102A20008EE190E00E94CF055F9A8DE290E00E94D7
:102A3000CF0580E30E94090384E690E00E94CF0561
:102A4000CCE8D2E0FE0131966491FE0184910E94AF
:102A5000F8022296F2E0CE3BDF07A1F783E30E9463
:102A6000090384E00E94D40584E30E94090385E3FE
:102A70000E94BA028D30C1F7DF91CF9108950F9374
:102A80001F93CF93DF93CDB7DEB76E970FB6F89451
:102A9000DEBF0FBECDBF8091EC01882309F4B4C026
:102AA0004A9B93C08FE30E94BA028F7789838E314D
:102AB000B0F08AE30E94090386E30E9409038DE3D4
:102AC0000E94090384E36E960FB6F894DEBF0FBE32
:102AD000CDBFDF91CF911F910F910C9409035F98A7
:102AE0008FEF0E945B0210E08981181760F480E08C
:102AF0000E945B02E2E0F0E0EC0FFD1FE10FF11D30
:102B000080831F5FF1CF80E00E945B02082F80E08E
:102B10000E945B025F9A84E30E94090385E30E949E
:102B2000BA028D30C1F72A8196E792279A8392E004
:102B30008981E92FF0E0981768F441E050E04C0FEC
:102B40005D1FE40FF51F30812452232720839F5FF0
:102B5000232FEECF81E090E08C0F9D1FE80FF91F2F
:102B600090818B81982790838091B50384FF12C058
:102B700081E60E94390610E08981811730F1E1E099
:102B8000F0E0EC0FFD1FE10FF11D80810E9439067E
:102B90001F5FF2CF81E40E94390610E0898181171E
:102BA00058F0E1E0F0E0EC0FFD1FE10FF11D808136
:102BB0000E9410071F5FF2CF8091B50385FF03C00D
:102BC000802F0E9410070E948D0685E30E94BA02A2
:102BD000813029F0813161F48AE30E94090386E3A0
:102BE0000E9409038DE30E94090384E30E94090304
:102BF0006E960FB6F894DEBF0FBECDBFDF91CF91BA
:102C00001F910F910C94D7036E960FB6F894DEBF08
:102C10000FBECDBFDF91CF911F910F910895CF923D
:102C2000DF92EF92FF920F931F93CF93DF93CDB775
:102C3000DEB76E970FB6F894DEBF0FBECDBF4DE185
:102C40008E010F5F1F4FB80101960E9414076C019F
:102C50009C01332721503109898190E028173907D9
:102C600009F06AC08091EC01811104C0CFDE83E0DD
:102C70000E94D405FB808A8196E789278A8392E0A7
:102C80008981292F30E0F801E20FF31F981750F4E3
:102C9000DE01A20FB31F8C91845220818227808392
:102CA0009F5FEECF80818F25808385E30E9409039B
:102CB00085E30E94BA028331C1F7F4FE08C088E7B9
:102CC0000E94D40588E70E94D40588E701C08AE005
:102CD0000E94D4055F988FE70E945B0278018E2DD9
:102CE000801B8C1530F4F70181917F010E945B02FB
:102CF000F6CF5F9A85E30E94BA028331D9F385E368
:102D00000E94BA02863149F48BE30E94090386E3EC
:102D10000E9409038DE30E9409038091EC0188233E
:102D200049F084E30E94090385E30E94BA028D30D2
:102D3000C1F702C00E940E0E6E960FB6F894DEBF69
:102D40000FBECDBFDF91CF911F910F91FF90EF90FC
:102D5000DF90CF900895FC012181223729F456DEBF
:102D600081E08093EC010895233711F4019657CF49
:102D70001092EC0108951092D1031092C20283E0E8
:102D80008093F2018FEF8093E6030895E3EFF1E083
:102D90002081211105C0892BB1F080E090E00895D9
:102DA000B2E0EB3BFB07B8F7009751F04181DC0143
:102DB0003C91431305C0428111963C91431751F059
:102DC000E20FF11DE5CF32E0EB3BF30719F010F015
:102DD000EBEBF2E0CF01089594E0899FF00111241C
:102DE000E951FC4F80818F3F91F08093ED0181810B
:102DF0008093EE0182818093EF0183818093F001C3
:102E000021E04CE064E08DEE91E00C94590B0895C4
:102E10008CEB92E0BBDF009799F02091F201FC016E
:102E20003081231768F4E20FF11D80818093BE0288
:102E300089E78093BF0281818093C00281E0089579
:102E400080E00895EF92FF921F93CF93DF931F923C
:102E5000CDB7DEB7182F8091B50386FF1EC084E57D
:102E600099830E943906E12E9981F92E15E0F70128
:102E700081917F010E9410071150C9F78091B5031D
:102E800085FF03C08AEF0E9410070F90DF91CF915A
:102E90001F91FF90EF900C948D060F90DF91CF91D2
:102EA0001F91FF90EF90089586E30E94090380919F
:102EB000BE02833511F48BE901C08BE40E94D40576
:102EC00021E04CE065E08CEB92E00E94590B0E94FF
:102ED0007B038CEB92E0B6CFE7DF8091BE028936B0
:102EE00031F081E08093BB0289E28093E60308958C
:102EF000CF9385E390E00E94A1078093B70386E318
:102F000090E00E94A1078093E503CFEFC093D50323
:102F1000C093D703C093D903C093DB03C093DD03F1
:102F2000C093DF03C093E103C093E30324DF109257
:102F3000F30181E08093B603C093E7038FEF9FEF27
:102F40009093BA038093B9031092BC031092BB0311
:102F50001092BE031092BD03C093EB039093C00385
:102F60008093BF031092C2031092C1031092C40356
:102F70001092C303C093EF039093C6038093C503DD
:102F80001092C8031092C7031092CA031092C9038B
:102F9000C093F3039093CC038093CB031092CE03A2
:102FA0001092CD031092D0031092CF03CF910895C9
:102FB000BF92CF92DF92EF92FF920F931F93CF9326
:102FC000DF93CDB7DEB72C970FB6F894DEBF0FBEF8
:102FD000CDBF6C018C010F5F1F4F45E0BE016F5FDD
:102FE0007F4FC8010E941407843008F0F3C0998114
:102FF0009130A9F4833061F46A8185E390E00E9406
:103000009C076B8186E390E00E949C0771DF06C2FB
:103010008091B7030E9410078091E5039AC0923017
:1030200009F051C0813039F081E09A81913009F086
:1030300080E0F82E02C0FF24F3948091F301811107
:1030400004C08EEB92E00E94800603EF11E0F801CD
:103050008081882309F4BBC0F2E00B3B1F0708F016
:10306000B6C031E0033F130719F080E20E94390631
:10307000F80181810E941007F80182810E941007E7
:10308000FF20E1F08AE30E94390693E0F801808195
:103090009817A0F4943038F090FF05C08CE29C871C
:1030A0000E9439069C85EE24E394E90EF801E90FAD
:1030B000F11D80810E9410079E2DE8CFF8018081CC
:1030C000080F111DC4CF933049F480E090E05EDE1C
:1030D000835F914098EC981B892F3BC0903171F52C
:1030E00005ED13E086EDE82E83E0F82EC12CD12CFF
:1030F000F80180818F3FA1F0DD2019F080E20E946D
:1031000039068C2D0E9410078AE30E943906F801C7
:1031100080810E941007F70180810E941007D394DC
:103120000E5F1F4FC394F2E0EF0EF11C38E0C312A4
:10313000DFCFD1104CC08CEC92E047C0913161F4EC
:103140008091D3039091D4036DE770E00E94C4375F
:10315000862F0E9410073BC09231C9F517EEE12E71
:1031600013E0F12E0AEE13E0C12CD12CF70180817F
:103170008F3FF1F0DD2019F080E20E9439068C2D9E
:103180000E9410078AE30E943906F70180810E949D
:103190001007F801329780810E941007F8013197DB
:1031A00080810E941007F80180810E941007D3944B
:1031B000F4E0EF0EF11CC3940C5F1F4F34E0C31218
:1031C000D5CFD11004C088EC92E00E9480060E9406
:1031D0008D0624C144E0BE01695F7F4FC8010E9493
:1031E00014074F81493608F477C07A855885698578
:1031F0007C3009F04BC020E030E080E090E0F90145
:10320000E951FC4F708174131CC0A181A51319C032
:10321000A281A61316C02CE023839C01220F331F2A
:10322000280F391FF901EE0FFF1FE754FC4F1182E1
:103230001082F901EE0FFF1FE554FC4F118210823E
:10324000CFC07F3FD9F44083518362832CE0238336
:103250009C01220F331F280F391FF901EE0FFF1FAA
:10326000E754FC4F11821082F901EE0FFF1FE55465
:10327000FC4F118210821092B603B2C001962C5FEF
:103280003F4F2031310509F0BACFC8C080E090E04F
:1032900020E030E0FC01E951FC4FA081A41315C0EF
:1032A000A181A51312C0A281A6130FC07383F901D7
:1032B000EE0FFF1FE20FF31FEE0FFF1FE554FC4F51
:1032C00081E090E091838083A9C02F5F3F4F0496F7
:1032D00080319105F9F6A2C0E9818091B703E81722
:1032E000C0F190E0F0E09C01295F3F4F2E173F07AF
:1032F00084F13A812091E50332132BC03C813F32A7
:1033000031F442E06CE0C6010E94E90B87C02D81D8
:103310003C32B1F42093D20381E090E09093D40347
:103320008093D3038091B2039091B303E4E02E9F86
:10333000800D911D11249093B3038093B2036EC04E
:10334000E81BF90BEE0FF0E0EB52FC4F30832183CA
:1033500065C080E090E01ADD7C01F801019000205A
:10336000E9F73197E01BF10BF695E795BB24B39491
:10337000BE0EC7018B0D911D835F9140893C910565
:103380000CF048C0F701B1928F0121E0822F880F25
:1033900081502B15D8F441E0B801F601E80FF11D7A
:1033A000CF012C870E9414072C85233058F020FD74
:1033B00009C0D80111978C91843621F4F8018081DD
:1033C0008093B8032F5F0F5F1F4FE0CFFBEBEF162B
:1033D000F2E0FF0618F5F701E20FF11D10821EC0A2
:1033E00022E04CE064E0CE0107960E94590B8FE08A
:1033F0008A8722E04CE064E0CE0107960E94590BD8
:1034000082E08A8722E04CE064E0CE0107960E94C9
:10341000590B04C082EC92E00E9480062C960FB6F5
:10342000F894DEBF0FBECDBFDF91CF911F910F91FA
:10343000FF90EF90DF90CF90BF9008950F931F9370
:10344000CF93DF939091B60391114FC093E0899F82
:1034500080011124F801EE0FFF1FE754FC4F94E0A8
:10346000899FD0011124A951BC4F12969C9197704D
:1034700040E850E0491B51099AEF949F9001959FB5
:10348000300D112435952795359527953183208367
:10349000E801CC0FDD1FC354DC4F288139812F5F39
:1034A0003F4F39832883000F111F05541C4FF8012B
:1034B000408151814115510529F424303105A9F489
:1034C0008BDC11C04130510539F486DC82E090E09C
:1034D000F8019183808309C04230510531F47CDCCE
:1034E000F8011182108219821882DF91CF911F9109
:1034F0000F910895EF92FF920F931F93CF93DF9355
:1035000000D000D000D0CDB7DEB72091E5032A83EC
:103510001B828091D203882341F0833019F487E71E
:1035200091E00FC08DE790E00CC0277030E02A5189
:103530003F4F4DE7429FC001439F900D1124959549
:1035400087959093D4038093D30306ED13E0F12C79
:103550007CE2E72EF801319790819F3FC1F0809186
:10356000B7038F0D89838091D203882311F0EC82F9
:1035700003C09C83F80180818D8321E04CE065E0ED
:10358000CE0101960E94590BCE0101965BDCF394AB
:103590000E5F1F4FF8E0FF12DDCF8091D20388232A
:1035A00041F0833019F41092D20303C0825080930B
:1035B000D20326960FB6F894DEBF0FBECDBFDF91C3
:1035C000CF911F910F91FF90EF9008958091BB02D2
:1035D000882351F069DC89E28093E6038091BB0285
:1035E00081508093BB020895C6CBFF920F931F9327
:1035F000CF93DF93FC01F0800181C281D3811481DC
:103600008FE58093E6031092BB028091B70381118E
:1036100005C08091E503882309F4B1C08091BC0204
:103620008F1104C08091BD02801729F0A4DBF092B5
:10363000BC020093BD028091D1038F3F09F49FC06B
:10364000C093BE02D093BF021093C002CC23F1F00E
:1036500081111CC08091B703181761F0143651F026
:103660008DEA8C0F823010F0CD3739F48FEF8093D4
:10367000D10385C0C43509F482C08D2F807F803688
:1036800009F07DC0D067D093BF025BC0C1DB811160
:1036900005C08091D103882309F471C08091C202D2
:1036A000811107C0E091D103F0E0E053FD4FE491B8
:1036B00001C0E82FE33541F4C43531F49091D103D2
:1036C0009E5F9093D10308C0EC1731F0DF91CF914A
:1036D0001F910F91FF904FCB882369F08091F201E9
:1036E0008E5F8093F20194DB81110EC08091D10333
:1036F0008E5F8093D1038091D103E82FF0E0EF52E9
:10370000FD4F14911F3F59F48091BE028093C20275
:103710008436B9F48091B8038093C00212C010932C
:10372000BE0297E79093BF029091B7039093C002B7
:103730008E5F8093D1031092C2028E3041F011232C
:10374000F1F0DF91CF911F910F91FF90C5CB8CEBE2
:1037500092E01CDBDC01009781F02C9130E08BEBD8
:1037600092E0821B930BA817B90730F4ED01C20F4A
:10377000D31F48814D93F7CF1C92FDDAE0CFDF9144
:10378000CF911F910F91FF900895FF920F931F9378
:10379000CF93DF938C01EC0109900020E9F721978A
:1037A000C81BD90BFC018181823751F487E390E07B
:1037B0000E940D030E947B0381E08093F7032BC0DE
:1037C000833739F5FC2E5F988FE70E945B028C2FC0
:1037D00082500E945B02E801229612E01F1528F435
:1037E00089910E945B021F5FF9CF5F9A0E94690373
:1037F0008AE30E94BA028F7729F084E690E00E9463
:10380000CF05F6CFDF91CF911F910F91FF900C94D0
:103810007B031092F703DF91CF911F910F91FF90DF
:103820000895CF92DF92EF92FF920F931F93CF9361
:10383000DF93CDB7DEB7C054D1090FB6F894DEBF21
:103840000FBECDBF8091F703882309F455C08130A6
:1038500011F58091AE039091AF03A091B003B091A8
:10386000B1032091C302281709F446C085E30E94E2
:10387000BA02813129F48AE30E9409030E947B0382
:103880008091AE039091AF03A091B003B091B103CA
:103890008093C30231C08FE30E94BA02D82E8FE317
:1038A0008D1538F15F988FEF0E945B028E010F5FDC
:1038B0001F4F7801C02E8E2D801B8D1538F480E0AF
:1038C0000E945B02F70181937F01F5CF5F9A81E04F
:1038D00080934201802F8C198D1530F4F80181916D
:1038E0008F010E943906F6CF0E948D068FEF8093DC
:1038F000420181E08093F703C05CDF4F0FB6F8947C
:10390000DEBF0FBECDBFDF91CF911F910F91FF9012
:10391000EF90DF90CF9008958A9A0C94CF058A9803
:103920000C94CF05DF92EF92FF920F931F93CF93EA
:10393000DF93CDB7DEB727970FB6F894DEBF0FBE83
:10394000CDBF95E79983882399F0BE016E5F7F4FC5
:10395000809140040E948907BE016C5F7F4F809177
:10396000F9030E94890785E58E8386E0D82E02C080
:10397000DD24D3940E9492030E94690316E080E83C
:1039800091E0CADF80E093E0CADF1150C1F780E028
:1039900093E0C2DF80E891E0C2DF80E891E0BCDF25
:1039A0008A9887E390E00E940D0383E00E94D4058B
:1039B0005F988FE70E945B028091FC038D0D0E944F
:1039C0005B02CE0101967C018C01F80181918F018F
:1039D0000E945B02802F8E198D15B8F38091FC0335
:1039E000882339F08AEF93E00E944E0A0E945B021E
:1039F000F5CF5F9A0E9469038AEF93E00E94330A31
:103A000015E18AE30E94BA028F7731F0115021F05C
:103A100081E00E94D405F5CF0E940E0E27960FB6C6
:103A2000F894DEBF0FBECDBFDF91CF911F910F91F4
:103A3000FF90EF90DF900895CF93DF93EC018981A1
:103A400081110CC08091F9030E94100780914004FD
:103A50000E941007DF91CF910C948D068936E1F416
:103A600041E069EF73E0CE0102960E941407609175
:103A7000F90380E690E00E949C0741E060E474E076
:103A8000CE0104960E9414076091400481E690E004
:103A9000DF91CF910C949C078AEF93E00E94330A48
:103AA00021966991662329F08AEF93E00E94380AF3
:103AB000F8CF80E0DF91CF9135CFCF92DF92EF92B8
:103AC000FF920F931F93CF93DF931F92CDB7DEB773
:103AD00080913E04882309F486C0C090AE03D09044
:103AE000AF03E090B003F090B103833009F061C000
:103AF0008FE30E94BA02182F8630C8F084E894E061
:103B00000E94330A5F988FEF0E945B0280E00E9460
:103B10005B02082F115049F080E00E945B02682F81
:103B200084E894E00E94380AF5CF5F9A01C000E073
:103B30000E940E0E10923E04053709F054C041E079
:103B4000BE016F5F7F4F87E894E00E9414070197E2
:103B500059F599818091F903981326C080918B04BF
:103B6000853571F480918604882339F084E894E0E7
:103B70000E944E0A0E943906F5CF0E948D0633C07E
:103B80008091860484508093860484E08093850429
:103B90006AE084E894E00E94380AE091AA03F09178
:103BA000AB0388E009951FC084E894E00E94330AC3
:103BB0001AC0823059F48091F8039C2D981B9830DC
:103BC00090F00E940E0E10923E040DC0813059F408
:103BD00087E390E00E940D030E947B0382E08093C4
:103BE0003E04C092F8030F90DF91CF911F910F9187
:103BF000FF90EF90DF90CF9008950E94F2148823F9
:103C000019F083E080933F0480913F0481508093BA
:103C10003F04882321F083E080933D04089581E0F0
:103C200081CE0F931F93CF93DF93EC0110E0212FF0
:103C300030E0F901EE0FFF1FE20FF31FE454FF4FD6
:103C40000491F901EE0FFF1FE20FF31FE354FF4F42
:103C500025913491002399F0209739F480E20E9455
:103C60003906802F0E94390608C08881801305C05C
:103C7000CE01F901099581E003C01F5FD8CF80E034
:103C8000DF91CF911F910F910895CF93C091420181
:103C900080934201809186048823A1F184E894E016
:103CA0000E944E0AE091C4028A3011F08D30F9F47E
:103CB000EE2381F3F0E0EB53FD4F108285EC92E0B0
:103CC000B0DF811111C086EF92E00E94800685EC82
:103CD00092E00E9475068EED92E00E94800680E0E0
:103CE00090E09FDF0E948D061092C402D3CFE03493
:103CF00088F691E09E0F9093C402F0E0EB53FD4FE5
:103D00008083C8CFC0934201CF910895E4E6F0E0EC
:103D100080818B7F8083299A84B1876084B92398BE
:103D200080E58CBD8DB581608DBD08951F93CF93C7
:103D3000DF93EC0116E0115048F089910E941007C2
:103D40001123C9F38AE30E943906F5CFDF91CF91A1
:103D50001F910895EF92FF920F931F93CF93DF93DC
:103D6000EB01FC01E080F180FE24EF24FE240281BF
:103D700013811027012710276F2DCE010E949C0769
:103D80006E2DCE0101960E949C07612FCE010296F6
:103D90000E949C07602FCE010396DF91CF911F9167
:103DA0000F91FF90EF900C949C070F931F93CF936C
:103DB000DF93CDB7DEB765970FB6F894DEBF0FBEC1
:103DC000CDBF89E68A8384E68B8360E473E0CE010D
:103DD00004960E944039CE0101960E944A0881E66D
:103DE0008B8362E373E0CE0104960E944039CE01DA
:103DF00001960E944A088EE68B8364E273E0CE014E
:103E000004960E944039CE0101960E944A0887E636
:103E10008B8368E173E0CE0104960E944039CE01A5
:103E200001960E944A0880E78B8363E173E0CE012C
:103E300004960E944039CE0101960E944A088EE401
:103E40008B836BE073E0CE0104960E944039CE0173
:103E500001960E944A088FE68B8368E073E0CE01EA
:103E600004960E944039CE0101960E944A088AEFCA
:103E70009FE00E94A107843A71F58BEF9FE00E94BA
:103E8000A107803541F58CEF9FE00E94A1078535A1
:103E900011F58DE68B8361E073E0CE0104960E94FC
:103EA00040398DEF9FE00E94A107BE01665F7F4F02
:103EB0000E9489078EEF9FE00E94A107BE01645F08
:103EC0007F4F0E9489078FEF9FE00E94A107BE01EC
:103ED000625F7F4F26C08DE68B836AEF72E0CE0172
:103EE00004960E944039E0E0F0E000E010E081E25A
:103EF000809357009491090F111D3196E032F1051E
:103F0000B9F7BE01665F7F4F80E00E948907BE015E
:103F1000645F7F4F812F0E948907BE01625F7F4FE0
:103F2000802F0E948907188ACE0101960E944A08B4
:103F300065960FB6F894DEBF0FBECDBFDF91CF916F
:103F40001F910F91089517D58BEC94E00E94D72E06
:103F5000892B39F18BEC94E00E94C32E85EE94E01E
:103F60009093E4048093E30482E052D68091D604D7
:103F70009091D704892B19F00E94BC2DC7D48AEEEA
:103F80009CE09093E0048093DF0485E041D680912B
:103F9000D6049091D704892B19F00E94BC2DB6D479
:103FA00026D587EC94E00E94D72E892B31F087EC40
:103FB00094E00E94C32E0C94F22C0895CF92DF92CD
:103FC000EF92FF920F931F93CF93DF938C01EB013E
:103FD000CB010E94A1077E018FEFE81AF80AC70102
:103FE0000E94A107D82ECE010E94A107C82EC701AA
:103FF0000E94A1072C2D30E03D29F8013183208358
:104000007E01F2E0EF0EF11CC7010E94A10723968A
:10401000CE010E94A107D82EC7010E94A107F82E49
:10402000CE010E94A1072F2D30E03D29F8013383F6
:104030002283DF91CF911F910F91FF90EF90DF903E
:10404000CF900895CF93DF9300D000D0CDB7DEB7E7
:1040500069E670E0CE010196B1DF89819A81909383
:104060000707809306078B819C81909309078093B3
:10407000080761E770E0CE010196A0DF89819A818F
:104080009093FF068093FE068B819C81909301079D
:10409000809300076DE670E0CE0101968FDF898185
:1040A0009A8190930307809302078B819C81909360
:1040B00005078093040786E794E05AD44ED10E9406
:1040C00059310F900F900F900F90DF91CF9108957D
:1040D000269A2E9888EC0E94D4052E9A88EC0E948D
:1040E000D4052ED482E690E00E94A10780930803B5
:1040F00083E690E00E94A1078093090384E690E0A4
:104100000E94A10780930A0385E690E00E94A10720
:1041100080930B0386E690E00E94A10780930C0336
:1041200087E690E00E94A10780930D0388E093E06A
:1041300008D48091080380930E0380910903809333
:104140000F0380910A038093100380910B038093E7
:10415000110380910C038093120380910D038093CF
:104160001303EED41092A7031092A6036FE170E040
:104170008BEC94E00E94B72E62EE74E087EC94E042
:104180000E94B72E88E690E00E94A107882351F094
:1041900086EA94E0EDD388E093E00E942231109209
:1041A0000703089582E0809307034CCF1F93CF93BA
:1041B000DF93FC018181893621F4DF91CF911F913A
:1041C00087CF8336C1F4C6E0D7E014E0115060F029
:1041D000899140E261E090E00E9491061123B1F3E1
:1041E0008EE20E943906F2CF80E20E9439068EE00C
:1041F00093E09CDD0AC0843669F4809106038F5FEA
:104200008370809306030E941007DF91CF911F9166
:104210000C948D068E3629F4DF91CF911F910C946A
:104220004833DF91CF911F910895CF93DF93EC0135
:10423000009719F4DF91CF9105CF69E670E04696BB
:1042400089DD8E899F899093070780930607888D63
:10425000998D909309078093080761E770E0CE017C
:10426000829678DD8AA19BA19093FF068093FE063B
:104270008CA19DA190930107809300076DE670E0EB
:10428000CE014A9667DD8A8D9B8D909303078093BC
:1042900002078C8D9D8D9093050780930407EB8119
:1042A000FC811582148286E794E062D356D0DF91B8
:1042B000CF910C945931E091E304F091E40424810E
:1042C00035818091CF049091D0042817390709F4E3
:1042D0006EC0089580910703823029F00E94F22F6A
:1042E000809307030895E091DF04F091E004309794
:1042F00059F08091DE0481FF07C08481958181158A
:104300009B4711F40C94783308951F93CF93DF9358
:10431000C091E304D091E404809143048823C9F060
:1043200089A18A3F49F482E073D40E94BC2DEED269
:1043300082E00E94D40507DE19A181E0810F89A3E4
:1043400081E494E00E944E0AFE01E10FF11D82A378
:10435000E3CFDF91CF911F91089589E790E00E940C
:104360007339292F30E040E050E0582FC901842BE9
:10437000952B9093D0048093CF0439D41092D2041B
:104380001092D1040895E0910605EA3F40F491E0CF
:104390009E0F90930605F0E0EF5FFA4F8683089535
:1043A000E091E304F091E40482E0848F0895EF92B9
:1043B000FF920F931F93CF93DF930091E30410912B
:1043C000E4048091DE0486FF1CC0F80111A281E0A4
:1043D000848F8091D1049091D2049C012F5F3F4F34
:1043E0003093D2042093D104892B29F48091420187
:1043F00084608093420166EA7EE0C8014D960E9487
:10440000B72EF801848D8230B9F481E0848F80E189
:104410008093DE048091D1049091D204019790930F
:10442000D2048093D104892B09F0BDC08091420150
:104430008B7F80934201B7C08091DE04982F9073E8
:1044400011F487FF0AC0E091E304F091E40411A2A3
:10445000DF01A45EBE4F1C92148E81FF2EC0E0903F
:10446000D604F090D704E114F10439F13091E1045D
:104470002091E20485E891E29093A9038093A80338
:10448000C32FD22F699184E894E00E94380A80916A
:104490008604803431F4E091AA03F091AB0384E008
:1044A0000995F1E0EF1AF108E114F10459F7E091F0
:1044B000AA03F091AB0384E009958091DE04982F64
:1044C000947082FD06C0282F237019F4887409F4B3
:1044D00051C0C091E304D091E404992311F17E010D
:1044E00084EEE81A8EEFF80AF7014081442309F4BC
:1044F00041C050E0BE01635E7E4F8091E104909127
:10450000E2040E945439F701608170E08091E10477
:104510009091E2040E944D2CCE014D960E94CD2E2A
:1045200029C049A1442331F17E01F2E2EF0EF11CD2
:1045300050E0B7018091E1049091E2040E94543967
:1045400069A170E08091E1049091E2040E944D2CF9
:10455000CE014D960E94CD2E49A150E0B701CE016B
:10456000835E9E4F0E945439FE01E45EFE4F89A196
:10457000808319A2F801848D8130A9F4035E1F4F56
:10458000C8010E94D72E892B71F0C8010E94C32E4A
:10459000C091420184E08093420187E391E00E9450
:1045A0009609C0934201DF91CF911F910F91FF9027
:1045B000EF9008952898962F9F71982B9EBD0DB46B
:1045C00007FEFDCF1EBC0DB407FEFDCF67FD03C087
:1045D0008EB5289A08951EBC0DB407FEFDCFF8CF06
:1045E00028986F71682B6EBD0DB407FEFDCF4EBDD0
:1045F0000DB407FEFDCF289A089528982AE32EBD12
:104600000DB407FEFDCFFB01860F971FE817F907D2
:1046100039F01EBC0DB407FEFDCF2EB52193F6CFA9
:10462000289A089528982AE72EBD0DB407FEFDCFDD
:10463000FB01860F971FE817F90731F021912EBD76
:104640000DB407FEFDCFF7CF289A08951F93CF939F
:10465000DF93182F1076C12FD0E02091D50430E0E1
:10466000C217D30779F043E06FE180EAB9DFAE010A
:1046700085E0559547958A95E1F76FE180E8B0DFD1
:104680001093D504DF91CF911F910895CF93DF93BD
:104690001F92CDB7DEB7682F6983D8DF698180E0CC
:1046A0000F90DF91CF9186CF1F93CF93DF931F920F
:1046B000CDB7DEB7182F6983C9DF4981612F80E448
:1046C0000F90DF91CF911F918BCF1F93CF93DF93EB
:1046D0001F92CDB7DEB7162F682F84ED7983E4DF04
:1046E000612F86EDE1DF7981672F87EDDDDF8AEECF
:1046F000CDDF80FDFCCF0F90DF91CF911F9108950A
:10470000209A289A299A219A2398229A209A8CB53D
:1047100080618CBD8CB5877F8CBD8CB58F7D8CBD49
:104720008CB58E7F8CBD8CB58D7F8CBD8DB5816039
:104730008DBD8CB580648CBD4FEF60E08FEF50DF96
:1047400082E390E00E94CF058DE1A0DF80FFFCCFE7
:1047500080E096E09093D4048093D30460E088E0F6
:10476000A3DF66E089E0A0DF60E08CE09DDF66E02B
:104770008DE09ADF6FEF8AE097DF6FE18BE094DFE7
:1047800060E084E091DF60E085E08EDF6DE080EC4A
:104790008BDF60E081EC88DF42E362EC80E820DFC1
:1047A00062E186EC81DF6CE087EC7EDF62E184EC25
:1047B0007BDF6EEE8AEC78DF65E08BEC75DF60E026
:1047C00071E080E182DF8FE141DF40EC6BE180E866
:1047D00007DF44E06FE180E803CFCF92DF92EF92F2
:1047E000FF920F931F93CF93DF938C017B01EA011C
:1047F000690140E86FE180E8F3DE40E86FE180EABC
:10480000EFDE60E082E050DF60E083E04DDF6C2FA0
:10481000600F86E049DFC8018C0F9D1F692F87E07C
:1048200043DF40E060E08AE7DBDEB701C801FADE83
:10483000209719F0B601CE01F5DE48E06FE180E87F
:10484000DF91CF911F910F91FF90EF90DF90CF906C
:10485000C7CEEF92FF920F931F93CF93DF938C01FC
:104860007B0189E313DF882309F440C06091D304FE
:1048700080E01ADF6091D40481E016DF60E08AE313
:1048800099DEC82FD0E0D093D404C093D30460E065
:104890008AE390DED82BD093D404C093D30460E095
:1048A0008AE388DEC82FD0E060E08AE383DED82B7D
:1048B00060E08AE37FDE60E08AE37CDECF3E85E075
:1048C000D807B8F40C171D0708F4E801B701CE01AA
:1048D00094DE6091D3048CE0E7DE6091D4048DE037
:1048E000E3DE40E46EE180E87BDE03C080E090E040
:1048F00001C0CE01DF91CF911F910F91FF90EF90FA
:1049000008956AE077E08CED95E0A3CF8091D6041E
:104910009091D7048733910538F420E030E040E0EF
:1049200050E06AE077E00BC02091E1043091E204AE
:10493000AC01465351096AE077E086E390E04DCF41
:10494000DFCECF93DF93EC01688184EEADDE698129
:1049500085EEAADE6A8182EEA7DE6B8183EEA4DE9D
:104960006C8180EEA1DE6D8181EEDF91CF919CCED6
:10497000BC0184E1AACECF93DF93C3DF9093D70429
:104980008093D604009781F18F3E954018F0DF9117
:10499000CF919ECBC0911607D091170780E098E089
:1049A00078D7C817D90759F481E032D18091D6045D
:1049B0009091D704892BC1F00E94BC2D12C0C091E8
:1049C0001607D091170786E098E063D7C817D90774
:1049D00059F40E941C2D8091D6049091D704892B04
:1049E00019F0DF91CF9192CFDF91CF910895089583
:1049F000FB0141505109460F571FE417F50778F4A2
:104A0000208130E0322F22276181260F311D820F55
:104A1000931F8217930708F401963296EECFE4179E
:104A2000F50751F4208130E0322F2227820F931FA7
:104A30008217930708F401960895FC015381560FDD
:104A40005093DD04872F99274281480F4093DC045F
:104A5000A181A093DB04E081E093DA04242F30E00D
:104A60002817390748F481E08A0F8093DB0481110D
:104A700003C0EF5FE093DA04852F90E07727861775
:104A8000970788F44F5F4093DC0441110CC080917C
:104A9000DB048F5F8093DB04811105C08091DA0411
:104AA0008F5F8093DA0408952091E3043091E40449
:104AB000BC01C9010896C1DFE091E304F091E40470
:104AC0008091DA0480878091DB0481878091DC0407
:104AD00082878091DD048387089544E150E068E196
:104AE00077E080E090E084DF009721F09827892725
:104AF000982708958FEF9FEF0895CF93DF93C0918C
:104B00001A07D0E0DC2FCC2780911B07C80FD11DDE
:104B100048E050E064E277E0CE010E9769DFAE0135
:104B2000445151096CE277E063DF009721F0982748
:104B30008927982702C08FEF9FEFDF91CF910895CB
:104B40001092FD061092FC061092FE0481E0809304
:104B500017031092EF0C1092EE0C0895E091EE0CFA
:104B6000F091EF0C20911803309119032F5F3F4F04
:104B700021154DE7340710F020E030E1522F432F8C
:104B8000E417F50799F33093190320931803EF2BDB
:104B900041F5109217035093EF0C4093EE0C709375
:104BA000F10C6093F00C009749F41092EA0C10920B
:104BB000EB0C1092EC0C1092ED0C0DC0FC0120815E
:104BC00031813093EB0C2093EA0C82819381909396
:104BD000ED0C8093EC0C80E48093F20C8AEE9CE068
:104BE000089581E08093170380E090E0089520917C
:104BF000FC063091FD06232B39F410921703909395
:104C0000FD068093FC06089581E0809317030895C4
:104C10000F931F93CF93DF93C091E304D091E404EB
:104C2000843009F4A4C120E437E03093E2042093F7
:104C3000E1043093D9042093D804833059F4898D4A
:104C40008F70833009F016C688899989892B09F0FD
:104C500011C677C0823009F079C080911D038F5F43
:104C600080931D03811113C080911C038F5F80937B
:104C70001C0381110CC080911B038F5F80931B0369
:104C8000811105C080911A038F5F80931A031092DF
:104C9000D7041092D6041092E90C1092E80C298DDA
:104CA000822F8D7F853041F48A8D8F5F8A8F883780
:104CB00009F0E0C5198EDEC5222309F4DBC5888919
:104CC0009989892BD1F18A8D9FEF980F9A8F811145
:104CD000D1C58B8D883031F09FEF920F923040F428
:104CE000853031F4198E80E88093DE04E4DA6FC4F5
:104CF000853038F493E0082E01C0990F0A94EAF742
:104D000001C090E39A8F8F5F8B8F822F8F708430DA
:104D100009F4F5C358F4813009F4E5C2833009F091
:104D2000A9C584E08093DE04C6DA85C4863009F420
:104D3000E6C3883009F09EC5E2C32F70233009F026
:104D400099C588E08093DE04B6DA38C4853019F559
:104D5000E091DF04F091E00484819581892B09F4CE
:104D600089C51092E4041092E30484E397E09093E1
:104D7000E2048093E1049093D9048093D8041092C4
:104D8000E90C1092E80C1092D7041092D60488E037
:104D90008093DE04EBC080911807853409F06AC562
:104DA000C0911A07D0E0DC2FCC2780911B07C80FD9
:104DB000D11D8091D6049091D7048C179D0708F4DB
:104DC00059C5D093D704C093D60480911E078F7322
:104DD00009F050C580911F0781114CC5009106074D
:104DE000109107070115110531F480910807909182
:104DF0000907892BA1F08091280790912907801736
:104E0000910709F037C520912A0730912B0780912F
:104E10000807909109072817390709F02BC55DDEAF
:104E2000019609F027C580912107863009F4F6C064
:104E30008131B1F1813009F01DC580912C07883096
:104E400009F018C510922C0780912E0790912F071A
:104E5000873FCFEF9C0710F0099601C0089690930A
:104E60002F0780932E078091240790912507909318
:104E70002907809328078091260790912707909310
:104E80002B0780932A07109325070093240780910E
:104E90000807909109079093270780932607EEC48F
:104EA0006C97D093D704C093D6048AEE9CE090937D
:104EB000E0048093DF0420912E0730912F0740916A
:104EC0002C0750912D076091240770912507A09120
:104ED0002607B0912707E091DF04F091E0048DE010
:104EE000E931F80708F0C6C484819581009719F16B
:104EF0002817390701F586819781009719F048171F
:104F00005907C9F480819181009729F4C281D38126
:104F1000CD2B49F416C08F3F1FEF910721F4C281BA
:104F2000D381219671F06817790729F482819381E2
:104F3000A817B90731F0BF96F093E004E093DF04BF
:104F4000CACF1092E4041092E30482E08093DE045E
:104F500084E397E09093E2048093E1049093D90472
:104F60008093D8041092E90C1092E80CB3D9809188
:104F7000E80C9091E90C009709F47CC49C01245E34
:104F80003F4F3093D7042093D60430931A072093D1
:104F90001B07E091DF04F091E004208520932007B7
:104FA00021E1209321070896982789279827909335
:104FB00031078093300710923307109232078481B3
:104FC000958190932D0780932C07868197819093EC
:104FD0002F0780932E0780910607909107079093E3
:104FE00025078093240780910807909109079093E3
:104FF00027078093260780819181909329078093CA
:1050000028078281938190932B0780932A0780E45D
:1050100097E09093E2048093E1040AC46EDD019668
:1050200009F028C45091FE0440913907552369F1D5
:1050300020912E0730912F078091E9049091EA0486
:105040002817390711F520912C0730912D078091F1
:10505000EB049091EC0428173907B9F42091240748
:10506000309125078091E5049091E60428173907CF
:1050700061F420912607309127078091E7049091F1
:10508000E8042817390709F445C1842F8F7382304B
:1050900019F042FDEFC317C080912E0790912F07A2
:1050A00090931503809314032091FC063091FD0624
:1050B0008217930709F0E9C3511176C010921703C4
:1050C000C5EED4E07BC084E18093390788E290E0AC
:1050D0009093D7048093D60480E58093380780911D
:1050E00033079091370790933307309132079091AF
:1050F000360790933207309336072091310790910D
:10510000350790933107209335079091300790939E
:1051100017034091340740933007909334078F5F13
:105120008093370781110FC081E0830F809336078A
:10513000811109C081E0820F80933507811103C07E
:105140009F5F9093340780912C0790912D07909347
:1051500015038093140320912E0730912F0730936D
:105160002D0720932C0790932F0780932E07809173
:105170002407909125079093290780932807809111
:1051800026079091270790932B0780932A07109367
:1051900025070093240780910807909109079093B1
:1051A0002707809326072AC3573019F4C5EED4E0A9
:1051B00002C0C0E0D0E081E080931703209709F49B
:1051C00059C3D093E404C093E30483E08A8F888FAB
:1051D0001E8A84E08F8B1B8E80912E0790912F0763
:1051E0009D838C8380912C0790912D079F838E83C4
:1051F00080912407909125079983888380912607C1
:10520000909127079B838A8381E0898F80911A037D
:105210008C8780911B038D8780911C038E878091E2
:105220001D038F8781E090E0998B888B80913307F5
:105230008B87809132078A87809131078987809197
:105240003007888781E090E02FDC80913807282F95
:10525000207F30E0213531050CF445C082958F70F8
:1052600090E00597880F991F880F991F30911603BA
:1052700020E0E22FF0E0E817F9078CF5E65FF84F41
:1052800036A9311105C020931703109216032BC0C5
:10529000313011F42F5FEDCF3230E1F447A94430C3
:1052A000C9F4209317033093160380AD90E0982F34
:1052B000882721AD822B9093150380931403873A9E
:1052C00015E0910710F086EA95E09B8B8A8B9D8B09
:1052D0008C8B09C047A9442311F0240FCACF209317
:1052E00017033093160382E18093390782E080939D
:1052F000400784E08093410785E08093420786EA77
:10530000809343078CE290E09093D7048093D60477
:1053100080E621C285EE94E09093E4048093E30458
:105320001092DE0442FF04C01092FE0480E2B1C17C
:105330008091380782958F70880F880F80931703AC
:10534000C81BD1096497D093D704C093D6045F706B
:10535000523021F4842F8F738231E9F0CD2B19F470
:10536000842F8370C1F0909130078091ED049813E1
:10537000E6C1909131078091EE049813E0C19091BD
:1053800032078091EF049813DAC19091330780912E
:10539000F0049813D4C144FF58C06091F504709193
:1053A000F6046115710509F450C081EF94E045DB06
:1053B000309134078091DA04381347C020913507C3
:1053C0008091DB04281341C0909136078091DC0462
:1053D00098133BC0809137074091DD04841335C09A
:1053E0003093F1042093F2049093F3048093F40437
:1053F0008091000581111EC09091FB048091FD04F5
:105400002091FF04821B292F269526952695821B25
:10541000980F9093FB042091FC04322F369536951B
:10542000831B820F8093FC04969596959695980F12
:105430009093FD0481E08093DE048091FD048093CD
:10544000FF041092F6041092F5044091FE04842F9C
:105450008F7090E0FC013197E830F10508F00AC246
:10546000E45BFF4F0C94FA378091DE0480FF02C2A8
:1054700083E08093FE0480E48093DE041092F604BF
:105480001092F5048091D6049091D704009709F406
:105490008DC022E42093DE0407DB88C080913907A9
:1054A00080FF31C044FD2FC08091F5049091F60437
:1054B000892B09F0DFC18091D6049091D704019621
:1054C000F3DA2091DE04822F80618093DE048091E4
:1054D000D6049091D704892B19F022612093DE0421
:1054E0000E945B2181E090E09093F6048093F504A4
:1054F00088E08093FE0410920005C5EED4E081E1BF
:105500008093390721C185FF1CC080913E0790E040
:10551000982F882720913F07822B2091E10430911A
:10552000E204280F391F3093E2042093E104209114
:10553000D6043091D704281B390B3093D70420931D
:10554000D6048091D6049091D704009741F044FD91
:1055500006C02091DE0422602093DE04A5DA80914B
:105560003A0790E0982F882720913B07820F911DE2
:1055700090931503809314032091F9043091FA0459
:105580002817390710F0892B21F430931503209345
:10559000140380911403909115039093F804809361
:1055A000F7048091DE04837009F464C11092E90C61
:1055B0001092E80C0E945B21C5EED4E08091DE04DD
:1055C00085FF07C01092E90C1092E80C198E84E157
:1055D00097CF84FF0CC01092E90C1092E80C81E088
:1055E00090E0998B888B84E0898F1B8E88CF2091E7
:1055F000E80C3091E90C21153105E1F080FF02C083
:10560000198A188A88899989009781F48A899B89DF
:105610008217930720F49093E90C8093E80C809113
:10562000E80C9091E90C998B888B04C09093E90C5D
:105630008093E80C1B8E8091D8049091D9049093AC
:10564000E2048093E1048091E80C9091E90C892BAD
:1056500059F088899989009739F088969093D704F2
:105660008093D60488E10BC08091DE0481FF02C1E3
:1056700088E290E09093D7048093D60480E18093F1
:10568000390768C08091DE0480FFF4C01092FE04E8
:1056900080E18093DE040E945B21ECC08091D604FF
:1056A0009091D704009709F0FFD990913907809124
:1056B000DE0490FF10C080FF0AC087E08093FE04E4
:1056C0001092FF041092F6041092F5041EC086E0BA
:1056D0008093FE041AC080FF21C085E08093FE0401
:1056E0001092F6041092F504C5C08091D6049091F2
:1056F000D704009709F0D8D98091390780FF0EC0F0
:1057000087E08093FE041092FF0481E090E0CCD902
:1057100080E18093DE040E945B2111C08091D60459
:105720009091D704892B59F4A5C08091DE0480FFA5
:10573000A1C087E08093FE041092FF049BC080E12B
:1057400080933907C5EED4E088E290E09093D704C7
:105750008093D60480E5809338078885809334074A
:105760008985809335078A85809336078B8580935A
:1057700037078C85809330078D85809331078E8520
:10578000809332078F858093330786E080932107CB
:105790008C819D8190932D0780932C078E819F8112
:1057A00090932F0780932E0780910607909107070B
:1057B000909325078093240780910807909109070B
:1057C00090932707809326078881998190932907D2
:1057D000809328078A819B8190932B0780932A07C7
:1057E000898D84FF05C010923B0710923A0706C0CE
:1057F00085E080933A0786EA80933B0780E48093B4
:1058000020078091D6049091D70490931A07809333
:105810001B0710923F0710923E0710923D0710920F
:105820003C076BD98095909590933D0780933C07FA
:1058300085E4809318071092190710921F071092A1
:105840001E0780911E0390911F03019690931F03E2
:1058500080931E0390931C0780931D0710922307CB
:10586000109222073AD980959095909323078093C0
:10587000220704C01092D7041092D6041092DE04BE
:10588000DF91CF911F910F91089581E080931703CD
:1058900000CC98278927982708959C01AB011616FC
:1058A000170674F47093E90C6093E80C8091D804A7
:1058B0009091D9042817390719F0B9010C9454397B
:1058C0000895CF93DF9310922303409126075091C0
:1058D00027076091280770912907E0E0C0E0D0E039
:1058E000FBE0E830F0F4FE9FE0011124C85DDC4FDE
:1058F000288139812115310591F08A819B8100979A
:1059000071F04217530759F46817790741F4E0938F
:105910002303DE01149686E0E0E2F7E059C0EF5F72
:10592000E0CF1092230320E03BE0283090F4329F38
:10593000E0011124C85DDC4F88819981892B39F4FD
:105940008A819B81892B19F4209323032FC02F5F19
:10595000ECCF20932303283049F5A09121038A2F0F
:1059600090E070E0C0E060E0BBE0683098F4B69F83
:10597000F0011124E85DFC4FE285AC014E1B51099A
:10598000272F30E0241735071CF4C62F7A2F7E1BF3
:105990006F5FEBCF70932003C0932203C093230368
:1059A0008BE0C89FE0011124C85DDC4F8091260781
:1059B00090912707A0912807B0912907FE018193B4
:1059C0009193A193B1939F0186E0E0E2F7E0D901C2
:1059D00001900D928A95E1F7809121038A87DF91EA
:1059E000CF910895209121032F5F209321031092DE
:1059F00023037BE030E0609123036830E0F4769F7E
:105A0000F0011124E85DFC4F828193814081518136
:105A1000842B952B892B59F08285A901481B5109AC
:105A20004837510524F010821182128213826F5F71
:105A300060932303E0CF08958091D6049091D7041A
:105A40001092D7041092D6048A9708F40895809192
:105A50001E0790911F07811521E0920729F08115FB
:105A6000924009F471C008952091300730913107B8
:105A700080910607909107072817390709F07BC026
:105A800020913207309133078091080790910907E0
:105A90002817390709F06FC014DF80E092E0909377
:105AA0001F0780931E0786E0E0E2F7E0AAE2B7E076
:105AB00001900D928A95E1F786E0EEE0F3E0A0E236
:105AC000B7E001900D928A95E1F786E0EEE0F3E011
:105AD000A0E1B7E001900D928A95E1F786E0EAE255
