:10000000A5C10000C9C10000C7C100000C9486133F
:10001000C3C10000C1C10000BFC10000BDC10000DC
:10002000BBC10000B9C100000C946F37B5C100001E
:10003000B3C10000B1C10000AFC10000ADC10000FC
:10004000ABC100000C941F13A7C10000A5C10000A4
:10005000A3C10000ABC400009FC100009DC100000F
:100060009BC1000099C1000097C1000095C100002C
:1000700093C1000091C100008FC100008DC100003C
:100080008BC1000089C1000087C1000085C100004C
:1000900083C1000081C10000B22AB82CCC2ACC2B2D
:1000A000F32B132C1D2CC02B42347434893574343B
:1000B0008935BC34E4348935313559354D090A6DFB
:1000C000E40942530943590345542146360C4D7106
:1000D0000C47390C52FB07544D1857750856BE098A
:1000E00058410E633C33657C09663A1C6C420971C9
:1000F0004E2274560575901D78210341201700008B
:10010000002A03430055004E0000001603620075EC
:1001100000730077006100720065002E00640065C6
:100120000000000403090409024300020100807D6D
:100130000904000001020201000524000110052449
:1001400001030104240206052406000107058203B9
:100150000800FF09040100020A000000070504026C
:100160004000000705830240000012011001020058
:100170000008EB034B2000000102DC01202F2000CF
:10018000203D2000072E050DD391FF080500000C2F
:100190000021656A2D3B1322F862073F181D1CC71A
:1001A00000B0876BF8B611EA2A001F41000D2E2D12
:1001B00007D3913D04320000060021656A55E43002
:1001C00023B900070018146C070090876BF85611CC
:1001D000E92A001F410000030F1E2627000000032C
:1001E0000F1E2536386700030F2567406050000357
:1001F0000F275188838100030F2750C8C3C20027EF
:100200000000000000000067000000000000005037
:10021000000000000000008100000000000000C29B
:10022000000000000000504C4C310D0A00504C4CB6
:10023000300D0A005620312E36372043554E00200F
:100240002F2000203D2000416C6C6F6320666169A7
:100250006C6564004F4B0050726F626C6D6573206B
:1002600061742000206279746573206F66205241AA
:100270004D202D200074657374696E6720004C4F0B
:1002800056460D0A00424F56460D0A004552523A54
:100290004343410D0A000007022E030D04E905CA7D
:1002A000070C0B060D210E650F6A10C8119312037F
:1002B00015341733181819161B432156250026111B
:1002C00029592C812D353EC34E2F4100454F420DFB
:1002D0000A004E2F41004E2F410000535300547D21
:1002E0007DFFFF4B4B7E7E0020697320756E6B6E29
:1002F0006F776E2920557365206F6E65206F6600DD
:100300003F20280041343530353500413435303513
:100310003500303000302E302E302E300032333267
:1003200033003139322E3136382E302E310032350D
:10033000352E3235352E3235352E30003139322ECC
:100340003136382E302E3234340031008FEF82B9FE
:1003500088B980E8809374001092750011241FBE44
:10036000CFEFD0E2DEBFCDBF11E0A0E0B1E0ECE224
:10037000F4E700E00BBF02C007900D92AE33B10767
:10038000D9F72DE0AEE3B1E001C01D92AD32B20766
:10039000E1F70BD00C94143A33CEF89481E085BF8A
:1003A00082E085BFE0E0F0EF09942FE088E190E083
:1003B0000FB6F894A895809360000FBE209360005C
:1003C00090E080E80FB6F89480936100909361000C
:1003D0000FBEBCDF04B603FE0AC083E390E0DCD5A9
:1003E000882329F060E083E390E0D1D5D6DF8091C7
:1003F000B6038111FFCF89EF87BD84E085BD82E020
:1004000084BD80936E00109280008AE0809381000A
:1004100084B7877F84BF519A0E94041F9CD70E9493
:100420003F370E94ED170E94200E0E94E62089EBC4
:100430009EE19093AC038093AB0381E080934201F3
:1004400059980E942438EDD10E947C105AD30E9402
:10045000851C0E94D11D0E9477150E942120F1CF9A
:10046000292F33272230310559F02330310569F027
:1004700021303105E9F482E190E02AE631E01CC048
:1004800083E490E027E231E017C09927813091059D
:1004900049F028F0029761F4E1E0F1E005C0E3E201
:1004A000F1E002C0EBE0F1E0849190E09F0104C034
:1004B00080E090E020E030E0FA013183208308956D
:1004C0008EBD0DB407FEFDCF8EB50895EF92FF925D
:1004D0000F931F93CF93DF931F92CDB7DEB7482FB3
:1004E0008A3008F048E088E0489F70011124F70145
:1004F000EA52FE4F7F018BE290E0F70164918C019C
:100500000F5F1F4F498343D5FFEFEF1AFF0A498161
:100510000333110511F0C801F0CF4550453010F4F8
:1005200061E101C067E184E290E00F90DF91CF913B
:100530001F910F91FF90EF902AC5CF93DF9382E038
:1005400090E0FC01E555FE4F6491EC0121961FD52A
:10055000CB32D10511F0CE01F4CF87E390E0FC015E
:10056000E35BFE4F6491EC01219611D5C036D105B5
:1005700011F0CE01F4CF88E0DF91CF91A7CF5F9843
:10058000806C9EDF80E09CDF5F9A0895CF93DF93BD
:100590001F92CDB7DEB75F988064698391DF698170
:1005A000862F8EDF5F9A0F90DF91CF9108955F982D
:1005B00087DF5F9A0895EF92FF920F931F93CF9377
:1005C000DF93EC01EA98579A5F9A8EE190E012D39C
:1005D0005F988EE190E00ED35F9A8DE290E00AD3AF
:1005E00080E3E5DF84E690E005D35F9880E468DF90
:1005F0007E0189E2E80EF11C8E010F5F1F4FCE01D4
:10060000CBD45EDF0E151F0511F0E801F5CF5F9A20
:100610005F988EE755DF8BE290E0EC012196BCD429
:100620004FDFC333D10511F0CE01F7CF5F9A83E3DB
:10063000BEDF81E0DF91CF911F910F91FF90EF908E
:10064000DEC2CF93DF931F92CDB7DEB722E02983BE
:1006500041E0BE016F5F7F4F019611D4898136DF83
:1006600082E090E0A8DF0F90DF91CF910895CF93C3
:10067000EA9886E39CDFCFEF85E399DFC15080776E
:10068000803229F08AE090E0B5D2C111F5CFCF9148
:100690000895CF93CFEF84E38ADFC1508077803114
:1006A00029F08AE090E0A6D2C111F5CFEA9ACF9165
:1006B00008950F931F93CF93DF9300D0CDB7DEB78C
:1006C0008C01FC0181818737E9F441E0BE016F5F55
:1006D0007F4FC8010296D3D3892BA1F041E0BE0120
:1006E0006E5F7F4FC8010496CAD3892B59F06A8187
:1006F00089814CDF83E35BDFCCDF8981BCD38A81D6
:10070000BAD32CC041E0BE016E5F7F4FC801019695
:10071000B6D3892B21F18A81893969F410E0812FC0
:100720002EDFA9D3812F8770873009F421D31F5F73
:100730001033A9F714C023DF182F83E4C5D28A81B0
:100740009AD380E891E007D3812F95D38CE791E08D
:1007500002D340E262E0812F90E00ED309D30F90E4
:100760000F90DF91CF911F910F91089586E31FDFC6
:100770001092AD031092EC01089582E090E01BDF2F
:1007800081E08093AD031092EC0108950F931F93C5
:10079000CF93DF93082F10E0C62FD0E085E3EFDE84
:1007A000801731F0CE0126D21150C1F781E001C08F
:1007B00080E0DF91CF911F910F91089585E2DFDEF8
:1007C0008F3311F080E0089586E3F1DE80913E01E1
:1007D000811104C08DE292E0BED202C08DE3E7DE5B
:1007E00083E3E5DE64E081E0D1DF85E2C8DE8F33BC
:1007F00049F780913E01811103C086E292E0ABD2BD
:1008000081E0089585E3BBDE8D3051F485E2B7DEEB
:100810008F3331F4D3DF84E3CADE80778031D9F7B8
:1008200008958091200D843009F069C08093E9001B
:1008300080913F0181112AC08091E80085FF26C088
:100840008091F2009091F300892B31F06091F100DA
:1008500085E894E035D6F4CF8091E800982F9B7F0F
:100860009093E8008F778093E80081E080933F01C8
:1008700081E194E09093AA038093A903E091AB03F4
:10088000F091AC0381E0099510923F0183E08093E1
:10089000E90080914404882391F18091E80085FF6C
:1008A0002EC0F89480914404882369F08091F2006E
:1008B0009091F3008034910530F482E494E016D6F0
:1008C0008093F100EFCF78948091F2009091F30043
:1008D0002091E800322F3E7F3093E8002F7720935D
:1008E000E8008034910559F40E94E5358091E800D4
:1008F000982F9E7F9093E8008F778093E80008956B
:1009000042E061EC82E00E94953542E361E883E0D9
:100910000E94953542E360E884E00E94953510928C
:10092000000110920101109202011092030108953A
:100930008091210D9091220D913229F0923261F136
:10094000903299F512C0813A81F58091E800877F55
:100950008093E80067E070E080E091E00E940E364E
:100960008091E800982F9B7F11C08132F1F4809133
:10097000E800877F8093E80067E070E080E091E026
:100980000E94B8368091E800982F9E7F9093E800EF
:100990008F778093E8000895813239F48091E800E0
:1009A000877F8093E8000C94BF3508951F920F92C3
:1009B0000FB60F9211240BB60F928F939F93AF93A4
:1009C000BF93EF93FF938091AF039091B003A091F9
:1009D000B103B091B2030196A11DB11D8093AF0385
:1009E0009093B003A093B103B093B2038091AE0390
:1009F0008F5F8093AE0380911A0D8F5F80931A0DE5
:100A00008D37A8F080911F0190912001A0912101C4
:100A1000B09122010196A11DB11D80931F019093F9
:100A20002001A0932101B093220110921A0DEAEB4C
:100A3000F3E080819181181619061CF401979183C7
:100A40008083369683E0E23DF80799F78091D403DE
:100A50009091D503009729F001979093D503809347
:100A6000D4038091E7038F3F19F081508093E7030F
:100A7000FF91EF91BF91AF919F918F910F900BBE1E
:100A80000F900FBE0F901F9018952FB7F8944091BC
:100A9000AF035091B0036091B1037091B203FC01B8
:100AA00040835183628373832FBF0895CF93DF9375
:100AB00000D000D0CDB7DEB7CE010196E6DF8C8145
:100AC000DAD18B81D8D18A81D6D18981D4D150D144
:100AD0000F900F900F900F90DF91CF910895CF93CB
:100AE000DF9300D000D0CDB7DEB7CE010196CDDFC9
:100AF00089819A810F900F900F900F90DF91CF9185
:100B000008951F93CF93DF938091AF039091B0032B
:100B1000A091B103B091B20320914101281709F4CB
:100B200065C08091AF039091B003A091B103B091E3
:100B3000B20380934101A895CAEBD3E010E028816D
:100B40003981232B19F4812F0E94931A1F5F269657
:100B50001430A9F78091D4039091D503892B11F417
:100B60000E94EF1A8091E703811102C00E945B1B73
:100B700080913E04882339F0815080933E04811196
:100B800002C00E94711E8091AE038D3778F11092E1
:100B9000AE038091070181FF04C08BB192E08927E9
:100BA0008BB98091B3039091B403843823E092070A
:100BB00028F401969093B4038093B30380911F01AE
:100BC000811102C00E94C633809140018F5F8093E3
:100BD00040018C3359F4109240018091B9038F5F2A
:100BE0008093B9038C3310F01092B903DF91CF9149
:100BF0001F910895880F991F0197F1F7089520ED2F
:100C000037E0815020F0F9013197F1F7FACF0895DC
:100C1000CF93DF93DC0113968C911397843509F001
:100C200050C0CD010396CC91FD0170964DE04C175C
:100C300050F050E0D0E09E012F5031094217530789
:100C400009F03FC005C021912B3399F34F5FEFCFDF
:100C5000FE013E97E80FF91F2081243591F5149687
:100C60003C911497218132132CC015963C91159715
:100C70002281321326C016963C9116972381321397
:100C800020C017963C911797248132131AC06197A0
:100C9000C80FD91F858188838681898381858A834E
:100CA00082858B8383858C8384858D8385858E83E4
:100CB0008C918A508C9312968C9112978A5012962E
:100CC0008C93DF91CF910895CF93C82F80914201EB
:100CD00082FF03C08C2F0E9441228091200D84301E
:100CE00081F48091420180FF0CC0809144048034E3
:100CF00008F097DD6C2F82E494E0E2D3CA3009F467
:100D000090DD809141048823C9F08091420183FFE6
:100D100015C0CA3099F0CD3011F46BE301C06C2FCF
:100D20008BEF93E0CDD3CD3019F48BEF93E070DFF0
:100D300083E080933E0482E080934004CF91089545
:100D4000CF93DF93EC018991882311F0BDDFFBCFB6
:100D5000DF91CF910895CF93DF93EC01FE01849151
:100D6000882319F0B1DF2196F9CFDF91CF91089553
:100D70008DE0AADF8AE0A8CF0F931F93CF93DF9374
:100D800000D000D000D0CDB7DEB7062F1E8215E010
:100D90002AE030E01150E1E0F0E0EC0FFD1FE10F40
:100DA000F11DB9010E944238805D8083CB01015062
:100DB000009769F01111EECF0AC0112359F01150BC
:100DC000E1E0F0E0EC0FFD1FE10FF11D4083015069
:100DD00007FFF3CF81E090E08C0F9D1F810F911DE5
:100DE000AFDF26960FB6F894DEBF0FBECDBFDF9102
:100DF000CF911F910F910895CF93DF9300D000D032
:100E00001F92CDB7DEB71D8224E0382F3F702150EE
:100E1000E22FF0E03A3010F4305D01C0395CA1E01F
:100E2000B0E0AC0FBD1FEA0FFB1F308334E0969596
:100E300087953A95E1F76150009739F7615067FD62
:100E40000BC0222349F02150E1E0F0E0EC0FFD1F40
:100E5000E20FF11D4083F2CF81E090E08C0F9D1FE7
:100E6000820F911D6DDF0F900F900F900F900F90DC
:100E7000DF91CF91089540E362E090E0BDCFDC01C7
:100E8000FB0130E090E08D918823A9F0813608F0D5
:100E9000805220ED280F2A3030F02FEB280F26301B
:100EA00030F429EC280F292B332379F006C0803247
:100EB00051F38A3341F3CF0105C0CF01019620835E
:100EC000415041F4861B970B0895922F9295907F85
:100ED00031E0D9CFFC01D5CFFB0150E020E0DC01AF
:100EE0003D91CD013323D1F050ED530F5A3050F4E2
:100EF000522F550F252F220F220F250F2053230F7E
:100F000051E0EDCF303211F03E3279F4442321F03C
:100F1000208341503196E1CF50E0E1CFDF015523EE
:100F200021F0442311F031962C93CF01861B970BAF
:100F3000089520E030E05AE0FC014191CF014423C4
:100F400079F0E0EDE40FEA30B8F7F9015E9F900127
:100F50005F9F300D112420533109240F311DECCF38
:100F6000FB01318320830895982F92959F709A30CA
:100F700010F4905D01C0995CFB0190838F708A3002
:100F800010F4805D01C0895CFB01818308950E949B
:100F9000F639F999FECF08950C94E9391F93CF9350
:100FA000DF9314E0115068F0EC012196F5DF40E288
:100FB00061E090E0E1DE112311F08EE285DECE01EA
:100FC000F1CFDF91CF911F9108951F93CF93DF93BE
:100FD000162F11501F3F59F0EC012196DDDF4BDF3A
:100FE000112311F08AE370DE1150CE01F3CFDF91AF
:100FF000CF911F910895FF920F931F93CF93DF938B
:1010000000D0CDB7DEB7FC012181293691F5828170
:101010008D3621F466E082E690E030C0843619F423
:1010200088E690E019C0813619F489E690E00EC098
:101030008E3619F48DE690E009C0873619F481E701
:1010400090E004C08E3421F485E790E0A7DF44C02F
:101050008F3629F48BE790E09FDF0DDF3DC08037AE
:1010600009F03AC089E790E00E94F13940E260E07F
:1010700032C02D3429F466E08AEF9FE0A6DF2CC051
:10108000203521F460E18AED9FE0F8CF1A821982C1
:1010900042E0BE016F5F7F4F0196F1DE098110E0F3
:1010A000823021F4102F00278A81082BC80174DFB9
:1010B000F82E82E509DE40E364E0C8019DDE83E4AA
:1010C00092E049DE8F2DD7DE8FE392E044DE40E2EE
:1010D00062E08F2D90E050DE4BDE0F900F90DF919D
:1010E000CF911F910F91FF900895CF92DF92EF92D1
:1010F000FF920F931F93CF93DF93CDB7DEB728975F
:101100000FB6F894DEBF0FBECDBF9C01FC018181FC
:101110008E010F5F1F4F893609F06BC082818D36BB
:1011200049F446E0B801C9010396A9DE82E690E0E1
:1011300026E04DC0843639F4B801C9010396F9DEC2
:1011400088E690E03FC0813641F444E0B801C9012F
:101150000396C2DE89E690E027C08E3641F444E073
:10116000B801C9010396B8DE8DE690E01DC0873650
:1011700041F444E0B801C9010396AEDE81E790E096
:1011800013C0803741F4B801C9010396D2DE89E764
:1011900090E022E01CC08E3449F444E0B801C9015B
:1011A00003969ADE85E790E024E011C08F3661F463
:1011B00041E0B801C901039662DE898180931B0D6D
:1011C0008BE790E021E003C080E090E020E0780130
:1011D0003E2D301B321708F046C0F70161917F01A8
:1011E0006C01FFEFCF1ADF0A2887D1DEC601288500
:1011F000EFCF43E0B801C901019628873F833FDE66
:1012000028853F81823078F1C980D12C823021F04D
:10121000DC2CCC244A81C42A7C01FF24FE01EE0D83
:10122000FF1D6081C60128873F83B1DEEE0CFF1CE5
:101230008FEFE81AF80A28853F81E20EF31EF701C6
:101240008081882381F041E0B801C70118DE892B35
:1012500051F0EFEFCE1ADE0A6981C60198DEF2E0A6
:10126000EF0EF11CECCF28960FB6F894DEBF0FBE40
:10127000CDBFDF91CF911F910F91FF90EF90DF9045
:10128000CF90089541E067E071E00196F8DD80912C
:10129000070180FF02C0599A01C059986091070167
:1012A00084E390E074CECF93DF931F92CDB7DEB787
:1012B0001982009731F041E0BE016F5F7F4F0196C8
:1012C000DEDD89818F3F09F4FFCF882321F061E0C3
:1012D00083E390E05CDE0E944F3710926E00F8943A
:1012E00028E088E190E00FB6F894A895809360001C
:1012F0000FBE20936000FFCFCF93DF93EC0161E03E
:1013000080E090E044DE63E481E090E040DE15D9C7
:1013100060E080E690E03BDE60E081E690E037DE72
:1013200060E083E390E033DE62E084E390E02FDE70
:101330000E94531F60E080E690E029DE60E081E6D5
:1013400090E025DE8981883719F080E090E0ABDFFE
:10135000DF91CF91089580E090E01EDE813029F486
:1013600081E090E019DE833419F080E090E0C4DF82
:1013700084E390E011DE80930701089584E392E016
:10138000EADCF6CC2091290D30912A0D211531058A
:1013900021F4209125013091260180912301909123
:1013A0002401009741F48DB79EB7409127015091D9
:1013B0002801841B950B2817390718F4821B930BFF
:1013C000089580E090E0089582E47EDC40E265E0EC
:1013D0008091290D90912A0DCFDCCADC83E574DC65
:1013E00040E265E08091250190912601C5DCC0DCDA
:1013F00085E46ADC40E265E080912301909124015C
:10140000BBDCB6DC86E460DCBDDF40E265E0B4DC7A
:10141000AFCC0F931F93CF93DF9385E792E09BDCD4
:1014200040E265E08DEF9FE7A7DC84E692E093DC85
:101430008DEF9FE70E949738EC010097A1F14DEFE7
:101440005FE767E770E00E94DB39FE0180E090E033
:10145000819301968D3F2FE79207D1F7FE0100E0BF
:1014600010E0219130E0C80199272817390779F059
:1014700087E592E070DC40E265E0C8017DDC78DC65
:10148000CE01DF91CF911F910F910C942F390F5FF7
:101490001F4F0D3F8FE7180721F7CE010E942F390C
:1014A00084E592E002C087E492E055DCDF91CF91C1
:1014B0001F910F915DCCFC01128210821182089560
:1014C000FC018FB7F8949281903470F49F5F9283FF
:1014D000208191E0920F9083DF01A20FB11D13963E
:1014E0006C93903409F410828FBF0895FC019FB76C
:1014F000F8948281882371F081508283818121E078
:10150000280F2183DF01A80FB11D13968C91203481
:1015100009F411829FBF0895FA013081882369F090
:10152000E1E0F0E0022E01C0EE0F0A94EAF7DB01E1
:10153000A30FB11D9C919E2B9C93222319F08FEF3A
:10154000820F0BC081E0830F8C3010F4FA0180838E
:10155000FB01E80FF11D108287E090E00895CF9322
:10156000C82F8A9A882319F08091450102C0809182
:10157000470120E1829FC00111243CDB8A98CC23E3
:1015800019F08091440102C08091460120E1829FC0
:10159000C0011124CF912ECB2F923F924F925F9298
:1015A0006F927F928F929F92AF92BF92CF92DF9273
:1015B000EF92FF920F931F93CF93DF935C01162F4F
:1015C000622EC42FD0E04091B3035091B403CE01FA
:1015D0000296089F802D1124992787FD9095481722
:1015E0005907A8F48EE792E0DF91CF911F910F91F8
:1015F000FF90EF90DF90CF90BF90AF909F908F9033
:101600007F906F905F904F903F902F90A4CB481B9E
:10161000590B5093B4034093B303599A8091AD038F
:10162000811101C0AAD823D8812E912CCC24C39437
:10163000D12C712CF12C8F2D992787FD9095881531
:10164000990524F480E08BDFF394F5CF112311F09A
:1016500081E085DFF12C4F2C552447FC50944C162B
:101660005D062CF097E0392E4A0C5B1C15C087E014
:10167000282E312C4A0C5B1CC601022C01C0880F9D
:101680000A94EAF7F2019081892369DFF1E02F1AC9
:10169000310890F7F394DFCF832D992787FD90953C
:1016A0006816790664F4C601032C01C0880F0A94F9
:1016B000EAF7F2019081892352DF3A94EDCF8E2D23
:1016C0009EDA015009F0B6CF8091B603882319F055
:1016D0000E94490303C086E30E94D7025998DF9114
:1016E000CF911F910F91FF90EF90DF90CF90BF901F
:1016F000AF909F908F907F906F905F904F903F90B2
:101700002F9008955F926F927F928F929F92AF92E7
:10171000BF92CF92DF92EF92FF920F931F93CF93DE
:10172000DF93CDB7DEB72D970FB6F894DEBF0FBEAF
:10173000CDBF7C01162F842F022F6701C60ED11C4E
:10174000462FB701B3D2D6018C931F5F1D86198235
:101750005E2C670127E066246394712C8C2D85191B
:10176000811788F547E0A42EB12C4701880E911C03
:10177000F3010A2C01C0EE0F0A94EAF7D4018C9110
:10178000AE01435F5F4FBE016F5F7F4F8E23C4DEAC
:10179000282FB1E0AB1AB10858F7D6018D916D0131
:1017A000082E82958025082E8695869580258F5F48
:1017B00086958170AE01435F5F4FBE016F5F7F4FC3
:1017C000ABDE282FCBCF222311F0215004C08D8512
:1017D0008F5F8D8727E089E18093460180934701E1
:1017E00085E280934401809345013AE0E32E4D85E4
:1017F0006CE0CE010196D0DE2D960FB6F894DEBFD8
:101800000FBECDBFDF91CF911F910F91FF90EF9051
:10181000DF90CF90BF90AF909F908F907F906F9010
:101820005F9008951F93CF93DF93CDB7DEB72D97C9
:101830000FB6F894DEBF0FBECDBF162F242F4BE09E
:10184000BE016F5F7F4F01962D8719DB2D85412FDC
:10185000682FCE01019656DF2D960FB6F894DEBFA5
:101860000FBECDBFDF91CF911F91089543E066E099
:10187000D9CFEF920F93CF93DF93CDB7DEB76097B9
:101880000FB6F894DEBF0FBECDBF40E1BE016F5F63
:101890007F4F0196F4DA69814A810B818C818093B4
:1018A00047018D81809346018E81809345018F8110
:1018B00080934401E02EE2947FE0E7220F70242F12
:1018C0002F7042954F70CE01089666DE60960FB677
:1018D000F894DEBF0FBECDBFDF91CF910F91EF9097
:1018E0000895AF92BF92CF92DF92EF92FF920F9343
:1018F0001F93CF93DF93CDB7DEB769970FB6F894F8
:10190000DEBF0FBECDBF4BE0BE016F5F7F4F0196C4
:10191000B6DA182F893009F05AC099E19093460140
:10192000909347019093450182E38093440169E0DD
:10193000CE010196C5D1E1E0F0E0EC0FFD1FE10F13
:10194000F11D8083198E1D86CE0101967C016E01EA
:101950009BE0C90ED11C27E0AA24A394B12CEC145F
:10196000FD0429F100E010E0F501002E01C0EE0FAA
:101970000A94EAF7D7018C91AE01475E5F4FBE0132
:10198000635F7F4F8E23C8DD282F0F5F1F4F083006
:10199000110551F7AE01475E5F4FBE01635F7F4F98
:1019A00081E0BADD282FBFEFEB1AFB0AD8CF222344
:1019B00011F0215004C0898D8F5F898F27E0EAE004
:1019C000EE2E03E0498D6CE0CE010D96E5DD6996C3
:1019D0000FB6F894DEBF0FBECDBFDF91CF911F9140
:1019E0000F91FF90EF90DF90CF90BF90AF90089550
:1019F0008F929F92AF92BF92DF92EF92FF920F93DE
:101A00001F93CF93DF931092630110927801FC0132
:101A10002181220F220F220F3381231B57E0520F07
:101A20001092640110E070E038E0D32ED20EFF2453
:101A3000F39447E007E0E12CC7E0D0E0A1E0B0E09C
:101A4000FD1409F47FC0FC01EE0DF11D248130E08E
:101A5000002E02C0359527950A94E2F721703327AE
:101A6000E22F002311F0015002C0E39407E06B3431
:101A700071F4433009F04AC0111107C0E1115FC091
:101A8000109263017093780174C010E041C04F3F21
:101A900031F56634A9F4E72FF0E0EC59FE4FE08110
:101AA0000E2EE295E0250E2EE695E695E025EF5FF9
:101AB000E1FB882480F8912C8216930641F004C043
:101AC000653429F4E11103C010936301DBCF7F5F1C
:101AD000E72FF0E0EC59FE4F108247E031C0EE23D3
:101AE00061F1663471F4E72FF0E0EC59FE4FA0800D
:101AF0009D01042E01C0220F0A94EAF7A22AA082B7
:101B00001CC0653439F06B34C1F404C04F3FD1F2CE
:101B1000EE2399F0E72FF0E0EC59FE4F9E01241BD5
:101B2000310947FD33955D0102C0AA0CBB1C2A9503
:101B3000E2F795013081322B3083415001C011E032
:101B4000F3947ECF10936301709378015F1588F44E
:101B5000653431F44F3F21F47F5F7093780104C006
:101B6000809163018111F8CF81E09091780191110A
:101B700001C080E0DF91CF911F910F91FF90EF9016
:101B8000DF90BF90AF909F908F90089510926F005C
:101B9000E0917B018CE1E89FF0011124E458FE4FB5
:101BA00010828091B5038D7F8093B5030895FC0169
:101BB0002181243108F0EACF662389F081E090E0AA
:101BC000038002C0880F991F0A94E2F7DF01A20F79
:101BD000B11D14969C911497982B14969C93838115
:101BE000882319F081508383089587E083832F5FD2
:101BF0002183E20FF11D14820895DC011196EC910E
:101C00001197F0E050E02C91CF01841B950B0B96BF
:101C10004797A0F430E070E0C901861B970B0B9644
:101C2000479760F42E0F3F1F640F751F261B370B5D
:101C3000255F3F4F81E02731310508F080E00895AE
:101C4000829A8A985298E9E6F0E0808180618083E8
:101C500082EC91E09093B4038093B30310929801C7
:101C60001092B4011092D0011092AD0308958091AA
:101C7000B603882321F00E94BD030C9449030C9401
:101C8000B603FC01218121110BC08091B603F3D86A
:101C900040E265E08091B3039091B4036DD868C8C9
:101CA00041E066EB73E00196EAD8E1CF442339F0D6
:101CB0004150FB01E40FF11D9081890FF7CF08958A
:101CC00020E0662339F06150FC01E60FF11D308100
:101CD0002327F7CF822F0895A091630140E035E0DC
:101CE00020E0662399F06150FC01E60FF11D508160
:101CF000752F72957F702727370FAA2311F0442381
:101D000019F05F702527350F4F5FEBCF320F40E1A1
:101D1000349FC0011124822B0895FC01328123815C
:101D2000A081B181A30FB11D8C9190E0022E02C061
:101D3000959587950A94E2F7817099274FEF420FA6
:101D40004383211104C03F5F328327E0238308953A
:101D5000AF92BF92CF92DF92EF92FF920F931F93B9
:101D6000CF93DF9300D0CDB7DEB77C01A12CB12C8F
:101D7000D12CCC24C394062F10E001501109A616D3
:101D8000F0F4C7014A836983C8DF4A8169818823E7
:101D900091F0442349F098012A193B098C2D01C088
:101DA000880F2A95EAF706C08C2D0A2C01C0880FEF
:101DB0000A94EAF7D82A8FEFA81AB80AE0CF8D2D37
:101DC0000F900F90DF91CF911F910F91FF90EF90A7
:101DD000DF90CF90BF90AF9008959F92AF92BF9247
:101DE000CF92DF92EF92FF920F931F93CF93DF93E7
:101DF00000D000D0CDB7DEB71B8227E02C839C013A
:101E00002C5F3F4F3A83298310927801FC01218196
:101E1000338187E090E0831B9109F8E02F9F800DCC
:101E2000911D1124853491050CF44EC0B12CA09065
:101E30007801F5E0FA1558F10A2D10E040E068E06D
:101E4000CE01019685DF0C591E4FF8018083982E34
:101E5000092C92949024092C969496949024CE0167
:101E600001965BDF939491FACC24C0F8D12C90E0DA
:101E7000C816D90649F5CE0101964FDF811124C05D
:101E8000F8018081B826A394A0927801D0CF40E0D9
:101E900068E0CE0101965CDF082F182F012E129505
:101EA0001025012E169516951025CE01019635DFC9
:101EB0001F5F11FBEE24E0F8F12C282F30E0E21632
:101EC000F30611F481E0B01280E00F900F900F90B4
:101ED0000F90DF91CF911F910F91FF90EF90DF90C6
:101EE000CF90BF90AF909F900895DF92EF92FF92B6
:101EF0000F931F93CF93DF9300D000D01F92CDB7E5
:101F0000DEB7FC011B8287E08C83CF0104969A83A5
:101F100089838081853009F051C02181338187E038
:101F200090E0831B910938E0239F800D911D1124BF
:101F30008039910509F042C0109278010FE010EF4E
:101F400029E880917801E82EF12CDD24D394D80E75
:101F500041E068E08F3088F4CE0101962D83F8DEF1
:101F6000080F111DF701EC59FE4F2D812827208302
:101F700024E2280FD0927801E4CFCE010196E8DE6A
:101F8000080F111DD0927801F701EC59FE4F809592
:101F9000808341E068E0CE010196DADE90E0982F80
:101FA0008827081B190B41E068E0CE010196D0DEBE
:101FB000282F30E081E00217130709F080E00F902E
:101FC0000F900F900F900F90DF91CF911F910F9175
:101FD000FF90EF90DF900895FF920F931F93CF93A0
:101FE000DF9300D000D0CDB7DEB71B8227E02C8373
:101FF0009C012C5F3F4F3A832983FC0121812430CF
:10200000A1F58381813089F5109278018091780162
:10201000082F10E0FF24F394F80E41E0843098F488
:10202000811106C067E0CE01019692DE806804C08F
:1020300068E0CE0101968CDEF801EC59FE4F8083FA
:10204000F0927801E3CF67E0CE01019681DEF801DE
:10205000EC59FE4F880F8083F092780190916401D3
:1020600092959F7081E09A3009F080E00F900F9078
:102070000F900F90DF91CF911F910F91FF900895D6
:10208000FC0181818330F1F483818730D9F4808130
:102090008830C1F41092780180E021E0280F91810E
:1020A000891760F490E0DF01A80FB91F14963C91E6
:1020B000DC01AC59BE4F3C93822FEFCF8093780167
:1020C00081E0089580E00895FC0190818091B5033E
:1020D000993611F0933751F4982F9370913011F491
:1020E000826006C080FF07C08B7F03C080FD03C0F5
:1020F00084608093B5030895EF92FF920F931F932E
:10210000CF93DF931F92CDB7DEB71982809148013C
:102110008823B9F18091B60387FF17C084E30E943A
:10212000BF028058803458F0803C58F490E08055CD
:10213000910953E0959587955A95E1F703C080E0A2
:1021400001C08FE08F590E9464068091B60383FF1F
:1021500016C082E70E9464068091B60384FF04C023
:10216000809149010E94640686E60E94640680917F
:10217000B60384FF04C0809148010E946406109257
:10218000480180917901882309F451C2599A00913C
:102190007A012CE1029F8001112404581E4F89818D
:1021A000811106C0C8016CDF882311F083E78983A1
:1021B0008981811106C0C80198DE882311F083E56A
:1021C00089838981811139C066E4C80111DC8823C3
:1021D000A1F1F0907801FA94F09278014F2D64E625
:1021E00071E086E063DDEF2DF0E0EC59FE4FE0801A
:1021F0008E1105C093E09F1510F486E41BC0282FB4
:1022000030E02F5F3F4F6E2D70E02617370739F40F
:1022100023E02F1520F496E4998380830EC04F2D80
:1022200064E671E08CE042DD8E1106C083E08F151C
:1022300018F484E5898301C019828981811116C04F
:1022400065E4C801D5DB882389F08091780181504D
:1022500080937801893051F469E084E691E030DDC3
:1022600090916D01891302C085E489838981811170
:1022700006C0C801B2DD882311F088E48983898112
:10228000811106C0C801A8DE882311F084E7898384
:102290008981811133C0F801438D60914901C801E2
:1022A0004A96ABDC682FC80182DC6BE4C801A0DB76
:1022B0008823B1F0F0907801FA94F09278016F2DB4
:1022C00084E691E009DDEF2DF0E090916301E91BD8
:1022D000F109EC59FE4F9081891302C08BE4898388
:1022E000898181110BC0F801838191E0980F93835C
:1022F000873021F41382818181508183898181110A
:102300002DC0F8018181843049F58381843031F515
:102310004EE16CE3C801489670DC8823F9F04EE189
:1023200060914901C8014A9668DC682FC8013FDC0A
:1023300020E0822F90E0FC01EC59FE4FD801A80F5D
:10234000B91F14968C91808381E0820F853010F440
:10235000282FEFCF8093780182E589833981332359
:1023600009F4D9C02091B60320FFD5C08091B503F0
:102370008E7F8B7F8093B50321FD64C050916201F5
:10238000F09078015F113DC040E04517C0F4842F04
:1023900090E061E0640FFC01E25BFE4FDC01AC59B0
:1023A000BE4F70818C91781741F04093620180910B
:1023B000B5038D7F8093B50304C0462FE6CF4093CD
:1023C000620145131EC04091AF035091B00360916C
:1023D000B1037091B20380914A0190914B01A09199
:1023E0004C01B0914D01481B590B6A0B7B0B4632D7
:1023F00051056105710528F48091B50381608093D2
:10240000B50340E04F1560F4842F90E0FC01E25BDF
:10241000FE4FDC01AC59BE4F8C9180834F5FF2CFF1
:10242000409362018091AF039091B003A091B103FA
:10243000B091B20380934A0190934B01A0934C0159
:10244000B0934D013435E9F426FD1BC0809178012D
:102450008530B8F0809166018B3471F0893661F077
:102460009DEA980F923040F08D57823028F080918D
:1024700067018077803729F48091B503816080936C
:10248000B503B801CE0101961FDE8981843569F458
:1024900090914104992349F09091B803911105C09E
:1024A0009091B5039B7F9093B5039091B50392FFF4
:1024B00032C00E94640680916301882329F08091D4
:1024C0007801815080937801F12CE0917801FE161B
:1024D00048F4EF2DF0E0EC59FE4F80810E943B075D
:1024E000F394F3CF80916301882351F0F0E0EC592D
:1024F000FE4F80818F7040E361E090E00E94FC0617
:102500008091B60385FF05C084E30E94BF020E944C
:102510003B070E94B8068091B60382FF6FC080E738
:102520000E946406F801808140E262E090E00E942F
:10253000BC06F801808D40E265E0F0E18F9FC001AC
:1025400011240E94BC06F801818D40E265E0F0E1B3
:102550008F9FC00111240E94BC06F801828D40E2C9
:1025600065E0F0E18F9FC00111240E94BC06F801D4
:10257000838D40E265E0F0E18F9FC00111240E944D
:10258000BC06F801828140E263E090E00E94BC0654
:10259000F801818140E263E090E00E94BC06F8010E
:1025A000238140E262E087E090E0821B91090E9473
:1025B000BC0680E20E9464068091B60385FF08C0D5
:1025C00084E30E94BF020E943B0780E20E946406EF
:1025D000F8018381873019F081818F5F8183F12C2D
:1025E000F8018181F81640F4F801EF0DF11D8481A6
:1025F0000E943B07F394F4CF0E94B806F8011082C2
:102600008091790181508093790180917A018F5F67
:10261000843019F080937A0102C010927A0159989F
:102620008981843521F484E691E00E946A1B0F9031
:10263000DF91CF911F910F91FF90EF9008951F921E
:102640000F920FB60F9211240BB60F922F933F9358
:102650004F935F936F937F938F939F93AF93BF93AA
:10266000EF93FF9310926F008091B60383FF03C036
:102670008EE20E94640680917B019CE1899FF001BB
:102680001124E458FE4F9081933018F091819230DC
:1026900010F47CDA18C090917901933049F480915C
:1026A000B60382FFF6CF85E892E00E94AB06F1CF39
:1026B0009F5F909379018F5F843019F080937B0145
:1026C00002C010927B01FF91EF91BF91AF919F915A
:1026D0008F917F916F915F914F913F912F910F90CB
:1026E0000BBE0F900FBE0F901F9018959BED980F8B
:1026F000973150F496EF960F9D3130F491E06817C2
:1027000008F090E0892F089580E008951F920F92BD
:102710000FB60F9211240BB60F92FF920F931F93D7
:102720002F933F934F935F936F937F938F939F93D9
:10273000AF93BF93CF93DF93EF93FF938091F80311
:10274000882321F082E08093F8036CC180913F04DC
:10275000823021F483E080933F0464C100918400BF
:102760001091850074E0169507957A95E1F7C09170
:102770007B019CE1C99FE0011124C458DE4F988180
:10278000943031F40E3208F44DC10F3448F0BBC020
:10279000953031F4073108F445C1083208F0B3C070
:1027A0004A990DC09450923038F461E0CE01FFD9BF
:1027B00010928500109284000093490133C18091EA
:1027C0004901081B00934801109285001092840073
:1027D0009881983091F48A8181110FC081E08A83B9
:1027E00080914901888F8A8F80914801898F8B3B26
:1027F00010F4880F01C086958B8F9450923020F48E
:1028000060E0CE01D4D90EC182E086BBF880F11021
:1028100011C090914901953608F004C1809148019A
:10282000853608F0FFC0988F898F81E08A8382E027
:102830008883F8C01091480182E0F81278C00091B6
:102840004901412F602FCE014896D7D94A8188236C
:10285000F9F0288D30E0C901880F991F820F931F6E
:10286000800F911D9595879595958795888F298DD2
:1028700030E0C901880F991F820F931F810F911DAE
:102880009595879595958795898F4F5F4A83CAC09F
:10289000443008F44AC080EA9FE090938900809316
:1028A00088008A818C3050F0288D898D90E0820FCD
:1028B000911D8536910524F084E028C08A3080F08F
:1028C000288D898D90E0820F911D85974CF485E0CD
:1028D000888388EE93E0909389008093880017C0E6
:1028E0008091FA03882389F0609148018091490121
:1028F000FDDE882351F0688D898DF8DE882329F06C
:1029000081E080933F0442D98DC083E08883809129
:1029100049018A8F809148018B8F198287E08B83D0
:102920001C8282E080936F007DC0188272CF98E095
:10293000F91225C081E9810F8D3178F460E0CE0174
:1029400036D9288D30E0C901880F991F820F931F57
:1029500020914901820F911D4EC0173E08F462C0BC
:1029600061E0CE0124D92A8D30E0C901880F991F7A
:10297000820F931F20914901820F911D15C0009174
:102980004901412F602FCE014A9637D9882301F1A2
:1029900061E0CE010CD92A8D30E0C901880F991F62
:1029A000820F931F800F911D95958795959587951B
:1029B0008A8F2B8D30E0C901880F991F820F931FDA
:1029C000810F911D95958795959587958B8F2AC039
:1029D000412F602FCE01489610D9882301F160E085
:1029E000CE01E5D8288D30E0C901880F991F820FEC
:1029F000931F800F911D9595879595958795888F45
:102A0000298D30E0C901880F991F820F931F810F14
:102A1000911D9595879595958795898F03C087E03A
:102A2000F81271CFFF91EF91DF91CF91BF91AF91EC
:102A30009F918F917F916F915F914F913F912F91D6
:102A40001F910F91FF900F900BBE0F900FBE0F9034
:102A50001F901895E0917B018CE1E89FF001112413
:102A6000E458FE4F8081811107C081E09091E70317
:102A70009F3F19F480E0089581E00895CF93DF939C
:102A8000EA98579A5F9A8EE190E00E94FA055F9863
:102A90008EE190E00E94FA055F9A8DE290E00E943C
:102AA000FA0580E30E94D70284E690E00E94FA05CE
:102AB000C6E9D2E0FE0131966491FE0184910E9444
:102AC000C6022296F2E0C83CDF07A1F783E30E942A
:102AD000D70284E00E94FF0584E30E94D70285E3C9
:102AE0000E94BF028D30C1F7DF91CF9108950F93FF
:102AF0001F93CF93DF93CDB7DEB76E970FB6F894E1
:102B0000DEBF0FBECDBF8091EC01882309F4B4C0B5
:102B10004A9B93C08FE30E94BF028F7789838E31D7
:102B2000B0F08AE30E94D70286E30E94D7028DE3C9
:102B30000E94D70284E36E960FB6F894DEBF0FBEF4
:102B4000CDBFDF91CF911F910F910C94D7025F9869
:102B50008FEF0E94600210E08981181760F480E016
:102B60000E946002E2E0F0E0EC0FFD1FE10FF11DBA
:102B700080831F5FF1CF80E00E946002082F80E019
:102B80000E9460025F9A84E30E94D70285E30E945C
:102B9000BF028D30C1F72A8196E792279A8392E08F
:102BA0008981E92FF0E0981768F441E050E04C0F7C
:102BB0005D1FE40FF51F30812452232720839F5F80
:102BC000232FEECF81E090E08C0F9D1FE80FF91FBF
:102BD00090818B81982790838091B60384FF12C0E7
:102BE00081E60E94640610E08981811730F1E1E0FE
:102BF000F0E0EC0FFD1FE10FF11D80810E946406E3
:102C00001F5FF2CF81E40E94640610E08981811782
:102C100058F0E1E0F0E0EC0FFD1FE10FF11D8081C5
:102C20000E943B071F5FF2CF8091B60385FF03C070
:102C3000802F0E943B070E94B80685E30E94BF02D6
:102C4000813029F0813161F48AE30E94D70286E362
:102C50000E94D7028DE30E94D70284E30E94D7022C
:102C60006E960FB6F894DEBF0FBECDBFDF91CF9149
:102C70001F910F910C9402046E960FB6F894DEBF6C
:102C80000FBECDBFDF91CF911F910F9108958F920D
:102C90009F92AF92BF92DF92EF92FF920F931F939A
:102CA000CF93DF93CDB7DEB7A6970FB6F894DEBF0C
:102CB0000FBECDBF4DE18E010F5F1F4FB8010196D2
:102CC0000E943F077C0199270197298130E08217F4
:102CD000930709F0A3C08091EC01811104C0CEDEFE
:102CE00083E00E94FF05DB808A8196E789278A833B
:102CF00022E03981822F90E0F801E80FF91F2317B5
:102D000050F4DE01A80FB91F8C918452908189275D
:102D100080832F5FEECF80818D258083CE018396C7
:102D20000E94450585E30E94D70285E30E94BF0209
:102D3000833181F1CE014F960E9445054F8D58A1F8
:102D400069A17AA18BA19CA1ADA1BEA18417950711
:102D5000A607B70760F44A015B01881A990AAA0A14
:102D6000BB0A2DEB82169104A104B10470F448173C
:102D700059076A077B0770F484549F4FAF4FBF4FCA
:102D800084179507A607B70728F48CE892E00E94FD
:102D9000AB0627C085E30E94BF02833119F6D4FE3B
:102DA00008C088E70E94FF0588E70E94FF0588E7C2
:102DB00001C08AE00E94FF055F988FE70E946002D1
:102DC00058018A2D801B8E1530F4F50181915F0129
:102DD0000E946002F6CF5F9A85E30E94BF028331B2
:102DE000D9F385E30E94BF02863149F48BE30E9448
:102DF000D70286E30E94D7028DE30E94D70280911A
:102E0000EC01882349F084E30E94D70285E30E9405
:102E1000BF028D30C1F702C00E94370EA6960FB6D2
:102E2000F894DEBF0FBECDBFDF91CF911F910F9100
:102E3000FF90EF90DF90BF90AF909F908F9008959C
:102E4000FC012181223729F419DE81E08093EC0115
:102E50000895233711F401961ACF1092EC010895CA
:102E60001092D2031092C20283E08093F2018FEF9E
:102E70008093E7030895E3EFF1E02081211105C07D
:102E8000892BB1F080E090E00895B2E0EB3BFB07C6
:102E9000B8F7009751F04181DC013C91431305C024
:102EA000428111963C91431751F0E20FF11DE5CF9D
:102EB00032E0EB3BF30719F010F0EBEBF2E0CF015F
:102EC000089594E0899FF0011124E851FC4F80811E
:102ED0008F3F91F08093ED0181818093EE0182819B
:102EE0008093EF0183818093F00121E04CE064E066
:102EF0008DEE91E00C94820B08958CEB92E0BBDF99
:102F0000009799F02091F201FC013081231768F4B9
:102F1000E20FF11D80818093BE0289E78093BF029A
:102F200081818093C00281E0089580E00895EF924E
:102F3000FF921F93CF93DF931F92CDB7DEB7182F69
:102F40008091B60386FF1EC084E599830E946406C3
:102F5000E12E9981F92E15E0F70181917F010E9400
:102F60003B071150C9F78091B60385FF03C08AEF74
:102F70000E943B070F90DF91CF911F91FF90EF9040
:102F80000C94B8060F90DF91CF911F91FF90EF90B6
:102F9000089586E30E94D7028091BE02833511F422
:102FA0008BE901C08BE40E94FF0521E04CE065E065
:102FB0008CEB92E00E94820B0E9449038CEB92E022
:102FC000B6CFE7DF8091BE02893631F081E0809391
:102FD000BB0289E28093E7030895CF9385E390E0F5
:102FE0000E94CC078093B80386E390E00E94CC0750
:102FF0008093E603CFEFC093D603C093D803C0936A
:10300000DA03C093DC03C093DE03C093E003C093F4
:10301000E203C093E40324DF1092F30181E0809384
:10302000B703C093E8038FEF9FEF9093BB038093A8
:10303000BA031092BD031092BC031092BF0310920A
:10304000BE03C093EC039093C1038093C00310921E
:10305000C3031092C2031092C5031092C403C0931D
:10306000F0039093C7038093C6031092C903109294
:10307000C8031092CB031092CA03C093F403909339
:10308000CD038093CC031092CF031092CE03109205
:10309000D1031092D003CF910895BF92CF92DF92C7
:1030A000EF92FF920F931F93CF93DF93CDB7DEB7CD
:1030B0002C970FB6F894DEBF0FBECDBF6C018C010C
:1030C0000F5F1F4F45E0BE016F5F7F4FC8010E9439
:1030D0003F07843008F0F3C099819130A9F4833020
:1030E00061F46A8185E390E00E94C7076B8186E303
:1030F00090E00E94C70771DF06C28091B8030E946A
:103100003B078091E6039AC0923009F051C08130AC
:1031100039F081E09A81913009F080E0F82E02C008
:10312000FF24F3948091F301811104C088EC92E0B4
:103130000E94AB0603EF11E0F8018081882309F4B7
:10314000BBC0F2E00B3B1F0708F0B6C031E0033F05
:10315000130719F080E20E946406F80181810E9441
:103160003B07F80182810E943B07FF20E1F08AE3E0
:103170000E94640693E0F80180819817A0F49430CF
:1031800038F090FF05C08CE29C870E9464069C8505
:10319000EE24E394E90EF801E90FF11D80810E940D
:1031A0003B079E2DE8CFF8018081080F111DC4CF89
:1031B000933049F480E090E05EDE835F914098ECCC
:1031C000981B892F3BC0903171F506ED13E087ED18
:1031D000E82E83E0F82EC12CD12CF80180818F3F9E
:1031E000A1F0DD2019F080E20E9464068C2D0E947F
:1031F0003B078AE30E946406F80180810E943B0736
:10320000F70180810E943B07D3940E5F1F4FC39448
:10321000F2E0EF0EF11C38E0C312DFCFD1104CC04A
:1032200086ED92E047C0913161F48091D403909192
:10323000D5036DE770E00E944238862F0E943B075D
:103240003BC09231C9F518EEE12E13E0F12E0BEEE2
:1032500013E0C12CD12CF70180818F3FF1F0DD20EC
:1032600019F080E20E9464068C2D0E943B078AE3DD
:103270000E946406F70180810E943B07F8013297A3
:1032800080810E943B07F801319780810E943B07B3
:10329000F80180810E943B07D394F4E0EF0EF11C0B
:1032A000C3940C5F1F4F34E0C312D5CFD11004C0BC
:1032B00082ED92E00E94AB060E94B80624C144E071
:1032C000BE01695F7F4FC8010E943F074F814936A9
:1032D00008F477C07A85588569857C3009F04BC041
:1032E00020E030E080E090E0F901E851FC4F70818F
:1032F00074131CC0A181A51319C0A281A61316C006
:103300002CE023839C01220F331F280F391FF90162
:10331000EE0FFF1FE654FC4F11821082F901EE0FF1
:10332000FF1FE454FC4F11821082CFC07F3FD9F4BD
:103330004083518362832CE023839C01220F331F3F
:10334000280F391FF901EE0FFF1FE654FC4F1182C1
:103350001082F901EE0FFF1FE454FC4F118210821E
:103360001092B703B2C001962C5F3F4F2031310558
:1033700009F0BACFC8C080E090E020E030E0FC0166
:10338000E851FC4FA081A41315C0A181A51312C060
:10339000A281A6130FC07383F901EE0FFF1FE20F86
:1033A000F31FEE0FFF1FE454FC4F81E090E0918388
:1033B0008083A9C02F5F3F4F049680319105F9F6B5
:1033C000A2C0E9818091B803E817C0F190E0F0E075
:1033D0009C01295F3F4F2E173F0784F13A812091CE
:1033E000E60332132BC03C813F3231F442E06CE003
:1033F000C6010E94120C87C02D813C32B1F420938B
:10340000D30381E090E09093D5038093D40380911F
:10341000B3039091B403E4E02E9F800D911D11241D
:103420009093B4038093B3036EC0E81BF90BEE0FC7
:10343000F0E0EA52FC4F3083218365C080E090E0E9
:103440001ADD7C01F80101900020E9F73197E01BBB
:10345000F10BF695E795BB24B394BE0EC7018B0D17
:10346000911D835F9140893C91050CF048C0F701A4
:10347000B1928F0121E0822F880F81502B15D8F453
:1034800041E0B801F601E80FF11DCF012C870E9441
:103490003F072C85233058F020FD09C0D801119733
:1034A0008C91843621F4F80180818093B9032F5FD9
:1034B0000F5F1F4FE0CFFBEBEF16F2E0FF0618F5B2
:1034C000F701E20FF11D10821EC022E04CE064E023
:1034D000CE0107960E94820B8FE08A8722E04CE0A3
:1034E00064E0CE0107960E94820B82E08A8722E088
:1034F0004CE064E0CE0107960E94820B04C08CEC85
:1035000092E00E94AB062C960FB6F894DEBF0FBE79
:10351000CDBFDF91CF911F910F91FF90EF90DF9082
:10352000CF90BF9008950F931F93CF93DF93909107
:10353000B70391114FC093E0899F80011124F801D6
:10354000EE0FFF1FE654FC4F94E0899FD001112439
:10355000A851BC4F12969C91977040E850E0491BCF
:1035600051099AEF949F9001959F300D1124359544
:1035700027953595279531832083E801CC0FDD1FF2
:10358000C254DC4F288139812F5F3F4F3983288314
:10359000000F111F04541C4FF80140815181411547
:1035A000510529F424303105A9F48BDC11C04130D8
:1035B000510539F486DC82E090E0F8019183808344
:1035C00009C04230510531F47CDCF80111821082CF
:1035D00019821882DF91CF911F910F910895EF9278
:1035E000FF920F931F93CF93DF9300D000D000D0B2
:1035F000CDB7DEB72091E6032A831B828091D303E7
:10360000882341F0833019F487E791E00FC08DE7FC
:1036100090E00CC0277030E02A513F4F4DE7429FA9
:10362000C001439F900D1124959587959093D503E4
:103630008093D40307ED13E0F12C7CE2E72EF80130
:10364000319790819F3FC1F08091B8038F0D89839E
:103650008091D303882311F0EC8203C09C83F8018E
:1036600080818D8321E04CE065E0CE0101960E94CF
:10367000820BCE0101965BDCF3940E5F1F4FF8E0E6
:10368000FF12DDCF8091D303882341F0833019F4FA
:103690001092D30303C082508093D30326960FB6B3
:1036A000F894DEBF0FBECDBFDF91CF911F910F9178
:1036B000FF90EF9008958091BB02882351F069DC60
:1036C00089E28093E7038091BB0281508093BB0223
:1036D0000895C6CBFF920F931F93CF93DF93FC0106
:1036E000F0800181C281D38114818FE58093E7034B
:1036F0001092BB028091B803811105C08091E6034E
:10370000882309F4B1C08091BC028F1104C080915C
:10371000BD02801729F0A4DBF092BC020093BD0229
:103720008091D2038F3F09F49FC0C093BE02D09313
:10373000BF021093C002CC23F1F081111CC0809114
:10374000B803181761F0143651F08DEA8C0F8230EF
:1037500010F0CD3739F48FEF8093D20385C0C43594
:1037600009F482C08D2F807F803609F07DC0D0673C
:10377000D093BF025BC0C1DB811105C08091D20331
:10378000882309F471C08091C202811107C0E091C1
:10379000D203F0E0E652FD4FE49101C0E82FE3359B
:1037A00041F4C43531F49091D2039E5F9093D203DB
:1037B00008C0EC1731F0DF91CF911F910F91FF906E
:1037C0004FCB882369F08091F2018E5F8093F201E4
:1037D00094DB81110EC08091D2038E5F8093D2035F
:1037E0008091D203E82FF0E0E552FD4F14911F3F86
:1037F00059F48091BE028093C2028436B9F480915C
:10380000B9038093C00212C01093BE0297E7909351
:10381000BF029091B8039093C0028E5F8093D20351
:103820001092C2028E3041F01123F1F0DF91CF915E
:103830001F910F91FF90C5CB8CEB92E01CDBDC015C
:10384000009781F02C9130E08BEB92E0821B930B80
:10385000A817B90730F4ED01C20FD31F48814D936B
:10386000F7CF1C92FDDAE0CFDF91CF911F910F913E
:10387000FF900895FF920F931F93CF93DF938C01D6
:10388000EC0109900020E9F72197C81BD90BFC0136
:103890008181823751F487E390E00E94DB020E942D
:1038A000490381E08093F8032AC0833731F5FC2E69
:1038B0005F988FE70E9460028C2F82500E94600206
:1038C000E801229612E01F1528F489910E946002F7
:1038D0001F5FF9CF5F9A0E9437038AE30E94BF02FD
:1038E0008F7721F081E00E94FF05F7CFDF91CF9124
:1038F0001F910F91FF900C9449031092F803DF91F0
:10390000CF911F910F91FF900895CF92DF92EF9288
:10391000FF920F931F93CF93DF93CDB7DEB7C054C1
:10392000D1090FB6F894DEBF0FBECDBF8091F8036A
:10393000882309F455C0813011F58091AF0390912F
:10394000B003A091B103B091B2032091C302281734
:1039500009F446C085E30E94BF02813129F48AE35D
:103960000E94D7020E9449038091AF039091B00357
:10397000A091B103B091B2038093C30231C08FE331
:103980000E94BF02D82E8FE38D1538F15F988FEF1C
:103990000E9460028E010F5F1F4F7801C02E8E2D96
:1039A000801B8D1538F480E00E946002F70181933E
:1039B0007F01F5CF5F9A81E080934201802F8C19BF
:1039C0008D1530F4F80181918F010E946406F6CFC5
:1039D0000E94B8068FEF8093420181E08093F80344
:1039E000C05CDF4F0FB6F894DEBF0FBECDBFDF91D6
:1039F000CF911F910F91FF90EF90DF90CF9008959E
:103A00008A9A0C94FA058A980C94FA05DF92EF9240
:103A1000FF920F931F93CF93DF93CDB7DEB7279716
:103A20000FB6F894DEBF0FBECDBF95E7998388230C
:103A300099F0BE016E5F7F4F809141040E94B407F0
:103A4000BE016C5F7F4F8091FA030E94B40785E549
:103A50008E8386E0D82E02C0DD24D3940E94BD035D
:103A60000E94370316E080E891E0CADF80E093E02F
:103A7000CADF1150C1F780E093E0C2DF80E891E037
:103A8000C2DF80E891E0BCDF8A9887E390E00E9483
:103A9000DB0283E00E94FF055F988FE70E946002CF
:103AA0008091FD038D0D0E946002CE0101967C0184
:103AB0008C01F80181918F010E946002802F8E1984
:103AC0008D15B8F38091FD03882339F08BEF93E0D7
:103AD0000E94760A0E946002F5CF5F9A0E94370327
:103AE0008BEF93E00E945B0A15E18AE30E94BF021C
:103AF0008F7731F0115021F081E00E94FF05F5CF62
:103B00000E94370E27960FB6F894DEBF0FBECDBFCA
:103B1000DF91CF911F910F91FF90EF90DF9008956B
:103B2000CF93DF93EC01898181110CC08091FA035E
:103B30000E943B07809141040E943B07DF91CF9197
:103B40000C94B8068936E1F441E06AEF73E0CE01E7
:103B500002960E943F076091FA0380E690E00E947F
:103B6000C70741E061E474E0CE0104960E943F077C
:103B70006091410481E690E0DF91CF910C94C707FA
:103B80008BEF93E00E945B0A21966991662329F0EE
:103B90008BEF93E00E94600AF8CF80E0DF91CF9135
:103BA00035CFCF92DF92EF92FF920F931F93CF9377
:103BB000DF931F92CDB7DEB780913F04882309F4CD
:103BC00086C0C090AF03D090B003E090B103F090F6
:103BD000B203833009F061C08FE30E94BF02182F47
:103BE0008630C8F085E894E00E945B0A5F988FEF0A
:103BF0000E94600280E00E946002082F115049F08C
:103C000080E00E946002682F85E894E00E94600ACC
:103C1000F5CF5F9A01C000E00E94370E10923F047A
:103C2000053709F054C041E0BE016F5F7F4F88E85F
:103C300094E00E943F07019759F599818091FA031A
:103C4000981326C080918C04853571F48091870487
:103C5000882339F085E894E00E94760A0E94640681
:103C6000F5CF0E94B80633C08091870484508093BA
:103C7000870484E0809386046AE085E894E00E94EB
:103C8000600AE091AB03F091AC0388E009951FC096
:103C900085E894E00E945B0A1AC0823059F4809152
:103CA000F9039C2D981B983090F00E94370E1092CB
:103CB0003F040DC0813059F487E390E00E94DB029D
:103CC0000E94490382E080933F04C092F9030F9061
:103CD000DF91CF911F910F91FF90EF90DF90CF90E8
:103CE00008950E942A15882319F083E080934004E8
:103CF00080914004815080934004882321F083E028
:103D000080933E04089581E081CE0F931F93CF935B
:103D1000DF93EC0110E0212F30E0F901EE0FFF1FDF
:103D2000E20FF31FE454FF4F0491F901EE0FFF1F60
:103D3000E20FF31FE354FF4F25913491002399F0D4
:103D4000209739F480E20E946406802F0E94640666
:103D500008C08881801305C0CE01F901099581E072
:103D600003C01F5FD8CF80E0DF91CF911F910F91EB
:103D70000895CF93C09142018093420180918704BE
:103D8000882309F43DC085E894E00E94760A2091DA
:103D9000C4023091C5028A3011F08D3011F5211521
:103DA000310561F3F901EA53FD4F108286EC92E090
:103DB000ACDF811111C080E093E00E94AB0686EC7D
:103DC00092E00E94A00688EE92E00E94AB0680E09E
:103DD00090E09BDF0E94B8061092C5021092C402C8
:103DE000CDCF2034310550F6A9014F5F5F4F50937E
:103DF000C5024093C402F901EA53FD4F8083BECF50
:103E0000C0934201CF910895E4E6F0E080818B7F7A
:103E10008083299A84B1876084B9239880E58CBD1A
:103E20008DB581608DBD08951F93CF93DF93EC0115
:103E300016E0115048F089910E943B071123C9F305
:103E40008AE30E946406F5CFDF91CF911F91089518
:103E5000EF92FF920F931F93CF93DF93EB01FC013F
:103E6000E080F180FE24EF24FE24028113811027DC
:103E7000012710276F2DCE010E94C7076E2DCE019E
:103E800001960E94C707612FCE0102960E94C707C4
:103E9000602FCE010396DF91CF911F910F91FF907C
:103EA000EF900C94C7070F931F93CF93DF93CDB779
:103EB000DEB765970FB6F894DEBF0FBECDBF89E6BB
:103EC0008A8384E68B836AE473E0CE0104960E94C1
:103ED000BE39CE0101960E94750881E68B836CE3A2
:103EE00073E0CE0104960E94BE39CE0101960E9475
:103EF00075088EE68B836EE273E0CE0104960E9415
:103F0000BE39CE0101960E94750887E68B8362E276
:103F100073E0CE0104960E94BE39CE0101960E9444
:103F2000750880E78B836DE173E0CE0104960E94F3
:103F3000BE39CE0101960E9475088EE48B8365E13F
:103F400073E0CE0104960E94BE39CE0101960E9414
:103F500075088FE68B8362E173E0CE0104960E94C0
:103F6000BE39CE0101960E9475088AEF9FE00E943B
:103F7000CC07843A71F58BEF9FE00E94CC07803527
:103F800041F58CEF9FE00E94CC07853511F58DE659
:103F90008B836BE073E0CE0104960E94BE398DEFF7
:103FA0009FE00E94CC07BE01665F7F4F0E94B4076E
:103FB0008EEF9FE00E94CC07BE01645F7F4F0E949E
:103FC000B4078FEF9FE00E94CC07BE01625F7F4F76
:103FD00026C08DE68B8364E073E0CE0104960E94D8
:103FE000BE39E0E0F0E000E010E081E280935700AD
:103FF0009491090F111D3196E032F105B9F7BE0118
:10400000665F7F4F80E00E94B407BE01645F7F4F10
:10401000812F0E94B407BE01625F7F4F802F0E94F4
:10402000B407188ACE0101960E94750865960FB6EE
:10403000F894DEBF0FBECDBFDF91CF911F910F91DE
:10404000089517D58CEC94E00E94552F892B39F1F7
:104050008CEC94E00E94412F86EE94E09093E5046E
:104060008093E40482E052D68091D7049091D804E2
:10407000892B19F00E943A2EC7D48BEE9CE09093C6
:10408000E1048093E00485E041D68091D7049091CB
:10409000D804892B19F00E943A2EB6D426D588EC84
:1040A00094E00E94552F892B31F088EC94E00E9417
:1040B000412F0C94702D0895CF92DF92EF92FF92D2
:1040C0000F931F93CF93DF938C01EB01CB010E94E1
:1040D000CC077E018FEFE81AF80AC7010E94CC07CF
:1040E000D82ECE010E94CC07C82EC7010E94CC0753
:1040F0002C2D30E03D29F801318320837E01F2E050
:10410000EF0EF11CC7010E94CC072396CE010E943E
:10411000CC07D82EC7010E94CC07F82ECE010E94F2
:10412000CC072F2D30E03D29F80133832283DF9126
:10413000CF911F910F91FF90EF90DF90CF90089556
:10414000CF93DF9300D000D0CDB7DEB769E670E043
:10415000CE010196B1DF89819A81909308078093FF
:1041600007078B819C8190930A078093090761E779
:1041700070E0CE010196A0DF89819A8190930007BB
:104180008093FF068B819C819093020780930107A7
:104190006DE670E0CE0101968FDF89819A81909360
:1041A0000407809303078B819C819093060780937B
:1041B000050786E794E05AD44ED10E94D7310F907C
:1041C0000F900F900F90DF91CF910895269A2E981F
:1041D00088EC0E94FF052E9A88EC0E94FF052ED4E1
:1041E00082E690E00E94CC078093090383E690E08A
:1041F0000E94CC0780930A0384E690E00E94CC07DB
:1042000080930B0385E690E00E94CC0780930C031B
:1042100086E690E00E94CC0780930D0387E690E04D
:104220000E94CC0780930E0389E093E008D480912C
:10423000090380930F0380910A03809310038091F8
:104240000B038093110380910C03809312038091E0
:104250000D038093130380910E0380931403EED417
:104260001092A8031092A7036FE170E08CEC94E029
:104270000E94352F62EE74E088EC94E00E94352FA6
:1042800088E690E00E94CC07882351F086EA94E00B
:10429000EDD389E093E00E94A031109208030895C5
:1042A00082E0809308034CCF1F93CF93DF93FC01F0
:1042B0008181893621F4DF91CF911F9187CF833699
:1042C000C1F4C7E0D7E014E0115060F0899140E2FA
:1042D00061E090E00E94BC061123B1F38EE20E94DF
:1042E0006406F2CF80E20E9464068FE093E09CDDDA
:1042F0000AC0843669F4809107038F5F83708093CE
:1043000007030E943B07DF91CF911F910C94B806E1
:104310008E3629F4DF91CF911F910C94C633DF9133
:10432000CF911F910895CF93DF93EC01009719F47B
:10433000DF91CF9105CF69E670E0469689DD8E89E1
:104340009F899093080780930707888D998D909394
:104350000A078093090761E770E0CE01829678DD55
:104360008AA19BA1909300078093FF068CA19DA139
:1043700090930207809301076DE670E0CE014A96A4
:1043800067DD8A8D9B8D90930407809303078C8D46
:104390009D8D9093060780930507EB81FC81158224
:1043A000148286E794E062D356D0DF91CF910C94CB
:1043B000D731E091E404F091E504248135818091C6
:1043C000D0049091D1042817390709F46EC00895DC
:1043D00080910803823029F00E9470308093080396
:1043E0000895E091E004F091E104309759F0809154
:1043F000DF0481FF07C08481958181159B4711F4FB
:104400000C94F63308951F93CF93DF93C091E40487
:10441000D091E504809144048823C9F089A18A3FA2
:1044200049F482E073D40E943A2EEED282E00E94D8
:10443000FF0507DE19A181E0810F89A382E494E0E2
:104440000E94760AFE01E10FF11D82A3E3CFDF9106
:10445000CF911F91089589E790E00E94F139292FAB
:1044600030E040E050E0582FC901842B952B909309
:10447000D1048093D00439D41092D3041092D20482
:104480000895E0910705EA3F40F491E09E0F909374
:104490000705F0E0EE5FFA4F86830895E091E404AB
:1044A000F091E50482E0848F0895EF92FF920F93DC
:1044B0001F93CF93DF930091E4041091E504809162
:1044C000DF0486FF1CC0F80111A281E0848F809177
:1044D000D2049091D3049C012F5F3F4F3093D304BB
:1044E0002093D204892B29F4809142018460809327
:1044F000420166EA7EE0C8014D960E94352FF80120
:10450000848D8230B9F481E0848F80E18093DF0470
:104510008091D2049091D30401979093D304809317
:10452000D204892B09F0BDC0809142018B7F80931A
:104530004201B7C08091DF04982F907311F487FF78
:104540000AC0E091E404F091E50411A2DF01A45E49
:10455000BE4F1C92148E81FF2EC0E090D704F090C5
:10456000D804E114F10439F13091E2042091E3041C
:1045700083E092E29093AA038093A903C32FD22FE2
:10458000699185E894E00E94600A809187048034F4
:1045900031F4E091AB03F091AC0384E00995F1E0D4
:1045A000EF1AF108E114F10459F7E091AB03F0912F
:1045B000AC0384E009958091DF04982F947082FD0C
:1045C00006C0282F237019F4887409F451C0C091D3
:1045D000E404D091E504992311F17E0184EEE81AF8
:1045E0008EEFF80AF7014081442309F441C050E0FE
:1045F000BE01635E7E4F8091E2049091E3040E94CD
:10460000D239F701608170E08091E2049091E30477
:104610000E94CB2CCE014D960E944B2F29C049A160
:10462000442331F17E01F2E2EF0EF11C50E0B701BC
:104630008091E2049091E3040E94D23969A170E074
:104640008091E2049091E3040E94CB2CCE014D9620
:104650000E944B2F49A150E0B701CE01835E9E4FCF
:104660000E94D239FE01E45EFE4F89A1808319A227
:10467000F801848D8130A9F4035E1F4FC8010E94A8
:10468000552F892B71F0C8010E94412FC091420122
:1046900084E08093420187E391E00E94BE09C093C9
:1046A0004201DF91CF911F910F91FF90EF900895FC
:1046B0002898962F9F71982B9EBD0DB407FEFDCFB5
:1046C0001EBC0DB407FEFDCF67FD03C08EB5289A52
:1046D00008951EBC0DB407FEFDCFF8CF28986F716A
:1046E000682B6EBD0DB407FEFDCF4EBD0DB407FEA9
:1046F000FDCF289A089528982AE32EBD0DB407FE11
:10470000FDCFFB01860F971FE817F90739F01EBC94
:104710000DB407FEFDCF2EB52193F6CF289A08954C
:1047200028982AE72EBD0DB407FEFDCFFB01860FAA
:10473000971FE817F90731F021912EBD0DB407FE40
:10474000FDCFF7CF289A08951F93CF93DF93182FAB
:104750001076C12FD0E02091D60430E0C217D307E5
:1047600079F043E06FE180EAB9DFAE0185E055956D
:1047700047958A95E1F76FE180E8B0DF1093D604A2
:10478000DF91CF911F910895CF93DF931F92CDB703
:10479000DEB7682F6983D8DF698180E00F90DF91F1
:1047A000CF9186CF1F93CF93DF931F92CDB7DEB704
:1047B000182F6983C9DF4981612F80E40F90DF9151
:1047C000CF911F918BCF1F93CF93DF931F92CDB7C4
:1047D000DEB7162F682F84ED7983E4DF612F86ED35
:1047E000E1DF7981672F87EDDDDF8AEECDDF80FDA8
:1047F000FCCF0F90DF91CF911F910895209A289AB6
:10480000299A219A2398229A209A8CB580618CBD8E
:104810008CB5877F8CBD8CB58F7D8CBD8CB58E7F24
:104820008CBD8CB58D7F8CBD8DB581608DBD8CB5FB
:1048300080648CBD4FEF60E08FEF50DF82E390E04B
:104840000E94FA058DE1A0DF80FFFCCF80E096E0BA
:104850009093D5048093D40460E088E0A3DF66E001
:1048600089E0A0DF60E08CE09DDF66E08DE09ADF0C
:104870006FEF8AE097DF6FE18BE094DF60E084E028
:1048800091DF60E085E08EDF6DE080EC8BDF60E043
:1048900081EC88DF42E362EC80E820DF62E186ECB5
:1048A00081DF6CE087EC7EDF62E184EC7BDF6EEE23
:1048B0008AEC78DF65E08BEC75DF60E071E080E129
:1048C00082DF8FE141DF40EC6BE180E807DF44E00D
:1048D0006FE180E803CFCF92DF92EF92FF920F93C8
:1048E0001F93CF93DF938C017B01EA01690140E8BC
:1048F0006FE180E8F3DE40E86FE180EAEFDE60E040
:1049000082E050DF60E083E04DDF6C2F600F86E0D7
:1049100049DFC8018C0F9D1F692F87E043DF40E00E
:1049200060E08AE7DBDEB701C801FADE209719F004
:10493000B601CE01F5DE48E06FE180E8DF91CF916E
:104940001F910F91FF90EF90DF90CF90C7CEEF9225
:10495000FF920F931F93CF93DF938C017B0189E329
:1049600013DF882309F440C06091D40480E01ADF8B
:104970006091D50481E016DF60E08AE399DEC82FFC
:10498000D0E0D093D504C093D40460E08AE390DEF5
:10499000D82BD093D504C093D40460E08AE388DE9A
:1049A000C82FD0E060E08AE383DED82B60E08AE3A2
:1049B0007FDE60E08AE37CDECF3E85E0D807B8F496
:1049C0000C171D0708F4E801B701CE0194DE6091D1
:1049D000D4048CE0E7DE6091D5048DE0E3DE40E4B2
:1049E0006EE180E87BDE03C080E090E001C0CE0194
:1049F000DF91CF911F910F91FF90EF9008956BE0A1
:104A000077E08CED95E0A3CF8091D7049091D80406
:104A10008733910538F420E030E040E050E06BE06F
:104A200077E00BC02091E2043091E304AC014653DF
:104A300051096BE077E086E390E04DCFDFCECF9376
:104A4000DF93EC01688184EEADDE698185EEAADE3C
:104A50006A8182EEA7DE6B8183EEA4DE6C8180EE3C
:104A6000A1DE6D8181EEDF91CF919CCEBC0184E10E
:104A7000AACECF93DF93C3DF9093D8048093D7045B
:104A8000009781F18F3E954018F0DF91CF919ECB3A
:104A9000C0911707D091180780E098E078D7C81721
:104AA000D90759F481E032D18091D7049091D8048C
:104AB000892BC1F00E943A2E12C0C0911707D091E5
:104AC000180786E098E063D7C817D90759F40E9401
:104AD0009A2D8091D7049091D804892B19F0DF91F9
:104AE000CF9192CFDF91CF9108950895FB0141506E
:104AF0005109460F571FE417F50778F4208130E07D
:104B0000322F22276181260F311D820F931F8217BA
:104B1000930708F401963296EECFE417F50751F4A7
:104B2000208130E0322F2227820F931F82179307B4
:104B300008F401960895FC015381560F5093DE044A
:104B4000872F99274281480F4093DD04A181A093CC
:104B5000DC04E081E093DB04242F30E028173907E0
:104B600048F481E08A0F8093DC04811103C0EF5F79
:104B7000E093DB04852F90E077278617970788F46A
:104B80004F5F4093DD0441110CC08091DC048F5FC6
:104B90008093DC04811105C08091DB048F5F8093DA
:104BA000DB0408952091E4043091E504BC01C901BF
:104BB0000896C1DFE091E404F091E5048091DB0404
:104BC00080878091DC0481878091DD0482878091D9
:104BD000DE048387089544E150E069E177E080E0F6
:104BE00090E084DF009721F098278927982708957F
:104BF0008FEF9FEF0895CF93DF93C0911B07D0E015
:104C0000DC2FCC2780911C07C80FD11D48E050E055
:104C100065E277E0CE010E9769DFAE01445151099C
:104C20006DE277E063DF009721F0982789279827C6
:104C300002C08FEF9FEFDF91CF9108951092FE0693
:104C40001092FD061092FF0481E0809318031092E9
:104C5000F00C1092EF0C0895E091EF0CF091F00C35
:104C60002091190330911A032F5F3F4F21154DE713
:104C7000340710F020E030E1522F432FE417F507FE
:104C800099F330931A0320931903EF2B41F51092F7
:104C900018035093F00C4093EF0C7093F20C609358
:104CA000F10C009749F41092EB0C1092EC0C10925E
:104CB000ED0C1092EE0C0DC0FC012081318130937F
:104CC000EC0C2093EB0C828193819093EE0C8093FB
:104CD000ED0C80E48093F30C8BEE9CE0089581E072
:104CE0008093180380E090E008952091FD063091B4
:104CF000FE06232B39F4109218039093FE0680933E
:104D0000FD06089581E08093180308950F931F9383
:104D1000CF93DF93C091E404D091E504843009F48B
:104D2000A4C121E437E03093E3042093E2043093FC
:104D3000DA042093D904833059F4898D8F7083303D
:104D400009F016C688899989892B09F011C677C0A0
:104D5000823009F079C080911E038F5F80931E031B
:104D6000811113C080911D038F5F80931D038111FA
:104D70000CC080911C038F5F80931C03811105C0C0
:104D800080911B038F5F80931B031092D8041092B5
:104D9000D7041092EA0C1092E90C298D822F8D7F96
:104DA000853041F48A8D8F5F8A8F883709F0E0C59E
:104DB000198EDEC5222309F4DBC588899989892BE0
:104DC000D1F18A8D9FEF980F9A8F8111D1C58B8D6C
:104DD000883031F09FEF920F923040F4853031F4FB
:104DE000198E80E88093DF04E4DA6FC4853038F4EC
:104DF00093E0082E01C0990F0A94EAF701C090E3EE
:104E00009A8F8F5F8B8F822F8F70843009F4F5C358
:104E100058F4813009F4E5C2833009F0A9C584E073
:104E20008093DF04C6DA85C4863009F4E6C388308F
:104E300009F09EC5E2C32F70233009F099C588E0C0
:104E40008093DF04B6DA38C4853019F5E091E004C8
:104E5000F091E10484819581892B09F489C5109230
:104E6000E5041092E40485E397E09093E3048093D3
:104E7000E2049093DA048093D9041092EA0C109221
:104E8000E90C1092D8041092D70488E08093DF04D4
:104E9000EBC080911907853409F06AC5C0911B07E2
:104EA000D0E0DC2FCC2780911C07C80FD11D80914A
:104EB000D7049091D8048C179D0708F459C5D09356
:104EC000D804C093D70480911F078F7309F050C591
:104ED0008091200781114CC50091070710910807A8
:104EE0000115110531F48091090790910A07892B6A
:104EF000A1F08091290790912A078017910709F066
:104F000037C520912B0730912C078091090790918C
:104F10000A072817390709F02BC55DDE019609F04D
:104F200027C580912207863009F4F6C08131B1F19E
:104F3000813009F01DC580912D07883009F018C512
:104F400010922D0780912F0790913007873FCFEF68
:104F50009C0710F0099601C0089690933007809343
:104F60002F07809125079091260790932A07809319
:104F70002907809127079091280790932C07809309
:104F80002B0710932607009325078091090790911E
:104F90000A079093280780932707EEC46C97D09355
:104FA000D804C093D7048BEE9CE09093E1048093E7
:104FB000E00420912F073091300740912D07509148
:104FC0002E076091250770912607A0912707B091C1
:104FD0002807E091E004F091E1048DE0EA31F80760
:104FE00008F0C6C484819581009719F12817390704
:104FF00001F586819781009719F048175907C9F480
:1050000080819181009729F4C281D381CD2B49F40D
:1050100016C08F3F1FEF910721F4C281D3812196E3
:1050200071F06817790729F482819381A817B9076D
:1050300031F0BF96F093E104E093E004CACF109200
:10504000E5041092E40482E08093DF0485E397E0B6
:105050009093E3048093E2049093DA048093D9045C
:105060001092EA0C1092E90CB3D98091E90C90915E
:10507000EA0C009709F47CC49C01245E3F4F3093F6
:10508000D8042093D70430931B0720931C07E0918A
:10509000E004F091E10420852093210721E1209391
:1050A000220708969827892798279093320780939C
:1050B00031071092340710923307848195819093C1
:1050C0002E0780932D0786819781909330078093D8
:1050D0002F078091070790910807909326078093E8
:1050E00025078091090790910A07909328078093DC
:1050F00027078081918190932A07809329078281D5
:10510000938190932C0780932B0781E497E09093F1
:10511000E3048093E2040AC46EDD019609F028C41A
:105120005091FF0440913A07552369F120912F07D0
:10513000309130078091EA049091EB0428173907E9
:1051400011F520912D0730912E078091EC0490915C
:10515000ED0428173907B9F4209125073091260767
:105160008091E6049091E7042817390761F42091B3
:105170002707309128078091E8049091E9042817C7
:10518000390709F445C1842F8F73823019F042FD2D
:10519000EFC317C080912F079091300790931603AB
:1051A000809315032091FD063091FE068217930728
:1051B00009F0E9C3511176C010921803C6EED4E08D
:1051C0007BC084E180933A0788E290E09093D80412
:1051D0008093D70480E580933907809134079091BC
:1051E00038079093340730913307909137079093A5
:1051F0003307309337072091320790913607909309
:10520000320720933607909131079093180340910D
:10521000350740933107909335078F5F80933807A8
:1052200081110FC081E0830F80933707811109C07E
:1052300081E0820F80933607811103C09F5F9093B6
:10524000350780912D0790912E0790931603809338
:10525000150320912F073091300730932E072093AC
:105260002D079093300780932F0780912507909109
:10527000260790932A07809329078091270790910A
:10528000280790932C0780932B07109326070093F1
:1052900025078091090790910A079093280780932A
:1052A00027072AC3573019F4C6EED4E002C0C0E085
:1052B000D0E081E080931803209709F459C3D0937C
:1052C000E504C093E40483E08A8F888F1E8A84E01B
:1052D0008F8B1B8E80912F07909130079D838C833D
:1052E00080912D0790912E079F838E8380912507B3
:1052F00090912607998388838091270790912807AA
:105300009B838A8381E0898F80911B038C878091A6
:105310001C038D8780911D038E8780911E038F87CC
:1053200081E090E0998B888B809134078B87809106
:1053300033078A8780913207898780913107888770
:1053400081E090E02FDC80913907282F207F30E02A
:10535000213531050CF445C082958F7090E005979A
:10536000880F991F880F991F3091170320E0E22FB3
:10537000F0E0E817F9078CF5E55FF84F36A9311131
:1053800005C020931803109217032BC0313011F47D
:105390002F5FEDCF3230E1F447A94430C9F42093B8
:1053A00018033093170380AD90E0982F882721AD24
:1053B000822B9093160380931503873A15E091078B
:1053C00010F086EA95E09B8B8A8B9D8B8C8B09C0B5
:1053D00047A9442311F0240FCACF20931803309318
:1053E000170382E180933A0782E08093410784E0CB
:1053F0008093420785E08093430786EA80934407C1
:105400008CE290E09093D8048093D70480E621C288
:1054100086EE94E09093E5048093E4041092DF0418
:1054200042FF04C01092FF0480E2B1C180913907AD
:1054300082958F70880F880F80931803C81BD1093D
:105440006497D093D804C093D7045F70523021F48E
:10545000842F8F738231E9F0CD2B19F4842F837060
:10546000C1F0909131078091EE049813E6C19091BC
:1054700032078091EF049813E0C190913307809137
:10548000F0049813DAC1909134078091F1049813D5
:10549000D4C144FF58C06091F6047091F7046115BF
:1054A000710509F450C082EF94E045DB3091350777
:1054B0008091DB04381347C0209136078091DC04CB
:1054C000281341C0909137078091DD0498133BC0A9
:1054D000809138074091DE04841335C03093F20484
:1054E0002093F3049093F4048093F50480910105D4
:1054F00081111EC09091FC048091FE042091000552
:10550000821B292F269526952695821B980F90930E
:10551000FC042091FD04322F36953695831B820FB3
:105520008093FD04969596959695980F9093FE041A
:1055300081E08093DF048091FE0480930005109247
:10554000F7041092F6044091FF04842F8F7090E0CE
:10555000FC013197E830F10508F00AC2E45BFF4F27
:105560000C9478388091DF0480FF02C283E080933E
:10557000FF0480E48093DF041092F7041092F60495
:105580008091D7049091D804009709F48DC022E44B
:105590002093DF0407DB88C080913A0780FF31C089
:1055A00044FD2FC08091F6049091F704892B09F0F7
:1055B000DFC18091D7049091D8040196F3DA20914D
:1055C000DF04822F80618093DF048091D704909163
:1055D000D804892B19F022612093DF040E94D9217D
:1055E00081E090E09093F7048093F60488E0809344
:1055F000FF0410920105C6EED4E081E180933A07E2
:1056000021C185FF1CC080913F0790E0982F88271B
:1056100020914007822B2091E2043091E304280F6F
:10562000391F3093E3042093E2042091D704309192
:10563000D804281B390B3093D8042093D7048091C9
:10564000D7049091D804009741F044FD06C0209102
:10565000DF0422602093DF04A5DA80913B0790E00D
:10566000982F882720913C07820F911D9093160355
:10567000809315032091FA043091FB042817390711
:1056800010F0892B21F43093160320931503809199
:105690001503909116039093F9048093F804809178
:1056A000DF04837009F464C11092EA0C1092E90CD3
:1056B0000E94D921C6EED4E08091DF0485FF07C0A7
:1056C0001092EA0C1092E90C198E84E197CF84FFB6
:1056D0000CC01092EA0C1092E90C81E090E0998BDA
:1056E000888B84E0898F1B8E88CF2091E90C3091C4
:1056F000EA0C21153105E1F080FF02C0198A188AF1
:1057000088899989009781F48A899B8982179307F0
:1057100020F49093EA0C8093E90C8091E90C90912D
:10572000EA0C998B888B04C09093EA0C8093E90C67
:105730001B8E8091D9049091DA049093E3048093B6
:10574000E2048091E90C9091EA0C892B59F0888948
:105750009989009739F088969093D8048093D7045C
:1057600088E10BC08091DF0481FF02C188E290E0F4
:105770009093D8048093D70480E180933A0768C05F
:105780008091DF0480FFF4C01092FF0480E18093D9
:10579000DF040E94D921ECC08091D7049091D804F5
:1057A000009709F0FFD990913A078091DF0490FFAC
:1057B00010C080FF0AC087E08093FF0410920005AC
:1057C0001092F7041092F6041EC086E08093FF0446
:1057D0001AC080FF21C085E08093FF041092F70477
:1057E0001092F604C5C08091D7049091D804009718
:1057F00009F0D8D980913A0780FF0EC087E08093E6
:10580000FF041092000581E090E0CCD980E1809304
:10581000DF040E94D92111C08091D7049091D8044F
:10582000892B59F4A5C08091DF0480FFA1C087E0D7
:105830008093FF04109200059BC080E180933A079B
:10584000C6EED4E088E290E09093D8048093D70429
:1058500080E5809339078885809335078985809313
:1058600036078A85809337078B85809338078C8528
:10587000809331078D85809332078E85809333071F
:105880008F858093340786E0809322078C819D81E9
:1058900090932E0780932D078E819F8190933007E0
:1058A00080932F0780910707909108079093260710
:1058B000809325078091090790910A079093280704
:1058C000809327078881998190932A0780932907DD
:1058D0008A819B8190932C0780932B07898D84FF6D
:1058E00005C010923C0710923B0706C085E08093EC
:1058F0003B0786EA80933C0780E4809321078091F0
:10590000D7049091D80490931B0780931C071092A2
:10591000400710923F0710923E0710923D076BD947
:105920008095909590933E0780933D0785E4809302
:10593000190710921A071092200710921F078091E2
:105940001F039091200301969093200380931F03DF
:1059500090931D0780931E0710922407109223072F
:105960003AD980959095909324078093230704C09B
:105970001092D8041092D7041092DF04DF91CF91D7
:105980001F910F91089581E08093180300CC982710
:105990008927982708959C01AB011616170674F401
:1059A0007093EA0C6093E90C8091D9049091DA0429
:1059B0002817390719F0B9010C94D2390895CF93FB
:1059C000DF9310922403409127075091280760919C
:1059D000290770912A07E0E0C0E0D0E0FBE0E83062
:1059E000F0F4FE9FE0011124C75DDC4F288139816E
:1059F0002115310591F08A819B81009771F0421742
:105A0000530759F46817790741F4E0932403DE0142
:105A1000149686E0E1E2F7E059C0EF5FE0CF109224
:105A2000240320E03BE0283090F4329FE001112471
:105A3000C75DDC4F88819981892B39F48A819B81EC
:105A4000892B19F4209324032FC02F5FECCF2093D0
:105A50002403283049F5A09122038A2F90E070E0BA
:105A6000C0E060E0BBE0683098F4B69FF00111241C
:105A7000E75DFC4FE285AC014E1B5109272F30E05A
:105A8000241735071CF4C62F7A2F7E1B6F5FEBCFD0
:105A900070932103C0932303C09324038BE0C89F1A
:105AA000E0011124C75DDC4F809127079091280702
:105AB000A0912907B0912A07FE0181939193A193A8
:105AC000B1939F0186E0E1E2F7E0D90101900D92E8
:105AD0008A95E1F7809122038A87DF91CF9108951B
