:10000000A0C10000C4C10000C2C100000C94C8120D
:10001000BEC10000BCC10000BAC10000B8C10000F0
:10002000B6C10000B4C100000C94B435B0C10000EA
:10003000AEC10000ACC10000AAC10000A8C1000010
:10004000A6C100000C946112A2C10000A0C1000072
:100050009EC1000080C400009AC1000098C1000049
:1000600096C1000094C1000092C1000090C1000040
:100070008EC100008CC100008AC1000088C1000050
:1000800086C1000084C1000082C1000080C1000060
:100090007EC100007CC100000129072B1B291B2AFF
:1000A000422A622A6C2A0F2A8732B932CE33B932F9
:1000B000CE3301332933CE3376339E334DDE096D93
:1000C000B909422B0943C102450D20460A0C4D4592
:1000D0000C470D0C52D007540F17574A0856930976
:1000E00058100E63813165510966FC1A6C1A09714A
:1000F0000721742B0575531C78530341E21500004A
:10010000002A03430055004E0000001603620075EC
:1001100000730077006100720065002E00640065C6
:100120000000000403090409024300020100807D6D
:100130000904000001020201000524000110052449
:1001400001030104240206052406000107058203B9
:100150000800FF09040100020A000000070504026C
:100160004000000705830240000012011001020058
:100170000008EB034B2000000102DC01202F2000CF
:10018000203D2000072E050DD391FF080500000C2F
:100190000021656A2D3B1322F862073F181D1CC71A
:1001A00000B0876BF8B611EA2A001F41000D2E2D12
:1001B00007D3913D04320000060021656A55E43002
:1001C00023B900070018146C070090876BF85611CC
:1001D000E92A001F410000030F1E2627000000032C
:1001E0000F1E2536386700030F2567406050000357
:1001F0000F275188838100030F2750C8C3C20027EF
:100200000000000000000067000000000000005037
:10021000000000000000008100000000000000C29B
:10022000000000000000504C4C310D0A00504C4CB6
:10023000300D0A005620312E36332043554E002013
:100240002F2000203D2000416C6C6F6320666169A7
:100250006C6564004F4B0050726F626C6D6573206B
:1002600061742000206279746573206F66205241AA
:100270004D202D200074657374696E6720004C4F0B
:1002800056460D0A00424F56460D0A000007022E40
:10029000030D04E905CA070C0B060D210E650F6A54
:1002A00010C81193120315341733181819161B436D
:1002B00021562500261129592C812D353EC34E2F5C
:1002C0004100454F420D0A004E2F41004E2F410084
:1002D00000535300547D7DFFFF4B4B7E7E00206911
:1002E0007320756E6B6E6F776E2920557365206F66
:1002F0006E65206F66003F2028004134353035356B
:100300000041343530353500303000302E302E305D
:100310002E300032333233003139322E3136382E1E
:10032000302E31003235352E3235352E3235352EE0
:1003300030003139322E3136382E302E32343400FE
:1003400031008FEF82B988B980E8809374001092F1
:10035000750011241FBECFEFD0E2DEBFCDBF11E08C
:10036000A0E0B1E0E6EBF0E700E00BBF02C00790D1
:100370000D92AC33B107D9F72CE0ACE3B1E001C08A
:100380001D92AA32B207E1F70BD00C94593838CE3F
:10039000F89481E085BF82E085BFE0E0F0EF09944A
:1003A0002FE088E190E00FB6F894A8958093600064
:1003B0000FBE2093600090E080E80FB6F894809321
:1003C0006100909361000FBEBCDF04B603FE0AC05B
:1003D00083E390E0B6D5882329F060E083E390E0E2
:1003E000ABD5D6DF8091B2038111FFCF89EF87BDF6
:1003F00084E085BD82E084BD80936E001092800011
:100400008AE08093810084B7877F84BF519A0E94DD
:10041000BD1D76D70E9484350E94AF160E94EF0D55
:100420000E949F1F8CE79DE19093A9038093A803EE
:1004300081E08093400159980E946936C7D10E949B
:100440000F1034D30E94481B0E94941C0E94771402
:100450000E94DA1EF1CF292F33272230310559F0BF
:100460002330310569F021303105E9F482E190E073
:100470002AE631E01CC083E490E027E231E017C0B7
:1004800099278130910549F028F0029761F4E1E065
:10049000F1E005C0E3E2F1E002C0EBE0F1E08491BD
:1004A00090E09F0104C080E090E020E030E0FA019D
:1004B0003183208308958EBD0DB407FEFDCF8EB528
:1004C0000895EF92FF920F931F93CF93DF931F92A4
:1004D000CDB7DEB7482F8A3008F048E088E0489F63
:1004E00070011124F701EA52FE4F7F018BE290E088
:1004F000F70164918C010F5F1F4F49831DD5FFEFFA
:10050000EF1AFF0A49810333110511F0C801F0CF3A
:100510004550453010F461E101C067E184E290E0AC
:100520000F90DF91CF911F910F91FF90EF9004C535
:10053000CF93DF9382E090E0FC01E555FE4F64919C
:10054000EC012196F9D4CB32D10511F0CE01F4CFD4
:1005500087E390E0FC01E35BFE4F6491EC012196A0
:10056000EBD4C036D10511F0CE01F4CF88E0DF9195
:10057000CF91A7CF5F98806C9EDF80E09CDF5F9A71
:1005800008951F93CF93DF931F92CDB7DEB741E05D
:10059000BE016F5F7F4F019647D4892B21F189817E
:1005A000893969F410E0812FE5DF3AD4812F877013
:1005B000873009F4B2D31F5F1033A9F714C0DADF14
:1005C000182F83E456D389812BD480E891E098D307
:1005D000812F26D48CE791E093D340E262E0812F13
:1005E00090E09FD39AD30F90DF91CF911F91089500
:1005F000CF93DF931F92CDB7DEB75F988064698396
:100600005ADF6981862F57DF5F9A0F90DF91CF9174
:1006100008955F9850DF5F9A0895EF92FF920F93CD
:100620001F93CF93DF93EC01EA98579A5F9A8EE17C
:1006300090E0B5D25F988EE190E0B1D25F9A8DE202
:1006400090E0ADD280E3E5DF84E690E0A8D25F9849
:1006500080E431DF7E0189E2E80EF11C8E010F5F3C
:100660001F4FCE016ED427DF0E151F0511F0E801D4
:10067000F5CF5F9A5F988EE71EDF8BE290E0EC018A
:1006800021965FD418DFC333D10511F0CE01F7CF27
:100690005F9A83E3BEDF81E0DF91CF911F910F91DD
:1006A000FF90EF9081C2CF93DF931F92CDB7DEB75B
:1006B00022E0298341E0BE016F5F7F4F0196B4D3F2
:1006C0008981FFDE82E090E0A8DF0F90DF91CF917B
:1006D0000895CF93EA9886E39CDFCFEF85E399DF17
:1006E000C1508077803229F08AE090E058D2C11161
:1006F000F5CFCF910895CF93CFEF84E38ADFC15038
:100700008077803129F08AE090E049D2C111F5CF9D
:10071000EA9ACF91089586E37CDF1092AA031092A3
:10072000EA01089582E090E078DF81E08093AA03F7
:100730001092EA0108950F931F93CF93DF93082F30
:1007400010E0C62FD0E085E315DF801731F0CE0131
:1007500026D21150C1F781E001C080E0DF91CF9136
:100760001F910F91089585E205DF8F3311F080E02E
:10077000089586E34EDF80913C01811104C08DE233
:1007800092E0BED202C08DE344DF83E342DF64E047
:1007900081E0D1DF85E2EEDE8F3349F780913C01C5
:1007A000811103C086E292E0ABD281E0089585E337
:1007B000E1DE8D3051F485E2DDDE8F3331F4D3DFBD
:1007C00084E327DF80778031D9F7089580911D0C6D
:1007D000843009F069C08093E90080913D01811166
:1007E0002AC08091E80085FF26C08091F200909198
:1007F000F300892B31F06091F10081E894E035D667
:10080000F4CF8091E800982F9B7F9093E8008F773A
:100810008093E80081E080933D0186EE93E0909321
:10082000A7038093A603E091A803F091A90381E0B8
:10083000099510923D0183E08093E9008091400486
:10084000882391F18091E80085FF2EC0F894809173
:100850004004882369F08091F2009091F300803485
:10086000910530F48EE394E016D68093F100EFCF3B
:1008700078948091F2009091F3002091E800322F5B
:100880003E7F3093E8002F772093E8008034910575
:1008900059F40E942A348091E800982F9E7F90930B
:1008A000E8008F778093E800089542E061EC82E0F1
:1008B0000E94DA3342E361E883E00E94DA3342E3E4
:1008C00060E884E00E94DA33109200011092010186
:1008D0001092020110920301089580911E0C9091D4
:1008E0001F0C913229F0923261F1903299F512C0C9
:1008F000813A81F58091E800877F8093E80067E086
:1009000070E080E091E00E9453348091E800982FDD
:100910009B7F11C08132F1F48091E800877F809342
:10092000E80067E070E080E091E00E94FD34809193
:10093000E800982F9E7F9093E8008F778093E800DF
:100940000895813239F48091E800877F8093E80030
:100950000C94043408951F920F920FB60F92112435
:100960000BB60F928F939F93AF93BF93EF93FF9329
:100970008091AC039091AD03A091AE03B091AF0311
:100980000196A11DB11D8093AC039093AD03A0937C
:10099000AE03B093AF038091AB038F5F8093AB0343
:1009A0008091170C8F5F8093170C8D37A8F0809182
:1009B0001F0190912001A0912101B0912201019687
:1009C000A11DB11D80931F0190932001A0932101CF
:1009D000B09322011092170CE6EBF3E08081918135
:1009E000181619061CF4019791838083369683E0CC
:1009F000EE3CF80799F78091D0039091D1030097CE
:100A000029F001979093D1038093D0038091E30361
:100A10008F3F19F081508093E303FF91EF91BF91D5
:100A2000AF919F918F910F900BBE0F900FBE0F90C3
:100A30001F9018952FB7F8944091AC035091AD03D7
:100A40006091AE037091AF03FC01408351836283D8
:100A500073832FBF0895CF93DF9300D000D0CDB71D
:100A6000DEB7CE010196E6DF8C81DAD18B81D8D159
:100A70008A81D6D18981D4D150D10F900F900F9017
:100A80000F90DF91CF910895CF93DF9300D000D0E6
:100A9000CDB7DEB7CE010196CDDF89819A810F9067
:100AA0000F900F900F90DF91CF9108951F93CF93E8
:100AB000DF938091AC039091AD03A091AE03B09110
:100AC000AF0320913F01281709F465C08091AC0362
:100AD0009091AD03A091AE03B091AF0380933F011D
:100AE000A895C6EBD3E010E028813981232B19F4B7
:100AF000812F0E9455191F5F26961430A9F7809107
:100B0000D0039091D103892B11F40E94B1198091E7
:100B1000E303811102C00E941D1A80913A048823C8
:100B200039F0815080933A04811102C00E94341D33
:100B30008091AB038D3778F11092AB038091070160
:100B400081FF04C08BB192E089278BB98091B003FB
:100B50009091B103843823E0920728F40196909392
:100B6000B1038093B00380911F01811102C00E94E4
:100B70000B3280913E018F5F80933E018C3359F49C
:100B800010923E018091B5038F5F8093B5038C3343
:100B900010F01092B503DF91CF911F910895880F47
:100BA000991F0197F1F7089520ED37E0815020F06B
:100BB000F9013197F1F7FACF0895CF93DF93DC0174
:100BC00013968C911397843509F050C0CD0103968C
:100BD000CC91FD0170964DE04C1750F050E0D0E004
:100BE0009E012F5031094217530709F03FC005C03D
:100BF00021912B3399F34F5FEFCFFE013E97E80F22
:100C0000F91F2081243591F514963C911497218188
:100C100032132CC015963C9115972281321326C0B1
:100C200016963C9116972381321320C017963C915B
:100C30001797248132131AC06197C80FD91F858175
:100C400088838681898381858A8382858B83838556
:100C50008C8384858D8385858E838C918A508C933B
:100C600012968C9112978A5012968C93DF91CF91A5
:100C70000895CF93C82F8091400182FF03C08C2F2D
:100C80000E94FA2080911D0C843081F480914001F3
:100C900080FF0CC080914004803408F097DD6C2FF9
:100CA0008EE394E0E2D3CA3009F490DD80913D04F4
:100CB0008823C9F08091400183FF15C0CA3099F0A4
:100CC000CD3011F46BE301C06C2F87EF93E0CDD3EF
:100CD000CD3019F487EF93E070DF83E080933A041E
:100CE00082E080933C04CF910895CF93DF93EC0191
:100CF0008991882311F0BDDFFBCFDF91CF9108955B
:100D0000CF93DF93EC01FE018491882319F0B1DFCA
:100D10002196F9CFDF91CF9108958DE0AADF8AE087
:100D2000A8CF0F931F93CF93DF9300D000D000D0B4
:100D3000CDB7DEB7062F1E8215E02AE030E0115055
:100D4000E1E0F0E0EC0FFD1FE10FF11DB9010E94A1
:100D50008736805D8083CB010150009769F01111C7
:100D6000EECF0AC0112359F01150E1E0F0E0EC0F92
:100D7000FD1FE10FF11D4083015007FFF3CF81E01C
:100D800090E08C0F9D1F810F911DAFDF26960FB64F
:100D9000F894DEBF0FBECDBFDF91CF911F910F91B1
:100DA0000895CF93DF9300D000D01F92CDB7DEB768
:100DB0001D8224E0382F3F702150E22FF0E03A30BE
:100DC00010F4305D01C0395CA1E0B0E0AC0FBD1F94
:100DD000EA0FFB1F308334E0969587953A95E1F74B
:100DE0006150009739F7615067FD0BC0222349F02D
:100DF0002150E1E0F0E0EC0FFD1FE20FF11D408318
:100E0000F2CF81E090E08C0F9D1F820F911D6DDF6E
:100E10000F900F900F900F900F90DF91CF9108954A
:100E200040E362E090E0BDCFDC01FB0130E090E008
:100E30008D918823A9F0813608F0805220ED280F8B
:100E40002A3030F02FEB280F263030F429EC280F11
:100E5000292B332379F006C0803251F38A3341F3D2
:100E6000CF0105C0CF0101962083415041F4861B7C
:100E7000970B0895922F9295907F31E0D9CFFC0186
:100E8000D5CFFB0150E020E0DC013D91CD013323C3
:100E9000D1F050ED530F5A3050F4522F550F252FEB
:100EA000220F220F250F2053230F51E0EDCF3032B8
:100EB00011F03E3279F4442321F0208341503196E1
:100EC000E1CF50E0E1CFDF01552321F0442311F0C1
:100ED00031962C93CF01861B970B089520E030E0CC
:100EE0005AE0FC014191CF01442379F0E0EDE40F99
:100EF000EA30B8F7F9015E9F90015F9F300D112431
:100F000020533109240F311DECCFFB0131832083A5
:100F10000895982F92959F709A3010F4905D01C0BB
:100F2000995CFB0190838F708A3010F4805D01C062
:100F3000895CFB01818308950E943B38F999FECFBB
:100F400008950C942E381F93CF93DF9314E0115023
:100F500068F0EC012196F5DF40E261E090E0E1DE2F
:100F6000112311F08EE285DECE01F1CFDF91CF911A
:100F70001F9108951F93CF93DF93162F11501F3F9A
:100F800059F0EC012196DDDF4BDF112311F08AE3EC
:100F900070DE1150CE01F3CFDF91CF911F910895F4
:100FA000FF920F931F93CF93DF9300D0CDB7DEB79F
:100FB000FC012181293691F582818D3621F466E08C
:100FC00082E690E030C0843619F488E690E019C0DB
:100FD000813619F489E690E00EC08E3619F48DE65C
:100FE00090E009C0873619F481E790E004C08E34A0
:100FF00021F485E790E0A7DF44C08F3629F48BE722
:1010000090E09FDF0DDF3DC0803709F03AC089E7EF
:1010100090E00E94363840E260E032C02D3429F47E
:1010200066E08AEF9FE0A6DF2CC0203521F460E166
:101030008AED9FE0F8CF1A82198242E0BE016F5F0D
:101040007F4F0196F1DE098110E0823021F4102FEC
:1010500000278A81082BC80174DFF82E82E509DE9B
:1010600040E364E0C8019DDE83E492E049DE8F2D19
:10107000D7DE8FE392E044DE40E262E08F2D90E025
:1010800050DE4BDE0F900F90DF91CF911F910F91AB
:10109000FF900895CF92DF92EF92FF920F931F93EC
:1010A000CF93DF93CDB7DEB728970FB6F894DEBFA6
:1010B0000FBECDBF9C01FC0181818E010F5F1F4FD0
:1010C000893609F06BC082818D3649F446E0B8015B
:1010D000C9010396A9DE82E690E026E04DC0843681
:1010E00039F4B801C9010396F9DE88E690E03FC003
:1010F000813641F444E0B801C9010396C2DE89E6B5
:1011000090E027C08E3641F444E0B801C90103964F
:10111000B8DE8DE690E01DC0873641F444E0B801AA
:10112000C9010396AEDE81E790E013C0803741F439
:10113000B801C9010396D2DE89E790E022E01CC025
:101140008E3449F444E0B801C90103969ADE85E77C
:1011500090E024E011C08F3661F441E0B801C9018C
:10116000039662DE89818093180C8BE790E021E082
:1011700003C080E090E020E078013E2D301B321764
:1011800008F049C0F70161917F016C01FFEFCF1AB0
:10119000DF0A2887D1DEC6012885EFCF43E0B801FA
:1011A000C901019628873F833FDE28853F81823031
:1011B00090F1C980D12C823021F0DC2CCC244A81E2
:1011C000C42A7C01FF24FE01EE0DFF1D6081C601D3
:1011D00028873F83B1DEEE0CFF1C8FEFE81AF80A78
:1011E00028853F81E20EF31EEFEFCE1ADE0AF701EB
:1011F0008081882381F041E0B801C70115DE892B89
:1012000051F06981C60198DEF2E0EF0EF11C32E088
:10121000C30ED11CECCF28960FB6F894DEBF0FBEDC
:10122000CDBFDF91CF911F910F91FF90EF90DF9095
:10123000CF90089541E067E071E00196F5DD80917F
:10124000070180FF02C0599A01C0599860910701B7
:1012500084E390E071CECF93DF931F92CDB7DEB7DA
:101260001982009731F041E0BE016F5F7F4F019618
:10127000DBDD8981882321F061E083E390E05CDE9F
:101280000E94943510926E00F89428E088E190E076
:101290000FB6F894A895809360000FBE209360006D
:1012A000FFCFCF93DF93EC0161E080E090E044DE7C
:1012B0006FE381E090E040DE3BD960E080E690E0C3
:1012C0003BDE60E081E690E037DE60E083E390E0C3
:1012D00033DE62E084E390E02FDE0E940C1E60E0CB
:1012E00080E690E029DE60E081E690E025DE8981FD
:1012F000883719F080E090E0AEDFDF91CF9108955C
:1013000080E090E01EDE813029F481E090E019DE7B
:101310008F3319F080E090E0C4DF84E390E011DEC9
:1013200080930701089584E392E0EADCF6CC2091F3
:10133000260C3091270C2115310521F4209125012F
:10134000309126018091230190912401009741F46E
:101350008DB79EB74091270150912801841B950BB2
:101360002817390718F4821B930B089580E090E04A
:10137000089582E47EDC40E265E08091260C909145
:10138000270CCFDCCADC83E574DC40E265E08091A9
:10139000250190912601C5DCC0DC85E46ADC40E2D1
:1013A00065E08091230190912401BBDCB6DC86E4EA
:1013B00060DCBDDF40E265E0B4DCAFCC0F931F938F
:1013C000CF93DF9385E792E09BDC40E265E08DEF11
:1013D0009FE7A7DC84E692E093DC8DEF9FE70E9415
:1013E000DC36EC010097A1F14DEF5FE767E770E0B5
:1013F0000E942038FE0180E090E0819301968D3FAD
:101400002FE79207D1F7FE0100E010E0219130E0D4
:10141000C80199272817390779F087E592E070DC31
:1014200040E265E0C8017DDC78DCCE01DF91CF9140
:101430001F910F910C9474370F5F1F4F0D3F8FE773
:10144000180721F7CE010E94743784E592E002C0AC
:1014500087E492E055DCDF91CF911F910F915DCC35
:10146000FC011282108211820895FC018FB7F8945A
:101470009281903470F49F5F9283208191E0920F6B
:101480009083DF01A20FB11D13966C93903409F481
:1014900010828FBF0895FC019FB7F8948281882342
:1014A00071F081508283818121E0280F2183DF0147
:1014B000A80FB11D13968C91203409F411829FBF9F
:1014C0000895FA013081882369F0E1E0F0E0022E0E
:1014D00001C0EE0F0A94EAF7DB01A30FB11D9C9146
:1014E0009E2B9C93222319F08FEF820F0BC081E07B
:1014F000830F8C3010F4FA018083FB01E80FF11D9B
:10150000108287E090E00895CF93C82F8A9A8823AD
:1015100019F08091430102C08091450120E1829F32
:10152000C00111243CDB8A98CC2319F08091420140
:1015300002C08091440120E1829FC0011124CF911B
:101540002ECB2F923F924F925F926F927F928F920B
:101550009F92AF92BF92CF92DF92EF92FF920F9342
:101560001F93CF93DF935C01162F622EC42FD0E020
:101570004091B0035091B103CE010296089F802D97
:101580001124992787FD909548175907A8F48EE7ED
:1015900092E0DF91CF911F910F91FF90EF90DF903C
:1015A000CF90BF90AF909F908F907F906F905F9003
:1015B0004F903F902F90A4CB481B590B5093B103F1
:1015C0004093B003599A8091AA03811101C0AAD80F
:1015D00080D8812E912CCC24C394D12C712CF12C49
:1015E0008F2D992787FD90958815990524F480E023
:1015F0008BDFF394F5CF112311F081E085DFF12C1F
:101600004F2C552447FC50944C165D062CF097E067
:10161000392E4A0C5B1C15C087E0282E312C4A0C51
:101620005B1CC601022C01C0880F0A94EAF7F20184
:101630009081892369DFF1E02F1A310890F7F39444
:10164000DFCF832D992787FD90956816790664F47E
:10165000C601032C01C0880F0A94EAF7F2019081B9
:10166000892352DF3A94EDCF8E2D9EDA015009F096
:10167000B6CF8091B203882311F03DD803C086E332
:101680000E9409035998DF91CF911F910F91FF900C
:10169000EF90DF90CF90BF90AF909F908F907F9012
:1016A0006F905F904F903F902F9008955F926F9250
:1016B0007F928F929F92AF92BF92CF92DF92EF92E2
:1016C000FF920F931F93CF93DF93CDB7DEB72D9784
:1016D0000FB6F894DEBF0FBECDBF7C01162F842F4E
:1016E000022F6701C60ED11C462FB701AED2D6011C
:1016F0008C931F5F1D8619825E2C670127E066248C
:101700006394712C8C2D8519811788F547E0A42EE0
:10171000B12C4701880E911CF3010A2C01C0EE0F79
:101720000A94EAF7D4018C91AE01435F5F4FBE018A
:101730006F5F7F4F8E23C5DE282FB1E0AB1AB10853
:1017400058F7D6018D916D01082E82958025082EBF
:101750008695869580258F5F86958170AE01435F63
:101760005F4FBE016F5F7F4FACDE282FCBCF2223B0
:1017700011F0215004C08D858F5F8D8727E089E1AE
:10178000809344018093450185E2809342018093D8
:1017900043013AE0E32E4D856CE0CE010196D1DEA7
:1017A0002D960FB6F894DEBF0FBECDBFDF91CF915F
:1017B0001F910F91FF90EF90DF90CF90BF90AF906F
:1017C0009F908F907F906F905F9008951F93CF931D
:1017D000DF93CDB7DEB72D970FB6F894DEBF0FBEFF
:1017E000CDBF162F242F4BE0BE016F5F7F4F0196B8
:1017F0002D871ADB2D85412F682FCE01019656DFEC
:101800002D960FB6F894DEBF0FBECDBFDF91CF91FE
:101810001F91089543E066E0D9CFEF920F93CF93E5
:10182000DF93CDB7DEB760970FB6F894DEBF0FBE7B
:10183000CDBF40E1BE016F5F7F4F0196F5DA698150
:101840004A810B818C81809345018D818093440175
:101850008E81809343018F8180934201E02EE29438
:101860007FE0E7220F70242F2F7042954F70CE013A
:10187000089667DE60960FB6F894DEBF0FBECDBF48
:10188000DF91CF910F91EF900895AF92BF92CF92D9
:10189000DF92EF92FF920F931F93CF93DF93CDB719
:1018A000DEB769970FB6F894DEBF0FBECDBF4BE031
:1018B000BE016F5F7F4F0196B7DA182F893009F0AC
:1018C0005AC099E19093440190934501909343014C
:1018D00082E38093420169E0CE010196C0D1E1E04C
:1018E000F0E0EC0FFD1FE10FF11D8083198E1D86C6
:1018F000CE0101967C016E019BE0C90ED11C27E050
:10190000AA24A394B12CEC14FD0429F100E010E00A
:10191000F501002E01C0EE0F0A94EAF7D7018C9171
:10192000AE01475E5F4FBE01635F7F4F8E23C9DD0F
:10193000282F0F5F1F4F0830110551F7AE01475E8A
:101940005F4FBE01635F7F4F81E0BBDD282FBFEF9C
:10195000EB1AFB0AD8CF222311F0215004C0898D45
:101960008F5F898F27E0EAE0EE2E03E0498D6CE07F
:10197000CE010D96E6DD69960FB6F894DEBF0FBE78
:10198000CDBFDF91CF911F910F91FF90EF90DF902E
:10199000CF90BF90AF9008958F929F92AF92BF92D9
:1019A000DF92EF92FF920F931F93CF93DF931092EA
:1019B000610110927601FC012181220F220F220F7A
:1019C0003381231B57E0520F1092620110E070E048
:1019D00038E0D32ED20EFF24F39447E007E0E12C49
:1019E000C7E0D0E0A1E0B0E0FD1409F47FC0FC0145
:1019F000EE0DF11D248130E0002E02C035952795B3
:101A00000A94E2F721703327E22F002311F00150EE
:101A100002C0E39407E06B3471F4433009F04AC02C
:101A2000111107C0E1115FC010926101709376013E
:101A300074C010E041C04F3F31F56634A9F4E72F80
:101A4000F0E0EE59FE4FE0810E2EE295E0250E2EDD
:101A5000E695E695E025EF5FE1FB882480F8912C80
:101A60008216930641F004C0653429F4E11103C0E5
:101A700010936101DBCF7F5FE72FF0E0EE59FE4F5F
:101A8000108247E031C0EE2361F1663471F4E72F34
:101A9000F0E0EE59FE4FA0809D01042E01C0220F00
:101AA0000A94EAF7A22AA0821CC0653439F06B348C
:101AB000C1F404C04F3FD1F2EE2399F0E72FF0E0DC
:101AC000EE59FE4F9E01241B310947FD33955D0100
:101AD00002C0AA0CBB1C2A95E2F795013081322B7B
:101AE0003083415001C011E0F3947ECF1093610127
:101AF000709376015F1588F4653431F44F3F21F41B
:101B00007F5F7093760104C0809161018111F8CFED
:101B100081E090917601911101C080E0DF91CF9139
:101B20001F910F91FF90EF90DF90BF90AF909F902B
:101B30008F90089510926F00E09179018CE1E89FF9
:101B4000F0011124E658FE4F10820895FC01218116
:101B5000243108F0EFCF662389F081E090E0038024
:101B600002C0880F991F0A94E2F7DF01A20FB11D8E
:101B700014969C911497982B14969C938381882398
:101B800019F081508383089587E083832F5F218339
:101B9000E20FF11D14820895DC011196EC9111976A
:101BA000F0E050E02C91CF01841B950B0B964797EA
:101BB000A0F430E070E0C901861B970B0B964797A5
:101BC00060F42E0F3F1F640F751F261B370B255F18
:101BD0003F4F81E02731310508F080E00895829A77
:101BE0008A985298E9E6F0E080818061808382ECF7
:101BF00091E09093B1038093B003109296011092FC
:101C0000B2011092CE011092AA0308958091B203FE
:101C1000882321F00E9492030C947B030C948B0385
:101C2000FC01218121110BC08091B203F9D840E25F
:101C300065E08091B0039091B10373D86EC841E024
:101C400062EB73E00196F0D8E1CF442339F04150C4
:101C5000FB01E40FF11D9081890FF7CF089520E07B
:101C6000662339F06150FC01E60FF11D3081232716
:101C7000F7CF822F0895A091610140E035E020E088
:101C8000662399F06150FC01E60FF11D5081752F1C
:101C900072957F702727370FAA2311F0442319F07C
:101CA0005F702527350F4F5FEBCF320F40E1349F38
:101CB000C0011124822B0895FC0132812381A0816F
:101CC000B181A30FB11D8C9190E0022E02C09595B9
:101CD00087950A94E2F7817099274FEF420F43836B
:101CE000211104C03F5F328327E023830895AF9220
:101CF000BF92CF92DF92EF92FF920F931F93CF93F9
:101D0000DF9300D0CDB7DEB77C01A12CB12CD12C54
:101D1000CC24C394062F10E001501109A616F0F44C
:101D2000C7014A836983C8DF4A816981882391F0AA
:101D3000442349F098012A193B098C2D01C0880FD2
:101D40002A95EAF706C08C2D0A2C01C0880F0A9448
:101D5000EAF7D82A8FEFA81AB80AE0CF8D2D0F9096
:101D60000F90DF91CF911F910F91FF90EF90DF9037
:101D7000CF90BF90AF9008959F92AF92BF92CF92B5
:101D8000DF92EF92FF920F931F93CF93DF9300D0D8
:101D900000D0CDB7DEB71B8227E02C839C012C5FDF
:101DA0003F4F3A83298310927601FC0121813381D0
:101DB00087E090E0831B9109F8E02F9F800D911D33
:101DC0001124853491050CF44EC0B12CA0907601FD
:101DD000F5E0FA1558F10A2D10E040E068E0CE0178
:101DE000019685DF0E591E4FF8018083982E092C2D
:101DF00092949024092C969496949024CE01019666
:101E00005BDF939491FACC24C0F8D12C90E0C816F3
:101E1000D90649F5CE0101964FDF811124C0F801A2
:101E20008081B826A394A0927601D0CF40E068E0EC
:101E3000CE0101965CDF082F182F012E1295102578
:101E4000012E169516951025CE01019635DF1F5FE0
:101E500011FBEE24E0F8F12C282F30E0E216F30617
:101E600011F481E0B01280E00F900F900F900F906E
:101E7000DF91CF911F910F91FF90EF90DF90CF9066
:101E8000BF90AF909F900895DF92EF92FF920F93D3
:101E90001F93CF93DF9300D000D01F92CDB7DEB752
:101EA000FC011B8287E08C83CF0104969A8389838F
:101EB000109276018081853009F04FC021813381F5
:101EC00087E090E0831B910938E0239F800D911DEE
:101ED00011248039910509F040C00FE010EF29E886
:101EE00080917601E82EF12CDD24D394D80E41E0C8
:101EF00068E08F3088F4CE0101962D83F8DE080F5C
:101F0000111DF701EE59FE4F2D812827208324E271
:101F1000280FD0927601E4CFCE010196E8DE080FBB
:101F2000111DD0927601F701EE59FE4F8095808306
:101F300041E068E0CE010196DADE90E0982F882734
:101F4000081B190B41E068E0CE010196D0DE282F76
:101F500030E081E00217130709F080E00F900F9046
:101F60000F900F900F90DF91CF911F910F91FF90E5
:101F7000EF90DF900895FF920F931F93CF93DF931D
:101F800000D000D0CDB7DEB71B8227E02C839C01A8
:101F90002C5F3F4F3A832983FC0121812430A1F536
:101FA0008381813089F51092760180917601082F26
:101FB00010E0FF24F394F80E41E0843098F481118E
:101FC00006C067E0CE01019692DE806804C068E03A
:101FD000CE0101968CDEF801EE59FE4F8083F0921F
:101FE0007601E3CF67E0CE01019681DEF801EE597C
:101FF000FE4F880F8083F092760190916201929556
:102000009F7081E09A3009F080E00F900F900F9060
:102010000F90DF91CF911F910F91FF900895CF9274
:10202000DF92EF92FF920F931F93CF93DF938091F4
:1020300046018823B9F18091B20387FF17C084E37A
:102040000E94BA028058803458F0803C58F490E0E6
:102050008055910953E0959587955A95E1F703C00E
:1020600080E001C08FE08F590E9439068091B20351
:1020700083FF16C082E70E9439068091B20384FF75
:1020800004C0809147010E94390686E60E94390605
:102090008091B20384FF04C0809146010E943906FA
:1020A0001092460180917701882309F401C2599A60
:1020B000C09178012CE1C29FE0011124C658DE4F87
:1020C000CE01E2DE811147C066E4CE0165DC8823E3
:1020D00039F110917601115010937601412F62E68B
:1020E00071E086E0B2DDE12FF0E0EE59FE4F0081B5
:1020F000801302C0143088F5282F30E02F5F3F4F47
:10210000602F70E02617370721F4143010F0808319
:1021100024C0412F62E671E08CE097DD801731F03A
:1021200065E4CE0139DC811105C019C01430C0F35B
:1021300004E506C180917601815080937601893053
:1021400071F469E082E691E08ADD90916B01891378
:1021500006C005E4F5C003E5F3C006E4F1C0CE0116
:102160000BDE882311F008E4EBC0CE0104DF8823E6
:1021700011F004E7E5C0E09047018E01065E1F4FB5
:102180004B8D6E2DC80108DD682FCE01DFDC6BE4BE
:10219000CE0102DC8823A1F0F0907601FA94F0924F
:1021A00076016F2D82E691E066DDEF2DF0E09091F3
:1021B0006101E91BF109EE59FE4F9081891741F049
:1021C0008B81873039F41B8289818150898304C0D7
:1021D0000BE4B6C08F5F8B838981843039F58B81A6
:1021E000843021F54EE16CE3CE014896D5DC88239E
:1021F000E9F04EE16E2DC801CFDC682FCE01A6DCE0
:1022000020E0822F90E0FC01EE59FE4FDE01A80F86
:10221000B91F14968C91808381E0820F853010F471
:10222000282FEFCF8093760102E58AC000E08091ED
:10223000B20382FF65C080E70E943906888140E2D0
:1022400062E090E00E949106888D40E265E0F0E156
:102250008F9FC00111240E949106898D40E265E0A4
:1022600020E1829FC00111240E9491068A8D40E2E4
:1022700065E0E0E18E9FC00111240E9491068B8DE4
:1022800040E265E0F0E18F9FC00111240E949106B9
:102290008A8140E263E090E00E949106898140E2F9
:1022A00063E090E00E9491062B8140E262E087E0CB
:1022B00090E0821B91090E94910680E20E943906FB
:1022C0008091B20385FF08C084E30E94BA020E9495
:1022D000100780E20E9439068B81873019F08981CE
:1022E0008F5F898310E08981181740F4FE01E10FA8
:1022F000F11D84810E9410071F5FF5CF0E948D069B
:1023000018828091770181508093770180917801C4
:102310008F5F843019F08093780102C010927801A9
:102320005998043509F0C4C082E691E0DF91CF915D
:102330001F910F91FF90EF90DF90CF900C942C1A8B
:10234000A091B203A0FF73CFA1FD5CC030916001EA
:10235000B09176013B1332C020E0231770F4822F36
:1023600090E041E0420FFC01E45BFE4F8E599E4F2E
:102370005081FC018081581729F0209360012313BC
:102380001DC002C0242FE9CF4091AC035091AD0392
:102390006091AE037091AF03C0904801D0904901A5
:1023A000E0904A01F0904B014C195D096E097F09DC
:1023B00031E0463251056105710508F030E020E05A
:1023C0002B1768F4822F90E0AC01445B5E4F8E596E
:1023D0009E4FFC018081FA0180832F5FF1CF209313
:1023E00060014091AC035091AD036091AE037091D8
:1023F000AF03409348015093490160934A017093A1
:102400004B0101C030E00435E9F4A6FD1BC080910A
:1024100076018530B8F0809164018B3409F407CFE0
:10242000893609F404CF9DEA980F923008F4FFCE64
:102430008D57823008F4FBCE80916501807780371C
:1024400009F4F5CE3111F3CE802F0E943906809128
:102450006101882329F08091760181508093760173
:1024600010E0E09176011E1748F4E12FF0E0EE59FC
:10247000FE4F80810E9410071F5FF3CF80916101A2
:10248000882351F0F0E0EE59FE4F80818F7040E3D9
:1024900061E090E00E94D1068091B20385FF05C003
:1024A00084E30E94BA020E9410070E948D06BFCEEC
:1024B000DF91CF911F910F91FF90EF90DF90CF9020
:1024C00008951F920F920FB60F9211240BB60F9220
:1024D0002F933F934F935F936F937F938F939F932C
:1024E000AF93BF93EF93FF9310926F008091B2036D
:1024F00083FF03C08EE20E943906809179019CE13E
:10250000899FF0011124E658FE4F9081933018F016
:102510009181923010F40EDB18C0909177019330C6
:1025200049F48091B20382FFF6CF85E892E00E94E1
:102530008006F1CF9F5F909377018F5F843019F011
:102540008093790102C010927901FF91EF91BF91C0
:10255000AF919F918F917F916F915F914F913F913B
:102560002F910F900BBE0F900FBE0F901F901895DC
:102570009BED980F973150F496EF960F9D3130F404
:1025800091E0681708F090E0892F089580E00895A1
:102590001F920F920FB60F9211240BB60F92FF925B
:1025A0000F931F932F933F934F935F936F937F935B
:1025B0008F939F93AF93BF93CF93DF93EF93FF934B
:1025C0008091F403882321F082E08093F4032AC1F0
:1025D00080913B04823021F483E080933B0422C14C
:1025E0000091840010918500C4E016950795CA9566
:1025F000E1F7C09179019CE1C99FE0011124C6581F
:10260000DE4F9881943031F40E3208F40BC10F3450
:1026100048F0A5C0953031F4073108F403C1083201
:1026200008F09DC04A990DC09450923038F461E092
:10263000CE018CDA1092850010928400009347013D
:10264000F1C080914701081B00934601109285005C
:102650001092840088818450823020F460E0CE01A2
:1026600075DAE0C082E086BBF88000914701F11086
:102670000FC0053608F0D6C080914601853608F0B7
:10268000D1C0088F898F81E08A8382E08883CAC0A5
:102690001091460182E0412F602FF81274C0CE01E4
:1026A00048967ADA4A818823F9F0288D30E0C9010A
:1026B000880F991F820F931F800F911D9595879505
:1026C00095958795888F298D30E0C901880F991FCE
:1026D000820F931F810F911D9595879595958795ED
:1026E000898F4F5F4A839EC0443008F44AC080EA15
:1026F0009FE090938900809388008A818C3050F00D
:10270000288D898D90E0820F911D8536910524F0EA
:1027100084E028C08A3080F0288D898D90E0820F77
:10272000911D85974CF485E0888388EE93E0909323
:1027300089008093880017C08091F603882389F070
:10274000609146018091470113DF882351F0688D25
:10275000898D0EDF882329F081E080933B04EAD93C
:1027600061C083E08883809147018A8F8091460110
:102770008B8F198287E08B831C8282E080936F00AD
:1027800051C0188276CFCE014A9606DA882301F12D
:1027900061E0CE01DBD92A8D30E0C901880F991F95
:1027A000820F931F800F911D95958795959587951D
:1027B0008A8F2B8D30E0C901880F991F820F931FDC
:1027C000810F911D95958795959587958B8F2AC03B
:1027D000412F602FCE014896DFD9882301F160E0B8
:1027E000CE01B4D9288D30E0C901880F991F820F1E
:1027F000931F800F911D9595879595958795888F47
:10280000298D30E0C901880F991F820F931F810F16
:10281000911D9595879595958795898F03C097E02C
:10282000F9129DCFFF91EF91DF91CF91BF91AF91C1
:102830009F918F917F916F915F914F913F912F91D8
:102840001F910F91FF900F900BBE0F900FBE0F9036
:102850001F901895E09179018CE1E89FF001112417
:10286000E658FE4F8081811107C081E09091E3031B
:102870009F3F19F480E0089581E00895CF93DF939E
:10288000EA98579A5F9A8EE190E00E94CF055F9890
:102890008EE190E00E94CF055F9A8DE290E00E9469
:1028A000CF0580E30E94090384E690E00E94CF05F3
:1028B000CCE8D2E0FE0131966491FE0184910E9441
:1028C000F8022296F2E0CE3BDF07A1F783E30E94F5
:1028D000090384E00E94D40584E30E94090385E390
:1028E0000E94BA028D30C1F7DF91CF9108950F9306
:1028F0001F93CF93DF93CDB7DEB76E970FB6F894E3
:10290000DEBF0FBECDBF8091EA01882309F4B4C0B9
:102910004A9B93C08FE30E94BA028F7789838E31DE
:10292000B0F08AE30E94090386E30E9409038DE365
:102930000E94090384E36E960FB6F894DEBF0FBEC3
:10294000CDBFDF91CF911F910F910C9409035F9838
:102950008FEF0E945B0210E08981181760F480E01D
:102960000E945B02E2E0F0E0EC0FFD1FE10FF11DC1
:1029700080831F5FF1CF80E00E945B02082F80E020
:102980000E945B025F9A84E30E94090385E30E9430
:10299000BA028D30C1F72A8196E792279A8392E096
:1029A0008981E92FF0E0981768F441E050E04C0F7E
:1029B0005D1FE40FF51F30812452232720839F5F82
:1029C000232FEECF81E090E08C0F9D1FE80FF91FC1
:1029D00090818B81982790838091B20384FF12C0ED
:1029E00081E60E94390610E08981811730F1E1E02B
:1029F000F0E0EC0FFD1FE10FF11D80810E94390610
:102A00001F5FF2CF81E40E94390610E089818117AF
:102A100058F0E1E0F0E0EC0FFD1FE10FF11D8081C7
:102A20000E9410071F5FF2CF8091B20385FF03C0A1
:102A3000802F0E9410070E948D0685E30E94BA0233
:102A4000813029F0813161F48AE30E94090386E331
:102A50000E9409038DE30E94090384E30E94090395
:102A60006E960FB6F894DEBF0FBECDBFDF91CF914B
:102A70001F910F910C94D7036E960FB6F894DEBF9A
:102A80000FBECDBFDF91CF911F910F910895CF92CF
:102A9000DF92EF92FF920F931F93CF93DF93CDB707
:102AA000DEB76E970FB6F894DEBF0FBECDBF4DE117
:102AB0008E010F5F1F4FB80101960E9414076C0131
:102AC0009C01332721503109898190E0281739076B
:102AD00009F069C08091EA01811104C0CFDE83E072
:102AE0000E94D405FB808A8196E789278A8392E039
:102AF0008981292F30E0F801E20FF31F981750F475
:102B0000DE01A20FB31F8C91845220818227808323
:102B10009F5FEECF80818F25808385E30E9409032C
:102B200085E30E94BA028331C1F7F4FE08C088E74A
:102B30000E94D40588E70E94D40588E701C08AE096
:102B40000E94D4055F988FE70E945B0278018E2D6A
:102B5000801B8C1530F4F70181917F010E945B028C
:102B6000F6CF5F9A85E30E94BA028331D9F385E3F9
:102B70000E94BA02863149F48BE30E94090386E37E
:102B80000E9409038DE30E9409038091EA018823D2
:102B900049F084E30E94090385E30E94BA028D3064
:102BA000C1F701C033D86E960FB6F894DEBF0FBEE2
:102BB000CDBFDF91CF911F910F91FF90EF90DF90EC
:102BC000CF900895FC012181223729F457DE81E05E
:102BD0008093EA010895233711F4019658CF10929B
:102BE000EA0108951092CE031092C00283E0809310
:102BF000F0018FEF8093E3030895E1EFF1E020818E
:102C0000211105C0892BB1F080E090E00895B2E079
:102C1000E93BFB07B8F7009751F04181DC013C919B
:102C2000431305C0428111963C91431751F0E20FC6
:102C3000F11DE5CF32E0E93BF30719F010F0E9EBC5
:102C4000F2E0CF01089594E0899FF0011124EC5146
:102C5000FC4F80818F3F91F08093EB0181818093C5
:102C6000EC0182818093ED0183818093EE0121E06C
:102C70004CE064E08BEE91E00C94560B08958AEBE7
:102C800092E0BBDF009799F02091F001FC013081C8
:102C9000231768F4E20FF11D80818093BC0289E75D
:102CA0008093BD0281818093BE0281E0089580E01F
:102CB0000895EF92FF921F93CF93DF931F92CDB7AA
:102CC000DEB7182F8091B20386FF1EC084E599837A
:102CD0000E943906E12E9981F92E15E0F7018191C4
:102CE0007F010E9410071150C9F78091B20385FF40
:102CF00003C08AEF0E9410070F90DF91CF911F91C0
:102D0000FF90EF900C948D060F90DF91CF911F9163
:102D1000FF90EF90089586E30E9409038091BC0222
:102D2000833511F48BE901C08BE40E94D40521E0C6
:102D30004CE065E08AEB92E00E94560B0E947B0318
:102D40008AEB92E0B6CFE7DF8091BC02893631F0A2
:102D500081E08093B90289E28093E3030895CF93E1
:102D600085E390E00E94A1078093B40386E390E09E
:102D70000E94A1078093E203CFEFC093D203C093D8
:102D8000D403C093D603C093D803C093DA03C0938F
:102D9000DC03C093DE03C093E00324DF1092F10153
:102DA00081E08093B303C093E4038FEF9FEF909390
:102DB000B7038093B6031092B9031092B803109230
:102DC000BB031092BA03C093E8039093BD038093B2
:102DD000BC031092BF031092BE031092C103109265
:102DE000C003C093EC039093C3038093C20310927B
:102DF000C5031092C4031092C7031092C603C09378
:102E0000F0039093C9038093C8031092CB031092F0
:102E1000CA031092CD031092CC03CF910895BF92B4
:102E2000CF92DF92EF92FF920F931F93CF93DF9396
:102E3000CDB7DEB72C970FB6F894DEBF0FBECDBF6F
:102E40006C018C010F5F1F4F45E0BE016F5F7F4F2C
:102E5000C8010E941407843008F0F3C099819130B2
:102E6000A9F4833061F46A8185E390E00E949C07B5
:102E70006B8186E390E00E949C0771DF06C280911F
:102E8000B4030E9410078091E2039AC0923009F0C7
:102E900051C0813039F081E09A81913009F080E0B1
:102EA000F82E02C0FF24F3948091F101811104C037
:102EB0008EEB92E00E94800601EF11E0F801808124
:102EC000882309F4BBC0F2E0093B1F0708F0B6C035
:102ED00031E0013F130719F080E20E943906F80142
:102EE00081810E941007F80182810E941007FF2053
:102EF000E1F08AE30E94390693E0F8018081981797
:102F0000A0F4943038F090FF05C08CE29C870E94BA
:102F100039069C85EE24E394E90EF801E90FF11DD2
:102F200080810E9410079E2DE8CFF8018081080F54
:102F3000111DC4CF933049F480E090E05EDE815FE4
:102F4000914098EC981B892F3BC0903171F502EDB0
:102F500013E083EDE82E83E0F82EC12CD12CF8018C
:102F600080818F3FA1F0DD2019F080E20E943906B8
:102F70008C2D0E9410078AE30E943906F801808197
:102F80000E941007F70180810E941007D3940E5F02
:102F90001F4FC394F2E0EF0EF11C38E0C312DFCFF5
:102FA000D1104CC08CEC92E047C0913161F480911B
:102FB000D0039091D1036DE770E00E948736862F91
:102FC0000E9410073BC09231C9F514EEE12E13E0C8
:102FD000F12E07EE13E0C12CD12CF70180818F3F39
:102FE000F1F0DD2019F080E20E9439068C2D0E945C
:102FF00010078AE30E943906F70180810E941007BA
:10300000F801329780810E941007F8013197808182
:103010000E941007F80180810E941007D394F4E009
:10302000EF0EF11CC3940C5F1F4F34E0C312D5CFD9
:10303000D11004C088EC92E00E9480060E948D06A8
:1030400024C144E0BE01695F7F4FC8010E9414079C
:103050004F81493608F477C07A85588569857C3078
:1030600009F04BC020E030E080E090E0F901EC5145
:10307000FC4F708174131CC0A181A51319C0A281DB
:10308000A61316C02CE023839C01220F331F280FA8
:10309000391FF901EE0FFF1FEA54FC4F1182108215
:1030A000F901EE0FFF1FE854FC4F11821082CFC0D0
:1030B0007F3FD9F44083518362832CE023839C01BA
:1030C000220F331F280F391FF901EE0FFF1FEA549B
:1030D000FC4F11821082F901EE0FFF1FE854FC4FE4
:1030E000118210821092B303B2C001962C5F3F4F41
:1030F0002031310509F0BACFC8C080E090E020E06F
:1031000030E0FC01EC51FC4FA081A41315C0A1815B
:10311000A51312C0A281A6130FC07383F901EE0F8D
:10312000FF1FE20FF31FEE0FFF1FE854FC4F81E07B
:1031300090E091838083A9C02F5F3F4F0496803138
:103140009105F9F6A2C0E9818091B403E817C0F1B6
:1031500090E0F0E09C01295F3F4F2E173F0784F17C
:103160003A812091E20332132BC03C813F3231F48B
:1031700042E06CE0C6010E94E60B87C02D813C3224
:10318000B1F42093CF0381E090E09093D10380933A
:10319000D0038091B0039091B103E4E02E9F800DA5
:1031A000911D11249093B1038093B0036EC0E81B6E
:1031B000F90BEE0FF0E0EE52FC4F3083218365C037
:1031C00080E090E01ADD7C01F80101900020E9F731
:1031D0003197E01BF10BF695E795BB24B394BE0E37
:1031E000C7018B0D911D815F9140893C91050CF0C9
:1031F00048C0F701B1928F0121E0822F880F8150E2
:103200002B15D8F441E0B801F601E80FF11DCF010C
:103210002C870E9414072C85233058F020FD09C00C
:10322000D80111978C91843621F4F8018081809324
:10323000B5032F5F0F5F1F4FE0CFF9EBEF16F2E002
:10324000FF0618F5F701E20FF11D10821EC022E003
:103250004CE064E0CE0107960E94560B8FE08A870F
:1032600022E04CE064E0CE0107960E94560B82E01B
:103270008A8722E04CE064E0CE0107960E94560B5C
:1032800004C082EC92E00E9480062C960FB6F8945F
:10329000DEBF0FBECDBFDF91CF911F910F91FF9089
:1032A000EF90DF90CF90BF9008950F931F93CF932F
:1032B000DF939091B30391114FC093E0899F8001F8
:1032C0001124F801EE0FFF1FEA54FC4F94E0899F90
:1032D000D0011124AC51BC4F12969C91977040E8DC
:1032E00050E0491B51099AEF949F9001959F300D32
:1032F0001124359527953595279531832083E8014D
:10330000CC0FDD1FC654DC4F288139812F5F3F4F22
:1033100039832883000F111F08541C4FF801408186
:1033200051814115510529F424303105A9F48BDC74
:1033300011C04130510539F486DC82E090E0F8019B
:103340009183808309C04230510531F47CDCF8015F
:103350001182108219821882DF91CF911F910F91F3
:103360000895EF92FF920F931F93CF93DF9300D0B6
:1033700000D000D0CDB7DEB72091E2032A831B82B4
:103380008091CF03882341F0833019F487E791E0DF
:103390000FC08DE790E00CC0277030E02A513F4FFE
:1033A0004DE7429FC001439F900D1124959587954D
:1033B0009093D1038093D00303ED13E0F12C7CE2D2
:1033C000E72EF801319790819F3FC1F08091B403BF
:1033D0008F0D89838091CF03882311F0EC8203C085
:1033E0009C83F80180818D8321E04CE065E0CE0173
:1033F00001960E94560BCE0101965BDCF3940E5FA2
:103400001F4FF8E0FF12DDCF8091CF03882341F0FA
:10341000833019F41092CF0303C082508093CF03FE
:1034200026960FB6F894DEBF0FBECDBFDF91CF91C9
:103430001F910F91FF90EF9008958091B90288231A
:1034400051F069DC89E28093E3038091B9028150F5
:103450008093B9020895C6CBFF920F931F93CF9329
:10346000DF93FC01F0800181C281D38114818FE55B
:103470008093E3031092B9028091B403811105C0D7
:103480008091E203882309F4B1C08091BA028F11C0
:1034900004C08091BB02801729F0A4DBF092BA022D
:1034A0000093BB028091CE038F3F09F49FC0C0936D
:1034B000BC02D093BD021093BE02CC23F1F0811167
:1034C0001CC08091B403181761F0143651F08DEAD6
:1034D0008C0F823010F0CD3739F48FEF8093CE030C
:1034E00085C0C43509F482C08D2F807F803609F0F5
:1034F0007DC0D067D093BD025BC0C1DB811105C028
:103500008091CE03882309F471C08091C00281119B
:1035100007C0E091CE03F0E0E053FD4FE49101C01D
:10352000E82FE33541F4C43531F49091CE039E5F2A
:103530009093CE0308C0EC1731F0DF91CF911F912B
:103540000F91FF904FCB882369F08091F0018E5F3F
:103550008093F00194DB81110EC08091CE038E5FC9
:103560008093CE038091CE03E82FF0E0EF52FD4F21
:1035700014911F3F59F48091BC028093C00284369D
:10358000B9F48091B5038093BE0212C01093BC02BF
:1035900097E79093BD029091B4039093BE028E5F23
:1035A0008093CE031092C0028E3041F01123F1F0CF
:1035B000DF91CF911F910F91FF90C5CB8AEB92E0E5
:1035C0001CDBDC01009781F02C9130E089EB92E06C
:1035D000821B930BA817B90730F4ED01C20FD31F5C
:1035E00048814D93F7CF1C92FDDAE0CFDF91CF9168
:1035F0001F910F91FF900895FF920F931F93CF9308
:10360000DF938C01EC0109900020E9F72197C81B9A
:10361000D90BFC018181823751F487E390E00E944D
:103620000D030E947B0381E08093F4032BC083375A
:1036300039F5FC2E5F988FE70E945B028C2F825039
:103640000E945B02E801229612E01F1528F489917E
:103650000E945B021F5FF9CF5F9A0E9469038AE3B1
:103660000E94BA028F7729F084E690E00E94CF058D
:10367000F6CFDF91CF911F910F91FF900C947B03B8
:103680001092F403DF91CF911F910F91FF90089555
:10369000CF92DF92EF92FF920F931F93CF93DF931E
:1036A000CDB7DEB7C054D1090FB6F894DEBF0FBE58
:1036B000CDBF8091F403882309F455C0813011F502
:1036C0008091AC039091AD03A091AE03B091AF0394
:1036D0002091C102281709F446C085E30E94BA026E
:1036E000813129F48AE30E9409030E947B038091BF
:1036F000AC039091AD03A091AE03B091AF03809362
:10370000C10231C08FE30E94BA02D82E8FE38D151B
:1037100038F15F988FEF0E945B028E010F5F1F4FA1
:103720007801C02E8E2D801B8D1538F480E00E940C
:103730005B02F70181937F01F5CF5F9A81E080936F
:103740004001802F8C198D1530F4F80181918F0183
:103750000E943906F6CF0E948D068FEF80934001BC
:1037600081E08093F403C05CDF4F0FB6F894DEBFB6
:103770000FBECDBFDF91CF911F910F91FF90EF90C2
:10378000DF90CF9008958A9A0C94CF058A980C9474
:10379000CF05DF92EF92FF920F931F93CF93DF93AA
:1037A000CDB7DEB727970FB6F894DEBF0FBECDBFFB
:1037B00095E79983882399F0BE016E5F7F4F8091D2
:1037C0003D040E948907BE016C5F7F4F8091F60324
:1037D0000E94890785E58E8386E0D82E02C0DD240D
:1037E000D3940E9492030E94690316E080E891E05E
:1037F000CADF80E093E0CADF1150C1F780E093E0B8
:10380000C2DF80E891E0C2DF80E891E0BCDF8A9807
:1038100087E390E00E940D0383E00E94D4055F9847
:103820008FE70E945B028091F9038D0D0E945B027D
:10383000CE0101967C018C01F80181918F010E94DB
:103840005B02802F8E198D15B8F38091F9038823C0
:1038500039F087EF93E00E944B0A0E945B02F5CF9C
:103860005F9A0E94690387EF93E00E94300A15E196
:103870008AE30E94BA028F7731F0115021F081E083
:103880000E94D405F5CF0E94060E27960FB6F89435
:10389000DEBF0FBECDBFDF91CF911F910F91FF9083
:1038A000EF90DF900895CF93DF93EC018981811130
:1038B0000CC08091F6030E94100780913D040E9485
:1038C0001007DF91CF910C948D068936E1F441E029
:1038D00066EF73E0CE0102960E9414076091F60332
:1038E00080E690E00E949C0741E06DE374E0CE0129
:1038F00004960E94140760913D0481E690E0DF91F8
:10390000CF910C949C0787EF93E00E94300A219698
:103910006991662329F087EF93E00E94350AF8CF7A
:1039200080E0DF91CF9135CFCF92DF92EF92FF927F
:103930000F931F93CF93DF931F92CDB7DEB7809184
:103940003B04882309F486C0C090AC03D090AD033B
:10395000E090AE03F090AF03833009F061C08FE3D5
:103960000E94BA02182F8630C8F081E894E00E94C5
:10397000300A5F988FEF0E945B0280E00E945B023A
:10398000082F115049F080E00E945B02682F81E807
:1039900094E00E94350AF5CF5F9A01C000E00E94D2
:1039A000060E10923B04053709F054C041E0BE01F9
:1039B0006F5F7F4F84E894E00E941407019759F5E8
:1039C00099818091F603981326C0809188048535EB
:1039D00071F480918304882339F081E894E00E9497
:1039E0004B0A0E943906F5CF0E948D0633C08091A4
:1039F000830484508093830484E0809382046AE08B
:103A000081E894E00E94350AE091A803F091A903AF
:103A100088E009951FC081E894E00E94300A1AC02E
:103A2000823059F48091F5039C2D981B983090F0CA
:103A30000E94060E10923B040DC0813059F487E3BA
:103A400090E00E940D030E947B0382E080933B0480
:103A5000C092F5030F90DF91CF911F910F91FF90CE
:103A6000EF90DF90CF9008950E942A14882319F0D8
:103A700083E080933C0480913C04815080933C041B
:103A8000882321F083E080933A04089581E081CE79
:103A90000F931F93CF93DF93EC0110E0212F30E0C1
:103AA000F901EE0FFF1FE20FF31FE454FF4F0491E3
:103AB000F901EE0FFF1FE20FF31FE354FF4F2591B3
:103AC0003491002399F0209739F480E20E9439065E
:103AD000802F0E94390608C08881801305C0CE015E
:103AE000F901099581E003C01F5FD8CF80E0DF9125
:103AF000CF911F910F910895CF93C0914001809372
:103B00004001809183048823A1F181E894E00E9420
:103B10004B0AE091C2028A3011F08D30F9F4EE23A5
:103B200081F3F0E0ED53FD4F108283EC92E0B0DFC3
:103B3000811111C086EF92E00E94800683EC92E032
:103B40000E9475068EED92E00E94800680E090E073
:103B50009FDF0E948D061092C202D3CFE03488F618
:103B600091E09E0F9093C202F0E0ED53FD4F8083F1
:103B7000C8CFC0934001CF910895E4E6F0E0808182
:103B80008B7F8083299A84B1876084B9239880E5EC
:103B90008CBD8DB581608DBD08951F93CF93DF934C
:103BA000EC0116E0115048F089910E941007112392
:103BB000C9F38AE30E943906F5CFDF91CF911F91B7
:103BC0000895EF92FF920F931F93CF93DF93EB0132
:103BD000FC01E080F180FE24EF24FE2402811381A9
:103BE0001027012710276F2DCE010E949C076E2DF4
:103BF000CE0101960E949C07612FCE0102960E9481
:103C00009C07602FCE010396DF91CF911F910F91FA
:103C1000FF90EF900C949C070F931F93CF93DF932B
:103C2000CDB7DEB765970FB6F894DEBF0FBECDBF38
:103C300089E68A8384E68B8360E473E0CE01049690
:103C40000E940338CE0101960E944A0881E68B83C8
:103C500062E373E0CE0104960E940338CE01019620
:103C60000E944A088EE68B8364E273E0CE010496DC
:103C70000E940338CE0101960E944A0887E68B8392
:103C800068E173E0CE0104960E940338CE010196EC
:103C90000E944A0880E78B8363E173E0CE010496BB
:103CA0000E940338CE0101960E944A088EE48B835D
:103CB0006BE073E0CE0104960E940338CE010196BA
:103CC0000E944A088FE68B8368E073E0CE01049679
:103CD0000E940338CE0101960E944A088AEF9FE0B5
:103CE0000E94A107843A71F58BEF9FE00E94A10723
:103CF000803541F58CEF9FE00E94A107853511F5D5
:103D00008DE68B8361E073E0CE0104960E94033858
:103D10008DEF9FE00E94A107BE01665F7F4F0E946A
:103D200089078EEF9FE00E94A107BE01645F7F4F6D
:103D30000E9489078FEF9FE00E94A107BE01625F8A
:103D40007F4F26C08DE68B836AEF72E0CE0104962A
:103D50000E940338E0E0F0E000E010E081E28093B0
:103D600057009491090F111D3196E032F105B9F712
:103D7000BE01665F7F4F80E00E948907BE01645FDD
:103D80007F4F812F0E948907BE01625F7F4F802F86
:103D90000E948907188ACE0101960E944A086596FA
:103DA0000FB6F894DEBF0FBECDBFDF91CF911F914C
:103DB0000F910895ADD488EC94E00E949A2D892B40
:103DC00039F188EC94E00E94902D82EE94E090937B
:103DD000E1048093E00482E0E8D58091D3049091DF
:103DE000D404892B19F00E94892C5DD488EE9BE0C5
:103DF0009093DD048093DC0485E0D7D58091D304D3
:103E00009091D404892B19F00E94892C4CD4BCD4F5
:103E100084EC94E00E949A2D892B31F084EC94E09C
:103E20000E94902D0C94BF2B0895CF92DF92EF92B9
:103E3000FF920F931F93CF93DF938C01EB01CB0184
:103E40000E94A1077E018FEFE81AF80AC7010E94BD
:103E5000A107D82ECE010E94A107C82EC7010E943B
:103E6000A1072C2D30E03D29F801318320837E010C
:103E7000F2E0EF0EF11CC7010E94A1072396CE01CC
:103E80000E94A107D82EC7010E94A107F82ECE01DB
:103E90000E94A1072F2D30E03D29F80133832283B2
:103EA000DF91CF911F910F91FF90EF90DF90CF9016
:103EB0000895CF93DF9300D000D0CDB7DEB769E689
:103EC00070E0CE010196B1DF89819A819093050659
:103ED000809304068B819C8190930706809306064D
:103EE00061E770E0CE010196A0DF89819A8190930D
:103EF000FD058093FC058B819C819093FF05809349
:103F0000FE056DE670E0CE0101968FDF89819A8112
:103F100090930106809300068B819C819093030609
:103F20008093020686E794E0F0D34ED10E941C30C5
:103F30000F900F900F900F90DF91CF910895269AD8
:103F40002E9888EC0E94D4052E9A88EC0E94D40505
:103F5000C4D382E690E00E94A1078093060383E623
:103F600090E00E94A1078093070384E690E00E94FE
:103F7000A1078093080385E690E00E94A107809343
:103F8000090386E690E00E94A10780930A0387E672
:103F900090E00E94A10780930B0386E093E09ED3FC
:103FA0008091060380930C038091070380930D0397
:103FB0008091080380930E038091090380930F037F
:103FC00080910A038093100380910B038093110367
:103FD00084D41092A5031092A4036FE170E088ECE2
:103FE00094E00E94842D62EE74E084EC94E00E94E0
:103FF000842D88E690E00E94A107882351F086EA8C
:1040000094E083D386E093E00E94E52F10920503AD
:10401000089582E0809305034CCF1F93CF93DF93E5
:10402000FC018181893621F4DF91CF911F9187CFE7
:104030008336C1F4C4E0D6E014E0115060F08991F9
:1040400040E261E090E00E9491061123B1F38EE21C
:104050000E943906F2CF80E20E9439068CE093E09C
:104060009CDD0AC0843669F4809104038F5F8370FD
:10407000809304030E941007DF91CF911F910C944D
:104080008D068E3629F4DF91CF911F910C940B325F
:10409000DF91CF911F910895CF93DF93EC010097AB
:1040A00019F4DF91CF9105CF69E670E0469689DD7E
:1040B0008E899F899093050680930406888D998D3B
:1040C000909307068093060661E770E0CE01829622
:1040D00078DD8AA19BA19093FD058093FC058CA1BE
:1040E0009DA19093FF058093FE056DE670E0CE01E3
:1040F0004A9667DD8A8D9B8D90930106809300061A
:104100008C8D9D8D9093030680930206EB81FC813C
:104110001582148286E794E0F8D256D0DF91CF91D1
:104120000C941C30E091E004F091E104248135818D
:104130008091CC049091CD042817390709F46EC002
:10414000089580910503823029F00E94B52E809356
:1041500005030895E091DC04F091DD04309759F0F7
:104160008091DB0481FF07C08481958181159B4785
:1041700011F40C943B3208951F93CF93DF93C091B9
:10418000E004D091E104809140048823C9F08D8D32
:104190008A3F49F482E009D40E94892C84D282E0CB
:1041A0000E94D40507DE1D8D81E0810F8D8F8EE387
:1041B00094E00E944B0AFE01E10FF11D868FE3CFD0
:1041C000DF91CF911F91089589E790E00E943638E2
:1041D000292F30E040E050E0582FC901842B952B67
:1041E0009093CD048093CC04CFD31092CF0410923F
:1041F000CE040895E091FF04EA3F40F491E09E0F61
:104200009093FF04F0E0E250FB4F82830895E09129
:10421000E004F091E10482E0848F08950F931F93EE
:10422000CF93DF93E091E004F091E1044091DB044F
:1042300046FF15C0158E81E0848F8091CE04909149
:10424000CF049C012F5F3F4F3093CF042093CE04C7
:10425000892B29F480914001846080934001848DF2
:104260008230B9F481E0848F80E18093DB04809117
:10427000CE049091CF0401979093CF048093CE0405
:10428000892B09F05FC0809140018B7F80934001B2
:1042900059C0842F807311F447FF02C0158E148E0D
:1042A00041FF2DC00091D3041091D40401151105D4
:1042B00031F13091DE042091DF048CEB90E2909399
:1042C000A7038093A603C32FD22F699181E894E0BE
:1042D0000E94350A80918304803431F4E091A80370
:1042E000F091A90384E00995015011090115110508
:1042F00061F7E091A803F091A90384E0099580910A
:10430000DB0482FD05C0982F937011F48874D1F0FE
:10431000C091E004D091E1044D8D442399F050E028
:10432000BE01625E7F4F8091DE049091DF040E94A7
:1043300017386D8D70E08091DE049091DF040E944B
:104340001A2B1D8EDF91CF911F910F910895289800
:10435000962F9F71982B9EBD0DB407FEFDCF1EBCFE
:104360000DB407FEFDCF67FD03C08EB5289A0895F2
:104370001EBC0DB407FEFDCFF8CF28986F71682BD7
:104380006EBD0DB407FEFDCF4EBD0DB407FEFDCFD3
:10439000289A089528982AE32EBD0DB407FEFDCF74
:1043A000FB01860F971FE817F90739F01EBC0DB403
:1043B00007FEFDCF2EB52193F6CF289A08952898B1
:1043C0002AE72EBD0DB407FEFDCFFB01860F971F18
:1043D000E817F90731F021912EBD0DB407FEFDCF8E
:1043E000F7CF289A08951F93CF93DF93182F107655
:1043F000C12FD0E02091D20430E0C217D30779F06A
:1044000043E06FE180EAB9DFAE0185E0559547955D
:104410008A95E1F76FE180E8B0DF1093D204DF9175
:10442000CF911F910895CF93DF931F92CDB7DEB741
:10443000682F6983D8DF698180E00F90DF91CF9189
:1044400086CF1F93CF93DF931F92CDB7DEB7182F80
:104450006983C9DF4981612F80E40F90DF91CF919B
:104460001F918BCF1F93CF93DF931F92CDB7DEB7F2
:10447000162F682F84ED7983E4DF612F86EDE1DF6D
:104480007981672F87EDDDDF8AEECDDF80FDFCCF00
:104490000F90DF91CF911F910895209A289A299A21
:1044A000219A2398229A209A8CB580618CBD8CB574
:1044B000877F8CBD8CB58F7D8CBD8CB58E7F8CBD80
:1044C0008CB58D7F8CBD8DB581608DBD8CB58064C4
:1044D0008CBD4FEF60E08FEF50DF82E390E00E94F1
:1044E000CF058DE1A0DF80FFFCCF80E096E09093C8
:1044F000D1048093D00460E088E0A3DF66E089E027
:10450000A0DF60E08CE09DDF66E08DE09ADF6FEF7A
:104510008AE097DF6FE18BE094DF60E084E091DF79
:1045200060E085E08EDF6DE080EC8BDF60E081ECA9
:1045300088DF42E362EC80E820DF62E186EC81DF25
:104540006CE087EC7EDF62E184EC7BDF6EEE8AEC70
:1045500078DF65E08BEC75DF60E071E080E182DFA1
:104560008FE141DF40EC6BE180E807DF44E06FE181
:1045700080E803CFCF92DF92EF92FF920F931F93C9
:10458000CF93DF938C017B01EA01690140E86FE181
:1045900080E8F3DE40E86FE180EAEFDE60E082E091
:1045A00050DF60E083E04DDF6C2F600F86E049DF75
:1045B000C8018C0F9D1F692F87E043DF40E060E05A
:1045C0008AE7DBDEB701C801FADE209719F0B601F1
:1045D000CE01F5DE48E06FE180E8DF91CF911F91D9
:1045E0000F91FF90EF90DF90CF90C7CEEF92FF92A8
:1045F0000F931F93CF93DF938C017B0189E313DF2C
:10460000882309F440C06091D00480E01ADF6091F3
:10461000D10481E016DF60E08AE399DEC82FD0E0A4
:10462000D093D104C093D00460E08AE390DED82B0D
:10463000D093D104C093D00460E08AE388DEC82F11
:10464000D0E060E08AE383DED82B60E08AE37FDE9F
:1046500060E08AE37CDECF3E85E0D807B8F40C1733
:104660001D0708F4E801B701CE0194DE6091D00483
:104670008CE0E7DE6091D1048DE0E3DE40E46EE1A2
:1046800080E87BDE03C080E090E001C0CE01DF91D6
:10469000CF911F910F91FF90EF90089568E076E021
:1046A0008CED95E0A3CF8091D3049091D40487330F
:1046B000910538F420E030E040E050E068E076E03A
:1046C0000BC02091DE043091DF04AC014653510948
:1046D00068E076E086E390E04DCFDFCECF93DF93C6
:1046E000EC01688184EEADDE698185EEAADE6A8127
:1046F00082EEA7DE6B8183EEA4DE6C8180EEA1DE0C
:104700006D8181EEDF91CF919CCEBC0184E1AACE78
:10471000CF93DF93C3DF9093D4048093D3040097A7
:1047200081F18F3E954018F0DF91CF9108CCC09178
:104730001406D091150680E098E078D7C817D907FD
:1047400059F481E032D18091D3049091D404892B23
:10475000C1F00E94892C12C0C0911406D091150698
:1047600086E098E063D7C817D90759F40E94E92B6F
:104770008091D3049091D404892B19F0DF91CF91CB
:1047800092CFDF91CF9108950895FB0141505109D7
:10479000460F571FE417F50778F4208130E0322FD9
:1047A00022276181260F311D820F931F82179307E5
:1047B00008F401963296EECFE417F50751F4208104
:1047C00030E0322F2227820F931F8217930708F4BD
:1047D00001960895FC015381560F5093DA04872FF8
:1047E00099274281480F4093D904A181A093D8040E
:1047F000E081E093D704242F30E02817390748F4EC
:1048000081E08A0F8093D804811103C0EF5FE093A9
:10481000D704852F90E077278617970788F44F5F96
:104820004093D90441110CC08091D8048F5F8093CC
:10483000D804811105C08091D7048F5F8093D7047D
:1048400008952091E0043091E104BC01C90108966B
:10485000C1DFE091E004F091E1048091D70480870A
:104860008091D80481878091D90482878091DA046D
:104870008387089544E150E066E176E080E090E0CF
:1048800084DF009721F098278927982708958FEFD4
:104890009FEF0895CF93DF93C0911806D0E0DC2FEF
:1048A000CC2780911906C80FD11D48E050E062E284
:1048B00076E0CE010E9769DFAE01445151096AE2FC
:1048C00076E063DF009721F098278927982702C0B8
:1048D0008FEF9FEFDF91CF9108951092FB0510921B
:1048E000FA051092FB0481E0809315031092ED0B02
:1048F0001092EC0B0895E091EC0BF091ED0B2091F0
:104900001603309117032F5F3F4F21154DE73407F2
:1049100010F020E030E1522F432FE417F50799F310
:104920003093170320931603EF2B41F510921503D4
:104930005093ED0B4093EC0B7093EF0B6093EE0BE9
:10494000009749F41092E80B1092E90B1092EA0BD1
:104950001092EB0B0DC0FC01208131813093E90BEB
:104960002093E80B828193819093EB0B8093EA0B69
:1049700080E48093F00B88EE9BE0089581E08093C3
:10498000150380E090E008952091FA053091FB0531
:10499000232B39F4109215039093FB058093FA05AD
:1049A000089581E08093150308950F931F93CF938B
:1049B000DF93C091E004D091E104843009F4A4C1F4
:1049C0002EE336E03093DF042093DE043093D604E8
:1049D0002093D504833059F4898D8F70833009F08A
:1049E00016C688899989892B09F011C677C082304B
:1049F00009F079C080911B038F5F80931B038111A5
:104A000013C080911A038F5F80931A0381110CC029
:104A1000809119038F5F80931903811105C08091E4
:104A200018038F5F809318031092D4041092D3045C
:104A30001092E70B1092E60B298D822F8D7F853027
:104A400041F48A8D8F5F8A8F883709F0E0C5198E0F
:104A5000DEC5222309F4DBC588899989892BD1F128
:104A60008A8D9FEF980F9A8F8111D1C58B8D8830D9
:104A700031F09FEF920F923040F4853031F4198E6F
:104A800080E88093DB044EDB6FC4853038F493E01C
:104A9000082E01C0990F0A94EAF701C090E39A8F9B
:104AA0008F5F8B8F822F8F70843009F4F5C358F499
:104AB000813009F4E5C2833009F0A9C584E0809310
:104AC000DB0430DB85C4863009F4E6C3883009F0A6
:104AD0009EC5E2C32F70233009F099C588E080930A
:104AE000DB0420DB38C4853019F5E091DC04F0915B
:104AF000DD0484819581892B09F489C51092E10434
:104B00001092E00482E396E09093DF048093DE0449
:104B10009093D6048093D5041092E70B1092E60B85
:104B20001092D4041092D30488E08093DB04EBC08D
:104B300080911606853409F06AC5C0911806D0E048
:104B4000DC2FCC2780911906C80FD11D8091D3048A
:104B50009091D4048C179D0708F459C5D093D404C0
:104B6000C093D30480911C068F7309F050C58091C7
:104B70001D0681114CC50091040610910506011512
:104B8000110531F48091060690910706892BA1F05A
:104B900080912606909127068017910709F037C566
:104BA00020912806309129068091060690910706EB
:104BB0002817390709F02BC55DDE019609F027C5D6
:104BC00080911F06863009F4F6C08131B1F1813041
:104BD00009F01DC580912A06883009F018C5109289
:104BE0002A0680912C0690912D06873FCFEF9C07D7
:104BF00010F0099601C0089690932D0680932C061C
:104C00008091220690912306909327068093260692
:104C1000809124069091250690932906809328067A
:104C200010932306009322068091060690910706B2
:104C30009093250680932406EEC46C97D093D404F9
:104C4000C093D30488EE9BE09093DD048093DC0452
:104C500020912C0630912D0640912A0650912B066A
:104C60006091220670912306A0912406B09125063A
:104C7000E091DC04F091DD048CE0E731F80708F006
:104C8000C6C484819581009719F12817390701F569
:104C900086819781009719F048175907C9F48081D8
:104CA0009181009729F4C281D381CD2B49F416C09C
:104CB0008F3F1FEF910721F4C281D381219671F0BC
:104CC0006817790729F482819381A817B90731F011
:104CD000BF96F093DD04E093DC04CACF1092E104A8
:104CE0001092E00482E08093DB0482E396E09093EC
:104CF000DF048093DE049093D6048093D504109251
:104D0000E70B1092E60B1DDA8091E60B9091E70B12
:104D1000009709F47CC49C01245E3F4F3093D40477
:104D20002093D3043093180620931906E091DC04F5
:104D3000F091DD04208520931E0621E120931F06BB
:104D4000089698278927982790932F0680932E06F8
:104D500010923106109230068481958190932B0633
:104D600080932A068681978190932D0680932C0646
:104D70008091040690910506909323068093220665
:104D8000809106069091070690932506809324064D
:104D9000808191819093270680932606828193815A
:104DA00090932906809328068EE396E09093DF0483
:104DB0008093DE040AC46EDD019609F028C4509188
:104DC000FB0440913706552369F120912C06309160
:104DD0002D068091E6049091E7042817390711F514
:104DE00020912A0630912B068091E8049091E904E5
:104DF00028173907B9F420912206309123068091B3
:104E0000E2049091E3042817390761F42091240605
:104E1000309125068091E4049091E5042817390724
:104E200009F445C1842F8F73823019F042FDEFC31E
:104E300017C080912C0690912D06909313038093B8
:104E400012032091FA053091FB058217930709F0B0
:104E5000E9C3511176C010921503C2EED4E07BC0B5
:104E600084E18093370688E290E09093D4048093A5
:104E7000D30480E580933606809131069091350603
:104E8000909331063091300690913406909330061D
:104E90003093340620912F069091330690932F067D
:104EA0002093330690912E0690931503409132067D
:104EB00040932E06909332068F5F809335068111C2
:104EC0000FC081E0830F80933406811109C081E017
:104ED000820F80933306811103C09F5F9093320647
:104EE00080912A0690912B069093130380931203CE
:104EF00020912C0630912D0630932B0620932A0604
:104F000090932D0680932C06809122069091230683
:104F1000909327068093260680912406909125067B
:104F20009093290680932806109323060093220667
:104F3000809106069091070690932506809324069B
:104F40002AC3573019F4C2EED4E002C0C0E0D0E06A
:104F500081E080931503209709F459C3D093E104AD
:104F6000C093E00483E08A8F888F1E8A84E08F8B51
:104F70001B8E80912C0690912D069D838C838091B1
:104F80002A0690912B069F838E8380912206909112
:104F900023069983888380912406909125069B831C
:104FA0008A8381E0898F809118038C87809119030F
:104FB0008D8780911A038E8780911B038F8781E0F4
:104FC00090E0998B888B809131068B878091300699
:104FD0008A8780912F06898780912E06888781E0B5
:104FE00090E02FDC80913606282F207F30E021359D
:104FF00031050CF445C082958F7090E00597880FBD
:10500000991F880F991F3091140320E0E22FF0E0E0
:10501000E817F9078CF5E85FF94F36A9311105C09B
:1050200020931503109214032BC0313011F42F5F1D
:10503000EDCF3230E1F447A94430C9F42093150391
:105040003093140380AD90E0982F882721AD822BF8
:105050009093130380931203873A15E0910710F0A1
:1050600086EA95E09B8B8A8B9D8B8C8B09C047A928
:10507000442311F0240FCACF209315033093140357
:1050800082E18093370682E080933E0684E080933D
:105090003F0685E08093400686EA809341068CE2D5
:1050A00090E09093D4048093D30480E621C282EEF2
:1050B00094E09093E1048093E0041092DB0442FFBB
:1050C00004C01092FB0480E2B1C180913606829543
:1050D0008F70880F880F80931503C81BD1096497C0
:1050E000D093D404C093D3045F70523021F4842F42
:1050F0008F738231E9F0CD2B19F4842F8370C1F0C6
:1051000090912E068091EA049813E6C190912F06A3
:105110008091EB049813E0C1909130068091EC04EB
:105120009813DAC1909131068091ED049813D4C19F
:1051300044FF58C06091F2047091F3046115710549
:1051400009F450C08EEE94E045DB30913206809138
:10515000D704381347C0209133068091D804281310
:1051600041C0909134068091D90498133BC080913E
:1051700035064091DA04841335C03093EE04209351
:10518000EF049093F0048093F1048091FD04811169
:105190001EC09091F8048091FA042091FC04821BB7
:1051A000292F269526952695821B980F9093F80413
:1051B0002091F904322F36953695831B820F809308
:1051C000F904969596959695980F9093FA0481E038
:1051D0008093DB048091FA048093FC041092F30422
:1051E0001092F2044091FB04842F8F7090E0FC0138
:1051F0003197E830F10508F00AC2E45BFF4F0C94E8
:10520000BD368091DB0480FF02C283E08093FB0403
:1052100080E48093DB041092F3041092F2048091F6
:10522000D3049091D404009709F48DC022E4209314
:10523000DB0407DB88C08091370680FF31C044FD66
:105240002FC08091F2049091F304892B09F0DFC103
:105250008091D3049091D4040196F3DA2091DB0479
:10526000822F80618093DB048091D3049091D404D9
:10527000892B19F022612093DB040E94922081E0A7
:1052800090E09093F3048093F20488E08093FB0411
:105290001092FD04C2EED4E081E18093370621C173
:1052A00085FF1CC080913C0690E0982F88272091B4
:1052B0003D06822B2091DE043091DF04280F391F38
:1052C0003093DF042093DE042091D3043091D40482
:1052D000281B390B3093D4042093D3048091D3043A
:1052E0009091D404009741F044FD06C02091DB0466
:1052F00022602093DB04A5DA8091380690E0982F95
:10530000882720913906820F911D90931303809373
:1053100012032091F6043091F7042817390710F092
:10532000892B21F4309313032093120380911203ED
:10533000909113039093F5048093F4048091DB041F
:10534000837009F464C11092E70B1092E60B0E947F
:105350009220C2EED4E08091DB0485FF07C010925A
:10536000E70B1092E60B198E84E197CF84FF0CC0F7
:105370001092E70B1092E60B81E090E0998B888BFE
:1053800084E0898F1B8E88CF2091E60B3091E70B4C
:1053900021153105E1F080FF02C0198A188A888939
:1053A0009989009781F48A899B898217930720F451
:1053B0009093E70B8093E60B8091E60B9091E70BBF
:1053C000998B888B04C09093E70B8093E60B1B8E20
:1053D0008091D5049091D6049093DF048093DE04ED
:1053E0008091E60B9091E70B892B59F08889998978
:1053F000009739F088969093D4048093D30488E181
:105400000BC08091DB0481FF02C188E290E09093A1
:10541000D4048093D30480E18093370668C08091E0
:10542000DB0480FFF4C01092FB0480E18093DB0476
:105430000E949220ECC08091D3049091D4040097F4
:1054400009F0FFD9909137068091DB0490FF10C0DE
:1054500080FF0AC087E08093FB041092FC04109246
:10546000F3041092F2041EC086E08093FB041AC07D
:1054700080FF21C085E08093FB041092F30410921A
:10548000F204C5C08091D3049091D404009709F030
:10549000D8D98091370680FF0EC087E08093FB0447
:1054A0001092FC0481E090E0CCD980E18093DB0491
:1054B0000E94922011C08091D3049091D404892B32
:1054C00059F4A5C08091DB0480FFA1C087E08093E0
:1054D000FB041092FC049BC080E180933706C2EE6F
:1054E000D4E088E290E09093D4048093D30480E5E4
:1054F00080933606888580933206898580933306AB
:105500008A85809334068B85809335068C858093BD
:105510002E068D8580932F068E85809330068F858D
:105520008093310686E080931F068C819D81909345
:105530002B0680932A068E819F8190932D0680935F
:105540002C06809104069091050690932306809383
:105550002206809106069091070690932506809377
:1055600024068881998190932706809326068A8154
:105570009B819093290680932806898D84FF05C01E
:10558000109239061092380606C085E080933806DE
:1055900086EA8093390680E480931E068091D304C6
:1055A0009091D404909318068093190610923D06AA
:1055B00010923C0610923B0610923A066BD98095E9
:1055C000909590933B0680933A0685E48093160667
:1055D0001092170610921D0610921C0680911C0353
:1055E00090911D03019690931D0380931C0390934B
:1055F0001A0680931B0610922106109220063AD9B3
:1056000080959095909321068093200604C0109277
:10561000D4041092D3041092DB04DF91CF911F9138
:105620000F91089581E08093150300CC9827892776
:10563000982708959C01AB011616170674F4709311
:10564000E70B6093E60B8091D5049091D604281760
:10565000390719F0B9010C9417380895CF93DF93E7
:105660001092210340912406509125066091260650
:1056700070912706E0E0C0E0D0E0FBE0E830F0F415
:10568000FE9FE0011124CA5DDC4F2881398121157C
:10569000310591F08A819B81009771F04217530781
:1056A00059F46817790741F4E0932103DE01149659
:1056B00086E0EEE1F6E059C0EF5FE0CF1092210303
:1056C00020E03BE0283090F4329FE0011124CA5DD5
:1056D000DC4F88819981892B39F48A819B81892BC0
:1056E00019F4209321032FC02F5FECCF20932103C7
:1056F000283049F5A0911F038A2F90E070E0C0E0A8
:1057000060E0BBE0683098F4B69FF0011124EA5DD8
:10571000FC4FE285AC014E1B5109272F30E02417C6
:1057200035071CF4C62F7A2F7E1B6F5FEBCF70936B
:105730001E03C0932003C09321038BE0C89FE001A8
:105740001124CA5DDC4F8091240690912506A0911A
:105750002606B0912706FE0181939193A193B19300
:105760009F0186E0EEE1F6E0D90101900D928A9565
:10577000E1F780911F038A87DF91CF9108952091EF
:105780001F032F5F20931F03109221037BE030E063
:10579000609121036830E0F4769FF0011124EA5D06
:1057A000FC4F8281938140815181842B952B892BE1
:1057B00059F08285A901481B51094837510524F049
:1057C00010821182128213826F5F60932103E0CFF7
:1057D00008958091D3049091D4041092D40410922F
:1057E000D3048A9708F4089580911C0690911D06B1
:1057F000811521E0920729F08115924009F471C0CA
:10580000089520912E0630912F06809104069091E4
:1058100005062817390709F07BC020913006309122
:10582000310680910606909107062817390709F07E
:105830006FC014DF80E092E090931D0680931C06F9
:1058400086E0EEE1F6E0A8E2B6E001900D928A95DE
:10585000E1F786E0ECE0F3E0AEE1B6E001900D9216
:105860008A95E1F786E0ECE0F3E0AEE0B6E0019087
:105870000D928A95E1F786E0E8E2F6E0A8E0B6E06E
:1058800001900D928A95E1F780912406909125066A
:1058900090932F0680932E068091260690912706DE
:1058A000909331068093300680910406909105060E
:1058B0009093250680932406809106069091070612
:1058C000909327068093260688E096E0909315062D
:1058D000809314068AE290E09093D4048093D304DA
:1058E000089520912E0630912F0680910406909104
:1058F00005062817390761F42091300630913106EA
:1059000080910606909107062817390709F4A6CE5C
:10591000089520912606309127062F3F4FEF340738
:1059200051F48091280690912906019621F486E091
:10593000E9E2F1E0CAC08091040690910506822751
:105940009327409100065091010684239523892BCB
:1059500091F4409128065091290680910606909175
:105960000706842795276091020670910306862317
:105970009723892B89F08091FC059091FD059093E8
:105980002303809322038091FE059091FF0590935D
:1059900025038093240308C030932303209322031C
:1059A00050932503409324031092210380912203F6
:1059B00090912303209124033091250360E0E0E0DF
:1059C000F0E07BE0683090F4769FF0011124EA5D0E
:1059D000FC4F408151818417950731F442815381F6
:1059E0002417350709F46DC06F5FECCF6093210376
:1059F000683009F068C046E050E06FEF70E088E082
:105A000096E00E94203826E0E8E2F6E0DF01422F2F
:105A10001D924A95E9F7ECE0F3E0AEE0B6E0822FA4
:105A200001900D928A95E1F7ECE0F3E0AEE1B6E08B
:105A3000822F01900D928A95E1F780912203909137
:105A4000230390932F0680932E0680912403909138
:105A5000250390933106809330068091040690913F
:105A60000506909325068093240680910606909162
:105A70000706909327068093260680E091E0909396
:105A80001D0680931C06909317068093160688E0E7
:105A900090E0909319068093180620931A0684E0EC
:105AA00080931B0688E096E0909315068093140679
:105AB0008EE396E09093DF048093DE048AE290E028
:105AC0001EC060932103349686E0A8E0B6E0019002
:105AD0000D928A95E1F786E0ECE0F3E0AEE0B6E007
