:1000000053C300000C944C176BC3000069C300007D
:1000100067C3000065C3000063C3000061C3000044
:100020005FC300005DC300005BC300000C94EB16CF
:1000300057C3000055C3000074C5000051C3000041
:100040004FC300004DC300000C94E02B0C94AE2B6A
:1000500047C3000045C3000043C3000041C3000084
:100060003FC300003DC3000041D11B42120843D9E9
:100070000445451F653A0846DF0E666B2147E20ED0
:10008000684D106977254B910F6B64286C01084D02
:10009000200F6D7D2B52830754B50974F105551956
:1000A0001056720857C30758E01178A00459531F1F
:1000B0005A451E7AC424000000000000202F2000B2
:1000C000203D2000072E050DD391FF080500000CF0
:1000D0000021656A2D3B1322F862073F181D1CC7DB
:1000E00000B0876BF8B611EA2A001F41000D2E2DD3
:1000F00007D3913D04320000060021656A55E430C3
:1001000023B900070018146C070090876BF856118C
:10011000E92A001F410000030F1E262700000003EC
:100120000F1E2536386700030F2567406050000317
:100130000F275188838100030F2750C8C3C20027AF
:1001400000000000000000670000000000000050F8
:10015000000000000000008100000000000000C25C
:10016000000000000000504C4C310D0A00504C4C77
:10017000300D0A005620312E3637206E616E6F43E7
:10018000554C383638005620312E3637206E616E89
:100190006F43554C34333300202F2000203D200086
:1001A0004E2F4100454F420D0A004E2F41004E2F69
:1001B000410000535300547D7DFFFF4B4B7E7E007A
:1001C0004C4F56460D0A00424F56460D0A00455206
:1001D000523A4343410D0A000B08105B11F81547D2
:1001E000191D1A1C1BC71C001DB221B623EA0007EB
:1001F000022E030D04E905CA070C0B060D210E653E
:100200000F6A10C8119312031534173318181916F2
:100210001B4321562500261129592C812D353EC31B
:100220004C454E4552520D0A004C4F56460D0A00A1
:100230004C454E4552520D0A000007024604C605C1
:10024000260B0610C81193120313221534173F18FA
:100250002819161B432156250026110D210E650F66
:100260006A070C160720F81E871F6B29592C812D51
:10027000353EC3FF0000070246030D049A057D06C4
:1002800042070C0B060D210E650F6A10C811931260
:100290000315341700181819161B431C682500266F
:1002A00011FF00000000000000000000000000003E
:1002B000000D2E2D07D3913D04320000060010AB37
:1002C000A5550A3023B900070018146C0700908761
:1002D0006BF85611E92A001F41000001022E0301AC
:1002E00004AA050F06FF070008000B060D210E7477
:1002F0000FAD104B11F8121613721541181819167C
:100300001B0323E9242A2500261F3E500001022E4C
:10031000030104AA050F06FF070008000B060D21C4
:100320000E660F6610CA119312061352153518186F
:1003300019161B0323E9242A2500261F3E5000011D
:10034000022E0301045505F006FF070008000B0606
:100350000D210E660F9910591183121E1352153577
:10036000181819161B0323E9242A2500261F3E50BE
:100370000D2E2D07D3913D04320000060010B07100
:1003800055E43023B900070018146C070090876B00
:10039000F85611E92A001F41000D0A002043686544
:1003A000636B73756D204572726F722C2043616CA4
:1003B00063756C6174656420436B733A20006B72E3
:1003C000000D0A002020526563656976656420444B
:1003D0006174613A2000427974657320696E204629
:1003E00069666F3A20004B6F707020436F6D6D61CE
:1003F0006E6420556E6B6E6F776E0D0A004B6F70DA
:1004000070205265636569766520537562436F6D30
:100410006D616E6420556E6B6E6F776E0D0A0052C3
:10042000585F494E49545F4552525F4D41524353C4
:10043000544154455F5258006B72532D52656365A9
:1004400069766553746172740D0A006B72452D52A2
:10045000656365697665456E640D0A0020427974AE
:100460006573206F72204B6579636F6465206973D3
:10047000206E6F206865782076616C75650D0A00C6
:100480004B6F7070205472616E736D697474204389
:100490006F6D6D616E64206E6F7420657175616C37
:1004A00020746F2000426C6F636B330D0A00426C46
:1004B0006F636B320D0A005B6865785D0D0A00742E
:1004C00069636B732D426C6F636B53746172745408
:1004D000696D653A20005B6865785D0D0A004B65C3
:1004E000794F666654696D653A20202020202020CF
:1004F00020202020005B6865785D0D0A00426C6F4B
:10050000636B2053746172742054696D653A2020C6
:10051000202020005B6865785D0D0A005469636BDC
:100520002054696D65723A20202020202020202050
:100530002020005B6865785D0D0A004B65794F6689
:100540006654696D6520696E207469636B733A2027
:1005500020006D7365630D0A004B65794F66665424
:10056000696D653A202020202020202020202000B6
:100570000D0A005469636B2054696D65723A20203E
:10058000202020202020202020000D0A000D0A41DC
:100590006D6F756E74206F662042797465732028C4
:1005A0004865782920666F756E6420696E7369648A
:1005B0006520636F6D6D616E64206C696E6520707F
:1005C0006172616D657465723A20202020202020C0
:1005D00020202020000D0A4E657874204368617247
:1005E00061637465722028696E7429206166746580
:1005F0007220706172616D65746572202873686F16
:10060000756C64206265206C696E6520656E64207F
:10061000636861726163746572293A20000D0A5340
:100620007472696E676C656E6774683A202020206A
:100630002000636F6D6D616E646C696E65706172D0
:10064000616D657465723A20005472616E736D69F4
:1006500074740D0A0054585F494E49545F45525214
:100660005F00012E4604AA540FE00000000600219E
:10067000656A97831663B947070C29366C07409162
:10068000876BF85611E92A001F4100206973207515
:100690006E6B6E6F776E2920557365206F6E6520C7
:1006A0006F66003F2028000011241FBECFEFD8E066
:1006B000DEBFCDBF11E0A0E0B1E0E8EFFFE502C092
:1006C00005900D92AA34B107D9F725E0AAE4B1E06C
:1006D00001C01D92AE33B207E1F703D00C94FA2F9C
:1006E0008FCC88E10FB6F894809360001092600080
:1006F0000FBE91E080E80FB6F8948093610090936C
:1007000061000FBE219A299A0E94AB2CD8D489EFA0
:1007100087BD84E085BD82E084BD80936E00109229
:1007200080008AE08093810084B7877F84BF2FE0B8
:1007300088E190E00FB6F894A895809360000FBE12
:10074000209360008CE090E00E94102CB0D50E94B5
:10075000C3118AE69CE290932D0380932C0381E0E1
:1007600080934D01299878940E942F2C0E94381470
:100770004ED20E94B1210E94481A0E94CD1D0E94B3
:10078000C21E0E94AD2A0E949023EECF8EBD0DB4F2
:1007900007FEFDCF8EB50895A1E0B0E0E2EDF3E0F5
:1007A0000C94E92C482F8A3008F048E088E0489FF4
:1007B00070011124F701EA5EFE4F7F018BE290E0A9
:1007C000F70164918C010F5F1F4F49837ED3FFEFC8
:1007D000EF1AFF0A49810333110511F0C801F0CF68
:1007E0004550453010F461E101C067E184E290E0DA
:1007F0006CD32196E6E00C94052DCF93DF9382E035
:1008000090E0FC01E551FF4F6491EC0121965DD32E
:10081000CB32D10511F0CE01F4CF87E390E0FC019B
:10082000E357FF4F6491EC0121964FD3C036D105B9
:1008300011F0CE01F4CF8091340180FD18C060E149
:100840008FE090E042D360EB80E190E03ED361E73F
:1008500081E190E03AD360E184E490E036D360EB4C
:1008600085E490E032D361E786E490E02ED388E01F
:1008700093DFDF91CF9108952A98806C87DF80E025
:1008800085DF2A9A0895A1E0B0E0E9E4F4E00C9451
:10089000ED2C2A988064698379DF6981862F76DF61
:1008A0002A9A2196E2E00C94092D2A986FDF2A9A61
:1008B0000895EF92FF920F931F93CF93DF93EC0174
:1008C00010927F02E898229A2A9A8EE190E004D250
:1008D0002A988EE190E000D22A9A8DE290E0FCD135
:1008E00080E3E3DF84E690E0F7D12A9880E44EDFEE
:1008F0007E0189E2E80EF11C8E010F5F1F4FCE01D1
:10090000E9D244DF0E151F0511F0E801F5CF2A9A50
:100910002A988EE73BDF8BE290E0EC012196DAD259
:1009200035DFC333D10511F0CE01F7CF2A9A83E327
:10093000BCDF81E0D6D1CDB7DEB7E6E00C94052D63
:10094000A1E0B0E0E6EAF4E00C94ED2C22E029838B
:1009500041E0BE016F5F7F4F01966FD289811CDF3E
:1009600082E090E0A6DF2196E2E00C94092DCF937F
:10097000E89886E39ADFCFEF85E397DFC150807771
:10098000803229F08AE090E0A7D1C111F5CFCF9154
:100990000895CF93CFEF84E388DFC1508077803113
:1009A00029F08AE090E098D1C111F5CFE89ACF9173
:1009B0000895A2E0B0E0EFEDF4E00C94EB2C8C0194
:1009C000FC0181818737E9F441E0BE016F5F7F4F11
:1009D000C801029632D2892BA1F041E0BE016E5FC0
:1009E0007F4FC801049629D2892B59F06A818981E9
:1009F0004ADF83E35ADFCDDF89811BD28A8119D296
:100A00002CC041E0BE016E5F7F4FC801019615D238
:100A1000892B21F18A81893969F410E0812F2CDF3B
:100A200008D2812F8770873009F48FD11F5F103370
:100A3000A9F714C021DF182F83E45CD18A81F9D192
:100A400080EC90E075D1812FF4D18CEB90E070D1E7
:100A500040E262E0812F90E07CD177D12296E4E001
:100A60000C94072D86E321DF10922E0310927D0255
:100A700010927F02089582E090E01BDF81E0809376
:100A80002E0310927D0210927F0208950F931F9300
:100A9000CF93DF93082F10E0C62FD0E085E3ECDE84
:100AA000801731F0CE0118D11150C1F781E001C09B
:100AB00080E0DF91CF911F910F91089585E2DCDEF8
:100AC0008F3311F080E0089586E3EFDE80914A01D4
:100AD000811104C08DE691E02BD102C08DE3E5DEEB
:100AE00083E3E3DE64E081E0D1DF85E2C5DE8F33BE
:100AF00049F780914A01811103C086E691E018D13F
:100B000081E0089585E3B8DE8D3051F485E2B4DEEE
:100B10008F3331F4D3DF84E3C8DE80778031D9F7B7
:100B200008951F920F920FB60F9211248F939F93E7
:100B3000AF93BF93EF93FF93809130039091310374
:100B4000A0913203B09133030196A11DB11D809392
:100B5000300390933103A0933203B0933303809119
:100B60002F038F5F80932F03E7E3F3E08081918170
:100B7000181619061CF4019791838083369683E03A
:100B8000EF34F80799F78091510390915203009741
:100B900029F001979093520380935103809164034D
:100BA0008F3F19F0815080936403FF91EF91BF91C3
:100BB000AF919F918F910F900FBE0F901F9018953E
:100BC0002FB7F89440913003509131036091320374
:100BD00070913303FC0140835183628373832FBF81
:100BE0000895A4E0B0E0E7EFF5E00C94ED2CCE0121
:100BF0000196E6DF8C811DD18B811BD18A8119D1B1
:100C0000898117D1A2D02496E2E00C94092D1F937C
:100C1000CF93DF938091300390913103A091320301
:100C2000B091330320914C01281709F451C08091F1
:100C3000300390913103A0913203B091330380933C
:100C40004C01A895C7E3D3E010E028813981232B1C
:100C500011F4812F98D51F5F26961430B1F780913B
:100C6000510390915203892B09F4E9D580916403D3
:100C7000811101C041D680912F038D3748F1109228
:100C80002F038091000181FF04C085B192E0892784
:100C900085B98091750390917603843823E092079B
:100CA00028F40196909376038093750380914B010D
:100CB0008F5F80934B018C3359F410924B018091DC
:100CC00036038F5F809336038C3310F01092360317
:100CD000DF91CF911F910895880F991F0197F1F728
:100CE000089520ED37E0815020F0F9013197F1F7B8
:100CF000FACF089590914D0190FF0EC09091340469
:100D00009E3730F097FD08C08D3011F08A3021F405
:100D1000682F82E394E0F1C10895CF93DF93EC0153
:100D20008991882311F0E6DFFBCFDF91CF91089501
:100D3000CF93DF93EC01FE018491882319F0DADF71
:100D40002196F9CFDF91CF9108958DE0D3DF8AE02E
:100D5000D1CFA6E0B0E0EFEAF6E00C94EB2C062F42
:100D60001E8215E02AE030E01150E1E0F0E0EC0FE7
:100D7000FD1FE10FF11DB9010E94B62C805D80833B
:100D8000CB010150009769F01111EECF0AC0112379
:100D900059F01150E1E0F0E0EC0FFD1FE10FF11D03
:100DA0004083015007FFF3CF81E090E08C0F9D1F3F
:100DB000810F911DB2DF2696E4E00C94072DA5E08B
:100DC000B0E0E5EEF6E00C94ED2C1D8224E0382F27
:100DD0003F702150E22FF0E03A3010F4305D01C056
:100DE000395CA1E0B0E0AC0FBD1FEA0FFB1F308300
:100DF00034E0969587953A95E1F76150009739F779
:100E0000615067FD0BC0222349F02150E1E0F0E082
:100E1000EC0FFD1FE20FF11D4083F2CF81E090E067
:100E20008C0F9D1F820F911D78DF2596E2E00C94B8
:100E3000092D40E362E090E0C2CFDC01FB0130E02D
:100E400090E08D918823A9F0813608F0805220ED42
:100E5000280F2A3030F02FEB280F263030F429EC01
:100E6000280F292B332379F006C0803251F38A33BF
:100E700041F3CF0105C0CF0101962083415041F4D9
:100E8000861B970B0895922F9295907F31E0D9CFD2
:100E9000FC01D5CF20E030E05AE0FC014191CF01C8
:100EA000442379F0E0EDE40FEA30B8F7F9015E9FF2
:100EB00090015F9F300D112420533109240F311D03
:100EC000ECCFFB013183208308950E949F2FF99975
:100ED000FECF08950C94972F08951F93CF93DF931F
:100EE000162F11501F3F59F0EC012196F3DFA1DFBF
:100EF000112311F08AE3FEDE1150CE01F3CFDF9112
:100F0000CF911F910895A2E0B0E0E9E8F7E00C94DA
:100F1000EA2CFC0121812D3421F466E08AEF93E074
:100F200005C0203529F460E18AED93E0D6DF26C0C4
:100F30001A82198242E0BE016F5F7F4F01967DDF0A
:100F4000098110E0823021F4102F00278A81082BBC
:100F5000C801C0DFF82E82E5CDDE40E364E0C801C1
:100F60002EDF8CE991E0E4DE8F2D63DF88E991E0EC
:100F7000DFDE40E262E08F2D90E0EBDEE6DE2296DF
:100F8000E5E00C94062DA6E0B0E0E9ECF7E00C9467
:100F9000E72C6C0143E0BE016F5F7F4F01964DDF90
:100FA000823058F1E980F12C823021F0FE2CEE24C1
:100FB0002A81E22A8C011127FE01E00FF11F6081D6
:100FC000C70183DF000F111F0F5F1F4F0C0D1D1D89
:100FD000F8018081882389F041E0BE016F5F7F4F77
:100FE000C8012BDF892B49F08FEFE81AF80A6981D5
:100FF000C7016BDF0E5F1F4FEBCF2696E8E00C9426
:10100000032D41E060E071E0019617DF809100015F
:1010100080FF02C0299A01C029986091000184E3F1
:1010200090E053CFA1E0B0E0E8E1F8E00C94ED2CC3
:101030001982009731F041E0BE016F5F7F4F01964A
:10104000FCDE89818F3F09F4FFCF882321F061E026
:1010500083E390E03ADF10926E00F89428E088E194
:1010600090E00FB6F894A895809360000FBE20938F
:101070006000FFCFCF93DF93EC0161E080E090E070
:1010800024DF63E481E090E020DFB7DB60E080E60E
:1010900090E01BDF60E081E690E017DF60E083E333
:1010A00090E013DF62E084E390E00FDF898188370E
:1010B00019F080E090E0B6DFDF91CF91089580E0F5
:1010C00090E008DF813029F481E090E003DF833491
:1010D00019F080E090E0CEDF84E390E0FBDE8093C7
:1010E000000108958091340180FD03C086E891E0FD
:1010F00002C084E791E01CDE28CEFC018FB7F89493
:10110000928197FD0EC09F5F9283208191E0920FA4
:101110009083DF01A20FB11D13966C93903809F4F0
:1011200010828FBF0895FC019FB7F89482818823B5
:1011300071F081508283818121E0280F2183DF01BA
:10114000A80FB11D13968C91203809F411829FBF0E
:10115000089510924F0310920A0283E08093540185
:101160008FEF809364030895E5E5F1E0208121117C
:1011700005C0892BB1F080E090E00895B2E0E33043
:10118000FB07B8F7009751F04181DC013C91431314
:1011900005C0428111963C91431751F0E20FF11DB9
:1011A000E5CF32E0E330F30719F010F0E3E0F2E0CE
:1011B000CF01089594E0899FF0011124EB59FC4F71
:1011C00080818F3F89F080934F018181809350010E
:1011D00082818093510183818093520121E04CE010
:1011E00064E08FE491E063C5089584E092E0BCDFA1
:1011F000009799F020915401FC013081231768F485
:10120000E20FF11D80818093060289E78093070237
:1012100081818093080281E0089580E00895EF9233
:10122000FF921F93CF93DF931F92CDB7DEB7182F96
:101230008091780386FF14C084E599835BDDE12EFD
:101240009981F92E15E0F70181917F01F2DD1150AE
:10125000D1F78091780385FF02C08AEFEADD75DD62
:101260000F90DF91CF911F91FF90EF90089586E34B
:101270001CDB80910602833511F48BE901C08BE4FD
:1012800030DD21E04CE065E084E092E010D581DBC8
:1012900084E092E0C4CFEBDF80910602893631F022
:1012A00081E08093030289E2809364030895CF93E1
:1012B00085E390E00FDE8093350386E390E00ADE5D
:1012C00080936303CFEFC0935303C0935503C09340
:1012D0005703C0935903C0935B03C0935D03C0934E
:1012E0005F03C093610335DF1092550181E0809365
:1012F0003403C09365038FEF9FEF9093380380937F
:10130000370310923A031092390310923C03109263
:101310003B03C093690390933E0380933D03109277
:10132000400310923F031092420310924103C09376
:101330006D039093440380934303109246031092ED
:1013400045031092480310924703C0937103909392
:101350004A038093490310924C0310924B0310925E
:101360004E0310924D03CF910895ACE0B0E0EBEB4B
:10137000F9E00C94E62C6C018C010F5F1F4F45E0E7
:10138000BE016F5F7F4FC80158DD843008F0DAC0BE
:101390009981913091F4833051F46A8185E390E032
:1013A00094DD6B8186E390E090DD81DFE8C1809180
:1013B00035033FDD809163038EC0923009F04AC04F
:1013C000813039F081E09A81913009F080E0F82E87
:1013D00002C0FF24F39480915501811103C080EA7B
:1013E00091E0A6DC05E511E0F8018081882309F48D
:1013F000A7C0F2E003301F0708F0A2C031E00535B6
:10140000130711F080E276DCF801818112DDF8012A
:1014100082810FDDFF20C9F08AE36CDC93E0F801E4
:101420008081981790F4943030F090FF04C08CE2E3
:101430009C8760DC9C85EE24E394E90EF801E90FBB
:10144000F11D8081F6DC9E2DEACFF8018081080F26
:10145000111DCACF933049F480E090E085DE8555B8
:1014600091409EEA981B892F36C0903149F503E5DB
:1014700013E084E5E82E83E0F82EC12CD12CF8018E
:1014800080818F3F79F0DD2011F080E233DC8C2DFC
:10149000D0DC8AE32FDCF8018081CBDCF70180818E
:1014A000C8DCD3940E5F1F4FC394F2E0EF0EF11C23
:1014B00038E0C312E4CFD11043C08EEA91E03FC0C0
:1014C000913159F480915103909152036DE770E08E
:1014D0000E94B62C862FADDC33C0923189F515E61B
:1014E000E12E13E0F12E08E613E0C12CD12CF70118
:1014F00080818F3FB9F0DD2011F080E2FBDB8C2D85
:1015000098DC8AE3F7DBF701808193DCF8013297FE
:1015100080818FDCF801319780818BDCF80180813C
:1015200088DCD394F4E0EF0EF11CC3940C5F1F4FE2
:1015300034E0C312DCCFD11003C08AEA91E0F8DBBB
:1015400004DC1DC144E0BE01695F7F4FC80175DC4A
:101550004F81493608F477C07A85588569857C3093
:1015600009F04BC020E030E080E090E0F901EB5959
:10157000FC4F708174131CC0A181A51319C0A281F6
:10158000A61316C02CE023839C01220F331F280FC3
:10159000391FF901EE0FFF1FE95CFC4F1182108229
:1015A000F901EE0FFF1FE75CFC4F11821082CDC0E6
:1015B0007F3FD9F44083518362832CE023839C01D5
:1015C000220F331F280F391FF901EE0FFF1FE95CAF
:1015D000FC4F11821082F901EE0FFF1FE75CFC4FF8
:1015E0001182108210923403B0C001962C5F3F4FDD
:1015F0002031310509F0BACFC2C080E090E020E090
:1016000030E0FC01EB59FC4FA081A41315C0A1816F
:10161000A51312C0A281A6130FC07383F901EE0FA8
:10162000FF1FE20FF31FEE0FFF1FE75CFC4F81E08F
:1016300090E091838083A3C02F5F3F4F0496803159
:101640009105F9F69CC0E98180913503E817B8F15E
:1016500090E0F0E09C01295F3F4F2E173F077CF19F
:101660003A812091630332132AC03C813F3229F42E
:1016700042E06CE0C6018AD382C02D813C32B1F4D5
:101680002093500381E090E09093520380935103A4
:101690008091750390917603E4E02E9F800D911D5B
:1016A0001124909376038093750369C0E81BF90BAE
:1016B000EE0FF0E0ED5AFC4F3083218360C080E0F4
:1016C00090E052DD7C01F80101900020E9F73197AC
:1016D000E01BF10BF695E795BB24B394BE0EC70152
:1016E0008B0D911D855591408F3A91050CF044C0AA
:1016F000F701B1928F0121E0822F880F81502B15C5
:10170000D0F441E0B801F601E80FF11DCF012C87BC
:1017100094DB2C85233058F020FD09C0D8011197A7
:101720008C91843621F4F8018081809336032F5FF9
:101730000F5F1F4FE1CFF3E0EF16F2E0FF06F8F482
:10174000F701E20FF11D10821AC022E04CE064E0C4
:10175000CE010796ACD28FE08A8722E04CE064E0AD
:10176000CE010796A4D282E08A8722E04CE064E0B2
:10177000CE0107969CD203C084EA91E0D9DA2C9678
:10178000E9E00C94022D0F931F93CF93DF93909178
:10179000340391114FC093E0899F80011124F80117
:1017A000EE0FFF1FE95CFC4F94E0899FD0011124EC
:1017B000AB59BC4F12969C91977040E850E0491B82
:1017C00051099AEF949F9001959F300D1124359502
:1017D00027953595279531832083E801CC0FDD1FB0
:1017E000C55CDC4F288139812F5F3F4F39832883C7
:1017F000000F111F075C1C4FF801408151814115FA
:10180000510529F424303105A9F4D4DC11C041304C
:10181000510539F4CFDC82E090E0F80191838083B8
:1018200009C04230510531F4C5DCF8011182108243
:1018300019821882DF91CF911F910F910895A6E030
:10184000B0E0E5E2FCE00C94E92C209163032A83EC
:101850001B8280915003882341F0833019F487E77D
:1018600091E00FC08DE790E00CC0277030E02A5166
:101870003F4F4DE7429FC001439F900D1124959526
:101880008795909352038093510304E513E0F12C64
:101890007CE2E72EF801319790819F3FB9F080916B
:1018A00035038F0D898380915003882311F0EC82DA
:1018B00003C09C83F80180818D8321E04CE065E0CA
:1018C000CE010196F4D1CE010196A9DCF3940E5F0E
:1018D0001F4FF8E0FF12DECF80915003882341F0C4
:1018E000833019F41092500303C082508093500348
:1018F0002696E6E00C94052D80910302882351F092
:10190000B6DC89E280936403809103028150809366
:10191000030208951ECCFF920F931F93CF93DF9382
:10192000FC01F0800181C281D38114818FE5809315
:1019300064031092030280913503811105C08091E8
:101940006303882309F4A9C0809104028F1104C0A5
:1019500080910502801729F0FCDBF09204020093CD
:10196000050280914F038F3F09F497C0C093060290
:10197000D093070210930802CC23F1F081111CC010
:1019800080913503181761F0143651F08DEA8C0FF1
:10199000823010F0CD3739F48FEF80934F037DC044
:1019A000C43509F47AC08D2F807F803609F075C068
:1019B000D067D093070257C018DC811105C0809111
:1019C0004F03882309F469C080910A02811107C07E
:1019D000E0914F03F0E0EE54FE4FE49101C0E82F98
:1019E000E33541F4C43531F490914F039E5F9093F9
:1019F0004F0304C0EC1711F0ACDB4FC0882369F033
:101A0000809154018E5F80935401EFDB81110EC0F1
:101A100080914F038E5F80934F0380914F03E82F97
:101A2000F0E0ED54FE4F14911F3F59F480910602EF
:101A300080930A028436B9F48091360380930802B9
:101A400012C01093060297E7909307029091350316
:101A5000909308028E5F80934F0310920A028E309B
:101A600021F01123D1F017DC18C084E092E07CDB78
:101A7000DC01009781F02C9130E083E092E0821B42
:101A8000930BA817B90730F4ED01C20FD31F48819B
:101A90004D93F7CF1C925DDBE4CFCDB7DEB7E5E029
:101AA0000C94062DFA013081882369F0E1E0F0E022
:101AB000022E01C0EE0F0A94EAF7DB01A30FB11D5D
:101AC0009C919E2B9C93222319F08FEF820F0BC0C9
:101AD00081E0830F8C3010F4FA018083FB01E80F62
:101AE000F11D108287E090E00895CF93C82F5B9A94
:101AF000882319F080910C0202C080910E0220E12F
:101B0000829FC0011124E8D85B98CC2319F0809102
:101B10000B0202C080910D0220E1829FC0011124BE
:101B2000DBD8CF910895A9E0B0E0E9E9FDE00C949D
:101B3000DD2C4C01D62E422E1E2DE42EF12C2091B0
:101B40007503309176038C2D8A0DA7014E5F5F4F90
:101B5000049F800D1124992787FD90952817390738
:101B600020F480EC91E0E4D89EC0281B390B309320
:101B7000760320937503299A80917F02882341F090
:101B800010927F0284E491E01BD4BB24B39401C083
:101B9000B12C80912E03811102C00E943B050E944E
:101BA000B70480E1C89E900111243A83298380E123
:101BB000A89E900111243C832B832D2D30E03E8381
:101BC0002D8366246394712C512CC11002C0AA206D
:101BD00041F05B9A89819A817FD85B988B819C8147
:101BE0007BD8312C832D992787FD90952D813E81BF
:101BF0008217930724F480E078DF3394F3CFDD205D
:101C000011F081E072DF90E0292E332427FC30941C
:101C10002E143F0424F097E0280C391C1CC047E028
:101C200050E0280C391C9301042E01C0220F0A94A5
:101C3000EAF7F101808182234F835887998755DF26
:101C40004F8158854150510999854F3FFFEF5F07FC
:101C500051F79F5FD9CF292F332727FD30954216A3
:101C6000530674F49301092E01C0220F0A94EAF777
:101C7000F10180818223998738DF99859150EBCFDC
:101C8000812F2FD8015009F0A0CF809178038823AD
:101C900019F00E94C90403C086E30E945504B110E4
:101CA0000E94E91B29982996E2E10C94F92CADE0F9
:101CB000B0E0EDE5FEE00C94E02C7C01162F842FC3
:101CC000022F6701C60ED11C462FB70192D3D60151
:101CD0008C931F5F1D8619825E2C670127E06624A6
:101CE0006394712C8C2D8519811788F537E0A32E0C
:101CF000B12C4701880E911CF3010A2C01C0EE0F94
:101D00000A94EAF7D4018C91AE01435F5F4FBE01A4
:101D10006F5F7F4F8E23C6DE282FB1E0AB1AB1086C
:101D200058F7D6018D916D01082E82958025082ED9
:101D30008695869580258F5F86958170AE01435F7D
:101D40005F4FBE016F5F7F4FADDE282FCBCF2223C9
:101D500011F0215004C08D858F5F8D8727E089E1C8
:101D600080930D0280930E0285E280930B02809394
:101D70000C02A12CC12C9AE0E92E4D856CE0CE011D
:101D80000196D1DE2D96EFE00C94FC2CADE0B0E096
:101D9000ECECFEE00C94EC2C162F242F4BE0BE0153
:101DA0006F5F7F4F01962D8748D82D85412F682F73
:101DB000CE0101967CDF2D96E3E00C94082D43E0E4
:101DC00066E0E4CFAF92CF92EF920F93CF93DF9381
:101DD000CDB7DEB760970FB6F894DEBF0FBECDBFAC
:101DE00040E1BE016F5F7F4F019627D869814A812C
:101DF0000B818C8180930E028D8180930D028E81E8
:101E000080930C028F8180930B02E02EE2945FE0BE
:101E1000E5220F70242F2F7042954F70A12CC12CFA
:101E2000CE01089680DE60960FB6F894DEBF0FBE36
:101E3000CDBFDF91CF910F91EF90CF90AF900895EC
:101E4000A9E1B0E0E6E2FFE00C94E52C4BE0BE0136
:101E50006F5F7F4F01960E941D07182F893009F090
:101E60005CC099E190930D0290930E0290930C0246
:101E700082E380930B0269E0CE010196C4D2E1E0D7
:101E8000F0E0EC0FFD1FE10FF11D8083198E1D8620
:101E9000CE0101967C016E019BE0C90ED11C27E0AA
:101EA000AA24A394B12CEC14FD0429F100E010E065
:101EB000F501002E01C0EE0F0A94EAF7D7018C91CC
:101EC000AE01475E5F4FBE01635F7F4F8E23EADD49
:101ED000282F0F5F1F4F0830110551F7AE01475EE5
:101EE0005F4FBE01635F7F4F81E0DCDD282FBFEFD6
:101EF000EB1AFB0AD8CF222311F0215004C0898DA0
:101F00008F5F898F27E0A12CC12C6AE0E62E03E0C9
:101F1000498D6CE0CE010D9606DE6996EAE00C94E0
:101F2000012DA9E1B0E0E7E9FFE00C94E42C4BE0DF
:101F30009E012F5F3F4F7901B90101960E941D0755
:101F4000182F85E380930E0296E190930D029093F3
:101F50000C0280930B02612FC70161D2F701E10FE0
:101F6000F11D808399249394910E198E1D8687010B
:101F700027E0AA24A394B12C802F8E19891508F08C
:101F80004AC0C12CD12CF5010C2C01C0EE0F0A94D3
:101F9000EAF7D8018C91AE01475E5F4FBE01635FE7
:101FA0007F4F8E237FDD282FBFEFCB1ADB0A34E073
:101FB000C316D10441F7AE01475E5F4FBE01635FB8
:101FC0007F4F81E06FDD282FF4E0CF2ED12CF5017B
:101FD0000C2C01C0EE0F0A94EAF7D8018C91AE01E7
:101FE000475E5F4FBE01635F7F4F8E235BDD282F0F
:101FF000BFEFCB1ADB0A38E0C316D10441F7AE01BC
:10200000475E5F4FBE01635F7F4F81E04BDD282F4E
:102010000F5F1F4FB1CFA12CC12CEAE0EE2E03E0E1
:10202000498D6AE0CE010D967EDD6996EBE00C9459
:10203000002DAF92CF92EF920F93CF93DF9300D00A
:1020400000D0CDB7DEB743E0BE016F5F7F4F019692
:102050000E941D078AE680930E0294E290930D027F
:1020600091E290930C0280930B0280E88C83A12C68
:10207000C12CBFE0EB2E03E026E043E060E0CE01A0
:10208000019651DD0F900F900F900F90DF91CF913F
:102090000F91EF90CF90AF900895AF92CF92EF92C3
:1020A0000F93CF93DF93CDB7DEB72C970FB6F8948D
:1020B000DEBF0FBECDBF4BE0BE016F5F7F4F02960C
:1020C0000E941D078530C1F48EE380930E028CE1DF
:1020D00080930D0281E280930C028AE380930B02CD
:1020E00005E2A02E8AEFC82EE12C05E024E044E0B2
:1020F00068E0CE01019617DD2C960FB6F894DEBF8E
:102100000FBECDBFDF91CF910F91EF90CF90AF90E9
:1021100008958F929F92AF92BF92DF92EF92FF92BB
:102120000F931F93CF93DF9310922C0210924102D2
:10213000FC012181220F220F220F3381231B57E044
:10214000520F10922D0210E070E038E0D32ED20E24
:10215000FF24F39447E007E0E12CC7E0D0E0A1E0E2
:10216000B0E0FD1409F47FC0FC01EE0DF11D2481E7
:1021700030E0002E02C0359527950A94E2F72170D1
:102180003327E22F002311F0015002C0E39407E04F
:102190006B3471F4433009F04AC0111107C0E111EA
:1021A0005FC010922C027093410274C010E041C0D5
:1021B0004F3F31F56634A9F4E72FF0E0E35DFD4FC2
:1021C000E0810E2EE295E0250E2EE695E695E025BF
:1021D000EF5FE1FB882480F8912C8216930641F092
:1021E00004C0653429F4E11103C010932C02DBCF45
:1021F0007F5FE72FF0E0E35DFD4F108247E031C0E5
:10220000EE2361F1663471F4E72FF0E0E35DFD4FFA
:10221000A0809D01042E01C0220F0A94EAF7A22A91
:10222000A0821CC0653439F06B34C1F404C04F3F48
:10223000D1F2EE2399F0E72FF0E0E35DFD4F9E0130
:10224000241B310947FD33955D0102C0AA0CBB1C5C
:102250002A95E2F795013081322B3083415001C03D
:1022600011E0F3947ECF10932C02709341025F151E
:1022700088F4653431F44F3F21F47F5F709341025D
:1022800004C080912C028111F8CF81E0909141022D
:10229000911101C080E0DF91CF911F910F91FF90CC
:1022A000EF90DF90BF90AF909F908F900895109225
:1022B0006F00E09144028CE1E89FF0011124EB5B98
:1022C000FD4F1082809177038D7F8093770308956F
:1022D000CF93DF93FC01273011F08CE001C085E142
:1022E000A181B0E050E0ED01C41BD50B208190E04E
:1022F000C817D907FCF4EE27FF27E81BF90BEC17EA
:10230000FD07C4F430E070E0E901C61BD70BC81725
:10231000D90784F4EC17FD076CF42A0F3B1F640FF8
:10232000751F261B370B2817390724F481E0E217A5
:10233000F3070CF080E0DF91CF910895FC0121813B
:10234000243108F0B4CF3381662381F081E090E03E
:10235000032E01C0880F0A94EAF7DF01A20FB11D16
:1023600014969C911497982B14969C93332319F0F0
:1023700031503383089587E083832F5F2183E20FF9
:10238000F11D14820895539A5B985298E9E6F0E0A3
:1023900080818160808382EC91E0909376038093CA
:1023A00075031092610210922E03089580917803B4
:1023B000882321F00E943B050C94C9040C9432053B
:1023C000FC01218121110EC0809178030E94190720
:1023D00040E265E080917503909176030E94A90622
:1023E0000C94A50641E068E773E001960E941D0782
:1023F000DDCF442339F04150FB01E40FF11D908102
:10240000890FF7CF089520E0662339F06150FC0171
:10241000E60FF11D30812327F7CF822F0895A09179
:102420002C0240E035E020E0662399F06150FC0189
:10243000E60FF11D5081752F72957F702727370F9A
:10244000AA2311F0442319F05F702527350F4F5F41
:10245000EBCF320F40E1349FC0011124822B08954D
:10246000FC0132812381A081B181A30FB11D8C9128
:1024700090E0022E02C0959587950A94E2F781704C
:1024800099274FEF420F4383211104C03F5F3283EE
:1024900027E023830895A2E0B0E0E1E5F2E10C94A7
:1024A000E52C7C01A12CB12CD12CCC24C394062F7B
:1024B00010E001501109A616F0F4C7014A836983A0
:1024C000CFDF4A816981882391F0442349F0980144
:1024D0002A193B098C2D01C0880F2A95EAF706C0FE
:1024E0008C2D0A2C01C0880F0A94EAF7D82A8FEFA6
:1024F000A81AB80AE0CF8D2D2296EAE00C94012D9F
:10250000A4E0B0E0E6E8F2E10C94E42C1B8227E0C2
:102510002C839C012C5F3F4F3A8329831092410208
:10252000FC012181338187E090E0831B9109F8E071
:102530002F9F800D911D1124853491050CF44EC000
:10254000B12CA0904102F5E0FA1558F10A2D10E0E7
:1025500040E068E0CE0101969EDF035D1D4FF8016B
:102560008083982E092C92949024092C969496940A
:102570009024CE01019674DF939491FACC24C0F894
:10258000D12C90E0C816D90649F5CE01019668DF36
:10259000811124C0F8018081B826A394A092410241
:1025A000D0CF40E068E0CE01019675DF082F182FEC
:1025B000012E12951025012E169516951025CE0187
:1025C00001964EDF1F5F11FBEE24E0F8F12C282F5F
:1025D00030E0E216F30611F481E0B01280E02496B8
:1025E000EBE00C94002DA5E0B0E0E9EFF2E10C94F3
:1025F000E82CFC011B8287E08C83CF0104969A8330
:1026000089838081853009F051C02181338187E041
:1026100090E0831B910938E0239F800D911D1124C8
:102620008039910509F042C0109241020FE010EF8D
:1026300029E880914102E82EF12CDD24D394D80EB4
:1026400041E068E08F3088F4CE0101962D8323DFCE
:10265000080F111DF701E35DFD4F2D812827208311
:1026600024E2280FD0924102E4CFCE01019613DF7D
:10267000080F111DD0924102F701E35DFD4F8095D7
:10268000808341E068E0CE01019605DF90E0982F5D
:102690008827081B190B41E068E0CE010196FBDE9C
:1026A000282F30E081E00217130709F080E025961B
:1026B000E7E00C94042DA4E0B0E0E1E6F3E10C9433
:1026C000EA2C1B8227E02C839C012C5F3F4F3A832E
:1026D0002983FC0121812430A1F58381813089F592
:1026E0001092410280914102082F10E0FF24F394E0
:1026F000F80E41E0843098F4811106C067E0CE0105
:102700000196C9DE806804C068E0CE010196C3DE90
:10271000F801E35DFD4F8083F0924102E3CF67E073
:10272000CE010196B8DEF801E35DFD4F880F80838E
:10273000F092410290912D0292959F7081E09A3023
:1027400009F080E02496E5E00C94062DCF93DF930A
:10275000FC018081873021F481818330F9F405C048
:102760008930E1F481818830C9F483818730B1F404
:1027700010924102318120E0231760F4822F90E013
:10278000DC01A35DBD4FEF01C80FD91F8C818C9375
:102790002F5FF2CF2093410281E001C080E0DF9102
:1027A000CF910895CF93DF93FC0181818330E9F4C9
:1027B00083818730D1F480818830B9F4109241024E
:1027C00020E0822F90E0DC01A35DBD4FEF01C80F38
:1027D000D91F8C818C9381E0820F833010F4282FD5
:1027E000F0CF8093410281E001C080E0DF91CF9182
:1027F0000895FC0181818C3009F580818630F1F4E7
:10280000838181111BC01092410230E020E0832FB0
:1028100090E0DF01A80FB91F14964C91240FDC0142
:10282000A35DBD4F4C9381E0830F8B3010F4382FA4
:10283000EECF8093410281E09785291380E00895CF
:10284000FC01908180917703993611F0933751F410
:10285000982F9370913011F4826006C080FF07C0FA
:102860008B7F03C080FD03C084608093770308954D
:10287000A1E0B0E0EEE3F4E10C94E92C1982809140
:102880000F0290911002892BC9F18091780387FF84
:1028900017C084E30E943C048058803458F0803C88
:1028A00058F490E08055910953E0959587955A9595
:1028B000E1F703C080E001C08FE08F590E947A06E3
:1028C0008091780383FF16C082E70E947A06809188
:1028D000780384FF04C0809111020E947A0686E684
:1028E0000E947A068091780384FF04C080910F02D1
:1028F0000E947A061092100210920F0280914202FA
:10290000882309F464C2299A009143022CE1029FB2
:10291000800111240B5B1D4FF8018081873011F07D
:10292000893049F48981811106C0C8010FDF8823ED
:1029300011F089E689838981811106C0C80132DFDF
:10294000882311F083E789838981811106C0C8013A
:1029500050DF882311F082E78983F8018081865057
:10296000833008F4DAC08981811106C0C8013BDEDA
:10297000882311F083E589838981811139C066E458
:10298000C801C7DB8823A1F1F0904102FA94F092CC
:1029900041024F2D6DE272E086E02BDDEF2DF0E07D
:1029A000E35DFD4FE0808E1105C023E02F1510F48C
:1029B00086E41BC0282F30E02F5F3F4F6E2D70E064
:1029C0002617370739F493E09F1520F496E499838E
:1029D00080830EC04F2D6DE272E08CE00ADD8E1117
:1029E00006C0E3E0EF1518F484E5898301C019827D
:1029F0008981811116C065E4C8018BDB882389F0C9
:102A000080914102815080934102893051F469E004
:102A10008DE292E0F8DC90913602891302C085E4E1
:102A200089838981811106C0C8016ADD882311F07C
:102A300088E489838981811106C0C8013CDE88232E
:102A400011F084E789838981811134C0F8012081E4
:102A5000438D60911102C8014A963ADC682FC80183
:102A60006DDC6BE4C80155DB8823B1F0F0904102C6
:102A7000FA94F09241026F2D8DE292E0D0DCEF2DBE
:102A8000F0E090912C02E91BF109E35DFD4F90818C
:102A9000891302C08BE48983898181110BC0F801FD
:102AA000838191E0980F9383873021F41382818191
:102AB000815081838981811130C0F8018181843006
:102AC00061F58381843049F5F0802F2D4EE16CE370
:102AD000C8014896FDDB882301F12F2D4EE160915E
:102AE0001102C8014A96F4DB682FC80127DC20E0F8
:102AF000822F90E0FC01E35DFD4FD801A80FB91FC4
:102B000014968C91808381E0820F853010F4282FF9
:102B1000EFCF8093410282E589833981332309F421
:102B2000CAC02091780320FFC6C0809177038E7FB2
:102B30008B7F8093770321FD64C050912B02F0902E
:102B400041025F113DC040E04517C0F4842F90E082
:102B500061E0640FFC01E95EFD4FDC01A35DBD4F48
:102B600070818C91781741F040932B02809177030C
:102B70008D7F8093770304C0462FE6CF40932B02CE
:102B800045131EC0409130035091310360913203D0
:102B9000709133038091130290911402A091150259
:102BA000B0911602481B590B6A0B7B0B463251053C
:102BB0006105710528F48091770381608093770324
:102BC00040E04F1560F4842F90E0FC01E95EFD4F7A
:102BD000DC01A35DBD4F8C9180834F5FF2CF4093AA
:102BE0002B02409130035091310360913203709178
:102BF00033034093130250931402609315027093B1
:102C000016023435E9F426FD1BC08091410285305F
:102C1000B8F080912F028B3471F0893661F09DEA13
:102C2000980F923040F08D57823028F0809130021A
:102C30008077803729F480917703816080937703D0
:102C4000B801CE010196FCDD8091770382FF33C08D
:102C500089810E947A0680912C02882329F0809134
:102C60004102815080934102F12CE0914102FE1615
:102C700048F4EF2DF0E0E35DFD4F80810E941907DD
:102C8000F394F3CF80912C02882351F0F0E0E35DC0
:102C9000FD4F80818F7040E361E090E00E94DF068D
:102CA0008091780385FF05C084E30E943C040E9464
:102CB00019070E94A5068091780382FF6FC080E704
:102CC0000E947A06F801808140E262E090E00E9472
:102CD000A906F801808D40E265E0F0E18F9FC00118
:102CE00011240E94A906F801818D40E265E0F0E11F
:102CF0008F9FC00111240E94A906F801828D40E235
:102D000065E0F0E18F9FC00111240E94A906F8013F
:102D1000838D40E265E0F0E18F9FC00111240E94A5
:102D2000A906F801828140E263E090E00E94A906D2
:102D3000F801818140E263E090E00E94A906F80179
:102D4000238140E262E087E090E0821B91090E94CB
:102D5000A90680E20E947A068091780385FF08C068
:102D600084E30E943C040E94190780E20E947A06D4
:102D7000F8018381873019F081818F5F8183F12C85
:102D8000F8018181F81640F4F801EF0DF11D8481FE
:102D90000E941907F394F4CF0E94A506F80110824F
:102DA00080914202815080934202809143028F5F62
:102DB000823019F08093430202C010924302299896
:102DC0008981843521F48DE292E00E948B0C21965A
:102DD000E6E00C94052D1F920F920FB60F9211246E
:102DE0002F933F934F935F936F937F938F939F9313
:102DF000AF93BF93EF93FF9310926F008091880081
:102E00009091890020E23EE430938900209388006D
:102E100090938500809384008091780383FF03C0A2
:102E20008EE20E947A06809144029CE1899FF00123
:102E30001124EB5BFD4F9081933018F0918192301B
:102E400010F435DA18C090914202913049F4809123
:102E5000780382FFF6CF87EC91E00E949806F1CFCD
:102E60009F5F909342028F5F823019F080934402FB
:102E700002C010924402FF91EF91BF91AF919F91D8
:102E80008F917F916F915F914F913F912F910F9013
:102E90000FBE0F901F9018951F920F920FB60F92B2
:102EA0001124CF92DF92EF92FF920F931F932F93F3
:102EB0003F934F935F936F937F938F939F93AF93C2
:102EC000BF93EF93FF93CF93DF931F92CDB7DEB7FE
:102ED00080917903882321F082E08093790371C285
:102EE000009184001091850024E0169507952A959D
:102EF000E1F7909144022CE1929F60011124C601F8
:102F00008B5B9D4F6C01FC018081843049F40E3253
:102F1000110508F456C20F34110558F0C8D951C232
:102F2000853039F40731110508F44BC20832110518
:102F3000A8F74A990FC08450823038F461E0C60186
:102F4000FDD9109285001092840010931202009314
:102F5000110237C28091110290911202081B190BC5
:102F60001093100200930F021092850010928400BB
:102F7000F6016081673019F0693009F040C0209196
:102F80000F0230911002F6012C3B310510F0128235
:102F900018C28281811133C02739310538F089E0A8
:102FA000808310928500109284000BC280911102E0
:102FB0009091120241E0F6014283693091F4A90137
:102FC000415051098417950710F4808F06C0F6010F
:102FD000808F282F220F220F280F218FF601828F3A
:102FE00027C0AC01440F551F2417350710F4108279
:102FF000E8C1F601808F2F5F218F228F838F683089
:10300000C1F4F6018281811114C081E08283809134
:103010001102808F828F80910F02909110028B3B62
:10302000910518F4818F880F03C0F601818F869572
:10303000838F6450623008F464C122E026BB0091A3
:10304000110210911202C801835392408B3B9105EB
:10305000F8F480910F02909110020A974797C0F4FC
:1030600086E0F601808F9EE0918F33E1328F938F5F
:1030700091E092838083118287E08383148280EAC7
:103080009FE0909389008093880020936F0099C1FE
:10309000F601308131114EC0C8014B970697C0F43C
:1030A00080910F0290911002845192404E9780F4CB
:1030B00088EF91E1909389008093880082E080936B
:1030C0006F00F601128288E08083118287E01BC0C6
:1030D000C80109974C97D0F480910F02909110028B
:1030E0008D59910989389340A8F480EA9FE0909324
:1030F00089008093880082E080936F00F60112823D
:1031000087E080831182838314825BC105361105B9
:1031100008F057C180910F029091100285369105F9
:1031200008F04FC1F601008F818F81E0828382E039
:10313000808347C1323009F069C0F0900F0222E06D
:103140004F2D602FC6014896C3D8F60142818823CF
:10315000F9F0208D30E0C901880F991F820F931F6D
:10316000800F911D9595879595958795808F218DD9
:1031700030E0C901880F991F820F931F8F0D911D99
:103180009595879595958795818F4F5F428319C156
:103190004430C8F180EA9FE09093890080938800D2
:1031A000F60182818C3050F0208D818D90E0820F6D
:1031B000911D8536910524F084E015C08A3088F091
:1031C000F601208D818D90E0820F911D85974CF442
:1031D00085E0808388EE93E0909389008093880057
:1031E00003C083E0F601808380911102F601828F93
:1031F00080910F02838F118287E08383148282E0A3
:1032000080936F00DEC0F601108246CF363009F0A1
:103210003FC00B301105F0F460E0C6018FD8F60115
:10322000208D30E0C901880F991F820F931F800FF6
:10323000911F9595879595958795808F218D30E085
:10324000C901880F991F820F931F20910F02820FCF
:10325000911DAEC061E0C60171D8F601228D30E04B
:10326000C901880F991F820F931F800F911D95959B
:10327000879595958795828F238D30E0C901880FBA
:10328000991F820F931F20910F02820F911D63C01F
:10329000E0900F02F0901002383041F5C7018F56D0
:1032A00091094D97E0F460E0C60148D8F601208D01
:1032B00030E0C901880F991F820F931F800F911D65
:1032C0009595879595958795808F218D30E0C901DB
:1032D000880F991F820F931F8E0D9F1D69C0C70114
:1032E000875E9109879708F06CC01AC0393069F47D
:1032F000FF24FCE0EF1AF108112761E00E151F050D
:103300000CF060E0C6011AD85CC0232F4E2D602F50
:10331000C6014A9639830E9468113981882309F1D0
:1033200061E0C6010BD8F601228D30E0C901880F9B
:10333000991F820F931F800F911D959587959595E5
:103340008795828F238D30E0C901880F991F820FE6
:10335000931F8E0D911D9595879595958795838FD4
:1033600030C0232F4E2D602FC601489639830E940E
:1033700068113981882311F160E0C6010E949E1115
:10338000F601208D30E0C901880F991F820F931F2D
:10339000800F911D9595879595958795808F218DA7
:1033A00030E0C901880F991F820F931F8E0D911D68
:1033B0009595879595958795818F03C0373009F04E
:1033C000ADCD0F90DF91CF91FF91EF91BF91AF9174
:1033D0009F918F917F916F915F914F913F912F912D
:1033E0001F910F91FF90EF90DF90CF900F900FBE45
:1033F0000F901F901895CF93DF93E898229A2A9AFE
:103400008EE190E00E946C062A988EE190E00E9486
:103410006C062A9A8DE290E00E946C0680E30E947E
:10342000550484E690E00E946C06CEEED1E0FE01E9
:1034300031966491FE0184910E9443042296F2E049
:10344000C032DF07A1F780917E02811107C083E3BC
:103450000E94550484E00E9471060FC0C8EDD1E0BF
:10346000FE0131966491FE0184910E9443042296EC
:10347000F1E0CE3EDF07A1F7EACF84E30E945504D6
:1034800085E30E943C048D30C1F7DF91CF91089510
:10349000A2E3B0E0EEE4FAE10C94EB2C80917D0223
:1034A000882309F4A1C04A9B8AC08FE30E943C0490
:1034B0008F778983823368F08AE30E94550486E31C
:1034C0000E9455048DE30E94550484E30E94550434
:1034D0008BC02A988FEF0E94C60310E089811817CD
:1034E00060F480E00E94C603E2E0F0E0EC0FFD1F14
:1034F000E10FF11D80831F5FF1CF80E00E94C603C2
:10350000082F80E00E94C6032A9A84E30E94550493
:1035100085E30E943C048D30C1F72A8196E792270B
:103520009A8392E08981E92FF0E0981768F441E0EE
:1035300050E04C0F5D1FE40FF51F3081245223270C
:1035400020839F5F232FEECF81E090E08C0F9D1FA3
:10355000E80FF91F90818B819827908380917803E1
:1035600084FF12C081E60E947A0610E089818117EB
:1035700030F1E1E0F0E0EC0FFD1FE10FF11D808183
:103580000E947A061F5FF2CF81E40E947A0610E063
:103590008981811758F0E1E0F0E0EC0FFD1FE10FA9
:1035A000F11D80810E9419071F5FF2CF809178037F
:1035B00085FF03C0802F0E9419070E94A50685E39E
:1035C0000E943C04813029F0813161F48AE30E9439
:1035D000550486E30E9455048DE30E94550484E35C
:1035E0000E9455040E948205E296E4E00C94072DA7
:1035F0008F929F92AF92BF92DF92EF92FF920F93C2
:103600001F93CF93DF93CDB7DEB7EA970FB6F89449
:10361000DEBF0FBECDBF41E38E010F5F1F4FB8016C
:1036200001960E941D077C0199270197298130E0AE
:103630008217930709F0A3C080917D02811104C015
:10364000DADE83E00E947106DB808A8196E78927B3
:103650008A8322E03981822F90E0F801E80FF91F78
:10366000231750F4DE01A80FB91F8C91845290816A
:10367000892780832F5FEECF80818D258083CE01C7
:10368000C7960E94E00585E30E94550485E30E94E9
:103690003C04833181F1CE01C3960E94E0054BA921
:1036A0005CA96DA97EA98FA998ADA9ADBAAD841703
:1036B0009507A607B70760F44A015B01881A990AC3
:1036C000AA0ABB0A2DEB82169104A104B10470F47E
:1036D000481759076A077B0770F484549F4FAF4F10
:1036E000BF4F84179507A607B70728F48EEC91E023
:1036F0000E94980627C085E30E943C04833119F696
:10370000D4FE08C088E70E94710688E70E9471060F
:1037100088E701C08AE00E9471062A988FE70E941C
:10372000C60358018A2D801B8E1530F4F501819156
:103730005F010E94C603F6CF2A9A85E30E943C04EB
:103740008331D9F385E30E943C04863149F48BE34D
:103750000E94550486E30E9455048DE30E9455049F
:1037600080917D02882349F084E30E94550485E31B
:103770000E943C048D30C1F702C00E94D611EA9627
:103780000FB6F894DEBF0FBECDBFDF91CF911F9172
:103790000F91FF90EF90DF90BF90AF909F908F9030
:1037A0000895FC012181223731F0223559F481E05E
:1037B00080937E0202C010927E021DDE81E0809323
:1037C0007D020895233711F4019612CF10927D02E5
:1037D0000895CF93DF93E898229A2A9A8EE190E099
:1037E0000E946C062A988EE190E00E946C062A9A4C
:1037F0008DE290E00E946C0680E30E94550484E60E
:1038000090E00E946C06C9E3D2E0FE01849181340D
:1038100040F083E30E94550484E00E947106CFEFDC
:103820000DC0FE0131966491FE0184910E94430413
:103830002296F2E0C537DF0741F7EBCF84E30E9421
:1038400055048AE090E00E946C06C150B9F781E00F
:1038500080937F02DF91CF910895EF92FF920F93B3
:103860001F93CF93DF93EC018B01F880F3946115E4
:10387000710519F0E4E6F0E002C0E0E0F0E028E0D5
:10388000F29EC00111246AE070E00E94CA2C9B01E4
:103890002E0F3F1FC901AA2797FDA095BA2FE091CF
:1038A0007503F0917603AF0160E070E048175907A7
:1038B0006A077B0728F489E292E00E949806D9C043
:1038C000E21BF30BF0937603E093750380917F0284
:1038D000811101C07EDF85E30E943C048D3071F0D0
:1038E0008AE50E947A0685E40E947A0682E50E94B3
:1038F0007A0682E50E947A0681E34CC080918002BC
:1039000090918102A0918202B0918302892B8A2B2F
:103910008B2B51F50E94B70485E30E943C04833150
:1039200009F443C08AE50E947A0685E40E947A067B
:1039300082E50E947A0682E50E947A0682E32AC026
:103940008091300390913103A0913203B091330301
:103950004F5F5F4F6F4F7F4F84179507A607B707DD
:10396000C9F681E00E947106809130039091310385
:10397000A0913203B09133034091800250918102B3
:10398000609182027091830284179507A607B7079A
:10399000B9F6E7CF0E947A0685E30E943C040E94B4
:1039A00019070E94A50615DF64C0012B41F42A986F
:1039B0008FE70E94C603EC2E0C2F1D2F0BC00AE0D0
:1039C00010E084E60E9471060150110901151105ED
:1039D000C1F7EDCF802F8E198F1530F4F80181914A
:1039E0008F010E94C603F6CF2A9AC8EC85E30E9495
:1039F0003C048D30E9F485E30E943C048D3019F1DC
:103A00008AE50E947A0685E40E947A0682E50E9491
:103A10007A0682E50E947A0683E30E947A0685E3AD
:103A20000E943C040E9419070E94A506D2DE0BC02A
:103A300085E30E943C048331F1F681E00E94710627
:103A4000C150A1F6D8CF80917F02811102C00E949F
:103A5000D6118091300390913103A0913203B0913F
:103A600033038093800290938102A0938202B093EB
:103A70008302CDB7DEB7E6E00C94052DACE0B0E0F4
:103A8000E4E4FDE10C94EC2CFC018BE08983818162
:103A90008A831B8282E08C8387818D8380858E83DD
:103AA00081858F83848188878581898786818A87BC
:103AB0001B861C8684E10E94710660E070E0CE01E6
:103AC0000196CBDE8AE50E947A0610E0812F90E015
:103AD000298130E0281739075CF0E1E0F0E0EC0FD5
:103AE000FD1FE80FF91F80810E9419071F5FEECFAD
:103AF0008091780385FF03C080E00E9419070E942F
:103B0000A5062C96E3E00C94082DCF93DF93EC01EF
:103B100080918702811108C090918802911104C0A0
:103B2000909189029923A9F09B81903319F09F7E8F
:103B3000903479F49F8198130CC098858091880205
:103B4000981307C0998580918902981302C0CE010D
:103B500095DF80918402811108C0909185029111B6
:103B600004C0909186029923A9F098819B3091F42A
:103B70009B81903479F49F8198130CC09885809133
:103B80008502981307C0998580918602981302C018
:103B9000CE0174DFDF91CF910895AEE1B0E0E3EDA7
:103BA000FDE10C94EB2C80917F02882309F469C01D
:103BB0004A9B59C08FE30E943C048F778E3108F0F6
:103BC0008DE189832A988FEF0E94C60310E08981D6
:103BD000181760F480E00E94C603E2E0F0E0EC0F0A
:103BE000FD1FE10FF11D80831F5FF1CF80E00E9478
:103BF000C603082F80E00E94C6032A9ACE010196D0
:103C000084DF8091780384FF12C08AE70E947A06DD
:103C100010E089818117A8F1E1E0F0E0EC0FFD1FD1
:103C2000E10FF11D80810E947A061F5FF2CF8AE5C5
:103C30000E947A0610E08981811758F0E1E0F0E0F7
:103C4000EC0FFD1FE10FF11D80810E9419071F5F1E
:103C5000F2CF8091780385FF03C0802F0E9419075F
:103C60000E94A5060EC085E30E943C04813149F400
:103C70008AE30E94550486E30E94550484E30E946F
:103C800055046E96E4E00C94072DAEE1B0E0EBE451
:103C9000FEE10C94EB2C8C01FC018181823711F444
:103CA00098DD36C0833711F0863601F54DE1BE014F
:103CB0006F5F7F4FC80102960E941D0799270197E9
:103CC000298130E08217930729F080E292E00E9478
:103CD00098061EC061E070E0F8018181833711F021
:103CE00060E070E0CE010196B8DD12C0813621F4AB
:103CF00043E067E872E005C0873741F443E064E8D9
:103D000072E0C80102960E941D0702C010927F0255
:103D10006E96E4E00C94072DCF93DF93E898229AF7
:103D20002A9A8EE190E00E946C062A988EE190E03B
:103D30000E946C062A9A8DE290E00E946C0680E355
:103D40000E94550484E690E00E946C06C5E7D2E02C
:103D5000FE018491813448F083E30E94550481E0A0
:103D60000E947106DF91CF910895FE013196649112
:103D7000FE0184910E9443042296F2E0C13BDF07DA
:103D800039F7EACFAEE1B0E0E8ECFEE10C94EB2CC1
:103D900080918A02882309F474C04A9B5FC08FE334
:103DA0000E943C048F778E3108F08DE189832A9838
:103DB0008FEF0E94C60310E08981181760F480E03D
:103DC0000E94C603E2E0F0E0EC0FFD1FE10FF11DE1
:103DD00080831F5FF1CF80E00E94C603082F2A9ADC
:103DE0008AE30E94550486E30E9455048DE30E94F5
:103DF000550484E30E9455048091780384FF12C027
:103E000087E70E947A0610E089818117D0F1E1E00E
:103E1000F0E0EC0FFD1FE10FF11D80810E947A069A
:103E20001F5FF2CF87E50E947A0610E08981811733
:103E300058F0E1E0F0E0EC0FFD1FE10FF11D808193
:103E40000E9419071F5FF2CF8091780385FF03C09E
:103E5000802F0E9419070E94A50613C085E30E94C7
:103E60003C04813011F0813161F48AE30E945504F1
:103E700086E30E9455048DE30E94550484E30E946A
:103E800055046E96E4E00C94072DFC018181823785
:103E900029F442DF81E080938A020895833711F08C
:103EA00010928A020895A2E0B0E0E9E5FFE10C94E7
:103EB000E02C7C01FC018181833709F09BC11982D0
:103EC00087E090E00E94142D8C0141E0BE016F5FFD
:103ED0007F4FC70102960E941D078981F8018083E8
:103EE00041E0BE016F5F7F4FC70104960E941D072E
:103EF0002981207FF801218341E0BE016F5F7F4F60
:103F0000C70106962A830E941D078981F8018283D2
:103F100041E0BE016F5F7F4FC70108960E941D07F9
:103F20008981F801838341E0BE016F5F7F4FC70144
:103F30000A960E941D078981F801868341E0BE012F
:103F40006F5F7F4FC7010C960E941D078981F801A2
:103F5000858341E0BE016F5F7F4FC7010E960E94CF
:103F60001D078981F801848380E090E02A814191D6
:103F7000342F32953F70342783279F5F9730B9F7EE
:103F80008F70822BF801818387E090E00E94142DCE
:103F90005C0187E0F801D50101900D928A95E1F767
:103FA000D8011196C8010696F8013D912191232769
:103FB0002083E817F907C9F7299A80918D028111AA
:103FC00060C080917D02882329F081E080938C027B
:103FD00010927D0280917F02882329F081E08093F6
:103FE0008B0210927F02E898229A2A9A8EE190E042
:103FF0000E946C062A988EE190E00E946C062A9A34
:104000008DE290E00E946C0680E30E94550484E6F5
:1040100090E00E946C062A9880E40E94C60361EB3F
:10402000E62E62E0F62EF70184910E94C603FFEFB0
:10403000EF1AFF0A2AEDE21622E0F206A1F72A9A09
:104040002A988EE70E94C6038BE290E07C01EFEF96
:10405000EE1AFE0A0E946A070E94C603F3E3EF16F7
:10406000F10411F0C701F2CF2A9A83E30E945504AC
:1040700081E00E94710681E080932E0383E00E941C
:10408000710686E30E9455048AE30E9455048BE37F
:104090000E9455040E94B7045B9A87EC94E20E9448
:1040A0006C065B9889E50E94710685E392E00E94A8
:1040B0006C06712C8091050190E0272D332727FD98
:1040C0003095281739070CF057C0711002C022E054
:1040D00001C027E0F12C5B9A86EF99E02A830E94C9
:1040E0006C065B9886EF99E00E946C06F3942A8137
:1040F000F2168CF35B9A8CEF92E10E946C065B984F
:1041000080910101909102010E946C066801612C6E
:10411000F60181906F0148E0542E50E8E52EF12C15
:10412000912CC70188219921892B49F45B9A8091B0
:104130000101909102010E946C065B9808C05B9897
:1041400080910101909102010E946C065B9A80911E
:104150000101909102010E946C06F694E7945A9432
:1041600001F76394F7E06F12D3CF5B9880E090E0A3
:104170000E946C0673949ECF80918D02882341F03B
:104180008091780381110EC086E30E94550417C008
:1041900080918C02882349F010928C022CD981E006
:1041A00080937D020E94C9040AC080918B028823FB
:1041B00021F010928B020DDB02C00E94D6112998CB
:1041C00089E50E947A0683E70E947A067501D12C60
:1041D000F70181917F010E941907D394F7E0DF1264
:1041E000F7CF0E94A506C5010E94AC2DC8010E9410
:1041F000AC2D6DC08237A9F465E071E0C70102966D
:104200000E944A0789E50E947A0682E70E947A06A0
:104210008AE30E947A068091050140E260E090E026
:104220002CC0843779F5F7018281803339F488ED29
:1042300094E0909304018093030106C063E071E071
:10424000C70102960E944A078091030190910401E0
:1042500096958795909302018093010189E50E94CC
:104260007A0684E70E947A068AE30E947A0640E290
:1042700066E080910301909104010E94A9060E94CA
:10428000A50625C0883719F580918C02882339F05E
:1042900010928C02B0D881E080937D0210C0809192
:1042A0008B02882321F010928B0293DA0EC082E0F9
:1042B00090E00E94590480917803882319F00E94AD
:1042C000C90403C086E30E94550410928D02229611
:1042D000EFE00C94FC2CFF920F931F93CF93DF938E
:1042E0008C01EC0109900020E9F72197C81BD90B3C
:1042F000FC018181823751F487E390E00E945904E8
:104300000E94C90481E08093790326C0833711F5A8
:10431000FC2E2A988FE70E94C6038C2F82500E94A1
:10432000C603E801229612E01F1528F489910E9425
:10433000C6031F5FF9CF2A9A0E94B7048AE30E943E
:104340003C048F7721F081E00E947106F7CF0E9434
:10435000C90402C010927903CDB7DEB7E5E00C9432
:10436000062DA0E8B0E0E7EBF1E20C94E72C809199
:104370007903882309F454C0813011F5809130030A
:1043800090913103A0913203B091330320918E02BA
:10439000281709F445C085E30E943C04813129F4C3
:1043A0008AE30E9455040E94C904809130039091D1
:1043B0003103A0913203B091330380938E0230C059
:1043C0008FE30E943C04D82E87FD27C02A988FEFE8
:1043D0000E94C6038E010F5F1F4F7801C02E8E2DE5
:1043E000801B8D1538F480E00E94C603F70181938D
:1043F0007F01F5CF2A9A81E080934D01802F8C199F
:104400008D1530F4F80181918F010E947A06F6CF64
:104410000E94A5068FEF80934D0181E08093790380
:10442000C058DF4FE8E00C94032D0E94C904E898BF
:104430000895CF93DF93229A2A9A8EE190E00E940A
:104440006C062A988EE190E00E946C062A9A8DE212
:1044500090E00E946C0680E30E94550484E690E0A0
:104460000E946C06809123048933C1F4CEE3D3E02B
:10447000FE0131966491FE0184910E9443042296CC
:10448000F3E0C037DF07A1F783E30E94550484E01F
:104490000E947106CADFDF91CF910895843379F4C9
:1044A000CCE0D3E0FE0131966491FE0184910E943C
:1044B00043042296F3E0CE33DF07A1F7E5CF813343
:1044C00019F7CAEDD2E0FE0131966491FE018491A4
:1044D0000E9443042296F3E0CC30DF07A1F7D4CF4B
:1044E000FC01908180912804981318C091818091DB
:1044F0002904981313C0928180912A0498130EC046
:10450000938180912B04981309C0808590912C048D
:10451000891302C081E008958F3FE1F380E00895A0
:104520002FEF662339F06150FC01E60FF11D308159
:104530002327F7CF822F0895DC01FC018FE09DE156
:1045400070E09F012A1B3B0B2617370704F52191CA
:10455000492F552742279A01329522952F702327FC
:104560003F70232724273527982F882782279327D2
:10457000A901542F44275295507F8427952745E061
:10458000220F331F4A95E1F782279327DACF089548
:10459000A0E0B0E0EEECF2E20C94E82CEC01E62EA8
:1045A000299A80912304893339F464E182E10E94DD
:1045B00043046E2D660F6D5E86E00E9443040E94E8
:1045C000B7042A988FE70E94C60380912304893399
:1045D00021F0FC2E0C2F1D2F50C01FE086E60E94FC
:1045E000C6031150D9F78AEA0E94C60385E50E94E6
:1045F000C603DC2E0C2F1D2F802F8D198E15B0F5C4
:10460000F801F1908F01F7FE02C080E801C080E45C
:10461000F6FE02C090E201C090E1980FF5FE02C0E4
:1046200088E001C084E0890FF4FE02C092E001C07E
:1046300091E0890F0E94C603F3FE02C080E801C02A
:1046400080E4F2FE02C090E201C090E1980FF1FE1A
:1046500002C088E001C084E0890FF0FE02C092E051
:1046600001C091E0890F0E94C603C6CF80E00E947E
:10467000C60380E00E94C6030BC0802F8F198E15E1
:1046800038F4F80181918F0180950E94C603F5CF1F
:104690002A9A85E30E943C048331D9F36FEF86E0C8
:1046A0000E94430480912304893321F46EE182E166
:1046B0000E944304BADE29988D8186FF2CC0809128
:1046C000300390913103A0913203B09133030696E9
:1046D000A11DB11D8093240490932504A09326046A
:1046E000B093270480918F028F5F80938F02823076
:1046F00060F08AE70E947A0682E70E947A0680913B
:104700008F020E9419070E94A50680918F028330B4
:1047100010F010928F02CDB7DEB7E7E00C94042DB5
:10472000A9EAB0E0E6E9F3E20C94E32C8091900270
:10473000882309F424C180918F028823D9F0409105
:1047400030035091310360913203709133038091B3
:10475000240490912504A0912604B0912704841785
:104760009507A607B70730F4609122048AE793E023
:104770000FDF05C14A9B03C1299A2A988FEF0E9437
:10478000C6038E010F5F1F4F6E0189E0C80ED11C5A
:10479000780180E00E94C603F70180839091230492
:1047A000993311F080958083FFEFEF1AFF0AEC1424
:1047B000FD0479F72A9AB88487EF8B0D803A10F0C0
:1047C00038DEDDC06B2D86E00E9443048091230417
:1047D000813331F0843341F4ACEDEA2EF12C08C082
:1047E000FAE5EF2EF12C04C0E8E9EE2EE3E0FE2E10
:1047F00060EA962E78E0A72ECB2CD12CC7010E9420
:104800006C068BE30E943C04882E882331F1282F0C
:1048100030E02A0D311DC216D30694F22A988FEF8C
:104820000E94C6038A0CA81471F080E00E94C6039F
:1048300090912304993309F08095F801EA0DF11D58
:104840008083A394F0CF2A9AAB1438F0809123048C
:10485000EB2CF12C8133D9F403C09A9479F6F6CF7E
:10486000FE013197EE0DFF1DC080D12CDC2CCC2435
:10487000FE01EE0DFF1D8081C80ED11C6EEF6B0D89
:10488000C8015ADE21E08C159D0559F40BC06FEF6D
:104890006B0DC80145DEFE01EE0DFF1D21E090818C
:1048A000891320E080919002823771F4C801C755C6
:1048B000DF4F2883C95AD04013DEC755DF4F288108
:1048C000C95AD040882399F0222391F08AE70E94A8
:1048D0007A067801F70181917F010E9419078E2DD8
:1048E000801B8B15B8F30E94A50621E001C020E0D3
:1048F00080919002823781F4222371F08E81982F6B
:104900009370933029F490918F02911110928F023D
:1049100086FF02C087FF07C06FEF86E00E94430456
:1049200084DD29982CC08AE00E9471068D818987D8
:1049300080912C048D8383E08E83809123048133C6
:1049400049F48BE0888769E0C801F6DD9A878B8798
:104950006BE007C08AE0888769E0C801E1DD8A87EB
:104960006AE0C80115DE8AE70E947A0681E60E94A5
:104970007A0689850E9419070E94A506D2CFC755DD
:10498000DF4FECE00C94FF2CFC012181223711F069
:104990002D3651F4FC018281811101C084E38093A2
:1049A00023042093900245CD233771F410928F0297
:1049B00048EA6AE773E002960E941D07809322048A
:1049C000682F8AE793E0E4CD293671F5FC01228156
:1049D000222331F045E068E274E002960C941D0752
:1049E000809190020E947A06809123040E947A06A8
:1049F00080E20E947A06809128040E941907809123
:104A000029040E94190780912A040E9419078091A5
:104A10002B040E94190780E20E947A0680912C04E0
:104A20000E9419070C94A506109290020895CF9346
:104A3000DF93E898229A2A9A8EE190E00E946C0611
:104A40002A988EE190E00E946C062A9A8DE290E00E
:104A50000E946C0680E30E94550484E690E00E9468
:104A60006C062A9880E40E94C603C0E7D3E0FE01EA
:104A700084910E94C6032196F3E0CD37DF07B9F792
:104A8000809106010E94C603809107010E94C6031F
:104A9000809108010E94C603C0E0D0E0FE01E0580A
:104AA000FC4F84910E94C6032196C931D105B1F70C
:104AB0002A9A2A988EE70E94C6038BE290E0EC01C6
:104AC00021960E946A070E94C603C333D10511F0E4
:104AD000CE01F5CF2A9A83E30E94550481E00E941B
:104AE000710681E080932E03DF91CF9108956F923C
:104AF0007F928F929F92AF92CF92EF92FF920F93FD
:104B00001F93CF93DF93EC018981843769F46DE0C3
:104B100071E0CE0102960E944A0740E260E0809177
:104B20000D0190910E0112C0833709F092C18A8164
:104B3000823789F469E071E0CE0103960E944A074A
:104B400040E260E08091090190910A010E94A9066B
:104B50000E94A506F3C1299A80919302811116C083
:104B600080917D02882329F081E080939202109247
:104B70007D0280917F02882329F081E08093910259
:104B800010927F0254DF83E00E94710686E30E9448
:104B900055048AE30E9455048BE30E9455040E9449
:104BA000B704FE0101900020E9F70E2F0C1B025004
:104BB000C12CFAE09F2E7E0132E0E30EF11CA5E04D
:104BC000AA2EB8E28B2E8091090190910A012C2D1A
:104BD000332727FD30952817390708F0FBC001322D
:104BE000A1F45B9A80910D0190910E010E946C06D8
:104BF0005B9880910B0190910C01FC019E9EC0017D
:104C00009F9E900D11240E946C06370111E0101731
:104C10000CF0B7C0F30181913F015B9A803309F03A
:104C200046C0013201F580910B0190910C010E9468
:104C30006C065B9880910B0190910C010E946C06B0
:104C40005B9A80910B0190910C010E946C065B981D
:104C500080910B0190910C019C01A29EC001A39E2A
:104C6000900D11248AC080910D0190910E010E9437
:104C70006C065B9880910D0190910E019C01220FB2
:104C8000331F820F931F0E946C065B9A80910D0167
:104C900090910E010E946C065B9880910D0190919D
:104CA0000E019C01220F331F820F931F66C08133B8
:104CB00029F5013291F480910B0190910C010E9431
:104CC0006C065B9880910B0190910C01FC01AE9EEB
:104CD000C001AF9E900D11241EC080910D019091D6
:104CE0000E019C01220F331F820F931F0E946C063E
:104CF0005B9880910D0190910E012CC00132D1F48E
:104D000080910B0190910C010E946C065B98809140
:104D10000B0190910C010E946C065B9A80910B0133
:104D200090910C010E946C065B9880910B01909110
:104D30000C0123C080910D0190910E010E946C0620
:104D40005B9880910D0190910E019C01220F331F01
:104D5000820F931F0E946C065B9A80910D019091C7
:104D60000E019C01220F331F820F931F0E946C06BD
:104D70005B9880910D0190910E010E946C061F5F5F
:104D800046CF5B9A0132A1F480910B0190910C0106
:104D90000E946C065B9880910B0190910C019C0124
:104DA000829EC001839E900D11240E946C0610C04B
:104DB00080910D0190910E010E946C065B981FE19D
:104DC00080910D0190910E010E946C061150C1F767
:104DD000C394F9CE80919302882341F080917803A7
:104DE00081110FC086E30E94550419C08091920280
:104DF000882351F0109292020E94FB1981E0809367
:104E00007D020E94C9040BC080919102882329F081
:104E1000109291020E94E91B02C00E94D6112998AB
:104E200089E60E947A0683E70E947A0611E010174D
:104E30000CF08ECEFE01E10FF11D17FDFA95818178
:104E4000803319F0813309F086E40E947A061F5FEF
:104E5000EECF8237B9F480917D02882329F081E07A
:104E60008093920210927D0280917F02882329F024
:104E700081E08093910210927F02D9DD81E08093DE
:104E800093025CC0863651F58A81803351F480E10B
:104E90008093060180EB8093070181E780930801EE
:104EA00007C043E066E071E0CE0102960E941D0754
:104EB00089E60E947A0686E60E947A068AE30E94C4
:104EC0007A06809106010E941907809107010E94CD
:104ED0001907809108010E9419073ACE883731F5E9
:104EE00080919202882341F0109292020E94FB1955
:104EF00081E080937D0211C080919102882329F086
:104F0000109291020E94E91B0EC082E090E00E9484
:104F1000590480917803882319F00E94C90403C0C2
:104F200086E30E9455041092930208C0833631F440
:104F30006DE071E0CE0101960E944A07DF91CF91AA
:104F40001F910F91FF90EF90CF90AF909F908F9017
:104F50007F906F900895CF93DF93E898229A2A9AD2
:104F60008EE190E00E946C062A988EE190E00E940B
:104F70006C062A9A8DE290E00E946C0680E30E9403
:104F8000550484E690E00E946C062A9880E40E9412
:104F9000C603C2E6D6E0FE0184910E94C6032196B4
:104FA000F6E0CB38DF07B9F72A9A2A988EE70E94F5
:104FB000C6038BE290E0EC0121960E946A070E94F2
:104FC000C603C333D10511F0CE01F5CF2A9A83E38E
:104FD0000E94550481E00E94710681E080932E03B7
:104FE0008093A702DF91CF910895A0E0B0E0EAEFAF
:104FF000F7E2ECC48C0180912D04F8018383648373
:105000009DE0E92EF12C0E94B70485E30E943C0448
:10501000833169F085E596E00E94980685E30E9459
:105020003C040E9419070E94A50695DF49C04091E3
:1050300030035091310360913203709133034093F8
:105040002E0450932F0460933004709331042A98F7
:105050008FE70E94C6036801C0E0D0E08AEAB82E5C
:10506000F60180810E94C603C930D10544F4F601DF
:105070008081B826C730D10511F4F801B086219699
:10508000FFEFCF1ADF0ACF30D10551F72A9AC8ECCB
:1050900085E30E943C04833169F081E0E81AF1085D
:1050A000E114F10409F0AFCF80912D048F5F80935C
:1050B0002D0406C081E00E947106C15049F7EDCF72
:1050C000CDB7DEB7E9E09EC4ABE3B0E0E9E6F8E2D5
:1050D0007AC47C01FC0101900020E9F7AF01415046
:1050E0005109481B590B6C01F2E0CF0ED11CBE01D7
:1050F000625D7F4FC6010E941D07082F67E471E0C3
:1051000080E191E0FED6F70111818DE8810F8230B8
:1051100008F0D6C181E08093A50287858A3411F416
:1051200089E501C08EE480930F01A895809030033B
:1051300090903103A0903203B0903303409130033C
:1051400050913103609132037091330340932E04E8
:1051500050932F04609330047093310480910F01B9
:10516000893509F050C089E496E00E94980682E3F0
:1051700096E00E949806C7010E948D068DE196E098
:105180000E949806F70101900020E9F7319740E26C
:1051900060E0CF018E199F090E94A90685ED95E078
:1051A0000E949806F70101900020E9F7319780816D
:1051B00040E260E090E00E94A9068DE895E00E9440
:1051C000980640E260E0802F90E00E94A9068AE8FD
:1051D00095E00E94980683E795E00E94980640E3D8
:1051E00064E080913004909131040E94DF0640E336
:1051F00064E080912E0490912F040E94DF0680E7E6
:1052000095E00E949806F70101900020E9F7719758
:10521000EE15FF0509F03BC142E0BE01625D7F4F24
:10522000C6010E941D07029709F031C194DE0EA548
:10523000B701665F7F4F45E050E0CE01019668D62A
:105240001E824AE050E060E070E0CE01019613D586
:105250006B017C0123E0F694E794D794C7942A95D8
:10526000D1F780910F018935F1F489E595E00E942D
:105270009806CE0101960E948D0682E595E00E9477
:1052800098068BE395E00E94980640E364E0C7012E
:105290000E94DF0640E364E0C6010E94DF0683E36C
:1052A00095E00E9498068FE0E5E3F1E0DE015F966D
:1052B00001900D928A95E1F78FA588A388A989A30B
:1052C00089A98EA3602FCE014F968FDE133709F484
:1052D000EEC007FFECC040912E0450912F04609166
:1052E0003004709131048091300390913103A0918A
:1052F0003203B091330388199909AA09BB098E3783
:105300009105A105B10548F48090300390903103D8
:10531000A0903203B0903303A89580913003909110
:105320003103A0913203B0913303841B950BA60B7C
:10533000B70BC816D906EA06FB06A8F6809030031C
:1053400090903103A0903203B090330380910F010D
:10535000893509F073C08CE195E00E94980640E31E
:1053600064E0C5010E94DF0640E364E0C4010E94DE
:10537000DF0684E195E00E9498068DEF94E00E949C
:10538000980640E364E080913004909131040E94DB
:10539000DF0640E364E080912E0490912F040E9488
:1053A000DF0685EF94E00E9498068EED94E00E945F
:1053B000980640E364E0C7010E94DF0640E364E032
:1053C000C6010E94DF0686ED94E00E9498068FEBEE
:1053D00094E00E9498068091300390913103A0914F
:1053E0003203B091330340912E0450912F04609109
:1053F000300470913104841B950BA60BB70B40E36E
:1054000064E0CD010E94DF0680913003909131036A
:10541000A0913203B091330320912E0430912F04D8
:10542000821B930B40E364E00E94DF0687EB94E06D
:105430000E9498068EEA94E00E94980667EFCE01DB
:105440004F96D3DD40912E0450912F04609130048B
:10545000709131048091300390913103A091320317
:10546000B0913303841B950BA60BB70B4597A10591
:10547000B10580F380910F01893521F485EA94E02C
:105480000E94980667EFCE014F96AFDD10C080E80E
:1054900094E00E94980640E260E08EE090E00E9476
:1054A000A9068CE594E00E9498061092A7028091CC
:1054B000A602813011F40E94C9041092A5024AC0CC
:1054C000123709F041C0F7018281853451F41092FE
:1054D000A60286E30E9455041092A4028BE494E095
:1054E00030C0833561F5F7018381813311F481E0A8
:1054F00003C0823321F482E08093A40202C01092A0
:10550000A40281E08093A60226DD88E394E00E9455
:1055100098060E94C90485E30E943C048D30D1F0B6
:105520008FE194E00E94980685E30E943C040E946B
:1055300019070E94A5060FDD1092A6020BC08DEF81
:1055400093E00E94980606C086EE93E00E949806BB
:105550001092A702EB96ECE052C2A0E1B0E0E2EBC1
:10556000FAE235C28E010F5F1F4F80E1F801119200
:105570008A95E9F78091A602813009F099C080915F
:10558000A502813009F494C04A9B92C0A8958BE390
:105590000E943C048F77F82E89838091A402823088
:1055A00059F486ED93E00E9498068F2D0E9419070A
:1055B00084EC93E00E949806FEE0FF1510F48FE063
:1055C00089832A988FEF0E94C603F12CC12C3AEAF6
:1055D000D32E8981F816F0F480E00E94C603E2E041
:1055E000F0E0EC0FFD1FEF0DF11D808397E09F159C
:1055F00010F0D82607C0E8E0FE1204C0D81611F05B
:10560000CC24C3949091A402923011F40E94190703
:10561000F394DFCF2A9A8091A402823021F481ECA6
:1056200093E00E9498064AE050E064E972E0C80105
:105630005BD42091A402892B61F08A81873049F4E0
:105640008981893030F0F1E0CF1619F0223019F459
:105650002FC0213069F58EEB93E00E94980680E11F
:10566000F801A4E9B2E001900D928A95E1F78E016C
:105670000E5F1F4F7E018BE0E80EF11CF801819157
:105680008F010E9419070E151F05C1F78091A40212
:10569000813051F4F1E0CF1207C08CE993E00E9411
:1056A00098068D2D0E94190789E993E00E949806BB
:1056B0006096E8E0A8C120913805309139052115A0
:1056C000310521F4209130013091310180912E017A
:1056D00090912F01009741F48DB79EB74091320110
:1056E00050913301841B950B2817390718F4821B3E
:1056F000930B089580E090E0089582E40E947A067A
:1057000040E265E080913805909139050E94A90634
:105710000E94A50683E50E947A0640E265E080913A
:105720003001909131010E94A9060E94A50685E4EE
:105730000E947A0640E265E080912E0190912F014F
:105740000E94A9060E94A50686E40E947A06B3DF9D
:1057500040E265E00E94A9060C94A5061F920F92F4
:105760000FB60F9211242F933F934F935F936F9334
:105770007F938F939F93AF93BF93EF93FF9380910A
:105780003404882339F082E394E00E9493088093E4
:10579000C60005C08091C1008F7D8093C100FF913C
:1057A000EF91BF91AF919F918F917F916F915F9199
:1057B0004F913F912F910F900FBE0F901F90189512
:1057C0001F920F920FB60F9211242F933F934F9376
:1057D0005F936F937F938F939F93AF93BF93EF9359
:1057E000FF9385B192E0892785B96091C6008091C9
:1057F000C000887121F485EB94E00E947D08FF9140
:10580000EF91BF91AF919F918F917F916F915F9138
:105810004F913F912F910F900FBE0F901F901895B1
:1058200097FF04C022E02093C0009F779093C500AB
:105830008093C40088E98093C10086E08093C20011
:1058400008958091C10085FD09C0809134048823AA
:1058500029F08091C10080628093C1000895E09199
:105860002C03F0912D0381E00995EBCF0F931F934B
:10587000CF93DF93EC0110E0212F30E0F901EE0F20
:10588000FF1FE20FF31FE859FF4F0491F901EE0FDC
:10589000FF1FE20FF31FE759FF4F259134910023BB
:1058A00099F0209739F480E20E947A06802F0E94B6
:1058B0007A0608C08881801305C0CE01F9010995D8
:1058C00081E003C01F5FD8CF80E0DF91CF911F91AF
:1058D0000F910895CF93C0914D0180934D01809118
:1058E000B7048823A1F185EB94E00E949308E0912E
:1058F000A8028A3011F08D30F9F4EE2381F3F0E044
:10590000E755FD4F108289EA92E0B0DF811111C0A6
:1059100083EA96E00E94980689EA92E00E948D064A
:105920008BE896E00E94980680E090E09FDF0E945E
:10593000A5061092A802D3CFE7FDD1CF91E09E0F2C
:105940009093A802F0E0E755FD4F8083C8CFC09345
:105950004D01CF9108952D9A84B18C6284B9249819
:1059600080E58CBD8DB581608DBD0895AA1BBB1BE4
:1059700051E107C0AA1FBB1FA617B70710F0A61B4F
:10598000B70B881F991F5A95A9F780959095BC0170
:10599000CD01089597FB072E16F4009406D077FDED
:1059A00008D0E4DF07FC05D03EF4909581959F4F29
:1059B0000895709561957F4F08952F923F924F9271
:1059C0005F926F927F928F929F92AF92BF92CF928F
:1059D000DF92EF92FF920F931F93CF93DF93CDB798
:1059E000DEB7CA1BDB0B0FB6F894DEBF0FBECDBF10
:1059F00009942A88398848885F846E847D848C84E1
:105A00009B84AA84B984C884DF80EE80FD800C81E9
:105A10001B81AA81B981CE0FD11D0FB6F894DEBFCC
:105A20000FBECDBFED010895CF93DF938230910576
:105A300010F482E090E0E0913A05F0913B0520E01F
:105A400030E0A0E0B0E0309739F140815181481753
:105A50005907B8F04817590771F48281938110975C
:105A600029F013969C938E9312972CC090933B052C
:105A700080933A0527C02115310531F042175307AD
:105A800018F0A901DB0101C0EF019A01BD01DF019E
:105A90000280F381E02DD7CF21153105F9F0281BC5
:105AA000390B2430310580F48A819B8161157105A1
:105AB00021F0FB019383828304C090933B05809384
:105AC0003A05FE01329644C0FE01E20FF31F8193B6
:105AD000919322503109398328833AC020913805A7
