:1000000076C3000090C300008EC300000C941A1346
:100010008AC3000088C3000086C3000084C30000B8
:1000200082C3000080C300000C94BD2C7CC3000080
:100030007AC3000078C3000076C3000074C30000D8
:1000400072C300000C94B7126EC300006CC30000B2
:100050006AC3000073C6000066C3000064C30000EA
:1000600062C3000060C300005EC300005CC3000008
:100070005AC3000058C3000056C3000054C3000018
:1000800052C3000050C300004EC300004CC3000028
:100090004AC3000048C3000046C3000044C3000038
:1000A00042C3000040C300003EC30000CB29FD292D
:1000B000E12AFD29E12A452A6D2AE12A892AB12A65
:1000C00042C009627F2F43AE0446CF0B695A1C41E0
:1000D00078185AEC1A45EC1B6B5B2147D20B4D0A82
:1000E0000C4B780C55FD0C59811E522E09546C2472
:1000F00056270A576E0958720E65E709662B286D58
:100100007D296CAF0974FE0675A1157841050000C4
:10011000002A03430055004C003400330033000034
:10012000002A03430055004C003800360038000018
:1001300000160362007500730077006100720065AD
:10014000002E006400650000000403090409024356
:1001500000020100803209040000010202010005D2
:1001600024000110052401030104240206052406CD
:100170000001070582030800FF09040100020A00CC
:10018000000007050402400000070583024000004C
:100190001201100102000008EB034B2000000102D5
:1001A0000001202F2000203D2000072E050DD391B7
:1001B000FF080500000C0021656A2D3B1322F86240
:1001C000073F181D1CC700B0876BF8B611EA2A005C
:1001D0001F41000D2E2D07D3913D04320000060073
:1001E00021656A55E43023B900070018146C070034
:1001F00090876BF85611E92A001F410000030F1E7B
:100200002627000000030F1E2536386700030F2540
:100210006740605000030F275188838100030F2738
:1002200050C8C3C2002700000000000000670000A3
:1002300000000000005000000000000000810000ED
:100240000000000000C2000000000000504C4C31D3
:100250000D0A00504C4C300D0A005620312E36331A
:100260002043554C383638005620312E3633204343
:10027000554C3433330043554C5F563300202F2008
:1002800000203D20004C4F56460D0A00424F564676
:100290000D0A000B08105B11F81547191D1A1C1BDD
:1002A000C71C001DB221B623EA0007022E030D046D
:1002B000E905CA070C0B060D210E650F6A10C8115F
:1002C00093120315341733181819161B432156259A
:1002D00000261129592C812D353EC34C454E4552DF
:1002E000520D0A004C4F56460D0A004C454E4552E1
:1002F000520D0A000007024604C605260B0610C868
:100300001193120313221534173F182819161B4393
:100310002156250026110D210E650F6A070C1607C0
:1003200020F81E871F6B29592C812D353EC3FF00F5
:1003300000070246030D049A057D0642070C0B06D2
:100340000D210E650F6A10C81193120315341700A2
:10035000181819161B431C6825002611FF00000001
:100360000000000000000000000000000D2E2D071E
:10037000D3913D04320000060010B07155E43023E3
:10038000B900070018146C070090876BF85611E944
:100390002A001F41000D2E2D07D3913D043200008D
:1003A000060010ABA5550A3023B900070018146CDD
:1003B000070090876BF85611E92A001F41004B6F28
:1003C000707020537562436F6D6D616E6420556E61
:1003D0006B6E6F776E0D0A00204279746573206F23
:1003E00072204B6579636F6465206973206E6F209E
:1003F0006865782076616C75650D0A004B6F7070CA
:10040000205472616E736D69747420436F6D6D61F9
:100410006E64206E6F7420657175616C20746F203E
:1004200000426C6F636B330D0A00426C6F636B327A
:100430000D0A005B6865785D0D0A007469636B7373
:100440002D426C6F636B537461727454696D653ABD
:1004500020005B6865785D0D0A004B65794F666624
:1004600054696D653A202020202020202020202063
:10047000005B6865785D0D0A00426C6F636B20530A
:10048000746172742054696D653A20202020200028
:100490005B6865785D0D0A005469636B2054696D73
:1004A00065723A2020202020202020202020005B80
:1004B0006865785D0D0A004B65794F666654696D15
:1004C0006520696E207469636B733A2020006D7338
:1004D00065630D0A004B65794F666654696D653A30
:1004E0002020202020202020202020000D0A005441
:1004F00069636B2054696D65723A202020202020AA
:100500002020202020000D0A000D0A416D6F756E1D
:1005100074206F66204279746573202848657829B5
:1005200020666F756E6420696E7369646520636F01
:100530006D6D616E64206C696E6520706172616DB5
:10054000657465723A202020202020202020202061
:10055000000D0A4E657874204368617261637465AA
:10056000722028696E74292061667465722070613A
:1005700072616D65746572202873686F756C642094
:100580006265206C696E6520656E642063686172C7
:100590006163746572293A20000D0A537472696EA2
:1005A000676C656E6774683A202020202000636FB6
:1005B0006D6D616E646C696E65706172616D65749C
:1005C00065723A20005472616E736D6974740D0A1D
:1005D0000054585F494E49545F4552525F00072E00
:1005E0004607AA540FE0000000060021656A9783C1
:1005F0001663B947070029366C074091876BF85698
:1006000011E92A001F41004E2F4100454F420D0ABB
:10061000004E2F41004E2F410000535300547D7D6A
:10062000FFFF4B4B7E7E0020697320756E6B6E6FF3
:10063000776E2920557365206F6E65206F66003FC9
:100640002028004F464600544D4F444500534D4F1F
:100650004445000454053D1700000602000B080C39
:10066000000D210E6B0FD0105C1104120613221422
:10067000F80A00154421B622101818192E1ABF1BAB
:10068000431C091DB523EA242A2500261F29592CBD
:10069000812D352E0907040800090006FF3EC2FF20
:1006A000047605961700000602000B080C000D21C9
:1006B0000E650F6A106A114A1206132214F80A0016
:1006C000154721B622101818192E1A6D1B041C0983
:1006D0001DB223EA242A2500261F29592C812D35F5
:1006E0002E0907040800090006FF3EC2FF0011247E
:1006F0001FBECFEFDAE0DEBFCDBF11E0A0E0B1E07A
:10070000E8E7F9E602C005900D92A03CB107D9F7E1
:1007100029E0A0ECB1E001C01D92AE33B207E1F7D1
:100720000CD00C94BA346CCCF89481E085BF82E094
:1007300085BFE0E0F8E3099508952FE088E190E0B7
:100740000FB6F894A895809360000FBE20936000C8
:1007500090E080E80FB6F894809361009093610078
:100760000FBE2E9A2D9A04B603FE0AC083E390E0D2
:100770005CD5882329F060E083E390E051D5D4DF95
:1007800089EF87BD84E085BD82E084BD80936E00E3
:10079000109280008AE08093810084B7877F84BFB5
:1007A0006E9A0E944B2940D60E94922C0E940C24E3
:1007B0000E944C0E8AE099E29093C6038093C50391
:1007C0000E94C51489E08093C40176980E946D2D23
:1007D000F0D10E945B1028D30E9472280E94431619
:1007E0000E9441170E94741A0E94691B0E946D2E7C
:1007F000EDCF292F33272230310559F02330310531
:1008000069F02130310539F582E190E020E931E0ED
:1008100026C083E490E02DE431E021C099278130A7
:10082000910539F018F0029751F015C0E9E4F1E0B4
:1008300002C0E1E3F1E0849190E09F0110C01E99B5
:1008400003C021E131E002C021E231E0E1E2F1E068
:10085000849190E004C080E090E020E030E0FA0174
:100860003183208308958EBD0DB407FEFDCF8EB574
:100870000895A1E0B0E0EFE3F4E00C94B631482F26
:100880008A3008F048E088E0489F70011124F701A1
:10089000E450FE4F7F018BE290E0F70164918C0100
:1008A0000F5F1F4F4983BCD4FFEFEF1AFF0A498146
:1008B0000333110511F0C801F0CF4550453010F455
:1008C00061E101C067E184E290E0AAD42196E6E00C
:1008D0000C94D231CF93DF9382E090E0FC01EF5291
:1008E000FE4F6491EC0121969BD4CB32D10511F0DF
:1008F000CE01F4CF87E390E0FC01ED58FE4F649108
:10090000EC0121968DD4C036D10511F0CE01F4CF83
:100910001E9918C060E18FE090E082D460EB80E126
:1009200090E07ED461E781E190E07AD460E184E4F4
:1009300090E076D460EB85E490E072D461E786E4E1
:1009400090E06ED488E095DFDF91CF9108952898EC
:10095000806C89DF80E087DF289A0895A1E0B0E00D
:10096000E4EBF4E00C94B93141E0BE016F5F7F4FDE
:100970000196FBD3892B21F18981893969F410E033
:10098000812FE5DFEED3812F8770873009F475D38F
:100990001F5F1033A9F714C0DADF182F83E421D3C7
:1009A0008981DFD386EA91E05BD3812FDAD382EAB3
:1009B00091E056D340E262E0812F90E062D35DD3B4
:1009C0002196E3E00C94D531A1E0B0E0EAEEF4E04A
:1009D0000C94BA3128988064698345DF6981862F39
:1009E00042DF289A2196E2E00C94D63128983BDF2A
:1009F000289A0895EF92FF920F931F93CF93DF935E
:100A0000EC0110927002EA98209A289A8EE190E008
:100A10007ED228988EE190E07AD2289A8DE290E0FA
:100A200076D280E3E3DF84E690E071D2289880E418
:100A30001ADF7E0189E2E80EF11C8E010F5F1F4F65
:100A4000CE01F3D310DF0E151F0511F0E801F5CF2D
:100A5000289A28988EE707DF8BE290E0EC01219638
:100A6000E4D301DFC333D10511F0CE01F7CF289ACB
:100A700083E3BCDF81E050D2CDB7DEB7E6E00C9473
:100A8000D231A1E0B0E0E7E4F5E00C94BA3122E025
:100A9000298341E0BE016F5F7F4F019666D3898154
:100AA000E8DE82E090E0A6DF2196E2E00C94D63109
:100AB000CF93EA9886E39ADFCFEF85E397DFC150C3
:100AC0008077803229F08AE090E021D2C111F5CF01
:100AD000CF910895CF93CFEF84E388DFC150807723
:100AE000803129F08AE090E012D2C111F5CFEA9A64
:100AF000CF91089586E37ADF1092C70310926E02B9
:100B000010927002089582E090E074DF81E080939B
:100B1000C70310926E021092700208950F931F93F4
:100B2000CF93DF93082F10E0C62FD0E085E30FDFCF
:100B3000801731F0CE01EBD11150C1F781E001C037
:100B400080E0DF91CF911F910F91089585E2FFDE44
:100B50008F3311F080E0089586E348DF8091C00173
:100B6000811104C083E592E07BD202C08DE33EDFB9
:100B700083E33CDF64E081E0D1DF85E2E8DE8F33B0
:100B800049F78091C001811103C08CE492E068D2E2
:100B900081E0089585E3DBDE8D3051F485E2D7DE18
:100BA0008F3331F4D3DF84E321DF80778031D9F7CD
:100BB00008958091B805843009F069C08093E900F8
:100BC0008091C10181112AC08091E80085FF26C073
:100BD0008091F2009091F300892B31F06091F10047
:100BE00081E395E049D4F4CF8091E800982F9B7F72
:100BF0009093E8008F778093E80081E08093C101B3
:100C000089ED95E09093C4038093C303E091C503FD
:100C1000F091C60381E009951092C10183E08093B1
:100C2000E9008091B004882391F18091E80085FF6C
:100C30002EC0F8948091B004882369F08091F2006E
:100C40009091F3008034910530F48EEA94E02AD438
:100C50008093F100EFCF78948091F2009091F300AF
:100C60002091E800322F3E7F3093E8002F772093C9
:100C7000E8008034910559F40E94372B8091E800F8
:100C8000982F9E7F9093E8008F778093E8000895D7
:100C900042E061EC82E00E94E72A42E361E883E0FF
:100CA0000E94E72A42E360E884E00E94E72A10926B
:100CB00000011092010110920201109203010895A7
:100CC0008091B9059091BA05913229F0923261F183
:100CD000903299F512C0813A81F58091E800877FC2
:100CE0008093E80067E070E080E091E00E94602B74
:100CF0008091E800982F9B7F11C08132F1F48091A0
:100D0000E800877F8093E80067E070E080E091E092
:100D10000E940A2C8091E800982F9E7F9093E80013
:100D20008F778093E8000895813239F48091E8004C
:100D3000877F8093E8000C94112B08951F920F92E7
:100D40000FB60F9211248F939F93AF93BF93EF939E
:100D5000FF938091C9039091CA03A091CB03B091F6
:100D6000CC030196A11DB11D8093C9039093CA03C2
:100D7000A093CB03B093CC038091C8038F5F809383
:100D8000C803EFE6F4E080819181181619061CF47F
:100D9000019791838083369684E0E738F80799F7C6
:100DA0008091890490918A04009729F0019790938B
:100DB0008A048093890480919C048F3F19F08150AC
:100DC00080939C04FF91EF91BF91AF919F918F9180
:100DD0000F900FBE0F901F9018952FB7F894409169
:100DE000C9035091CA036091CB037091CC03FC01FD
:100DF00040835183628373832FBF0895A4E0B0E0E2
:100E0000E4E0F7E00C94BA31CE010196E6DF8C8184
:100E1000A8D18B81A6D18A81A4D18981A2D12DD1DB
:100E20002496E2E00C94D6311F93CF93DF93809108
:100E3000C9039091CA03A091CB03B091CC03209138
:100E4000C301281709F45FC08091C9039091CA03B8
:100E5000A091CB03B091CC038093C301A895CFE6BA
:100E6000D4E010E028813981232B19F4812F0E94CE
:100E70009B261F5F26961430A9F7809189049091D4
:100E80008A04892B11F40E94F72680919C04811119
:100E900002C00E94552780915B04882339F081505D
:100EA00080935B04811102C00E94D8168091C80310
:100EB0008D3748F11092C8038091070181FF04C06B
:100EC0008EB190E489278EB98091CD039091CE03A5
:100ED000843823E0920728F401969093CE03809300
:100EE000CD038091C2018F5F8093C2018C3359F48E
:100EF0001092C20180916E048F5F80936E048C33D8
:100F000010F010926E04DF91CF911F910895880F19
:100F1000991F0197F1F7089520ED37E0815020F0F7
:100F2000F9013197F1F7FACF0895CF93DF93DC0100
:100F300013968C911397843509F050C0CD01039618
:100F4000CC91FD0170964DE04C1750F050E0D0E090
:100F50009E012F5031094217530709F03FC005C0C9
:100F600021912B3399F34F5FEFCFFE013E97E80FAE
:100F7000F91F2081243591F514963C911497218115
:100F800032132CC015963C9115972281321326C03E
:100F900016963C9116972381321320C017963C91E8
:100FA0001797248132131AC06197C80FD91F858102
:100FB00088838681898381858A8382858B838385E3
:100FC0008C8384858D8385858E838C918A508C93C8
:100FD00012968C9112978A5012968C93DF91CF9132
:100FE0000895CF93C82F8091B805843079F480910B
:100FF000C40180FF0BC08091B00487FDDADD6C2F47
:101000008EEA94E039D2CA3009F4D3DD80916604C7
:101010008823C9F08091C40183FF15C0CA3099F0BC
:10102000CD3011F46BE301C06C2F86ED93E024D238
:10103000CD3019F486ED93E078DF83E080935B0494
:1010400082E080936104CF910895CF93DF93EC0108
:101050008991882311F0C5DFFBCFDF91CF910895EF
:10106000CF93DF93EC01FE018491882319F0B9DF5F
:101070002196F9CFDF91CF9108958DE0B2DF8AE01C
:10108000B0CFA6E0B0E0E7E4F8E00C94B831062F6A
:101090001E8215E02AE030E01150E1E0F0E0EC0FB4
:1010A000FD1FE10FF11DB9010E947D31805D80833C
:1010B000CB010150009769F01111EECF0AC0112346
:1010C00059F01150E1E0F0E0EC0FFD1FE10FF11DD0
:1010D0004083015007FFF3CF81E090E08C0F9D1F0C
:1010E000810F911DB2DF2696E4E00C94D431A5E087
:1010F000B0E0EDE7F8E00C94BA311D8224E0382F1F
:101100003F702150E22FF0E03A3010F4305D01C022
:10111000395CA1E0B0E0AC0FBD1FEA0FFB1F3083CC
:1011200034E0969587953A95E1F76150009739F745
:10113000615067FD0BC0222349F02150E1E0F0E04F
:10114000EC0FFD1FE20FF11D4083F2CF81E090E034
:101150008C0F9D1F820F911D78DF2596E2E00C9485
:10116000D63140E362E090E0C2CFDC01FB0130E029
:1011700090E08D918823A9F0813608F0805220ED0F
:10118000280F2A3030F02FEB280F263030F429ECCE
:10119000280F292B332379F006C0803251F38A338C
:1011A00041F3CF0105C0CF0101962083415041F4A6
:1011B000861B970B0895922F9295907F31E0D9CF9F
:1011C000FC01D5CF20E030E05AE0FC014191CF0195
:1011D000442379F0E0EDE40FEA30B8F7F9015E9FBF
:1011E00090015F9F300D112420533109240F311DD0
:1011F000ECCFFB01318320830895982F92959F7047
:101200009A3010F4905D01C0995CFB0190838F705F
:101210008A3010F4805D01C0895CFB0181830895F0
:101220000E945F34F999FECF08950C9457340895C5
:101230001F93CF93DF93162F11501F3F59F0EC01EE
:101240002196F3DF8EDF112311F08AE3CADE1150FD
:10125000CE01F3CFDF91CF911F910895A2E0B0E0CE
:10126000E4E3F9E00C94B731FC0121812D3421F441
:1012700066E08AEF93E005C0203529F460E18AED4D
:1012800093E0D6DF26C01A82198242E0BE016F5F6A
:101290007F4F01966ADF098110E0823021F4102F20
:1012A00000278A81082BC801C0DFF82E82E599DE6D
:1012B00040E364E0C8011BDF81E892E0D1DE8F2DBE
:1012C00050DF8DE792E0CCDE40E262E08F2D90E0CF
:1012D000D8DED3DE2296E5E00C94D331A6E0B0E070
:1012E000E4E7F9E00C94B4316C0143E0BE016F5FB8
:1012F0007F4F01963ADF823070F1E980F12C823025
:1013000021F0FE2CEE242A81E22A8C011127FE0115
:10131000E00FF11F6081C70183DF000F111F0F5F16
:101320001F4F0C0D1D1D8FEFE81AF80AF801808180
:10133000882389F041E0BE016F5F7F4FC80115DF50
:10134000892B49F06981C7016BDF0E5F1F4FE2E017
:10135000EE0EF11CEBCF2696E8E00C94D03141E084
:1013600067E071E0019601DF8091070180FF02C014
:10137000769A01C076986091070184E390E050CF9F
:10138000A1E0B0E0E6ECF9E00C94BA3119820097E4
:1013900031F041E0BE016F5F7F4F0196E6DE89814B
:1013A000882321F061E083E390E03ADF0E949D2CE6
:1013B00010926E00F89428E088E190E00FB6F8945F
:1013C000A895809360000FBE20936000FFCFCF935D
:1013D000DF93EC0161E080E090E022DF6FE381E0E9
:1013E00090E01EDF77DA60E080E690E019DF60E0F1
:1013F00081E690E015DF60E083E390E011DF62E0DA
:1014000084E390E00DDF60E080E690E009DF60E0DB
:1014100081E690E005DF8981883719F080E090E06F
:10142000AFDFDF91CF91089580E090E0FEDE813064
:1014300029F481E090E0F9DE8F3319F080E090E04C
:10144000C6DF84E390E0F1DE809307010895FC019C
:101450008181883419F486E792E007C01E9903C0A1
:1014600088E692E002C08AE592E0FADD06CEFC0151
:101470001282108211820895FC018FB7F894928134
:1014800097FD0EC09F5F9283208191E0920F908321
:10149000DF01A20FB11D13966C93903809F41082EE
:1014A0008FBF0895FC019FB7F8948281882371F063
:1014B00081508283818121E0280F2183DF01A80FE1
:1014C000B11D13968C91203809F411829FBF0895A5
:1014D000FA013081882369F0E1E0F0E0022E01C0DA
:1014E000EE0F0A94EAF7DB01A30FB11D9C919E2B2E
:1014F0009C93222319F08FEF820F0BC081E0830FA2
:101500008C3010F4FA018083FB01E80FF11D10828A
:1015100087E090E00895CF93C82F5B9A882319F055
:101520008091C70102C08091C90120E1829FC00162
:101530001124EDDC5B98CC2319F08091C60102C028
:101540008091C80120E1829FC0011124E0DCCF918D
:101550000895A3E0B0E0EFEAFAE00C94AA315C0150
:10156000162F622E842F90E09B838A832091CD03D7
:101570003091CE030296089F802D1124992787FD74
:1015800090952817390720F485E892E069DD7DC041
:10159000281B390B3093CE032093CD03769A80918C
:1015A0007002882341F0109270028AEB91E09AD386
:1015B000FF24F39401C0F12C8091C703811101C075
:1015C000A2DA76DA812E912CCC24C394D12C712C02
:1015D000512C852D992787FD90958815990524F420
:1015E00080E099DF5394F5CF112311F081E093DF70
:1015F00020E0422E552447FC5094EA81FB814E1690
:101600005F062CF097E0392E4A0C5B1C1AC087E06D
:10161000282E312C4A0C5B1CC601022C01C0880FFD
:101620000A94EAF7F20190818923298374DFF1E0BB
:101630002F1A310829818FEF2816380669F72F5F96
:10164000D8CF832D992787FD90956816790664F485
:10165000C601032C01C0880F0A94EAF7F2019081B9
:10166000892359DF3A94EDCF8E2D56DC015009F0D5
:10167000AFCF8091CF03882311F02CDA02C086E32C
:10168000B5D9F1100E94901876982396E2E10C9457
:10169000C631ADE0B0E0EFE4FBE00C94AD317C018D
:1016A000162F842F022F6701C60ED11C462FB701BB
:1016B0002ED3D6018C931F5F1D8619825E2C670185
:1016C00027E066246394712C8C2D8519811788F589
:1016D00047E0A42EB12C4701880E911CF3010A2C7F
:1016E00001C0EE0F0A94EAF7D4018C91AE01435F7A
:1016F0005F4FBE016F5F7F4F8E23EADE282FB1E080
:10170000AB1AB10858F7D6018D916D01082E82955C
:101710008025082E8695869580258F5F8695817019
:10172000AE01435F5F4FBE016F5F7F4FD1DE282F59
:10173000CBCF222311F0215004C08D858F5F8D8780
:1017400027E089E18093C8018093C90185E28093F5
:10175000C6018093C7013AE0E32E4D856CE0CE01CF
:101760000196F7DE2D96EFE00C94C931ADE0B0E0C4
:10177000ECEBFBE00C94B931162F242F4BE0BE01AB
:101780006F5F7F4F01962D87F0DC2D85412F682FED
:10179000CE0101967EDF2D96E3E00C94D53143E037
:1017A00066E0E4CFEF920F93CF93DF93CDB7DEB730
:1017B00060970FB6F894DEBF0FBECDBF40E1BE010B
:1017C0006F5F7F4F0196D1DC69814A810B818C81EB
:1017D0008093C9018D818093C8018E818093C70158
:1017E0008F818093C601E02EE2947FE0E7220F70A4
:1017F000242F2F7042954F70CE010896AADE609676
:101800000FB6F894DEBF0FBECDBFDF91CF910F9121
:10181000EF900895A9E1B0E0E0E1FCE00C94B23172
:101820004BE0BE016F5F7F4F01969FDC182F893020
:1018300009F05AC099E19093C8019093C90190931F
:10184000C70182E38093C60169E0CE01019669D2A7
:10185000E1E0F0E0EC0FFD1FE10FF11D8083198E38
:101860001D86CE0101967C016E019BE0C90ED11C44
:1018700027E0AA24A394B12CEC14FD0429F100E084
:1018800010E0F501002E01C0EE0F0A94EAF7D7012F
:101890008C91AE01475E5F4FBE01635F7F4F8E2329
:1018A00017DE282F0F5F1F4F0830110551F7AE01CB
:1018B000475E5F4FBE01635F7F4F81E009DE282FE7
:1018C000BFEFEB1AFB0AD8CF222311F0215004C03E
:1018D000898D8F5F898F27E0EAE0EE2E03E0498D46
:1018E0006CE0CE010D9635DE6996EAE00C94CE31BF
:1018F000A9E1B0E0EEE7FCE00C94B1314BE09E01D1
:101900002F5F3F4F7901B90101962FDC182F85E336
:101910008093C90196E19093C8019093C701809389
:10192000C601612FC70109D2F701E10FF11D8083C4
:1019300099249394910E198E1D86870127E0AA247D
:10194000A394B12C802F8E19891508F04AC0C12CA0
:10195000D12CF5010C2C01C0EE0F0A94EAF7D80146
:101960008C91AE01475E5F4FBE01635F7F4F8E2358
:10197000AFDD282FBFEFCB1ADB0A34E0C316D1044A
:1019800041F7AE01475E5F4FBE01635F7F4F81E06D
:101990009FDD282FB4E0CB2ED12CF5010C2C01C0FB
:1019A000EE0F0A94EAF7D8018C91AE01475E5F4FC3
:1019B000BE01635F7F4F8E238BDD282FBFEFCB1AD5
:1019C000DB0A38E0C316D10441F7AE01475E5F4F32
:1019D000BE01635F7F4F81E07BDD282F0F5F1F4FCC
:1019E000B1CFAAE0EA2E03E0498D6AE0CE010D9660
:1019F000B0DD6996EBE00C94CD31EF920F93CF936D
:101A0000DF9300D000D0CDB7DEB743E0BE016F5FFB
:101A10007F4F0196AADB8AE68093C90194E29093F6
:101A2000C80191E29093C7018093C60180E88C833E
:101A30009FE0E92E03E026E043E060E0CE0101965E
:101A400088DD0F900F900F900F90DF91CF910F9145
:101A5000EF9008958F929F92AF92BF92DF92EF9294
:101A6000FF920F931F93CF93DF931092E501109293
:101A7000FA01FC012181220F220F220F3381231B47
:101A800057E0520F1092E60110E070E038E0D32EDC
:101A9000D20EFF24F39447E007E0E12CC7E0D0E04A
:101AA000A1E0B0E0FD1409F47FC0FC01EE0DF11DD2
:101AB000248130E0002E02C0359527950A94E2F784
:101AC00021703327E22F002311F0015002C0E3946C
:101AD00007E06B3471F4433009F04AC0111107C0BC
:101AE000E1115FC01092E5017093FA0174C010E03B
:101AF00041C04F3F31F56634A9F4E72FF0E0EA51D9
:101B0000FE4FE0810E2EE295E0250E2EE695E6953D
:101B1000E025EF5FE1FB882480F8912C8216930684
:101B200041F004C0653429F4E11103C01093E501CC
:101B3000DBCF7F5FE72FF0E0EA51FE4F108247E0F6
:101B400031C0EE2361F1663471F4E72FF0E0EA5121
:101B5000FE4FA0809D01042E01C0220F0A94EAF7D7
:101B6000A22AA0821CC0653439F06B34C1F404C0D1
:101B70004F3FD1F2EE2399F0E72FF0E0EA51FE4F0C
:101B80009E01241B310947FD33955D0102C0AA0C5B
:101B9000BB1C2A95E2F795013081322B30834150EE
:101BA00001C011E0F3947ECF1093E5017093FA0128
:101BB0005F1588F4653431F44F3F21F47F5F7093F3
:101BC000FA0104C08091E5018111F8CF81E0909184
:101BD000FA01911101C080E0DF91CF911F910F9127
:101BE000FF90EF90DF90BF90AF909F908F900895FF
:101BF00010926F00E091FD018CE1E89FF00111244B
:101C0000E250FE4F10820895FC012181243108F03A
:101C1000EFCF3381662381F081E090E0032E01C095
:101C2000880F0A94EAF7DF01A20FB11D14969C9168
:101C30001497982B14969C93332319F031503383C7
:101C4000089587E083832F5F2183E20FF11D1482C3
:101C50000895DC011196EC911197F0E050E02C9181
:101C6000CF01841B950B0B964797A0F430E070E0F2
:101C7000C901861B970B0B96479760F42E0F3F1FE9
:101C8000640F751F261B370B255F3F4F81E02731FF
:101C9000310508F080E00895539A5B985298E9E680
:101CA000F0E080818061808382EC91E09093CE03AC
:101CB0008093CD0310921A021092360210925202B3
:101CC0001092C70308958091C20381110AC08091C8
:101CD000CF03882321F00E9483050C946A050C949D
:101CE0007A050895FC01218121110BC08091CF0359
:101CF00038DA40E265E08091CD039091CE03C1D9FE
:101D0000BCC941E06FEC73E001962FDADCCF4423CD
:101D100039F04150FB01E40FF11D9081890FF7CF9D
:101D2000089520E0662339F06150FC01E60FF11DB3
:101D300030812327F7CF822F0895A091E50140E05D
:101D400035E020E0662399F06150FC01E60FF11DBB
:101D50005081752F72957F702727370FAA2311F0B6
:101D6000442319F05F702527350F4F5FEBCF320FFB
:101D700040E1349FC0011124822B0895FC0132817F
:101D80002381A081B181A30FB11D8C9190E0022E1F
:101D900002C0959587950A94E2F7817099274FEFD5
:101DA000420F4383211104C03F5F328327E0238326
:101DB0000895A2E0B0E0EFEDFEE00C94B2317C01BA
:101DC000A12CB12CD12CCC24C394062F10E00150AF
:101DD0001109A616F0F4C7014A836983CFDF4A814F
:101DE0006981882391F0442349F098012A193B091D
:101DF0008C2D01C0880F2A95EAF706C08C2D0A2C7D
:101E000001C0880F0A94EAF7D82A8FEFA81AB80AF7
:101E1000E0CF8D2D2296EAE00C94CE31A4E0B0E024
:101E2000E4E1FFE00C94B1311B8227E02C839C019C
:101E30002C5F3F4F3A8329831092FA01FC012181E4
:101E4000338187E090E0831B9109F8E02F9F800D9C
:101E5000911D1124853491050CF44EC0B12CA09035
:101E6000FA01F5E0FA1558F10A2D10E040E068E0BB
:101E7000CE0101969EDF0A511E4FF8018083982EF5
:101E8000092C92949024092C969496949024CE0137
:101E9000019674DF939491FACC24C0F8D12C90E091
:101EA000C816D90649F5CE01019668DF811124C014
:101EB000F8018081B826A394A092FA01D0CF40E027
:101EC00068E0CE01019675DF082F182F012E1295BC
:101ED0001025012E169516951025CE0101964EDF80
:101EE0001F5F11FBEE24E0F8F12C282F30E0E21602
:101EF000F30611F481E0B01280E02496EBE00C943C
:101F0000CD31A5E0B0E0E7E8FFE00C94B531FC018D
:101F10001B8287E08C83CF0104969A838983109279
:101F2000FA018081853009F04FC02181338187E03B
:101F300090E0831B910938E0239F800D911D1124AF
:101F40008039910509F040C00FE010EF29E8809139
:101F5000FA01E82EF12CDD24D394D80E41E068E09C
:101F60008F3088F4CE0101962D8323DF080F111DD9
:101F7000F701EA51FE4F2D812827208324E2280F04
:101F8000D092FA01E4CFCE01019613DF080F111DA4
:101F9000D092FA01F701EA51FE4F8095808341E02B
:101FA00068E0CE01019605DF90E0982F8827081B96
:101FB000190B41E068E0CE010196FBDE282F30E0EE
:101FC00081E00217130709F080E02596E7E00C9402
:101FD000D131A4E0B0E0EFEEFFE00C94B7311B820A
:101FE00027E02C839C012C5F3F4F3A832983FC011F
:101FF00021812430A1F58381813089F51092FA0185
:102000008091FA01082F10E0FF24F394F80E41E0CC
:10201000843098F4811106C067E0CE010196C9DED4
:10202000806804C068E0CE010196C3DEF801EA5181
:10203000FE4F8083F092FA01E3CF67E0CE01019674
:10204000B8DEF801EA51FE4F880F8083F092FA0162
:102050009091E60192959F7081E09A3009F080E0BE
:102060002496E5E00C94D331CF93DF93FC0181817A
:102070008330E9F483818730D1F480818830B9F4EA
:102080001092FA0120E0822F90E0DC01AA51BE4FAD
:10209000EF01C80FD91F8C818C9381E0820F8330B0
:1020A00010F4282FF0CF8093FA0181E001C080E086
:1020B000DF91CF910895A0E0B0E0E1E6F0E10C946B
:1020C000B5318091CA018823B9F18091CF0387FF90
:1020D00017C084E30E94A7048058803458F0803CE5
:1020E00058F490E08055910923E0959587952A95BD
:1020F000E1F703C080E001C08FE08F590E94F10733
:102100008091CF0383FF16C082E70E94F107809180
:10211000CF0384FF04C08091CB010E94F10786E6C3
:102120000E94F1078091CF0384FF04C08091CA010F
:102130000E94F1071092CA018091FB01882309F4E3
:1021400011C2769AC091FC012CE1C29FE0011124DA
:10215000C250DE4FCE0188DF811102C0F12C02C0D7
:1021600093E7F92ECE01CDDE811133C0F11060C1AD
:1021700066E4CE016FDC882391F11091FA011150D1
:102180001093FA01412F66EE71E086E0C0DDE12F89
:10219000F0E0EA51FE4F0081801302C01430E0F4F9
:1021A000282F30E02F5F3F4F602F70E02617370752
:1021B00021F4143010F080830FC0412F66EE71E0DF
:1021C0008CE0A5DD80130BC0143048F0F4E5FF2E41
:1021D0002FC1B3E5FB2E2CC1A6E4FA2E29C165E47C
:1021E000CE0138DC882339F08091FA018150809348
:1021F000FA01893029F0CE0111DE811113C00BC024
:1022000069E086EE91E08DDD9091EF018913F3CFC7
:10221000E5E4FE2E0DC1CE01DCDE882331F064E75B
:10222000F62E06C178E4F72E03C1D090CB018E01C3
:10223000065E1F4F4B8D6D2DC8010BDD682FCE0143
:10224000E3DC6BE4CE0106DC8823A9F0E090FA0120
:10225000EA94E092FA016E2D86EE91E06EDDEE2DAD
:10226000F0E09091E501E91BF109EA51FE4F908100
:10227000891709F4DBC08B81873029F41B8289819F
:102280008150898302C08F5F8B838981843009F0FC
:102290004BC08B81843009F047C04EE16CE3CE0126
:1022A0004896D7DC882309F43FC04EE16D2DC80164
:1022B000D0DC682FCE01A8DC20E0822F90E0FC016A
:1022C000EA51FE4FDE01A80FB91F14968C9180834E
:1022D00081E0820F853010F4282FEFCF8093FA0130
:1022E00082E5F82EA5C02093E4014091C9035091E6
:1022F000CA036091CB037091CC034093CC015093FF
:10230000CD016093CE017093CF01F4E5FF12F4C0CC
:10231000A6FDF2C08091FA01853008F4EDC08091ED
:10232000E8018B3409F0D6C08091CF0382FF65C0ED
:1023300080E70E94F107888140E262E090E00E941D
:102340004108888D40E265E020E1829FC0011124B0
:102350000E944108898D40E265E0E0E18E9FC00166
:1023600011240E9441088A8D40E265E0F0E18F9FD0
:10237000C00111240E9441088B8D40E265E020E1FC
:10238000829FC00111240E9441088A8140E263E0DB
:1023900090E00E944108898140E263E090E00E9461
:1023A00041082B8140E262E087E090E0821B9109C6
:1023B0000E94410880E20E94F1078091CF0385FFCF
:1023C00008C084E30E94A7040E94B10880E20E9432
:1023D000F1078B81873019F089818F5F898310E045
:1023E0008981181740F4FE01E10FF11D84810E94DC
:1023F000B1081F5FF5CF0E943D0818828091FB0154
:1024000081508093FB018091FC018F5F843019F033
:102410008093FC0102C01092FC01769884E5F812CA
:10242000A1C086EE91E00E9464279CC05BE4F52E7B
:10243000A091CF03A0FF78CFA1FD4AC03091E40165
:10244000B091FA013B1332C020E0231770F4822FC1
:1024500090E041E0420FFC01E053FE4F8A519E4F55
:102460005081FC018081581729F02093E401231347
:102470001DC002C0242FE9CF4091C9035091CA0367
:102480006091CB037091CC030091CC011091CD01F0
:102490002091CE013091CF01401B510B620B730B89
:1024A00031E0463251056105710508F030E020E069
:1024B0002B1708F018CF822F90E0AC0140535E4FED
:1024C0008A519E4FFC018081FA0180832F5FF0CFFB
:1024D00030E01BCF893609F427CF9DEA980F923060
:1024E00008F422CF8D57823008F41ECF8091E90185
:1024F0008077803709F418CF311116CF8F2D0E94C5
:10250000F1078091E501882329F08091FA0181503B
:102510008093FA0110E0E091FA011E1748F4E12FD0
:10252000F0E0EA51FE4F80810E94B1081F5FF3CFB7
:102530008091E501882351F0F0E0EA51FE4F80815F
:102540008F7040E361E090E00E9477088091CF03B4
:1025500085FF05C084E30E94A7040E94B1080E9481
:102560003D08E2CECDB7DEB7E7E00C94D1311F9243
:102570000F920FB60F9211242F933F934F935F93B7
:102580006F937F938F939F93AF93BF93EF93FF933B
:1025900010926F008091CF0383FF03C08EE20E94F0
:1025A000F1078091FD019CE1899FF0011124E25027
:1025B000FE4F9081933018F09181923010F418DB27
:1025C00018C09091FB01933049F48091CF0382FFB2
:1025D000F6CF8CE892E00E943008F1CF9F5F909395
:1025E000FB018F5F843019F08093FD0102C01092CF
:1025F000FD01FF91EF91BF91AF919F918F917F91DD
:102600006F915F914F913F912F910F900FBE0F905F
:102610001F9018959BED980F973150F496EF960FF9
:102620009D3130F491E0681708F090E0892F08950B
:1026300080E008951F920F920FB60F921124FF921F
:102640000F931F932F933F934F935F936F937F93BA
:102650008F939F93AF93BF93CF93DF93EF93FF93AA
:102660008091AD04882321F082E08093AD0463C1A2
:1026700080915C04823021F483E080935C045BC130
:102680000091840010918500B4E016950795BA95E5
:10269000E1F7C091FD019CE1C99FE0011124C25006
:1026A000DE4F9881943031F40E3208F444C10F3477
:1026B00048F0B6C0953031F4073108F43CC1083217
:1026C00008F0AEC04A990DC09450923038F461E0E1
:1026D000CE019ADA10928500109284000093CB010B
:1026E0002AC18091CB01081B0093CA01109285007A
:1026F000109284009881983071F42A8121110BC0C6
:1027000021E02A83888F8A8F098F0B3B10F4000FFA
:1027100001C006950B8F9450923020F460E0CE01FA
:1027200073DA09C182E086BBF880F11011C0909184
:10273000CB01953608F0FFC08091CA01853608F0BC
:10274000FAC0988F898F81E08A8382E08883F3C002
:102750001091CA0182E0F81273C00091CB01412FA1
:10276000602FCE01489675DA6A818823F9F0488D8A
:1027700050E09A01220F331F240F351F200F311D07
:102780003595279535952795288F298D30E0C901F6
:10279000880F991F820F931F810F911D9595879523
:1027A00095958795898F6F5F6A83C5C0643008F4FB
:1027B00045C020EA3FE030938900209388008A8159
:1027C0008C3050F0888D298D30E0280F311D253652
:1027D000310524F084E027C08A3088F0888D298D67
:1027E00030E0280F311D253231054CF485E0888317
:1027F00028EE33E0309389002093880015C0809143
:10280000D503882379F0612F802F04DF882351F0CE
:10281000688D898DFFDE882329F081E080935C0438
:10282000E7D989C083E088830A8F1B8F198287E0EC
:102830008B831C8282E080936F007DC0188277CFEB
:1028400098E0F91225C081E9810F8D3178F460E0BC
:10285000CE01DAD9288D30E0C901880F991F820F87
:10286000931F2091CB01820F911D4EC0173E08F49B
:1028700062C061E0CE01C8D92A8D30E0C901880F5D
:10288000991F820F931F2091CB01820F911D15C0BC
:102890000091CB01412F602FCE014A96DAD98823CF
:1028A00001F161E0CE01B0D92A8D30E0C901880F75
:1028B000991F820F931F800F911D95958795959570
:1028C00087958A8F2B8D30E0C901880F991F820F61
:1028D000931F810F911D95958795959587958B8F62
:1028E0002AC0412F602FCE014896B3D9882301F129
:1028F00060E0CE0189D9288D30E0C901880F991F89
:10290000820F931F800F911D9595879595958795BB
:10291000888F298D30E0C901880F991F820F931F7E
:10292000810F911D9595879595958795898F03C002
:1029300087E0F81275CFFF91EF91DF91CF91BF91B2
:10294000AF919F918F917F916F915F914F913F9147
:102950002F911F910F91FF900F900FBE0F901F901E
:102960001895E091FD018CE1E89FF0011124E250FF
:10297000FE4F8081811107C081E090919C049F3FB0
:1029800019F480E0089581E0089580E690E00E94C7
:1029900015098093D50381E690E00E941509809384
:1029A0006604882321F081E28093CF038CC90895C7
:1029B0005B9A0C9487075B980C948707A7E0B0E0BC
:1029C000E4EEF4E10C94B5319091DE03943559F4C2
:1029D00020915F04309160042F5F3F4F309360047B
:1029E00020935F043EC0963459F420915D043091E9
:1029F0005E042F5F3F4F30935E0420935D0431C02F
:102A0000953459F42091D2033091D3032F5F3F4F77
:102A10003093D3032093D20324C09B3459F42091E4
:102A20006204309163042F5F3F4F3093630420931F
:102A3000620417C0983459F42091640430916504FD
:102A40002F5F3F4F30936504209364040AC02091A8
:102A5000D0033091D1032F5F3F4F3093D1032093A8
:102A6000D00395E79983882399F0BE016E5F7F4F6D
:102A7000809166040E94FD08BE016C5F7F4F8091CB
:102A8000D5030E94FD0885E58E8386E0D82E02C01E
:102A9000DD24D3940E9483050E94580516E080E847
:102AA00091E086DF80E093E086DF1150C1F780E09F
:102AB00093E07EDF80E891E07EDF80E891E078DFE0
:102AC0005B9887E390E00E94FA0483E00E948C0701
:102AD00028988FE70E9433048091D8038D0D0E94BF
:102AE0003304CE0101967C018C01F80181918F01A4
:102AF0000E943304802F8E198D15B8F38091D8036E
:102B0000882339F086ED93E00E94520A0E94330434
:102B1000F5CF289A0E94580586ED93E00E94370A67
:102B200015E18AE30E94A7048F7731F0115021F05C
:102B300081E00E948C07F5CFC6D82796E7E00C9479
:102B4000D131CF93DF93EC018981811107C080914E
:102B5000D5030E94B1088091660413C08436A1F4A5
:102B60008091C9039091CA03A091CB03B091CC038B
:102B700040E364E00E9477088EE20E94F1078091B2
:102B80005B040E94B1084DC0833709F04DC040E39B
:102B900061E080915F04909160040E9477088EE26A
:102BA0000E94F10740E361E080915D0490915E0432
:102BB0000E9477088EE20E94F10740E361E0809175
:102BC000D2039091D3030E9477088EE20E94F1070E
:102BD00040E361E080916204909163040E94770871
:102BE0008EE20E94F10740E361E0809164049091DD
:102BF00065040E9477088EE20E94F10740E361E0DD
:102C00008091D0039091D1030E9477088EE20E94B8
:102C1000F10740E361E08091590490915A040E94C9
:102C200077080E943D082CC08936D9F441E065ED53
:102C300073E0CE0102960E94B5086091D50380E64C
:102C400090E00E94100941E066E674E0CE0104962F
:102C50000E94B5086091660481E690E00E94100928
:102C60000FC086ED93E00E94370A21966991662392
:102C700029F086ED93E00E943C0AF8CF80E09EDECA
:102C8000DF91CF910895A1E0B0E0E9E4F6E10C9482
:102C9000B43180915C04882309F486C0C090C903D4
:102CA000D090CA03E090CB03F090CC03833009F0BE
:102CB00061C08FE30E94A704182F8630C8F081E31B
:102CC00095E00E94370A28988FEF0E94330480E035
:102CD0000E943304082F115049F080E00E94330411
:102CE000682F81E395E00E943C0AF5CF289A01C045
:102CF00000E00E94630E10925C04053709F054C096
:102D000041E0BE016F5F7F4F84E395E00E94B5080C
:102D1000019759F599818091D503981326C0809128
:102D20003805853571F480913305882339F081E3C6
:102D300095E00E94520A0E94F107F5CF0E943D08DB
:102D400033C08091330584508093330584E08093B1
:102D500032056AE081E395E00E943C0AE091C503F8
:102D6000F091C60388E009951FC081E395E00E94B9
:102D7000370A1AC0823059F48091D4039C2D981BD5
:102D8000983090F00E94630E10925C040DC0813068
:102D900059F487E390E00E94FA040E946A0582E0F9
:102DA00080935C04C092D4032196E8E00C94D03167
:102DB000D8DD882361F083E0809361048091590419
:102DC00090915A04019690935A04809359048091EB
:102DD0006104815080936104882321F083E0809313
:102DE0005B04089581E0EACDCF93DF93EA98209ABF
:102DF000289A8EE190E00E94870728988EE190E063
:102E00000E948707289A8DE290E00E94870780E35E
:102E10000E94F60484E690E00E948707C9EAD2E0A7
:102E2000FE0131966491FE0184910E94E404229691
:102E3000F2E0CB3DDF07A1F780916F02811107C05F
:102E400083E30E94F60484E00E948C070FC0C3E96C
:102E5000D2E0FE0131966491FE0184910E94E40467
:102E60002296F2E0C93ADF07A1F7EACF84E30E9495
:102E7000F60485E30E94A7048D30C1F7DF91CF915E
:102E80000895A2E3B0E0E7E4F7E10C94B831809153
:102E90006E02882309F4A1C04A9B8AC08FE30E9476
:102EA000A7048F778983823368F08AE30E94F6044F
:102EB00086E30E94F6048DE30E94F60484E30E94F8
:102EC000F6048BC028988FEF0E94330410E08981AC
:102ED000181760F480E00E943304E2E0F0E0EC0FA9
:102EE000FD1FE10FF11D80831F5FF1CF80E00E9485
:102EF0003304082F80E00E943304289A84E30E9460
:102F0000F60485E30E94A7048D30C1F72A8196E775
:102F100092279A8392E08981E92FF0E0981768F46C
:102F200041E050E04C0F5D1FE40FF51F308124524B
:102F3000232720839F5F232FEECF81E090E08C0F2B
:102F40009D1FE80FF91F90818B81982790838091B6
:102F5000CF0384FF12C081E60E94F10710E089814F
:102F6000811730F1E1E0F0E0EC0FFD1FE10FF11D02
:102F700080810E94F1071F5FF2CF81E40E94F10778
:102F800010E08981811758F0E1E0F0E0EC0FFD1FBF
:102F9000E10FF11D80810E94B1081F5FF2CF809187
:102FA000CF0385FF03C0802F0E94B1080E943D0817
:102FB00085E30E94A704813029F0813161F48AE31E
:102FC0000E94F60486E30E94F6048DE30E94F60454
:102FD00084E30E94F6040E94CA05E296E4E00C94A1
:102FE000D431A2E3B0E0E7EFF7E10C94B43141E370
:102FF0008E010F5F1F4FB80101960E94B5086C014A
:103000009C01332721503109898190E02817390725
:1030100009F06AC080916E02811104C0E5DE83E090
:103020000E948C07FB808A8196E789278A8392E039
:103030008981292F30E0F801E20FF31F981750F42F
:10304000DE01A20FB31F8C918452208182278083DE
:103050009F5FEECF80818F25808385E30E94F604F9
:1030600085E30E94A7048331C1F7F4FE08C088E716
:103070000E948C0788E70E948C0788E701C08AE0DD
:103080000E948C0728988FE70E94330478018E2DC8
:10309000801B8C1530F4F70181917F010E9433046D
:1030A000F6CF289A85E30E94A7048331D9F385E3FC
:1030B0000E94A704863149F48BE30E94F60486E35C
:1030C0000E94F6048DE30E94F60480916E0288232C
:1030D00049F084E30E94F60485E30E94A7048D3042
:1030E000C1F702C00E94630EE296E8E00C94D03172
:1030F000FC012181223731F0223559F481E080939F
:103100006F0202C010926F026FDE81E080936E0248
:103110000895233711F4019664CF10926E0208953A
:10312000CF93DF93EA98209A289A8EE190E00E944C
:10313000870728988EE190E00E948707289A8DE201
:1031400090E00E94870780E30E94F60484E690E006
:103150000E948707C4EFD2E0FE018491813440F0E1
:1031600083E30E94F60484E00E948C07CFEF0DC039
:10317000FE0131966491FE0184910E94E40422963E
:10318000F3E0C033DF0741F7EBCF84E30E94F6049E
:103190008AE090E00E948707C150B9F781E08093F0
:1031A0007002DF91CF910895EF92FF920F931F93DA
:1031B000CF93DF93EC018B01F880F39461157105D7
:1031C00019F0E4E6F0E002C0E0E0F0E028E0F29E72
:1031D000C00111246AE070E00E9491319B012E0F22
:1031E0003F1FC901AA2797FDA095BA2FE091CD03F3
:1031F000F091CE03AF0160E070E0481759076A070D
:103200007B0728F484EE92E00E943008D9C0E21BCC
:10321000F30BF093CE03E093CD0380917002811104
:1032200001C07EDF85E30E94A7048D3071F08AE53E
:103230000E94F10785E40E94F10782E50E94F107F0
:1032400082E50E94F10781E34CC080917102909168
:103250007202A0917302B0917402892B8A2B8B2B7E
:1032600051F50E94580585E30E94A704833109F4B3
:1032700043C08AE50E94F10785E40E94F10782E5D8
:103280000E94F10782E50E94F10782E32AC0809143
:10329000C9039091CA03A091CB03B091CC034F5FB7
:1032A0005F4F6F4F7F4F84179507A607B707C9F683
:1032B00081E00E948C078091C9039091CA03A0917C
:1032C000CB03B091CC034091710250917202609196
:1032D00073027091740284179507A607B707B9F6B1
:1032E000E7CF0E94F10785E30E94A7040E94B1087E
:1032F0000E943D0815DF64C0012B41F428988FE738
:103300000E943304EC2E0C2F1D2F0BC00AE010E09E
:1033100084E60E948C070150110901151105C1F7BF
:10332000EDCF802F8E198F1530F4F80181918F0128
:103330000E943304F6CF289AC8EC85E30E94A704C4
:103340008D30E9F485E30E94A7048D3019F18AE5F8
:103350000E94F10785E40E94F10782E50E94F107CF
:1033600082E50E94F10783E30E94F10785E30E9452
:10337000A7040E94B1080E943D08D2DE0BC085E37D
:103380000E94A7048331F1F681E00E948C07C150AE
:10339000A1F6D8CF80917002811102C00E94630E05
:1033A0008091C9039091CA03A091CB03B091CC0343
:1033B0008093710290937202A0937302B09374028F
:1033C000CDB7DEB7E6E00C94D231ACE0B0E0EBEE86
:1033D000F9E10C94B931FC018BE0898381818A8306
:1033E0001B8282E08C8387818D8380858E8381859B
:1033F0008F83848188878581898786818A871B86D8
:103400001C8684E10E948C0760E070E0CE0101968A
:10341000CBDE8AE50E94F10710E0812F90E0298140
:1034200030E0281739075CF0E1E0F0E0EC0FFD1F19
:10343000E80FF91F80810E94B1081F5FEECF8091D5
:10344000CF0385FF03C080E00E94B1080E943D08C1
:103450002C96E3E00C94D531CF93DF93EC0180916F
:103460007802811108C090917902911104C0909165
:103470007A029923A9F09B81903319F09F7E9034B2
:1034800079F49F8198130CC09885809179029813E4
:1034900007C0998580917A02981302C0CE0195DF0A
:1034A00080917502811108C090917602911104C03B
:1034B000909177029923A9F098819B3091F49B8198
:1034C000903479F49F8198130CC09885809176028E
:1034D000981307C0998580917702981302C0CE0196
:1034E00074DFDF91CF910895AEE1B0E0EAE7FAE151
:1034F0000C94B83180917002882309F469C04A9B0A
:1035000059C08FE30E94A7048F778E3108F08DE1B8
:10351000898328988FEF0E94330410E0898118175F
:1035200060F480E00E943304E2E0F0E0EC0FFD1F65
:10353000E10FF11D80831F5FF1CF80E00E94330413
:10354000082F80E00E943304289ACE01019684DF80
:103550008091CF0384FF12C08AE70E94F10710E038
:1035600089818117A8F1E1E0F0E0EC0FFD1FE10F88
:10357000F11D80810E94F1071F5FF2CF8AE50E9452
:10358000F10710E08981811758F0E1E0F0E0EC0FDD
:10359000FD1FE10FF11D80810E94B1081F5FF2CF76
:1035A0008091CF0385FF03C0802F0E94B1080E9445
:1035B0003D080EC085E30E94A704813149F48AE3E7
:1035C0000E94F60486E30E94F60484E30E94F60457
:1035D0006E96E4E00C94D431AEE1B0E0E2EFFAE1B3
:1035E0000C94B8318C01FC018181823711F498DD93
:1035F00036C0833711F0863601F54DE1BE016F5FAD
:103600007F4FC80102960E94B5089927019729812A
:1036100030E08217930729F08BED92E00E9430088A
:103620001EC061E070E0F8018181833711F060E035
:1036300070E0CE010196B8DD12C0813621F443E07E
:1036400068E772E005C0873741F443E065E772E060
:10365000C80102960E94B50802C0109270026E96D0
:10366000E4E00C94D431CF93DF93EA98209A289A1F
:103670008EE190E00E94870728988EE190E00E94FA
:103680008707289A8DE290E00E94870780E30E94D6
:10369000F60484E690E00E948707C0E3D3E0FE01D1
:1036A0008491813448F083E30E94F60481E00E9413
:1036B0008C07DF91CF910895FE0131966491FE0150
:1036C00084910E94E4042296F3E0CC36DF0739F7B8
:1036D000EACFAEE1B0E0EFE6FBE10C94B8318091C7
:1036E0007B02882309F474C04A9B5FC08FE30E9469
:1036F000A7048F778E3108F08DE1898328988FEFAA
:103700000E94330410E08981181760F480E00E9461
:103710003304E2E0F0E0EC0FFD1FE10FF11D8083C8
:103720001F5FF1CF80E00E943304082F289A8AE3BC
:103730000E94F60486E30E94F6048DE30E94F604DC
:1037400084E30E94F6048091CF0384FF12C087E7D0
:103750000E94F10710E089818117D0F1E1E0F0E0EB
:10376000EC0FFD1FE10FF11D80810E94F1071F5F2B
:10377000F2CF87E50E94F10710E08981811758F0A8
:10378000E1E0F0E0EC0FFD1FE10FF11D80810E94F0
:10379000B1081F5FF2CF8091CF0385FF03C0802F58
:1037A0000E94B1080E943D0813C085E30E94A7044F
:1037B000813011F0813161F48AE30E94F60486E3DE
:1037C0000E94F6048DE30E94F60484E30E94F6044E
:1037D0006E96E4E00C94D431FC018181823729F4A7
:1037E00042DF81E080937B020895833711F01092CD
:1037F0007B020895CF93DF93EA98209A289A8EE16E
:1038000090E00E94870728988EE190E00E94870749
:10381000289A8DE290E00E94870780E30E94F604D8
:1038200084E690E00E948707289880E40E94330491
:10383000CCE6D3E0FE0184910E9433042196F3E0AC
:10384000C937DF07B9F7809108010E9433048091DE
:1038500009010E94330480910A010E943304C0E0F0
:10386000D0E0FE01E458FC4F84910E94330421967D
:10387000C931D105B1F7289A28988EE70E94330400
:103880008BE290E0EC0121960E9415090E9433041E
:10389000C333D10511F0CE01F5CF289A83E30E94FE
:1038A000F60481E00E948C0781E08093C703DF91DA
:1038B000CF9108956F927F928F929F92AF92CF9205
:1038C000EF92FF920F931F93CF93DF93EC018981C7
:1038D000843769F46FE071E0CE0102960E94E2083D
:1038E00040E260E080910F019091100112C0833797
:1038F00009F090C18A81823789F46BE071E0CE01D2
:1039000003960E94E20840E260E080910B019091F2
:103910000C010E9441080E943D08E6C1769A809100
:103920007E02811116C080916E02882329F081E009
:1039300080937D0210926E0280917002882329F09C
:1039400081E080937C021092700254DF83E00E9439
:103950008C0786E30E94F6048AE30E94F6048BE358
:103960000E94F6040E945805FE0101900020E9F72C
:103970000E2F0C1B0250C12CFAE09F2E7E0132E06C
:10398000E30EF11CA5E0AA2EB8E28B2E80910B016C
:1039900090910C012C2D332727FD309528173907DE
:1039A00008F0FBC00132A1F45B9A80910F01909165
:1039B00010010E9487075B9880910D0190910E0184
:1039C000FC019E9EC0019F9E900D11240E948707BE
:1039D000370111E010170CF0B7C0F30181913F01DE
:1039E0005B9A803309F046C0013201F580910D01E8
:1039F00090910E010E9487075B9880910D01909134
:103A00000E010E9487075B9A80910D0190910E0133
:103A10000E9487075B9880910D0190910E019C0197
:103A2000A29EC001A39E900D11248AC080910F0117
:103A3000909110010E9487075B9880910F019091EF
:103A400010019C01220F331F820F931F0E948707D2
:103A50005B9A80910F01909110010E9487075B98FB
:103A600080910F01909110019C01220F331F820F52
:103A7000931F66C0813329F5013291F480910D01C5
:103A800090910E010E9487075B9880910D019091A3
:103A90000E01FC01AE9EC001AF9E900D11241EC010
:103AA00080910F01909110019C01220F331F820F12
:103AB000931F0E9487075B9880910F0190911001DE
:103AC0002CC00132D1F480910D0190910E010E9421
:103AD00087075B9880910D0190910E010E948707E6
:103AE0005B9A80910D0190910E010E9487075B986F
:103AF00080910D0190910E0123C080910F01909152
:103B000010010E9487075B9880910F01909110012E
:103B10009C01220F331F820F931F0E9487075B9A1D
:103B200080910F01909110019C01220F331F820F91
:103B3000931F0E9487075B9880910F01909110015D
:103B40000E9487071F5F46CF5B9A0132A1F48091E4
:103B50000D0190910E010E9487075B9880910D01E5
:103B600090910E019C01829EC001839E900D1124B4
:103B70000E94870710C080910F01909110010E9450
:103B800087075B981FE180910F01909110010E94BF
:103B900087071150C1F7C394F9CE80917E02882324
:103BA00041F08091CF0381110EC086E30E94F6049C
:103BB00017C080917D02882349F010927D0214D9AC
:103BC00081E080936E020E946A050AC080917C02A7
:103BD000882321F010927C02A3DA02C00E94630EB7
:103BE000769889E60E94F10783E70E94F10711E0C9
:103BF00010170CF090CEFE01E10FF11D17FDFA95A4
:103C00008181803319F0813309F086E40E94F10745
:103C10001F5FEECF8237B9F480916E02882329F0BE
:103C200081E080937D0210926E0280917002882361
:103C300029F081E080937C0210927002DBDD81E04C
:103C400080937E0251C0863651F58A81803351F4CB
:103C500080E18093080180EB8093090181E78093E4
:103C60000A0107C043E068E071E0CE0102960E94BD
:103C7000B50889E60E94F10786E60E94F1078AE30B
:103C80000E94F107809108010E94B108809109010A
:103C90000E94B10880910A010E94B1083CCE883789
:103CA00019F580917D02882339F010927D029CD80D
:103CB00081E080936E0210C080917C02882321F005
:103CC00010927C022DDA0EC082E090E00E94FA048D
:103CD0008091CF03882319F00E946A0503C086E310
:103CE0000E94F60410927E02DF91CF911F910F91F6
:103CF000FF90EF90CF90AF909F908F907F906F90BC
:103D00000895A2E0B0E0E7E8FEE10C94AD317C015B
:103D1000FC018181833709F09CC1198287E090E022
:103D20000E94E1318C0141E0BE016F5F7F4FC7010E
:103D300002960E94B5088981F801808341E0BE01A6
:103D40006F5F7F4FC70104960E94B5082981207FCD
:103D5000F801218341E0BE016F5F7F4FC7010696E6
:103D60002A830E94B5088981F801828341E0BE015F
:103D70006F5F7F4FC70108960E94B5088981F801DF
:103D8000838341E0BE016F5F7F4FC7010A960E94A7
:103D9000B5088981F801868341E0BE016F5F7F4FDE
:103DA000C7010C960E94B5088981F801858341E01E
:103DB000BE016F5F7F4FC7010E960E94B5088981D3
:103DC000F801848380E090E02A814191342F32957C
:103DD0003F70342783279F5F9730B9F78F70822B0E
:103DE000F801818387E090E00E94E1315C0187E087
:103DF000F801D50101900D928A95E1F7D80111964D
:103E0000C8010696F8013D91219123272083E817E8
:103E1000F907C9F7769A80918102811160C080917B
:103E20006E02882329F081E08093800210926E0256
:103E300080917002882329F081E080937F021092A4
:103E40007002EA98209A289A8EE190E00E948707F3
:103E500028988EE190E00E948707289A8DE290E0F2
:103E60000E94870780E30E94F60484E690E00E94A7
:103E70008707289880E40E94330465E9E62E63E012
:103E8000F62EF70184910E943304FFEFEF1AFF0A28
:103E90002EEBE21623E0F206A1F7289A28988EE787
:103EA0000E9433048BE290E07C01EFEFEE1AFE0AF1
:103EB0000E9415090E943304F3E3EF16F10411F098
:103EC000C701F2CF289A83E30E94F60481E00E94A2
:103ED0008C0781E08093C70383E00E948C0786E310
:103EE0000E94F6048AE30E94F6048BE30E94F60423
:103EF0000E9458055B9A87EC94E20E9487075B98C2
:103F000089E50E948C0785E392E00E948707712C67
:103F10008091150190E0272D332727FD3095281734
:103F200039070CF057C0711002C022E001C027E031
:103F3000F12C5B9A86EF99E02A830E9487075B98B1
:103F400086EF99E00E948707F3942A81F2168CF39A
:103F50005B9A8CEF92E10E9487075B988091110138
:103F6000909112010E9487076801612CF6018190EF
:103F70006F0148E0542E50E8E52EF12C912CC7013A
:103F800088219921892B49F45B9A809111019091A4
:103F900012010E9487075B9808C05B98809111010D
:103FA000909112010E9487075B9A80911101909174
:103FB00012010E948707F694E7945A9401F76394DC
:103FC000F7E06F12D3CF5B9880E090E00E94870704
:103FD00073949ECF80918102882341F08091CF031A
:103FE00081110FC086E30E94F60418C08091800200
:103FF000882351F0109280020E94F41681E0809391
:104000006E020E946A050AC080917F02882321F017
:1040100010927F0285D802C00E94630E769889E5CF
:104020000E94F10783E70E94F1077501D12CF70187
:1040300081917F010E94B108D394F7E0DF12F7CF9E
:104040000E943D08C5010E947932C8010E94793260
:104050006EC08237A9F465E171E0C70102960E9443
:10406000E20889E50E94F10782E70E94F1078AE3EE
:104070000E94F1078091150140E260E090E02CC0C1
:10408000843779F5F7018281803339F488ED94E043
:10409000909314018093130106C063E171E0C7019E
:1040A00002960E94E2088091130190911401969566
:1040B0008795909312018093110189E50E94F10781
:1040C00084E70E94F1078AE30E94F10740E266E07C
:1040D00080911301909114010E9441080E943D08B3
:1040E00026C0883721F580918002882341F0109204
:1040F00080020E94F41681E080936E0210C08091CD
:104100007F02882321F010927F020AD80EC082E03D
:1041100090E00E94FA048091CF03882319F00E9456
:104120006A0503C086E30E94F6041092810222967B
:10413000EFE00C94C931CF93DF93EA98209A289A44
:104140008EE190E00E94870728988EE190E00E941F
:104150008707289A8DE290E00E94870780E30E94FB
:10416000F60484E690E00E948707289880E40E9485
:104170003304CEEDD5E0FE0184910E9433042196F4
:10418000F6E0C730DF07B9F7289A28988EE70E9433
:1041900033048BE290E0EC0121960E9415090E9405
:1041A0003304C333D10511F0CE01F5CF289A83E350
:1041B0000E94F60481E00E948C0781E08093C7038F
:1041C00080938202DF91CF910895A0E0B0E0EBEE02
:1041D000F0E20C94B3318C0180916704F801838381
:1041E00064839DE0E92EF12C0E94580585E30E942E
:1041F000A704833169F081ED95E00E94300885E3E2
:104200000E94A7040E94B1080E943D0894DF4EC09E
:104210004091C9035091CA036091CB037091CC03C4
:10422000409368045093690460936A0470936B042C
:1042300028988FE70E9433046801C0E0D0E08AEA42
:10424000B82EF60180810E943304C930D10544F4B0
:10425000F6018081B826C730D10511F4F801B08687
:104260002196FFEFCF1ADF0ACF30D10551F7289AF8
:10427000C8EC85E30E94A7048D3069F481E0E81A58
:10428000F108E114F10409F0AFCF809167048F5F6A
:10429000809367040BC085E30E94A704833171F704
:1042A00081E00E948C07C15021F7E8CFCDB7DEB77F
:1042B000E9E00C94CF31ABE3B0E0E1E6F1E20C943D
:1042C000B0317C01FC0101900020E9F7AF014150C1
:1042D0005109481B590B6C01F2E0CF0ED11CBE01F5
:1042E000625D7F4FC6010E94B508082F6DEB71E03B
:1042F00087E191E00E944134F70111818DE8810F3F
:10430000823008F0C8C187858A3411F489E501C07C
:104310008EE4809316018090C9039090CA03A09008
:10432000CB03B090CC034091C9035091CA03609174
:10433000CB037091CC03409368045093690460935D
:104340006A0470936B0480911601893509F050C09E
:1043500085EC95E00E9430088EEA95E00E943008D6
:10436000C7010E94250889E995E00E943008F701FD
:1043700001900020E9F7319740E260E0CF018E190B
:104380009F090E94410881E595E00E943008F701ED
:1043900001900020E9F73197808140E260E090E0F1
:1043A0000E94410889E095E00E94300840E260E008
:1043B000802F90E00E94410886E095E00E9430083E
:1043C0008FEE94E00E94300840E364E080916A043C
:1043D00090916B040E94770840E364E08091680448
:1043E000909169040E9477088CEE94E00E94300856
:1043F000F70101900020E9F77197EE15FF0509F02C
:104400003DC142E0BE01625D7F4FC6010E94B5081A
:10441000029709F033C18FDE0EA5B701665F7F4FAB
:1044200045E050E0CE0101960E9448341E824AE0E9
:1044300050E060E070E0CE0101960E9408336B010D
:104440007C0123E0F694E794D794C7942A95D1F79A
:10445000809116018935F1F485ED94E00E943008D1
:10446000CE0101960E9425088EEC94E00E9430084F
:1044700087EB94E00E94300840E364E0C7010E94AB
:10448000770840E364E0C6010E9477088FEA94E071
:104490000E9430088FE0EBE3F1E0DE015F960190CF
:1044A0000D928A95E1F78FA588A388A989A389A988
:1044B0008EA3602FCE014F9688DE133709F4F1C02A
:1044C00007FFEFC0409168045091690460916A044D
:1044D00070916B048091C9039091CA03A091CB03A2
:1044E000B091CC0388199909AA09BB098E379105A7
:1044F000A105B10548F48090C9039090CA03A0902B
:10450000CB03B090CC03A8958091C9039091CA03C6
:10451000A091CB03B091CC03841B950BA60BB70BDA
:10452000C816D906EA06FB06A8F68090C903909043
:10453000CA03A090CB03B090CC03809116018935BB
:1045400009F073C088E994E00E94300840E364E019
:10455000C5010E94770840E364E0C4010E94770827
:1045600080E994E00E94300889E794E00E943008D6
:1045700040E364E080916A0490916B040E947708A4
:1045800040E364E080916804909169040E94770898
:1045900081E794E00E9430088AE594E00E943008A8
:1045A00040E364E0C7010E94770840E364E0C6018D
:1045B0000E94770882E594E00E9430088BE394E043
:1045C0000E9430088091C9039091CA03A091CB0347
:1045D000B091CC03409168045091690460916A04E1
:1045E00070916B04841B950BA60BB70B40E364E042
:1045F000CD010E9477088091C9039091CA03A091D0
:10460000CB03B091CC032091680430916904821BE4
:10461000930B40E364E00E94770883E394E00E94F8
:1046200030088AE294E00E94300867EFCE014F968E
:10463000CCDD409168045091690460916A047091E6
:104640006B048091C9039091CA03A091CB03B091F0
:10465000CC03841B950BA60BB70B4597A105B105A1
:1046600080F380911601893521F481E294E00E9463
:10467000300867EFCE014F96A8DD13C08CEF93E0B2
:104680000E94300840E260E08EE090E00E94410825
:1046900088ED93E002C08EEB93E00E943008109208
:1046A0008202EB96ECE00C94CC31109287041092CD
:1046B0003E0383E0809388028FEF80939C040895EB
:1046C000E9E8F2E02081211105C0892BB1F080E0FA
:1046D00090E00895B3E0E733FB07B8F7009751F097
:1046E0004181DC013C91431305C0428111963C910C
:1046F000431751F0E20FF11DE5CF33E0E733F30745
:1047000019F010F0E7E3F3E0CF01089594E0899FFA
:10471000F0011124E356FB4F80818F3F91F080938D
:1047200083028181809384028281809385028381C8
:104730008093860221E04CE064E083E892E00C94F0
:10474000490B089588E393E0BBDF009799F020912F
:104750008802FC013081231768F4E20FF11D80818B
:1047600080933A0389E780933B03818180933C03E4
:1047700081E0089580E00895EF92FF921F93CF9318
:10478000DF931F92CDB7DEB7182F8091CF0386FF3E
:1047900018C084E599830E94F107E12E9981F92ED2
:1047A00015E0F70181917F010E94B1081150C9F70E
:1047B0008091CF0385FF03C08AEF0E94B1080E9459
:1047C0003D080F90DF91CF911F91FF90EF900895DA
:1047D00086E30E94F60480913A03833511F48BE955
:1047E00001C08BE40E948C0721E04CE065E088E387
:1047F00093E00E94490B0E946A0588E393E0BCCFD6
:10480000E7DF80913A03893631F081E08093370306
:1048100089E280939C040895CF9385E390E00E9401
:10482000150980936D0486E390E00E94150980933A
:104830009B04CFEFC0938B04C0938D04C0938F046F
:10484000C0939104C0939304C0939504C0939704BC
:10485000C09399042ADF1092890281E080936C044E
:10486000C0939D048FEF9FEF9093700480936F042B
:1048700010927204109271041092740410927304D6
:10488000C093A104909376048093750410927804E9
:104890001092770410927A0410927904C093A504C0
:1048A00090937C0480937B0410927E0410927D048C
:1048B0001092800410927F04C093A9049093820404
:1048C00080938104109284041092830410928604D1
:1048D00010928504CF910895ACE0B0E0E2E7F4E2F5
:1048E0000C94B3316C018C010F5F1F4F45E0BE018A
:1048F0006F5F7F4FC8010E94B508843008F0F3C095
:1049000099819130A9F4833061F46A8185E390E064
:104910000E9410096B8186E390E00E9410097CDF01
:1049200006C280916D040E94B10880919B049AC0D8
:10493000923009F051C0813039F081E09A81913094
:1049400009F080E0F82E02C0FF24F39480918902E0
:10495000811104C087E096E00E94300809E812E067
:10496000F8018081882309F4BBC0F3E007331F07F7
:1049700008F0B6C032E00938130719F080E20E944F
:10498000F107F80181810E94B108F80182810E943B
:10499000B108FF20E1F08AE30E94F10793E0F801FB
:1049A00080819817A0F4943038F090FF05C08CE215
:1049B0009C870E94F1079C85EE24E394E90EF801A0
:1049C000E90FF11D80810E94B1089E2DE8CFF8010A
:1049D0008081080F111DC4CF933049F480E090E02E
:1049E0006FDE895892409EEA981B892F3BC0903118
:1049F00071F50BE814E08CE8E82E84E0F82EC12C69
:104A0000D12CF80180818F3FA1F0DD2019F080E2E8
:104A10000E94F1078C2D0E94B1088AE30E94F107E1
:104A2000F80180810E94B108F70180810E94B108DD
:104A3000D3940E5F1F4FC394F2E0EF0EF11C38E0E9
:104A4000C312DFCFD1104CC085E196E047C0913151
:104A500061F48091890490918A046DE770E00E946E
:104A60007D31862F0E94B1083BC09231C9F51DE906
:104A7000E12E14E0F12E00EA14E0C12CD12CF70154
:104A800080818F3FF1F0DD2019F080E20E94F10774
:104A90008C2D0E94B1088AE30E94F107F701808102
:104AA0000E94B108F801329780810E94B108F80194
:104AB000319780810E94B108F80180810E94B1087D
:104AC000D394F4E0EF0EF11CC3940C5F1F4F34E05D
:104AD000C312D5CFD11004C081E196E00E94300806
:104AE0000E943D0824C144E0BE01695F7F4FC801B8
:104AF0000E94B5084F81493608F477C07A855885F9
:104B000069857C3009F04BC020E030E080E090E027
:104B1000F901E356FB4F708174131CC0A181A513EA
:104B200019C0A281A61316C02CE023839C01220F7A
:104B3000331F280F391FF901EE0FFF1FE159FB4FFB
:104B400011821082F901EE0FFF1FEF58FB4F118207
:104B50001082CFC07F3FD9F44083518362832CE021
:104B600023839C01220F331F280F391FF901EE0FF9
:104B7000FF1FE159FB4F11821082F901EE0FFF1F59
:104B8000EF58FB4F1182108210926C04B2C0019654
:104B90002C5F3F4F2031310509F0BACFC8C080E00B
:104BA00090E020E030E0FC01E356FB4FA081A4132D
:104BB00015C0A181A51312C0A281A6130FC07383D3
:104BC000F901EE0FFF1FE20FF31FEE0FFF1FEF586B
:104BD000FB4F81E090E091838083A9C02F5F3F4F1E
:104BE000049680319105F9F6A2C0E98180916D04A7
:104BF000E817C0F190E0F0E09C01295F3F4F2E17CD
:104C00003F0784F13A8120919B0432132BC03C81F1
:104C10003F3231F442E06CE0C6010E94B60B87C01F
:104C20002D813C32B1F42093880481E090E0909390
:104C30008A04809389048091CD039091CE03E4E0AF
:104C40002E9F800D911D11249093CE038093CD0350
:104C50006EC0E81BF90BEE0FF0E0E557FB4F308319
:104C6000218365C080E090E02BDD7C01F80101909C
:104C70000020E9F73197E01BF10BF695E795BB248F
:104C8000B394BE0EC7018B0D911D895892408F3A87
:104C900091050CF048C0F701B1928F0121E0822FFD
:104CA000880F81502B15D8F441E0B801F601E80FC8
:104CB000F11DCF012C870E94B5082C85233058F0B8
:104CC00020FD09C0D80111978C91843621F4F80198
:104CD000808180936E042F5F0F5F1F4FE0CFF7E35B
:104CE000EF16F3E0FF0618F5F701E20FF11D108251
:104CF0001EC022E04CE064E0CE0107960E94490B02
:104D00008FE08A8722E04CE064E0CE0107960E94A3
:104D1000490B82E08A8722E04CE064E0CE010796EE
:104D20000E94490B04C08BE096E00E9430082C964C
:104D3000E9E00C94CF310F931F93CF93DF939091C1
:104D40006C0491114FC093E0899F80011124F801F8
:104D5000EE0FFF1FE159FB4F94E0899FD001112412
:104D6000A356BB4F12969C91977040E850E0491BA8
:104D700051099AEF949F9001959F300D112435951C
:104D800027953595279531832083E801CC0FDD1FCA
:104D9000CD58DB4F288139812F5F3F4F39832883DE
:104DA000000F111F0F581B4FF80140815181411511
:104DB000510529F424303105A9F4A8DC11C0413093
:104DC000510539F4A3DC82E090E0F80191838083FF
:104DD00009C04230510531F499DCF801118210828A
:104DE00019821882DF91CF911F910F910895A6E04B
:104DF000B0E0EDEFF6E20C94B63120919B042A83EB
:104E00001B8280918804882341F0833019F487E75E
:104E100091E00FC08DE790E00CC0277030E02A5180
:104E20003F4F4DE7429FC001439F900D1124959540
:104E3000879590938A04809389040CE814E0F12C00
:104E40007CE2E72EF801319790819F3FC1F080917D
:104E50006D048F0D898380918804882311F0EC8282
:104E600003C09C83F80180818D8321E04CE065E0E4
:104E7000CE0101960E94490BCE0101967DDCF39490
:104E80000E5F1F4FF8E0FF12DDCF8091880488236A
:104E900041F0833019F41092880403C0825080934B
:104EA00088042696E6E00C94D2318091370388235B
:104EB00051F08EDC89E280939C048091370381500D
:104EC000809337030895F1CBFF920F931F93CF93F5
:104ED000DF93FC01F0800181C281D38114818FE5D1
:104EE00080939C041092370380916D04811105C05A
:104EF00080919B04882309F4A9C0809138038F1105
:104F000004C080913903801729F0CFDBF092380379
:104F100000933903809187048F3F09F497C0C093B1
:104F20003A03D0933B0310933C03CC23F1F081115F
:104F30001CC080916D04181761F0143651F08DEA91
:104F40008C0F823010F0CD3739F48FEF80938704C7
:104F50007DC0C43509F47AC08D2F807F803609F07A
:104F600075C0D067D0933B0357C0ECDB811105C0FF
:104F700080918704882309F469C080913E038111E0
:104F800007C0E0918704F0E0E75EF94FE49101C0CB
:104F9000E82FE33541F4C43531F4909187049E5FE6
:104FA0009093870404C0EC1711F07FDB4FC0882377
:104FB00069F0809188028E5F80938802C3DB811143
:104FC0000EC0809187048E5F809387048091870450
:104FD000E82FF0E0E65EF94F14911F3F59F48091FD
:104FE0003A0380933E038436B9F480916E04809333
:104FF0003C0312C010933A0397E790933B039091C0
:105000006D0490933C038E5F8093870410923E035F
:105010008E3021F01123D1F0F3DB18C088E393E048
:105020004FDBDC01009781F02C9130E087E393E0C7
:10503000821B930BA817B90730F4ED01C20FD31FE1
:1050400048814D93F7CF1C9230DBE4CFCDB7DEB76C
:10505000E5E00C94D331FF920F931F93CF93DF932E
:105060008C01EC0109900020E9F72197C81BD90BAE
:10507000FC018181823751F487E390E00E94FA04B9
:105080000E946A0581E08093AD0427C0833719F53B
:10509000FC2E28988FE70E9433048C2F82500E94A8
:1050A0003304E801229612E01F1528F489910E942A
:1050B00033041F5FF9CF289A0E9458058AE30E94A3
:1050C000A7048F7729F084E690E00E948707F6CF47
:1050D0000E946A0502C01092AD04CDB7DEB7E5E0CC
:1050E0000C94D331A0E8B0E0E8E7F8E20C94B431D6
:1050F0008091AD04882309F454C0813011F580916A
:10510000C9039091CA03A091CB03B091CC03209125
:105110003F03281709F445C085E30E94A7048131A5
:1051200029F48AE30E94F6040E946A058091C9036B
:105130009091CA03A091CB03B091CC0380933F031D
:1051400030C08FE30E94A704D82E87FD27C028987F
:105150008FEF0E9433048E010F5F1F4F7801C02E26
:105160008E2D801B8D1538F480E00E943304F701EA
:1051700081937F01F5CF289A81E08093C401802F2D
:105180008C198D1530F4F80181918F010E94F1077F
:10519000F6CF0E943D088FEF8093C40181E0809399
:1051A000AD04C058DF4FE8E00C94D0310F931F934B
:1051B000CF93DF93EC0110E0212F30E0F901EE0FE7
:1051C000FF1FE20FF31FE054FF4F0491F901EE0FB0
:1051D000FF1FE20FF31FEF53FF4F25913491002380
:1051E00099F0209739F480E20E94F107802F0E9405
:1051F000F10708C08881801305C0CE01F901099527
:1052000081E003C01F5FD8CF80E0DF91CF911F9175
:105210000F910895CF93C091C4018093C4018091F0
:1052200033058823A1F181E395E00E94520AE091C1
:1052300040038A3011F08D30F9F4EE2381F3F0E071
:10524000EF5BFC4F108281E493E0B0DF811111C06D
:105250008FE396E00E94300881E493E00E942508E5
:1052600087E296E00E94300880E090E09FDF0E9495
:105270003D0810924003D3CFE7FDD1CF91E09E0FC0
:1052800090934003F0E0EF5BFC4F8083C8CFC09366
:10529000C401CF910895E4E6F0E080818B7F8083A4
:1052A000299A84B1876084B9239880E58CBD8DB537
:1052B00081608DBD089520913809309139092115FB
:1052C000310521F420913701309138018091350169
:1052D00090913601009741F48DB79EB74091390106
:1052E00050913A01841B950B2817390718F4821B3B
:1052F000930B089580E090E0089582E40E94F10706
:1053000040E265E080913809909139090E94410896
:105310000E943D0883E50E94F10740E265E080912C
:105320003701909138010E9441080E943D0885E4B0
:105330000E94F10740E265E08091350190913601CD
:105340000E9441080E943D0886E40E94F107B3DFF5
:1053500040E265E00E9441080C943D08A2E0B0E004
:10536000E4EBF9E20C94BA31E9EBF5E08091F1005D
:10537000819385E0E13CF807C9F72091B9053091A8
:10538000BA05832F90E08A30910508F01AC1FC011C
:10539000EA5AFF4FD9C7203879F0223809F011C1F5
:1053A0008091BD058093E9008091EB0085FB882703
:1053B00080F91092E90006C08091B4059091B5057E
:1053C000911182609091E800977F9093E80080931C
:1053D000F1001092F1008091E800982F9E7F909349
:1053E000E8008F778093E8008091E80082FDAFC0ED
:1053F0008091B8058111F8CFD5C0822F8D7F09F03B
:10540000E0C0222319F0223061F033C08091BB0547
:10541000813009F0C7C0333009F080E08093B505D2
:1054200028C08091BB05811124C02091BD05277043
:1054300009F4B8C02093E9008091EB0080FF19C007
:105440008091EB00313091F480618093EB0081E03A
:1054500090E0022E01C0880F0A94EAF78093EA00D8
:105460001092EA008091EB00886001C08062809316
:10547000EB001092E9008091E800877F8093E800BC
:105480008091E800982F9E7F66C021119AC02091DC
:10549000BB058091E800877F8093E8009091E80049
:1054A000892F8E7F8093E8009F779093E80080910A
:1054B000E80080FD05C08091B8058111F8CF72C069
:1054C000822F8F77982F90689093E300882309F4B8
:1054D00069C083E08093B80565C02058223008F089
:1054E00070C0AE014F5F5F4F6091BD058091BB05FD
:1054F0009091BC050E94F903009709F453C02091D4
:10550000E800277F2093E800BC0189819A812CD193
:105510001EC0203809F055C08091E800877F809335
:10552000E8008091B6058093F1008091E800982F03
:105530009E7F9093E8008F778093E8008091E80049
:1055400082FD05C08091B8058111F8CF2BC08091F4
:10555000E800982F9B7F9093E8008F778093E80076
:1055600021C021112EC09091BB059230D8F48091BA
:10557000E800877F8093E8009093B6058091E8006B
:10558000982F9E7F9093E8008F778093E80080911A
:10559000B605882311F084E001C083E08093B8054C
:1055A0000E9448068091E80083FF0EC08091EB00C6
:1055B00080628093EB008091E800877F8093E80011
:1055C00003C00E946006EECF2296E2E0EFC6809311
:1055D000E900EBEEF0E0808181608083EDEEF0E0A9
:1055E00010826093EC0040838091EE00881F882732
:1055F000881F08951092F40080E08093E9001092D3
:10560000F0001092E8009091ED009D7F9093ED00E6
:105610009091EB009E7F9093EB008F5F873069F74E
:1056200008958091B90587FD05C08091E80080FF4D
:105630000FC013C08091E80082FD05C08091B805BD
:105640008111F8CF08958091E800982F9B7F09C0C1
:105650008091B8058111E9CF08958091E800982FD5
:105660009E7F9093E8008F778093E800089585E609
:105670009091EC0090FF05C09091E80090FF05C06C
:1056800019C09091E80092FD15C09091B80599233A
:1056900099F09091EB0095FD11C09091E10092FF7F
:1056A000E7CF9091E1009B7F9093E100815001F75B
:1056B00083E0089580E0089582E0089581E00895F0
:1056C0004091BF055091C0059B014617570708F44C
:1056D0009A0160E021153105D9F14091E80043FDC0
:1056E0003FC04091E80042FF06C08091E80082FF81
:1056F00032C080E008954091B805442399F140916B
:10570000E80040FFE7CFFC01CF012115310569F02A
:105710004091F2005091F3004830510530F48191EE
:105720008093F10021503109EFCF4091F200509168
:10573000F30061E04830510509F060E04091E80075
:10574000542F5E7F5093E8004F774093E800C2CF1C
:105750006111C3CFCACF8091B8058111C6CF02C0F5
:1057600081E0089582E008954091BF055091C00501
:105770009B014617570708F49A0160E0211531058F
:1057800009F43CC04091E80043FD40C04091E8006E
:1057900042FF06C08091E80082FF33C080E0089598
:1057A0004091B8054423A1F14091E80040FFE6CFC5
:1057B000FC01CF012115310571F04091F2005091AB
:1057C000F3004830510538F484918093F100215062
:1057D00031093196EECF4091F2005091F30061E033
:1057E0004830510509F060E04091E800542F5E7F99
:1057F0005093E8004F774093E800C0CF6111C2CFCB
:10580000C9CF8091B8058111C5CF02C081E008954C
:1058100082E008956115710581F12091E80023FD72
:1058200031C02091B805222389F12091E80022FFA0
:10583000F4CFFC018091F2009091F300892B71F07C
:105840009F012F5F3F4FC9014091F100408361509C
:1058500071096115710519F0F901ECCFCF012091A3
:10586000E800322F3B7F3093E8002F772093E80049
:10587000D1CF8091B805882349F08091E80080FF5E
:10588000F8CF02C081E0089580E0089582E0089595
:1058900067D06ED01092B8051092B6051092B5057B
:1058A0001092B4058AE482BF19BC89B5826089BDB3
:1058B00009B400FEFDCF8091D800982F9F77909378
:1058C000D80080688093D8008091D7008160809351
:1058D000D7008091D8008F7D8093D8008091E00020
:1058E0008B7F8093E0008091E0008E7F8093E000CA
:1058F0008091E1008E7F8093E1008091E2008160E1
:105900008093E2008091E100877F8093E1008091A5
:10591000E20088608093E2008091D80081608093EB
:10592000D8000895B5DFE8EDF0E0808180618083E4
:1059300081E08093B70578940895AADFE0EEF0E067
:10594000808181608083E8EDF0E080818F778083C3
:1059500019BC80818F7E80831092B70508950895C9
:10596000E8EDF0E080818E7F80831092E200089560
:105970001092DA001092E10008951F920F920FB674
:105980000F9211242F933F934F935F936F937F93C5
:105990008F939F93AF93BF93EF93FF938091DA0020
:1059A00080FF15C08091D80080FF11C08091DA007F
:1059B0008E7F8093DA008091D90080FF05C081E05E
:1059C0008093B805CCDF03C01092B805C8DF809182
:1059D000E10080FF1DC08091E20080FF19C080912E
:1059E000E1008E7F8093E1008091E2008E7F8093C2
:1059F000E2008091E20080618093E2008091D80013
:105A000080628093D80019BC85E08093B805A7DF39
:105A10008091E10084FF29C08091E20084FF25C0CD
:105A200019BC89B5826089BD09B400FEFDCF8091A3
:105A3000D8008F7D8093D8008091E1008F7E809385
:105A4000E1008091E2008F7E8093E2008091E2008D
:105A500081608093E2008091B605882311F084E094
:105A600001C083E08093B8057ADF8091E10083FF75
:105A700023C08091E20083FF1FC08091E100877FF7
:105A80008093E10082E08093B8051092B605809182
:105A9000E1008E7F8093E1008091E2008E7F809311
:105AA000E2008091E20080618093E200A3DD42E0A9
:105AB00060E080E08CDD53DFFF91EF91BF91AF910B
:105AC0009F918F917F916F915F914F913F912F9116
:105AD0000F900FBE0F901F901895CF938091B8052F
