:1000000003C100001DC100001BC1000019C1000098
:1000100017C100000C94CB0D13C1000011C10000EA
:100020000FC100000DC100000BC100000C944A1666
:1000300007C1000005C1000003C100000C94640D5D
:10004000FFC00000FDC00000FBC000007FC3000037
:10005000F7C00000F5C00000F3C00000F1C00000D0
:10006000EFC00000EDC00000EBC00000E9C00000E0
:10007000E7C000008213B4139814B4139814FC134F
:100080002414981440146814427A06432502464DFD
:100090000852E80554311156E106572806588E09D2
:1000A00065A1066C690674E80375A20F78A40200C6
:1000B00000002A03430055004C0034003300330095
:1000C00000002A03430055004C0038003600380079
:1000D0000000160362007500730077006100720073
:1000E00065002E0064006500000004030904090295
:1000F00043000201008032090400000102020100F5
:10010000052400011005240103010424020605242E
:10011000060001070582030800FF09040100020A26
:1001200000000007050402400000070583024000AC
:10013000001201100102000008EB034B2000000137
:10014000020001202F2000203D2000072E050DD3A6
:1001500091FF080500000C0021656A2D3B1322F871
:1001600062073F181D1CC700B0876BF8B611EA2A5A
:10017000001F41000D2E2D07D3913D0432000006D3
:100180000021656A55E43023B900070018146C0794
:100190000090876BF85611E92A001F41002767502D
:1001A00081C25620312E36332043554C3836380024
:1001B0005620312E36332043554C34333300202F14
:1001C0002000203D20004C4F56460D0A00424F565D
:1001D000460D0A004E2F4100454F420D0A000053C4
:1001E0005300547D7DFFFF4B4B7E7E0020697320C2
:1001F000756E6B6E6F776E2920557365206F6E6517
:10020000206F66003F20280011241FBECFEFD2E0F0
:10021000DEBFCDBF11E0A0E0B1E0EAEEFEE202C039
:1002200005900D92AE30B107D9F722E0AEE0B1E013
:1002300001C01D92A037B207E1F70CD00C947317E0
:10024000DFCEF89481E085BF82E085BFE0E0F8E191
:10025000099508952FE088E190E00FB6F894A895ED
:10026000809360000FBE2093600090E080E80FB69E
:10027000F89480936100909361000FBE2E9A2D9A9E
:1002800004B603FE0AC083E390E089D4882329F0F2
:1002900060E083E390E07ED4D4DF89EF87BD84E023
:1002A00085BD82E084BD80936E00109280008AE05C
:1002B0008093810084B7877F84BF3C9A0E94561345
:1002C0006DD50E942E160E9421110E94740985E1AD
:1002D00093E19093E7018093E6010E94150F89E076
:1002E0008093110144980E94E01673D10E94F20A93
:1002F00085D20E94E20FF7CF292F33272230310514
:1003000059F02330310569F02130310539F582E1AA
:1003100090E021E331E026C083E490E02EEE30E06F
:1003200021C099278130910539F018F0029751F0DA
:1003300015C0EAEEF0E002C0E2EDF0E0849190E05A
:100340009F0110C01E9903C022EB30E002C022ECD6
:1003500030E0E2ECF0E0849190E004C080E090E0D6
:1003600020E030E0FA013183208308958EBD0DB482
:1003700007FEFDCF8EB508950F931F93CF93DF93A4
:10038000082F8A3018F4853018F001C008E00550B5
:100390008BE290E060E010E003561E4FEC012196E6
:1003A000F9D3C333D10541F0CC3219F4F80164918B
:1003B00001C060E0CE01F2CFDF91CF911F910F918C
:1003C0000895CF93DF9382E090E0FC01EE58FE4F5A
:1003D0006491EC012196DED3CB32D10511F0CE0130
:1003E000F4CF87E390E0FC01EC5EFE4F6491EC01FA
:1003F0002196D0D3C036D10511F0CE01F4CF1E998D
:1004000018C060E18FE090E0C5D360EB80E190E040
:10041000C1D361E781E190E0BDD360E184E490E085
:10042000B9D360EB85E490E0B5D361E786E490E072
:10043000B1D388E0A1DFDF91CF9108954598806C1A
:1004400095DF80E093DF459A0895A1E0B0E0EBE20C
:10045000F2E00C94351741E0BE016F5F7F4F0196CB
:1004600059D3892B21F18981893969F410E0812FD1
:10047000E5DF4CD3812F8770873009F4D3D21F5F1B
:100480001033A9F714C0DADF182F83E478D28981FA
:100490003DD387E491E0B9D2812F38D383E491E052
:1004A000B4D240E262E0812F90E0C0D2BBD221966C
:1004B000E3E00C945117459859DF459A0895EF925F
:1004C000FF920F931F93CF93DF93EC01EC983D9A2B
:1004D000459A8EE190E0E9D145988EE190E0E5D132
:1004E000459A8DE290E0E1D180E3E5DF84E690E09B
:1004F000DCD1459880E43ADF7E0189E2E80EF11C08
:100500008E010F5F1F4FCE014AD330DF0E151F053E
:1005100011F0E801F5CF459A45988EE727DF8BE289
:1005200090E0EC0121963BD321DFC333D10511F0DC
:10053000CE01F7CF459A83E3BEDF81E0BBD1CDB7D3
:10054000DEB7E6E00C944E17A1E0B0E0EAEAF2E094
:100550000C94361722E0298341E0BE016F5F7F4F84
:100560000196D8D2898108DF82E090E0A8DF219649
:10057000E2E00C945217CF93EC9886E39CDFCFEF28
:1005800085E399DFC1508077803229F08AE090E0DE
:100590008CD1C111F5CFCF910895CF93CFEF84E3E4
:1005A0008ADFC1508077803129F08AE090E07DD1E8
:1005B000C111F5CFEC9ACF91089586E37CDF1092BC
:1005C000E801089582E090E07ADF81E08093E8011D
:1005D000089580916702843009F061C08093E9003A
:1005E00080910E01811128C08091E80085FF24C010
:1005F0008091F200882331F06091F10080E392E075
:10060000EED3F6CF8091E800982F9B7F9093E8007F
:100610008F778093E80081E080930E0189EE92E06D
:100620009093E5018093E401E091E601F091E70108
:1006300081E0099510920E0183E08093E90080919A
:10064000FF01882361F18091E80085FF28C0F894BC
:100650008091FF01882351F08091F200803430F4C2
:100660008DEF91E0D2D38093F100F2CF7894909106
:10067000F2008091E800282F2E7F2093E8008F77EA
:100680008093E800903459F40E94EE148091E800C1
:10069000982F9E7F9093E8008F778093E8000895CD
:1006A00042E061EC82E00E949E1442E361E883E054
:1006B0000E949E1442E360E884E00E949E1410921F
:1006C000000110920101109202011092030108959D
:1006D0008091680290916902913229F0923261F121
:1006E000903299F512C0813A81F58091E800877FB8
:1006F0008093E80067E070E080E091E00E941715C9
:100700008091E800982F9B7F11C08132F1F4809195
:10071000E800877F8093E80067E070E080E091E088
:100720000E94B4158091E800982F9E7F9093E80076
:100730008F778093E8000895813239F48091E80042
:10074000877F8093E8000C94C81408951F920F923D
:100750000FB60F9211248F939F93AF93BF93809105
:10076000EA019091EB01A091EC01B091ED010196AD
:10077000A11DB11D8093EA019093EB01A093EC01C0
:10078000B093ED018091E9018F5F8093E901809141
:10079000FC018F3F19F081508093FC01BF91AF9114
:1007A0009F918F910F900FBE0F901F9018952FB7AC
:1007B000F8944091EA015091EB016091EC01709145
:1007C000ED01FC0140835183628373832FBF089541
:1007D000A4E0B0E0EEEEF3E00C943617CE01019603
:1007E000E6DF8C8193D18B8191D18A818FD18981F0
:1007F0008DD118D12496E2E00C9452178091EA0131
:100800009091EB01A091EC01B091ED0120911001CC
:10081000281709F449C08091EA019091EB01A09159
:10082000EC01B091ED0180931001A8958091FC013D
:10083000811102C00E940C128091F401882339F0CA
:1008400081508093F401811102C00E947310809145
:10085000E9018D3748F11092E9018091070181FF8C
:1008600004C088B190E1892788B98091EE01909108
:10087000EF01843823E0920728F401969093EF016A
:100880008093EE0180910F018F5F80930F018C3375
:1008900059F410920F018091F9018F5F8093F90153
:1008A0008C3310F01092F9010895880F991F019769
:1008B000F1F7089520ED37E0815020F0F9013197EC
:1008C000F1F7FACF0895CF93DF93DC0113968C9163
:1008D0001397843509F050C0CD010396CC91FD01EA
:1008E00070964DE04C1750F050E0D0E09E012F5034
:1008F00031094217530709F03FC005C021912B333E
:1009000099F34F5FEFCFFE013E97E80FF91F20816B
:10091000243591F514963C911497218132132CC003
:1009200015963C9115972281321326C016963C915C
:1009300016972381321320C017963C911797248174
:1009400032131AC06197C80FD91F858188838681A9
:10095000898381858A8382858B8383858C83848543
:100960008D8385858E838C918A508C9312968C9181
:1009700012978A5012968C93DF91CF910895CF935E
:10098000C82F80916702843089F48091110180FF23
:100990000DC08091FF01803308F01BDE6C2F8DEFBE
:1009A00091E01DD2CA3021F414DE02C081E001C002
:1009B00080E09091F7019923D9F09091110193FF74
:1009C00017C0CA30A9F0882399F0CD3011F46BE339
:1009D00001C06C2F8DEF91E002D2CD3019F48DEF74
:1009E00091E071DF83E08093F40182E08093F6016F
:1009F000CF910895CF93DF93EC018991882311F073
:100A0000BEDFFBCFDF91CF910895CF93DF93EC0151
:100A1000FE018491882319F0B2DF2196F9CFDF918E
:100A2000CF9108958DE0ABDF8AE0A9CFA6E0B0E0DA
:100A3000ECE1F5E00C943417062F1E8215E02AE055
:100A400030E01150E1E0F0E0EC0FFD1FE10FF11D8F
:100A5000B9010E940C17805D8083CB010150009783
:100A600069F01111EECF0AC0112359F01150E1E0E5
:100A7000F0E0EC0FFD1FE10FF11D4083015007FF77
:100A8000F3CF81E090E08C0F9D1F810F911DB2DFAD
:100A90002696E4E00C945017A5E0B0E0E2E5F5E01E
:100AA0000C9436171D8224E0382F3F702150E22F1E
:100AB000F0E03A3010F4305D01C0395CA1E0B0E004
:100AC000AC0FBD1FEA0FFB1F308334E0969587956E
:100AD0003A95E1F76150009739F7615067FD0BC017
:100AE000222349F02150E1E0F0E0EC0FFD1FE20F7E
:100AF000F11D4083F2CF81E090E08C0F9D1F820FAB
:100B0000911D78DF2596E2E00C94521740E362E0F5
:100B100090E0C2CFDC01FB0130E090E08D918823B2
:100B2000A9F0813608F0805220ED280F2A3030F0ED
:100B30002FEB280F263030F429EC280F292B3323F4
:100B400079F006C0803251F38A3341F3CF0105C0FA
:100B5000CF0101962083415041F4861B970B0895E5
:100B6000922F9295907F31E0D9CFFC01D5CF982F6D
:100B700092959F709A3010F4905D01C0995CFB01D2
:100B800090838F708A3010F4805D01C0895CFB0116
:100B9000818308950E946517F999FECF08950C94FA
:100BA0005D1708951F93CF93DF93162F11501F3FAA
:100BB00059F0EC012196F3DFA9DF112311F08AE34C
:100BC000DEDE1150CE01F3CFDF91CF911F9108955A
:100BD000A2E0B0E0EEEEF5E00C943317FC012181C9
:100BE0002D3421F466E08AEF91E005C0203529F428
:100BF00060E18AED91E0D6DF26C01A82198242E0D8
:100C0000BE016F5F7F4F019685DF098110E0823062
:100C100021F4102F00278A81082BC801C0DFF82E8D
:100C200082E5ADDE40E364E0C80136DF82EC91E0AE
:100C3000ECDE8F2D6BDF8EEB91E0E7DE40E262E0D1
:100C40008F2D90E0F3DEEEDE2296E5E00C944F1758
:100C5000A6E0B0E0EEE2F6E00C9430176C0143E061
:100C6000BE016F5F7F4F019655DF823070F1E980E2
:100C7000F12C823021F0FE2CEE242A81E22A8C0114
:100C80001127FE01E00FF11F6081C70183DF000F14
:100C9000111F0F5F1F4F0C0D1D1D8FEFE81AF80A73
:100CA000F8018081882389F041E0BE016F5F7F4FAA
:100CB000C80130DF892B49F06981C7016BDF0E5F06
:100CC0001F4FE2E0EE0EF11CEBCF2696E8E00C940D
:100CD0004C1741E067E071E001961CDF809107014D
:100CE00080FF02C0449A01C044986091070184E3E8
:100CF00090E050CFA1E0B0E0E0E8F6E00C943617C9
:100D00001982009731F041E0BE016F5F7F4F01967D
:100D100001DF8981882321F061E083E390E03ADFFD
:100D20000E94341610926E00F89428E088E190E05A
:100D30000FB6F894A895809360000FBE20936000D2
:100D4000FFCFCF93DF93EC0161E080E090E022DF02
:100D50006FE381E090E01EDF34DB60E080E690E04E
:100D600019DF60E081E690E015DF60E083E390E06A
:100D700011DF62E084E390E00DDF60E080E690E068
:100D800009DF60E081E690E005DF8981883719F0AE
:100D900080E090E0AFDFDF91CF91089580E090E0B8
:100DA000FEDE813029F481E090E0F9DE8F3319F026
:100DB00080E090E0C6DF84E390E0F1DE80930701FD
:100DC00008951E9903C080EB91E002C082EA91E091
:100DD0001CDE28CEFC011282108211820895FC01D3
:100DE0008FB7F8949281903370F49F5F9283208143
:100DF00091E0920F9083DF01A20FB11D13966C93C7
:100E0000903309F410828FBF0895FC019FB7F894C6
:100E10008281882371F081508283818121E0280FB3
:100E20002183DF01A80FB11D13968C91203309F4A3
:100E300011829FBF0895CF93C82F469A882319F037
:100E400088E592E002C080E991E02FDD4698CC234E
:100E500019F088E592E002C080E991E026DDCF91AB
:100E60000895A7E0B0E0E7E3F7E00C942A178C01BF
:100E7000B62E842FD22E7801E60EF11C462FB80133
:100E800062D2F701808361E06B0D1982402F480127
:100E9000A12C57E001E010E0882D841B861708F094
:100EA00060C0F401F1904F01A7E0B0E0C8010A2E44
:100EB00001C0880F0A94EAF78F2181F081E090E069
:100EC0008C0F9D1F8A0D911DFC0170819801052ECC
:100ED00001C0220F0A94EAF7722B7083552319F090
:100EE0002FEF250F0EC091E09A0D973008F4A92E30
:100EF00021E030E02C0F3D1F290F311DF901108238
:100F000027E0522F119790F68F2D082E829580257D
:100F1000082E8695869580258F5F81FF0FC0A1E002
:100F2000B0E0AC0FBD1FAA0DB11D3C91C801022E4F
:100F300001C0880F0A94EAF7382B3C93222319F05A
:100F40005FEF520FA9CF81E08A0D873008F4A82EF9
:100F5000A1E0B0E0AC0FBD1FA80FB11D1C9257E07F
:100F60009BCF552319F01FEF150F02C0A39417E074
:100F7000B12C2091EE013091EF01B5016E5F7F4FF2
:100F80008D2D0E94F216992787FD90952817390715
:100F900020F486EC91E039DD63C0281B390B3093D7
:100FA000EF012093EE01449A8091E801811101C084
:100FB00009DBE1DAEE24E394F12C812E912C1CE084
:100FC00080E039DF1150E1F781E035DFC12C4C2D95
:100FD000552747FD50954A155B054CF097E0792E53
:100FE00001E010E00C0F1D1F040F151F18C007E0D3
:100FF00010E066246394712C6C0E7D1E640E751EC9
:10100000C701002E01C0880F0A94EAF7F30190810E
:10101000892311DF0150110998F7C394D8CF872D88
:10102000992787FD90958816990664F4C701072CC7
:1010300001C0880F0A94EAF7F80190818923FBDE4A
:101040007A94EDCF8AE036DCDA9409F0B8CF80915B
:10105000F101882311F0A1DA02C086E32CDA44986A
:101060002796EEE00C944617A7E0B0E0EAE3F8E03C
:101070000C943517162F242F45E0BE016F5F7F4F6C
:1010800001962F8347DD2F81412F682FCE010196D6
:10109000E8DE2796E3E00C94511743E066E0E4CFE6
:1010A0008F929F92AF92BF92DF92EF92FF920F9337
:1010B0001F93CF93DF931092260110923301FC010E
:1010C0002181220F220F220F3381231B57E0520F61
:1010D0001092270110E070E038E0D32ED20EFF24EA
:1010E000F39447E007E0E12CC7E0D0E0A1E0B0E0F6
:1010F000FD1409F47FC0FC01EE0DF11D248130E0E8
:10110000002E02C0359527950A94E2F72170332707
:10111000E22F002311F0015002C0E39407E06B348A
:1011200071F4433009F04AC0111107C0E1115FC0EA
:10113000109226017093330174C010E041C04F3FFC
:1011400031F56634A9F4E72FF0E0E95DFE4FE08168
:101150000E2EE295E0250E2EE695E695E025EF5F52
:10116000E1FB882480F8912C8216930641F004C09C
:10117000653429F4E11103C010932601DBCF7F5FB2
:10118000E72FF0E0E95DFE4F108247E031C0EE232B
:1011900061F1663471F4E72FF0E0E95DFE4FA08065
:1011A0009D01042E01C0220F0A94EAF7A22AA08210
:1011B0001CC0653439F06B34C1F404C04F3FD1F228
:1011C000EE2399F0E72FF0E0E95DFE4F9E01241B2E
:1011D000310947FD33955D0102C0AA0CBB1C2A955D
:1011E000E2F795013081322B3083415001C011E08C
:1011F000F3947ECF10932601709333015F1588F42A
:10120000653431F44F3F21F47F5F7093330104C0A4
:10121000809126018111F8CF81E0909133019111E5
:1012200001C080E0DF91CF911F910F91FF90EF906F
:10123000DF90BF90AF909F908F90089510926F00B5
:101240008091360190E064E170E00E94FB16895CB9
:101250009E4FFC0110820895FC0121812C3008F082
:10126000EDCF3381662381F081E090E0032E01C051
:10127000880F0A94EAF7DF01A20FB11D14969C9122
:101280001497982B14969C93332319F03150338381
:10129000089587E083832F5F2183E20FF11D14827D
:1012A0000895DC011196EC911197F0E050E02C913B
:1012B000CF01841B950B0B964797A0F430E070E0AC
:1012C000C901861B970B0B96479760F42E0F3F1FA3
:1012D000640F751F261B370B255F3F4F81E02731B9
:1012E000310508F080E008953E9A46983F98EAE676
:1012F000F0E080818160808382EC91E09093EF0147
:101300008093EE0110924B011092E80108958091B4
:10131000F101882311F056D940C94FC9FC01218140
:1013200021110BC08091F101F1DB40E265E0809179
:10133000EE019091EF017ADB75CB41E061EF71E056
:101340000196E8DBE4CF442339F04150FB01E40F80
:10135000F11D9081890FF7CF089520E0662339F0C1
:101360006150FC01E60FF11D30812327F7CF822F5A
:101370000895A091260140E035E020E0662399F031
:101380006150FC01E60FF11D5081752F72957F7041
:101390002727370FAA2311F0442319F05F70252760
:1013A000350F4F5FEBCF822F830F8295807F822B8B
:1013B0000895FC0132812381A081B181A30FB11D69
:1013C0008C9190E0022E02C0959587950A94E2F7E1
:1013D000817099274FEF420F4383211104C03F5F73
:1013E000328327E023830895A2E0B0E0EAEFF9E03A
:1013F0000C942E177C01A12CB12CD12CCC24C3949D
:10140000062F10E001501109A616F0F4C7014A8317
:101410006983CFDF4A816981882391F0442349F0B1
:1014200098012A193B098C2D01C0880F2A95EAF7EB
:1014300006C08C2D0A2C01C0880F0A94EAF7D82A1E
:101440008FEFA81AB80AE0CF8D2D2296EAE00C940F
:101450004A17A4E0B0E0EFE2FAE00C942D171B82EB
:1014600027E02C839C012C5F3F4F3A832983109205
:101470003301FC01218130E043E0220F331F4A9504
:10148000E1F7438187E090E0841B9109280F391F21
:10149000253431050CF44EC0B12CA0903301F5E099
:1014A000FA1558F10A2D10E040E068E0CE010196EF
:1014B0009BDF095D1E4FF8018083982E092C9294C2
:1014C0009024092C969496949024CE01019671DF75
:1014D000939491FACC24C0F8D12C90E0C816D90688
:1014E00049F5CE01019665DF811124C0F8018081A4
:1014F000B826A394A0923301D0CF40E068E0CE019B
:10150000019672DF082F182F012E12951025012E3B
:10151000169516951025CE0101964BDF1F5F11FB26
:10152000EE24E0F8F12C282F30E0E216F30611F457
:1015300081E0B01280E02496EBE00C944917A4E01F
:10154000B0E0E5EAFAE00C9433171B8227E02C8325
:101550009C012C5F3F4F3A832983FC012181243079
:10156000A1F58381813089F5109233018091330197
:10157000082F10E0FF24F394F80E41E0843098F433
:10158000811106C067E0CE0101962EDF806804C09D
:1015900068E0CE01019628DFF801E95DFE4F808307
:1015A000F0923301E3CF67E0CE0101961DDFF80131
:1015B000E95DFE4F880F8083F092330190912701FF
:1015C00092959F7081E09A3009F080E02496E5E0E2
:1015D0000C944F178091F00180FD03C084608093CC
:1015E000F0010895A1E0B0E0E8EFFAE00C943217C2
:1015F000198280911301882391F18091F10187FF75
:1016000016C084E30E941E028058803458F0803C4B
:1016100058F490E080559109A3E095958795AA9597
:10162000E1F703C080E001C08FE08F59A8D9809115
:10163000F10183FF12C082E7A2D98091F10184FFFA
:1016400003C0809114019BD986E699D98091F1015C
:1016500084FF03C08091130192D9109213018091ED
:101660003401882309F42CC2449A8091350190E01A
:1016700064E170E00E94FB168C01095C1E4F8981B9
:10168000811139C066E4C8010BDD8823A1F1F09017
:101690003301FA94F09233014F2D67E271E086E056
:1016A00052DEEF2DF0E0E95DFE4FE0808E1105C0C7
:1016B00093E09F1510F486E41BC0282F30E02F5FC5
:1016C0003F4F6E2D70E02617370739F493E09F15D2
:1016D00020F496E4998380830EC04F2D67E271E079
:1016E0008CE031DE8E1106C0E3E0EF1518F484E5DE
:1016F000898301C019828981811116C065E4C801FE
:10170000CFDC882389F080913301815080933301AD
:10171000893051F469E087E291E01FDE9091300159
:10172000891302C085E489838981811106C0C801BB
:1017300090DE882311F088E489838981811106C0B5
:10174000C801FDDE882311F084E789838981811136
:1017500033C0F801438960911401C8014296A1DDAC
:10176000682FC80179DD6BE4C8019ADC8823B1F0E9
:10177000F0903301FA94F09233016F2D87E291E0FB
:10178000F8DDEF2DF0E090912601E91BF109E95D0C
:10179000FE4F9081891302C08BE489838981811176
:1017A0000BC0F801838191E0980F9383873021F477
:1017B0001382818181508183898181112DC0F8013B
:1017C0008181843049F58381843031F54EE16CE3C9
:1017D000C801409666DD8823F9F04EE1609114015E
:1017E000C80142965EDD682FC80136DD20E0822FF9
:1017F00090E0FC01E95DFE4FD801A80FB91F1496D7
:101800008C91808381E0820F853010F4282FEFCFF8
:101810008093330182E589833981332309F4C5C07C
:101820002091F10120FFC1C08091F0018E7F8B7F5C
:101830008093F00121FD64C050912501F0903301A7
:101840005F113DC040E04517C0F4842F90E061E097
:10185000640FFC01E75EFE4FDC01A95DBE4F7081A5
:101860008C91781741F0409325018091F0018D7F94
:101870008093F00104C0462FE6CF40932501451325
:101880001EC04091EA015091EB016091EC01709112
:10189000ED018091150190911601A0911701B09171
:1018A0001801481B590B6A0B7B0B46325105610529
:1018B000710528F48091F00181608093F00140E08F
:1018C0004F1560F4842F90E0FC01E75EFE4FDC01D1
:1018D000A95DBE4F8C9180834F5FF2CF409325016D
:1018E0008091EA019091EB01A091EC01B091ED01A2
:1018F0008093150190931601A0931701B0931801DE
:101900003435E9F426FD1BC0809133018530B8F0F1
:10191000809129018B3471F0893661F09DEA980F2E
:10192000923040F08D57823028F080912A018077E4
:10193000803729F48091F00181608093F001B80133
:10194000CE01019647DE8091F00182FF2EC0898191
:1019500016D880912601882329F080913301815087
:1019600080933301F12CE0913301FE1640F4EF2D0A
:10197000F0E0E95DFE4F8081C9D8F394F4CF809107
:101980002601882349F0F0E0E95DFE4F80818F70E9
:1019900040E361E090E080D88091F10185FF04C0D0
:1019A00084E30E941E02B2D83DD88091F10182FFEB
:1019B0006FC080E70E94BF04F801808140E262E0CE
:1019C00090E034D8F801808990E040E265E054E08E
:1019D000880F991F5A95E1F729D8F801818990E07D
:1019E00040E265E074E0880F991F7A95E1F71ED810
:1019F000F801828990E040E265E0E4E0880F991FF9
:101A0000EA95E1F713D8F801838990E040E265E0B8
:101A1000F4E0880F991FFA95E1F708D8F801828160
:101A200040E263E090E002D8F801818140E263E0A7
:101A300090E00E941605F801238140E262E087E011
:101A400090E0821B91090E94160580E20E94BF046B
:101A50008091F10185FF07C084E30E941E0256D8E1
:101A600080E20E94BF04F8018381873019F08181F0
:101A70008F5F8183F12CF8018181F81638F4F80129
:101A8000EF0DF11D848142D8F394F5CF0E94120529
:101A9000F80110828091340181508093340180914B
:101AA00035018F5F823019F08093350102C01092AA
:101AB000350144988981843519F487E291E0BBD4DB
:101AC0002196E6E00C944E171F920F920FB60F92DC
:101AD00011242F933F934F935F936F937F938F9333
:101AE0009F93AF93BF93EF93FF9310926F008091FA
:101AF000F10183FF03C08EE20E94BF0440913601D2
:101B0000242F30E0C90164E170E00E94FB16895C7B
:101B10009E4FFC018081833018F08181823010F467
:101B20008DDB18C080913401813049F48091F1013E
:101B300082FFF6CF8DEC91E00E940505F1CF8F5F1B
:101B4000809334014F5F423019F04093360102C058
:101B500010923601FF91EF91BF91AF919F918F91BC
:101B60007F916F915F914F913F912F910F900FBE99
:101B70000F901F9018959BED980F973150F496EFAA
:101B8000960F9D3130F491E0681708F090E0892FAE
:101B9000089580E008951F920F920FB60F921124BE
:101BA000FF920F931F932F933F934F935F936F93E6
:101BB0007F938F939F93AF93BF93CF93DF93EF93D5
:101BC000FF938091F501823021F483E08093F50149
:101BD00001C10091840010918500B4E0169507952D
:101BE000BA95E1F78091360190E064E170E00E94DF
:101BF000FB16EC01C95CDE4F8881843031F40E3273
:101C000008F4E8C00F3408F086C037990CC084305F
:101C100039F461E0CE0120DB10928500109284003F
:101C200000931401D7C080911401081B0093130185
:101C300010928500109284008881843021F460E045
:101C4000CE010ADBC7C082E086BBF8800091140198
:101C5000F1100FC0053608F0BDC080911301853624
:101C600008F0B8C0088B898B81E08A8382E0888382
:101C7000B1C01091130182E0412F602FF8125BC0B8
:101C8000CE0140960EDB6A818823F9F0488950E046
:101C90009A01220F331F240F351F200F311D359558
:101CA000279535952795288B298930E0C901880F1C
:101CB000991F820F931F810F911D9595879595957B
:101CC0008795898B6F5F6A8385C0643090F180EA65
:101CD0009FE090938900809388008A818C3050F037
:101CE0008889298930E0280F311D2536310514F007
:101CF00084E014C08091F301882379F0612F802F54
:101D00003ADF882351F06889898935DF882329F0F3
:101D100081E08093F50192DA5DC083E088830A8BCD
:101D20001B8B198287E08B831C8282E080936F007B
:101D300051C018828FCFCE014296B3DA882301F1C9
:101D400061E0CE0189DA4A8950E09A01220F331FFF
:101D5000240F351F200F311D359527953595279573
:101D60002A8B2B8930E0C901880F991F820F931F9E
:101D7000810F911D95958795959587958B8B2AC099
:101D8000412F602FCE0140968CDA882301F160E06C
:101D9000CE0162DA488950E09A01220F331F240FE6
:101DA000351F200F311D3595279535952795288BA3
:101DB000298930E0C901880F991F820F931F810F75
:101DC000911D9595879595958795898B03C087E09B
:101DD000F812A1CFFF91EF91DF91CF91BF91AF9119
:101DE0009F918F917F916F915F914F913F912F9133
:101DF0001F910F91FF900F900FBE0F901F9018959D
:101E00008091360190E064E170E0F5D7895C9E4FE7
:101E1000FC018081811107C081E09091FC019F3F0E
:101E200019F480E0089581E0089580E690E00E9432
:101E3000CF058093F30181E690E00E94CF05809367
:101E4000F701882321F081E28093F10160CA0895AF
:101E5000469A0C94550446980C945504A7E0B0E0BB
:101E6000E3E3FFE0FEC795E79983882399F0BE017D
:101E70006E5F7F4F8091F7010E94B705BE016C5FD6
:101E80007F4F8091F3010E94B70585E58E8386E040
:101E9000D82E02C0DD24D3940E94E2020E94BB022D
:101EA00016E080E891E0D4DF80E093E0D4DF1150C9
:101EB000C1F780E093E0CCDF80E891E0CCDF80E800
:101EC00091E0C6DF469887E390E00E945F0283E0DE
:101ED0000E945A0445988FE70E94B6018091FF0145
:101EE0008D0D0E94B601CE0101967C018C01F80196
:101EF00081918F010E94B601802F8E198D15B8F344
:101F00008091FF01882339F08DEF91E00E94050751
:101F10000E94B601F5CF459A0E94BB028DEF91E079
:101F20000E94EA0615E18AE30E941E028F7731F0D3
:101F3000115021F081E00E945A04F5CFE8D927968C
:101F4000E7E0ABC7CF93DF93EC01898181110BC030
:101F50008091F3010E9486058091F7010E94860519
:101F60000E9412052CC08936D9F441E063EF71E07C
:101F7000CE0102960E948A056091F30180E690E00E
:101F80000E94CA0541E067EF71E0CE0104960E940D
:101F90008A056091F70181E690E00E94CA050FC0B2
:101FA0008DEF91E00E94EA0621966991662329F05F
:101FB0008DEF91E00E94EF06F8CF80E04FDFDF91D8
:101FC000CF910895A1E0B0E0E7EEFFE049C780912E
:101FD000F501882309F484C0C090EA01D090EB0198
:101FE000E090EC01F090ED01833009F060C08FE3E8
:101FF0000E941E02182F8630C8F080E392E00E94F3
:10200000EA0645988FEF0E94B60180E00E94B60173
:10201000082F115049F080E00E94B601682F80E33C
:1020200092E00E94EF06F5CF459A01C000E06FD91B
:102030001092F501053709F053C041E0BE016F5F12
:102040007F4F83E392E00E948A05019759F59981B9
:102050008091F301981326C080913702853571F481
:1020600080913202882339F080E392E00E940507D4
:102070000E94BF04F5CF0E94120532C08091320247
:1020800084508093320284E0809331026AE080E3DE
:1020900092E00E94EF06E091E601F091E70188E00E
:1020A00009951EC080E392E00E94EA0619C08230C2
:1020B00051F48091F2019C2D981B983088F027D91B
:1020C0001092F5010DC0813059F487E390E00E9431
:1020D0005F020E94CD0282E08093F501C092F2017E
:1020E0002196E8E0D9C68CDE882319F083E080933E
:1020F000F6018091F60181508093F601882321F04A
:1021000083E08093F401089581E0A8CE1092FA0153
:102110001092B10183E080935F018FEF8093FC0107
:102120000895E0E6F1E02081211105C0892BB1F08E
:1021300080E090E00895B1E0EA3AFB07B8F7009735
:1021400051F04181DC013C91431305C0428111965D
:102150003C91431751F0E20FF11DE5CF31E0EA3A2F
:10216000F30719F010F0EAEAF1E0CF0108958BEAE5
:1021700091E0D7DF009799F020915F01FC01308159
:10218000231768F4E20FF11D80818093AD0189E788
:102190008093AE0181818093AF0181E0089580E05A
:1021A0000895EF92FF921F93CF93DF931F92CDB7C5
:1021B000DEB7182F8091F10186FF18C084E599835E
:1021C0000E94BF04E12E9981F92E15E0F70181915B
:1021D0007F010E9486051150C9F78091F10185FFAA
:1021E00003C08AEF0E9486050E9412050F90DF91BE
:1021F000CF911F91FF90EF90089586E30E945B02BC
:102200008091AD01833511F48BE901C08BE40E940C
:102210005A0421E04CE065E08BEA91E00E9431072E
:102220000E94CD028BEA91E0BCCFE7DF8091AD0147
:10223000893631F081E08093AA0189E28093FC0124
:10224000089585E390E00E94CF058093F80186E32E
:1022500090E00E94CF058093FB0158DF109260014F
:102260000895A7E0B0E0E6E3F1E1F9C56C018C0167
:102270000F5F1F4F45E0BE016F5F7F4FC8010E9497
:102280008A05843008F07BC099819130A9F48330AD
:1022900061F46A8185E390E00E94CA056B8186E360
:1022A00090E00E94CA05CDDFB4C08091F8010E9481
:1022B00086058091FB015EC0923009F051C08130EB
:1022C00039F081E09A81913009F080E0F82E02C067
:1022D000FF24F39480916001811104C084ED91E0AA
:1022E0000E94050500E611E0F8018081882309F4C9
:1022F00043C0F1E00A3A1F0708F03EC081E0003613
:10230000180719F080E20E94BF04F80181810E9441
:102310008605F80182810E948605FF20E1F08AE3AC
:102320000E94BF0493E0F80180819817A0F49430D4
:1023300038F090FF05C08CE29F830E94BF049F810C
:10234000EE24E394E90EF801E90FF11D80810E946B
:1023500086059E2DE8CFF8018081080F111DC4CF9E
:10236000933051F480E090E0DCDE805691409AE4B6
:10237000981B892F0E9486050E9412054AC080E0A2
:1023800090E0CFDE7C01F80101900020E9F7319761
:10239000E01BF10BF695E795BB24B394BE0E9701B5
:1023A0002B0D311D205631402B34310574F5F701CA
:1023B000B1928F0121E0822F880F81502B15D8F424
:1023C00041E0B801F601E80FF11DCF012F830E9413
:1023D0008A052F81233058F020FD09C0D8011197BC
:1023E0008C91843621F4F80180818093F9012F5F6C
:1023F0000F5F1F4FE0CFFAEAEF16F1E0FF0648F457
:10240000F701E20FF11D108204C088ED91E00E94F7
:1024100005052796E9E03FC58091AA01882351F080
:10242000ECDE89E28093FC018091AA0181508093C7
:10243000AA0108956BCEFF920F931F93CF93DF9362
:10244000FC01F0800181C281D38114818FE58093EA
:10245000FC011092AA018091F801811105C08091C0
:10246000FB01882309F4A9C08091AB018F1104C03E
:102470008091AC01801729F049DEF092AB01009306
:10248000AC018091FA018F3F09F497C0C093AD0170
:10249000D093AE011093AF01CC23F1F081111CC099
:1024A0008091F801181761F0143651F08DEA8C0F05
:1024B000823010F0CD3739F48FEF8093FA017DC070
:1024C000C43509F47AC08D2F807F803609F075C03D
:1024D000D067D093AE0157C04ADE811105C080910C
:1024E000FA01882309F469C08091B101811107C004
:1024F000E091FA01F0E0E252FE4FE49101C0E82FD2
:10250000E33541F4C43531F49091FA019E5F909324
:10251000FA0104C0EC1711F0F9DD4FC0882369F00F
:1025200080915F018E5F80935F0121DE81110EC07B
:102530008091FA018E5F8093FA018091FA01E82F71
:10254000F0E0E152FE4F14911F3F59F48091AD012C
:102550008093B1018436B9F48091F9018093AF0181
:1025600012C01093AD0197E79093AE019091F801DE
:102570009093AF018E5F8093FA011092B1018E307B
:1025800021F01123D1F051DE18C08BEA91E0C9DDB2
:10259000DC01009781F02C9130E08AEA91E0821B07
:1025A000930BA817B90730F4ED01C20FD31F488170
:1025B0004D93F7CF1C92AADDE4CFCDB7DEB7E5E0AF
:1025C0006EC40F931F93CF93DF93EC0110E0212F84
:1025D00030E0C90163E070E00ED488579F4FFC01E2
:1025E0000491C90163E070E006D487579F4FFC0156
:1025F00025913491002399F0209739F480E20E94CC
:10260000BF04802F0E94BF0408C08881801305C0CA
:10261000CE01F901099581E003C01F5FD8CF80E0AA
:10262000DF91CF911F910F910895CF93C091110128
:1026300080931101809132028823A1F180E392E01E
:102640000E940507E091B2018A3011F08D30F9F453
:10265000EE2381F3F0E0ED54FE4F108283EB91E026
:10266000B0DF811111C084E092E00E94050583EB88
:1026700091E00E94FA048CEE91E00E94050580E052
:1026800090E09FDF0E9412051092B201D3CFE03399
:1026900088F691E09E0F9093B201F0E0ED54FE4F6A
:1026A0008083C8CFC0931101CF910895E4E6F0E094
:1026B00080818B7F8083299A84B1876084B9239835
:1026C00080E58CBD8DB581608DBD0895A2E0B0E040
:1026D000EBE6F3E1CBC3E8E6F2E08091F100819311
:1026E00082E0E037F807C9F720916802309169026B
:1026F000832F90E08A30910508F01AC1FC01E65C56
:10270000FF4F9EC3203879F0223809F011C1809123
:102710006C028093E9008091EB0085FB882780F9AB
:102720001092E90006C080916302909164029111B9
:1027300082609091E800977F9093E8008093F10089
:102740001092F1008091E800982F9E7F9093E8000E
:102750008F778093E8008091E80082FDAFC0809180
:1027600067028111F8CFD5C0822F8D7F09F0E0C0BC
:10277000222319F0223061F033C080916A02813047
:1027800009F0C7C0333009F080E08093640228C0AC
:1027900080916A02811124C020916C02277009F493
:1027A000B8C02093E9008091EB0080FF19C08091B0
:1027B000EB00313091F480618093EB0081E090E098
:1027C000022E01C0880F0A94EAF78093EA00109263
:1027D000EA008091EB00886001C080628093EB008A
:1027E0001092E9008091E800877F8093E800809153
:1027F000E800982F9E7F66C021119AC020916A023E
:102800008091E800877F8093E8009091E800892F0D
:102810008E7F8093E8009F779093E8008091E80096
:1028200080FD05C0809167028111F8CF72C0822FB0
:102830008F77982F90689093E300882309F469C0FC
:1028400083E08093670265C02058223008F070C092
:10285000AE014F5F5F4F60916C0280916A02909170
:102860006B020E947C01009709F453C02091E8009C
:10287000277F2093E800BC0189819A8126D11EC060
:10288000203809F055C08091E800877F8093E800E8
:10289000809165028093F1008091E800982F9E7FDF
:1028A0009093E8008F778093E8008091E80082FDA4
:1028B00005C0809167028111F8CF2BC08091E8009C
:1028C000982F9B7F9093E8008F778093E80021C03A
:1028D00021112EC090916A029230D8F48091E800C4
:1028E000877F8093E800909365028091E800982F9D
:1028F0009E7F9093E8008F778093E8008091650237
:10290000882311F084E001C083E0809367020E9475
:1029100050038091E80083FF0EC08091EB0080623D
:102920008093EB008091E800877F8093E80003C0EC
:102930000E946803EECF2296E2E0B4C28093E900E1
:10294000EBEEF0E0808181608083EDEEF0E01082BC
:102950006093EC0040838091EE00881F8827881FD9
:1029600008951092F40080E08093E9001092F00046
:102970001092E8009091ED009D7F9093ED00909172
:10298000EB009E7F9093EB008F5F853069F7089591
:102990008091680287FD05C08091E80080FF0FC02C
:1029A00013C08091E80082FD05C08091670281110B
:1029B000F8CF08958091E800982F9B7F09C08091FF
:1029C00067028111E9CF08958091E800982F9E7FDA
:1029D0009093E8008F778093E800089585E69091C2
:1029E000EC0090FF05C09091E80090FF05C019C071
:1029F0009091E80092FD15C090916702992399F09B
:102A00009091EB0095FD11C09091E10092FFE7CF0E
:102A10009091E1009B7F9093E100815001F783E06A
:102A2000089580E0089582E0089581E0089540913E
:102A30006E0250916F029B014617570708F49A01E6
:102A400040E021153105A9F15091E80053FD39C04E
:102A50005091E80052FF06C08091E80082FF2CC030
:102A600080E0089550916702552369F15091E80084
:102A700050FFE7CFFC01CF012115310551F0409106
:102A8000F200483030F481918093F10021503109F7
:102A9000F2CF5091F20041E0583009F040E05091FF
:102AA000E800652F6E7F6093E8005F775093E80041
:102AB000C8CF4111C9CFD0CF809167028111CCCF4F
:102AC00002C081E0089582E0089540916E02509125
:102AD0006F029B014617570708F49A0140E0211541
:102AE0003105B1F15091E80053FD3AC05091E80032
:102AF00052FF06C08091E80082FF2DC080E008955B
:102B000050916702552371F15091E80050FFE7CFD3
:102B1000FC01CF012115310559F04091F2004830F8
:102B200038F484918093F100215031093196F1CF2E
:102B30005091F20041E0583009F040E05091E80037
:102B4000652F6E7F6093E8005F775093E800C7CFF2
:102B50004111C8CFCFCF809167028111CBCF02C086
:102B600081E0089582E008956115710571F1209169
:102B7000E80023FD2FC020916702222379F12091E4
:102B8000E80022FFF4CFFC018091F200882371F06D
:102B90009F012F5F3F4FC9014091F1004083615079
:102BA00071096115710519F0F901EECFCF0120917E
:102BB000E800322F3B7F3093E8002F772093E80026
:102BC000D3CF80916702882349F08091E80080FF8D
:102BD000F8CF02C081E0089580E0089582E0089572
:102BE00053D055D010926702109265021092640281
:102BF0001092630219BC89B5826089BD09B400FED8
:102C0000FDCF8091D800982F9F779093D80080684F
:102C10008093D800809163008E7F809363008091C1
:102C2000D8008F7D8093D8008091E0008E7F8093C4
:102C3000E0008091E1008E7F8093E1008091E200CE
:102C400081608093E2008091E100877F8093E100C2
:102C50008091E20088608093E2000895C1DF81E006
:102C60008093660278940895BBDFE0EEF0E0808107
:102C700081608083E8EDF0E080818F77808319BCEC
:102C800010926602089508951092E200089510923D
:102C9000E10008951F920F920FB60F9211242F9307
:102CA0003F934F935F936F937F938F939F93AF93D4
:102CB000BF93EF93FF938091E10080FF1CC0809150
:102CC000E20080FF18C08091E1008E7F8093E100D8
:102CD0008091E2008E7F8093E2008091E20080612B
:102CE0008093E2008091D80080628093D80019BC64
:102CF00010926702C8DF8091E10084FF29C08091B3
:102D0000E20084FF25C019BC89B5826089BD09B481
:102D100000FEFDCF8091D8008F7D8093D8008091F8
:102D2000E1008F7E8093E1008091E2008F7E8093AE
:102D3000E2008091E20081608093E2008091650270
:102D4000882311F084E001C081E0809367029BDF5B
:102D50008091E10083FF23C08091E20083FF1FC0C8
:102D60008091E100877F8093E10082E08093670299
:102D7000109265028091E1008E7F8093E100809146
:102D8000E2008E7F8093E2008091E2008061809378
:102D9000E200E7DD42E060E080E0D0DD74DFFF913B
:102DA000EF91BF91AF919F918F917F916F915F91C3
:102DB0004F913F912F910F900FBE0F901F9018953C
:102DC000CF9380916702882359F0C091E900C770C2
:102DD0001092E9008091E80083FD78DCC093E9005F
:102DE000CF910895002480FD060E660F11F08695A0
:102DF000D1F7802D08950024552704C0080E591FCF
:102E0000880F991F009729F076956795B8F371059B
:102E1000B9F7802D952F0895AA1BBB1B51E107C060
:102E2000AA1FBB1FA617B70710F0A61BB70B881F5A
:102E3000991F5A95A9F780959095BC01CD010895E9
:102E4000EE0FFF1F0590F491E02D09942F923F9211
:102E50004F925F926F927F928F929F92AF92BF92AA
:102E6000CF92DF92EF92FF920F931F93CF93DF9356
:102E7000CDB7DEB7CA1BDB0B0FB6F894DEBF0FBEB3
:102E8000CDBF09942A88398848885F846E847D8400
:102E90008C849B84AA84B984C884DF80EE80FD8002
:102EA0000C811B81AA81B981CE0FD11D0FB6F89478
:102EB000DEBF0FBECDBFED010895F999FECF92BDE3
:102EC00081BDF89A992780B50895262FF999FECFEC
:102ED0001FBA92BD81BD20BD0FB6F894FA9AF99A37
:0A2EE0000FBE01960895F894FFCF8D
:0E2EEA00802500000000080200007002200099
:00000001FF
