:1000000025C100003FC100003DC100003BC1000010
:1000100039C100000C94AE0D35C1000033C10000A1
:1000200031C100002FC100002DC100000C945C17ED
:1000300029C1000027C1000025C100000C94570D04
:1000400021C100001FC100001DC10000C0C300008D
:1000500019C1000017C1000015C1000013C1000044
:1000600011C100000FC100000DC100000BC1000054
:1000700009C100009414C614AA15C614AA150E15B9
:100080003615AA1552157A15421A0643C10265445F
:100090000646550868580869CA116C0906528B054E
:1000A00054BD13742204567C0657CB0558D10978E9
:1000B00088025A25110000002A03430055004C0015
:1000C00034003300330000002A03430055004C0085
:1000D0005F004D00580000001603620075007300B9
:1000E00077006100720065002E006400650000006A
:1000F00004030904090243000201008032090400DC
:100100000001020201000524000110052401030181
:10011000042402060524060001070582030800FFE7
:1001200009040100020A0000000705040240000063
:10013000070583024000001201100102000008EBD5
:10014000034B20000001020001202F2000203D2051
:10015000000D2E2D07D3913D0432000006002165CD
:100160006A55E43023B900070018146C0700908723
:100170006BF85611E92A001F410027675081C256CB
:1001800020312E36372043554C5F4D5800562031D4
:100190002E36372043554C34333300202F20002097
:1001A0003D20004C4F56460D0A00424F56460D0A60
:1001B000004C454E4552520D0A004C4F56460D0A12
:1001C000004C454E4552520D0A000007024604C637
:1001D00005260B0610C81193120313221534173F7E
:1001E000182819161B432156250026110D210E65CE
:1001F0000F6A070C160720F81E871F6B29592C81E0
:100200002D353EC3FF000D2E2D07D3913D04320046
:1002100000060010B07155E43023B900070018142F
:100220006C070090876BF85611E92A001F410020E7
:10023000697320756E6B6E6F776E2920557365201C
:100240006F6E65206F66003F2028000011241FBEDE
:10025000CFEFD2E0DEBFCDBF11E0A0E0B1E0E4E33C
:10026000F1E302C005900D92AA31B107D9F722E05F
:10027000AAE1B1E001C01D92A336B207E1F70CD0AC
:100280000C949818BDCEF89481E085BF82E085BFBC
:10029000E0E0F8E1099508952FE088E190E00FB6DD
:1002A000F894A895809360000FBE2093600090E0C2
:1002B00080E80FB6F89480936100909361000FBEC0
:1002C0002E9A2D9A04B603FE0AC083E390E00AD466
:1002D000882329F060E083E390E0FFD3D4DF89EF47
:1002E00087BD84E085BD82E084BD80936E0010925E
:1002F00080008AE08093810084B7877F84BF3C9A26
:100300000E946814E6D40E9440170E94B0130E9415
:10031000B7098DE194E19093C3018093C20181E01C
:1003200080931D0144980E94F21794D10E94EA0A1A
:100330009FD20E94AF10F7CF292F332722303105EB
:1003400059F02330310569F02130310539F582E16A
:1003500090E027E331E026C083E490E024EF30E032
:1003600021C099278130910539F018F0029751F09A
:1003700015C0E0EFF0E002C0E8EDF0E0849190E01D
:100380009F0110C01E9903C028EB30E002C028EC8A
:1003900030E0E8ECF0E0849190E004C080E090E090
:1003A00020E030E0FA013183208308958EBD0DB442
:1003B00007FEFDCF8EB508950F931F93CF93DF9364
:1003C000082F8A3018F4853018F001C008E0055075
:1003D0008BE290E060E010E006581E4FEC012196A1
:1003E0007CD3C333D10541F0CC3219F4F8016491C8
:1003F00001C060E0CE01F2CFDF91CF911F910F914C
:100400000895CF93DF9382E090E0FC01E15BFE4F23
:100410006491EC01219661D3CB32D10511F0CE016C
:10042000F4CF1E990CC060E18FE090E056D360EBF2
:1004300080E190E052D361E781E190E04ED388E023
:10044000BBDFDF91CF9108954598806CAFDF80E0EE
:10045000ADDF459A0895A1E0B0E0E1E3F2E00C944D
:100460005B18459880646983A1DF6981862F9EDFD0
:10047000459A2196E2E00C947718459897DF459AC3
:100480000895EF92FF920F931F93CF93DF93EC01A8
:1004900010926F01EC983D9A459A8EE190E024D23B
:1004A00045988EE190E020D2459A8DE290E01CD2F2
:1004B00080E3E3DF84E690E017D2459880E476DFBE
:1004C0007E0189E2E80EF11C8E010F5F1F4FCE0105
:1004D00009D36CDF0E151F0511F0E801F5CF459A21
:1004E00045988EE763DF8BE290E0EC012196FAD22B
:1004F0005DDFC333D10511F0CE01F7CF459A83E319
:10050000BCDF81E0F6D1CDB7DEB7E6E00C9473181E
:10051000A1E0B0E0EEE8F2E00C945B1822E0298361
:1005200041E0BE016F5F7F4F019694D2898144DF25
:1005300082E090E0A6DF2196E2E00C947718CF935A
:10054000EC9886E39ADFCFEF85E397DFC1508077A1
:10055000803229F08AE090E0C7D1C111F5CFCF9168
:100560000895CF93CFEF84E388DFC1508077803147
:1005700029F08AE090E0B8D1C111F5CFEC9ACF9183
:100580000895A2E0B0E0E7ECF2E00C9459188C0179
:10059000FC0181818737E9F441E0BE016F5F7F4F45
:1005A000C801029657D2892BA1F041E0BE016E5FCF
:1005B0007F4FC80104964ED2892B59F06A818981F8
:1005C0004ADF83E35ADFCDDF898140D28A813ED280
:1005D0002CC041E0BE016E5F7F4FC80101963AD248
:1005E000892B21F18A81893969F410E0812F2CDF70
:1005F0002DD2812F8770873009F4B4D11F5F10335B
:10060000A9F714C021DF182F83E47CD18A811ED280
:100610008DE491E09AD1812F19D289E491E095D1AE
:1006200040E262E0812F90E0A1D19CD12296E4E0EB
:100630000C94751886E321DF1092C40110926F01AB
:10064000089582E090E01DDF81E08093C401109264
:100650006F01089580915A02843009F061C080933F
:10066000E90080911A01811128C08091E80085FF7E
:1006700024C08091F200882331F06091F10083E181
:1006800092E043D3F6CF8091E800982F9B7F909320
:10069000E8008F778093E80081E080931A018AE276
:1006A00093E09093C1018093C001E091C201F09169
:1006B000C30181E0099510921A0183E08093E9005B
:1006C0008091D201882361F18091E80085FF28C0E4
:1006D000F8948091D201882351F08091F200803407
:1006E00030F480ED91E027D38093F100F2CF78943D
:1006F0009091F2008091E800282F2E7F2093E8004F
:100700008F778093E800903459F40E94001680910E
:10071000E800982F9E7F9093E8008F778093E80001
:10072000089542E061EC82E00E94B01542E361E886
:1007300083E00E94B01542E360E884E00E94B015B7
:100740001092000110920101109202011092030117
:10075000089580915B0290915C02913229F092326F
:1007600061F1903299F512C0813A81F58091E800EB
:10077000877F8093E80067E070E080E091E00E946E
:1007800029168091E800982F9B7F11C08132F1F4E7
:100790008091E800877F8093E80067E070E080E068
:1007A00091E00E94C6168091E800982F9E7F90935A
:1007B000E8008F778093E8000895813239F48091C2
:1007C000E800877F8093E8000C94DA1508951F9263
:1007D0000F920FB60F9211248F939F93AF93BF93F5
:1007E0008091C6019091C701A091C801B091C90143
:1007F0000196A11DB11D8093C6019093C701A093DE
:10080000C801B093C9018091C5018F5F8093C50174
:10081000BF91AF919F918F910F900FBE0F901F903E
:1008200018952FB7F8944091C6015091C701609177
:10083000C8017091C901FC014083518362837383B5
:100840002FBF0895A4E0B0E0E8E2F4E00C945B1858
:10085000CE010196E6DF8C81F9D08B81F7D08A81B9
:10086000F5D08981F3D07ED02496E2E00C947718FD
:100870008091C6019091C701A091C801B091C901B2
:1008800020911C01281779F18091C6019091C70130
:10089000A091C801B091C90180931C01A8958091D5
:1008A000C5018D3700F11092C5018091070181FFCC
:1008B00004C088B190E1892788B98091CA019091DC
:1008C000CB01843823E0920728F401969093CB0162
:1008D0008093CA0180911B018F5F80931B018C3331
:1008E00011F410921B010895880F991F0197F1F7D9
:1008F000089520ED37E0815020F0F9013197F1F7AC
:10090000FACF0895CF93C82F80915A02843081F492
:1009100080911D0180FF0CC08091D201803408F0CD
:1009200099DE6C2F80ED91E0F0D1CA3009F492DEAF
:10093000CF910895CF93DF93EC018991882311F033
:10094000E1DFFBCFDF91CF910895CF93DF93EC01EF
:10095000FE018491882319F0D5DF2196F9CFDF912C
:10096000CF9108958DE0CEDF8AE0CCCFA6E0B0E055
:10097000ECEBF4E00C945918062F1E8215E02AE0E7
:1009800030E01150E1E0F0E0EC0FFD1FE10FF11D50
:10099000B9010E941E18805D8083CB010150009731
:1009A00069F01111EECF0AC0112359F01150E1E0A6
:1009B000F0E0EC0FFD1FE10FF11D4083015007FF38
:1009C000F3CF81E090E08C0F9D1F810F911DB2DF6E
:1009D0002696E4E00C947518A5E0B0E0E2EFF4E0B0
:1009E0000C945B181D8224E0382F3F702150E22FB9
:1009F000F0E03A3010F4305D01C0395CA1E0B0E0C5
:100A0000AC0FBD1FEA0FFB1F308334E0969587952E
:100A10003A95E1F76150009739F7615067FD0BC0D7
:100A2000222349F02150E1E0F0E0EC0FFD1FE20F3E
:100A3000F11D4083F2CF81E090E08C0F9D1F820F6B
:100A4000911D78DF2596E2E00C94771840E362E090
:100A500090E0C2CFDC01FB0130E090E08D91882373
:100A6000A9F0813608F0805220ED280F2A3030F0AE
:100A70002FEB280F263030F429EC280F292B3323B5
:100A800079F006C0803251F38A3341F3CF0105C0BB
:100A9000CF0101962083415041F4861B970B0895A6
:100AA000922F9295907F31E0D9CFFC01D5CFDB0119
:100AB000FC0180E090E02191222361F030ED320FC3
:100AC0003A30C8F76AE070E00E940D18C097820FB4
:100AD000911DF1CF8D939C9308950E948A18F999E6
:100AE000FECF08950C94821808951F93CF93DF933F
:100AF000162F11501F3F59F0EC012196F3DFA6DFAE
:100B0000112311F08AE3FEDE1150CE01F3CFDF9105
:100B1000CF911F910895A2E0B0E0E1E9F5E00C94D7
:100B20005818FC0121812D3421F466E08AEF91E010
:100B300005C0203529F460E18AED91E0D6DF26C0BA
:100B40001A82198242E0BE016F5F7F4F019682DFF9
:100B5000098110E0823021F4102F00278A81082BB0
:100B6000C801C0DFF82E82E5CDDE40E364E0C801B5
:100B700033DF8FE991E0E9DE8F2D68DF8BE991E0CB
:100B8000E4DE40E262E08F2D90E0F0DEEBDE2296C4
:100B9000E5E00C947418A6E0B0E0E1EDF5E00C940B
:100BA00055186C0143E0BE016F5F7F4F019652DF25
:100BB000823058F1E980F12C823021F0FE2CEE24B5
:100BC0002A81E22A8C011127FE01E00FF11F6081CA
:100BD000C70183DF000F111F0F5F1F4F0C0D1D1D7D
:100BE000F8018081882389F041E0BE016F5F7F4F6B
:100BF000C80130DF892B49F08FEFE81AF80A6981C4
:100C0000C7016BDF0E5F1F4FEBCF2696E8E00C9419
:100C1000711841E067E071E001961CDF80910701E7
:100C200080FF02C0449A01C044986091070184E3A8
:100C300090E053CFA1E0B0E0E0E2F6E00C945B1866
:100C40001982009731F041E0BE016F5F7F4F01963E
:100C500001DF89818F3F09F4FFCF882321F061E014
:100C600083E390E03ADF0E94461710926E00F894FA
:100C700028E088E190E00FB6F894A8958093600092
:100C80000FBE20936000FFCFCF93DF93EC0161E0B4
:100C900080E090E022DF63E481E090E01EDFB1DBE2
:100CA00060E080E690E019DF60E081E690E015DF2B
:100CB00060E083E390E011DF62E084E390E00DDF29
:100CC0008981883719F080E090E0B4DFDF91CF911F
:100CD000089580E090E006DF813029F481E090E023
:100CE00001DF833419F080E090E0CEDF84E390E010
:100CF000F9DE8093070108951E9903C08DE891E005
:100D000002C08FE791E021DE2DCEFC018FB7F89471
:100D10009281903470F49F5F9283208191E0920FD2
:100D20009083DF01A20FB11D13966C93903409F4E8
:100D300010828FBF0895FC019FB7F89482818823A9
:100D400071F081508283818121E0280F2183DF01AE
:100D5000A80FB11D13968C91203409F411829FBF06
:100D60000895CF93C82F469A882319F080912001C7
:100D700002C08091220190E034E0880F991F3A95DB
:100D8000E1F7B2DD4698CC2319F080911F0102C033
:100D90008091210190E024E0880F991F2A95E1F7C6
:100DA000A3DDCF910895A9E0B0E0E9EDF6E00C9461
:100DB0004B184C01162FD22EEA82BC2C442E512CFB
:100DC0002091CA013091CB019C2D9A0DB2016E5F2A
:100DD0007F4F802F0E940418980F892F992787FD35
:100DE00090952817390720F483EA91E0AEDD9FC083
:100DF000281B390B3093CB012093CA01449A809170
:100E00006F01882341F010926F0187E191E0C9D210
:100E100021E0298301C019828091C401811101C0A0
:100E200010DC8DDB2B2D30E064E0220F331F6A9540
:100E3000E1F739872887EA2CF12C74E0EE0CFF1CCF
:100E40007A95E1F7212F30E03C832B83662463946D
:100E5000712C2D2D30E03E832D83B11002C0AA20CD
:100E600039F0469A888599853FDD4698C7013CDD73
:100E7000D12C8D2D992787FD90952B813C81821750
:100E8000930724F480E06DDFD394F3CF112311F0A6
:100E900081E067DF90E0292E332427FC309424146E
:100EA00035042CF057E0D52E280C391C1AC047E029
:100EB000C42ED12C280C391C93010C2C01C0220FFC
:100EC0000A94EAF7F101808182239F834ADFF1E0EF
:100ED000CF1AD1089F812FEFC216D20669F79F5F04
:100EE000DACF8D2D992787FD90952D813E8128178A
:100EF000390764F4C3010D2C01C0880F0A94EAF786
:100F0000F101908189232DDFDA94EBCF8A81F1DC26
:100F1000015009F0A2CF8091CD01882311F021DB8F
:100F200002C086E3AADA3981311133D74498299671
:100F3000E2E10C946718ACE0B0E0E1EAF7E00C9471
:100F400053187C01162F842F022F6701C60ED11C67
:100F5000462FB7013BD2F601808361E0610F198211
:100F60005E2D570140E027E0A1E0B0E08A2D851B0F
:100F7000861708F065C0F50171915F0187E090E088
:100F80007D01082E02C0EE0CFF1C0A94E2F7E72256
:100F900091F0EE24E394F12CEC0EFD1EE40EF11C16
:100FA000F70130816D01022E02C0CC0CDD1C0A94C9
:100FB000E2F73C293083222319F03FEF320F0DC0B6
:100FC00021E0240F2C3008F4422FE1E0F0E0EC0F98
:100FD000FD1FE20FF11D108237E0232F019780F6ED
:100FE000872F082E82958025082E86958695802548
:100FF0008F5F81FF11C081E090E08C0F9D1F840FF7
:10100000911DFC0120817D01032E02C0EE0CFF1C0E
:101010000A94E2F72E292083332319F02FEF230FB0
:10102000A5CF81E0840F8C3008F4482F21E030E018
:101030002C0F3D1F280F311DF901108227E096CF9C
:10104000222311F0215002C04F5F27E089E18093F5
:1010500021018093220185E280931F01809320016A
:10106000A12CC12CFAE0EF2E6CE0CE0101969BDEA4
:101070002C96EAE00C946F18ADE0B0E0E2E4F8E002
:101080000C945A18162F242F4BE0BE016F5F7F4F30
:1010900001962D87DFDC2D85412F682FCE0101962B
:1010A0004ADF2D96E3E00C94761843E066E0E4CF47
:1010B000AF92CF92EF920F93CF93DF93CDB7DEB77E
:1010C0002C970FB6F894DEBF0FBECDBF4BE0BE012C
:1010D0006F5F7F4F0296BEDC8530C1F48EE3809354
:1010E00022018CE18093210181E2809320018AE337
:1010F00080931F0145E2A42E5AEFC52EE12C05E096
:1011000024E044E068E0CE0101964DDE2C960FB657
:10111000F894DEBF0FBECDBFDF91CF910F91EF905E
:10112000CF90AF9008958F929F92AF92BF92DF922F
:10113000EF92FF920F931F93CF93DF93109236019C
:1011400010924301FC012181220F220F220F3381D3
:10115000231B57E0520F1092370110E070E038E087
:10116000D32ED20EFF24F39447E007E0E12CC7E032
:10117000D0E0A1E0B0E0FD1409F47FC0FC01EE0D69
:10118000F11D248130E0002E02C0359527950A9488
:10119000E2F721703327E22F002311F0015002C043
:1011A000E39407E06B3471F4433009F04AC0111145
:1011B00007C0E1115FC0109236017093430174C003
:1011C00010E041C04F3F31F56634A9F4E72FF0E05D
:1011D000E95CFE4FE0810E2EE295E0250E2EE695AD
:1011E000E695E025EF5FE1FB882480F8912C8216DC
:1011F000930641F004C0653429F4E11103C0109353
:101200003601DBCF7F5FE72FF0E0E95CFE4F108215
:1012100047E031C0EE2361F1663471F4E72FF0E06E
:10122000E95CFE4FA0809D01042E01C0220F0A94AC
:10123000EAF7A22AA0821CC0653439F06B34C1F4ED
:1012400004C04F3FD1F2EE2399F0E72FF0E0E95CC4
:10125000FE4F9E01241B310947FD33955D0102C0FD
:10126000AA0CBB1C2A95E2F795013081322B308302
:10127000415001C011E0F3947ECF1093360170937A
:1012800043015F1588F4653431F44F3F21F47F5FEB
:101290007093430104C0809136018111F8CF81E041
:1012A00090914301911101C080E0DF91CF911F9196
:1012B0000F91FF90EF90DF90BF90AF909F908F9035
:1012C000089510926F008091460190E064E170E013
:1012D0000E940D18895B9E4FFC0110820895FC014D
:1012E00021812C3008F0EDCF3381662381F081E03D
:1012F00090E0032E01C0880F0A94EAF7DF01A20FE5
:10130000B11D14969C911497982B14969C9333239B
:1013100019F031503383089587E083832F5F218351
:10132000E20FF11D14820895DC011196EC911197E2
:10133000F0E050E02C91CF01841B950B0B96479762
:10134000A0F430E070E0C901861B970B0B9647971D
:1013500060F42E0F3F1F640F751F261B370B255F90
:101360003F4F81E02731310508F080E008953E9A33
:1013700046983F98EAE6F0E080818160808382ECC5
:1013800091E09093CB018093CA0110925B0110927F
:10139000C40108958091CD01882311F052D9E1C88C
:1013A00049C9FC01218121110BC08091CD014EDB87
:1013B00040E265E08091CA019091CB01D7DAD2CAB0
:1013C00041E06DEC71E0019645DBE4CF442339F058
:1013D0004150FB01E40FF11D9081890FF7CF089573
:1013E00020E0662339F06150FC01E60FF11D3081E9
:1013F0002327F7CF822F0895A091360140E035E0F2
:1014000020E0662399F06150FC01E60FF11D508148
:10141000752F72957F702727370FAA2311F0442369
:1014200019F05F702527350F4F5FEBCF822F830FA9
:101430008295807F822B0895FC0132812381A081D7
:10144000B181A30FB11D8C9190E0022E02C0959541
:1014500087950A94E2F7817099274FEF420F4383F3
:10146000211104C03F5F328327E023830895A2E067
:10147000B0E0EDE3FAE00C9453187C01A12CB12C00
:10148000D12CCC24C394062F10E001501109A616CC
:10149000F0F4C7014A836983CFDF4A8169818823D9
:1014A00091F0442349F098012A193B098C2D01C081
:1014B000880F2A95EAF706C08C2D0A2C01C0880FE8
:1014C0000A94EAF7D82A8FEFA81AB80AE0CF8D2D30
:1014D0002296EAE00C946F18A4E0B0E0E2E7FAE0AC
:1014E0000C9452181B8227E02C839C012C5F3F4FE9
:1014F0003A83298310924301FC01218130E043E0CB
:10150000220F331F4A95E1F7438187E090E0841B67
:101510009109280F391F253431050CF44EC0B12C28
:10152000A0904301F5E0FA1558F10A2D10E040E0D3
:1015300068E0CE0101969BDF095C1E4FF8018083B5
:10154000982E092C92949024092C96949694902489
:10155000CE01019671DF939491FACC24C0F8D12C7E
:1015600090E0C816D90649F5CE01019665DF8111D4
:1015700024C0F8018081B826A394A0924301D0CF63
:1015800040E068E0CE01019672DF082F182F012E8F
:1015900012951025012E169516951025CE0101964F
:1015A0004BDF1F5F11FBEE24E0F8F12C282F30E019
:1015B000E216F30611F481E0B01280E02496EBE02D
:1015C0000C946E188091CC0180FD03C084608093E0
:1015D000CC010895A1E0B0E0E0EFFAE00C945718D8
:1015E000198280912301882391F18091CD0187FF99
:1015F00016C084E30E9424028058803458F0803C56
:1016000058F490E080559109A3E095958795AA95A7
:10161000E1F703C080E001C08FE08F5973D980915A
:10162000CD0183FF12C082E76DD98091CD0184FF87
:1016300003C08091240166D986E664D98091CD01EA
:1016400084FF03C0809123015DD910922301809112
:101650004401882309F427C2449A8091450190E00F
:1016600064E170E00E940D188C01095B1E4F8981B6
:10167000811139C066E4C80156DD8823A1F1F090DC
:101680004301FA94F09243014F2D67E371E086E045
:101690009DDEEF2DF0E0E95CFE4FE0808E1105C08D
:1016A00093E09F1510F486E41BC0282F30E02F5FD5
:1016B0003F4F6E2D70E02617370739F493E09F15E2
:1016C00020F496E4998380830EC04F2D67E371E088
:1016D0008CE07CDE8E1106C0E3E0EF1518F484E5A3
:1016E000898301C019828981811116C065E4C8010E
:1016F0001ADD882389F08091430181508093430152
:10170000893051F469E087E391E06ADE909140010D
:10171000891302C085E489838981811106C0C801CB
:10172000DBDE882311F088E489838981811133C04D
:10173000F801438960912401C8014296F5DD682FC4
:10174000C801CDDD6BE4C801EEDC8823B1F0F09078
:101750004301FA94F09243016F2D87E391E04CDE50
:10176000EF2DF0E090913601E91BF109E95CFE4FA5
:101770009081891302C08BE48983898181110BC018
:10178000F801838191E0980F9383873021F41382CD
:10179000818181508183898181112DC0F8018181EE
:1017A000843049F58381843031F54EE16CE3C80122
:1017B0004096BADD8823F9F04EE160912401C8011A
:1017C0004296B2DD682FC8018ADD20E0822F90E0CA
:1017D000FC01E95CFE4FD801A80FB91F14968C914B
:1017E000808381E0820F853010F4282FEFCF809323
:1017F000430182E589833981332309F4C7C02091ED
:10180000CD0120FFC3C08091CC018E7F8B7F809360
:10181000CC0121FD64C050913501F09043015F116E
:101820003DC040E04517C0F4842F90E061E0640FB4
:10183000FC01E75DFE4FDC01A95CBE4F70818C911D
:10184000781741F0409335018091CC018D7F8093D2
:10185000CC0104C0462FE6CF4093350145131EC08E
:101860004091C6015091C7016091C8017091C901B2
:101870008091250190912601A0912701B091280126
:10188000481B590B6A0B7B0B4632510561057105EC
:1018900028F48091CC0181608093CC0140E04F1509
:1018A00060F4842F90E0FC01E75DFE4FDC01A95C51
:1018B000BE4F8C9180834F5FF2CF40933501809172
:1018C000C6019091C701A091C801B091C901809350
:1018D000250190932601A0932701B0932801343568
:1018E000E9F426FD1BC0809143018530B8F080915A
:1018F00039018B3471F0893661F09DEA980F92308E
:1019000040F08D57823028F080913A0180778037FF
:1019100029F48091CC0181608093CC01B801CE0183
:10192000019650DE8091CC0182FF30C089810E94F7
:10193000820480913601882329F0809143018150EF
:1019400080934301F12CE0914301FE1640F4EF2D0A
:10195000F0E0E95CFE4F808179D8F394F4CF809178
:101960003601882349F0F0E0E95CFE4F80818F70FA
:1019700040E361E090E030D88091CD0185FF04C064
:1019800084E30E94240262D80E94B2048091CD01B7
:1019900082FF77C080E70E948204F801808140E2E4
:1019A00062E090E00E94B604F801808990E040E295
:1019B00065E054E0880F991F5A95E1F70E94B6043C
:1019C000F801818990E040E265E074E0880F991F9A
:1019D0007A95E1F70E94B604F801828990E040E22E
:1019E00065E0E4E0880F991FEA95E1F70E94B604EC
:1019F000F801838990E040E265E0F4E0880F991FE8
:101A0000FA95E1F70E94B604F801828140E263E0B2
:101A100090E00E94B604F801818140E263E090E02A
:101A20000E94B604F801238140E262E087E090E082
:101A3000821B91090E94B60480E20E948204809178
:101A4000CD0185FF08C084E30E9424020E94260580
:101A500080E20E948204F8018381873019F081813D
:101A60008F5F8183F12CF8018181F81640F4F80131
:101A7000EF0DF11D84810E942605F394F4CF0E949E
:101A8000B204F80110828091440181508093440196
:101A9000809145018F5F823019F08093450102C02B
:101AA0001092450144982196E6E00C9473181F9219
:101AB0000F920FB60F9211242F933F934F935F9382
:101AC0006F937F938F939F93AF93BF93EF93FF9306
:101AD00010926F008091CD0183FF03C08EE20E94BF
:101AE000820440914601242F30E0C90164E170E096
:101AF0000E940D18895B9E4FFC018081833018F095
:101B00008181823010F4DDDB18C080914401813086
:101B100049F48091CD0182FFF6CF8AEA91E00E94DC
:101B2000A504F1CF8F5F809344014F5F423019F0DD
:101B30004093460102C010924601FF91EF91BF9180
:101B4000AF919F918F917F916F915F914F913F9155
:101B50002F910F900FBE0F901F9018951F920F920C
:101B60000FB60F921124FF920F931F932F933F9361
:101B70004F935F936F937F938F939F93AF93BF9395
:101B8000CF93DF93EF93FF93009184001091850032
:101B9000F4E016950795FA95E1F78091460190E0FB
:101BA00064E170E00E940D18EC01C95BDE4F888192
:101BB000843039F40E3208F4D6C00F3410F081DBD3
:101BC000D2C037990CC0843039F461E0CE0187DB94
:101BD000109285001092840000932401C4C080916B
:101BE0002401081B009323011092850010928400A9
:101BF0008881843021F460E0CE0171DBB4C082E0E2
:101C000086BBF88000912401F1100FC0053608F062
:101C1000AAC080912301853608F0A5C0088B898B66
:101C200081E08A8382E088839EC01091230182E054
:101C3000412F602FF81248C0CE01409675DB4A81D3
:101C40008823F9F0288930E0C901880F991F820F95
:101C5000931F800F911D9595879595958795888BF6
:101C6000298930E0C901880F991F820F931F810FC6
:101C7000911D9595879595958795898B4F5F4A839B
:101C800072C04430F8F080EA9FE09093890080931E
:101C900088008A818C3050F02889898990E0820FF1
:101CA000911D8536910514F084E001C083E088839E
:101CB0000A8B1B8B198287E08B831C8282E08093C6
:101CC0006F0051C01882A2CFCE0142962DDB88232F
:101CD00001F161E0CE0103DB2A8930E0C901880F00
:101CE000991F820F931F800F911D9595879595954C
:101CF00087958A8B2B8930E0C901880F991F820F45
:101D0000931F810F911D95958795959587958B8B41
:101D10002AC0412F602FCE01409606DB882301F1B7
:101D200060E0CE01DCDA288930E0C901880F991F14
:101D3000820F931F800F911D959587959595879597
:101D4000888B298930E0C901880F991F820F931F62
:101D5000810F911D9595879595958795898B03C0E2
:101D600087E0F8122CCFFF91EF91DF91CF91BF91D7
:101D7000AF919F918F917F916F915F914F913F9123
:101D80002F911F910F91FF900F900FBE0F901F90FA
:101D90001895CF93DF93EC983D9A459A8EE190E0A9
:101DA0000E94740445988EE190E00E947404459A64
:101DB0008DE290E00E94740480E30E943D0284E67C
:101DC00090E00E947404CAECD1E0FE018491813459
:101DD00040F083E30E943D0284E00E947904CFEF4B
:101DE0000DC0FE0131966491FE0184910E942B0288
:101DF0002296F2E0C630DF0741F7EBCF84E30E9482
:101E00003D028AE090E00E947404C150B9F781E07D
:101E100080936F01DF91CF910895EF92FF920F931E
:101E20001F93CF93DF93EC018B01F880F39461153E
:101E3000710519F0E4E6F0E002C0E0E0F0E08F2D7B
:101E400090E023E0880F991F2A95E1F76AE070E09F
:101E50000E9432189B012E0F3F1FC901AA2797FD30
:101E6000A095BA2FE091CA01F091CB01AF0160E0DB
:101E700070E0481759076A077B0728F48AEB91E05E
:101E80000E94A504D8C0E21BF30BF093CB01E093B2
:101E9000CA0180916F01811101C07BDF85E30E943F
:101EA00024028D3071F08AE50E94820485E40E944C
:101EB000820482E50E94820482E50E94820481E31A
:101EC0004CC08091700190917101A0917201B0910C
:101ED0007301892B8A2B8B2B51F50E949F0285E37E
:101EE0000E942402833109F443C08AE50E948204DF
:101EF00085E40E94820482E50E94820482E50E94B9
:101F0000820482E32AC08091C6019091C701A0910A
:101F1000C801B091C9014F5F5F4F6F4F7F4F84176A
:101F20009507A607B707C9F681E00E94790480915A
:101F3000C6019091C701A091C801B091C90140911B
:101F40007001509171016091720170917301841759
:101F50009507A607B707B9F6E7CF0E94820485E385
:101F60000E9424020E9426050E94B20412DF63C070
:101F7000012B41F445988FE70E94D601EC2E0C2FDF
:101F80001D2F0BC00AE010E084E60E947904015086
:101F9000110901151105C1F7EDCF802F8E198F158D
:101FA00030F4F80181918F010E94D601F6CF459A55
:101FB000C8EC85E30E9424028D30E9F485E30E9499
:101FC00024028D3019F18AE50E94820485E40E9482
:101FD000820482E50E94820482E50E94820483E3F7
:101FE0000E94820485E30E9424020E9426050E942A
:101FF000B204CFDE0BC085E30E9424028331F1F6E8
:1020000081E00E947904C150A1F6D8CF80916F0180
:10201000811101C0BFD98091C6019091C701A091E3
:10202000C801B091C9018093700190937101A09390
:102030007201B0937301CDB7DEB7E6E00C9473186C
:10204000ACE0B0E0E6E2F0E10C945A18FC018BE061
:10205000898381818A831B8282E08C8387818D833F
:1020600080858E8381858F83848188878581898718
:1020700086818A871B861C8684E10E94790460E041
:1020800070E0CE010196C9DE8AE50E94820410E06C
:10209000812F90E0298130E0281739075CF0E1E0DA
:1020A000F0E0EC0FFD1FE80FF91F80810E9426056C
:1020B0001F5FEECF8091CD0185FF03C080E00E94BD
:1020C00026050E94B2042C96E3E00C947618CF9378
:1020D000DF93EC0180917701811108C09091780124
:1020E000911104C0909179019923A9F09B819033BB
:1020F00019F09F7E903479F49F8198130CC09885D5
:1021000080917801981307C099858091790198137F
:1021100002C0CE0195DF80917401811108C09091B9
:102120007501911104C0909176019923A9F09881CD
:102130009B3091F49B81903479F49F8198130CC06B
:10214000988580917501981307C0998580917601D3
:10215000981302C0CE0174DFDF91CF910895AEE1F4
:10216000B0E0E4EBF0E1A5C780916F01882309F4AA
:1021700069C0379B59C08FE30E9424028F778E314C
:1021800008F08DE1898345988FEF0E94D60110E019
:102190008981181760F480E00E94D601E2E0F0E047
:1021A000EC0FFD1FE10FF11D80831F5FF1CF80E079
:1021B0000E94D601082F80E00E94D601459ACE01E8
:1021C000019685DF8091CD0184FF12C08AE70E94CD
:1021D000820410E089818117A8F1E1E0F0E0EC0FC2
:1021E000FD1FE10FF11D80810E9482041F5FF2CF6D
:1021F0008AE50E94820410E08981811758F0E1E0AD
:10220000F0E0EC0FFD1FE10FF11D80810E9426051B
:102210001F5FF2CF8091CD0185FF03C0802F0E9408
:1022200026050E94B2040EC085E30E94240281317B
:1022300049F48AE30E943D0286E30E943D0284E362
:102240000E943D026E96E4E050C7AEE1B0E0EAE2E3
:10225000F1E12FC78C01FC018181823711F499DDF6
:1022600036C0833711F0863601F54DE1BE016F5F50
:102270007F4FC80102960E942A059927019729815C
:1022800030E08217930729F081EB91E00E94A504CA
:102290001EC061E070E0F8018181833711F060E0D9
:1022A00070E0CE010196B9DD12C0813621F443E021
:1022B00067E771E005C0873741F443E064E771E008
:1022C000C80102960E942A0502C010926F016E9604
:1022D000E4E00BC7CF93DF93EC983D9A459A8EE1EB
:1022E00090E00E94740445988EE190E00E9474048E
:1022F000459A8DE290E00E94740480E30E943D02C2
:1023000084E690E00E947404459880E40E94D6011F
:10231000C6E0D2E0FE0184910E94D6012196F2E04F
:10232000C331DF07B9F7809108010E94D60180917F
:1023300009010E94D60180910A010E94D601C0E0E5
:10234000D0E0FE01EA5EFD4F84910E94D601219605
:10235000C931D105B1F7459A45988EE70E94D6015B
:102360008BE290E0EC0121960E9472050E94D6015A
:10237000C333D10511F0CE01F5CF459A83E30E9416
:102380003D0281E00E94790481E08093C401DF91E5
:10239000CF910895AF92BF92CF92EF92FF920F9399
:1023A0001F93CF93DF93EC018981843769F46FE049
:1023B00071E0CE0102960E94570540E260E08091F4
:1023C0000F019091100112C0833709F060C18A811A
:1023D000823789F46BE071E0CE0103960E945705C5
:1023E00040E260E080910B0190910C010E94B604E4
:1023F0000E94B204ABC1449A80917C0181110DC04E
:1024000080916F01882329F081E080937A011092F6
:102410006F0160DF83E00E94790486E30E943D0241
:102420008AE30E943D028BE30E943D020E949F02CC
:10243000FE0101900020E9F70E2F0C1B0250C12C69
:102440007E01E2E0EE0EF11C80910B0190910C01F7
:102450002C2D332727FD30952817390708F0E4C0C5
:10246000013289F4469A80910F01909110010E94E7
:102470007404469880910D0190910E016AE070E01D
:10248000CCD50E947404570111E010170CF0A6C0BF
:10249000F50181915F01469A803309F03EC0013217
:1024A000E1F480910D0190910E010E947404469810
:1024B00080910D0190910E010E947404469A8091C2
:1024C0000D0190910E010E947404469880910D01B7
:1024D00090910E0165E070E01EC080910F01909117
:1024E00010010E947404469880910F019091100190
:1024F00063E070E092D50E947404469A80910F01C7
:10250000909110010E947404469880910F0190915F
:10251000100163E070E081D55DC0813301F50132C7
:1025200079F480910D0190910E010E9474044698F7
:1025300080910D0190910E0165E070E06ED51CC098
:1025400080910F019091100163E070E066D50E94C8
:102550007404469880910F01909110012AC00132B5
:10256000D1F480910D0190910E010E94740446985F
:1025700080910D0190910E010E947404469A809101
:102580000D0190910E010E947404469880910D01F6
:1025900090910E011FC080910F01909110010E9437
:1025A0007404469880910F019091100163E070E0EF
:1025B00034D50E947404469A80910F0190911001C5
:1025C00063E070E02AD50E947404469880910F0160
:1025D000909110010E9474041F5F57CF469A0132F8
:1025E00089F480910D0190910E010E947404469827
:1025F00080910D0190910E0168E270E00ED50E946D
:10260000740410C080910F01909110010E94740415
:1026100046981FE180910F01909110010E9474046F
:102620001150C1F7C39410CF80917C01882359F0D9
:102630008091CD01882319F00E94B1020EC086E37B
:102640000E943D020AC080917A01882321F01092F5
:102650007A019FDB02C00E94CA09449889E60E9461
:10266000820483E70E94820411E010170CF0C0CEB0
:10267000FE01E10FF11D17FDFA958181803319F0FC
:10268000813309F086E40E9482041F5FEECF823717
:1026900071F480916F01882329F081E080937A01A1
:1026A00010926F0117DE81E080937C014FC0863667
:1026B00051F58A81803351F480E18093080180EBE9
:1026C0008093090181E780930A0107C043E068E035
:1026D00071E0CE0102960E942A0589E60E948204DA
:1026E00086E60E9482048AE30E94820480910801A7
:1026F0000E942605809109010E94260580910A0109
:102700000E94260575CE8837C9F480917A01882306
:1027100021F010927A013DDB0EC082E090E00E9431
:1027200041028091CD01882319F00E94B10203C0BB
:1027300086E30E943D0210927C0108C0833631F48A
:102740006FE071E0CE0101960E945705DF91CF91B5
:102750001F910F91FF90EF90CF90BF90AF90089591
:1027600085E390E00E9472058093CE0186E390E0BD
:102770000E9472058093CF010895A6E0B0E0E2ECDC
:10278000F3E199C445E0BE016F5F7F4F01960E945F
:102790002A058430D8F499819130B1F4833061F402
:1027A0006A8185E390E00E946D056B8186E390E08D
:1027B0000E946D05D5DF0AC08091CE010E942605DA
:1027C0008091CF010E9426050E94B2042696E2E085
:1027D0008EC40F931F93CF93DF93EC0110E0212F52
:1027E00030E0C90163E070E018D488579F4FFC01C6
:1027F0000491C90163E070E010D487579F4FFC013A
:1028000025913491002399F0209739F480E20E94B9
:102810008204802F0E94820408C08881801305C032
:10282000CE01F901099581E003C01F5FD8CF80E098
:10283000DF91CF911F910F910895CF93C0911D010A
:1028400080931D0180911502882309F43DC083E126
:1028500092E00E949B0620917D0130917E018A309A
:1028600011F08D3011F52115310561F3F901E158B1
:10287000FE4F10828FE791E0ACDF811111C087E439
:1028800092E00E94A5048FE791E00E949A048FE2F3
:1028900092E00E94A50480E090E09BDF0E94B204D9
:1028A00010927E0110927D01CDCF2034310550F67B
:1028B000A9014F5F5F4F50937E0140937D01F90165
:1028C000E158FE4F8083BECFC0931D01CF91089584
:1028D000E4E6F0E080818B7F8083299A84B1876071
:1028E00084B9239880E58CBD8DB581608DBD089538
:1028F000A2E0B0E0EDE7F4E1DEC3EBE5F2E08091C9
:10290000F100819382E0E336F807C9F720915B027A
:1029100030915C02832F90E08A30910508F01AC153
:10292000FC01E65CFF4FB1C3203879F0223809F092
:1029300011C180915F028093E9008091EB0085FBDB
:10294000882780F91092E90006C080915602909184
:102950005702911182609091E800977F9093E80070
:102960008093F1001092F1008091E800982F9E7FF3
:102970009093E8008F778093E8008091E80082FDD3
:10298000AFC080915A028111F8CFD5C0822F8D7FC0
:1029900009F0E0C0222319F0223061F033C08091A9
:1029A0005D02813009F0C7C0333009F080E08093C8
:1029B000570228C080915D02811124C020915F02DE
:1029C000277009F4B8C02093E9008091EB0080FFE4
:1029D00019C08091EB00313091F480618093EB005D
:1029E00081E090E0022E01C0880F0A94EAF78093FC
:1029F000EA001092EA008091EB00886001C08062DA
:102A00008093EB001092E9008091E800877F80932B
:102A1000E8008091E800982F9E7F66C021119AC03F
:102A200020915D028091E800877F8093E80090917B
:102A3000E800892F8E7F8093E8009F779093E800CD
:102A40008091E80080FD05C080915A028111F8CF85
:102A500072C0822F8F77982F90689093E30088231D
:102A600009F469C083E080935A0265C0205822307F
:102A700008F070C0AE014F5F5F4F60915F028091C0
:102A80005D0290915E020E949C01009709F453C080
:102A90002091E800277F2093E800BC0189819A817A
:102AA00026D11EC0203809F055C08091E800877FEC
:102AB0008093E800809158028093F1008091E800B3
:102AC000982F9E7F9093E8008F778093E800809105
:102AD000E80082FD05C080915A028111F8CF2BC019
:102AE0008091E800982F9B7F9093E8008F778093E8
:102AF000E80021C021112EC090915D029230D8F4DF
:102B00008091E800877F8093E8009093580280913D
:102B1000E800982F9E7F9093E8008F778093E800DD
:102B200080915802882311F084E001C083E08093F3
:102B30005A020E9491038091E80083FF0EC08091A9
:102B4000EB0080628093EB008091E800877F8093A8
:102B5000E80003C00E94A903EECF2296E2E0C7C2BC
:102B60008093E900EBEEF0E0808181608083EDEE00
:102B7000F0E010826093EC0040838091EE00881FAB
:102B80008827881F08951092F40080E08093E90060
:102B90001092F0001092E8009091ED009D7F9093CC
:102BA000ED009091EB009E7F9093EB008F5F85305E
:102BB00069F7089580915B0287FD05C08091E80068
:102BC00080FF0FC013C08091E80082FD05C0809196
:102BD0005A028111F8CF08958091E800982F9B7FC9
:102BE00009C080915A028111E9CF08958091E800CF
:102BF000982F9E7F9093E8008F778093E800089548
:102C000085E69091EC0090FF05C09091E80090FF60
:102C100005C019C09091E80092FD15C090915A022C
:102C2000992399F09091EB0095FD11C09091E100EE
:102C300092FFE7CF9091E1009B7F9093E10081505C
:102C400001F783E0089580E0089582E0089581E02F
:102C5000089540916102509162029B014617570707
:102C600008F49A0140E021153105A9F15091E800DE
:102C700053FD39C05091E80052FF06C08091E80032
:102C800082FF2CC080E0089550915A02552369F1CB
:102C90005091E80050FFE7CFFC01CF01211531052D
:102CA00051F04091F200483030F481918093F1006E
:102CB00021503109F2CF5091F20041E0583009F033
:102CC00040E05091E800652F6E7F6093E8005F77E9
:102CD0005093E800C8CF4111C9CFD0CF80915A029C
:102CE0008111CCCF02C081E0089582E00895409127
:102CF0006102509162029B014617570708F49A013E
:102D000040E021153105B1F15091E80053FD3AC082
:102D10005091E80052FF06C08091E80082FF2DC06C
:102D200080E0089550915A02552371F15091E800C6
:102D300050FFE7CFFC01CF012115310559F040913B
:102D4000F200483038F484918093F1002150310929
:102D50003196F1CF5091F20041E0583009F040E057
:102D60005091E800652F6E7F6093E8005F77509385
:102D7000E800C7CF4111C8CFCFCF80915A0281114F
:102D8000CBCF02C081E0089582E0089561157105FE
:102D900071F12091E80023FD2FC020915A022223D7
:102DA00079F12091E80022FFF4CFFC018091F2003C
:102DB000882371F09F012F5F3F4FC9014091F100BF
:102DC0004083615071096115710519F0F901EECF69
:102DD000CF012091E800322F3B7F3093E8002F771E
:102DE0002093E800D3CF80915A02882349F0809144
:102DF000E80080FFF8CF02C081E0089580E00895E8
:102E000082E0089553D055D010925A021092580281
:102E1000109257021092560219BC89B5826089BD82
:102E200009B400FEFDCF8091D800982F9F77909332
:102E3000D80080688093D800809163008E7F809353
:102E400063008091D8008F7D8093D8008091E0004E
:102E50008E7F8093E0008091E1008E7F8093E1007F
:102E60008091E20081608093E2008091E100877FA1
:102E70008093E1008091E20088608093E2000895F1
:102E8000C1DF81E08093590278940895BBDFE0EEC2
:102E9000F0E0808181608083E8EDF0E080818F77D1
:102EA000808319BC10925902089508951092E2008F
:102EB00008951092E10008951F920F920FB60F929D
:102EC00011242F933F934F935F936F937F938F932F
:102ED0009F93AF93BF93EF93FF938091E10080FFA7
:102EE0001CC08091E20080FF18C08091E1008E7FBD
:102EF0008093E1008091E2008E7F8093E2008091D8
:102F0000E20080618093E2008091D800806280932B
:102F1000D80019BC10925A02C8DF8091E10084FFEA
:102F200029C08091E20084FF25C019BC89B5826068
:102F300089BD09B400FEFDCF8091D8008F7D8093BC
:102F4000D8008091E1008F7E8093E1008091E200C3
:102F50008F7E8093E2008091E20081608093E200A6
:102F600080915802882311F084E001C081E08093B1
:102F70005A029BDF8091E10083FF23C08091E20031
:102F800083FF1FC08091E100877F8093E10082E092
:102F900080935A02109258028091E1008E7F8093B4
:102FA000E1008091E2008E7F8093E2008091E20058
:102FB00080618093E200E7DD42E060E080E0D0DD08
:102FC00074DFFF91EF91BF91AF919F918F917F91AE
:102FD0006F915F914F913F912F910F900FBE0F9086
:102FE0001F901895CF9380915A02882359F0C09171
:102FF000E900C7701092E9008091E80083FD78DC59
:10300000C093E900CF910895002480FD060E660F5D
:1030100011F08695D1F7802D08950024552704C01E
:10302000080E591F880F991F009729F0769567950C
:10303000B8F37105B9F7802D952F0895AA1BBB1B16
:1030400051E107C0AA1FBB1FA617B70710F0A61BA8
:10305000B70B881F991F5A95A9F780959095BC01C9
:10306000CD01089597FB072E16F4009406D077FD46
:1030700008D0E4DF07FC05D03EF4909581959F4F82
:103080000895709561957F4F0895EE0FFF1F05908D
:10309000F491E02D09942F923F924F925F926F929C
:1030A0007F928F929F92AF92BF92CF92DF92EF92D8
:1030B000FF920F931F93CF93DF93CDB7DEB7CA1B59
:1030C000DB0B0FB6F894DEBF0FBECDBF09942A8884
:1030D000398848885F846E847D848C849B84AA842C
:1030E000B984C884DF80EE80FD800C811B81AA81B9
:1030F000B981CE0FD11D0FB6F894DEBF0FBECDBF84
:10310000ED010895F999FECF92BD81BDF89A9927F6
:1031100080B50895262FF999FECF1FBA92BD81BDC3
:1031200020BD0FB6F894FA9AF99A0FBE0196089549
:04313000F894FFCF41
:10313400802500000000080210B07106000401A4FC
:0A3144000100006302200032310098
:00000001FF
