:10000000ADC100000C942B10C7C10000C5C1000099
:10001000C3C10000C1C10000BFC10000BDC10000DC
:10002000BBC10000B9C10000B7C10000B5C10000EC
:10003000B3C100000C94C40FAFC10000ADC10000FB
:1000400099C30000A9C10000A7C10000A5C100001C
:100050000C940F250C94D7249FC100009DC1000073
:100060009BC1000099C1000097C1000095C100002C
:1000700093C1000091C100008FC100008DC100003C
:100080008BC1000089C1000087C100006D522D6244
:10009000B217438F0246090969B91C4198155A12D3
:1000A0001C4F172C470C094D44094BB20962B2177B
:1000B00052610654F91F56580757A106587F0B6521
:1000C000180766B8236CE206741E0475B81278220D
:1000D00003000000202F2000203D2000072E050DEA
:1000E000D391FF080500000C0021656A2D3B132207
:1000F000F862073F181D1CC700B0876BF8B611EAFD
:100100002A001F41000D2E2D07D3913D043200001F
:10011000060021656A55E43023B900070018146C05
:10012000070090876BF85611E92A001F4100000371
:100130000F1E2627000000030F1E25363867000318
:100140000F256740605000030F275188838100030B
:100150000F2750C8C3C2002700000000000000673E
:1001600000000000000000500000000000000081BE
:1001700000000000000000C2000000000000504C21
:100180004C310D0A00504C4C300D0A005620312ED7
:1001900036332043534D38363800202F2000203D81
:1001A00020004C4F56460D0A00424F56460D0A009D
:1001B0000B08105B11F81547191D1A1C1BC71C00F2
:1001C0001DB221B623EA0007022E030D04E905CA79
:1001D000070C0B060D210E650F6A10C81193120350
:1001E00015341733181819161B43215625002611EC
:1001F00029592C812D353EC34F464600544D4F445E
:100200004500534D4F4445000454053D170000067A
:1002100002000B080C000D210E6B0FD0105C1104B6
:100220001206132214F80A00154421B622101818D9
:10023000192E1ABF1B431C091DB523EA242A2500C9
:10024000261F29592C812D352E0907040800090085
:1002500006FF3EC2FF047605961700000602000B5B
:10026000080C000D210E650F6A106A114A12061360
:100270002214F80A00154721B622101818192E1A50
:100280006D1B041C091DB223EA242A2500261F2900
:10029000592C812D352E0907040800090006FF3E60
:1002A000C2FF4C454E4552520D0A004C4F56460D6A
:1002B0000A004C454E4552520D0A00000702460402
:1002C000C605260B0610C811931203132215341706
:1002D0003F182819161B432156250026110D210E03
:1002E000650F6A070C160720F81E871F6B29592C0B
:1002F000812D353EC3FF000D2E2D07D3913D0432D5
:100300000000060010B07155E43023B90007001852
:10031000146C070090876BF85611E92A001F410002
:100320004E2F4100454F420D0A004E2F41004E2FE7
:10033000410000535300547D7DFFFF4B4B7E7E00F8
:1003400020697320756E6B6E6F776E29205573650B
:10035000206F6E65206F66003F20280011241FBEAD
:10036000CFEFD0E4DEBFCDBF12E0A0E0B1E0ECEE15
:10037000F0E600E00BBF02C007900D92A438B10771
:10038000D9F728E1A4E8B2E001C01D92AC35B2076C
:10039000E1F703D00C94743033CE88E10FB6F894B3
:1003A00080936000109260000FBE90E080E80FB66E
:1003B000F89480936100909361000FBE3E9A469A34
:1003C0000E946B2562D50E947B250E94A3290E9472
:1003D000FB2889EF87BD84E085BD82E084BD8093E2
:1003E0006E00109280008AE08093810084B7877F3E
:1003F00084BF2FE088E190E00FB6F894A895809331
:1004000060000FBE2093600089E190E80E944325C0
:100410000E94991F0E94590B84E994E2909304086A
:100420008093030881E0809387020E94DA11809113
:100430008702886080938702469878940E9464259A
:100440000E94680D11D20E94FF230E945A130E943D
:1004500061140E949A1B0E949E16F0CF8EBD0DB4AF
:1004600007FEFDCF8EB50895A1E0B0E0EAE3F2E02B
:100470000C94B62D482F8A3008F048E088E0489F59
:1004800070011124F701E25DFE4F7F018BE290E0E5
:10049000F70164918C010F5F1F4F4983F4D3FFEF85
:1004A000EF1AFF0A49810333110511F0C801F0CF9B
:1004B0004550453010F461E101C067E184E290E00D
:1004C000E2D32196E6E00C94D22DCF93DF9382E025
:1004D00090E0FC01ED5FFE4F6491EC012196D3D3D7
:1004E000CB32D10511F0CE01F4CF87E390E0FC01CF
:1004F000EB55FF4F6491EC012196C5D3C036D10571
:1005000011F0CE01F4CF88E0AFDFDF91CF910895F5
:100510002C98806CA3DF80E0A1DF2C9A0895A1E0E5
:10052000B0E0E5E9F2E00C94B92D41E0BE016F5F67
:100530007F4F01964DD3892B21F18981893969F447
:1005400010E0812FE5DF40D3812F8770873009F4D9
:10055000C7D21F5F1033A9F714C0DADF182F83E466
:100560006FD2898131D388ED90E0ADD2812F2CD329
:1005700084ED90E0A8D240E262E0812F90E0B4D216
:10058000AFD22196E3E00C94D52DA1E0B0E0EBECE6
:10059000F2E00C94BA2D2C98806469835FDF698146
:1005A000862F5CDF2C9A2196E2E00C94D62D2C98B5
:1005B00055DF2C9A0895EF92FF920F931F93CF93DC
:1005C000DF93EC0110923403E898249A2C9A8EE180
:1005D00090E0C1D12C988EE190E0BDD12C9A8DE2B3
:1005E00090E0B9D180E3E3DF84E690E0B4D12C98C9
:1005F00080E434DF7E0189E2E80EF11C8E010F5F9A
:100600001F4FCE0145D32ADF0E151F0511F0E8015B
:10061000F5CF2C9A2C988EE721DF8BE290E0EC014D
:10062000219636D31BDFC333D10511F0CE01F7CFAE
:100630002C9A83E3BCDF81E093D1CDB7DEB7E6E04F
:100640000C94D22DA1E0B0E0E8E2F3E00C94BA2DD6
:1006500022E0298341E0BE016F5F7F4F0196B8D24F
:10066000898102DF82E090E0A6DF2196E2E00C942F
:10067000D62DCF93E89886E39ADFCFEF85E397DF17
:10068000C1508077803229F08AE090E064D1C111B6
:10069000F5CFCF910895CF93CFEF84E388DFC1509A
:1006A0008077803129F08AE090E055D1C111F5CFF3
:1006B000E89ACF91089586E37ADF109205081092A8
:1006C000310310923403089582E090E074DF81E0FA
:1006D00080930508109231031092340308950F930C
:1006E0001F93CF93DF93082F10E0C62FD0E085E350
:1006F0000FDF801731F0CE012ED11150C1F781E00C
:1007000001C080E0DF91CF911F910F91089585E2A4
:10071000FFDE8F3311F080E0089586E348DF80919B
:100720008402811104C085E891E0CDD102C08DE33F
:100730003EDF83E33CDF64E081E0D1DF85E2E8DE99
:100740008F3349F780918402811103C08EE791E0D5
:10075000BAD181E0089585E3DBDE8D3051F485E286
:10076000D7DE8F3331F4D3DF84E321DF807780312C
:10077000D9F708951F920F920FB60F9211240BB65E
:100780000F928F939F93AF93BF93EF93FF938091BB
:10079000070890910808A0910908B0910A080196ED
:1007A000A11DB11D8093070890930808A093090824
:1007B000B0930A08809106088F5F80930608E2EAEA
:1007C000FFE080819181181619061CF4019791832E
:1007D000808336968FE0EA3BF80799F78091BC0F4B
:1007E0009091BD0F009729F001979093BD0F8093D2
:1007F000BC0F8091CF0F8F3F19F081508093CF0FA6
:10080000FF91EF91BF91AF919F918F910F900BBE90
:100810000F900FBE0F901F9018952FB7F89440912E
:100820000708509108086091090870910A08FC01B6
:1008300040835183628373832FBF0895A4E0B0E0A7
:10084000E4E2F4E00C94BA2DCE010196E6DF8C814F
:10085000BBD18B81B9D18A81B7D18981B5D140D142
:100860002496E2E00C94D62D1F93CF93DF938091D2
:10087000070890910808A0910908B0910A082091F2
:100880008602281709F463C0809107089091080830
:10089000A0910908B0910A0880938602A895C2EA3F
:1008A000DFE010E028813981232B19F4812F0E9489
:1008B00028221F5F26961430A9F78091BC0F9091D3
:1008C000BD0F892B11F40E9484228091CF0F8111DA
:1008D00002C00E94E22280911C0C882339F08150D2
:1008E00080931C0C811102C00E94F8130E94EB2916
:1008F000809106088D3758F110920608809100010A
:1009000081FF04C088B190E4892788B980910B08E1
:1009100090910C08843823E0920728F40196909374
:100920000C0880930B080E940526809185028F5F3A
:10093000809385028C3359F4109285028091A10F27
:100940008F5F8093A10F8C3310F01092A10FDF9175
:10095000CF911F910895880F991F0197F1F708957E
:1009600020ED37E0815020F0F9013197F1F7FACF0F
:100970000895CF93DF93DC0116968C9116978435FA
:1009800009F05BC0CD010696CD91DC9111974DE049
:10099000242F30E02C173D0740F0AE014F50510995
:1009A0002417350709F049C008C0FC01E20FF31F06
:1009B00050815B3391F34F5FEBCFFE013E97E80F21
:1009C000F91F20812435C9F517963C91179721818D
:1009D000321333C018963C911897228132132DC0E0
:1009E00019963C9119972381321327C01A963C918E
:1009F0001A972481321321C06197C80FD91F8581AE
:100A000088838681898381858A8382858B83838598
:100A10008C8384858D8385858E838D919C911197A0
:100A20000A9711969C938E9314968D919C9115978D
:100A30000A9715969C938E931497DF91CF91089502
:100A4000CF93C82F8091870280FF13C02091E50FBC
:100A50003091E60F2E3F83E0380738F021153440FF
:100A600040F4CD3011F0CA3021F46C2F81EE9FE0BC
:100A70002BD28091270C8823C9F08091870283FFB5
:100A800015C0CA3099F0CD3011F46BE301C06C2F62
:100A900084E198E019D2CD3019F484E198E069DF5F
:100AA00083E080931C0C82E08093220CCF91089508
:100AB000CF93DF93EC018991882311F0C1DFFBCF45
:100AC000DF91CF910895CF93DF93EC01FE018491E4
:100AD000882319F0B5DF2196F9CFDF91CF910895E2
:100AE0008DE0AEDF8AE0ACCFA6E0B0E0EAE7F5E06B
:100AF0000C94B82D062F1E8215E02AE030E011502C
:100B0000E1E0F0E0EC0FFD1FE10FF11DB9010E94E3
:100B1000832D805D8083CB010150009769F0111116
:100B2000EECF0AC0112359F01150E1E0F0E0EC0FD4
:100B3000FD1FE10FF11D4083015007FFF3CF81E05E
:100B400090E08C0F9D1F810F911DB2DF2696E4E08F
:100B50000C94D42DA5E0B0E0E0EBF5E00C94BA2DB8
:100B60001D8224E0382F3F702150E22FF0E03A3010
:100B700010F4305D01C0395CA1E0B0E0AC0FBD1FE6
:100B8000EA0FFB1F308334E0969587953A95E1F79D
:100B90006150009739F7615067FD0BC0222349F07F
:100BA0002150E1E0F0E0EC0FFD1FE20FF11D40836A
:100BB000F2CF81E090E08C0F9D1F820F911D78DFB6
:100BC0002596E2E00C94D62D40E362E090E0C2CF9F
:100BD000DC01FB0130E090E08D918823A9F08136A3
:100BE00008F0805220ED280F2A3030F02FEB280F2C
:100BF000263030F429EC280F292B332379F006C056
:100C0000803251F38A3341F3CF0105C0CF01019601
:100C10002083415041F4861B970B0895922F9295A3
:100C2000907F31E0D9CFFC01D5CF20E030E05AE011
:100C3000FC014191CF01442379F0E0EDE40FEA306B
:100C4000B8F7F9015E9F90015F9F300D112420538A
:100C50003109240F311DECCFFB013183208308952E
:100C6000982F92959F709A3010F4905D01C0995C16
:100C7000FB0190838F708A3010F4805D01C0895C25
:100C8000FB01818308950E946630F999FECF089593
:100C90000C945E3008951F93CF93DF93162F11505D
:100CA0001F3F59F0EC012196F3DF8EDF112311F085
:100CB0008AE3C6DE1150CE01F3CFDF91CF911F91B1
:100CC0000895A2E0B0E0E7E6F6E00C94B72DFC0151
:100CD00021812D3421F466E08AEF9FE005C02035A4
:100CE00029F460E18AED9FE0D6DF26C01A821982DE
:100CF00042E0BE016F5F7F4F01966ADF098110E01D
:100D0000823021F4102F00278A81082BC801C0DF10
:100D1000F82E82E595DE40E364E0C8011BDF8EE932
:100D200091E0D1DE8F2D50DF8AE991E0CCDE40E208
:100D300062E08F2D90E0D8DED3DE2296E5E00C94C1
:100D4000D32DA6E0B0E0E7EAF6E00C94B42D6C01F8
:100D500043E0BE016F5F7F4F01963ADF823070F152
:100D6000E980F12C823021F0FE2CEE242A81E22A47
:100D70008C011127FE01E00FF11F6081C70183DFA5
:100D8000000F111F0F5F1F4F0C0D1D1D8FEFE81A75
:100D9000F80AF8018081882389F041E0BE016F5F85
:100DA0007F4FC80115DF892B49F06981C7016BDFCF
:100DB0000E5F1F4FE2E0EE0EF11CEBCF2696E8E04F
:100DC0000C94D02D41E060E071E0019601DF80914C
:100DD000000180FF02C0469A01C046986091000160
:100DE00084E390E050CFA1E0B0E0E9EFF6E00C94AE
:100DF000BA2D1982009731F041E0BE016F5F7F4F3D
:100E00000196E6DE8981882321F061E083E390E0AA
:100E10003ADF10926E00F89428E088E190E00FB677
:100E2000F894A895809360000FBE20936000FFCFD8
:100E3000CF93DF93EC0161E080E090E024DF6FE38B
:100E400081E090E020DF41DB60E080E690E01BDFA6
:100E500060E081E690E017DF60E083E390E013DF7D
:100E600062E084E390E00FDF60E080E690E00BDF7B
:100E700060E081E690E007DF8981883719F080E043
:100E800090E0B1DFDF91CF91089580E090E000DF46
:100E9000813029F481E090E0FBDE8F3319F080E0AF
:100EA00090E0C6DF84E390E0F3DE809300010895D4
:100EB0008CE891E008DE14CEFC01158214821182C8
:100EC0001082138212820895FC014FB7F894848136
:100ED0009581811524E0920798F401969583848387
:100EE00020813181C901019691838083DF01A20FA6
:100EF000B31F16966C938115944011F411821082E1
:100F00004FBF0895FC014FB7F894848195810097F5
:100F100019F44FBF80E008950197958384838281FF
:100F200093819C012F5F3F4F33832283DF01A80F02
:100F3000B91F16968C912115344011F41382128238
:100F40004FBF0895FA013081882369F0E1E0F0E0B5
:100F5000022E01C0EE0F0A94EAF7DB01A30FB11DC8
:100F60009C919E2B9C93222319F08FEF820F0BC034
:100F700081E0830F8C3010F4FA018083FB01E80FCD
:100F8000F11D108287E090E00895CF93C82F299A31
:100F9000882319F080918A0202C080918C0220E19E
:100FA000829FC0011124D7DC2998CC2319F08091AD
:100FB000890202C080918B0220E1829FC00111242E
:100FC000CADCCF910895A3E0B0E0E9EEF7E00C941D
:100FD000AA2D5C01162F622E842F90E09B838A83BA
:100FE00020910B0830910C080296089F802D112447
:100FF000992787FD90952817390720F482EA91E018
:1010000062DD7DC0281B390B30930C0820930B0840
:10101000469A80913403882341F01092340380E88B
:1010200092E06DD3FF24F39401C0F12C8091050868
:10103000811101C049DB1DDB812E912CCC24C3948E
:10104000D12C712C512C852D992787FD90958815D1
:10105000990524F480E099DF5394F5CF112311F022
:1010600081E093DF20E0422E552447FC5094EA8132
:10107000FB814E165F062CF097E0392E4A0C5B1C64
:101080001AC087E0282E312C4A0C5B1CC601022CAA
:1010900001C0880F0A94EAF7F2019081892329831D
:1010A00074DFF1E02F1A310829818FEF28163806F6
:1010B00069F72F5FD8CF832D992787FD9095681604
:1010C000790664F4C601032C01C0880F0A94EAF77C
:1010D000F2019081892359DF3A94EDCF8E2D40DCC7
:1010E000015009F0AFCF80910D08882311F0D3DAB9
:1010F00002C086E35CDAF1100E94B6194698239686
:10110000E2E10C94C62DADE0B0E0E9E8F8E00C9423
:10111000AD2D7C01162F842F022F6701C60ED11C26
:10112000462FB70101D3D6018C931F5F1D8619820C
:101130005E2C670127E066246394712C8C2D851941
:10114000811788F547E0A42EB12C4701880E911C29
:10115000F3010A2C01C0EE0F0A94EAF7D4018C9136
:10116000AE01435F5F4FBE016F5F7F4F8E23EADEAC
:10117000282FB1E0AB1AB10858F7D6018D916D0157
:10118000082E82958025082E8695869580258F5F6E
:1011900086958170AE01435F5F4FBE016F5F7F4FE9
:1011A000D1DE282FCBCF222311F0215004C08D8512
:1011B0008F5F8D8727E089E180938B0280938C027B
:1011C00085E28093890280938A023AE0E32E4D857E
:1011D0006CE0CE010196F7DE2D96EFE00C94C92D60
:1011E000ADE0B0E0E6EFF8E00C94B92D162F242F17
:1011F0004BE0BE016F5F7F4F01962D87E9DC2D85A7
:10120000412F682FCE0101967EDF2D96E3E00C94EE
:10121000D52D43E066E0E4CFEF920F93CF93DF93B9
:10122000CDB7DEB760970FB6F894DEBF0FBECDBF67
:1012300040E1BE016F5F7F4F0196CADC69814A8140
:101240000B818C8180938C028D8180938B028E81A7
:1012500080938A028F8180938902E02EE2947FE05E
:10126000E7220F70242F2F7042954F70CE01089601
:10127000AADE60960FB6F894DEBF0FBECDBFDF9139
:10128000CF910F91EF900895A9E1B0E0EAE4F9E081
:101290000C94B22D4BE0BE016F5F7F4F019698DC3E
:1012A000182F893009F05AC099E190938B029093DE
:1012B0008C0290938A0282E38093890269E0CE01D6
:1012C00001963CD2E1E0F0E0EC0FFD1FE10FF11DD3
:1012D0008083198E1D86CE0101967C016E019BE0F4
:1012E000C90ED11C27E0AA24A394B12CEC14FD0450
:1012F00029F100E010E0F501002E01C0EE0F0A9484
:10130000EAF7D7018C91AE01475E5F4FBE01635F84
:101310007F4F8E2317DE282F0F5F1F4F08301105D8
:1013200051F7AE01475E5F4FBE01635F7F4F81E0C3
:1013300009DE282FBFEFEB1AFB0AD8CF222311F0CA
:10134000215004C0898D8F5F898F27E0EAE0EE2E5F
:1013500003E0498D6CE0CE010D9635DE6996EAE03A
:101360000C94CE2DA9E1B0E0E8EBF9E00C94B12D9E
:101370004BE09E012F5F3F4F7901B901019628DCB8
:10138000182F85E380938C0296E190938B029093C3
:101390008A0280938902612FC701DCD1F701E10F36
:1013A000F11D808399249394910E198E1D868701D7
:1013B00027E0AA24A394B12C802F8E19891508F058
:1013C0004AC0C12CD12CF5010C2C01C0EE0F0A949F
:1013D000EAF7D8018C91AE01475E5F4FBE01635FB3
:1013E0007F4F8E23AFDD282FBFEFCB1ADB0A34E00F
:1013F000C316D10441F7AE01475E5F4FBE01635F84
:101400007F4F81E09FDD282FB4E0CB2ED12CF5015A
:101410000C2C01C0EE0F0A94EAF7D8018C91AE01B2
:10142000475E5F4FBE01635F7F4F8E238BDD282FAA
:10143000BFEFCB1ADB0A38E0C316D10441F7AE0187
:10144000475E5F4FBE01635F7F4F81E07BDD282FEA
:101450000F5F1F4FB1CFAAE0EA2E03E0498D6AE08B
:10146000CE010D96B0DD6996EBE00C94CD2D8F92F8
:101470009F92AF92BF92DF92EF92FF920F931F93D2
:10148000CF93DF931092A8021092BD02FC0121813C
:10149000220F220F220F3381231B57E0520F10928D
:1014A000A90210E070E038E0D32ED20EFF24F394AE
:1014B00047E007E0E12CC7E0D0E0A1E0B0E0FD1498
:1014C00009F47FC0FC01EE0DF11D248130E0002EF7
:1014D00002C0359527950A94E2F721703327E22F51
:1014E000002311F0015002C0E39407E06B3471F463
:1014F000433009F04AC0111107C0E1115FC01092DA
:10150000A8027093BD0274C010E041C04F3F31F596
:101510006634A9F4E72FF0E0E755FD4FE0810E2E89
:10152000E295E0250E2EE695E695E025EF5FE1FBDE
:10153000882480F8912C8216930641F004C065340B
:1015400029F4E11103C01093A802DBCF7F5FE72FDE
:10155000F0E0E755FD4F108247E031C0EE2361F126
:10156000663471F4E72FF0E0E755FD4FA0809D0150
:10157000042E01C0220F0A94EAF7A22AA0821CC0FE
:10158000653439F06B34C1F404C04F3FD1F2EE231F
:1015900099F0E72FF0E0E755FD4F9E01241B31093C
:1015A00047FD33955D0102C0AA0CBB1C2A95E2F7EA
:1015B00095013081322B3083415001C011E0F3940A
:1015C0007ECF1093A8027093BD025F1588F4653436
:1015D00031F44F3F21F47F5F7093BD0204C08091CE
:1015E000A8028111F8CF81E09091BD02911101C054
:1015F00080E0DF91CF911F910F91FF90EF90DF90EE
:10160000BF90AF909F908F90089510926F00E091DF
:10161000C0028CE1E89FF0011124EF53FD4F1082CE
:101620000895FC012181243108F0EFCF3381662336
:1016300081F081E090E0032E01C0880F0A94EAF760
:10164000DF01A20FB11D14969C911497982B14964C
:101650009C93332319F031503383089587E08383BB
:101660002F5F2183E20FF11D14820895DC01119692
:10167000EC911197F0E050E02C91CF01841B950B79
:101680000B964797A0F430E070E0C901861B970BDA
:101690000B96479760F42E0F3F1F640F751F261B94
:1016A000370B255F3F4F81E02731310508F080E09F
:1016B0000895219A29985298E9E6F0E080818160A6
:1016C000808382EC91E090930C0880930B08109239
:1016D000DD021092F9021092150310920508089588
:1016E0008091330381110AC080910D08882321F075
:1016F0000E9464030C944B030C945B030895FC015B
:10170000218121110BC080910D085EDA40E265E075
:1017100080910B0890910C08E7D9E2C941E06DE097
:1017200078E0019655DADCCF442339F04150FB01D3
:10173000E40FF11D9081890FF7CF089520E0662313
:1017400039F06150FC01E60FF11D30812327F7CFFE
:10175000822F0895A091A80240E035E020E06623A2
:1017600099F06150FC01E60FF11D5081752F7295C3
:101770007F702727370FAA2311F0442319F05F70D9
:101780002527350F4F5FEBCF320F40E1349FC0016B
:101790001124822B0895FC0132812381A081B18123
:1017A000A30FB11D8C9190E0022E02C095958795F4
:1017B0000A94E2F7817099274FEF420F438321117A
:1017C00004C03F5F328327E023830895A2E0B0E0A6
:1017D000ECEEFBE00C94B22D7C01A12CB12CD12CB1
:1017E000CC24C394062F10E001501109A616F0F482
:1017F000C7014A836983CFDF4A816981882391F0D9
:10180000442349F098012A193B098C2D01C0880F07
:101810002A95EAF706C08C2D0A2C01C0880F0A947D
:10182000EAF7D82A8FEFA81AB80AE0CF8D2D2296B2
:10183000EAE00C94CE2DA4E0B0E0E1E2FCE00C94F0
:10184000B12D1B8227E02C839C012C5F3F4F3A83F4
:1018500029831092BD02FC012181338187E090E051
:10186000831B9109F8E02F9F800D911D1124853471
:1018700091050CF44EC0B12CA090BD02F5E0FA1514
:1018800058F10A2D10E040E068E0CE0101969EDF9D
:1018900007551D4FF8018083982E092C92949024AF
:1018A000092C969496949024CE01019674DF93941B
:1018B00091FACC24C0F8D12C90E0C816D90649F58D
:1018C000CE01019668DF811124C0F8018081B8261D
:1018D000A394A092BD02D0CF40E068E0CE01019673
:1018E00075DF082F182F012E12951025012E169541
:1018F00016951025CE0101964EDF1F5F11FBEE24D9
:10190000E0F8F12C282F30E0E216F30611F481E024
:10191000B01280E02496EBE00C94CD2DA5E0B0E071
:10192000E4E9FCE00C94B52DFC011B8287E08C837C
:10193000CF0104969A8389831092BD0280818530FD
:1019400009F04FC02181338187E090E0831B91092A
:1019500038E0239F800D911D11248039910509F0F5
:1019600040C00FE010EF29E88091BD02E82EF12C75
:10197000DD24D394D80E41E068E08F3088F4CE01A6
:1019800001962D8323DF080F111DF701E755FD4F49
:101990002D812827208324E2280FD092BD02E4CF96
:1019A000CE01019613DF080F111DD092BD02F70181
:1019B000E755FD4F8095808341E068E0CE010196B8
:1019C00005DF90E0982F8827081B190B41E068E09D
:1019D000CE010196FBDE282F30E081E002171307CD
:1019E00009F080E02596E7E00C94D12DA4E0B0E06A
:1019F000ECEFFCE00C94B72D1B8227E02C839C01BC
:101A00002C5F3F4F3A832983FC0121812430A1F5CB
:101A10008381813089F51092BD028091BD02082F2B
:101A200010E0FF24F394F80E41E0843098F4811123
:101A300006C067E0CE010196C9DE806804C068E098
:101A4000CE010196C3DEF801E755FD4F8083F09289
:101A5000BD02E3CF67E0CE010196B8DEF801E7559D
:101A6000FD4F880F8083F092BD029091A90292955C
:101A70009F7081E09A3009F080E02496E5E00C94B4
:101A8000D32DCF93DF93FC0181818330E9F48381EF
:101A90008730D1F480818830B9F41092BD0220E003
:101AA000822F90E0DC01A755BD4FEF01C80FD91F71
:101AB0008C818C9381E0820F833010F4282FF0CF3B
:101AC0008093BD0281E001C080E0DF91CF91089555
:101AD000A0E0B0E0EEE6FDE00C94B52D80918D0223
:101AE0008823B9F180910D0887FF17C084E30E9415
:101AF00088028058803458F0803C58F490E080553B
:101B0000910923E0959587952A95E1F703C080E038
:101B100001C08FE08F590E94200580910D0883FF3E
:101B200016C082E70E94200580910D0884FF04C042
:101B300080918E020E94200586E60E9420058091F9
:101B40000D0884FF04C080918D020E942005109230
:101B50008D028091BE02882309F411C2469AC09179
:101B6000BF022CE1C29FE0011124CF53DD4FCE0113
:101B700088DF811102C0F12C02C093E7F92ECE015B
:101B8000CDDE811133C0F11060C166E4CE016FDC9F
:101B9000882391F11091BD0211501093BD02412F85
:101BA00069EA72E086E0C0DDE12FF0E0E755FD4F25
:101BB0000081801302C01430E0F4282F30E02F5F42
:101BC0003F4F602F70E02617370721F4143010F0D4
:101BD00080830FC0412F69EA72E08CE0A5DD80139D
:101BE0000BC0143048F0F4E5FF2E2FC1B3E5FB2EF7
:101BF0002CC1A6E4FA2E29C165E4CE0138DC882385
:101C000039F08091BD0281508093BD02893029F066
:101C1000CE0111DE811113C00BC069E089EA92E0A8
:101C20008DDD9091B2028913F3CFE5E4FE2E0DC154
:101C3000CE01DCDE882331F064E7F62E06C178E4BD
:101C4000F72E03C1D0908E028E01065E1F4F4B8D82
:101C50006D2DC8010BDD682FCE01E3DC6BE4CE01F6
:101C600006DC8823A9F0E090BD02EA94E092BD0270
:101C70006E2D89EA92E06EDDEE2DF0E09091A802E3
:101C8000E91BF109E755FD4F9081891709F4DBC085
:101C90008B81873029F41B8289818150898302C01E
:101CA0008F5F8B838981843009F04BC08B818430B6
:101CB00009F047C04EE16CE3CE014896D7DC88239B
:101CC00009F43FC04EE16D2DC801D0DC682FCE0174
:101CD000A8DC20E0822F90E0FC01E755FD4FDE01FB
:101CE000A80FB91F14968C91808381E0820F8530F4
:101CF00010F4282FEFCF8093BD0282E5F82EA5C007
:101D00002093A702409107085091080860910908A4
:101D100070910A0840938F02509390026093910251
:101D200070939202F4E5FF12F4C0A6FDF2C0809118
:101D3000BD02853008F4EDC08091AB028B3409F010
:101D4000D6C080910D0882FF65C080E70E94200503
:101D5000888140E262E090E00E947405888D40E254
:101D600065E020E1829FC00111240E947405898DE5
:101D700040E265E0E0E18E9FC00111240E947405FD
:101D80008A8D40E265E0F0E18F9FC00111240E943E
:101D900074058B8D40E265E020E1829FC001112433
:101DA0000E9474058A8140E263E090E00E9474051D
:101DB000898140E263E090E00E9474052B8140E25B
:101DC00062E087E090E0821B91090E94740580E246
:101DD0000E94200580910D0885FF08C084E30E94C1
:101DE00088020E94E40580E20E9420058B818730F2
:101DF00019F089818F5F898310E08981181740F479
:101E0000FE01E10FF11D84810E94E4051F5FF5CF03
:101E10000E94700518828091BE0281508093BE029C
:101E20008091BF028F5F843019F08093BF0202C09F
:101E30001092BF02469884E5F812A1C089EA92E0A8
:101E40000E94F1229CC05BE4F52EA0910D08A0FF3A
:101E500078CFA1FD4AC03091A702B091BD023B13DB
:101E600032C020E0231770F4822F90E041E0420F4F
:101E7000FC01ED56FD4F87559D4F5081FC0180813F
:101E8000581729F02093A70223131DC002C0242F46
:101E9000E9CF4091070850910808609109087091B6
:101EA0000A0800918F0210919002209191023091C6
:101EB0009202401B510B620B730B31E0463251050D
:101EC0006105710508F030E020E02B1708F018CF0D
:101ED000822F90E0AC014D565D4F87559D4FFC0120
:101EE0008081FA0180832F5FF0CF30E01BCF8936ED
:101EF00009F427CF9DEA980F923008F422CF8D572E
:101F0000823008F41ECF8091AC028077803709F4CC
:101F100018CF311116CF8F2D0E9420058091A80275
:101F2000882329F08091BD0281508093BD0210E08A
:101F3000E091BD021E1748F4E12FF0E0E755FD4F98
:101F400080810E94E4051F5FF3CF8091A80288235F
:101F500051F0F0E0E755FD4F80818F7040E361E084
:101F600090E00E94AA0580910D0885FF05C084E3DA
:101F70000E9488020E94E4050E947005E2CECDB75F
:101F8000DEB7E7E00C94D12D1F920F920FB60F929F
:101F900011240BB60F922F933F934F935F936F9340
:101FA0007F938F939F93AF93BF93EF93FF93109281
:101FB0006F0080910D0883FF03C08EE20E94200510
:101FC0008091C0029CE1899FF0011124EF53FD4FE5
:101FD0009081933018F09181923010F416DB18C084
:101FE0009091BE02933049F480910D0882FFF6CFA4
:101FF00089EA91E00E946305F1CF9F5F9093BE0252
:102000008F5F843019F08093C00202C01092C0022A
:10201000FF91EF91BF91AF919F918F917F916F91C0
:102020005F914F913F912F910F900BBE0F900FBE7C
:102030000F901F9018959BED980F973150F496EFE5
:10204000960F9D3130F491E0681708F090E0892FE9
:10205000089580E008951F920F920FB60F921124F9
:102060000BB60F92FF920F931F932F933F934F93B3
:102070005F936F937F938F939F93AF93BF93CF9310
:10208000DF93EF93FF938091E00F882321F082E0AC
:102090008093E00F63C180911D0C823021F483E0B6
:1020A00080931D0C5BC10091840010918500B4E009
:1020B00016950795BA95E1F7C091C0029CE1C99FBA
:1020C000E0011124CF53DD4F9881943031F40E326A
:1020D00008F444C10F3448F0B6C0953031F40731EC
:1020E00008F43CC1083208F0AEC04A990DC09450C3
:1020F000923038F461E0CE0194DA109285001092AB
:10210000840000938E022AC180918E02081B0093E6
:102110008D0210928500109284009881983071F49D
:102120002A8121110BC021E02A83888F8A8F098F91
:102130000B3B10F4000F01C006950B8F94509230AA
:1021400020F460E0CE016DDA09C182E086BBF88040
:10215000F11011C090918E02953608F0FFC0809169
:102160008D02853608F0FAC0988F898F81E08A83C6
:1021700082E08883F3C010918D0282E0F81273C070
:1021800000918E02412F602FCE0148966FDA6A814E
:102190008823F9F0488D50E09A01220F331F240F55
:1021A000351F200F311D3595279535952795288F9B
:1021B000298D30E0C901880F991F820F931F810F6D
:1021C000911D9595879595958795898F6F5F6A8302
:1021D000C5C0643008F445C020EA3FE03093890070
:1021E000209388008A818C3050F0888D298D30E0D2
:1021F000280F311D2536310524F084E027C08A30B0
:1022000088F0888D298D30E0280F311D2532310569
:102210004CF485E0888328EE33E0309389002093E6
:10222000880015C080911308882379F0612F802FD2
:1022300002DF882351F0688D898DFDDE882329F027
:1022400081E080931D0CE1D989C083E088830A8FE7
:102250001B8F198287E08B831C8282E080936F0042
:102260007DC0188277CF98E0F91225C081E9810FEF
:102270008D3178F460E0CE01D4D9288D30E0C901E9
:10228000880F991F820F931F20918E02820F911D3C
:102290004EC0173E08F462C061E0CE01C2D92A8D5B
:1022A00030E0C901880F991F820F931F20918E0281
:1022B000820F911D15C000918E02412F602FCE011B
:1022C0004A96D4D9882301F161E0CE01AAD92A8D9A
:1022D00030E0C901880F991F820F931F800F911D55
:1022E00095958795959587958A8F2B8D30E0C901B7
:1022F000880F991F820F931F810F911D95958795C8
:10230000959587958B8F2AC0412F602FCE014896D7
:10231000ADD9882301F160E0CE0183D9288D30E06A
:10232000C901880F991F820F931F800F911D9595EA
:10233000879595958795888F298D30E0C901880FFD
:10234000991F820F931F810F911D959587959595E4
:102350008795898F03C087E0F81275CFFF91EF91C1
:10236000DF91CF91BF91AF919F918F917F916F91AD
:102370005F914F913F912F911F910F91FF900F907F
:102380000BBE0F900FBE0F901F901895E091C002EA
:102390008CE1E89FF0011124EF53FD4F8081811102
:1023A00007C081E09091CF0F9F3F19F480E008951E
:1023B00081E0089580E690E00E944806809313082B
:1023C00081E690E00E9448068093270C882321F044
:1023D00081E280930D0884C90895299A0C94AB0476
:1023E00029980C94AB04A7E0B0E0E9EFF1E10C947C
:1023F000B52D90911F08943559F42091200C3091FF
:10240000210C2F5F3F4F3093210C2093200C3EC0B6
:10241000963459F420911E0C30911F0C2F5F3F4FC2
:1024200030931F0C20931E0C31C0953459F4209129
:102430001008309111082F5F3F4F309311082093FF
:10244000100824C09B3459F42091230C3091240CA3
:102450002F5F3F4F3093240C2093230C17C09834E8
:1024600059F42091250C3091260C2F5F3F4F30936B
:10247000260C2093250C0AC020910E0830910F08DD
:102480002F5F3F4F30930F0820930E0895E79983F5
:10249000882399F0BE016E5F7F4F8091270C0E94C8
:1024A0003006BE016C5F7F4F809113080E9430069A
:1024B00085E58E8386E0D82E02C0DD24D3940E9469
:1024C00064030E94390316E080E891E086DF80E033
:1024D00093E086DF1150C1F780E093E07EDF80E873
:1024E00091E07EDF80E891E078DF299887E390E053
:1024F0000E94DB0283E00E94B0042C988FE70E94C8
:102500002E02809118088D0D0E942E02CE01019698
:102510007C018C01F80181918F010E942E02802F95
:102520008E198D15B8F38091180890911908892B90
:1025300039F084E198E00E9482070E942E02F3CFD6
:102540002C9A0E94390384E198E00E945C0715E10F
:102550008AE30E9488028F7731F0115021F081E0E8
:102560000E94B004F5CFBCD82796E7E00C94D12D9B
:10257000CF93DF93EC018981811107C0809113080B
:102580000E94E4058091270C13C08436A1F4809149
:10259000070890910808A0910908B0910A0840E343
:1025A00064E00E94AA058EE20E94200580911C0C26
:1025B0000E94E4054DC0833709F04DC040E361E05F
:1025C0008091200C9091210C0E94AA058EE20E941D
:1025D000200540E361E080911E0C90911F0C0E9449
:1025E000AA058EE20E94200540E361E08091100878
:1025F000909111080E94AA058EE20E94200540E3F6
:1026000061E08091230C9091240C0E94AA058EE237
:102610000E94200540E361E08091250C9091260CFA
:102620000E94AA058EE20E94200540E361E08091AD
:102630000E0890910F080E94AA058EE20E942005C4
:1026400040E361E080911A0C90911B0C0E94AA0556
:102650000E9470052CC08936D9F441E063E178E02E
:10266000CE0102960E94E8056091130880E690E092
:102670000E94430641E067E27CE0CE0104960E949E
:10268000E8056091270C81E690E00E9443060FC0A8
:1026900084E198E00E945C0721966991662329F005
:1026A00084E198E00E946407F8CF80E09CDEDF912F
:1026B000CF910895A1E0B0E0E0E6F3E10C94B42DF1
:1026C00080911D0C882309F48FC0C0900708D0901A
:1026D0000808E0900908F0900A08833009F06AC001
:1026E0008FE30E948802182F8630C8F087EE93E1AE
:1026F0000E945C072C988FEF0E942E0280E00E94BF
:102700002E02082F115049F080E00E942E02682FFF
:1027100087EE93E10E946407F5CF2C9A01C000E098
:102720000E94700B10921D0C053709F05DC041E04E
:10273000BE016F5F7F4F8DEE93E10E94E805019728
:10274000A1F599818091130898132FC08091F113FE
:10275000853581F48091EB139091EC13892B39F03E
:1027600087EE93E10E9482070E942005F3CF0E942A
:1027700070053AC08091EB139091EC1304979093FD
:10278000EC138093EB1384E090E09093EA13809332
:10279000E9136AE087EE93E10E946407E091030881
:1027A000F091040888E009951FC087EE93E10E942C
:1027B0005C071AC0823059F4809112089C2D981B36
:1027C000983090F00E94700B10921D0C0DC081305B
:1027D00059F487E390E00E94DB020E944B0382E001
:1027E00080931D0CC09212082196E8E00C94D02D25
:1027F000CDDD882361F083E08093220C80911A0C58
:1028000090911B0C019690931B0C80931A0C809155
:10281000220C81508093220C882321F083E0809346
:102820001C0C089581E0DFCDCF93DF93E898249AC4
:102830002C9A8EE190E00E94AB042C988EE190E0FF
:102840000E94AB042C9A8DE290E00E94AB0480E3DE
:102850000E94D70284E690E00E94AB04C6ECD1E06F
:10286000FE0131966491FE0184910E94C502229678
:10287000F1E0C83FDF07A1F780913203811107C063
:1028800083E30E94D70284E00E94B0040FC0C0EB33
:10289000D1E0FE0131966491FE0184910E94C5024F
:1028A0002296F1E0C63CDF07A1F7EACF84E30E945D
:1028B000D70285E30E9488028D30C1F7DF91CF9166
:1028C0000895A2E3B0E0E7E6F4E10C94B82D80911E
:1028D0003103882309F4A1C04A9B8AC08FE30E9478
:1028E00088028F778983823368F08AE30E94D70257
:1028F00086E30E94D7028DE30E94D70284E30E9400
:10290000D7028BC02C988FEF0E942E0210E0898195
:10291000181760F480E00E942E02E2E0F0E0EC0F75
:10292000FD1FE10FF11D80831F5FF1CF80E00E944A
:102930002E02082F80E00E942E022C9A84E30E942F
:10294000D70285E30E9488028D30C1F72A8196E77D
:1029500092279A8392E08981E92FF0E0981768F432
:1029600041E050E04C0F5D1FE40FF51F3081245211
:10297000232720839F5F232FEECF81E090E08C0FF1
:102980009D1FE80FF91F90818B819827908380917C
:102990000D0884FF12C081E60E94200510E08981A5
:1029A000811730F1E1E0F0E0EC0FFD1FE10FF11DC8
:1029B00080810E9420051F5FF2CF81E40E942005E4
:1029C00010E08981811758F0E1E0F0E0EC0FFD1F85
:1029D000E10FF11D80810E94E4051F5FF2CF80911D
:1029E0000D0885FF03C0802F0E94E4050E9470053A
:1029F00085E30E948802813029F0813161F48AE305
:102A00000E94D70286E30E94D7028DE30E94D7027C
:102A100084E30E94D7020E94AB03E296E4E00C94A8
:102A2000D42DA2E3B0E0E7E1F5E10C94B42D41E34D
:102A30008E010F5F1F4FB80101960E94E8056C01DF
:102A40009C01332721503109898190E028173907EB
:102A500009F06AC080913103811104C0E5DE83E092
:102A60000E94B004FB808A8196E789278A8392E0DE
:102A70008981292F30E0F801E20FF31F981750F4F5
:102A8000DE01A20FB31F8C918452208182278083A4
:102A90009F5FEECF80818F25808385E30E94D702E0
:102AA00085E30E9488028331C1F7F4FE08C088E7FD
:102AB0000E94B00488E70E94B00488E701C08AE061
:102AC0000E94B0042C988FE70E942E0278018E2D70
:102AD000801B8C1530F4F70181917F010E942E023A
:102AE000F6CF2C9A85E30E9488028331D9F385E3DF
:102AF0000E948802863149F48BE30E94D70286E364
:102B00000E94D7028DE30E94D7028091310388236F
:102B100049F084E30E94D70285E30E9488028D3049
:102B2000C1F702C00E94700BE296E8E00C94D02D31
:102B3000FC012181223731F0223559F481E0809364
:102B4000320302C0109232036FDE81E080933103C2
:102B50000895233711F4019664CF1092310308953C
:102B60008F929F92BF92CF92DF92EF92FF920F933C
:102B70001F93CF93DF931F92CDB7DEB7D82EC62E0B
:102B80007A0189012C988FEF99830E942E02BD2C27
:102B90008D2C9981992E882D8B198C1538F480E015
:102BA0000E942E02F40181934F01F5CFE114F1044C
:102BB00069F080E00E942E02F70180830115110563
:102BC00029F080E00E942E02F80180832C9A0F9059
:102BD000DF91CF911F910F91FF90EF90DF90CF90F9
:102BE000BF909F908F900895CF93882331F01092DB
:102BF000560D86E30E94D70207C085E30E94880233
:102C00008D30A9F780E039C085E30E948802C82F83
:102C10008130D1F78BE30E94D7028AE30E94D7026A
:102C200010924B0D10924D0D10924C0D10924F0DB5
:102C300010924E0D27E53DE03093510D2093500D3D
:102C40001092520DC093530D1092540D8091330386
:102C50008093550D60E083E00E94C50262E088E049
:102C60000E94C50284E30E94D70285E30E94880285
:102C70008D30D9F781E08093560DCF9108951F9341
:102C8000CF93DF93182F2198529810923303E8982E
:102C9000249A2C9A8EE190E00E94AB042C988EE14D
:102CA00090E00E94AB042C9A8DE290E00E94AB046D
:102CB00080E30E94D70284E690E00E94AB041130CA
:102CC00031F0123009F036C0C8E0D2E02EC0C5E5C0
:102CD000D2E0FE018491813480F01093330383E3CA
:102CE0000E94D7028CE0EBE4FDE0DF011D928A95A3
:102CF000E9F784E00E94B0041DC0FE0131966491A2
:102D0000FE0184910E94C5022296F3E0CD31DF07D7
:102D100001F7E3CF31966491FE0184910E94C502D0
:102D20002296F2E0C03DDF07C1F2FE0184918134BA
:102D300088F3D3CFDF91CF911F910895A4E0B0E045
:102D4000E4EAF6E10C94B92D80913303882309F469
:102D500005C18091560D813049F030F0823061F02C
:102D6000833009F473C0A3C081E0F7C04A9B9FC0C1
:102D700082E08093560D9BC0199B99C020E030E003
:102D800040E050E063E08091500D9091510DE8DEFD
:102D90002091550D8091500D9091510D213071F47D
:102DA000BE016F5F7F4F05D18111D3C089818093B0
:102DB0004B0D9ED1AC0160E081E00EC040E0BE0151
:102DC0006F5F7F4F3BD18111C4C0898180934B0DD0
:102DD0008FD1AC0160E080E0A1D190934D0D809344
:102DE0004C0D60914C0D70914D0D693482E0780767
:102DF00008F0AFC086E06F3F710509F050F40E9403
:102E0000C50260E088E00E94C50281E08093520D17
:102E100002C00E94C5028091500D9091510D039601
:102E20009093510D8093500D80914C0D90914D0DCC
:102E3000039790934F0D80934E0D1092530D83E0A6
:102E40008093560D67E00E94C50231C0199B2FC0C8
:102E500080914E0D90914F0D8F3F910509F058F4E0
:102E60008091520D811107C060E088E00E94C50288
:102E700081E08093520D20E030E040E050E06FE1CF
:102E80008091500D9091510D6BDE80914E0D90917F
:102E90004F0D4F9790934F0D80934E0D8091500D95
:102EA0009091510D4F969093510D8093500D4A99EA
:102EB00053C08091560D823008F44EC01C821B8294
:102EC0009E012D5F3F4FAE014C5F5F4F60914E0DF5
:102ED0008091500D9091510D43DE81E08093540D0F
:102EE0008091550D813051F480914B0D01D1AC0191
:102EF00068E27CE087E59DE025D109C080914B0D1B
:102F0000F7D0AC0168E27CE087E59DE091D1892BA8
:102F100001F582E60E94200510E08091280CE8D09F
:102F2000212F30E02817390740F4F901E85DF34F0D
:102F300080810E94E4051F5FF0CF80910D0885FF1E
:102F400006C08B810E94E4058C810E94E4050E94EA
:102F500070051092560D02C080E046DE2496E3E034
:102F60000C94D52DFC012181223771F482818823B4
:102F700069F0833711F481E003C0843719F482E0EB
:102F80007EDE04C080E0FCCF233791F080913303D4
:102F9000813029F0823031F48CEF91E005C082E07D
:102FA00092E002C088EF91E00E9463050C947005E6
:102FB0000895CF93DF93EC01A881E981CA2FC295D0
:102FC000CF70D0E0C05FDE4F4881AF70B0E0A05F4F
:102FD000BE4F2C91AE2FA295AF70B0E0A05FBE4F58
:102FE0008C91EF70F0E0E05FFE4F908151E02F3F59
:102FF00009F050E031E04F3F09F030E0532B31E071
:103000008F3F09F030E0352BA9F49F3F99F0D0E4D1
:103010004D9FA0011124E0E12E9F90011124242B4B
:10302000292BF4E08F9FC0011124282BEB0128836A
:1030300080E001C081E0DF91CF910895DC0111961D
:103040009C911197411118C012968C911297E82FFC
:10305000EF73F0E0E05DFE4F5081E92FEF7024E068
:10306000E29FF00111248295869586958370E82B66
:10307000E05DFE4F808102C080E050E02C91E22FA5
:10308000E37030E1E39FF001112492959F70E92BEA
:10309000E05DFE4F908126952695E22FF0E0E05D01
:1030A000FE4F2081E1E09F3F09F0E0E031E02F3F5B
:1030B00009F030E0E32B31E05F3F09F030E03E2BD8
:1030C00099F48F3F89F0E0E12E9F90011124292B84
:1030D000FB01208341110AC0F0E18F9FC001112440
:1030E000852BFB01818302C081E0089580E0089573
:1030F000482F50E08A3150F09A012A51310984E07A
:10310000359527958A95E1F72D5F01C022E0CA0128
:103110000196820F911D820F911D0895882331F031
:10312000CA0161110196880F991F0895CA01880F7D
:10313000991F840F951F96958795611101C040FDD9
:1031400001960895A0E0B0E0E8EAF8E10C94AC2D17
:103150004C01EB016A01A12CB12C00E010E0612CC4
:10316000712CE12CF12CA2E14A2E512CC114D10476
:1031700009F451C0BE01C4011CDF81114FC082E0BF
:10318000C816D104A1F08AE0E816F10460F0C70186
:103190000A97B2010E94832D31E020E0892B09F0CB
:1031A00030E0032F122FA114B10499F005C0A1142F
:1031B000B10491F001E010E060947094772488816C
:1031C00090E06816790669F5A12CB12C612C712C60
:1031D00017C00115110581F0930120953095232F1B
:1031E0003327888190E028173907D9F4AA24A394BB
:1031F000B12C00E010E004C06881C301A1D03C0103
:1032000081E0C81AD1088FEFE81AF80A82E0880E28
:10321000911C2196ABCF80E090E005C081E090E06A
:1032200002C082E090E0CDB7DEB7E0E10C94C82D9B
:10323000A0E0B0E0EEE1F9E10C94AE2D7C01EB01F1
:103240003A0100E010E0C12CD12C92E1892E912CA2
:103250006114710409F46DC081E068167104D1F441
:1032600041E0BE01C701EADE882319F081E090E069
:1032700062C056018FEFA81AB80AC80180959095D0
:103280009927288130E08217930709F44EC082E025
:1032900090E051C040E0BE01C701D0DE8111E6CF11
:1032A00082E0681A7108560182E0A80EB11C611410
:1032B000710459F08BE0A816B104D0F0C6010A974A
:1032C000B4010E94832D892B99F4009510959801E3
:1032D0003327898190E028173907C9F6012F112774
:1032E000888190E00817190791F600E010E018C0F7
:1032F000688181E06816710471F4C80121D08C01E5
:103300009C0120953095232F3327898190E0281741
:10331000390731F0BCCFC80113D0698111D08C01BD
:1033200083E0E80EF11C229602C0612C712C65012D
:103330008FCF80E090E0CDB7DEB7EEE00C94CA2DE1
:1033400078E0AC0144275078452F5527262F207868
:1033500030E0880F991F4217530721F025E6822796
:103360002DE39227660F715061F70895CF93DF9395
:10337000E898249A2C9A8EE190E00E94AB042C9855
:103380008EE190E00E94AB042C9A8DE290E00E94C6
:10339000AB0480E30E94D70284E690E00E94AB0475
:1033A000CBEBD2E0FE018491813440F083E30E94B4
:1033B000D70284E00E94B004CFEF0DC0FE01319629
:1033C0006491FE0184910E94C5022296F2E0C73FFB
:1033D000DF0741F7EBCF84E30E94D7028AE090E059
:1033E0000E94AB04C150B9F781E080933403DF91B0
:1033F000CF910895EF92FF920F931F93CF93DF9396
:10340000EC018B01F880F3946115710519F0E4E685
:10341000F0E002C0E0E0F0E028E0F29EC0011124FC
:103420006AE070E00E94972D9B012E0F3F1FC9019B
:10343000AA2797FDA095BA2FE0910B08F0910C08F0
:10344000AF0160E070E0481759076A077B0728F46E
:103450008BEA92E00E946305D9C0E21BF30BF09364
:103460000C08E0930B0880913403811101C07EDFCA
:1034700085E30E9488028D3071F08AE50E94200564
:1034800085E40E94200582E50E94200582E50E94D5
:10349000200581E34CC08091350390913603A091C3
:1034A0003703B0913803892B8A2B8B2B51F50E945F
:1034B000390385E30E948802833109F443C08AE519
:1034C0000E94200585E40E94200582E50E942005D7
:1034D00082E50E94200582E32AC08091070890912E
:1034E0000808A0910908B0910A084F5F5F4F6F4F1D
:1034F0007F4F84179507A607B707C9F681E00E949A
:10350000B0048091070890910808A0910908B09133
:103510000A0840913503509136036091370370914A
:10352000380384179507A607B707B9F6E7CF0E94B7
:10353000200585E30E9488020E94E4050E94700530
:1035400015DF64C0012B41F42C988FE70E942E02F6
:10355000EC2E0C2F1D2F0BC00AE010E084E60E9419
:10356000B0040150110901151105C1F7EDCF802FED
:103570008E198F1530F4F80181918F010E942E026F
:10358000F6CF2C9AC8EC85E30E9488028D30E9F4CE
:1035900085E30E9488028D3019F18AE50E9420059A
:1035A00085E40E94200582E50E94200582E50E94B4
:1035B000200583E30E94200585E30E9488020E9483
:1035C000E4050E947005D2DE0BC085E30E948802EC
:1035D0008331F1F681E00E94B004C150A1F6D8CF4A
:1035E00080913403811102C00E94700B8091070802
:1035F00090910808A0910908B0910A0880933503BA
:1036000090933603A0933703B0933803CDB7DEB75A
:10361000E6E00C94D22DACE0B0E0E1E1FBE10C94EB
:10362000B92DFC018BE0898381818A831B8282E032
:103630008C8387818D8380858E8381858F83848130
:1036400088878581898786818A871B861C8684E195
:103650000E94B00460E070E0CE010196CBDE8AE506
:103660000E94200510E0812F90E0298130E028178A
:1036700039075CF0E1E0F0E0EC0FFD1FE80FF91F07
:1036800080810E94E4051F5FEECF80910D0885FFC9
:1036900003C080E00E94E4050E9470052C96E3E0E0
:1036A0000C94D52DCF93DF93EC0180913C038111D5
:1036B00008C090913D03911104C090913E0399235D
:1036C000A9F09B81903319F09F7E903479F49F810B
:1036D00098130CC0988580913D03981307C0998575
:1036E00080913E03981302C0CE0195DF809139038B
:1036F000811108C090913A03911104C090913B034D
:103700009923A9F098819B3091F49B81903479F4AE
:103710009F8198130CC0988580913A03981307C035
:10372000998580913B03981302C0CE0174DFDF912D
:10373000CF910895AEE1B0E0E0EAFBE10C94B82D42
:1037400080913403882309F469C04A9B59C08FE3F0
:103750000E9488028F778E3108F08DE189832C9842
:103760008FEF0E942E0210E08981181760F480E02C
:103770000E942E02E2E0F0E0EC0FFD1FE10FF11DD0
:1037800080831F5FF1CF80E00E942E02082F80E02F
:103790000E942E022C9ACE01019684DF80910D08A2
:1037A00084FF12C08AE70E94200510E089818117FA
:1037B000A8F1E1E0F0E0EC0FFD1FE10FF11D8081C9
:1037C0000E9420051F5FF2CF8AE50E94200510E0CD
:1037D0008981811758F0E1E0F0E0EC0FFD1FE10F67
:1037E000F11D80810E94E4051F5FF2CF80910D08DA
:1037F00085FF03C0802F0E94E4050E9470050EC063
:1038000085E30E948802813149F48AE30E94D7024D
:1038100086E30E94D70284E30E94D7026E96E4E01A
:103820000C94D42DAEE1B0E0E8E1FCE10C94B82DAD
:103830008C01FC018181823711F498DD36C0833719
:1038400011F0863601F54DE1BE016F5F7F4FC80173
:1038500002960E94E80599270197298130E0821796
:10386000930729F082EA92E00E9463051EC061E09E
:1038700070E0F8018181833711F060E070E0CE01E3
:103880000196B8DD12C0813621F443E06CE373E0A9
:1038900005C0873741F443E069E373E0C80102964D
:1038A0000E94E80502C0109234036E96E4E00C9486
:1038B000D42DCF93DF93E898249A2C9A8EE190E050
:1038C0000E94AB042C988EE190E00E94AB042C9AED
:1038D0008DE290E00E94AB0480E30E94D70284E670
:1038E00090E00E94AB042C9880E40E942E02C7EF67
:1038F000D2E0FE0184910E942E022196F3E0C430B2
:10390000DF07B9F7809101010E942E028091020128
:103910000E942E02809103010E942E02C0E0D0E09E
:10392000FE01E95FFC4F84910E942E022196C9316D
:10393000D105B1F72C9A2C988EE70E942E028BE2CB
:1039400090E0EC0121960E9448060E942E02C333AB
:10395000D10511F0CE01F5CF2C9A83E30E94D70256
:1039600081E00E94B00481E080930508DF91CF914F
:1039700008956F927F928F929F92AF92CF92EF9223
:10398000FF920F931F93CF93DF93EC0189818437CC
:1039900069F468E071E0CE0102960E94150640E2EB
:1039A00060E0809108019091090112C0833709F00D
:1039B00091C18A81823789F464E071E0CE01039677
:1039C0000E94150640E260E080910401909105019B
:1039D0000E9474050E947005E8C1469A80914103D7
:1039E000811116C080913103882329F081E08093F2
:1039F00040031092310380913403882329F081E041
:103A000080933F031092340354DF83E00E94B0049C
:103A100086E30E94D7028AE30E94D7028BE30E94CA
:103A2000D7020E943903FE0101900020E9F70E2F12
:103A30000C1B0250C12CFAE09F2E7E0132E0E30EF7
:103A4000F11CA5E0AA2EB8E28B2E80910401909182
:103A500005012C2D332727FD30952817390708F04D
:103A6000FBC00132A1F4299A8091080190910901CB
:103A70000E94AB0429988091060190910701FC01F6
:103A80009E9EC0019F9E900D11240E94AB043701A1
:103A900011E010170CF0B7C0F30181913F01299A92
:103AA000803309F046C0013201F580910601909102
:103AB00007010E94AB0429988091060190910701AB
:103AC0000E94AB04299A80910601909107010E94FF
:103AD000AB04299880910601909107019C01A29E58
:103AE000C001A39E900D11248AC08091080190917D
:103AF00009010E94AB042998809108019091090165
:103B00009C01220F331F820F931F0E94AB04299A3E
:103B100080910801909109010E94AB04299880913D
:103B20000801909109019C01220F331F820F931FFE
:103B300066C0813329F5013291F48091060190919C
:103B400007010E94AB04299880910601909107011A
:103B5000FC01AE9EC001AF9E900D11241EC080914D
:103B60000801909109019C01220F331F820F931FBE
:103B70000E94AB04299880910801909109012CC002
:103B80000132D1F480910601909107010E94AB04AB
:103B9000299880910601909107010E94AB04299A0F
:103BA00080910601909107010E94AB0429988091B1
:103BB00006019091070123C08091080190910901AD
:103BC0000E94AB04299880910801909109019C0101
:103BD000220F331F820F931F0E94AB04299A8091FA
:103BE0000801909109019C01220F331F820F931F3E
:103BF0000E94AB04299880910801909109010E94CC
:103C0000AB041F5F46CF299A0132A1F480910601CF
:103C1000909107010E94AB04299880910601909130
:103C200007019C01829EC001839E900D11240E9479
:103C3000AB0410C080910801909109010E94AB046F
:103C400029981FE180910801909109010E94AB041D
:103C50001150C1F7C394F9CE80914103882341F0FC
:103C600080910D0881110FC086E30E94D70218C011
:103C700080914003882351F0109240030E94141455
:103C800081E0809331030E944B030AC080913F037F
:103C9000882321F010923F0369DB02C00E94700B61
:103CA000469889E60E94200583E70E94200511E0DE
:103CB00010170CF08FCEFE01E10FF11D17FDFA95E4
:103CC0008181803319F0813309F086E40E94200558
:103CD0001F5FEECF8237B9F480913103882329F03A
:103CE00081E0809340031092310380913403882354
:103CF00029F081E080933F0310923403DADD81E004
:103D00008093410352C0863651F58A81803351F445
:103D100080E18093010180EB8093020181E7809331
:103D2000030107C043E061E071E0CE0102960E940A
:103D3000E80589E60E94200586E60E9420058AE3C0
:103D40000E942005809101010E94E40580910201FA
:103D50000E94E405809103010E94E4053BCE883770
:103D600021F580914003882341F0109240030E9486
:103D7000141481E08093310310C080913F038823A5
:103D800021F010923F03F2DA0EC082E090E00E9430
:103D9000DB0280910D08882319F00E944B0303C0B9
:103DA00086E30E94D70210924103DF91CF911F91C9
:103DB0000F91FF90EF90CF90AF909F908F907F905A
:103DC0006F9008951092BA0F1092FD0383E08093D4
:103DD00047038FEF8093CF0F0895E8E4F3E020814D
:103DE000211105C0892BB1F080E090E00895B3E087
:103DF000E63FFB07B8F7009751F04181DC013C91A9
:103E0000431305C0428111963C91431751F0E20FD4
:103E1000F11DE5CF33E0E63FF30719F010F0E6EFD0
:103E2000F3E0CF01089594E0899FF0011124E0535D
:103E3000F04F80818F3F91F0809342038181809386
:103E4000430382818093440383818093450321E06F
:103E50004CE064E082E493E00C948308089587EFDB
:103E600093E0BBDF009799F020914703FC0130817C
:103E7000231768F4E20FF11D80818093F90389E72D
:103E80008093FA0381818093FB0381E0089580E0B1
:103E90000895EF92FF921F93CF93DF931F92CDB7B8
:103EA000DEB7182F80910D0886FF18C084E599832E
:103EB0000E942005E12E9981F92E15E0F7018191EC
:103EC0007F010E94E4051150C9F780910D0885FF1C
:103ED00003C08AEF0E94E4050E9470050F90DF91F5
:103EE000CF911F91FF90EF90089586E30E94D70233
:103EF0008091F903833511F48BE901C08BE40E94B2
:103F0000B00421E04CE065E087EF93E00E94830875
:103F10000E944B0387EF93E0BCCFE7DF8091F9036A
:103F2000893631F081E08093F60389E28093CF0FE8
:103F30000895CF9385E390E00E9448068093A00FF8
:103F400086E390E00E9448068093CE0FCFEFC093A7
:103F5000BE0FC093C00FC093C20FC093C40FC093D5
:103F6000C60FC093C80FC093CA0FC093CC0F2ADFEF
:103F70001092480381E080939F0FC093D00F8FEF82
:103F80009FEF9093A30F8093A20F1092A50F109212
:103F9000A40F1092A70F1092A60FC093D40F909366
:103FA000A90F8093A80F1092AB0F1092AA0F109236
:103FB000AD0F1092AC0FC093D80F9093AF0F8093BA
:103FC000AE0F1092B10F1092B00F1092B30F10926B
:103FD000B20FC093DC0F9093B50F8093B40F109283
:103FE000B70F1092B60F1092B90F1092B80FCF9171
:103FF0000895ACE0B0E0EFEFFFE10C94B32D6C015D
:104000008C010F5F1F4F45E0BE016F5F7F4FC801FE
:104010000E94E805843008F0F3C099819130A9F43A
:10402000833061F46A8185E390E00E9443066B81EE
:1040300086E390E00E9443067CDF06C28091A00FD9
:104040000E94E4058091CE0F9AC0923009F051C0D1
:10405000813039F081E09A81913009F080E0F82ECA
:1040600002C0FF24F39480914803811104C080E2D0
:1040700093E00E94630508E413E0F801808188233F
:1040800009F4BBC0F3E0063F1F0708F0B6C033E0F9
:104090000834130719F080E20E942005F80181819D
:1040A0000E94E405F80182810E94E405FF20E1F00E
:1040B0008AE30E94200593E0F80180819817A0F41C
:1040C000943038F090FF05C08CE29C870E94200558
:1040D0009C85EE24E394E90EF801E90FF11D80813F
:1040E0000E94E4059E2DE8CFF8018081080F111D84
:1040F000C4CF933049F480E090E06FDE8854934061
:104100009EEA981B892F3BC0903171F50EEB1FE0A2
:104110008FEBE82E8FE0F82EC12CD12CF801808196
:104120008F3FA1F0DD2019F080E20E9420058C2D48
:104130000E94E4058AE30E942005F80180810E9424
:10414000E405F70180810E94E405D3940E5F1F4FC0
:10415000C394F2E0EF0EF11C38E0C312DFCFD110B0
:104160004CC08EE293E047C0913161F48091BC0F66
:104170009091BD0F6DE770E00E94832D862F0E9405
:10418000E4053BC09231C9F510EDE12E1FE0F12EA0
:1041900003ED1FE0C12CD12CF70180818F3FF1F09E
:1041A000DD2019F080E20E9420058C2D0E94E4059C
:1041B0008AE30E942005F70180810E94E405F8014E
:1041C000329780810E94E405F801319780810E9436
:1041D000E405F80180810E94E405D394F4E0EF0E39
:1041E000F11CC3940C5F1F4F34E0C312D5CFD11024
:1041F00004C08AE293E00E9463050E94700524C116
:1042000044E0BE01695F7F4FC8010E94E8054F810D
:10421000493608F477C07A85588569857C3009F07D
:104220004BC020E030E080E090E0F901E053F04F37
:10423000708174131CC0A181A51319C0A281A6139B
:1042400016C02CE023839C01220F331F280F391F37
:10425000F901EE0FFF1FEE55F04F11821082F901A8
:10426000EE0FFF1FEC55F04F11821082CFC07F3F41
:10427000D9F44083518362832CE023839C01220F75
:10428000331F280F391FF901EE0FFF1FEE55F04FB6
:1042900011821082F901EE0FFF1FEC55F04F1182D1
:1042A000108210929F0FB2C001962C5F3F4F2031B9
:1042B000310509F0BACFC8C080E090E020E030E0DE
:1042C000FC01E053F04FA081A41315C0A181A513F8
:1042D00012C0A281A6130FC07383F901EE0FFF1F56
:1042E000E20FF31FEE0FFF1FEC55F04F81E090E05F
:1042F00091838083A9C02F5F3F4F04968031910541
:10430000F9F6A2C0E9818091A00FE817C0F190E012
:10431000F0E09C01295F3F4F2E173F0784F13A815F
:104320002091CE0F32132BC03C813F3231F442E05A
:104330006CE0C6010E94F00887C02D813C32B1F4C8
:104340002093BB0F81E090E09093BD0F8093BC0F52
:1043500080910B0890910C08E4E02E9F800D911D38
:10436000112490930C0880930B086EC0E81BF90B86
:10437000EE0FF0E0E254F04F3083218365C080E01F
:1043800090E02BDD7C01F80101900020E9F73197E6
:10439000E01BF10BF695E795BB24B394BE0EC70165
:1043A0008B0D911D885493408F3A91050CF048C0B5
:1043B000F701B1928F0121E0822F880F81502B15D8
:1043C000D8F441E0B801F601E80FF11DCF012C87C8
:1043D0000E94E8052C85233058F020FD09C0D80143
:1043E00011978C91843621F4F80180818093A10F7C
:1043F0002F5F0F5F1F4FE0CFF6EFEF16F3E0FF06E2
:1044000018F5F701E20FF11D10821EC022E04CE00A
:1044100064E0CE0107960E9483088FE08A8722E03D
:104420004CE064E0CE0107960E94830882E08A8710
:1044300022E04CE064E0CE0107960E94830804C0AD
:1044400084E293E00E9463052C96E9E00C94CF2D62
:104450000F931F93CF93DF9390919F0F91114FC0B4
:1044600093E0899F80011124F801EE0FFF1FEE55A4
:10447000F04F94E0899FD0011124A053B04F1296C1
:104480009C91977040E850E0491B51099AEF949F26
:104490009001959F300D11243595279535952795D9
:1044A00031832083E801CC0FDD1FCA55D04F28810E
:1044B00039812F5F3F4F39832883000F111F0C551F
:1044C000104FF801408151814115510529F42430E4
:1044D0003105A9F4A8DC11C04130510539F4A3DC41
:1044E00082E090E0F8019183808309C04230510559
:1044F00031F499DCF8011182108219821882DF915F
:10450000CF911F910F910895A6E0B0E0EAE8F2E2A2
:104510000C94B62D2091CE0F2A831B828091BB0F65
:10452000882341F0833019F487E791E00FC08DE7CD
:1045300090E00CC0277030E02A513F4F4DE7429F7A
:10454000C001439F900D1124959587959093BD0FC1
:104550008093BC0F0FEB1FE0F12C7CE2E72EF801FB
:10456000319790819F3FC1F08091A00F8F0D89837B
:104570008091BB0F882311F0EC8203C09C83F8016B
:1045800080818D8321E04CE065E0CE0101960E94A0
:104590008308CE0101967DDCF3940E5F1F4FF8E097
:1045A000FF12DDCF8091BB0F882341F0833019F4D7
:1045B0001092BB0F03C082508093BB0F2696E6E09B
:1045C0000C94D22D8091F603882351F08EDC89E281
:1045D0008093CF0F8091F60381508093F603089566
:1045E000F1CBFF920F931F93CF93DF93FC01F080E9
:1045F0000181C281D38114818FE58093CF0F109206
:10460000F6038091A00F811105C08091CE0F882301
:1046100009F4A9C08091F7038F1104C08091F803B9
:10462000801729F0CFDBF092F7030093F803809115
:10463000BA0F8F3F09F497C0C093F903D093FA03E0
:104640001093FB03CC23F1F081111CC08091A00FCB
:10465000181761F0143651F08DEA8C0F823010F08B
:10466000CD3739F48FEF8093BA0F7DC0C43509F48C
:104670007AC08D2F807F803609F075C0D067D093C7
:10468000FA0357C0ECDB811105C08091BA0F882373
:1046900009F469C08091FD03811107C0E091BA0F50
:1046A000F0E0EE5CFC4FE49101C0E82FE33541F40B
:1046B000C43531F49091BA0F9E5F9093BA0F04C045
:1046C000EC1711F07FDB4FC0882369F0809147031E
:1046D0008E5F80934703C3DB81110EC08091BA0FB8
:1046E0008E5F8093BA0F8091BA0FE82FF0E0ED5CF7
:1046F000FC4F14911F3F59F48091F9038093FD03FF
:104700008436B9F48091A10F8093FB0312C01093FB
:10471000F90397E79093FA039091A00F9093FB030E
:104720008E5F8093BA0F1092FD038E3021F011231B
:10473000D1F0F3DB18C087EF93E04FDBDC0100978B
:1047400081F02C9130E086EF93E0821B930BA81749
:10475000B90730F4ED01C20FD31F48814D93F7CF55
:104760001C9230DBE4CFCDB7DEB7E5E00C94D32D5F
:10477000FF920F931F93CF93DF938C01EC0109906D
:104780000020E9F72197C81BD90BFC0181818237F2
:1047900051F487E390E00E94DB020E944B0381E02A
:1047A0008093E00F27C0833719F5FC2E2C988FE7F4
:1047B0000E942E028C2F82500E942E02E801229627
:1047C00012E01F1528F489910E942E021F5FF9CF75
:1047D0002C9A0E9439038AE30E9488028F7729F07D
:1047E00084E690E00E94AB04F6CF0E944B0302C027
:1047F0001092E00FCDB7DEB7E5E00C94D32DA0E02A
:10480000B4E0E5E0F4E20C94B42D8091E00F88234D
:1048100009F452C0813011F5809107089091080881
:10482000A0910908B0910A082091FE03281709F405
:1048300043C085E30E948802813129F48AE30E9403
:10484000D7020E944B038091070890910808A0911D
:104850000908B0910A088093FE032EC08FE30E94DE
:104860008802D82E2C988FEF0E942E028E010F5FA7
:104870001F4F7801C02E8E2D801B8D1538F480E0DF
:104880000E942E02F70181937F01F5CF2C9A81E0DF
:1048900080938702802F8C198D1530F4F801819157
:1048A0008F010E942005F6CF0E9470058FEF809344
:1048B000870281E08093E00FDC5FE8E00C94D02D6C
:1048C0000F931F93CF93DF93EC0110E0212F30E083
:1048D000F901EE0FFF1FE20FF31FE457FF4F0491A2
:1048E000F901EE0FFF1FE20FF31FE357FF4F259172
:1048F0003491002399F0209739F480E20E9420053A
:10490000802F0E94200508C08881801305C0CE0139
:10491000F901099581E003C01F5FD8CF80E0DF91E6
:10492000CF911F910F910895CF93C09187028093EB
:1049300087028091EB139091EC13892BA1F187EE04
:1049400093E10E9482078F3FA1F3E091FF038A3039
:1049500011F08D30F9F4EE2361F3F0E0E050FC4FFC
:10496000108280E094E0ACDF811111C088E593E013
:104970000E94630580E094E00E94580580E493E083
:104980000E94630580E090E09BDF0E94700510921A
:10499000FF03CFCF91E09E0F9093FF03F0E0E05034
:1049A000FC4F8083C6CFC0938702CF9108951F929A
:1049B0000F920FB60F9211240BB60F922F933F93C5
:1049C0004F935F936F937F938F939F93AF93BF9317
:1049D000EF93FF938091E50F9091E60F892B39F0CB
:1049E00081EE9FE00E9482078093C60005C08091FF
:1049F000C1008F7D8093C100FF91EF91BF91AF9176
:104A00009F918F917F916F915F914F913F912F91E6
:104A10000F900BBE0F900FBE0F901F9018951F9216
:104A20000F920FB60F9211240BB60F922F933F9354
:104A30004F935F936F937F938F939F93AF93BF93A6
:104A4000EF93FF9388B190E4892788B96091C600FD
:104A50008091C000887121F487EE93E10E94640781
:104A6000FF91EF91BF91AF919F918F917F916F9146
:104A70005F914F913F912F910F900BBE0F900FBE02
:104A80000F901F90189597FF04C022E02093C0005C
:104A90009F779093C5008093C40088E98093C100FC
:104AA00086E08093C20008958091C10085FD0BC00F
:104AB0008091E50F9091E60F892B29F08091C1003C
:104AC00080628093C1000895E0910308F09104088A
:104AD00081E00995E9CFE4E6F0E080818B7F808377
:104AE0002F9A84B1806B84B9269880E58CBD8DB5F2
:104AF00081608DBD08951092B90080E28093B80066
:104B0000089594EA9093BC009091BC0097FFFCCF6D
:104B10009091B900987F983021F0903111F081E0A8
:104B200008958093BB0084E88093BC008091BC0012
:104B300087FFFCCF8091B900887F883111F08034E5
:104B400071F780E0089584E98093BC008091BC00F7
:104B500084FDFCCF08958093BB0084E88093BC0063
:104B60008091BC0087FFFCCF9091B900987F81E0D5
:104B7000983209F480E0089584EC8093BC00809121
:104B8000BC0087FFFCCF8091BB00089584E8809330
:104B9000BC008091BC0087FFFCCF8091BB000895D2
:104BA0008F929F92AF92BF92CF92DF92EF92FF923D
:104BB00020E030E040E251E40E94D72F4B015C013D
:104BC0000E942F2F6B017C019B01AC01C501B40138
:104BD000F8D72FE335E34EE05FE30E94D32F87FD44
:104BE00006C0C501B4010E94462E6B017C01C701BD
:104BF000B6010E94C12ECB01FF90EF90DF90CF90C5
:104C0000BF90AF909F908F9008958091521890918F
:104C10005318892B59F08091EF179091F017009756
:104C200029F001979093F0178093EF17089581E092
:104C300090E02091ED173091EE17232B11F480E0D6
:104C400090E0089581E090E02091F3173091F417FF
:104C5000232B11F480E090E00895109251181092E7
:104C6000501810924B1810924A181092491810922E
:104C700048181092F2171092F117109257181092CC
:104C80005618E6EFF7E1119288E1E634F807D9F714
:104C90000895E091F517E827F0E0E058FE4F808195
:104CA0008093F5170895EF92FF920F931F93CF9380
:104CB000DF9386EFE82E87E1F82EC0E0D0E0809108
:104CC000561890915718C817D907E4F4219640E276
:104CD00060E0CE010E9474058AE30E94200508E08E
:104CE00010E001501109F701E00FF11F80810E94CF
:104CF000E40501151105A9F70E94700588E0E80E8A
:104D0000F11CDDCFCDB7DEB7E6E04CC780E3F9DEBE
:104D1000882321F018DF80E090E0089514DF81E01F
:104D200090E00895EF92FF921F93CF93DF9300D00E
:104D3000CDB7DEB7162F49835A83E3DEF82E4981BB
:104D40005A81811102C07A0123C0FDDE86E40E94EF
:104D5000200581E60E94200589E60E9420058CE658
:104D60000E94200585E60E94200584E60E94200519
:104D700080E20E94200589E40E94200582E30E94CF
:104D8000200583E40E9420050E9470058F2D0AC033
:104D9000112331F0F70181917F01DDDE1150F8CF51
:104DA000D2DE80E00F900F90DF91CF911F91FF90A6
:104DB000EF900895EF92FF921F93CF93DF9300D06F
:104DC0001F92CDB7DEB78F5F4A835B83698399DE1D
:104DD000182F4A815B816981811104C07A01162FE5
:104DE000140F23C0B0DE86E40E94200581E60E94F5
:104DF000200589E60E9420058CE60E94200585E6B4
:104E00000E94200584E60E94200580E20E94200581
:104E100089E40E94200582E30E94200583E40E9429
:104E200020050E947005812F0EC0812F8E198230BF
:104E300028F0A2DEF70181937F01F7CFA7DEF7010B
:104E4000808381DE80E00F900F900F90DF91CF91F3
:104E50001F91FF90EF900895A2E0B0E0E1E3F7E248
:104E600089C68A83AE014E5F5F4F61E080E35ADFFF
:104E7000813011F589E40E94200582E30E9420051B
:104E800083E40E94200580E20E94200586E40E94BF
:104E9000200581E60E94200589E60E9420058CE617
:104EA0000E94200585E60E94200584E60E942005D8
:104EB0000E94700581E007C0AE014F5F5F4F61E067
:104EC00080E378DF80E02296E2E070C6A2E0B0E006
:104ED000EBE6F7E24FC689836A83AE014F5F5F4F0F
:104EE00062E080E31FDF813011F589E40E94200534
:104EF00082E30E94200583E40E94200580E20E9454
:104F0000200586E40E94200581E60E94200589E6AE
:104F10000E9420058CE60E94200585E60E9420055F
:104F200084E60E9420050E94700581E007C0AE0162
:104F30004F5F5F4F61E080E33DDF80E02296E2E07B
:104F400035C680EF89DF811109C064E082EDBEDFE4
:104F500021E090E0811120E0822F089580E090E030
:104F60000895A1E0B0E0E6EBF7E204C660EF81EE61
:104F7000ADDFAE014F5F5F4F61E080E31BDF8981F2
:104F800080FDF7CF2196E2E011C61092EE17109245
:104F9000ED1784EB61DFE5DF82FD03C0869581704C
:104FA00001C082E090E00895CF93C82FDADFCC23D0
:104FB00011F060E801C060E087E888DFD2DFCF91C0
:104FC000089581E0F1DFCDDF85FB882780F9089522
:104FD000A1E0B0E0EDEEF7E2CDC58983C2DF6981E3
:104FE00085EA74DFBEDF2196E2E0E0C5CF93DF9370
:104FF000EC01CBDF85E5ECDF8F81EADF8E81E8DF36
:105000008D81E6DF8C81E4DF8B81E2DF8A81E0DF66
:105010008981DEDF8881DCDFDF91CF910895AF9257
:10502000BF92DF92EF92FF920F931F93CF93DF9384
:105030001F92CDB7DEB71092F51780914A18909164
:105040004B18892B09F0ADC0A0DF009769F41092CE
:1050500051181092501810924B1810924A18109232
:10506000491810924818BCC080EFB2DFDD24D394F9
:1050700000E010E0E12CF12CAA24A394B12CA1DFD4
:1050800089839FDF2091F1173091F2179981913038
:1050900019F4813041F565C0981336C080915018DD
:1050A00090915118A816B90694F41216130694F4A8
:1050B000F901319753E0EE0FFF1F5A95E1F7E00F2A
:1050C000F11FEA50F84E80818D2169F403C0A816C3
:1050D000B90649F089E0A816B104A4F4B0924918C1
:1050E000A09248180FC0F90143E0EE0FFF1F4A9548
:1050F000E1F7E00FF11FEA50F84E80818D2980839F
:1051000091E011C0750190E0F90133E0EE0FFF1F4F
:105110003A95E1F7E00FF11FEA50F84E80812D2D0E
:10512000209582238083892F3FDFEFEFAE1ABE0ADE
:10513000DD0C99F4E091F117F091F21723E0EE0FF6
:10514000FF1F2A95E1F7E00FF11FEA50F84E80812A
:10515000A0DD0F5F1F4FDD24D394083011050CF440
:105160008ECFF1E4AF16B104E4F08091F517811110
:1051700018C0F0925118E0925018E114F10431F483
:1051800081E090E090934B1880934A1880914818E2
:10519000909149188E159F0521F41092491810928C
:1051A0004818E091F117F091F21793E0EE0FFF1F0E
:1051B0009A95E1F7EA50F84E808181110FC0109264
:1051C00051181092501810924B1810924A181092C1
:1051D00049181092481880E090E002C081E090E009
:1051E0000F90DF91CF911F910F91FF90EF90DF9083
:1051F000BF90AF90089531DD12DF892BF1F48091DB
:10520000F1179091F217909357188093561884E4F1
:105210000E9420058AE30E94200540E262E080911E
:105220005618909157180E9474050C94700580913F
:10523000F1179091F2170A9714F782E50E94200562
:105240008AE30E942005E091F117F091F21773E0D4
:10525000EE0FFF1F7A95E1F7EA50F84E87810E9422
:10526000E405E091F117F091F217A3E0EE0FFF1FB4
:10527000AA95E1F7EA50F84E86810E94E405E09194
:10528000F117F091F217B3E0EE0FFF1FBA95E1F7B7
:10529000EA50F84E85810E94E405E091F117F09103
:1052A000F21783E0EE0FFF1F8A95E1F7EA50F84E00
:1052B00084810E94E405E091F117F091F21793E0E8
:1052C000EE0FFF1F9A95E1F7EA50F84E83810E9496
:1052D000E405E091F117F091F21723E0EE0FFF1FC4
:1052E0002A95E1F7EA50F84E82810E94E405E091A8
:1052F000F117F091F21733E0EE0FFF1F3A95E1F747
:10530000EA50F84E81810E94E405E091F117F09196
:10531000F21743E0EE0FFF1F4A95E1F7EA50F84E0F
:1053200080810E94E4058091F1179091F217019617
:105330009093F2178093F1170E94700570DE892B0D
:1053400009F075CF5CCF88E790E090934D1880937B
:105350004C1810925318109252181092F417109281
:10536000F31710925518109254181092EE171092CD
:10537000ED1710924718109246189093F0178093EB
:10538000EF176BDCC3DC892B21F0FFDD019709F4FB
:1053900032CF0895E6DD84E41BDEE3DD81E090E0BA
:1053A0009093EE178093ED170895A1E0B0E0EAED39
:1053B000F9E2E0C3D6DD86E94FDDD3DD61EE81EEB3
:1053C00085DDAE014F5F5F4F61E080E3F3DC8981F3
:1053D0002196E2E0EBC3AAE0B0E0E0EFF9E2C0C35F
:1053E0008091ED179091EE17892B39F0DEDF87FF62
:1053F00004C01092EE171092ED178091F317909160
:10540000F417892B79F080915418909155180197D1
:105410009093551880935418892B21F41092F41707
:105420001092F3178091521890915318892B09F418
:10543000AEC18091EF179091F017892B09F0A7C1A9
:1054400080914618909147180097B9F49EDD8CEC36
:10545000BFDD84E4BDDD85DD81E090E09093F4174D
:105460008093F31727E030E03093551820935418B9
:105470009093471880934618A7C08130910509F092
:10548000A8C08091F3179091F417892B09F07FC180
:1054900080914E1890914F182091561830915718BE
:1054A000821793070CF084C0FC01A3E0EE0FFF1FEE
:1054B000AA95E1F7EA50F84E2081283229F02232ED
:1054C00019F0203109F06EC060DD85E581DDE091E5
:1054D0004E18F0914F1883E0EE0FFF1F8A95E1F709
:1054E000EA50F84E808174DDE0914E18F0914F182B
:1054F00093E0EE0FFF1F9A95E1F7EA50F84E818195
:1055000067DDE0914E18F0914F1823E0EE0FFF1F7A
:105510002A95E1F7EA50F84E82815ADDE0914E1863
:10552000F0914F1833E0EE0FFF1F3A95E1F7EA5084
:10553000F84E83814DDDE0914E18F0914F1843E015
:10554000EE0FFF1F4A95E1F7EA50F84E848140DDE7
:10555000E0914E18F0914F1853E0EE0FFF1F5A954F
:10556000E1F7EA50F84E858133DDE0914E18F09175
:105570004F1863E0EE0FFF1F6A95E1F7EA50F84E0F
:10558000868126DDE0914E18F0914F1873E0EE0F02
:10559000FF1F7A95E1F7EA50F84E878119DD82E026
:1055A00090E0F1C0019690934F1880934E18EFC091
:1055B00080914C1890914D189093F0178093EF17AD
:1055C000109247181092461810924F1810924E18C9
:1055D000DEC0029709F0DBC0E0914E18F0914F1841
:1055E000B3E0EE0FFF1FBA95E1F7EA50F84E808165
:1055F000883229F0823219F0803109F0B9C08EEB7F
:10560000E7DC8E010F5F1F4F7E018AE0E80EF11C80
:10561000CCDEF80181938F01EE15FF05C9F7AA8052
:10562000B12CBA2CAA248981A82AE0914E18F091B5
:105630004F18A3E0EE0FFF1FAA95E1F7EA50F84ECE
:105640008081883211F0823261F4B501882777FDBC
:105650008095982FC9D320E030E040E85DE3A7D4DF
:105660002DC0688570E080E090E0BCD36B017C01C8
:10567000B7FE03C0FFEFAF1ABF0AB5017595679576
:10568000882777FD8095982FAFD320E030E040E861
:105690005EE397D24B015C016F8170E080E090E0A7
:1056A000A1D39B01AC01C701B6018BD2A701960122
:1056B00000D39B01AC01C501B40184D271DA7C0135
:1056C00097FF05C0F194E194F10818E301C010E3DD
:1056D00088E40E942005E0914E18F0914F1853E0A5
:1056E000EE0FFF1F5A95E1F7EA50F84E82810E94B3
:1056F000E405E0914E18F0914F1863E0EE0FFF1FA4
:105700006A95E1F7EA50F84E81810E94E405812F05
:105710000E94200581E30E9420050AE010E0C701F5
:10572000B80105D2D82ECB01B80101D2805D0E940C
:10573000200580E38D0D0E94200580E30E94200556
:10574000C70164E670E0F3D1CB01B801F0D1805D10
:105750000E94200580E30E94200580E30E9420052E
:1057600086E40E94200586E40E9420050E947005C0
:1057700080914E1890914F18019690934F188093F6
:105780004E1881E090E090934718809346182A962F
:10579000ECE002C2AAE0B0E0EFECFBE2E7C18EEB86
:1057A00017DC8E010F5F1F4F7E018AE0E80EF11CAF
:1057B000FCDDF80181938F01EE15FF05C9F7EA8042
:1057C000098184E50E94200585E60E9420058DE67A
:1057D0000E94200580E70E9420058AE30E942005A0
:1057E00080E20E94200510E040E264E0C8010E94CF
:1057F0007405F12C40E264E0C7010E9474058AE35D
:105800000E9420059E2D8827800F911F40E264E0B2
:1058100024E0959587952A95E1F70E94740583E425
:105820000E9420050E9470052A96E6E0BBC1A8E010
:10583000B0E0ECE1FCE29EC1FC012181293611F4CB
:1058400082DD09C02235B9F5FC0182818D3629F54A
:1058500078DB892B29F08FE40E9420058BE4F5C0CA
:1058600086E40E94200581E60E94200589E60E94C8
:1058700020058CE60E94200585E60E94200584E62E
:105880000E94200580E20E94200589E40E942005F4
:1058900082E30E94200583E4D8C0823609F0DDC08F
:1058A0008FE40E9420058BE40E9420058AE30E9479
:1058B00020056BDBC4C0233611F4F5D9CEC02237E6
:1058C00081F4FC018281823629F47BDB40E260E0D6
:1058D00090E0B7C0823409F0C0C067DD0E94E405E3
:1058E000B6C0273701F5FC012281223679F441E068
:1058F000BE016F5F7F4F03960E94E8058981882370
:1059000011F081E0898389814FDBA7C0223409F03F
:10591000A4C041E0BE016F5F7F4F03960E94E8057F
:10592000898156DB9AC02D3659F548E0BE016F5F7C
:105930007F4F02960E94E8058DE60E9420058AE3CB
:105940000E94200589810E94E4058A810E94E40565
:105950008B810E94E4058C810E94E4058D810E9468
:10596000E4058E810E94E4058F810E94E40588850C
:105970000E94E4050E947005CE01019637DB6DC0E0
:10598000283409F043C0FC0122812F36B9F510926A
:10599000F4171092F3171092551810925418109291
:1059A00047181092461880914C1890914D1890937A
:1059B000F0178093EF178091521890915318892B0C
:1059C00061F010925318109252188FE40E94200533
:1059D00086E40E94200586E438C081E090E0909340
:1059E000531880935218D1DA8CECF2DA84E4F0DAAE
:1059F000B8DA8FE40E9420058EE427C0243769F5C9
:105A00006CE478E103960E94150627C0243711F450
:105A1000C1DE23C02334F1F4FC018281833711F409
:105A2000B9DC1BC0823711F402D909C08136A9F450
:105A30008091521890915318892B31F003D940E28C
:105A400060E00E94740503C080E30E9420050E946C
:105A5000700503C0263609F4CEDB2896E2E0A6C026
:105A600020915818309159182115310521F42091B1
:105A70000C0130910D0180910A0190910B0100976A
:105A800041F48DB79EB740910E0150910F01841BD8
:105A9000950B2817390718F4821B930B089580E0A3
:105AA00090E0089582E40E94200540E265E0809144
:105AB0005818909159180E9474050E94700583E54A
:105AC0000E94200540E265E080910C0190910D015B
:105AD0000E9474050E94700585E40E94200540E242
